:100000000C94CE010C94A3250C94D0250C94F601ED
:100010000C94F6010C94F6010C94F6010C94F60184
:100020000C94F6010C94F6010C94F6010C94F60174
:100030000C94F6010C94F6010C94F6010C94F60164
:100040000C94FD250C94F6010C94FC220C942F23A7
:100050000C94F6010C94F6010C94F6010C94F60144
:100060000C94F6010C94F601545820256C75206F01
:100070006C642073616D706C6520706572696F646B
:100080003D257500416464696E67206E65775F7316
:10009000616D706C655F706572696F6420257500B5
:1000A000545820256C75206E65772073616D706CD7
:1000B0006520706572696F643D2575006574612007
:1000C000256C75203C206D696C6C6973282920258E
:1000D0006C750069643A256C75206D697373696E7F
:1000E000672E204E6577204554413D256C75206D67
:1000F00069737365643D2575004E657874205458A6
:100100002049443D256C752C204554413D256C7596
:1001100000256C7520697320616C726561647920BB
:10012000696E20646174612E0044594E414D49430B
:10013000204152524159204F5554204F46205241A0
:100140004E4745204552524F52004F5554204F467E
:10015000204D454D4F525900256C75206973206123
:100160006C726561647920696E20646174612E002F
:1001700044594E414D4943204152524159204F5517
:1001800054204F462052414E4745204552524F522F
:10019000004F5554204F46204D454D4F5259004475
:1001A000594E414D4943204152524159204F5554D7
:1001B000204F46204D454D4F52590044594E414D18
:1001C0004943204152524159204F5554204F462017
:1001D0004D454D4F5259004D697373696E672054F8
:1001E000525820256C752C20726574726965733DB8
:1001F0002564004D697373696E6720545258202539
:100200006C752E20476976696E672075702E0057D1
:10021000696E646F77206F70656E21204578706518
:100220006374696E6720256C7520617420256C7578
:100230000057696E646F7720636C6F7365642E205E
:10024000737563636573733D2564005761697469F1
:100250006E6720256C75206D7320666F722049448F
:1002600020256C7500527827642043435F54582042
:100270007061636B6574207769746820756E6B6E4E
:100280006F776E20494420256C75005278276420D2
:1002900043435F545258207061636B6574207769E3
:1002A000746820756E6B6E6F776E20494420256CE4
:1002B0007500527827642062726F6B656E2025731B
:1002C000207061636B65740044594E414D49432071
:1002D0004152524159204F5554204F462052414ED1
:1002E0004745204552524F52005061697220726555
:1002F000712066726F6D20256C75004E4F204D4F3A
:10030000524520425546464552532100617474615E
:100310006368696E6720696E7465727275707400C7
:10032000506F6C6C696E67204343205452582025EF
:100330006C750041434B2043432054525820256C98
:100340007500000000070002010000030406000021
:10035000000000000000010204081020408001029B
:1003600004081020010204081020040404040404FA
:100370000404020202020202030303030303000057
:100380000000250028002B000000000024002700AA
:100390002A00A9203321EA23B720372111241FBEC8
:1003A000CFEFD8E0DEBFCDBF13E0A0E0B1E0EAE2DE
:1003B000FAE502C005900D92A23BB107D9F715E00E
:1003C000A2EBB3E001C01D92A636B107E1F713E03E
:1003D000C8E9D3E004C02297FE010E94EC27C2398D
:1003E000D107C9F70E942C210C94082D0C94000011
:1003F000CF92DF92EF92FF920F931F936B017C01DC
:1004000020E030E040E05FE40E945B0587FD0EC025
:1004100020E030E040E05FE4C701B6010E94A303A2
:100420000E94E6058B019C01305806C0C701B60149
:100430000E94E6058B019C01B801C9011F910F9133
:10044000FF90EF90DF90CF900895A0E0B0E0EBE256
:10045000F2E00C94B7273C01CB01EA01D3012C91C7
:10046000223008F43EC1FB013081323008F436C13D
:10047000243071F4343009F034C111962C9181810B
:10048000281709F42EC1B2E16B2EB1E07B2E29C1F1
:10049000343009F423C1323091F4223009F021C103
:1004A00028E0F301DA0101900D922A95E1F7DB01D2
:1004B00011968C91F30191818923898311C1223096
:1004C00009F40CC1D3011296ED91FC911397DB0155
:1004D00012966D917C911397D30114960D911D91F5
:1004E0002D913C911797DC011496CD90DD90ED9005
:1004F000FC901797AF01461B570BDA0157FF04C05A
:10050000AA27BB27A41BB50BA032B1050CF065C010
:10051000141615067CF5B701A6010A2E04C07695BF
:100520006795579547950A94D2F7812C912C5401E1
:10053000839404C0880C991CAA1CBB1CAA95D2F7F2
:10054000B1E08B1A9108A108B1088C209D20AE2043
:10055000BF20C12CD12C7601C39481149104A10435
:10056000B10419F4C12CD12C7601C42AD52AE62A6B
:10057000F72A3EC0452BE1F1EA0FFB1FB901A801A4
:100580000A2E04C076956795579547950A94D2F739
:10059000812C912C5401839404C0880C991CAA1CB2
:1005A000BB1CAA95D2F7A1E08A1A9108A108B1084C
:1005B00080229122A222B32201E010E020E030E06C
:1005C00081149104A104B10419F400E010E0980131
:1005D000042B152B262B372B0BC06E177F0724F40B
:1005E000C12CD12C760104C0FB0100E010E0980181
:1005F000D30111964C91DC0111968C91481709F4A6
:1006000042C0442349F0D701C601801B910BA20BC5
:10061000B30B8C019D0104C00C191D092E093F0963
:1006200037FD04C01982FB83EA830BC081E0898314
:10063000FB83EA8330952095109501951F4F2F4F2E
:100640003F4F0C831D832E833F830DC0880F991F5E
:10065000AA1FBB1F8C839D83AE83BF838A819B812E
:1006600001979B838A838C819D81AE81BF818C01A0
:100670009D0101501109210931090F3F1F4F2F4FD3
:100680003F4320F30BC04983FB83EA830C0D1D1D00
:100690002E1D3F1D0C831D832E833F8383E08883A3
:1006A0000C811D812E813F8137FF1AC0D901C801FD
:1006B00081709927AA27BB27369527951795079507
:1006C000802B912BA22BB32B8C839D83AE83BF8376
:1006D0008A819B8101969B838A8302C03C0101C071
:1006E0003E01C301CDB7DEB7EEE00C94D327A0E204
:1006F000B0E0EDE7F3E00C94C3276D8F7E8F8F8F12
:1007000098A3298F3A8F4B8F5C8FBE016F5E7F4F0E
:10071000CE014D960E946C07BE01675F7F4FCE01F0
:1007200049960E946C07AE014F5F5F4FBE01675F45
:100730007F4FCE0141960E9425020E94AB06A096F3
:10074000E2E00C94DF27A0E2B0E0E9EAF3E00C94E9
:10075000C3276D8F7E8F8F8F98A3298F3A8F4B8FF2
:100760005C8FBE016F5E7F4FCE014D960E946C077D
:10077000BE01675F7F4FCE0149960E946C078A8554
:1007800091E089278A87AE014F5F5F4FBE01675FA7
:100790007F4FCE0141960E9425020E94AB06A09693
:1007A000E2E00C94DF27A0E2B0E0E9EDF3E00C9486
:1007B000B5276D8F7E8F8F8F98A3298F3A8F4B8FA0
:1007C0005C8FBE016F5E7F4FCE014D960E946C071D
:1007D000BE01675F7F4FCE0149960E946C079989E1
:1007E000923008F412C08985823008F41AC094301F
:1007F00021F4823009F4B4C008C0843021F492306E
:1008000009F4AEC00EC0923051F481E02A899A8575
:10081000291301C080E08A8BCE014196A3C08230AB
:1008200051F481E02A899A85291301C080E08A87E2
:10083000CE01099697C08D889E88AF88B88C0D85AB
:100840001E852F853889E0E2F0E080E090E0DC0151
:10085000C12CD12C760140E050E0BA0180FE18C0D6
:10086000400F511F621F731F8C0D9D1DAE1DBF1DBC
:10087000412C512C320143944017510762077307F2
:1008800018F0412C512C3201840D951DA61DB71D69
:10089000CC0CDD1CEE1CFF1C37FF02C06894C0F8B6
:1008A000000F111F221F331FB694A79497948794AB
:1008B0003197A1F62B893C89EB85FC852E0F3F1FD4
:1008C0002E5F3F4F3C832B8321E0EA893A85E31377
:1008D00001C020E02A83EB81FC810CC080FF05C0B1
:1008E00076956795579547957068B695A7959795AE
:1008F00087953196B7FDF2CF9F010CC0880F991FE5
:10090000AA1FBB1F77FD8160440F551F661F771F0D
:10091000215031090097A105E0E4BE0778F32B834D
:100920003C838C019D010F77112722273327003448
:1009300011052105310559F487FD09C0452B462BCA
:10094000472B29F0805C9F4FAF4FBF4F80788D833E
:100950009E83AF83B88783E08983CE01019602C06E
:1009600082E191E00E94AB06A096E0E10C94D127D1
:10097000A8E1B0E0EEEBF4E00C94BD276D8B7E8B2C
:100980008F8B988F298B3A8B4B8B5C8BBE01675F6B
:100990007F4FCE0145960E946C07BE016F5F7F4F6F
:1009A000CE0141960E946C079985923008F475C07B
:1009B0008981823008F474C02A853A8123272A87E6
:1009C000943011F0923019F4981367C06CC08430E1
:1009D00039F41D861E861F86188A1C861B8604C055
:1009E000823029F484E08987CE0109965EC08B8528
:1009F0009C852B813C81821B930B9C878B874D852B
:100A00005E856F857889CD80DE80EF80F8844C1517
:100A10005D056E057F0538F4440F551F661F771F6F
:100A200001979C878B87EFE1F0E000E010E020E089
:100A300030E480E090E0DC014C155D056E057F053B
:100A400040F0802B912BA22BB32B4C195D096E0922
:100A50007F093695279517950795440F551F661FF3
:100A6000771F319749F78C019D010F7711272227B6
:100A70003327003411052105310559F487FD09C0DC
:100A8000452B462B472B29F0805C9F4FAF4FBF4F24
:100A900080788D879E87AF87B88BCE01099605C079
:100AA000CE01019602C082E191E00E94AB066896F9
:100AB000E8E00C94D927A8E1B0E0E1E6F5E00C9479
:100AC000C3276D8B7E8B8F8B988F298B3A8B4B8BAB
:100AD0005C8BBE01675F7F4FCE0145960E946C071D
:100AE000BE016F5F7F4FCE0141960E946C078985E2
:100AF000823058F08981823040F0BE016F5F7F4FB5
:100B0000CE0109960E94DB0701C08FEF6896E2E0F4
:100B10000C94DF27A8E0B0E0E0E9F5E00C94C127F1
:100B200023E029838B019C01002737FD03951127C2
:100B300022273327402F0A8361157105810591050E
:100B400019F482E0898335C02EE130E03C832B83A9
:100B5000442371F061157105810520E8920771F158
:100B6000002711279801061B170B280B390B02C011
:100B70008B019C01C901B8010E94F027019718164A
:100B800019062CF00D831E832F83388712C0082E80
:100B900004C0000F111F221F331F0A94D2F70D83C8
:100BA0001E832F8338872EE130E0281B390B3C83CE
:100BB0002B83CE0101960E94AB0604C060E070E07A
:100BC00080E09FEC2896E4E00C94DD27ACE0B0E0F8
:100BD000ECEEF5E00C94C12769877A878B879C87B8
:100BE000BE016F5F7F4FCE0109960E946C0789811D
:100BF000823091F1823080F1843041F48A818823FF
:100C000031F100E010E020E030E829C02B813C8188
:100C100037FD22C02F3131058CF78EE190E0821B29
:100C2000930B0D811E812F81388504C03695279541
:100C3000179507958A95D2F78A81882381F0309598
:100C40002095109501951F4F2F4F3F4F08C00FEF74
:100C50001FEF2FEF3FE703C000E010E09801B8015D
:100C6000C9012C96E4E00C94DD27A8E0B0E0EBE3AA
:100C7000F6E00C94BD278B019C011A826115710569
:100C80008105910519F482E089835DC083E0898341
:100C90004EE150E05C834B83C901B8010E94F0270C
:100CA000019797FF39C0EE27FF27E81BF90B41E0BA
:100CB00050E060E070E00E2E04C0440F551F661F28
:100CC000771F0A94D2F741505109610971094023F5
:100CD000512362237323C12CD12C7601C394452B5D
:100CE000462B472B19F4C12CD12C760104C0369524
:100CF000279517950795EA95D2F70C291D292E29D6
:100D00003F290D831E832F8338872EE130E0281B77
:100D1000390B3C832B8317C0009729F40D831E8366
:100D20002F83388710C0082E04C0000F111F221F08
:100D3000331F0A94D2F70D831E832F833887481BF5
:100D4000590B5C834B83CE0101960E94AB0628961B
:100D5000E8E00C94D9270F931F93CF93FC014481B3
:100D6000558166817781C1818081823020F4606104
:100D70008FEF90E0A3C0843009F49BC0823009F467
:100D800092C0411551056105710509F48FC022819A
:100D9000338122388FEF38070CF057C0E2E8FFEFBD
:100DA000E21BF30BEA31F10564F58A019B010E2E7B
:100DB00004C036952795179507950A94D2F781E0D8
:100DC00090E0A0E0B0E004C0880F991FAA1FBB1FED
:100DD000EA95D2F70197A109B10984239523A623A7
:100DE000B72341E050E060E070E0892B8A2B8B2B29
:100DF00019F440E050E0BA01402B512B622B732BC9
:100E000003C040E050E0BA01DB01CA018F779927A7
:100E1000AA27BB2780349105A105B10539F447FF06
:100E200009C0405C5F4F6F4F7F4F04C0415C5F4F14
:100E30006F4F7F4F81E090E041155105610520E43F
:100E4000720748F580E090E026C0203831058CF527
:100E5000DB01CA018F779927AA27BB278034910528
:100E6000A105B10539F447FF09C0405C5F4F6F4FE2
:100E70007F4F04C0415C5F4F6F4F7F4F77FD04C0D1
:100E8000C90181589F4F07C076956795579547953B
:100E9000C90180589F4F97E076956795579547957C
:100EA0009A95D1F70BC080E090E005C080E090E01B
:100EB00005C08FEF90E040E050E0BA01982F969582
:100EC000C0FB97F9362F80FB37F9642F752F832FDE
:100ED000CF911F910F910895CF92DF92EF92DC0195
:100EE000FB01CC901196DC90119712968C91129781
:100EF0003FE7E32EE8226E2DA60170E0982F991FA0
:100F00009927991F13962C91822F880F892B90E097
:100F100027FB222720F92183009729F54115510548
:100F20006105710511F482E027C082E89FEF938389
:100F3000828327E0440F551F661F771F2A95D1F73C
:100F400083E0808309C0440F551F661F771F82818D
:100F5000938101979383828341155105610580E454
:100F6000780788F320C08F3F910579F4411551052A
:100F70006105710519F484E0808319C0E4FE03C0A3
:100F800081E0808310C010820EC08F579109938337
:100F9000828383E0808387E0440F551F661F771F9D
:100FA0008A95D1F770644483558366837783EF9085
:100FB000DF90CF900895CF93FC01DB0190819230B8
:100FC00008F452C08C91823008F44EC0943071F411
:100FD000843039F411962C9130E08181281B31093D
:100FE00048C08181882309F43FC03BC0843029F484
:100FF00011968C91811138C034C0923019F482302E
:10100000B9F735C0823069F3C18111968C9111977F
:10101000C8131DC02281338112968D919C91139724
:10102000821793070CF413C0281739070CF417C064
:10103000448155816681778114968D919D910D90A3
:10104000BC91A02D84179507A607B70718F4C11106
:1010500008C00AC0481759076A077B0740F4C11146
:1010600003C02FEF3FEF05C021E030E002C020E0D9
:1010700030E0C901CF91089528E931E0FC013183C6
:101080002083089528E931E0FC013183208308950D
:1010900028E931E0FC01318320830C94092128E9FF
:1010A00031E0FC01318320830C9409210F931F93BD
:1010B000CF93DF938C0180EC91E0F80191838083E2
:1010C00082819381009719F1FC013297208131814F
:1010D0004DE1429FE001439FD00D1124C80FD91F5D
:1010E000CE01F801228133816D978217930741F079
:1010F000E881F9810190F081E02DCE010995F0CFD2
:101100000297DF91CF911F910F910C940D21DF91E8
:10111000CF911F910F910895CF93DF93EC010E941F
:101120005608CE01DF91CF910C9409212CEA31E0D1
:10113000FC01318320830C945608CF93DF93EC019C
:101140000E949608CE01DF91CF910C9409210F9354
:101150001F93CF93DF938C018AEC91E0F801918388
:10116000808382819381009719F1FC01329720815D
:10117000318146E0429FE001439FD00D1124C80F0A
:10118000D91FCE01F8012281338126978217930758
:1011900041F0E881F9810190F081E02DCE010995BF
:1011A000F0CF0297DF91CF911F910F910C940D21F9
:1011B000DF91CF911F910F910895CF93DF93EC01B1
:1011C0000E94A708CE01DF91CF910C94092126EB54
:1011D00031E0FC01318320830C94A708CF93DF9387
:1011E000EC010E94E708CE01DF91CF910C94092118
:1011F0006AE171E08CEA94E00C94722462E271E09E
:101200008CEA94E00C947224FC0142815381648145
:1012100075812AE030E08CEA94E00C940125CF93AC
:10122000DF93EC0168814AE050E070E08CEA94E0E2
:101230000E947B258881823089F028F4882341F040
:101240008130D1F408C0833061F08430A9F40CC03F
:1012500069E271E00BC061E371E008C068E371E02E
:1012600005C06FE371E002C067E471E08CEA94E0CE
:10127000DF91CF910C947224DF91CF910895EF927A
:10128000FF920F931F93CF93DF93CDB7DEB7C25872
:10129000D1090FB6F894DEBF0FBECDBFC557DF4FE3
:1012A000E880F980CB58D040C357DF4F08811981BF
:1012B000CD58D04090910601F70180818917D0F177
:1012C0000E944726AB01BC012AE030E08CEA94E0A2
:1012D0000E94012561EB72E08CEA94E00E94722486
:1012E000C7010E940F0961EB72E08CEA94E00E9452
:1012F0007224DE01AF5BBF4FF8010F5F1F4FE49117
:10130000ED93E111F9CFAE0141575F4FCF57DF4F5A
:1013100059834883C158D040BE016F5B7F4FCE01D7
:1013200001960E94452ABE016F5F7F4F8CEA94E0D0
:101330000E949124CE57DF4F0FB6F894DEBF0FBE48
:10134000CDBFDF91CF911F910F91FF90EF90089546
:1013500028E931E0FC01318320834FEF5FEFBA01D0
:101360004283538364837583089528E931E0FC0147
:1013700031832083FB014081518162817381FC01B3
:1013800042835383648375830895CF92DF92EF92F3
:10139000FF92CF93DF93EC01CC24CA94DC2C76012E
:1013A000CA82DB82EC82FD8282EA91E099838883A3
:1013B000CE010A960E94BF20CE82DF82E886F9869F
:1013C000188E198E1A8E1B8E1C8EDF91CF91FF9076
:1013D000EF90DF90CF900895CF93DF93EC01FB0166
:1013E00040815181628173814A835B836C837D83F9
:1013F00082EA91E099838883CE010A960E94BF20F9
:101400004FEF5FEFBA014E835F8368877987188E4D
:10141000198E1A8E1B8E1C8EDF91CF910895CF935B
:10142000DF93EC016FE471E08CEA94E00E94722497
:101430004A815B816C817D812AE030E08CEA94E016
:101440000E94012565E571E08CEA94E00E94722417
:10145000498D5A8D6B8D7C8D2AE030E08CEA94E0CA
:101460000E94012563E671E08CEA94E00E947224F8
:101470004AE050E0688D8CEA94E00E9428256AE7F3
:1014800071E08CEA94E00E9472244E815F8168854D
:1014900079852AE030E08CEA94E00E94012562E838
:1014A00071E08CEA94E00E947224CE010A960E94B8
:1014B000E8204AE050E0BC018CEA94E00E9422253A
:1014C00068E272E08CEA94E0DF91CF910C94722490
:1014D0004F925F926F927F928F929F92AF92BF9244
:1014E000CF92DF92EF92FF920F931F93CF93DF93F0
:1014F00000D01F92CDB7DEB77C015B01FC01418DAE
:10150000528D638D748D452B462B472B09F478C083
:101510004C01FAE08F0E911CC4010E94E820F701F3
:1015200022813381448155811B829F938F935F93E6
:101530004F933F932F9388E690E09F938F936E0194
:10154000F3E0CF0ED11CDF92CF920E943F09C5017C
:101550000E94811DFC016081718182819381F7016C
:10156000018D128D238D348D601B710B820B930BBB
:10157000208D30E040E050E00E949127C9013A837D
:101580002983255436410FB6F894DEBF0FBECDBF78
:1015900027353240B8F41B829F938F9384E890E004
:1015A0009F938F93DF92CF920E943F09BE016F5F9E
:1015B0007F4FC4010E94D2200F900F900F900F9088
:1015C0000F900F90C4010E94E820F701228133811F
:1015D000448155811B829F938F935F934F933F93D9
:1015E0002F9380EA90E09F938F93CE0103969F9371
:1015F0008F930E943F090FB6F894DEBF0FBECDBF98
:10160000C5010E94811DFC01408051806280738071
:10161000C7010A960E94E820B301A201480F591F92
:10162000611D711D445F514061097109F7014683D5
:1016300057836087718781E0808FC5010E94811D7B
:10164000FC014081518162817381F701418F528F8A
:10165000638F748F0F900F900F90DF91CF911F9138
:101660000F91FF90EF90DF90CF90BF90AF909F9041
:101670008F907F906F905F904F900895CF92DF9200
:10168000EF92FF920F931F93CF93DF931F92CDB7EB
:10169000DEB78C01FC01C680D780E084F1840E9413
:1016A0004726C616D706E806F906E8F5F801C6800B
:1016B000D780E084F184F0E7CF0EF7E1DF1EE11C74
:1016C000F11C0E9447266059784E8F4F9F4FC616D7
:1016D000D706E806F90638F50E944726F801268164
:1016E00037814085518519829F938F937F936F93A4
:1016F0005F934F933F932F938CEB90E09F938F9347
:10170000CE0101969F938F930E943F094FEF5FEFA9
:10171000BA01F80146835783608771870FB6F89442
:10172000DEBF0FBECDBF0A5F1F4FC8010F90DF9114
:10173000CF911F910F91FF90EF90DF90CF90089580
:101740000F931F93CF93DF931F92CDB7DEB78C011A
:101750000A960E94E820D80116964D915D916D91F0
:101760007C911997480F591F611D711DF80146831F
:10177000578360877187808D8F5F808F92812381EF
:101780003481E581F1E0F9831F928F937F936F930A
:101790005F934F93EF933F932F939F9383ED90E04D
:1017A0009F938F93CE0101969F938F930E943F0941
:1017B0000FB6F894DEBF0FBECDBF0F90DF91CF9173
:1017C0001F910F910895BF92CF92DF92EF92FF92F7
:1017D0000F931F93CF93DF931F92CDB7DEB78C018A
:1017E000B12C2EC0D80112968D919C911397BDE11A
:1017F000BB9E800D911D11240E943E0BFC01C080F8
:10180000D180E280F380D80115962C91159712961D
:101810008D919C911397BDE12B9F800D911D1124FB
:101820000E943E0BFC014081518162817381C4168C
:10183000D506E606F70618F4D8011596BC92B394BF
:10184000F8018481B81670F2258182819381FDE1CF
:101850002F9F800D911D11240E943E0BFC014081A1
:10186000518162817381D80115968C9115971296DA
:10187000ED91FC911397BDE18B9FE00DF11D1124BB
:10188000828193812481358119827F936F935F9345
:101890004F933F932F939F938F9389EF90E09F9364
:1018A0008F93CE0101969F938F930E943F090FB6AD
:1018B000F894DEBF0FBECDBF0F90DF91CF911F9187
:1018C0000F91FF90EF90DF90CF90BF900895FC01B3
:1018D00085818F5F85839481891301C01582089566
:1018E000AF92BF92CF92DF92EF92FF920F93CF937E
:1018F000DF93C02FC15050E0D6E030E022C0AC2EC4
:10190000B12CF501E40FF51FDE9F7001DF9FF00C95
:101910001124DC01ED91FC91EE0DFF1DC280D380FE
:10192000E480F580D501A20FB31FDA9FF001DB9FA1
:10193000F00D1124E60FF71FC282D382E482F582F4
:10194000C150C017E0F2DF91CF910F91FF90EF905F
:10195000DF90CF90BF90AF9008958F929F92AF92FB
:10196000BF92CF92DF92EF92FF920F931F93CF938C
:10197000DF93102F115050E03DE1932EA22EB12C99
:10198000EEE08E2E41C0E12FF0E09F01240F351FC5
:10199000929ED001939EB00D1124EC0128813981D3
:1019A0002A0F3B1FEA0DFB1D9E9EE0019F9ED00D5E
:1019B0001124C60FD71FF901C280D380E480F580BF
:1019C000CA82DB82EC82FD82C680D780E084F1840B
:1019D000CE82DF82E886F9863A96DE011A96F82CE6
:1019E00001900D92FA94E1F7D9015896EC9158972D
:1019F000E88F5996CD90DD90ED90FC905C97C98E64
:101A0000DA8EEB8EFC8E1150101708F4BCCFDF91EC
:101A1000CF911F910F91FF90EF90DF90CF90BF90EB
:101A2000AF909F908F900895FC0181E081834FEFEC
:101A30005FEFBA0142835383648375838683128682
:101A4000118613861486158616861786108A118AC3
:101A5000128A138A148A158A8CEA91E09087878308
:101A6000118E108E128E138E148E158E168E178E6A
:101A700010A211A212A213A214A286EB91E0978BDE
:101A8000868B15A216A217A210A611A608950E9471
:101A9000E01E0C94421E7F928F929F92AF92BF9253
:101AA000CF92DF92EF92FF920F931F93CF93DF932A
:101AB0001F92CDB7DEB77C0168ED71E08CEA94E04F
:101AC0000E947224D701ED91FC910480F581E02DF4
:101AD000C70109956CEE71E08CEA94E00E949124B4
:101AE0000E940822762E862E912CBDE16B9FC001AC
:101AF000112402960E940B216C01FC0181929192AB
:101B00008F01A12CB12C05C0C8010E94C509035E3C
:101B10001F4FFFEFAF1ABF0AC4018A199B09019634
:101B200099F782E0C80ED11CC114D10499F0D701F5
:101B300014967C92149716960C9120E040E0B60122
:101B4000C70102960E94AD0CF70182819381009734
:101B5000A1F436C082E089838FE991E09F938F934F
:101B6000CE0101969F938F930E943F090F900F9093
:101B70000F900F9064ED71E028C0FC013297208136
:101B800031814DE1429F8001439F100D1124080FC8
:101B9000191FC801D70112962D913C9113970D5131
:101BA00011098217930749F0D801ED91FC9101903A
:101BB000F081E02DC8010995ECCF02970E940D211C
:101BC000F701D382C28260ED71E08CEA94E00E945A
:101BD00091240F90DF91CF911F910F91FF90EF9083
:101BE000DF90CF90BF90AF909F908F907F9008959F
:101BF0007F928F929F92AF92BF92CF92DF92EF929D
:101C0000FF920F931F93CF93DF931F92CDB7DEB751
:101C10007C0168ED71E08CEA94E00E947224D701A7
:101C2000ED91FC910480F581E02DC70109956CEEE2
:101C300071E08CEA94E00E9491240E940822762EA2
:101C4000862E912CB6E06B9FC001112402960E9453
:101C50000B216C01FC01819291928F01A12CB12C7E
:101C600002C00E94A809C801FFEFAF1ABF0A0A5FAD
:101C70001F4F94012A193B092F3F3F4F91F782E0F4
:101C8000C80ED11CC114D10499F0D70114967C92CE
:101C9000149716960C9120E040E0B601C701029619
:101CA0000E94700CF701828193810097A1F436C0E5
:101CB00082E089838BEB91E09F938F93CE01019615
:101CC0009F938F930E943F090F900F900F900F905A
:101CD00064ED71E028C0FC0132972081318146E03B
:101CE000429F8001439F100D1124080F191FC80146
:101CF000D70112962D913C91139706501109821726
:101D0000930749F0D801ED91FC910190F081E02D0D
:101D1000C8010995ECCF02970E940D21F701D382EB
:101D2000C28260ED71E08CEA94E00E9491240F90F1
:101D3000DF91CF911F910F91FF90EF90DF90CF90A7
:101D4000BF90AF909F908F907F9008951F93CF93F7
:101D5000DF93EC0160ED71E08CEA94E00E94912445
:101D60006FEE71E08CEA94E00E947224E881F981C0
:101D70000480F581E02DCE01099561EF71E08CEAD8
:101D800094E00E94912410E018C08A819B812DE18B
:101D9000129F800D911D11240E940F0A212F30E007
:101DA0008E8190E001972817390734F466EF71E0CF
:101DB0008CEA94E00E9491241F5F8E81181728F30B
:101DC00062EB72E08CEA94E00E94912468EF71E08B
:101DD0008CEA94E0DF91CF911F910C9491241F9392
:101DE000CF93DF93EC0160ED71E08CEA94E00E9408
:101DF00091246FEE71E08CEA94E00E947224E881F5
:101E0000F9810480F581E02DCE01099561EF71E043
:101E10008CEA94E00E94912410E01DC08A819B818D
:101E200026E0129F800D911D1124DC01ED91FC91A3
:101E30000480F581E02D0995212F30E08E8190E01E
:101E400001972817390734F466EF71E08CEA94E0C3
:101E50000E9491241F5F8E81181700F362EB72E0DD
:101E60008CEA94E00E94912468EF71E08CEA94E09F
:101E7000DF91CF911F910C9491242F923F924F921A
:101E80005F926F927F928F929F92AF92BF92CF920A
:101E9000DF92EF92FF920F931F93CF93DF9300D0C7
:101EA00000D000D0CDB7DEB78C017C836B831A01E4
:101EB000DB01CD90DD90ED90FC90FC01878090845B
:101EC000A184B284C814D904EA04FB0418F4DA012A
:101ED0001C929AC0FC014384548465847684F68104
:101EE000FA834C145D046E047F0418F4DA01FC9349
:101EF0008BC0FA81F23008F484C0C701B6016819BA
:101F000079098A099B090E9435066B017C01C3018E
:101F1000B201681979098A099B090E9435069B015B
:101F2000AC01C701B6010E94B8046B017C014A8173
:101F3000642F70E061507109882777FD8095982F94
:101F40000E948A059B01AC01C701B6010E94D30320
:101F50000E94F801D1016C93F8018681681708F09E
:101F60008C93D1018C918823D1F0D8011296ED91F8
:101F7000FC911397BDE18B9FE00DF11D1124828030
:101F80009380A480B580EB81FC81C080D180E28009
:101F9000F380C814D904EA04FB0408F45EC0D1013C
:101FA0002C91F8013681AB81BC81CD90DD90ED9014
:101FB000FC90BDE12B9FC0011124231798F0D8019C
:101FC0001296ED91FC911397E80FF91F81E0428181
:101FD0005381648175814C155D056E057F0509F49B
:101FE00044C012C00280F381E02DE80FF91F828007
:101FF0009380A480B5808C149D04AE04BF0488F146
:10200000DECFBA81B13011F080E02FC0FC018281B7
:102010009381009789F482E0898389E291E09F931C
:102020008F93CE0101969F938F930E943F090F904B
:102030000F900F900F9002C09E838D83ED81FE81E3
:1020400082819381A481B581C816D906EA06FB0670
:10205000D9F6D1011C9281E008C08150F101808342
:1020600080CF2F5FD1012C939ACF26960FB6F8948C
:10207000DEBF0FBECDBFDF91CF911F910F91FF90BB
:10208000EF90DF90CF90BF90AF909F908F907F9018
:102090006F905F904F903F902F9008956F927F9236
:1020A0008F929F92AF92BF92CF92DF92EF92FF9268
:1020B0000F931F93CF93DF93CDB7DEB76F970FB614
:1020C000F894DEBF0FBECDBF7C016B011F8EAE0149
:1020D000415E5F4F0E943D0F8823F9F0D6018C913D
:1020E00011969C91119712962C91129713963C91F0
:1020F0001E8E3F932F939F938F9381E191E09F9347
:102100008F93CE014E969F938F930E943F090FB6F7
:10211000F894DEBF0FBECDBF92C0D70116960C91CA
:10212000169714966C901497061508F04FC04F8DB3
:10213000041B242F2F5F12966D917C911397C7017A
:1021400002960E94AD0CB601CE0101960E94EC09E8
:102150002F8DF70182819381FDE12F9F800D911DCD
:1021600011244B815C816D817E81DC0112964D933F
:102170005D936D937C9315974F81588569857A851A
:10218000FC0146835783608771872EE0FE013B96F2
:102190001A9601900D922A95E1F7298DDC01589647
:1021A0002C934A8D5B8D6C8D7D8DFC01418F528F00
:1021B000638F748FCE0101960E944208D701169654
:1021C0008C9116978F5F16968C93B9C0712C430132
:1021D000BFEF8B1A9B0A2DE1289DC001299D900D10
:1021E000112402960E940B215C01FC0181929192C4
:1021F0008F01812C912C08C0C8010E94C509035E83
:102200001F4FFFEF8F1A9F0AC30188199909019682
:1022100099F732E0A30EB11CA114B10491F483E04C
:102220008E8F8AE491E09F938F93CE014E969F9379
:102230008F930E943F090F900F900F900F9080E0B6
:10224000B9C0470182E0880E911C0F8D20E040E06C
:10225000B501C4010E94AD0CB601CE0101960E94E9
:10226000EC098F8D95019DE1899F200D311D112471
:102270004B815C816D817E81D90112964D935D9376
:102280006D937C9315974F81588569857A85F901FF
:1022900046835783608771878EE0FE013B961A96CE
:1022A00001900D928A95E1F7898DD90158968C930A
:1022B0004A8D5B8D6C8D7D8DF901418F528F638FBF
:1022C000748FCE0101960E9442084F8DD701169659
:1022D0000C91041B242F2F5FB501C4010E94AD0C8B
:1022E000F70182819381009719F1FC0132972081D7
:1022F00031814DE1429F8001439F100D1124080F51
:10230000191FC801D70112962D913C9113970D51B9
:1023100011098217930749F0D801ED91FC910190C2
:10232000F081E02DC8010995ECCF02970E940D21A4
:10233000F701B382A28284818F5F84838683D70171
:1023400014968C911497F6014081518162817381BA
:10235000813061F41B964D935D936D937C931E9732
:10236000F701478350876187728724C0D7011B9686
:102370000D911D912D913C911E970417150726076D
:10238000370730F4F701438754876587768711C094
:10239000D70117960D911D912D913C911A974017D9
:1023A00051076207730728F4F70147835087618755
:1023B000728781E06F960FB6F894DEBF0FBECDBF77
:1023C000DF91CF911F910F91FF90EF90DF90CF9011
:1023D000BF90AF909F908F907F906F9008950F93D4
:1023E0001F93CF93DF9300D000D0CDB7DEB78C0121
:1023F00063E072E08CEA94E00E947224D801ED91CF
:10240000FC910480F581E02DC80109956EE072E031
:102410008CEA94E00E9491240E94082269837A83C6
:102420008B839C83BE016F5F7F4FC8010E944E105B
:10243000882319F060ED71E002C06BEF71E08CEA67
:1024400094E00E9472246AE172E08CEA94E00E94B7
:102450007224D801ED91FC910480F581E02DC80132
:10246000099549815A816B817C812AE030E08CEAB0
:1024700094E00E940E250F900F900F900F90DF9127
:10248000CF911F910F9108952F923F924F925F929B
:102490006F927F928F929F92AF92BF92CF92DF9274
:1024A000EF92FF920F931F93CF93DF9300D000D052
:1024B00000D0CDB7DEB78C017C836B831A01DB01C2
:1024C000CD90DD90ED90FC90FC0187809084A184FC
:1024D000B284C814D904EA04FB0418F4DA011C928B
:1024E0009AC0FC014384548465847684F681FA831F
:1024F0004C145D046E047F0418F4DA01FC938BC065
:10250000FA81F23008F484C0C701B601681979096C
:102510008A099B090E9435066B017C01C301B20147
:10252000681979098A099B090E9435069B01AC014B
:10253000C701B6010E94B8046B017C014A81642F77
:1025400070E061507109882777FD8095982F0E946F
:102550008A059B01AC01C701B6010E94D3030E940A
:10256000F801D1016C93F8018681681708F08C930B
:10257000D1018C918823D1F0D8011296ED91FC9174
:102580001397B6E08B9FE00DF11D1124828093809C
:10259000A480B580EB81FC81C080D180E280F38093
:1025A000C814D904EA04FB0408F45EC0D1012C91DC
:1025B000F8013681AB81BC81CD90DD90ED90FC902F
:1025C000B6E02B9FC0011124231798F0D801129672
:1025D000ED91FC911397E80FF91F81E0428153813F
:1025E000648175814C155D056E057F0509F444C055
:1025F00012C00280F381E02DE80FF91F82809380E2
:10260000A480B5808C149D04AE04BF0488F1DECF95
:10261000BA81B13011F080E02FC0FC01828193813A
:10262000009789F482E0898380E791E09F938F93FC
:10263000CE0101969F938F930E943F090F900F90B8
:102640000F900F9002C09E838D83ED81FE81828169
:102650009381A481B581C816D906EA06FB06D9F68E
:10266000D1011C9281E008C08150F101808380CFAC
:102670002F5FD1012C939ACF26960FB6F894DEBF28
:102680000FBECDBFDF91CF911F910F91FF90EF90C3
:10269000DF90CF90BF90AF909F908F907F906F9082
:1026A0005F904F903F902F9008956F927F928F92FE
:1026B0009F92AF92BF92CF92DF92EF92FF920F93D1
:1026C0001F93CF93DF93CDB7DEB728970FB6F8945B
:1026D000DEBF0FBECDBF7C016B011886AE01485F27
:1026E0005F4F0E9444128823F9F0D6018C91119615
:1026F0009C91119712962C91129713963C911F82E0
:102700003F932F939F938F9388E591E09F938F93AF
:10271000CE0107969F938F930E943F090FB6F894BE
:10272000DEBF0FBECDBF6FC0D70116960C911697B6
:1027300014966C901497061560F54885041B242F99
:102740002F5F12966D917C911397C70102960E949C
:10275000700CB601CE0101960E94B50988854B81A7
:102760005C816D817E81D7011296ED91FC9113976A
:10277000B6E08B9FE00DF11D1124428353836483E7
:102780007583CE0101960E943C08F70186818F5F18
:1027900098C0712C4301FFEF8F1A9F0A26E0289DF5
:1027A000C001299D900D112402960E940B215C010D
:1027B000DC018D929D928D01812C912C05C00E948F
:1027C000A809BFEF8B1A9B0AC8010A5F1F4F93012C
:1027D000281939092F3F3F4F91F7F2E0AF0EB11C96
:1027E000A114B10491F483E08F8381E991E09F9378
:1027F0008F93CE0107969F938F930E943F090F906E
:102800000F900F900F9080E098C0470142E0840E37
:10281000911C088520E040E0B501C4010E94700CC5
:10282000B601CE0101960E94B50988854B815C8175
:102830006D817E81F50196E0899FE00DF11D1124E7
:102840004283538364837583CE0101960E943C08C2
:102850004885D70116960C91041B242F2F5FB501D4
:10286000C4010E94700CF70182819381009719F1D5
:10287000FC0132972081318146E0429F8001439FD5
:10288000100D1124080F191FC801D70112962D91A0
:102890003C911397065011098217930749F0D8010C
:1028A000ED91FC910190F081E02DC8010995ECCFEC
:1028B00002970E940D21F701B382A28284818F5F6B
:1028C00084838683D70114968C911497F6014081F6
:1028D000518162817381813061F41B964D935D93C8
:1028E0006D937C931E97F7014783508761877287AA
:1028F00024C0D7011B960D911D912D913C911E97DF
:10290000041715072607370730F4F7014387548764
:102910006587768711C0D70117960D911D912D916E
:102920003C911A97401751076207730728F4F70183
:10293000478350876187728781E028960FB6F894A5
:10294000DEBF0FBECDBFDF91CF911F910F91FF90E2
:10295000EF90DF90CF90BF90AF909F908F907F903F
:102960006F9008950F931F93CF93DF93EC01FB01BA
:102970008081882351F0813059F5BE016E5F7F4F11
:10298000CE0107960E944E100BC08E010E5F1F4FA6
:10299000C8010E940520B801CE0146960E94551339
:1029A0008823B1F061E272E08CEA94E00E94722424
:1029B0004A815B816C817D812AE030E08CEA94E081
:1029C0000E94012567E272E08CEA94E00E94912463
:1029D0004FEF5FEFBA014A835B836C837D83DF91A6
:1029E000CF911F910F9108950F931F93CF93DF9372
:1029F00000D000D0CDB7DEB78C0163E072E08CEA86
:102A000094E00E947224D801ED91FC910480F5813C
:102A1000E02DC80109956EE072E08CEA94E00E9416
:102A200091240E94082269837A838B839C83BE0150
:102A30006F5F7F4FC8010E945513882319F060ED26
:102A400071E002C06BEF71E08CEA94E00E947224A6
:102A50006AE172E08CEA94E00E947224D801ED9160
:102A6000FC910480F581E02DC801099549815A81C6
:102A70006B817C812AE030E08CEA94E00E940E2594
:102A80000F900F900F900F90DF91CF911F910F91AA
:102A90000895EF92FF920F931F93CF93DF931F92AE
:102AA000CDB7DEB78C018CEA94E00E9493227C01C2
:102AB0009C0133272436310509F4CDC0F4F42E34BB
:102AC000310509F4B9C06CF42434310509F4E5C0CA
:102AD0002C34310509F408C12D30310509F009C144
:102AE00019C12136310559F12236310509F499C051
:102AF0002335310509F0FDC0A9C02E36310509F492
:102B000096C054F42C36310509F4E9C0FCF42B3698
:102B1000310509F0EEC079C02337310509F491C0C1
:102B20002CF42037310509F0E4C015C025373105F4
:102B300009F470C02637310509F0DBC035C081E0EB
:102B4000D80111968C936AE272E0E0C0F80111821C
:102B50006BE372E0DBC0D80111968C91882319F0E9
:102B60006DE472E0D3C067E772E08CEA94E00E9403
:102B700091240E940822F8016283738384839583E1
:102B800065E872E08CEA94E00E947224D801129603
:102B90004D915D916D917C9115972AE030E08CEA22
:102BA00094E00E940E25B6C06BE972E08CEA94E0D6
:102BB0000E94912410E01983CE0101960E940F0912
:102BC00060EB72E08CEA94E00E9472241F5F143084
:102BD00091F71983CE0101960E940F0962EB72E012
:102BE0008CEA94E00E9491240E94082260930601DE
:102BF00063EB72E08CEA94E00E94722486E091E03C
:102C00000E940F0962EB72E081C0F801168269EC44
:102C100072E07CC081E0D80116968C9365EF72E07B
:102C200075C082E0F801868361E173E06FC0C8017E
:102C300007960E94EF116EC0C80146960E94F414D8
:102C400069C0C80107960E944B0D64C0C801469632
:102C50000E94F80D5FC07801F7E0EF0EF11CD8017B
:102C60001C961C921C971D961C921D97F801128AA7
:102C7000138A148A158A1E961D921D921D921C920B
:102C800051976FE173E08CEA94E00E947224D801BE
:102C90001796ED91FC9118971AC07801B6E1EB0EEA
:102CA000F11CF801138E148E11A212A213A214A209
:102CB000158E168E178E10A26FE173E08CEA94E0E9
:102CC0000E947224D8015696ED91FC91579704808A
:102CD000F581E02DC701099568E573E017C0C801CB
:102CE00007960E94A60E16C0C80146960E94EF0ED7
:102CF00011C06FE273E08CEA94E00E9472246E2DA2
:102D00008CEA94E00E94742468E473E08CEA94E016
:102D10000E9491240F90DF91CF911F910F91FF900E
:102D2000EF9008956F927F928F929F92AF92BF9291
:102D3000CF92DF92EF92FF920F931F93CF93DF9387
:102D40001F92CDB7DEB74C013B015A01FA018081D9
:102D500091812281338119823F932F939F938F9387
:102D600089EE92E09F938F938E010F5F1F4F1F9309
:102D70000F930E943F090FB6F894DEBF0FBECDBF80
:102D8000F3018081813009F03FC01982A801B501AB
:102D9000C40107960E943D0F811155C035C01982AC
:102DA000AE014F5F5F4FB501C40146960E944412C9
:102DB00081112FC03DC0F401028313832483358326
:102DC00032C0F401C280D380E480F580C016D10601
:102DD000E206F30609F427C06AE473E08CEA94E0A3
:102DE0000E947224F50140815181628173812AE041
:102DF00030E08CEA94E00E94012568E272E08CEAFF
:102E000094E00E9491241FC0F3018081811110C0C1
:102E1000C6CFF5014081518162817381F401428303
:102E2000538364837583B301C4010E94B2140BC041
:102E3000F4018181F5010081118122813381882390
:102E400009F4BFCFB8CF0F90DF91CF911F910F91B1
:102E5000FF90EF90DF90CF90BF90AF909F908F90BA
:102E60007F906F9008952F923F924F925F926F9252
:102E70007F928F929F92AF92BF92CF92DF92EF920A
:102E8000FF920F931F93CF93DF93CDB7DEB72E97AB
:102E90000FB6F894DEBF0FBECDBF3C017B876A87BB
:102EA000412C512C312C4E0125E0820E911C46966E
:102EB0009E878D87D3011796B987A887B5E2B49D01
:102EC0005001B59DB00C1124E3EBF3E0AE0EBF1E34
:102ED0008501C5010E94E71A882309F4E0C0C501F5
:102EE0000E94551CDC018C918F83C5010E946B1DD3
:102EF000882309F4AAC0C5010E947C1DFC01008141
:102F000011812281338109831A832B833C8381E0E1
:102F1000AA85BB85CD90DD90ED90FC900C151D052C
:102F20002E053F0509F080E0382AC5010E94C71C24
:102F3000882391F0D501ED91FC910480F581E02D7D
:102F4000C5010995AE014F5F5F4FBE01695F7F4FBD
:102F5000C3010E949216ABC01F81112309F44AC01D
:102F6000113009F094C0AE014A5F5F4FBE016F5F40
:102F70007F4F888599850E943D0F882369F1C5019F
:102F80000E94BF1BF301218532852115310561F0B7
:102F90008E819585891740F4FDE18F9F200D311DAD
:102FA0001124222E3C870EC022E02D8328EC32E033
:102FB0003F932F939F928F920E943F090F900F9003
:102FC0000F900F90B501822D9C850E94680A88851C
:102FD00099850E94E30B5BC089819A812B813C819A
:102FE0001D833F932F939F938F9385E692E09F934A
:102FF0008F9319C01D82A401BE016F5F7F4F8D8525
:103000009E850E94441281111CC089819A812B8166
:103010003C81B1E0BD833F932F939F938F93EBE867
:10302000F2E0FF93EF939F928F920E943F090FB6B9
:10303000F894DEBF0FBECDBFD30116968C918823C6
:1030400031F1C5010E94BF1B22C08F81813019F46C
:1030500026E231E002C02EE131E0B1E0BD833F93D2
:103060002F93E2EBF2E0FF93EF939F928F920E94F7
:103070003F090F900F900F900F900F900F90D3017A
:1030800016968C91823019F4C8010E94BE1AD5019F
:10309000ED91FC910480F581E02DC5010995BFEF0C
:1030A0004B1A5B0AE5E04E16510409F007CF832D59
:1030B0002E960FB6F894DEBF0FBECDBFDF91CF9135
:1030C0001F910F91FF90EF90DF90CF90BF90AF9046
:1030D0009F908F907F906F905F904F903F902F9038
:1030E00008958F929F92AF92BF92CF92DF92EF920C
:1030F000FF92CF93DF9300D000D01F92CDB7DEB701
:103100006C017B015A010E944726F5018080918065
:10311000A280B380680D791D8A1D9B1D69837A8307
:103120008B839C83F70180819181228133811D8271
:103130003F932F939F938F93BF92AF929F928F92C3
:103140002BE432E03F932F939E012B5F3F4F3F9341
:103150002F930E943F090FB6F894DEBF0FBECDBF7C
:1031600006C0B701C6010E943317811107C0CE0106
:1031700001960E942C228111F4CF01C081E00F90B2
:103180000F900F900F900F90DF91CF91FF90EF90E5
:10319000DF90CF90BF90AF909F908F900895EF9267
:1031A000FF920F931F93CF93DF9300D000D000D0F6
:1031B000CDB7DEB78C01DC011C962C911C971996BB
:1031C0008D919C911A97BDE12B9F800D911D11242B
:1031D0000E943E0BFC014081518162817381F801A4
:1031E00084850184F285E02D2DE1829FE00DF11DA3
:1031F000112482819381248135811D827F936F9375
:103200005F934F933F932F939F938F938FE092E021
:103210009F938F937E0135E0E30EF11CFF92EF92B6
:103220000E943F0948EE53E060E070E049835A8312
:103230006B837C83D8011C968C911C9719966D9199
:103240007C911A97BDE18B9F600D711D11246E5FFB
:103250007F4FAE014F5F5F4FC8010E9471181D8202
:103260001F928F9321E332E03F932F93FF92EF92CF
:103270008E830E943F090FB6F894DEBF0FBECDBF0C
:103280008E8181110FC0D8011C962C911C97199624
:103290008D919C911A97BDE12B9F800D911D11245A
:1032A0000E94A00B26960FB6F894DEBF0FBECDBFCE
:1032B000DF91CF911F910F91FF90EF9008950F93A1
:1032C0001F93CF93DF9300D000D01F92CDB7DEB70E
:1032D0008C01DC015C968C91882309F4A8C0F8016C
:1032E000838D811112C085A1882309F499C00DC076
:1032F0000E9447266059784E8F4F9F4FD80196966F
:103300006D937D938D939C939997F801238D808D78
:10331000918DF6E02F9F800D911D112402960E9441
:10332000532044E650E060E070E049835A836B83A9
:103330007C83D8015B968C915B9758966D917C91BC
:103340005997B6E08B9F600D711D11246E5F7F4F02
:10335000AE014F5F5F4FC8010E947118882339F09A
:10336000C80146960E94670CF80115A260C0D801FA
:1033700095968C919597853030F55B969C915B97EF
:103380005896ED91FC915997B6E09B9FE00DF11D89
:10339000112492812381348145811D821F928F9354
:1033A0004F933F932F939F9387ED91E09F938F933C
:1033B000CE0105969F938F930E943F09F80185A146
:1033C0008F5F85A327C0C80146960E94670CD8016D
:1033D0005B968C915B975896ED91FC915997B6E06E
:1033E0008B9FE00DF11D1124828193812481358111
:1033F00041E04D833F932F939F938F9383EF91E011
:103400009F938F93CE0105969F938F930E943F09C0
:10341000F80115A20FB6F894DEBF0FBECDBF07C0EE
:10342000C80186960E942C22882309F461CF0F9050
:103430000F900F900F900F90DF91CF911F910F91F0
:1034400008950F931F93CF93DF9300D000D0CDB793
:10345000DEB78C01FC018585811104C0C8010E9482
:103460005F1912C0F801248581859285FDE12F9FA7
:10347000800D911D11240E943E0B0E942C2281116F
:10348000EDCFC8010E94CF1819821A821B821C82BC
:10349000BE016F5F7F4FC8010E9433178CEA94E032
:1034A0000E946422892B19F0C8010E9449150F90CF
:1034B0000F900F900F90DF91CF911F910F91089572
:1034C00028E633E0FC01318320830895FC01138258
:1034D0000895FC011382128E089528E633E0FC0162
:1034E00031832083089528E633E0FC013183208373
:1034F0000C94092128E633E0FC01318320830C94ED
:103500000921FC0188E693E09183808381E1828335
:1035100013820895FC0193818281981750F483816E
:10352000DB019C91DF01A80FB11D14969C938F5F66
:1035300083830895CF92DF92EF92FF920F931F93B0
:10354000CF93DF937C016B018A01C0E0D0E007C01C
:10355000B6016C0F7D1FC7010E948A1A2196F801DF
:10356000808190E0C817D9079CF3DF91CF911F911C
:103570000F91FF90EF90DF90CF9008950F931F93DE
:10358000CF93DF938C01C0E0D0E011C0F801EC0FC5
:10359000FD1F648140E150E08CEA94E00E94282500
:1035A00061EB72E08CEA94E00E9472242196F801AB
:1035B000828190E0C817D9074CF362EB72E08CEA85
:1035C00094E0DF91CF911F910F910C949124FC0115
:1035D0002381928181E0291708F480E00895282F43
:1035E000FB013081E82FF92F80E002C09191890F13
:1035F0009E2F921B9317D0F30895FC019381828133
:10360000981748F49381DF01A90FB11D14968C918E
:103610009F5F9383089580E008959F92AF92BF9239
:10362000CF92DF92EF92FF920F931F93CF93DF938E
:10363000CDB7DEB728970FB6F894DEBF0FBECDBF6B
:103640008C016B017A01B22E85E589838DE28A8334
:1036500084ED8B8380E48C831D8283E0888782E005
:103660008F83902EA12ED801ED91FC910480F581DD
:10367000E02DC8010995AE01485F5F4FBE016F5F45
:103680007F4FC8010E949A1AA701B601C8010E9483
:103690009A1ABB2059F0B701C6010E94EF1A8E8317
:1036A000BE016A5F7F4FC8010E948A1AAE01495F5E
:1036B0005F4FBE016C5F7F4F892D9A2D0E949A1A31
:1036C000F70180818B5F8B0DD80112968C93129736
:1036D00013961C9228960FB6F894DEBF0FBECDBF8E
:1036E000DF91CF911F910F91FF90EF90DF90CF90DE
:1036F000BF90AF909F900895FC0181E18283138277
:1037000082E793E09183808381E0858B168A178A14
:10371000108E118E128E4FEF5FEFBA0141A352A3AC
:1037200063A374A308950F931F93CF93DF93EC01CA
:103730008B019B818A819817E8F48B81811111C0DC
:103740000E9447266E8B7F8B888F998FF80180812E
:10375000823519F41D8A8CE003C081E08D8B80E1F5
:103760008A838B81F8019081FE01E80FF11D94831B
:103770008F5F8B83DF91CF911F910F910895FF92FF
:103780000F931F93CF93DF93EC016FE471E08CEA0A
:1037900094E00E94722449A15AA16BA17CA12AE065
:1037A00030E08CEA94E00E94012560E573E08CEA49
:1037B00094E00E9472244E895F89688D798D2AE099
:1037C00030E08CEA94E00E9401258E01F12CF80192
:1037D000838D948D0196E1F066E573E08CEA94E0C8
:1037E0000E9472244AE050E06F2D8CEA94E00E941F
:1037F00028256DE473E08CEA94E00E947224F801BD
:10380000638D748D4AE050E08CEA94E00E9422259A
:10381000F3940E5F1F4FF3E0FF12D9CF8D89811112
:1038200012C06AE573E08CEA94E00E9472248E85EF
:10383000833519F468E372E002C069E472E08CEA4F
:1038400094E00E94722468E272E08CEA94E0DF91D6
:10385000CF911F910F91FF900C9491240F931F9380
:10386000CF93DF931F92CDB7DEB78C01DC011296A8
:103870008C9181508983BE016F5F7F4FC801049690
:103880000E94EF1AD8011296EC91F0E03197E00F08
:10389000F11F9481891302C081E001C082E00F9082
:1038A000DF91CF911F910F9108959C012B5E3F4FA7
:1038B000C9010895CF93DF93FC018FEF9FEF948FA1
:1038C000838F968F858F90A3878F8589882319F1A1
:1038D000813041F582E090E0DF01A80FB91F149616
:1038E0004C91149747FF12C014965C911497EC0109
:1038F0002196CE0FDF1F4C81352F3F7720E0B90195
:10390000642BAB015A965C934E935997029688307C
:10391000910511F707C035852485932F80E0822B10
:10392000948F838FDF91CF9108950F931F93FC01A4
:1039300011A212A213A214A28589882369F08130F2
:1039400019F594818581592F5F7040E0662757FDF6
:103950006095762F482B14C02581468187819085FC
:1039600050E060E070E0BA0155274427722B492BE4
:10397000182F00E020E030E0402B512B622B732BFE
:1039800041A352A363A374A31F910F910895FC0157
:103990008589813029F48481881F8827881F0895AC
:1039A0008285833421F4938581E09F3409F080E09F
:1039B00008958F929F92AF92BF92CF92DF92EF9233
:1039C000FF920F931F93CF93DF93FC01992493945D
:1039D000B12C60EC70E0C0E8D0E000E410E044C03E
:1039E00080E090E0A12CEB2CF12CDC01AE0DBF1D92
:1039F000AE0FBF1F14968C9020E030E0AB01022E7A
:103A000002C0559547950A94E2F7482150E06E01AF
:103A1000022E02C0D594C7940A94E2F74C155D05B6
:103A200059F06801022E02C0D594C7940A94E2F7B7
:103A30004C155D0519F403C041E002C0912C40E033
:103A4000AA0CA42A2E5F3F4F28303105B9F6019603
:103A50008230910551F68B2D8695DF01A80FB11D9F
:103A60001496AC92B394B3948281B81608F4B8CF8C
:103A7000828186958283992011F081E001C082E0E5
:103A8000DF91CF911F910F91FF90EF90DF90CF903A
:103A9000BF90AF909F908F900895CF93DF93EC01EC
:103AA0008D89882331F0813041F4CE010E94D91CE8
:103AB00003C0CE010E942E1C8A8F8A8D813041F472
:103AC000CE010E945A1CCE01DF91CF910C94951C1F
:103AD000DF91CF910895CF93DF93EC018A8D81110F
:103AE00003C0CE010E944D1D81E09A8D913009F0F6
:103AF00080E0DF91CF9108959C012F5D3F4FC90178
:103B000008959C012A5E3F4FC90108950F931F93AA
:103B1000CF93DF93EC0119928C0106541F4FCE0115
:103B20000E947C1BA596C017D107C9F7DF91CF91E2
:103B30001F910F910895FF920F931F93CF93DF93DF
:103B40001F92CDB7DEB78C01FC01808145E2F42ED7
:103B50009801F89E200D311D1124C90101960E9483
:103B6000931BF8018081F89EE00DF11D1124319620
:103B7000938182819817B8F080E090E025E2289F39
:103B8000F001299FF00D11243196E00FF11F4381C0
:103B90003281431718F4F801808317C001968530ED
:103BA000910569F702C080E011C083E089838BEF43
:103BB00092E09F938F93CE0101969F938F930E94E3
:103BC0003F090F900F900F900F9081E00F90DF91C1
:103BD000CF911F910F91FF9008952CE733E0FC01E6
:103BE000318320830C94601ACF93DF93EC010E9401
:103BF000ED1DCE01DF91CF910C9409211F93CF933E
:103C0000DF9300D01F92CDB7DEB711E01B8389E3AD
:103C100092E89A838983BE016D5F7F4FCE01019642
:103C20000E948B21109381040F900F900F90DF91D1
:103C3000CF911F9108951F93CF93DF9300D01F92D0
:103C4000CDB7DEB711E01B8381E89AEC9A838983B4
:103C5000BE016D5F7F4FCE0101960E948B211B83B9
:103C600083E89AEC9A838983BE016D5F7F4FCE0112
:103C700001960E948B210F900F900F90DF91CF91B2
:103C80001F910895CF93DF9300D01F92CDB7DEB779
:103C900081E08B8389ED92E89A838983BE016D5F11
:103CA0007F4FCE0101960E948B21109281040E94C9
:103CB0001B1E0F900F900F90DF91CF910895CF931F
:103CC000DF9300D01F92CDB7DEB78CE694E00E9460
:103CD000FD1A91E09B8390E0986B9A838983BE01E3
:103CE0006D5F7F4FCE0101960E948B218CE694E0A0
:103CF0000E94E71A81110E94421E0F900F900F90B0
:103D0000DF91CF9108951F93CF93DF9300D0CDB76C
:103D1000DEB781E00E944B211982CE0101960E94FC
:103D20008321182F1982CE0101960E948321809150
:103D30008104811139C015FF1DC01A82CE0102967F
:103D40000E9483218983BE016F5F7F4F82EB93E0E6
:103D50000E949B1D182F1A82CE0102960E94832179
:103D60008983BE016F5F7F4F82EB93E00E949B1DB2
:103D7000182B12C017FF0FC01A82CE0102960E94A4
:103D800083218983BE016F5F7F4F82EB93E00E94A6
:103D90009B1D182F01C010E080E00E944B211123D1
:103DA00049F00E941B1E06C017FD0E945F1E80E0A6
:103DB0000E944B210F900F90DF91CF911F9108959A
:103DC0001F93CF93DF9300D000D0CDB7DEB70E9412
:103DD000512111E01C831A821982BE016C5F7F4F52
:103DE000CE0101960E948B2160ED77E080E090E0AB
:103DF0000E9483261C8388ED90E89A838983BE0104
:103E00006C5F7F4FCE0101960E948B211C8381E065
:103E100092E89A838983BE016C5F7F4FCE01019641
:103E20000E948B211C8384E396EA9A838983BE01D6
:103E30006C5F7F4FCE0101960E948B211C8387E52A
:103E400096EC9A838983BE016C5F7F4FCE01019609
:103E50000E948B211C8380EC94E99A838983BE01A4
:103E60006C5F7F4FCE0101960E948B211C838CE2F8
:103E700092EC9A838983BE016C5F7F4FCE010196DD
:103E80000E948B211C8381E89AEC9A838983BE016E
:103E90006C5F7F4FCE0101960E948B211C8384EDC5
:103EA0009EEC9A838983BE016C5F7F4FCE010196A1
:103EB0000E948B211C8387EF94EC9A838983BE0137
:103EC0006C5F7F4FCE0101960E948B211C8380E2A4
:103ED00098E99A838983BE016C5F7F4FCE0101967A
:103EE0000E948B211C8386E69CEC9A838983BE0109
:103EF0006C5F7F4FCE0101960E948B211C8380E076
:103F000090EE9A838983BE016C5F7F4FCE0101964C
:103F10000E948B211C8380E098EC9A838983BE01E8
:103F20006C5F7F4FCE0101960E948B211C8380E045
:103F300090EC9A838983BE016C5F7F4FCE0101961E
:103F40000E948B211B838CE093E09F938F93CE0183
:103F500003969F938F930E943F0964EF71E080E086
:103F600090E00E94832640E050E063E87EE180E03C
:103F70000E9483250F900F900F900F900F900F903D
:103F80000F900F90DF91CF911F910895CF93DF9302
:103F9000CDB7DEB72C970FB6F894DEBF0FBECDBFFE
:103FA0002BE0E7E0F1E0DE01119601900D922A95F9
:103FB000E1F7DA012C9111963C9111971296EC9150
:103FC000129713964C914A83EB833C832D83FC011B
:103FD00080818F83DB018C9188878BE08C8721E047
:103FE000AE01445F5F4FBE016F5F7F4F8CE694E090
:103FF0000E940D1B0E94FE1D2C960FB6F894DEBF8A
:104000000FBECDBFDF91CF910895CF92DF92EF9297
:10401000FF920F931F93CF93DF9300D0CDB7DEB7FE
:104020008C01FC01808191812281338141E04983AF
:104030003F932F939F938F9383E393E09F938F936B
:10404000EE24E394F12CEC0EFD1EFF92EF920E9401
:104050003F099BE4C92EC98221E4D22EDA82A8014D
:10406000B701CE0102960E94C61F62E370E080E0B5
:1040700090E00E948326C982DA82A801B701CE01AE
:1040800002960E94C61F0FB6F894DEBF0FBECDBFCA
:104090000F900F90DF91CF911F910F91FF90EF90B4
:1040A000DF90CF900895EF92FF920F931F93CF93DD
:1040B000DF9300D0CDB7DEB78C01FC018081918108
:1040C0002281338141E049833F932F939F938F93C4
:1040D00080E293E09F938F93EE24E394F12CEC0E17
:1040E000FD1EFF92EF920E943F0983E5898380E5E0
:1040F0008A83A801B701CE0102960E94C61F0FB69F
:10410000F894DEBF0FBECDBF0F900F90DF91CF911F
:104110001F910F91FF90EF9008950F931F93CF93EE
:10412000DF938C010F5F1F4F79F0EC01C654DF4F16
:10413000C017D10749F0A597E881F9810190F08176
:10414000E02DCE010995F4CFDF91CF911F910F9112
:1041500008958CE694E00E94811A8CE793E0909396
:104160006D0480936C0482EB93E00C94861D82EBCB
:1041700093E00E948D208CE694E00C94ED1DFC01F0
:10418000128680E797E19487838721E025879183D2
:1041900080839383828395838483978386839187A7
:1041A00080870895FC012285DB018D919C91DF01C0
:1041B00032E0239FA00DB11D11248D939C93822F7B
:1041C0008F5F853011F0828701C0128615860895B1
:1041D000FC01858581111AC0808191812281338102
:1041E000820F931F24813581820F931F268137818F
:1041F000820F931F20853185820F931F65E070E049
:104200000E947D277487638781E0858783859485F5
:1042100008950C94A6280C940B280C94A6280895B5
:1042200040E052EC61E070E08CEA94E00E946A2386
:1042300062E873E08CEA94E00E94912482E894E0C2
:104240000E94470D63E973E08CEA94E00C9491249A
:1042500082E894E00C94211A0E94A9260E94102161
:104260000E942821FDCF82E894E00C94140D86EB87
:1042700091E0909399048093980488E994E00E94D7
:10428000A7088CEA91E090938A048093890489E8D6
:1042900094E00C945608882311F02A9808952A9ADD
:1042A000089580E00E944B21229A61E08AE00E94FA
:1042B000462761E08DE00E940E2761E08BE00E94BE
:1042C0000E2761E08AE00E940E2760E08CE00E94E9
:1042D0000E2780E58CBD60E082E00E940E2761E041
:1042E00082E00E9446278DB581608DBD8CB58D7FA3
:1042F0008CBD8CB581608CBD8CB5877F8CBD8CB539
:104300008B7F8CBD0895FC0180818EBD0DB407FEAE
:10431000FDCF8EB50895CF92DF92EF92FF920F936B
:104320001F93CF93DF931F92CDB7DEB77C016B0154
:10433000FB01808181112A98F70181818983CE0157
:1043400001960E948321182F00E0F7018081898364
:10435000CE0101960E948321082BF60180818823DB
:1043600019F080E00E944B21C8010F90DF91CF919E
:104370001F910F91FF90EF90DF90CF900895DF9203
:10438000EF92FF920F931F93CF93DF93EC017B018A
:104390001882D12C8CEA94E00E946422892BE1F0EF
:1043A0008E010D0D111D8CEA94E00E949322F801FC
:1043B0008083D3940D2D10E0FE01E00FF11F3197A3
:1043C00060818CEA94E00E947424F701808190E07F
:1043D00001970817190739F0FE01ED0DF11D31970E
:1043E00080818D30B9F662EB72E08CEA94E00E9435
:1043F00091248CEA94E00E94B522CD0DD11D188243
:10440000DF91CF911F910F91FF90EF90DF90089572
:10441000CF93DF93CDB7DEB760970FB6F894DEBFCA
:104420000FBECDBF8FE0888BBE01605F7F4FCE0196
:1044300001960E94BF2140E050E060E070E0CE01B4
:1044400001960E94422960960FB6F894DEBF0FBE17
:10445000CDBFDF91CF910895CF92DF92EF92FF927F
:104460000F931F93CF93DF93EC010E94472608819F
:1044700019812A813B816017710782079307C8F071
:104480000E944726605679478E4F9F4FC880D9803B
:10449000EA80FB8020EAC20E26E8D21E21E0E21E5E
:1044A000F11C21E06C157D058E059F0518F020E0BC
:1044B00001C021E0822FDF91CF911F910F91FF90DA
:1044C000EF90DF90CF900895FC0184859585FC01E5
:1044D000E05CFF4F20813181FC01EE5BFF4F80816A
:1044E0009181281B390B2F733327C9010895FC01D3
:1044F00084859585FC01E05CFF4F40815181FC0182
:10450000EE5BFF4F208131814217530741F001904C
:10451000F081E02DE80FF91F208130E002C02FEF7D
:104520003FEFC9010895FC0184859585FC01E05C9D
:10453000FF4F40815181FC01EE5BFF4F20813181B3
:104540004217530771F0A081B181A80FB91F2C91B8
:104550008081918101968F7399279183808330E0C8
:1045600002C02FEF3FEFC9010895FC0186859785B2
:10457000FC01E05CFF4FDC01AE5BBF4F408151812D
:104580002D913C91119742175307C1F70895CF938E
:10459000DF93FC0126853785D901A05CBF4F8D9143
:1045A0009C91119701968F739927E901CE5BDF4F9C
:1045B0004881598184179507D9F30D90BC91A02D9E
:1045C000A20FB31F6C93A685B785A05CBF4F119651
:1045D0009C938E93A689B7892C9181E090E0058CFD
:1045E00002C0880F991F0A94E2F7282B2C9381E0D0
:1045F00090E0DF91CF9108951F920F920FB60F9226
:1046000011242F933F934F938F939F93EF93FF9397
:104610004091C60080914F059091500501968F738F
:10462000992720915105309152058217930759F02F
:10463000E0914F05F0915005E15FFA4F4083909370
:10464000500580934F05FF91EF919F918F914F916E
:104650003F912F910F900FBE0F901F9018951F92B2
:104660000F920FB60F9211242F933F938F939F9326
:10467000EF93FF9320910B0530910C0580910D0570
:1046800090910E052817390731F48091C1008F7D74
:104690008093C10014C0E0910D05F0910E05E55323
:1046A000FB4F208180910D0590910E0501968F732F
:1046B000992790930E0580930D052093C600FF91D6
:1046C000EF919F918F913F912F910F900FBE0F907F
:1046D0001F901895CF92DF92EF92FF92CF93DF93C6
:1046E000EC016A017B01411581EE580761057105F6
:1046F000F9F0EC89FD8981E090E00E8C02C0880F12
:10470000991F0A94E2F7808360E079E08DE390E0FE
:10471000A70196010E9491272150310941095109B1
:104720005695479537952795211580E1380798F0DC
:10473000EC89FD89108260E874E88EE190E0A701C1
:1047400096010E949127215031094109510956953E
:10475000479537952795E889F9893083EA89FB8958
:104760002083EE89FF89408181E090E09C010A8CE2
:1047700002C0220F331F0A94E2F7422B4083EE89D6
:10478000FF8940819C010B8C02C0220F331F0A94C9
:10479000E2F7422B4083EE89FF8940819C010C8C1B
:1047A00002C0220F331F0A94E2F7422B4083EE89A6
:1047B000FF8920810D8C02C0880F991F0A94E2F7AF
:1047C000809582238083DF91CF91FF90EF90DF90DF
:1047D000CF9008951092AF041092AE0488EE93E04B
:1047E000A0E0B0E08093B0049093B104A093B20431
:1047F000B093B30485EA93E09093AD048093AC0446
:104800008FE095E09093B9048093B8048BEC94E02A
:104810009093BB048093BA0485EC90E09093BD0420
:104820008093BC0484EC90E09093BF048093BE041A
:1048300080EC90E09093C1048093C00481EC90E000
:104840009093C3048093C20486EC90E09093C504D7
:104850008093C40484E08093C60483E08093C704FB
:1048600087E08093C80485E08093C90481E0809349
:10487000CA040895CF92DF92EF92FF920F931F9395
:10488000CF93DF936C01EB017A01E60EF71E00E097
:1048900010E00BC06991D601ED91FC910190F0817F
:1048A000E02DC6010995080F191FCE15DF0591F7F8
:1048B000C801DF91CF911F910F91FF90EF90DF9092
:1048C000CF900895DB010D900020E9F7AD01415034
:1048D0005109461B570BDC01ED91FC910280F381DD
:1048E000E02D09940C946224DC01ED91FC9101907F
:1048F000F081E02D09940F931F93CF93DF93EC0188
:104900006DE00E9474248C016AE0CE010E94742440
:104910009C01200F311FC901DF91CF911F910F9191
:1049200008950F931F93CF93DF93EC010E946224AD
:104930008C01CE010E947B249801280F391FC901E8
:10494000DF91CF911F910F9108955F926F927F92A7
:104950008F929F92AF92BF92CF92DF92EF92FF928F
:104960000F931F93CF93DF93CDB7DEB7A1970FB609
:10497000F894DEBF0FBECDBF3C016A017B01522E11
:1049800019A281E0821710F08AE0582E8E010F5D87
:104990001F4F852C912CA12CB12CC701B601A5016C
:1049A00094010E9491278C2D529E80191124015050
:1049B00011098A3010F4805D01C0895CF8018083A0
:1049C00069017A01C114D104E104F10431F7B8019D
:1049D000C3010E946224A1960FB6F894DEBF0FBEF9
:1049E000CDBFDF91CF911F910F91FF90EF90DF909E
:1049F000CF90BF90AF909F908F907F906F905F907F
:104A000008952115310541F4DC01ED91FC910190EF
:104A1000F081E02D642F09940C94A5240F931F932B
:104A2000CF93DF93EC010E9401258C01CE010E94FF
:104A30007B249C01200F311FC901DF91CF911F9171
:104A40000F9108959A01AB0160E070E00C9401258C
:104A50009A01462F50E060E070E00C940125CF925F
:104A6000DF92EF92FF920F931F93CF93DF93EC01AE
:104A70006A017B012115310579F4E881F981019002
:104A8000F081E02D642FDF91CF911F910F91FF9066
:104A9000EF90DF90CF9009942A30310519F477FD1B
:104AA0000EC02AE0B701A601CE01DF91CF911F9180
:104AB0000F91FF90EF90DF90CF900C94A5246DE2C2
:104AC0000E9474248C0144275527BA014C195D09B2
:104AD0006E097F092AE0CE010E94A5249C01200FC7
:104AE000311FC901DF91CF911F910F91FF90EF907E
:104AF000DF90CF9008959A01AB01662757FD60952E
:104B0000762F0C942F258230E8F4E82FF0E0EE0F9A
:104B1000FF1FED5AFA4F71836083813041F080911D
:104B200069008C7F842B80936900E89A08958091B6
:104B30006900440F551F440F551F837F842B8093BA
:104B40006900E99A08951F920F920FB60F921124EF
:104B50002F933F934F935F936F937F938F939F9385
:104B6000AF93BF93EF93FF938091530590915405BA
:104B7000892B29F0E0915305F09154050995FF9197
:104B8000EF91BF91AF919F918F917F916F915F91C5
:104B90004F913F912F910F900FBE0F901F9018953E
:104BA0001F920F920FB60F9211242F933F934F93A2
:104BB0005F936F937F938F939F93AF93BF93EF9385
:104BC000FF938091550590915605892B29F0E0912E
:104BD0005505F09156050995FF91EF91BF91AF9161
:104BE0009F918F917F916F915F914F913F912F9105
:104BF0000F900FBE0F901F9018951F920F920FB637
:104C00000F9211242F933F938F939F93AF93BF9352
:104C10008091570590915805A0915905B0915A057A
:104C200030915F05232F2D5F2D3720F40196A11DB4
:104C3000B11D05C0232F2A570296A11DB11D209337
:104C40005F058093570590935805A0935905B0933D
:104C50005A0580915B0590915C05A0915D05B0912E
:104C60005E050196A11DB11D80935B0590935C05C7
:104C7000A0935D05B0935E05BF91AF919F918F9119
:104C80003F912F910F900FBE0F901F9018950F938B
:104C90001F938FB7F89400915705109158052091F4
:104CA000590530915A058FBFB801C9011F910F9165
:104CB00008950F931F939FB7F89400915B0510918F
:104CC0005C0520915D0530915E0586B5A89B06C008
:104CD0008F3F21F00F5F1F4F2F4F3F4F9FBF322F4E
:104CE000212F102F0027080F111D211D311D42E01B
:104CF000000F111F221F331F4A95D1F7B801C901B8
:104D00001F910F910895CF92DF92EF92FF92CF9370
:104D1000DF936B017C010E945926EB010EC00E94BB
:104D200059266C1B7D0B683E734038F081E0C81A31
:104D3000D108E108F108C851DC4FC114D104E104E5
:104D4000F10469F7DF91CF91FF90EF90DF90CF9062
:104D50000895789484B5826084BD84B5816084BDF3
:104D600085B5826085BD85B5816085BDEEE6F0E0E4
:104D7000808181608083E1E8F0E010828081826040
:104D80008083808181608083E0E8F0E080818160C1
:104D90008083E1EBF0E0808184608083E0EBF0E0F1
:104DA000808181608083EAE7F0E080818460808395
:104DB000808182608083808181608083808180683F
:104DC00080831092C1000895833069F028F4813007
:104DD000A1F0823011F514C08630B1F08730C1F0F7
:104DE0008430D9F404C0809180008F7703C0809113
:104DF00080008F7D80938000089584B58F7702C0F6
:104E000084B58F7D84BD08958091B0008F7703C0F5
:104E10008091B0008F7D8093B0000895CF93DF9391
:104E200090E0FC01EA5AFC4F4491FC01E659FC4F2A
:104E30008491882341F190E0880F991FFC01E85785
:104E4000FC4F25913491D90182589C4FFC018591EA
:104E50009491C82FD92F9FB7F8948C91611106C0F7
:104E6000409584238C938881842308C0623041F468
:104E7000242F209582238C938881842B888302C0E1
:104E8000842B8C939FBFDF91CF9108950F931F9335
:104E9000CF93DF931F92CDB7DEB7282F30E0F90113
:104EA000EE5BFC4F8491F901EA5AFC4F1491F90131
:104EB000E659FC4F04910023D1F0882321F0698347
:104EC0000E94E4266981E02FF0E0EE0FFF1FE25818
:104ED000FC4F85919491DC019FB7F8948C916111FE
:104EE00003C01095812301C0812B8C939FBF0F902D
:104EF000DF91CF911F910F910895AA1BBB1B51E128
:104F000007C0AA1FBB1FA617B70710F0A61BB70B39
:104F1000881F991F5A95A9F780959095BC01CD01DE
:104F20000895A1E21A2EAA1BBB1BFD010DC0AA1FEA
:104F3000BB1FEE1FFF1FA217B307E407F50720F002
:104F4000A21BB30BE40BF50B661F771F881F991F7D
:104F50001A9469F760957095809590959B01AC01C6
:104F6000BD01CF0108952F923F924F925F926F92B1
:104F70007F928F929F92AF92BF92CF92DF92EF92E9
:104F8000FF920F931F93CF93DF93CDB7DEB7CA1B6A
:104F9000DB0B0FB6F894DEBF0FBECDBF09942A8895
:104FA000398848885F846E847D848C849B84AA843D
:104FB000B984C884DF80EE80FD800C811B81AA81CA
:104FC000B981CE0FD11D0FB6F894DEBF0FBECDBF95
:104FD000ED010895EE0FFF1F0590F491E02D099467
:104FE0000E94F92784FF0895CB010E94F927805F72
:104FF0000895AA27992329F4A85F982B11F480E13A
:105000000895903118F4AD5F9295A395990FE8F744
:105010008A2F992708950F931F93CF93DF938230A0
:10502000910510F482E090E0E0916205F091630553
:1050300020E030E0C0E0D0E023C04081518148173B
:105040005907A8F04817590761F482819381209786
:1050500019F09B838A832EC0909363058093620529
:1050600029C02115310529F04217530710F0A90175
:1050700002C0BE01DF0102811381EF019A01F80134
:105080003097D9F62115310509F1281B390B243049
:10509000310590F412968D919C91139761157105CD
:1050A00021F0FB019383828304C090936305809376
:1050B0006205FD01329644C0FD01E20FF31F8193AA
:1050C0009193225031092D933C933AC02091600571
:1050D00030916105232B41F42091020130910301AD
:1050E000309361052093600520910001309101010A
:1050F0002115310541F42DB73EB74091040150917F
:105100000501241B350BE0916005F0916105E21764
:10511000F307A0F42E1B3F0B2817390778F0AC01DA
:105120004E5F5F4F2417350748F04E0F5F1F5093B7
:105130006105409360058193919302C0E0E0F0E047
:10514000CF01DF91CF911F910F910895EF92FF92C0
:105150000F931F93CF93DF93009709F48EC0DC0168
:10516000129713961C921E921297E0906205F0908F
:105170006305E114F10489F42D913C911197280FF6
:10518000391F80916005909161058217930789F519
:10519000B0936105A093600570C0E70120E030E0A6
:1051A00001C0EA01CA17DB0738F44A815B819E011E
:1051B00041155105B1F722C0AC0142505109FA0125
:1051C000D383C28300811181BC01600F711F6C17F2
:1051D0007D0761F468817981600F711F6E5F7F4F79
:1051E000718360836A817B817383628321153105BA
:1051F00029F4B0936305A09362053FC0F901B3831E
:10520000A283E90149915991C40FD51FAC17BD077D
:1052100071F4DC019E918E91840F951F029691830B
:10522000808312968D919C91139793838283A0E043
:10523000B0E002C0D7017C01F70182819381009721
:10524000C9F7C701029620813181820F931F2091F7
:105250006005309161052817390779F4109729F412
:10526000109263051092620504C013961C921E9260
:105270001297F0926105E0926005CDB7DEB7E6E0E7
:105280000C94DB27A0E0B0E0E8E4F9E20C94B3274B
:105290001B013A016115710519F0FB0180839183AF
:1052A0006114710439F09301225031092332310520
:1052B00008F0C7C08C01F801D1918F012F018D2F0B
:1052C00090E00E943D2A892BB1F7DD3229F4F801E4
:1052D000D1912F01C1E006C0DB3219F4F801D19160
:1052E0002F01C0E06114710409F4B5C0F0E16F163C
:1052F000710489F4B7C0F2018081883719F08835CC
:1053000009F0A3C0F201D181F2E04F0E511CC2603E
:1053100050E1652E712C8AE06816710439F1E0E1E4
:105320006E16710429F0F8E06F16710491F407C04D
:10533000CC24CA94DC2CEC2C4FE0F42E1DC028E0C9
:10534000622E712CCC24CA94DC2CEC2C3FE1F32E81
:1053500013C09301442737FD4095542F6FEF7FEF23
:10536000CB010E94912769017A0106C099E9C92EF3
:10537000DC2CEC2C99E1F92E90E020E030E0A90142
:105380004301AA2497FCA094BA2CED2FE053EA30F5
:1053900060F08D2F81548A3110F4E75006C08D2FB4
:1053A00081568A3140F5ED2FE7556E2F70E0661576
:1053B00077050CF59F3FD9F0C216D306E406F50633
:1053C00098F0C501B4010E94E12C9B01AC018E2F25
:1053D00090E0A0E0B0E0280F391F4A1F5B1F28179C
:1053E00039074A075B0710F49FEF01C091E0F20113
:1053F000D1912F01CACF2114310471F0992321F0EA
:10540000F1E04F1A510805C0C1FF06C0F2E04F1A83
:105410005108F10151824082C0FF07C0509540956C
:10542000309521953F4F4F4F5F4F97FF1FC082E24E
:1054300090E090936505809364052FEF3FEFA901FD
:1054400015C020E030E0A90111C0D0E3611471045F
:1054500009F475CF60CFD03309F44DCF8AE0682EC0
:10546000712C84CFD03309F056CF45CFB901CA0192
:10547000CDB7DEB7E2E10C94CF279111FFC18032A6
:1054800019F089508550D0F70895AEE0B0E0EBE414
:10549000FAE20C94C1278C0186E08C831A8309837D
:1054A0008FEF9FE79E838D83CE0101960E94612A34
:1054B000EF81F885E00FF11F10822E96E4E00C9446
:1054C000DD27ACE0B0E0E7E6FAE20C94B3277C011C
:1054D0006B018A01FC0117821682838181FFC7C19B
:1054E00088248394912C8C0E9D1EF7019381F601E4
:1054F00093FD859193FF81916F01882309F4B3C1D6
:10550000853239F493FD859193FF81916F01853246
:1055100029F4B70190E00E94572CE7CF712C312C71
:1055200020E02032A8F48B3261F028F4803251F070
:10553000833271F40BC08D3239F0803349F421602D
:1055400028C02260246025C0286023C0206121C0BB
:1055500027FD27C0382F30533A3078F426FF06C095
:10556000FAE07F9E300D1124732E13C08AE0389E1E
:10557000300D1124332E20620CC08E3221F426FD12
:1055800072C1206406C08C3611F4206802C08836CF
:1055900041F4F60193FD859193FF81916F01811193
:1055A000C0CF982F9554933018F09052933028F430
:1055B0000C5F1F4FFFE3F9830DC0833631F0833753
:1055C00071F0833509F05EC023C0F80180818983C2
:1055D0000E5F1F4F66246394712C540115C028017F
:1055E000F2E04F0E511CF801A080B18026FF03C0ED
:1055F000672D70E002C06FEF7FEFC5012C870E941E
:105600004C2C3C0182012C856FE7262E222218C0EB
:105610002801F2E04F0E511CF801A080B18026FF56
:1056200003C0672D70E002C06FEF7FEFC5012C87CC
:105630000E94412C3C012C8550E8252E222A820113
:1056400023FC1CC006C0B70180E290E00E94572CEA
:105650003A94832D90E068167906A8F30FC0F501FF
:1056600027FC859127FE81915F01B70190E00E94A0
:10567000572C31103A94F1E06F1A710861147104DB
:1056800071F7EEC0843611F0893641F5F80127FF35
:1056900007C060817181828193810C5F1F4F08C0B8
:1056A00060817181882777FD8095982F0E5F1F4F4D
:1056B0004FE6642E622297FF09C090958095709501
:1056C00061957F4F8F4F9F4FF0E86F2A2AE030E0BF
:1056D000A4010E94832CA82EA81844C0853731F459
:1056E0003FEEB32EB2222AE030E024C099EFB92E6B
:1056F000B2228F36B9F020F4883509F0B4C00DC05D
:10570000803721F0883709F0AEC002C020E1B22A0C
:10571000B4FE0BC084E0B82A08C024FF09C0E6E04C
:10572000BE2A06C028E030E005C020E130E002C01B
:1057300020E132E0F801B7FE07C06081718182810B
:1057400093810C5F1F4F06C06081718180E090E003
:105750000E5F1F4FA4010E94832CA82EA8188FE76C
:10576000682E6B2066FE0BC0362D3E7FA71450F4CA
:1057700064FE0AC062FC08C0362D3E7E05C0BA2C0D
:10578000362D03C0BA2C01C0B72C34FF0DC0FE016A
:10579000EA0DF11D8081803311F4397E09C032FF9A
:1057A00006C0B394B39404C0832F867809F0B394F1
:1057B00033FD14C030FF0FC07A2CB31460F4730CA7
:1057C0007B18B32C08C0B70180E290E03C870E94B0
:1057D000572CB3943C85B314B0F304C0B31410F445
:1057E0003B1801C0312C34FF12C0B70180E390E0B8
:1057F0003C870E94572C3C8532FF1EC031FF03C0FE
:1058000088E590E002C088E790E0B7010CC0832FE4
:10581000867891F031FD02C080E201C08BE237FD55
:105820008DE2B70190E00E94572C06C0B70180E3DB
:1058300090E00E94572C7A94A714C0F3AA94F40124
:10584000EA0DF11DB701808190E00E94572CA11054
:10585000F5CF06C0B70180E290E00E94572C3A9441
:105860003110F8CF42CEF7012681378102C02FEFE9
:105870003FEFC9012C96E2E10C94CF2799278827A6
:105880000895FC010590615070400110D8F7809593
:1058900090958E0F9F1F0895FC01615070400190FC
:1058A0000110D8F7809590958E0F9F1F08950F9344
:1058B0001F93CF93DF938C01EB018B8181FD03C09C
:1058C0000FEF1FEF1AC082FF0DC02E813F818C8128
:1058D0009D812817390764F4E881F9810193F983E0
:1058E000E88306C0E885F985802F0995892B41F763
:1058F0008E819F8101969F838E83C801DF91CF9116
:105900001F910F910895FA01AA27283051F12031F3
:1059100081F1E8946F936E7F6E5F7F4F8F4F9F4F43
:10592000AF4FB1E03ED0B4E03CD0670F781F891F85
:105930009A1FA11D680F791F8A1F911DA11D6A0F53
:10594000711D811D911DA11D20D009F468943F9106
:105950002AE0269F11243019305D3193DEF6CF0105
:105960000895462F4770405D4193B3E00FD0C9F7CB
:10597000F6CF462F4F70405D4A3318F0495D31FD38
:105980004052419302D0A9F7EACFB4E0A69597958B
:10599000879577956795BA95C9F700976105710561
:1059A00008959B01AC010A2E0694579547953795AB
:1059B0002795BA95C9F7620F731F841F951FA01D05
:1059C0000895DB018F939F930E94F12CBF91AF91BB
:1059D000A29F800D911DA39F900DB29F900D112449
:1059E00008950E94FC2CA59F900DB49F900DA49F3C
:1059F000800D911D11240895A29FB001B39FC00195
:105A0000A39F01D0B29F700D811D1124911D089597
:105A100013E0C8E9D3E004C0FE010E94EC272296FF
:0A5A2000CC39D107C9F7F894FFCF85
:105A2A0000006605200002460000000000414B000D
:105A3A00004F00000000000000002043435F545262
:105A4A0058002043435F545800284445425547298B
:105A5A000028494E464F2900285741524E2900280E
:105A6A004552524F52290028464154414C29007B45
:105A7A0069643A20002C206C6173745F7365656EEB
:105A8A003A20002C206E756D5F706572696F6473C1
:105A9A005F6D69737365643A20002C206574613AFE
:105AAA0020002C2073616D706C655F706572696F80
:105ABA00643A2000000000003C084808040900007D
:105ACA00000042084F0804090000000096089D08DB
