:100000000C9464000C9435130C9462130C948C00C3
:100010000C948C000C948C000C948C000C948C0030
:100020000C948C000C948C000C948C000C948C0020
:100030000C948C000C948C000C948C000C948C0010
:100040000C94A71B0C948C000C94280E0C94590E45
:100050000C948C000C948C000C948C000C948C00F0
:100060000C948C000C948C000000000024002700ED
:100070002A0000000000250028002B0000000000DE
:1000800023002600290004040404040404040202DA
:100090000202020203030303030301020408102007
:1000A0004080010204081020010204081020000012
:1000B0000007000201000003040600000000000029
:1000C0000000B00CEF0CB40F11241FBECFEFD8E02E
:1000D000DEBFCDBF14E0A0E0B1E0EEE4F0E502C089
:1000E00005900D92AC39B107D9F717E0ACE9B4E04F
:1000F00001C01D92AE31B107E1F710E0C8ECD0E0CD
:1001000004C02297FE010E94B424C23CD107C9F763
:100110000E94E80C0C9425280C940000FC0110822D
:100120001182128213822FEF3FEF4FEF5FEF248394
:100130003583468357838FEF9FEF9187808708959C
:10014000EF92FF920F931F93CF93DF937C018B016C
:100150000E94EF1B6059784E8F4F9F4FF7016083CD
:100160007183828393830E94EF1BAB01BC01CDEEB0
:10017000D6E0CE012AE030E00E946611CE0160E0B8
:1001800071E00E948210C8010E94E107FC014081D9
:10019000518162817381CE012AE030E00E947511A5
:1001A000C8010E94DC07FC0180819181F7019187E1
:1001B0008087DF91CF911F910F91FF90EF9008956D
:1001C000FC01608171818281938108950F931F9357
:1001D000CF93DF938C01FC0180819181A281B38157
:1001E0008059984EAF4FBF4F80839183A283B383D2
:1001F0000E94EF1BAB01BC01CDEED6E0CE012AE0A0
:1002000030E00E946611CE0167E171E00E94821029
:10021000F8014481558166817781CE012AE030E082
:100220000E946611CE016CE171E00E948210F8011B
:100230004081518162817381CE012AE030E00E94C9
:100240007511DF91CF911F910F910895FB012081CE
:10025000318142815381FC01248335834683578356
:100260000895FC0164817581868197810895FC0160
:1002700010821182128213822FEF3FEF4FEF5FEF58
:1002800024833583468357838FEF9FEF9187808741
:1002900095878487938782870895CF93DF93EC01B6
:1002A0000E94EF1BAB01BC018DEE96E02AE030E02E
:1002B0000E9466118DEE96E064E371E00E94821068
:1002C0004C815D816E817F818DEE96E02AE030E089
:1002D0000E946611888599852FEF8F3F920771F0F4
:1002E0008DEE96E06AE371E00E9482106885798560
:1002F0008DEE96E04AE050E00E9488118A859B8549
:100300002FEF8F3F920771F08DEE96E060E471E081
:100310000E9482106A857B858DEE96E04AE050E06F
:100320000E9488118C859D852FEF8F3F920771F079
:100330008DEE96E066E471E00E9482106C857D850A
:100340008DEE96E04AE050E00E9488118DEE96E036
:100350006CE471E00E94D310DF91CF9108950F9368
:100360001F93CF93DF93EC018B010E94A000C80183
:100370000E94DC07FC01828193819B878A878481AC
:1003800095819D878C87CE010E944D01DF91CF9191
:100390001F910F910895FC01DC0165E070E02FEFE3
:1003A0003FEF4FEF5FEF8FEF9FEF1D921D921D927A
:1003B0001C92139714962D933D934D935C9317972E
:1003C00019969C938E9318971D969C938E931C97C9
:1003D0001B969C938E931A97615070401E966115E0
:1003E000710519F7DF01A95BBF4F1C92DF01A85B04
:1003F000BF4F1C92DF01AA5BBF4F82E08C932FE7B7
:1004000033E040E050E024833583468357832CE17A
:1004100030E040E050E0228B338B448B558BDF0182
:10042000A75BBF4F81E08C93E65BFF4F23E030E09A
:1004300040E050E020833183428353830895CF937B
:10044000DF93EB01FC01EA5BFF4FB081FC01A0E010
:100450000FC064817581868197813E96288139819C
:100460004A815B816217730784079507F1F0AF5FDC
:10047000AB1778F30E94EF1BAB01BC018DEE96E049
:100480002AE030E00E9466118DEE96E06EE471E0A5
:100490000E948210488159816A817B818DEE96E0AD
:1004A0002AE030E00E947511AFEF8A2FDF91CF91E3
:1004B000089508950F931F93CF93DF93EC01FC01F0
:1004C000EA5BFF4F7081FC0160E08C01095B1F4F0C
:1004D00021C0D8018C9190E0880F991FDC0123E0A6
:1004E000AA0FBB1F2A95E1F7A81BB90BAC0FBD1FC4
:1004F00020813181428153818D919D910D90BC91DC
:10050000A02D281739074A075B0710F4D8016C9310
:100510006F5F3E966717E9F60E94EF1BAB01BC01C7
:100520008DEE96E02AE030E00E9466118DEE96E0B6
:100530006EE571E00E948210F801808190E0880FE2
:10054000991FFC0143E0EE0FFF1F4A95E1F7E81BFE
:10055000F90BEC0FFD1F44815581668177818DEE8B
:1005600096E02AE030E00E9466118DEE96E06BE79F
:1005700071E00E948210D8018C9190E0880F991F41
:10058000FC0123E0EE0FFF1F2A95E1F7E81BF90BB2
:10059000EC0FFD1F40815181628173818DEE96E0E9
:1005A0002AE030E00E947511DF91CF911F910F91E9
:1005B00008952F923F924F925F926F927F928F9207
:1005C0009F92AF92BF92CF92DF92EF92FF920F93E2
:1005D0001F93DF93CF9300D000D0CDB7DEB77C015F
:1005E0000E94EF1B4B015C010E94EF1BAB01BC01A1
:1005F0008DEE96E02AE030E00E9466118DEE96E0E6
:1006000061E871E00E94D310CC2488EE93E0A0E072
:10061000B0E0880E991EAA1EBB1E28E2622E712C25
:1006200097E4292E312C2E0C3F1C2E010894411CDE
:10063000511C97C08D2D90E0869D8001879D100DE7
:10064000969D100D11240A531B4FC8010E94D70715
:10065000FC0180819181A281B38189839A83AB83DC
:10066000BC83C8010E94D4078823C9F1F101A0818D
:100670002A2F30E0220F331FF901B3E0EE0FFF1FE6
:10068000BA95E1F7E21BF30BEE0DFF1D69817A814C
:100690008B819C8124813581468157816217730744
:1006A0008407950731F0C701B2010E941F02A82FED
:1006B00002C0CC24C394AF3F61F12A2F30E0220F57
:1006C000331FC90163E0880F991F6A95E1F7821B08
:1006D000930B8E0D9F1DB8010E94AF011AC00E949E
:1006E000EF1BAB01BC018DEE96E02AE030E00E94EA
:1006F00066118DEE96E06FE871E00E9482104981EC
:100700005A816B817C818DEE96E02AE030E00E9478
:100710007511D3942091C504D21608F48BCF30E024
:10072000269DC001279D900D369D900D11248A5362
:100730009B4F0E94EC05882381F00E94EF1BAB01C8
:10074000BC018DEE96E02AE030E00E9466118DEE4D
:1007500096E06DEA71E00E94D31085EC94E00E946F
:10076000CE080E94EF1B681579058A059B0550F499
:10077000CC2041F485EC94E00E942009882389F381
:10078000DD24C8CF0E94EF1BAB01BC018DEE96E0CB
:100790002AE030E00E9466118DEE96E064EC71E094
:1007A0000E9482108DEE96E06C2D70E04AE050E0E1
:1007B0000E941E12CC20A1F4F701E95BFF4F80815B
:1007C00090E09C01220F331FC90143E0880F991F5D
:1007D0004A95E1F7821B930B8E0D9F1D0E94E60048
:1007E000C7010E945A020F900F900F900F90CF9167
:1007F000DF911F910F91FF90EF90DF90CF90BF900E
:10080000AF909F908F907F906F905F904F903F90B0
:100810002F900895CF93DF93EC01FC01EA5BFF4F2B
:100820008081882329F10E94EF1B9B01AC01FE010E
:10083000E95BFF4F808190E0880F991FFC0163E026
:10084000EE0FFF1F6A95E1F7E81BF90BEC0FFD1F98
:1008500080819181A281B381845F9140A040B040AA
:10086000281739074A075B0718F0CE010E94D90202
:10087000DF91CF9108954F925F926F927F929F92F6
:10088000AF92BF92CF92DF92EF92FF920F931F939E
:10089000DF93CF9300D000D0CDB7DEB77C010E94AC
:1008A0005A020E945C0B0E94B7098DEE96E06DED36
:1008B00071E00E94D3100E94EF1B5B016C0180E38A
:1008C00095E7A0E0B0E0A80EB91ECA1EDB1EA8E2A4
:1008D0006A2E712C2E010894411C511C63C085ECBA
:1008E00094E00E942009882309F45CC0992434C054
:1008F000892D90E0869D8001879D100D969D100D9D
:1009000011240A531B4FC8010E94D707FC018081A4
:100910009181A281B38189839A83AB83BC83C8010F
:100920000E94D4078823B9F0C701B2010E941F02B8
:100930008F3F89F0282F30E0220F331FC901E3E0F9
:10094000880F991FEA95E1F7821B930B8E0D9F1D6F
:10095000B8010E94AF0193942091C504921640F211
:1009600030E0269DC001279D900D369D900D1124ED
:100970008A539B4F0E94EC05882381F00E94EF1B55
:10098000AB01BC018DEE96E02AE030E00E946611DA
:100990008DEE96E06DEA71E00E94D31085EC94E054
:1009A0000E94CE080E94EF1B6A157B058C059D05F1
:1009B00008F495CF8DEE96E06CEF71E00E94D310B5
:1009C000C7010E945A020F900F900F900F90CF9185
:1009D000DF911F910F91FF90EF90DF90CF90BF902C
:1009E000AF909F907F906F905F904F900895FC0123
:1009F00060831182118E128E138E148E158E2FEF3E
:100A00003FEF4FEF5FEF24A335A346A357A38081A9
:100A1000873130F08DEE96E069E172E00E94D310EC
:100A20000895FB012081FC01208308950F931F93FB
:100A3000CF93DF93EC018B01998188819817E8F4BB
:100A40008981882389F40E94EF1B698F7A8F8B8FAD
:100A50009C8FF8018081853521F481E0888F80E1C9
:100A600002C0188E8CE088838981F8019081FE0194
:100A7000E80FF11D92838F5F8983DF91CF911F91E2
:100A80000F910895CF92DF92EF92FF920F931F93F1
:100A9000CF93DF936C018B017A01C0E0D0E007C0F7
:100AA000B8016C0F7D1FC6010E9416052196F70143
:100AB000808190E0C817D9079CF3DF91CF911F91F7
:100AC0000F91FF90EF90DF90CF900895FC019181FE
:100AD0008081981750F49181DF01A90FB11D129602
:100AE0008C9112979F5F9183089580E00895FF9203
:100AF0000F931F93CF93DF93EC0100E010E012C03F
:100B0000FE01E00FF11F62818DEE96E040E150E0C2
:100B10000E94A6118DEE96E063E472E00E948210BE
:100B20000F5F1F4F888190E0081719074CF38D8DD8
:100B3000882329F08DEE96E065E472E004C08DEE26
:100B400096E069E472E00E9482108DEE96E06FE418
:100B500072E00E9482108E01025E1F4F83E0F82E29
:100B6000F801619171918F018DEE96E04AE050E0BD
:100B70000E9488118DEE96E063E472E00E9482107C
:100B8000FA9471F78DEE96E069E572E00E948210AA
:100B90004CA15DA16EA17FA18DEE96E02AE030E030
:100BA0000E9466118DEE96E06FE572E00E94821061
:100BB000688D8DEE96E070E04AE050E00E941412DD
:100BC0008DEE96E06DE672E00E948210DF91CF918B
:100BD0001F910F91FF900895FC012181908181E088
:100BE000291708F480E00895FC011182108E8FEF20
:100BF0009FEF93A382A391A380A3978F868F2FEF5C
:100C00003FEF4FEF5FEF24A335A346A357A3158E05
:100C10008CE08083118E128E138E148E0895FB014A
:100C20006081282F392FF90190E080E003C02191E5
:100C3000820F9F5F9617D8F30895CF92DF92EF92BD
:100C4000FF920F931F93DF93CF93CDB7DEB7299712
:100C50000FB6F894DEBF0FBECDBF8C016B017A01D9
:100C6000DE011696E5E8F2E083E001900D928150F6
:100C7000E1F780E48C831D8283E0898382E08A83AC
:100C8000F8011182108E8FEF9FEF93A382A391A39F
:100C900080A3978F868F8FEF9FEFAFEFBFEF84A377
:100CA00095A3A6A3B7A3158E8CE08083118E128E18
:100CB000138E148EF70180818B5F820FF801808381
:100CC000C801BE016A5F7F4FAE014F5F5F4F29874A
:100CD0000E944205C801B601A7010E94420529856C
:100CE000222359F0C601B7010E940F068B83C80169
:100CF000BE016D5F7F4F0E941605C801BE016C5F8B
:100D00007F4FAE014E5F5F4F0E944205F801118296
:100D1000108E8FEF9FEF93A382A391A380A3978F51
:100D2000868F8FEF9FEFAFEFBFEF84A395A3A6A3AE
:100D3000B7A3158E8CE08083118E128E138E148EC5
:100D400029960FB6F894DEBF0FBECDBFCF91DF91CD
:100D50001F910F91FF90EF90DF90CF9008950F9328
:100D60001F93DF93CF930F92CDB7DEB78C01DC01D9
:100D70008C9181508983C8010296BE016F5F7F4FBD
:100D80000E940F06D801EC91F0E03197E00FF11FBF
:100D9000228191E0821390E0892F0F90CF91DF9113
:100DA0001F910F910895CF93DF93FC018FEF9FEF79
:100DB000978F868F91A380A393A382A3808D88238E
:100DC000F9F0DF0182E090E0EF01C80FD91F4A81FE
:100DD00047FF10C05A81EC012196CE0FDF1F4A81D8
:100DE000352F3F7720E050E0422B532B5F965C93EA
:100DF0004E935E97029612968830910529F709C0A6
:100E000093858285392F20E090E0822B932B978F5A
:100E1000868FDF91CF9108951F93FC0114A215A234
:100E200016A217A2808D882399F02281838130E059
:100E30002F703070322F2227442737FD4095542FD2
:100E400090E0A0E0B0E0282B392B4A2B5B2B28C088
:100E5000938184811581A681392F332720E044278F
:100E600037FD4095542F782F772760E0882777FD4E
:100E70008095982F262B372B482B592B8A2F90E0C3
:100E8000A0E0B0E0282B392B4A2B5B2B712F60E0C0
:100E9000882777FD8095982F262B372B482B592BA9
:100EA00024A335A346A357A31F910895AF92BF92E1
:100EB000CF92DF92EF92FF920F931F93CF93DF9326
:100EC000FC0190E081E0C0E8D0E020E4C22ED12C0B
:100ED00039C07E01042E02C0F594E7940A94E2F72B
:100EE0007C917E217E1571F07601042E02C0F5946E
:100EF000E7940A94E2F7B701EC90E622E61629F4AB
:100F0000BB2404C0BB24B39401C080E0AA0CAB286E
:100F10004E5F5F4F48305105E1F62F5F3F4F20177E
:100F2000310739F040E050E0DF01A20FB31F129605
:100F3000D0CF292F2695DF01A20FB11D1296AC92BA
:100F400012979E5F2081921738F4292F30E0890193
:100F50000E5F1F4FAA24E6CF908196959083DF9174
:100F6000CF911F910F91FF90EF90DF90CF90BF90A6
:100F7000AF900895CF93DF93EC01888D882321F003
:100F8000CE010E94560703C0CE010E94AF068D8F8E
:100F90008D8D882331F0CE010E94D306CE010E94B0
:100FA0000C07DF91CF910895FC01858D08959C0178
:100FB0002C5D3F4FC90108959C01225E3F4FC9013E
:100FC00008959C01275E3F4FC9010895CF92DF929B
:100FD000EF92FF920F931F93CF93DF93EC017B016E
:100FE000FC0111928F01CC24DD24C8018C0D9D1DC4
:100FF00066E10E94F70488E290E0C80ED91E98ECE2
:10100000C916D10491F7F70180818983808189A76E
:101010008081FE01EF5AFF4F8083F7018081FE013E
:10102000E758FF4F8083F7018081CF55DF4F8883DA
:10103000DF91CF911F910F91FF90EF90DF90CF90B4
:1010400008950F931F93CF93DF93EC01288130E035
:1010500008E210E0209FC001219F900D309F900D6D
:10106000112401968C0F9D1F0E9416052881822F46
:1010700090E0809FF001819FF00D909FF00D112472
:10108000EC0FFD1F92818181981768F0253038F0B0
:101090008DEE96E060E772E00E94D31002C02F5FF1
:1010A000288381E001C080E0DF91CF911F910F91F3
:1010B00008953F924F925F926F927F928F929F928C
:1010C000AF92BF92CF92DF92EF92FF920F931F9356
:1010D000CF93DF936C018DEE96E061E872E00E94A1
:1010E000D310E6016E96EE24FF2448E2842E912C64
:1010F000AA24AA94BA2C44244A94542C32013CE0E9
:10110000332E33C0E89C8001E99C100DF89C100D33
:1011100011240F5F1F4F0C0D1D1DC8010E94BA073F
:101120008881882319F0C8010E947705E89CF001A6
:10113000E99CF00DF89CF00D1124EC0DFD1D1282C0
:10114000118EBE82AD82BC82AB82BA82A9824F82EE
:10115000588669867A8618823182128E138E148E92
:10116000158E0894E11CF11CA896F601808190E090
:10117000E816F9063CF21082DF91CF911F910F9192
:10118000FF90EF90DF90CF90BF90AF909F908F90A7
:101190007F906F905F904F903F900895DF92EF9215
:1011A000FF920F931F93CF93DF93EC01088110E020
:1011B000FC017E9680E090E0B8E2EB2EF12C6FEF20
:1011C0007FEF2FEF3FEF4FEF5FEFACE0DA2E25C060
:1011D0008E9DD0018F9DB00D9E9DB00D1124AC0F42
:1011E000BD1F12961C92129759961C92599776839E
:1011F0006583748363837283618327833087418728
:10120000528710821196DC9211975A961D921D9268
:101210001D921C925D970196B89680179107C4F2B3
:101220001882DF91CF911F910F91FF90EF90DF9087
:101230000895FC0181E09081992309F480E00895EC
:10124000AF92BF92CF92DF92EF92FF920F931F93D4
:10125000DF93CF930F92CDB7DEB78C01FC01808175
:10126000882349F17801AA24BB2440E088E2C82EF3
:10127000D12C1AC0AC9C9001AD9C300DBC9C300DA3
:1012800011242F5F3F4FC801820F931F49830E9493
:10129000BA07F701868D4981482B0894A11CB11C1F
:1012A00088E290E0E80EF91EF801208130E0A216F5
:1012B000B30604F301C040E0842F0F90CF91DF917B
:1012C0001F910F91FF90EF90DF90CF90BF90AF9064
:1012D00008951F93DF93CF9300D00F92CDB7DEB761
:1012E00089E392E89B838A8311E01983CE010296F9
:1012F000BE016F5F7F4F0E94340D10939C048DEEF2
:1013000096E068E872E00E94D3100F900F900F9063
:10131000CF91DF911F9108951F93DF93CF9300D05A
:1013200000D000D0CDB7DEB781E89AEC9C838B83E8
:1013300011E01983CE010396BE016F5F7F4F0E94BB
:10134000340D83E89AEC9E838D831A83CE01059633
:10135000BE016E5F7F4F0E94340D26960FB6F89443
:10136000DEBF0FBECDBFCF91DF911F910895DF93F8
:10137000CF9300D00F92CDB7DEB789ED92E89B8373
:101380008A8381E08983CE010296BE016F5F7F4F21
:101390000E94340D10929C040E948C090F900F90B3
:1013A0000F90CF91DF9108951F93DF93CF9300D0DB
:1013B0000F92CDB7DEB78DE994E00E946605182F35
:1013C000282F30E0205038443B832A8381E08983F2
:1013D000CE010296BE016F5F7F4F0E94340D8DEEED
:1013E00096E0612F40E150E00E94A6118DEE96E05C
:1013F0006CE872E00E9482108DE994E00E94EC0596
:10140000882341F08DEE96E06EE872E00E94821033
:101410000E94B7090F900F900F90CF91DF911F910D
:1014200008951F93DF93CF93CDB7DEB728970FB6FC
:10143000F894DEBF0FBECDBF81E00E94F40C19828C
:10144000CE0101960E942C0D182F1A82CE01029611
:101450000E942C0D80919C048823C9F515FF1DC0A6
:101460001B82CE0103960E942C0D8C8385EC94E0A8
:10147000BE016C5F7F4F0E942108182F1D82CE0194
:1014800005960E942C0D8E8385EC94E0BE016A5F68
:101490007F4F0E942108182B12C017FF0FC01F8218
:1014A000CE0107960E942C0D888785EC94E0BE0142
:1014B000685F7F4F0E942108182F01C010E080E074
:1014C0000E94F40C112351F00E948C0907C017FFF1
:1014D00002C00E94D40980E00E94F40C28960FB646
:1014E000F894DEBF0FBECDBFCF91DF911F9108955D
:1014F000FF920F931F93DF93CF93CDB7DEB7AA97D9
:101500000FB6F894DEBF0FBECDBF0DEE16E0C801DA
:1015100061E972E00E94D3100E94FA0C188A1F86BB
:10152000FF24F394F982CE010F96BE016F5F7F4FC7
:101530000E94340D60ED77E080E090E00E94231C73
:10154000C80160EB72E00E94D3101A8A198AFA82ED
:10155000CE014196BE016E5F7F4F0E94340D87E53C
:1015600090E89C8B8B8BFB82CE014396BE016D5F16
:101570007F4F0E94340D89ED92E89E8B8D8BFC820B
:10158000CE014596BE016C5F7F4F0E94340D88E10D
:1015900096EA988F8F8BFD82CE014796BE016B5FD6
:1015A0007F4F0E94340D8AE896EC9A8F898FFE82D5
:1015B000CE014996BE016A5F7F4F0E94340D80ECD8
:1015C00094E99C8F8B8FFF82CE014B96BE01695FA1
:1015D0007F4F0E94340D8CE692EC9E8F8D8FF886A3
:1015E000CE014D96BE01685F7F4F0E94340D81E8A9
:1015F0009AEC98A38F8FF986CE014F96BE01675F54
:101600007F4F0E94340D83E89AEC9AA389A3FA864F
:10161000CE018196BE01665F7F4F0E94340D8FE937
:1016200094EC9CA38BA3FB86CE018396BE01655FE1
:101630007F4F0E94340D80E090EE9EA38DA3FC8628
:10164000CE018596BE01645F7F4F0E94340D8EE00F
:1016500098EC98A78FA3FD86CE018796BE01635FA5
:101660007F4F0E94340D80E090EC9AA789A7FE86F8
:10167000CE018996BE01625F7F4F0E94340DC80182
:1016800062EE72E00E94D31080E061E17AE040E017
:1016900050E00E940513C80166EF72E00E94D3106B
:1016A000AA960FB6F894DEBF0FBECDBFCF91DF91E3
:1016B0001F910F91FF900895FF920F931F93DF9357
:1016C000CF93CDB7DEB7AD970FB6F894DEBF0FBEA0
:1016D000CDBF0DEE16E0C80161E073E00E94D310AB
:1016E0000E94FA0C198A188AFF24F394F982CE0119
:1016F0004096BE016F5F7F4F0E94340D60ED77E032
:1017000080E090E00E94231CC80160EB72E00E9420
:10171000D31088ED90E89B8B8A8BFA82CE0142969B
:10172000BE016E5F7F4F0E94340D81E092E89D8B79
:101730008C8BFB82CE014496BE016D5F7F4F0E9471
:10174000340D84E396EA9F8B8E8BFC82CE01469605
:10175000BE016C5F7F4F0E94340D87E596EC998F38
:10176000888FFD82CE014896BE016B5F7F4F0E943D
:10177000340D80EC94E99B8F8A8FFE82CE014A96CD
:10178000BE016A5F7F4F0E94340D8CE292EC9D8F08
:101790008C8FFF82CE014C96BE01695F7F4F0E9405
:1017A000340D81E89AEC9F8F8E8FF886CE014E968D
:1017B000BE01685F7F4F0E94340D84ED9EEC99A3BB
:1017C00088A3F986CE018096BE01675F7F4F0E9495
:1017D000340D87EF94EC9BA38AA3FA86CE01829600
:1017E000BE01665F7F4F0E94340D80E298E99DA3A1
:1017F0008CA3FB86CE018496BE01655F7F4F0E945D
:10180000340D86E69CEC9FA38EA3FC86CE018696C3
:10181000BE01645F7F4F0E94340D80E090EE99A777
:1018200088A7FD86CE018896BE01635F7F4F0E9428
:10183000340D80E098EC9BA78AA7FE86CE018A969D
:10184000BE01625F7F4F0E94340D80E090EC9DA747
:101850008CA7FF86CE018C96BE01615F7F4F0E94F0
:10186000340DC80162EE72E00E94D31064EF71E0A3
:1018700080E090E00E94231C80E061E17AE040E09B
:1018800050E00E940513AD960FB6F894DEBF0FBE70
:10189000CDBFCF91DF911F910F91FF90089585ECFF
:1018A00094E00E941909882321F085EC94E00E94BD
:1018B00059080895DF93CF93CDB7DEB72C970FB6B5
:1018C000F894DEBF0FBECDBFDE011296E1E3F3E078
:1018D0008BE001900D928150E1F78BE089838DE9D7
:1018E00094E0BE016E5F7F4FAE014F5F5F4F21E01E
:1018F0000E941D060E9469092C960FB6F894DEBF5F
:101900000FBECDBFCF91DF910895DF93CF93CDB7B9
:10191000DEB761970FB6F894DEBF0FBECDBFDE0114
:101920001296E1E2F3E080E101900D928150E1F73F
:1019300080E189838DE994E0BE016E5F7F4FAE0147
:101940004F5F5F4F20E00E941D060E94690961966B
:101950000FB6F894DEBF0FBECDBFCF91DF910895D3
:10196000DF93CF930F92CDB7DEB78DE994E066E1B8
:101970000E94F7048CE0898385EC94E0BE016F5FE0
:101980007F4F0E94E6070F90CF91DF910895CF938C
:10199000DF93CDEED6E0CE0140E052EC61E070E0A6
:1019A0000E94DF0ECE016CE373E00E94D3108EE83C
:1019B00095E00E943B04CE0164E573E00E94D310E1
:1019C000DF91CF9108958EE895E00E940A04089572
:1019D0000E94541C0E94C70C0E94E30CFDCF8EE8AD
:1019E00095E00E94CB010895882311F02A9808956C
:1019F0002A9A089580E00E94F40C229A8AE061E01D
:101A00000E94E01C8AE061E00E94BC1C8BE061E067
:101A10000E94BC1C8CE060E00E94BC1C8DE061E078
:101A20000E94BC1C80E58CBD82E060E00E94BC1C72
:101A300082E061E00E94E01C8DB581608DBD8CB5B7
:101A40008D7F8CBD8CB581608CBD8CB5877F8CBD46
:101A50008CB58B7F8CBD0895FC0180818EBD0DB44B
:101A600007FEFDCF8EB50895CF92DF92EF92FF92E1
:101A70000F931F93DF93CF9300D0CDB7DEB76C01E8
:101A80007B01FB018081882319F081E00E94F40C26
:101A9000F60181818983CE0101960E942C0D182FB9
:101AA00000E0F60180818A83CE0102960E942C0D0F
:101AB000C82EDD24C02AD12AF7018081882319F09D
:101AC00080E00E94F40CC6010F900F90CF91DF913F
:101AD0001F910F91FF90EF90DF90CF900895FC0140
:101AE00084859585FC01E05CFF4F208131818E5B10
:101AF0009F4FFC0180819181281B390B2F7330701F
:101B0000C9010895FC0184859585FC01E05CFF4FC7
:101B100040815181FC01EE5BFF4F208131814217F2
:101B2000530741F00190F081E02DE80FF91F20816B
:101B300030E002C02FEF3FEFC9010895FC0184851A
:101B40009585FC01E05CFF4F40815181FC01EE5B1B
:101B5000FF4F208131814217530771F0A081B1817D
:101B6000A80FB91F2C918081918101968F7390707D
:101B70009183808330E002C02FEF3FEFC9010895C9
:101B8000DC011E968D919C911F97FC01E05CFF4F3C
:101B90008E5B9F4F40815181DC012D913C911197CB
:101BA00042175307B9F708951F93FC01162F268596
:101BB0003785D901A05CBF4F8D919C91019660E45F
:101BC00070E00E943224D901AE5BBF4F4D915C9111
:101BD000119784179507D1F3D901A05CBF4F0D90E1
:101BE000BC91A02DA20FB31F1C93A685B785A05C46
:101BF000BF4F11969C938E93A689B7892C9181E053
:101C000090E0058C02C0880F991F0A94E2F7282BF8
:101C10002C9381E090E01F910895FB01E05CFF4F61
:101C2000208131812F5F3F4F2F733070DB01AE5B1E
:101C3000BF4F4D915C9111972417350739F0A08162
:101C4000B181A60FB71F8C93318320830895089527
:101C50001F920F920FB60F9211242F933F934F9321
:101C60005F936F937F938F939F93AF93BF93EF9304
:101C7000FF938091C60065E676E00E940D0EFF910D
:101C8000EF91BF91AF919F918F917F916F915F91F4
:101C90004F913F912F910F900FBE0F901F9018956D
:101CA0008DEE96E00E946F0D009711F00E94270EB6
:101CB00008951F920F920FB60F9211242F933F9306
:101CC0005F936F937F938F939F93AF93BF93EF93A4
:101CD000FF932091E9063091EA068091EB069091FE
:101CE000EC062817390731F48091C1008F7D80936D
:101CF000C10016C0E091EB06F091EC06E755F94FF4
:101D000020818091EB069091EC06019660E470E0F2
:101D10000E9432249093EC068093EB062093C60039
:101D2000FF91EF91BF91AF919F918F917F916F91B3
:101D30005F913F912F910F900FBE0F901F901895BC
:101D40008F92AF92BF92CF92DF92EF92FF920F935A
:101D50001F93DF93CF93CDB7DEB7FC0113821282BE
:101D600088EE93E0A0E0B0E084839583A683B783F8
:101D700086E693E0918380837587648757874687DB
:101D8000318B208B138B028BF58AE48AD78AC68A23
:101D9000B18EA08E828E8E85838F8F85848F888969
:101DA000858F8989868FCF91DF911F910F91FF9049
:101DB000EF90DF90CF90BF90AF908F900895DF921B
:101DC000EF92FF920F931F93CF93DF93EC017A0171
:101DD0008B01DD24D394403081EE580780E0680702
:101DE00080E0780749F4DD24EC89FD89108260E801
:101DF00074E88EE190E00FC0EC89FD8981E090E00D
:101E00000E8C02C0880F991F0A94E2F7808360E06D
:101E100079E08DE390E0A80197010E9445242150CC
:101E2000304040405040569547953795279580E182
:101E30002030380710F0DD20B1F6E889F9893083C9
:101E4000EA89FB892083EE89FF89408181E090E067
:101E50009C010A8C02C0220F331F0A94E2F7422B26
:101E60004083EE89FF8940819C010B8C02C0220FC8
:101E7000331F0A94E2F7422B4083EE89FF894081A9
:101E80009C010C8C02C0220F331F0A94E2F7422BF4
:101E90004083EE89FF8920810D8C02C0880F991F35
:101EA0000A94E2F7809582238083DF91CF911F917E
:101EB0000F91FF90EF90DF900895CF93DF93FC0197
:101EC00086859785DC01A05CBF4F8E5B9F4F4D914F
:101ED0005C911197EC012881398142175307B9F7BA
:101EE000A689B7894C9181E090E09C01028C02C0E8
:101EF000220F331F0A94E2F7209524232C93A689FE
:101F0000B7894C919C01038C02C0220F331F0A94A5
:101F1000E2F7209524232C93A689B7894C919C0144
:101F2000048C02C0220F331F0A94E2F72095242369
:101F30002C93A689B7892C91058C02C0880F991F14
:101F40000A94E2F7809582238C9384859585FC0121
:101F5000EE5BFF4F20813181805C9F4FFC0131831C
:101F60002083DF91CF9108951092F0061092EF0632
:101F700088EE93E0A0E0B0E08093F1069093F20643
:101F8000A093F306B093F406EFEEF6E086E693E056
:101F90009293829385E696E09587848789EA96E016
:101FA0009787868785EC90E0918B808B84EC90E01E
:101FB000938B828B80EC90E0958B848B81EC90E00E
:101FC000978B868B86EC90E0918F808F84E0828F58
:101FD00083E0838F87E0848F85E0858F81E0868F23
:101FE0000895CF92DF92EF92FF920F931F93CF93BA
:101FF000DF936C017B018A01C0E0D0E00FC0D70104
:102000006D917D01D601ED91FC910190F081E02D63
:10201000C6010995C80FD91F0150104001151105BF
:1020200071F7CE01DF91CF911F910F91FF90EF904B
:10203000DF90CF900895DB010D900020E9F7AD010E
:1020400041505040461B570BDC01ED91FC91028042
:10205000F381E02D09950895EF92FF920F931F935E
:10206000CF93DF937C01062F172FC0E0D0E0F8015B
:102070000F5F1F4F6491662351F0F701A081B1817A
:10208000ED91FC91C7010995C80FD91FF0CFCE0182
:10209000DF91CF911F910F91FF90EF900895AF9234
:1020A000BF92CF92DF92EF92FF920F931F93CF9345
:1020B000DF937C016B01C0E0D0E000E010E010C0D5
:1020C000D701ED91FC91A080B180C601BE010E94B4
:1020D0006F18682FC701F5010995080F191F219680
:1020E000F60184819581C817D90750F3C801DF91A3
:1020F000CF911F910F91FF90EF90DF90CF90BF9005
:10210000AF9008950E941B100895DC01ED91FC91A1
:102110000190F081E02D099508959C01CB01DB0130
:10212000ED91FC910190F081E02DB90109950895A0
:102130000F931F93CF93DF93EC016DE00E94851006
:102140008C01CE016AE00E948510080F191FC8019A
:10215000DF91CF911F910F9108950F931F93CF930C
:10216000DF93EC010E942C108C01CE010E9498108C
:10217000080F191FC801DF91CF911F910F9108958A
:102180000F931F93CF93DF93EC010E944F108C01AC
:10219000CE010E949810080F191FC801DF91CF913E
:1021A0001F910F9108950F931F93CF93DF93EC012D
:1021B0000E941B108C01CE010E949810080F191F5D
:1021C000C801DF91CF911F910F9108950F931F9335
:1021D000CF93DF93EC010E9485108C01CE010E9409
:1021E0009810080F191FC801DF91CF911F910F910F
:1021F00008950F931F93CF93DF93EC010E948D10EE
:102200008C01CE010E949810080F191FC801DF91A0
:10221000CF911F910F9108958F929F92AF92BF928D
:10222000CF92DF92EF92FF920F931F93DF93CF93A2
:10223000CDB7DEB7A1970FB6F894DEBF0FBECDBF06
:102240006C01042FE52FCB01122F19A2223008F4C4
:102250001AE021E2E22EF12CEC0EFD1E812E9924D3
:10226000AA24BB2403C0022FE32FCA01602F7E2FB4
:10227000A50194010E944524129F802D1124081B62
:102280000894E108F1080A3010F4005D01C0095C0F
:10229000F7010083211531054105510521F7C601DC
:1022A000B7010E941B10A1960FB6F894DEBF0FBEB7
:1022B000CDBFCF91DF911F910F91FF90EF90DF90F5
:1022C000CF90BF90AF909F908F90089521153105CA
:1022D00049F4DC01ED91FC910190F081E02D642F37
:1022E000099508950E940C1108950F931F93CF93A1
:1022F000DF93EC010E9466118C01CE010E949810C0
:10230000080F191FC801DF91CF911F910F910895F8
:102310009A01AB0160E070E00E94661108950F938E
:102320001F93CF93DF93EC019A01AB0160E070E063
:102330000E9466118C01CE010E949810080F191F8F
:10234000C801DF91CF911F910F9108959A01462FF7
:1023500050E060E070E00E94661108950F931F93B3
:10236000CF93DF93EC019A01462F50E060E070E0DC
:102370000E9466118C01CE010E949810080F191F4F
:10238000C801DF91CF911F910F910895CF92DF92F5
:10239000EF92FF920F931F93CF93DF93EC017A019B
:1023A0008B012115310541F4E881F9810190F0811B
:1023B000E02D642F09951AC02A303105A9F477FF62
:1023C00012C06DE20E9485106C0144275527BA01A6
:1023D0004E195F09600B710BCE012AE00E940C11AF
:1023E000C80ED91E04C02AE00E940C116C01C6015F
:1023F000DF91CF911F910F91FF90EF90DF90CF90E1
:1024000008950F931F93CF93DF93EC010E94C611A1
:102410008C01CE010E949810080F191FC801DF918E
:10242000CF911F910F9108959A01FB01AF0166278B
:1024300057FD6095762F0E94C61108950F931F9344
:10244000CF93DF93EC019A01CB01AC01662757FDD6
:102450006095762FCE010E94C6118C01CE010E949C
:102460009810080F191FC801DF91CF911F910F918C
:1024700008956F927F929F92AF92BF92CF92DF9218
:10248000EF92FF920F931F93CF93DF933C017A015A
:102490008B01C22ECB01BA0120E030E0A9010E94DD
:1024A000EE2087FF0AC0C3016DE20E948510EC0197
:1024B00017FB109517F9109502C0C0E0D0E0DD249D
:1024C00050E040E030E02FE311C0DA01F9016B2F5A
:1024D000742F8F2F922F20E030E040E251E40E94D1
:1024E0001020562F472F382F292FD394DC1468F350
:1024F000C801B701DA01F9012B2F342F4F2F5E2FBE
:102500000E94B81E5B01F82E992E7B2D0E94421D61
:10251000162FD72EE82E092F0E94D0219B01AC0147
:102520006A2D7B2D8F2D992D0E94E51E962EA72EAC
:10253000B82EF92EC301412F5D2D6E2D702F2AE08C
:1025400030E00E946611C80FD91FCC20B9F1C30139
:1025500062E873E00E941B10C80FD91F2FC0692DBD
:102560007A2D8B2D9F2D20E030E040E251E40E9437
:10257000161FD62EB72EA82E992E0E947E217B01E3
:102580000027F7FC0095102FC301B801A7012AE02E
:1025900030E00E94C611C80FD91FC801B7010E94C0
:1025A0001E219B01AC016D2D7B2D8A2D992D0E9442
:1025B000E51E962EA72EB82EF92ECA94CC2079F6B9
:1025C000CE01DF91CF911F910F91FF90EF90DF909F
:1025D000CF90BF90AF909F907F906F9008950E9492
:1025E000391208950F931F93CF93DF93EC010E944C
:1025F00039128C01CE010E949810080F191FC801D2
:10260000DF91CF911F910F9108958230E8F4E82F68
:10261000F0E0EE0FFF1FE45FF84F718360838130BD
:1026200041F0809169008C7F842B80936900E89A47
:10263000089580916900440F551F440F551F837FF3
:10264000842B80936900E99A0895823068F4813080
:1026500011F0E89801C0E998E82FF0E0EE0FFF1FB5
:10266000E45FF84F1182108208951F920F920FB607
:102670000F9211242F933F934F935F936F937F9308
:102680008F939F93AF93BF93EF93FF9380910C072A
:1026900090910D07009729F0E0910C07F0910D073C
:1026A0000995FF91EF91BF91AF919F918F917F918C
:1026B0006F915F914F913F912F910F900FBE0F90AF
:1026C0001F9018951F920F920FB60F9211242F93FF
:1026D0003F934F935F936F937F938F939F93AF93AA
:1026E000BF93EF93FF9380910E0790910F07009790
:1026F00029F0E0910E07F0910F070995FF91EF91F6
:10270000BF91AF919F918F917F916F915F914F9109
:102710003F912F910F900FBE0F901F901895FC01C5
:10272000808191810E9452250895CF93DF93EC011F
:1027300088819981009711F00E9452251982188290
:102740001D821C821B821A82DF91CF9108950F9304
:102750001F93CF93DF93EC018B016F5F7F4F8881D5
:1027600099810E94EB25009731F0998388831B8320
:102770000A8381E001C080E0DF91CF911F910F912A
:102780000895CF93DF93EC0188819981009729F018
:102790008A819B818617970778F4CE010E94A71340
:1027A000882341F08C819D81009731F4E881F98183
:1027B000108202C080E001C081E0DF91CF910895D6
:1027C000EF92FF920F931F93CF93DF93EC017B0166
:1027D0008A01BA010E94C113882321F4CE010E940C
:1027E000951307C01D830C8388819981B7010E94CE
:1027F0002427CE01DF91CF911F910F91FF90EF9091
:102800000895CF93DF93FC0111821082138212820C
:102810001582148216826115710559F0EB01099039
:102820000020E9F7AE0141505040461B570B0E9473
:10283000E013DF91CF910895EF92FF92CF93DF9352
:10284000EC01FB018617970761F0608171816115CA
:10285000710529F0448155810E94E01302C00E9455
:102860009513CE01DF91CF91FF90EF900895FC0179
:1028700011821082138212821582148216820E94A3
:102880001C1408950F931F938C016115710561F05D
:10289000DB010D900020E9F7AD0141505040461B8F
:1028A000570B0E94E01302C00E949513C8011F91AC
:1028B0000F910895EF92FF920F931F93DF93CF93A1
:1028C000CDB7DEB7A1970FB6F894DEBF0FBECDBF70
:1028D0007C01CB01BA01F7011182108213821282AE
:1028E0001582148216828E010F5F1F4FA80130E0FF
:1028F0000E94D727C701B8010E944214A1960FB6C3
:10290000F894DEBF0FBECDBFCF91DF911F910F9125
:10291000FF90EF900895EF92FF920F931F93DF9334
:10292000CF93CDB7DEB7A2970FB6F894DEBF0FBE38
:10293000CDBF7C01CB01BA01F70111821082138255
:1029400012821582148216828E010F5F1F4FA8011A
:1029500030E00E948E27C701B8010E944214A2965F
:102960000FB6F894DEBF0FBECDBFCF91DF911F91A0
:102970000F91FF90EF900895EF92FF920F931F93A6
:10298000DF93CF93CDB7DEB761970FB6F894DEBF74
:102990000FBECDBF7C01CB01F701118210821382E3
:1029A00012821582148216828E010F5F1F4FB801AA
:1029B00050E00E94FC27C701B8010E9442146196B2
:1029C0000FB6F894DEBF0FBECDBFCF91DF911F9140
:1029D0000F91FF90EF900895EF92FF920F931F9346
:1029E000DF93CF93CDB7DEB762970FB6F894DEBF13
:1029F0000FBECDBF7C01CB01F70111821082138283
:102A000012821582148216828E010F5F1F4FB80149
:102A100050E00E946D27C701B8010E9442146296DF
:102A20000FB6F894DEBF0FBECDBFCF91DF911F91DF
:102A30000F91FF90EF900895EF92FF920F931F93E5
:102A4000DF93CF93CDB7DEB729970FB6F894DEBFEB
:102A50000FBECDBF7C01862FF70111821082138239
:102A6000128215821482168290E08E010F5F1F4F32
:102A7000B80150E00E94FC27C701B8010E9442142F
:102A800029960FB6F894DEBF0FBECDBFCF91DF9170
:102A90001F910F91FF90EF900895DF93CF9300D097
:102AA000CDB7DEB7FC01118210821382128215822B
:102AB0001482168269831A82BE016F5F7F4F0E9463
:102AC00042140F900F90CF91DF910895EF92FF92F3
:102AD0000F931F93CF93DF93EC017B010C811D813A
:102AE00061157105B9F04115510591F0040F151FDD
:102AF000B8010E94C113882369F0288139818C8133
:102B00009D81820F931FB7010E9424271D830C8390
:102B100081E001C080E0DF91CF911F910F91FF9084
:102B2000EF900895FB0160817181448155810E947D
:102B3000661508956115710561F0DB010D900020A7
:102B4000E9F7AD0141505040461B570B0E946615F6
:102B5000089580E00895DF93CF9300D0CDB7DEB71E
:102B600069831A82BE016F5F7F4F41E050E00E948F
:102B700066150F900F90CF91DF910895EF92FF921D
:102B80000F931F93DF93CF9300D000D0CDB7DEB764
:102B90007C01862F90E08E010F5F1F4FB8014AE045
:102BA00050E00E946D27F80101900020E9F7AF0185
:102BB00041505040401B510BC701B8010E9466159F
:102BC0000F900F900F900F90CF91DF911F910F9169
:102BD000FF90EF900895EF92FF920F931F93DF9372
:102BE000CF93CDB7DEB727970FB6F894DEBF0FBEF1
:102BF000CDBF7C01CB018E010F5F1F4FB8014AE0B2
:102C000050E00E946D27F80101900020E9F7AF0124
:102C100041505040401B510BC701B8010E9466153E
:102C200027960FB6F894DEBF0FBECDBFCF91DF91D0
:102C30001F910F91FF90EF900895EF92FF920F93E5
:102C40001F93DF93CF9300D000D000D0CDB7DEB775
:102C50007C01CB018E010F5F1F4FB8014AE050E0AD
:102C60000E94FC27F80101900020E9F7AF014150D4
:102C70005040401B510BC701B8010E9466152696B3
:102C80000FB6F894DEBF0FBECDBFCF91DF911F917D
:102C90000F91FF90EF900895EF92FF920F931F9383
:102CA000DF93CF93CDB7DEB72C970FB6F894DEBF86
:102CB0000FBECDBF7C01CB01BA018E010F5F1F4F4C
:102CC000A8012AE030E00E948E27F8010190002040
:102CD000E9F7AF0141505040401B510BC701B8010B
:102CE0000E9466152C960FB6F894DEBF0FBECDBFBE
:102CF000CF91DF911F910F91FF90EF900895EF9288
:102D0000FF920F931F93DF93CF93CDB7DEB72B972F
:102D10000FB6F894DEBF0FBECDBF7C01CB01BA0168
:102D20008E010F5F1F4FA8012AE030E00E94D727D5
:102D3000F80101900020E9F7AF0141505040401BDD
:102D4000510BC701B8010E9466152B960FB6F89477
:102D5000DEBF0FBECDBFCF91DF911F910F91FF90CE
:102D6000EF9008950F931F938C01FB016081718197
:102D7000448155810E946615882319F4C8010E9478
:102D80009513C8011F910F9108950F931F938C0104
:102D90006115710569F0DB010D900020E9F7AD01C7
:102DA00041505040461B570B0E946615882319F46A
:102DB000C8010E949513C8011F910F9108950F93A8
:102DC0001F938C010E94AB15882319F4C8010E943F
:102DD0009513C8011F910F9108950F931F938C01B4
:102DE0000E94BE15882319F4C8010E949513C801DA
:102DF0001F910F9108950F931F938C010E94EB1563
:102E0000882319F4C8010E949513C8011F910F91DE
:102E100008950F931F938C010E941D16882319F4A7
:102E2000C8010E949513C8011F910F9108950F9337
:102E30001F938C010E944C16882319F4C8010E942C
:102E40009513C8011F910F9108950F931F938C0143
:102E50000E947F16882319F4C8010E949513C801A7
:102E60001F910F910895CF93DF93FC01DB018081C7
:102E70009181009731F06D917C91119761157105E9
:102E8000E9F4CD91DC911197209769F014962D917A
:102E90003C9115972115310531F0288130E03095AE
:102EA00021953F4F12C0009771F024813581211583
:102EB000310549F0FC01208130E007C00E941B274A
:102EC000282F392F02C020E030E0C901DF91CF91D7
:102ED0000895FC0144815581FB012481358142170D
:102EE000530729F40E94331721E0009709F020E0EE
:102EF000822F0895FC0184819581009741F461152A
:102F0000710519F081E0FB0109C081E0089501908D
:102F1000F081E02D6115710531F481E090819923F4
:102F200059F080E00895CF010E941B279C0181E0A9
:102F30002115310509F080E008950E943317892F8B
:102F4000881F8827881F08950E94331721E01816CC
:102F500019060CF020E0822F08950E94331721E01B
:102F6000181619060CF420E0822F08950E943317DA
:102F7000892F8095881F8827881F0895EF92FF92D8
:102F80000F931F93CF93DF93FC01DB018617970705
:102F900009F18481958114962D913C9115978217A2
:102FA0009307D1F40097B1F000811181CD91DC91AC
:102FB00011970BC090E00E94E5267C01899190E07A
:102FC0000E94E526E816F90639F4F80181918F018F
:102FD000882381F781E001C080E0DF91CF911F91CC
:102FE0000F91FF90EF900895FC01DB01CA01149648
:102FF0004D915C91159724813581241B350B281741
:103000003907A0F0208131812115310579F06D91CA
:103010007C9111976115710559F0820F931F0E94E1
:103020002B279C0181E02115310519F080E00895DE
:1030300080E00895FC0144815581FB0124813581A4
:103040004217530728F040E050E00E94F41708951B
:1030500080E00895FC01DB018481958114964D91F7
:103060005C91159784179507B0F020813181211567
:10307000310589F06D917C9111976115710569F0A9
:10308000841B950B820F931F0E941B279C0181E0DC
:103090002115310519F080E0089580E00895FC01C4
:1030A000848195816817790730F40190F081E02DD3
:1030B000E60FF71F40830895FC018481958168170E
:1030C000790720F480819181009729F410921007EC
:1030D00060E177E002C0680F791FCB010895FC0121
:1030E000848195816817790748F4808191810097E0
:1030F00039F0680F791FFB018081089580E0089501
:1031000080E008950E946F1808950F931F93CF9346
:10311000DF93FC018B0141155105F1F0611571053B
:10312000D9F0C481D5812C173D0718F0FB0110821E
:1031300013C041505040C21BD30B4C175D0708F41D
:10314000EA0160817181620F731FC801AE010E94A4
:103150003927C00FD11F1882DF91CF911F910F9196
:103160000895CF93DF93FC01CA0124813581421772
:10317000530768F4C081D1818C0F9D1F70E00E94BD
:103180001027009721F09C012C1B3D0B02C02FEF54
:103190003FEFC901DF91CF91089540E050E00E94D8
:1031A000B1180895CF93DF93FC01CA0124813581C2
:1031B0004217530778F4C081D181FB01608171818E
:1031C0008C0F9D1F0E945327009721F09C012C1B00
:1031D0003D0B02C02FEF3FEFC901DF91CF91089562
:1031E00040E050E00E94D2180895DF92EF92FF92E3
:1031F0000F931F93CF93DF93EC018C819D81481730
:103200005907E8F47A010894E11CF11CE881F9817E
:10321000EE0DFF1DD080108208811981C80170E079
:103220000E9448270E0D1F1DF801D082009739F02B
:1032300028813981AC01421B530B9A0102C02FEF48
:103240003FEFC901DF91CF911F910F91FF90EF9058
:10325000DF900895FC0144815581415050400E9407
:10326000F5180895AF92BF92CF92DF92EF92FF923E
:103270000F931F93CF93DF93FC016B018A01DB0156
:1032800014962D913C9115972115310551F18481AA
:103290009581009731F18217930718F14817590764
:1032A00018F08C0101501040E080F180C701CFEF91
:1032B000DFEF5701A00EB11E10C0F60160817181D1
:1032C0000E945327009779F09C012E193F0902179D
:1032D000130708F49E010196E901A816B90668F7DC
:1032E00002C0CFEFDFEFCE01DF91CF911F910F91A1
:1032F000FF90EF90DF90CF90BF90AF900895FC01CA
:1033000044815581FB0124813581421B530B0E946E
:1033100032190895AF92BF92CF92DF92EF92FF924F
:103320000F931F93CF93DF93F82EE92E6B018A0141
:10333000E9012417350748F4342F212F8E01C901E4
:10334000A92EE5015E01B22EE5018F2D9E2D6CE8C0
:1033500073E00E940114D60114968D919C911597EB
:1033600080179107D8F08C179D0708F4EC01D6015F
:10337000ED91FC911197EC0FFD1FB08010826D91C3
:103380007C91600F711F8F2D9E2D0E944214D601DB
:10339000ED91FC911197EC0FFD1FB0828F2D9E2DAA
:1033A000DF91CF911F910F91FF90EF90DF90CF9021
:1033B000BF90AF900895CF93DF93EC01FB01248180
:1033C00035810E948A19CE01DF91CF910895DC01E9
:1033D000ED91FC911197309729F40895861709F41F
:1033E0004083319680818823C9F708952F923F92B8
:1033F0004F925F926F927F928F929F92AF92BF9205
:10340000CF92DF92EF92FF920F931F93CF93DF93B0
:103410007C012B016A01DC0114966D907C9015975C
:103420006114710409F4D9C0FB0184809580811472
:10343000910409F4D2C0DA011496AD90BC901597AE
:10344000A818B908FC0100811181A114B104F1F49C
:1034500013C0D6016C9111967C91119714964D91E1
:103460005C911597CE010E94F526D60114960D9118
:103470001C9115970C0F1D1FF20160817181C8010D
:103480000E945327EC01009721F7A7C0B7FC02C0A8
:10349000E30142C048012DC0E301C01BD10BC401B0
:1034A000B801AE010E94F526C80DD91DD6016C9158
:1034B00011967C91119714964D915C911597CE01C0
:1034C0000E94F526D60114968D909C9015978C0E2F
:1034D0009D1EF20104811581060D171DD70114965A
:1034E0008D919C9115978A0D9B1D15969C938E939B
:1034F0001497F20160817181C8010E9453273C0139
:10350000009751F6C401B8010E94242766C08C01BF
:10351000080D191DCA0DDB1DD2016D917C91C801EA
:103520000E945327009799F7C615D70509F455C08F
:10353000F701828193818C179D0708F045C0C70170
:10354000BE010E94A713882309F447C03DC0C701EC
:10355000B201A9010E943219EC0197FD3EC0D701CA
:103560006D917C911197F201848195818C0F9D1F43
:10357000680F791F14964D915C911597481B590B54
:10358000CB018A0D9B1D0E94FE26D70114968D91BA
:103590009C9115978A0D9B1D15969C938E9314975D
:1035A000ED91FC911197E80FF91F10822D913C913C
:1035B0002C0F3D1FF6016081718144815581C90145
:1035C0000E94F5269E0105C0D70114962D913C91CD
:1035D00015972150304037FFBACFDF91CF911F911F
:1035E0000F91FF90EF90DF90CF90BF90AF909F90A2
:1035F0008F907F906F905F904F903F902F900895A5
:10360000CF93DF93FC01C081D181209729F407C0BB
:1036100090E00E94E526899388818823C9F7DF918D
:10362000CF910895CF93DF93FC01C081D181209782
:1036300029F407C090E00E94ED26899388818823B1
:10364000C9F7DF91CF910895AF92BF92CF92DF92E9
:10365000EF92FF920F931F93CF93DF936C01DC01E6
:10366000ED90FC901197E114F10409F43FC0149619
:10367000AD90BC901597A114B104C1F18701E80188
:1036800088810F5F1F4F90E00E94DD260097B9F7F9
:103690008501015010400E0D1F1DF801808190E042
:1036A0000E94DD26009731F00C171D0718F001501D
:1036B0001040F3CF0F5F1F4F0C1B1D0BD60115964B
:1036C0001C930E931497EC16FD0628F4C701BE0157
:1036D000A8010E94F526D601ED91FC911197149650
:1036E0008D919C911597E80FF91F1082DF91CF9172
:1036F0001F910F91FF90EF90DF90CF90BF90AF9010
:103700000895FC0180819181009729F00E94B626DE
:103710009B01AC0103C020E030E0A901B901CA015E
:1037200008950E94B82408950E945225089521E02A
:1037300030E0FC018081882311F020E030E0C901F5
:10374000089521E0FC0120830895089508951F92B3
:103750000F920FB60F9211242F933F938F939F9345
:10376000AF93BF938091150790911607A09117070B
:10377000B0911807309119070196A11DB11D232F93
:103780002D5F2D3720F02D570196A11DB11D2093DF
:1037900019078093150790931607A0931707B09306
:1037A00018078091110790911207A0911307B0910B
:1037B00014070196A11DB11D809311079093120764
:1037C000A0931307B0931407BF91AF919F918F916E
:1037D0003F912F910F900FBE0F901F9018958FB7AC
:1037E000F8942091150730911607409117075091D2
:1037F00018078FBFB901CA0108959FB7F8942091A7
:10380000110730911207409113075091140786B5A4
:10381000A89B06C08F3F21F02F5F3F4F4F4F5F4F58
:103820009FBF542F432F322F2227280F311D411DB8
:10383000511D82E0220F331F441F551F8A95D1F777
:10384000B901CA010895EF92FF920F931F93CF938E
:10385000DF937B018C010E94FD1BEB010FC00E94D6
:10386000FD1B6C1B7D0B83E0683E780738F00894E5
:10387000E108F10801091109C851DC4FE114F10414
:103880000105110561F7DF91CF911F910F91FF9015
:10389000EF900895019739F0880F991F880F991FAD
:1038A00002970197F1F70895789484B5826084BDFA
:1038B00084B5816084BD85B5826085BD85B5816034
:1038C00085BDEEE6F0E0808181608083E1E8F0E094
:1038D0001082808182608083808181608083E0E8C3
:1038E000F0E0808181608083E1EBF0E080818460A2
:1038F0008083E0EBF0E0808181608083EAE7F0E0A4
:103900008081846080838081826080838081816007
:1039100080838081806880831092C1000895833005
:1039200071F0843028F48130A1F0823021F514C088
:103930008630B1F08730D1F08430E9F404C0809152
:1039400080008F7703C0809180008F7D80938000FE
:10395000089584B58F7702C084B58F7D84BD0895A6
:103960008091B0008F778093B00008958091B0006F
:103970008F7D8093B000089590E0FC01E656FF4FE4
:103980002491FC01EA57FF4FE491EE23C1F0F0E0EF
:10399000EE0FFF1FE859FF4F85919491DC016623DC
:1039A00041F49FB7F8948C91209582238C939FBF0C
:1039B00008959FB7F8948C91822B8C939FBF0895A4
:1039C0000F931F93DF93CF930F92CDB7DEB7282FBE
:1039D00030E0F901E255FF4F8491F901E656FF4FBF
:1039E00014912A573F4FF90104910023D9F08823FD
:1039F00021F069830E948F1C6981E02FF0E0EE0FB7
:103A0000FF1FEE58FF4F85919491DC019FB7F8940A
:103A1000662321F48C911095812302C08C91812B17
:103A20008C939FBF0F90CF91DF911F910F910895BD
:103A30000F931F93282F30E0F901E255FF4F849137
:103A4000F901E656FF4F04912A573F4FF9011491AF
:103A5000112391F0882311F00E948F1CE12FF0E0D8
:103A6000EE0FFF1FE458FF4F85919491DC018C917C
:103A7000802321E030E011F420E030E0C9011F9103
:103A80000F910895EF92FF920F931F937B018C018A
:103A900020E030E040E05FE40E94BE2087FD11C0DE
:103AA000C801B70120E030E040E05FE40E94E51E7D
:103AB0000E947E219B01AC01205030404040504884
:103AC00006C0C801B7010E947E219B01AC01B9016B
:103AD000CA011F910F91FF90EF900895A0E0B0E010
:103AE000E4E7FDE10C947F24FC01EA01808182304F
:103AF00008F438C1DB019C91923008F430C1843065
:103B000059F4943009F02EC1918111968C9111973E
:103B1000981709F021C126C1943009F420C19230D0
:103B2000B1F4823009F01EC1CA01AF0128E0DA0108
:103B30000D90AD01DC010D92CD012150C1F7DB01EB
:103B400011968C9111979181892389830AC18230C2
:103B500009F405C1C280D380DB0112966D907C9080
:103B6000139724813581468157811496ED90FD90FD
:103B70000D911C911797C601861997095C0197FF53
:103B800004C0AA24BB24A81AB90AB0E2AB16B10437
:103B90000CF061C0181619066CF5370148010A2CA3
:103BA00004C096948794779467940A94D2F781E03E
:103BB00090E0A0E0B0E00A2C04C0880F991FAA1F73
:103BC000BB1F0A94D2F70197A109B1098E219F2149
:103BD000A023B123EE24FF248701E3940097A105DD
:103BE000B10519F4EE24FF248701E628F7280829F7
:103BF00019293CC00097D1F1CA0CDB1C39014A01DC
:103C00000A2C04C096948794779467940A94D2F708
:103C100081E090E0A0E0B0E00A2C04C0880F991F7A
:103C2000AA1FBB1F0A94D2F70197A109B1098223E9
:103C30009323A423B52321E030E040E050E0009737
:103C4000A105B10519F420E030E0A90126293729A2
:103C5000482959290BC06C147D0424F4EE24FF2458
:103C6000870104C0630120E030E0A9018181FB01EC
:103C70009181891709F445C0882349F0D801C7010B
:103C8000821B930BA40BB50B9C01AD0104C02E1934
:103C90003F09400B510B57FD04C01982DB82CA82D9
:103CA0000BC081E08983DB82CA82509540953095B4
:103CB00021953F4F4F4F5F4F2C833D834E835F8352
:103CC0000DC0880F991FAA1FBB1F8C839D83AE83D5
:103CD000BF838A819B8101979B838A838C819D818D
:103CE000AE81BF819C01AD01215030404040504029
:103CF0002F3FEFEF3E07EFEF4E07EFE35E0708F3CE
:103D00000BC08983DB82CA822E0D3F1D401F511FCD
:103D10002C833D834E835F8383E088832C813D81A8
:103D20004E815F8157FF1DC0DA01C901817090701B
:103D3000A070B0705695479537952795822B932B99
:103D4000A42BB52B8C839D83AE83BF838A819B81FB
:103D500001969B838A8305C0EDE8F3E003C0FB0175
:103D600001C0FE01CF01CDB7DEB7EEE00C949B247D
:103D7000A0E2B0E0EEEBFEE10C94872469837A8345
:103D80008B839C832D833E834F83588789E0E82E65
:103D9000F12CEC0EFD1ECE010196B7010E9470239E
:103DA0008E010F5E1F4FCE010596B8010E94702351
:103DB000C701B801AE01475E5F4F0E946E1D0E94B1
:103DC000A222A096E6E00C94A324A0E2B0E0EBEEE1
:103DD000FEE10C94872469837A838B839C832D83F3
:103DE0003E834F8358878E01075F1F4FCE01019698
:103DF000B8010E94702391E1E92EF12CEC0EFD1E1A
:103E0000CE010596B7010E9470238A8991E0892727
:103E10008A8BC801B701AE01475E5F4F0E946E1DDD
:103E20000E94A222A096E6E00C94A324A0E2B0E0B7
:103E3000ECE1FFE10C947B2469837A838B839C8380
:103E40002D833E834F835887CE010196BE01675F65
:103E50007F4F0E947023CE010596BE016F5E7F4F9B
:103E60000E9470239985923078F089898230C0F061
:103E7000943019F4823041F4CBC0843019F492307C
:103E800079F4C6C0923051F481E02A859A892917C5
:103E900009F480E08A87CE010996BCC0823051F4D3
:103EA00081E02A859A89291709F480E08A8BCE015E
:103EB0004196B0C06D847E848F849888ED88FE889A
:103EC0000F89188DE0E2F0E080E090E0DC01AA24A8
:103ED000BB24650120E030E0A901B301617070707E
:103EE00061157105D1F02E0D3F1D401F511F1501A9
:103EF0002601280E391E4A1E5B1E81E090E0A0E0DC
:103F0000B0E02E153F054007510718F080E090E023
:103F1000DC01820D931DA41DB51DAA0CBB1CCC1C7D
:103F2000DD1C17FF09C061E0262E312C412C512CDD
:103F3000A228B328C428D528319749F0EE0CFF1CDD
:103F4000001F111F9694879477946794C6CF6B894E
:103F50007C89EB85FC856E0F7F1F6E5F7F4F7C8FAA
:103F60006B8F61E0EA857A89E71709F460E06A8F70
:103F70006B8D7C8D10C0FC01E170F070309729F0E2
:103F800056954795379527955068B695A795979577
:103F900087956F5F7F4FB7FDEECF0CC0880F991FDD
:103FA000AA1FBB1F57FD8160220F331F441F551FDF
:103FB000615070408030E0E09E07E0E0AE07E0E452
:103FC000BE0760F36B8F7C8F6FE7E62EF12C012D1F
:103FD000112DE822F9220A231B2360E4E616F104DE
:103FE0000105110561F487FD0AC021153105410560
:103FF000510529F0805C9F4FAF4FBF4F80788D8F68
:104000009E8FAF8FB8A383E0898FCE01499602C0FF
:104010008DE893E00E94A222A096E2E10C949724FE
:10402000A8E1B0E0E6E1F0E20C94832469837A83AE
:104030008B839C832D833E834F8358878E01075F3C
:104040001F4FCE010196B8010E94702381E1E82E36
:10405000F12CEC0EFD1ECE010596B7010E947023D7
:104060009985923008F483C08989823008F47BC036
:104070002A853A8923272A87943011F0923021F437
:10408000981709F06CC071C0843039F41D861E8603
:104090001F86188A1C861B866AC0823019F484E049
:1040A000898765C08B859C852B893C89821B930BF6
:1040B0009C878B872D853E854F855889ED88FE88A6
:1040C0000F89188D2E153F054007510738F4220F30
:1040D000331F441F551F01979C878B876FE170E04A
:1040E000A12CB12CC12CA0E4DA2E80E090E0DC0100
:1040F0002E153F054007510740F08A299B29AC291E
:10410000BD292E193F09400B510BD694C794B79483
:10411000A794220F331F441F551F6150704041F771
:104120006FE7E62EF12C012D112DE822F9220A234A
:104130001B2360E4E616F1040105110561F487FD17
:104140000AC0211531054105510529F0805C9F4FBA
:10415000AF4FBF4F80788D879E87AF87B88B8E011A
:10416000075F1F4F04C0870102C00DE813E0C801BC
:104170000E94A2226896EAE00C949F24A8E1B0E095
:10418000E4ECF0E20C94872469837A838B839C832C
:104190002D833E834F8358878E01075F1F4FCE01CB
:1041A0000196B8010E94702381E1E82EF12CEC0EFB
:1041B000FD1ECE010596B7010E94702389858230CD
:1041C00040F08989823028F0C801B7010E94D923C4
:1041D00001C08FEF6896E6E00C94A324A8E1B0E05C
:1041E000E4EFF0E20C94872469837A838B839C83C9
:1041F0002D833E834F8358878E01075F1F4FCE016B
:104200000196B8010E94702381E1E82EF12CEC0E9A
:10421000FD1ECE010596B7010E947023898582306C
:1042200040F08989823028F0C801B7010E94D92363
:1042300001C081E06896E6E00C94A324A8E0B0E019
:10424000E4E2F1E20C9487247B018C0183E0898312
:10425000D801C7018827B7FD83959927AA27BB27CF
:10426000282F8A83E114F1040105110519F482E075
:10427000898337C08EE190E09C838B83222389F071
:1042800080E0E81680E0F80680E0080780E818077C
:1042900069F110950095F094E094E11CF11C011D6A
:1042A000111DED82FE820F831887C801B7010E949D
:1042B00048229C01215030401216130694F4022E1D
:1042C00004C0EE0CFF1C001F111F0A94D2F7ED82F0
:1042D000FE820F8318878EE190E0821B930B9C83F4
:1042E0008B83CE0101960E94A22204C060E070E0A0
:1042F00080E09FEC2896E6E00C94A324ACE0B0E0CC
:10430000E4E8F1E20C948B2469837A838B839C83A9
:10431000CE010196BE016B5F7F4F0E9470238D819D
:10432000823081F1823070F1843021F48E818823D3
:1043300069F10AC02F81388537FD24C06E812F3185
:1043400031053CF0662311F120E030E040E050E818
:1043500021C08EE190E0821B930B29853A854B8525
:104360005C8504C056954795379527958A95D2F771
:10437000662381F050954095309521953F4F4F4FE2
:104380005F4F08C020E030E0A90104C02FEF3FEFED
:104390004FEF5FE7B901CA012C96E2E00C94A72425
:1043A000A8E0B0E0E6EDF1E20C9485247B018C01FD
:1043B0001A82611571058105910519F482E08983DE
:1043C0005FC083E089838EE1C82ED12CDC82CB8252
:1043D000ED82FE820F831887C801B7010E94482230
:1043E000FC013197F7FF3AC0AA27BB27AE1BBF0BD2
:1043F00021E030E040E050E00A2E04C0220F331FDD
:10440000441F551F0A94D2F721503040404050407D
:104410002E213F214023512361E070E080E090E0B5
:10442000211531054105510519F460E070E0CB011B
:1044300004C016950795F794E794AA95D2F7E62A53
:10444000F72A082B192BED82FE820F8318878EE145
:1044500090E08E1B9F0B9C838B8312C0309781F062
:104460000E2E04C0EE0CFF1C001F111F0A94D2F781
:10447000ED82FE820F831887CE1ADF0ADC82CB82A0
:10448000CE0101960E94A2222896E8E00C94A12475
:10449000AF92BF92CF92DF92EF92FF920F931F9352
:1044A0007B018C0180E0E81680E0F80681E00807D7
:1044B00080E0180758F4EFEFEE16F104010511053E
:1044C00009F090F480E090E0DC0117C0F0E0EF1616
:1044D000F0E0FF06F0E00F07F1E01F0750F480E185
:1044E00090E0A0E0B0E009C088E090E0A0E0B0E09B
:1044F00004C088E190E0A0E0B0E020E230E040E0DD
:1045000050E0281B390B4A0B5B0B5701680104C0B4
:10451000D694C794B794A7948A95D2F7D601C501CB
:104520008B569C4FFC018081281B310941095109A0
:10453000C9011F910F91FF90EF90DF90CF90BF9036
:10454000AF900895EF92FF920F931F93CF93DF9355
:10455000FC012481358146815781618180818230CF
:1045600020F44061EFEFF0E0A3C0843009F49BC079
:10457000823009F492C0211531054105510509F435
:104580008FC00280F381E02D8FEFE238F8070CF046
:104590005AC0C2E8DFEFCE1BDF0BCA31D1056CF584
:1045A00079018A010C2E04C016950795F794E794BB
:1045B0000A94D2F781E090E0A0E0B0E00C2E04C0B5
:1045C000880F991FAA1FBB1F0A94D2F70197A10950
:1045D000B10982239323A423B52321E030E040E0F6
:1045E00050E00097A105B10519F420E030E0A901E1
:1045F0002E293F29402B512B03C020E030E0A90198
:10460000DA01C9018F779070A070B0708034910585
:10461000A105B10539F427FF09C0205C3F4F4F4F7A
:104620005F4F04C0215C3F4F4F4F5F4FE1E0F0E030
:10463000203080E0380780E0480780E4580728F5FC
:10464000E0E0F0E022C0E038F1056CF5E158FF4F02
:10465000DA01C9018F779070A070B0708034910535
:10466000A105B10539F427FF09C0205C3F4F4F4F2A
:104670005F4F04C0215C3F4F4F4F5F4F57FF05C056
:104680005695479537952795319687E056954795E6
:10469000379527958A95D1F70BC0E0E0F0E005C08B
:1046A000E0E0F0E005C0EFEFF0E020E030E0A9014D
:1046B0008E2F879588278795942F9F7767956627F4
:1046C0006795E695E22EA92FA82BFE2FF62B622FD9
:1046D000732F8A2F9F2FCDB7DEB7E6E00C94A3246B
:1046E000DC01FB012C9111963C91119712968C9153
:1046F0001297482F4F7750E0982F991F9927991FAD
:1047000013966C911397862F880F892B90E0661F64
:104710006627661F6183009739F52115310541052C
:10472000510511F482E029C082E89FEF93838283D0
:1047300067E0220F331F441F551F6A95D1F783E0AE
:10474000808309C0220F331F441F551F828193812C
:10475000019793838283203080E0380780E0480708
:1047600080E4580778F320C08F3F910579F4211534
:1047700031054105510519F484E08083089544FF13
:1047800003C081E0808310C010820EC08F5790401C
:104790009383828383E0808387E0220F331F441F4B
:1047A000551F8A95D1F750642483358346835783F8
:1047B0000895FC01DB019081923008F449C08C918E
:1047C000823008F445C0943051F461818430B1F5F1
:1047D00011962C91119730E0261B310941C084308D
:1047E00021F0923041F48230B1F111968C91119701
:1047F0008823A1F12DC06181823001F111968C9145
:1048000011976817D9F42281338112968D919C916A
:1048100013978217930794F028173907BCF0248167
:1048200035814681578114968D919D910D90BC9153
:10483000A02D82179307A407B50718F4662341F04B
:104840000DC0281739074A075B0728F4662331F0A3
:1048500021E030E005C020E030E002C02FEF3FEF64
:10486000C901089597FB092E07260AD077FD04D0C9
:104870002ED006D000201AF4709561957F4F0895D0
:10488000F6F7909581959F4F0895A1E21A2EAA1BE5
:10489000BB1BFD010DC0AA1FBB1FEE1FFF1FA217F0
:1048A000B307E407F50720F0A21BB30BE40BF50BED
:1048B000661F771F881F991F1A9469F76095709576
:1048C000809590959B01AC01BD01CF010895AA1B75
:1048D000BB1B51E107C0AA1FBB1FA617B70710F0EB
:1048E000A61BB70B881F991F5A95A9F7809590951D
:1048F000BC01CD0108952F923F924F925F926F922B
:104900007F928F929F92AF92BF92CF92DF92EF925F
:10491000FF920F931F93CF93DF93CDB7DEB7CA1BE0
:10492000DB0B0FB6F894DEBF0FBECDBF09942A880B
:10493000398848885F846E847D848C849B84AA84B3
:10494000B984C884DF80EE80FD800C811B81AA8140
:10495000B981CE0FD11D0FB6F894DEBF0FBECDBF0B
:10496000ED010895EE0FFF1F0590F491E02D0994DD
:10497000CF93DF938230910510F482E090E0E091D4
:104980001C07F0911D0740E050E020E030E026C019
:104990006081718168177907E0F06817790781F401
:1049A000828193812115310531F0D90113969C93B1
:1049B0008E9312972BC090931D0780931C0726C0DF
:1049C0004115510519F06417750718F4AB01E90199
:1049D000DF019F0172816381E72FF62F3097C1F6C7
:1049E0004115510501F1481B590B4430510580F424
:1049F00012968D919C911397209719F09B838A832F
:104A000004C090931D0780931C07FD01329646C099
:104A1000FD01E40FF51F8193919342505040119690
:104A20005C934E933BC020911A0730911B072115D0
:104A3000310541F4209197043091980430931B077D
:104A400020931A072091990430919A042115310579
:104A500041F42DB73EB74091950450919604241B24
:104A6000350BE0911A07F0911B07E217F307A0F44A
:104A70002E1B3F0B2817390778F0AC014E5F5F4FB4
:104A80002417350748F04E0F5F1F50931B074093C4
:104A90001A078193919302C0E0E0F0E0CF01DF912B
:104AA000CF910895CF93DF93009709F491C0FC0153
:104AB00032971382128260911C0770911D07611555
:104AC000710581F420813181280F391F80911A07E7
:104AD00090911B078217930799F5F0931B07E093BA
:104AE0001A0776C0DB0180E090E002C0CD01D90159
:104AF000AE17BF0748F412962D913C9113972115DC
:104B00003105A1F7CD0121C0B383A283EF01499103
:104B100059919E01240F351FA217B30779F42D91E7
:104B20003C911197240F351F2E5F3F4F3183208317
:104B300012962D913C91139733832283009729F489
:104B4000F0931D07E0931C0743C0DC011396FC9310
:104B5000EE9312974D915D91A40FB51FEA17FB07D5
:104B600069F420813181240F351F2E5F3F4FEC0106
:104B700039832883228133813B832A83E0E0F0E07C
:104B800002C0FB01BC01DB0112968D919C91139731
:104B90000097B9F79B012E5F3F4F8D919C91119724
:104BA000820F931F40911A0750911B07481759070E
:104BB00079F4309729F410921D0710921C0702C057
:104BC000138212822250304030931B0720931A0721
:104BD000DF91CF910895A0E0B0E0E1EFF5E20C9411
:104BE00081248C01CB010115110529F40E94B82400
:104BF000082F192FB5C0D80112979801260F371F1B
:104C00002A173B0708F4AAC0ED90FC901197E6160E
:104C1000F706D0F045E0E416F10408F4A1C0A701BE
:104C2000445050404617570708F49AC0A701425015
:104C30005040461B570BF901419351936D937C9360
:104C4000CF010E9452258CC05B01AE18BF084801FD
:104C50008E0C9F1CE0911C07F0911D07CC24DD24D5
:104C6000C0E0D0E041C0E815F90599F56081718197
:104C7000AB014E5F5F4F4A155B0558F1AB014A1916
:104C80005B09CC24DD246894C1F8C40ED51E828053
:104C9000A380E5E0CE16D10448F0F9018282A38218
:104CA0005183408311969C938E9309C0C70102964D
:104CB000860F971F11969C938E93E82DFA2D2097BF
:104CC00019F0FB83EA834CC0F0931D07E0931C07A7
:104CD00047C040815181C416D50608F46A01EF012E
:104CE00052814381E52FF42F309709F0BCCF4091DA
:104CF0001A0750911B0748155905E9F4C816D9063B
:104D0000D0F44091990450919A044115510541F411
:104D10004DB75EB76091950470919604461B570B92
:104D200024173507D8F430931B0720931A071196E0
:104D30009C938E9315C00E94B824C82EE6016E0184
:104D4000D92EE601209751F08C2DB801A7010E94C1
:104D5000F526C8010E945225860102C000E010E03D
:104D6000C801CDB7DEB7ECE00C949D241F93FC0185
:104D700099278827BC01E89411911032E9F3193082
:104D800010F01E30C8F31B3251F01D3249F4689404
:104D900006C00E94C227610F711D811D911D1191D6
:104DA00010531A30B0F33EF490958095709561954C
:104DB0007F4F8F4F9F4F1F910895911133C18032C4
:104DC00019F089508550D0F70895911108958154B4
:104DD0008A5108F4805E855A08959111089581568C
:104DE0008A5108F4805285580895FB01DC0102C005
:104DF00001900D9241505040D8F7089568177907F7
:104E000068F4FB01DC01E40FF51FA40FB51F02C01D
:104E100002900E9241505040D8F708950C94F52618
:104E2000FC018191861721F08823D9F799270895ED
:104E30003197CF010895FB01DC018D91019080191C
:104E40000110D9F3990B0895FB01DC0101900D923B
:104E50000020E1F70895FB01DC014150504030F0A3
:104E60008D910190801919F40020B9F7881B990BD6
:104E70000895FB01DC014150504048F001900D9233
:104E80000020C9F701C01D9241505040E0F708953D
:104E9000FC0181E090E00190061609F4CF010020AA
:104EA000D1F701970895FB0151915523A9F0BF0156
:104EB000DC014D9145174111E1F759F4CD01019005
:104EC000002049F04D9140154111C9F3FB014111FA
:104ED000EFCF81E090E001970895FB019F01E894F6
:104EE0004230C4F04532B4F44A3029F497FB1EF442
:104EF000909581959F4F642F77270E946724805D4E
:104F00008A330CF0895D8193CB010097A1F716F4E9
:104F10005DE251931082C9010C941528FA01CF93D8
:104F2000FF93EF93223044F1253234F5C22FE894F9
:104F3000CA3049F497FB3EF4909580957095619541
:104F40007F4F8F4F9F4F2C2F332744275527FF9399
:104F5000EF930E944524EF91FF91605D6A330CF05E
:104F6000695D6193B901CA01605070408040904012
:104F700051F716F4CDE2C19310828F919F91CF919A
:104F80000C941528592F482F372F262F660F771F7F
:104F9000881F991F660F771F881F991F620F731F45
:104FA000841F951F660F771F881F991F0895FA01A8
:104FB000CF93FF93EF932230CCF02532BCF4C22F75
:104FC0002C2F332744275527FF93EF930E94452426
:104FD000EF91FF91605D6A330CF0695D6193B901F7
:104FE000CA01605070408040904051F710828F910C
:104FF0009F91CF910C941528FB019F01423074F0D2
:10500000453264F4642F77270E946724805D8A33D9
:105010000CF0895D8193CB010097A1F71082C90143
:105020000C941528992788270895DC01FC01672F27
:1050300071917723E1F7329704C07C916D9370836F
:0E5040006291AE17BF07C8F30895F894FFCF32
:10504E00207061636B657427732074696D6573746A
:10505E00616D70203D20007569643A0020697320EF
:10506E006D697373696E672E206E65772065746146
:10507E00203D20007B7569643A002C2073303A0085
:10508E002C2073313A002C2073323A007D002069B7
:10509E006E76616C696420696E6465783D00204EA1
:1050AE006578742065787065637465642074782003
:1050BE0068617320756964203D2000206574613D30
:1050CE00002057696E646F77206F70656E21002027
:1050DE0042726F6B656E207061636B6574207265D2
:1050EE006365697665642E207569643D00204441D0
:1050FE004E4745523A204C4F4F53494E472044415C
:10510E00544121002077696E646F7720636C6F7352
:10511E0065642E20737563636573733D0050617310
:10512E00736976656C79206C697374656E696E67E8
:10513E0020666F72203330732E2E2E002E2E2E648C
:10514E006F6E6520706173736976656C79206C691A
:10515E007374656E696E672E004552524F523A2037
:10516E007061636B65745F6C656E677468203E205A
:10517E004D41585F5041434B45545F4C454E47544B
:10518E0048210020004F4B20004641494C20002072
:10519E00776174746167653D00207569643D002018
:1051AE0077686F6C655F686F7573653D000D0A00FB
:1051BE004E4F204D4F5245204255464645525321A3
:1051CE000052583A00552DD454583A0020000D0A7A
:1051DE00005374617274696E6720726631325F6952
:1051EE006E697469616C697A655F63632829200052
:1051FE0052464D3132622066696E6973686564206D
:10520E00706F7765722D75702072657365742E20C0
:10521E00205374617274696E6720696E69742E2EE4
:10522E002E00617474616368696E6720696E7465BF
:10523E00727275707400446F6E6520696E69742E9B
:10524E00005374617274696E6720726631325F69E1
:10525E006E697469616C697A655F65646628292078
:10526E0000555565A6955555555555555555555594
:10527E0055465510000300505300004F454446203C
:10528E0045636F4D616E6167657220526563656936
:10529E007665720046696E697368656420696E6929
:1052AE00740000000000D40DF10F6F0D9E0D820DE5
:1052BE00C00D00000000A61BF10FA61BA61BA61B0F
:1052CE00A61B2E0000000000A61BF10F0000000020
:1052DE0000000000000001020203030303040404A3
:1052EE000404040404050505050505050505050565
:1052FE000505050505060606060606060606060645
:10530E00060606060606060606060606060606062F
:10531E000606060606070707070707070707070714
:10532E0007070707070707070707070707070707FF
:10533E0007070707070707070707070707070707EF
:10534E0007070707070707070707070707070707DF
:10535E0007070707070808080808080808080808C4
:10536E0008080808080808080808080808080808AF
:10537E00080808080808080808080808080808089F
:10538E00080808080808080808080808080808088F
:10539E00080808080808080808080808080808087F
:1053AE00080808080808080808080808080808086F
:1053BE00080808080808080808080808080808085F
:1053CE00080808080808080808080808080808084F
:0C53DE00080808080820001E0700000056
:00000001FF
