:100000000C945F000C9436120C9463120C948700CD
:100010000C9487000C9487000C9487000C94870044
:100020000C9487000C9487000C9487000C94870034
:100030000C9487000C9487000C9487000C94870024
:100040000C9490120C9487000C948F0F0C94C20F98
:100050000C9487000C9487000C9487000C94870004
:100060000C9487000C948700000000070002010038
:100070000003040600000000000000000102040864
:100080001020408001020408102001020408102002
:10009000040404040404040402020202020203032E
:1000A0000303030300000000250028002B000000CC
:1000B0000000240027002A00E70D120E7D101124F5
:1000C0001FBECFEFD8E0DEBFCDBF15E0A0E0B1E0AE
:1000D000EEE6F0E302C005900D92AA36B107D9F71B
:1000E00017E0AAE6B5E001C01D92A53EB107E1F711
:1000F00010E0CEEBD0E004C02297FE010E946B140A
:10010000C83BD107C9F70E940B0E0C9435180C940C
:100110000000FC0186818F5F86839581891301C071
:10012000168208954FEF5FEFBA01FC0140835183BF
:10013000628373830895FC014FEF5FEFBA01408340
:10014000518362837383448355836683778380E717
:1001500097E1918780871286138614861586168606
:100160000895CF92DF92EF92FF920F931F93CF9358
:10017000DF931F92CDB7DEB77C016B01FC01438595
:10018000548565857685452B462B472B09F45FC042
:1001900040855185808191812281338119825F93CD
:1001A0004F933F932F939F938F938CE091E09F9376
:1001B0008F93CE0101969F938F930E945F03C60198
:1001C0000E94EC0AFC016081718182819381F701B8
:1001D0000385148525853685601B710B820B930B77
:1001E000228530E040E050E00E941014C9018454A0
:1001F00096410FB6F894DEBF0FBECDBF8935924051
:1002000020F4F7013187208705C080E797E1F701E7
:1002100091878087F7014085518580819181228176
:10022000338119825F934F933F932F939F938F93C3
:100230008FE291E09F938F93CE0101969F938F93CE
:100240000E945F030FB6F894DEBF0FBECDBFC6019C
:100250000E94EC0AFC014081518162817381F701A7
:1002600080859185480F591F611D711D44835583F9
:100270006683778381E08287C6010E94EC0AFC01D5
:100280004081518162817381F7014387548765877B
:1002900076870F90DF91CF911F910F91FF90EF9094
:1002A000DF90CF900895CF92DF92EF92FF92CF939D
:1002B000DF93EC01CC80DD80EE80FF800E94DA12BB
:1002C000C616D706E806F90638F44FEF5FEFBA0115
:1002D0004C835D836E837F832496CE01DF91CF9123
:1002E000FF90EF90DF90CF900895CF93DF931F9210
:1002F000CDB7DEB7FC01808591854481558166814B
:100300007781480F591F611D711D44835583668392
:10031000778382858F5F8287908121813281E3811B
:10032000F1E0F9831F928F937F936F935F934F93C5
:10033000EF933F932F939F9382E591E09F938F9349
:10034000CE0101969F938F930E945F030FB6F8949E
:10035000DEBF0FBECDBF0F90DF91CF910895CF923A
:10036000DF92EF92FF920F931F93CF93DF93FC01E5
:100370006B01E58080E090E0F12C1EC0A281B3818A
:100380009D01280F391FE901088119812A813B81CC
:100390000496E601488159816A817B81041715071B
:1003A0002607370741F486819D01D4E08D9F200DFB
:1003B000311D112405C0F394FE10E0CF20E030E0A1
:1003C000C901DF91CF911F910F91FF90EF90DF90C6
:1003D000CF900895AF92BF92CF92DF92EF92FF92AB
:1003E0000F931F93CF93DF9300D000D01F92CDB710
:1003F000DEB78C01D42E4A835B836C837D83DC0162
:1004000015968C91CB80BC80AD8019821F928F9302
:10041000AF92BF92CF924F9388E891E09F938F93D2
:10042000EE24E394F12CEC0EFD1EFF92EF920E945D
:100430005F03BE016E5F7F4FC8010E94AF010FB620
:10044000F894DEBF0FBECDBFD801892B79F01D9681
:100450008C911D971E969C911982AF92BF92CF925C
:10046000DF929F938F9383EA91E052C015968C910F
:10047000159714969C9114978917D0F51296ED91C3
:10048000FC911397DF0124E0829FA00DB11D112480
:10049000DC921196CC9211971296BC9212971396F9
:1004A000AC928F5FD80115968C93B4E08B9FE00DD2
:1004B000F11D112434972081318142815381F8014B
:1004C0008585968519825F934F933F932F939F93D2
:1004D0008F938AEB91E09F938F93FF92EF920E940C
:1004E0005F030FB6F894DEBF0FBECDBF81E01CC026
:1004F000D8011D968C911D971E969C9123E029830F
:10050000AF92BF92CF92DF929F938F938AEC91E04C
:100510009F938F93FF92EF920E945F030FB6F89420
:10052000DEBF0FBECDBF80E00F900F900F900F90F9
:100530000F90DF91CF911F910F91FF90EF90DF907F
:10054000CF90BF90AF900895FC018581882349F03A
:1005500086812281338194E0899F200D311D1124F1
:1005600002C020E030E0C9010895BF92CF92DF922F
:10057000EF92FF920F931F93CF93DF931F92CDB70C
:10058000DEB78C01B12C21C0F80182819381FFE09C
:10059000BF9E800D911D11240E945301FC01C0805B
:1005A000D180E280F380C8010E94A4020E9453011E
:1005B000FC014081518162817381C416D506E60633
:1005C000F70610F4F801B682B394F8018581B816E5
:1005D000D8F2C8010E94A4020E945301FC01F080DD
:1005E000E180D280C380C8010E94A402FC01808106
:1005F0009181228133811982CF92DF92EF92FF9213
:100600003F932F939F938F938EED91E09F938F93C2
:10061000CE0101969F938F930E945F030FB6F894CB
:10062000DEBF0FBECDBF0F90DF91CF911F910F9115
:10063000FF90EF90DF90CF90BF900895FC018581EF
:10064000882349F086812281338194E0899F200D9F
:10065000311D112402C020E030E0C9010895CF937C
:10066000DF93EC0168814AE050E070E08FE297E0B0
:100670000E940E128881823089F028F4882341F08C
:100680008130D1F408C0833061F08430A9F40CC00B
:100690006FE072E00BC067E172E008C06EE172E0EB
:1006A00005C065E272E002C06DE272E08FE297E0A1
:1006B000DF91CF910C940511DF91CF9108950F93A5
:1006C0001F93CF93DF93CDB7DEB7C254D1090FB6D6
:1006D000F894DEBF0FBECDBF2B960EAD1FAD2B978E
:1006E00090910001F8018081891778F10E94DA1257
:1006F000AB01BC012AE030E08FE297E00E94941148
:1007000066E372E08FE297E00E940511C8010E9443
:100710002F0366E372E08FE297E00E940511AE01BD
:10072000435B5F4F23965FAF4EAF23972D966EAD21
:100730007FAD2D97CE0101960E947215BE016F5FAD
:100740007F4F8FE297E00E942411CE5BDF4F0FB600
:10075000F894DEBF0FBECDBFDF91CF911F910F91F7
:1007600008951F93CF93DF931F92CDB7DEB710E0AC
:100770001983CE0101960E942F0365E372E08FE298
:1007800097E00E9405111F5F143091F71983CE0185
:1007900001960E942F0367E372E08FE297E00E94C8
:1007A00024110F90DF91CF911F910895CF92DF9286
:1007B000EF92FF920F931F93CF93DF93EC0181E0B1
:1007C00089834FEF5FEFBA014A835B836C837D833C
:1007D0008E838E01095F1F4F7E0182E5E80EF11CBA
:1007E000C8010E949B00015F1F4F0E151F05C1F736
:1007F000F8011382128214821582168217821086E3
:10080000118612861486138688E392E09687858780
:1008100087E092E0918380837E01F1E6EF0EF11C88
:1008200087016E018DEEC80ED11CC8010E94920096
:100830000C5F1F4F0C151D05C1F7F80113821282C2
:1008400014821582168217821086118612861486EB
:10085000138688E392E0968785878DE092E0918306
:100860008083FE01E450FF4F1082FE01E350FF4FF2
:100870001082118212821382FE01EA5AFF4F85E034
:100880008083FE01EC5AFF4FCE010796918380834F
:10089000FE01EF50FF4F83E28083C151DF4FF982A9
:1008A000E882DF91CF911F910F91FF90EF90DF9041
:1008B000CF9008950E943A0C0C949C0BCF93DF9339
:1008C000EC01662339F04A815B816C817D818E5A0F
:1008D0009F4F0AC002960E945F0D4A815B816C8126
:1008E0007D81CE0183519F4F0E94EA018823B1F0A0
:1008F0006EE372E08FE297E00E9405114A815B810E
:100900006C817D812AE030E08FE297E00E949411B3
:1009100064E472E08FE297E00E9424114FEF5FEFF2
:10092000BA014A835B836C837D83DF91CF91089505
:100930002F923F924F925F926F927F928F929F92EF
:10094000AF92BF92CF92DF92EF92FF920F931F93DD
:10095000CF93DF93CDB7DEB729970FB6F894DEBFFC
:100960000FBECDBF7C017F836E83412C512CD12CD7
:10097000CC24C3943E0125E0620E711C5C018DEE17
:10098000A80EB11C170192E5290E311CE3E2E49D8B
:100990004001E59D900C11248BE695E0880E991E90
:1009A00088869986C4010E948308882309F4D7C0E9
:1009B000C4010E94C80AC4010E94E40A882309F401
:1009C000B6C0C4010E94E70AFC01408151816281E6
:1009D000738149835A836B837C83DD24D394EE81B6
:1009E000FF81008111812281338140175107620705
:1009F000730709F0D12CC4010E944E0A882309F420
:100A00004FC0C4010E94E209882309F4B1C0BE01AD
:100A10006F5F7F4FC1010E94AF01892B09F09BC01E
:100A2000A7C0BE016F5F7F4FC5010E94AF01892B38
:100A300009F091C0F701818149815A816B817C81E4
:100A4000882329F042835383648375830AC0F701A6
:100A50000281138124813581041715072607370782
:100A600041F4C4010E94E209682FC7010E945E049C
:100A700072C067E472E08FE297E00E94051149813D
:100A80005A816B817C812AE030E08FE297E00E94FE
:100A9000941165E472E08FE297E00E9424115BC03C
:100AA000C4010E94E209BE016F5F7F4F8823D9F025
:100AB000C1010E94AF01009751F0B4010E94B10042
:100AC000C4010E944F09C1010E94B50244C089813E
:100AD0009A812B813C81CD823F932F939F938F935B
:100AE0008DE492E011C0C5010E94AF01892B09F08D
:100AF0001AC089819A812B813C81CD823F932F93AB
:100B00009F938F9383E792E09F938F937F926F924F
:100B10000E945F030FB6F894DEBF0FBECDBFF70192
:100B200086818823C1F0C4010E944F0914C0CD8280
:100B30008AE992E09F938F937F926F920E945F0366
:100B40000F900F900F900F90F7018681823019F46B
:100B5000C4010E945A08888599850E948B08FFEF7E
:100B60004F1A5F0A25E04216510409F00FCF06C064
:100B7000C4010E94E20981115DCF53CF8D2D2996CA
:100B80000FB6F894DEBF0FBECDBFDF91CF911F919E
:100B90000F91FF90EF90DF90CF90BF90AF909F901C
:100BA0008F907F906F905F904F903F902F9008951F
:100BB0006F927F928F929F92AF92BF92CF92DF926D
:100BC000EF92FF920F931F93CF93DF931F92CDB7B6
:100BD000DEB75C010E94DA126B017C0185010E5ABE
:100BE0001F4FC8010E94A4020E945301FC01908083
:100BF000818072806380C8010E94A402FC01808110
:100C000091812281338119826F927F928F929F927C
:100C10003F932F939F938F938DEA92E09F938F93AF
:100C2000CE0101969F938F930E945F030FB6F894B5
:100C3000DEBF0FBECDBF912C98EEC90E93E0D91E3A
:100C4000E11CF11C0E94DA126C157D058E059F05D2
:100C5000B8F019821F929F922FEC32E03F932F93AE
:100C60009E012F5F3F4F3F932F930E945F030F9092
:100C70000F900F900F900F900F90911013C003C022
:100C80009110E7CF06C0C8010E94A4020E9475011E
:100C900009C0C8010E94A402BC01C5010E949804B9
:100CA000982ED0CF0F90DF91CF911F910F91FF9091
:100CB000EF90DF90CF90BF90AF909F908F907F90FC
:100CC0006F900895AF92BF92CF92DF92EF92FF9212
:100CD0000F931F93CF93DF931F92CDB7DEB78C0195
:100CE000FC01EE50FF4F8081882309F49BC0F8017E
:100CF000ED50FF4F808181111FC00E94DA12580110
:100D00002DEFA20EB11CF501C080D180E280F380EE
:100D1000F0E7CF0EF7E1DF1EE11CF11C6C157D053D
:100D20008E059F0508F06BC0F801E450FF4F8081ED
:100D3000882309F477C063C058012DEEA20EB11CC0
:100D4000C5010E941E030E94AD0D0E94DA126B01C4
:100D50007C0184E6C80ED11CE11CF11C09C0C50150
:100D60000E941E03BC01C8010E949804811157C053
:100D70000E94DA126C157D058E059F0580F347C031
:100D8000C5010E941E03FC01808191812281338173
:100D900019821F92FF923F932F939F938F9389EE17
:100DA00092E09F938F93CE0101969F938F930E9421
:100DB0005F03F80180818F5F80831BC0C5010E94A3
:100DC0008900C5010E941E03FC018081918122815E
:100DD000338141E049833F932F939F938F938BE11E
:100DE00093E09F938F93CE0101969F938F930E94E0
:100DF0005F030FB6F894DEBF0FBECDBF13C00E94D5
:100E0000DA12F501608371838283938395CF045056
:100E10001F4FF801F080F4E0FF1580F2B1CFC5015B
:100E20000E9489000F90DF91CF911F910F91FF9049
:100E3000EF90DF90CF90BF90AF900895CF92DF9268
:100E4000EF92FF920F931F93CF93DF9300D000D0C8
:100E5000CDB7DEB78C01FC01E85AFF4F80818111CC
:100E600004C0C8010E9462061CC00E94DA126B0115
:100E70007C01C8018E5A9F4F0E94A4020E94530118
:100E8000FC014081518162817381445F514061095D
:100E90007109C416D506E606F70618F3C8010E94C4
:100EA000D80519821A821B821C82BE016F5F7F4F98
:100EB000C8010E9498048FE297E00E94F70E892BE8
:100EC00009F4B2C08FE297E00E94260F7C019C01DA
:100ED00033272D36310559F194F42136310509F1C6
:100EE0002CF42D30310509F08EC09EC0223631051C
:100EF00009F46CC02B36310509F085C05CC0203781
:100F00003105D1F02CF42E36310509F07CC064C0D7
:100F10002537310509F454C02637310509F073C06F
:100F200031C081E0F801818367E673E079C0F801A0
:100F300011826DE773E074C0F8018181882319F094
:100F400064E973E06DC06CED73E08FE297E00E949E
:100F500024110E94D30EF8016283738384839583E6
:100F60006DE074E08FE297E00E940511F801428184
:100F70005381648175812AE030E08FE297E00E941E
:100F8000A11152C063E274E08FE297E00E94241145
:100F90000E94B1030E94D30E6093000168E374E0E5
:100FA0008FE297E00E94051180E091E00E942F03FC
:100FB00067E372E035C0F80116826EE474E030C079
:100FC00081E0F80186836AE774E02AC082E0F801D4
:100FD000868366E974E024C064EA74E08FE297E0F7
:100FE0000E9424110E94D30EAB01BC01C8018E5A8D
:100FF0009F4F0E94EA01882319F06FE473E010C04C
:1010000069E573E00DC06FEB74E08FE297E00E943A
:1010100005116E2D8FE297E00E94071168ED74E0D4
:101020008FE297E00E9424110F900F900F900F9085
:10103000DF91CF911F910F91FF90EF90DF90CF90B4
:10104000089521E1FC01208311820895FC01918122
:101050008081981750F48181DB019C91DF01A80FFA
:10106000B11D12969C938F5F81830895CF92DF927A
:10107000EF92FF920F931F93CF93DF937C016B014D
:101080008A01C0E0D0E007C0B6016C0F7D1FC70128
:101090000E9426082196F801808190E0C817D907A0
:1010A0009CF3DF91CF911F910F91FF90EF90DF9014
:1010B000CF9008950F931F93CF93DF938C01C0E0DF
:1010C000D0E011C0F801EC0FFD1F628140E150E05B
:1010D0008FE297E00E94BB1166E372E08FE297E037
:1010E0000E9405112196F801808190E0C817D90768
:1010F0004CF367E372E08FE297E0DF91CF911F91AD
:101100000F910C942411FC012181908181E0291719
:1011100008F480E00895FC0111820895282FFB0156
:101120003081E82FF92F80E002C09191890F9E2F26
:10113000921B9317D0F30895FC0191818081981739
:1011400048F49181DF01A90FB11D12968C919F5F28
:101150009183089580E008959F92AF92BF92CF92BD
:10116000DF92EF92FF920F931F93CF93DF93CDB750
:10117000DEB728970FB6F894DEBF0FBECDBF8C0147
:101180006B017A01B22E85E589838DE28A8384ED35
:101190008B8380E48C831D8283E0888782E08F8349
:1011A000F8011182902EA12EAE01485F5F4FBE0163
:1011B0006F5F7F4FC8010E943608A701B601C801C2
:1011C0000E943608BB2059F0B701C6010E948E0864
:1011D0008E83BE016A5F7F4FC8010E942608AE0160
:1011E000495F5F4FBE016C5F7F4F892D9A2D0E9432
:1011F0003608F70180818B5F8B0DF80180831182A7
:1012000028960FB6F894DEBF0FBECDBFDF91CF9109
:101210001F910F91FF90EF90DF90CF90BF90AF9014
:101220009F900895FC0181E180831182148A158AC0
:10123000168A178A108E4FEF5FEFBA01478F50A3BF
:1012400061A372A308950F931F93CF93DF93EC01D3
:101250008B01998188819817E8F48981811111C0E7
:101260000E94DA126C8B7D8B8E8B9F8BF8018081B4
:10127000823519F41B8A8CE003C081E08B8B80E1FE
:1012800088838981F8019081FE01E80FF11D928326
:101290008F5F8983DF91CF911F910F910895FF9206
:1012A0000F931F93CF93DF93EC016AED74E08FE20D
:1012B00097E00E9405114F8D58A169A17AA12AE0FB
:1012C00030E08FE297E00E94941160EE74E08FE2CC
:1012D00097E00E9405114C895D896E897F892AE01B
:1012E00030E08FE297E00E9494118E01F12CF8011A
:1012F000818D928D0196E1F066EE74E08FE297E0C9
:101300000E9405114AE050E06F2D8FE297E00E94A5
:10131000BB116AE472E08FE297E00E940511F801C8
:10132000618D728D4AE050E08FE297E00E94B51126
:10133000F3940E5F1F4FF3E0FF12D9CF8B89811119
:1013400012C06AEE74E08FE297E00E9405118C856E
:10135000833519F46AE773E002C060E973E08FE255
:1013600097E00E94051165E472E08FE297E0DF915B
:10137000CF911F910F91FF900C9424110F931F9305
:10138000CF93DF931F92CDB7DEB78C01DC018C9138
:1013900081508983BE016F5F7F4FC80102960E9412
:1013A0008E08D801EC91F0E03197E00FF11F228117
:1013B00091E0821390E0892F0F90DF91CF911F91E0
:1013C0000F910895FC0183890895CF93DF93FC0169
:1013D0008FEF9FEF928F818F948F838F968F858F62
:1013E0008389882309F182E090E0DF01A80FB91F0B
:1013F00012964C91129747FF12C012965C91129769
:10140000EC012196CE0FDF1F4A81352F3F7720E078
:10141000B901642BAB0158965C934E935797029693
:101420008830910511F707C033852285932F80E01E
:10143000822B928F818FDF91CF9108950F931F930D
:10144000FC01178E10A211A212A28389882359F0E1
:1014500092818381592F5F7040E0662757FD609528
:10146000762F482B14C0238144818581968150E0DA
:1014700060E070E0BA0155274427722B492B182FE2
:1014800000E020E030E0402B512B622B732B478F84
:1014900050A361A372A31F910F910895FC0183894A
:1014A000882329F08281881F8827881F08958085D6
:1014B000833421F4918581E09F3409F080E0089520
:1014C0009F92AF92BF92CF92DF92EF92FF920F93D3
:1014D0001F93CF93DF93FC0190E081E0A12C00E803
:1014E00010E040E4E42EF12C41C0E801042E02C0DB
:1014F000D595C7950A94E2F77C917C237C1771F00F
:10150000E701042E02C0D595C7950A94E2F7BE0103
:101510007C917623761305C0A12C04C0AA24A39441
:1015200001C080E0BB0CBA284E5F5F4F48305105C8
:10153000E1F62F5F3F4F2230310531F40FC020E03C
:1015400030E0B12CC92ED12C40E050E0B9016C0D37
:101550007D1D6E0F7F1FDB011296C7CF292F2695A9
:10156000DF01A20FB11D1296BC929E5F20819217DF
:1015700030F3908196959083DF91CF911F910F91D9
:10158000FF90EF90DF90CF90BF90AF909F90089525
:10159000CF93DF93EC018B89882321F0CE010E9449
:1015A000600A03C0CE010E94BE09888F888D8823FF
:1015B00041F0CE010E94E509CE01DF91CF910C945C
:1015C0001E0ADF91CF910895FC01808D08959C0142
:1015D000215E3F4FC90108959C012C5E3F4FC90118
:1015E00008950F931F93CF93DF93EC0119928C0111
:1015F00000551F4FCE010E941209A396C017D107B4
:10160000C9F7DF91CF911F910F910895FF920F932A
:101610001F93CF93DF931F92CDB7DEB78C01FC01F0
:10162000808153E2F52E9801F89E200D311D112482
:10163000C90101960E942309F8018081F89EE00DFE
:10164000F11D11243196918180819817B8F080E0C6
:1016500090E023E2289FF001299FF00D112431969C
:10166000E00FF11F41813081431718F4F8018083A6
:1016700017C001968530910569F702C080E011C05E
:1016800083E0898384EF94E09F938F93CE0101964A
:101690009F938F930E945F030F900F900F900F9076
:1016A00081E00F90DF91CF911F910F91FF900895EE
:1016B0001F93CF93DF9300D01F92CDB7DEB711E019
:1016C0001B8389E392E89A838983BE016D5F7F4F14
:1016D000CE0101960E94560E10932D060F900F908A
:1016E0000F90DF91CF911F9108951F93CF93DF93B8
:1016F00000D01F92CDB7DEB711E01B8381E89AECD2
:101700009A838983BE016D5F7F4FCE0101960E944F
:10171000560E1B8383E89AEC9A838983BE016D5F22
:101720007F4FCE0101960E94560E0F900F900F90A2
:10173000DF91CF911F910895CF93DF9300D01F9237
:10174000CDB7DEB781E08B8389ED92E89A838983F8
:10175000BE016D5F7F4FCE0101960E94560E109222
:101760002D060E94750B0F900F900F90DF91CF9177
:101770000895CF93DF9300D01F92CDB7DEB78AE1F3
:1017800096E00E949C0891E09B8390E0986B9A837E
:101790008983BE016D5F7F4FCE0101960E94560E78
:1017A0008AE196E00E94830881110E949C0B0F90B1
:1017B0000F900F90DF91CF9108951F93CF93DF93F8
:1017C00000D0CDB7DEB781E00E94160E1982CE019F
:1017D00001960E944E0E182F1982CE0101960E948A
:1017E0004E0E80912D06811139C015FF1DC01A8241
:1017F000CE0102960E944E0E8983BE016F5F7F4F1D
:101800008AE695E00E94060B182F1A82CE010296F6
:101810000E944E0E8983BE016F5F7F4F8AE695E07E
:101820000E94060B182B12C017FF0FC01A82CE01A0
:1018300002960E944E0E8983BE016F5F7F4F8AE63B
:1018400095E00E94060B182F01C010E080E00E9476
:10185000160E112349F00E94750B06C017FD0E9459
:10186000B90B80E00E94160E0F900F90DF91CF9180
:101870001F9108951F93CF93DF9300D000D0CDB771
:10188000DEB70E941C0E11E01C831A821982BE0171
:101890006C5F7F4FCE0101960E94560E60ED77E09F
:1018A00080E090E00E9416131C8388ED90E89A83F4
:1018B0008983BE016C5F7F4FCE0101960E94560E58
:1018C0001C8381E092E89A838983BE016C5F7F4F1D
:1018D000CE0101960E94560E1C8384E396EA9A83F9
:1018E0008983BE016C5F7F4FCE0101960E94560E28
:1018F0001C8387E596EC9A838983BE016C5F7F4FDA
:10190000CE0101960E94560E1C8380EC94E99A83C6
:101910008983BE016C5F7F4FCE0101960E94560EF7
:101920001C838CE292EC9A838983BE016C5F7F4FAB
:10193000CE0101960E94560E1C8381E89AEC9A8390
:101940008983BE016C5F7F4FCE0101960E94560EC7
:101950001C8384ED9EEC9A838983BE016C5F7F4F6C
:10196000CE0101960E94560E1C8387EF94EC9A8359
:101970008983BE016C5F7F4FCE0101960E94560E97
:101980001C8380E298E99A838983BE016C5F7F4F54
:10199000CE0101960E94560E1C8386E69CEC9A832B
:1019A0008983BE016C5F7F4FCE0101960E94560E67
:1019B0001C8380E090EE9A838983BE016C5F7F4F29
:1019C000CE0101960E94560E1C8380E098EC9A830B
:1019D0008983BE016C5F7F4FCE0101960E94560E37
:1019E0001C8380E090EC9A838983BE016C5F7F4FFB
:1019F000CE0101960E94560E1B8385E095E09F93D1
:101A00008F93CE0103969F938F930E945F0364EFA1
:101A100071E080E090E00E94161340E050E06DED30
:101A20007BE080E00E9416120F900F900F900F90B5
:101A30000F900F900F900F90DF91CF911F9108950D
:101A4000CF93DF93CDB7DEB72C970FB6F894DEBFF8
:101A50000FBECDBF2BE0E1E0F1E0DE011196019079
:101A60000D922A95E1F7DA012C9111963C9111978C
:101A70001296EC91129713964C914A83EB833C8318
:101A80002D83FC0180818F83DB018C9188878BE023
:101A90008C8721E0AE01445F5F4FBE016F5F7F4FD7
:101AA0008AE196E00E94AC080E94580B2C960FB673
:101AB000F894DEBF0FBECDBFDF91CF910895CF92D6
:101AC000DF92EF92FF920F931F93CF93DF9300D09B
:101AD000CDB7DEB78C01FC018081918122813381F9
:101AE00041E049833F932F939F938F9389E195E042
:101AF0009F938F93EE24E394F12CEC0EFD1EFF9246
:101B0000EF920E945F039BE4C92EC98221E4D22E8A
:101B1000DA82A801B701CE0102960E94200D62E38D
:101B200070E080E090E00E941613C982DA82A8017A
:101B3000B701CE0102960E94200D0FB6F894DEBFC9
:101B40000FBECDBF0F900F90DF91CF911F910F91DE
:101B5000FF90EF90DF90CF900895EF92FF920F9358
:101B60001F93CF93DF9300D0CDB7DEB78C01FC017C
:101B7000808191812281338141E049833F932F937A
:101B80009F938F9388E295E09F938F93EE24E39445
:101B9000F12CEC0EFD1EFF92EF920E945F0383E595
:101BA000898380E58A83A801B701CE0102960E944D
:101BB000200D0FB6F894DEBF0FBECDBF0F900F9073
:101BC000DF91CF911F910F91FF90EF9008958AE1DF
:101BD00096E00E9421088AE695E00C94F10A40E024
:101BE00052EC61E070E08FE297E00E94FD0F6BE342
:101BF00075E08FE297E00E9424118EE296E00E9449
:101C00005A046CE475E08FE297E00C9424118EE2A4
:101C100096E00C941E070E943C130E94EF0D0E9458
:101C2000070EFDCF8EE296E00C94D603882311F0C8
:101C30002A9808952A9A089580E00E94160E229A02
:101C400061E08AE00E94D91361E08DE00E94A11357
:101C500061E08BE00E94A11361E08AE00E94A11381
:101C600060E08CE00E94A11380E58CBD60E082E022
:101C70000E94A11361E082E00E94D9138DB58160BA
:101C80008DBD8CB58D7F8CBD8CB581608CBD8CB5C8
:101C9000877F8CBD8CB58B7F8CBD0895FC018081C6
:101CA0008EBD0DB407FEFDCF8EB50895CF92DF92A5
:101CB000EF92FF920F931F93CF93DF931F92CDB7B5
:101CC000DEB77C016B01FB01808181112A98F7014D
:101CD00081818983CE0101960E944E0E182F00E06B
:101CE000F70180818983CE0101960E944E0E082B58
:101CF000F6018081882319F080E00E94160EC80149
:101D00000F90DF91CF911F910F91FF90EF90DF9097
:101D1000CF900895DF92EF92FF920F931F93CF938E
:101D2000DF93EC017B011882D12C8FE297E00E94B7
:101D3000F70E892BE1F08E010D0D111D8FE297E05A
:101D40000E94260FF8018083D3940D2D10E0FE0130
:101D5000E00FF11F319760818FE297E00E94071139
:101D6000F701808190E001970817190739F0FE010B
:101D7000ED0DF11D319780818D30B9F667E372E08A
:101D80008FE297E00E9424118FE297E00E94480FB3
:101D9000CD0DD11D1882DF91CF911F910F91FF9032
:101DA000EF90DF900895CF93DF93CDB7DEB76097C4
:101DB0000FB6F894DEBF0FBECDBF8FE0888BBE019B
:101DC000605F7F4FCE0101960E948A0E40E050E096
:101DD00060E070E0CE0101960E946F1460960FB62D
:101DE000F894DEBF0FBECDBFDF91CF910895FC0107
:101DF00084859585FC01E05CFF4F20813181FC01E9
:101E0000EE5BFF4F80819181281B390B2F733327A5
:101E1000C9010895FC0184859585FC01E05CFF4FB4
:101E200040815181FC01EE5BFF4F208131814217DF
:101E3000530741F00190F081E02DE80FF91F208158
:101E400030E002C02FEF3FEFC9010895FC01848507
:101E50009585FC01E05CFF4F40815181FC01EE5B08
:101E6000FF4F208131814217530771F0A081B1816A
:101E7000A80FB91F2C918081918101968F739927AA
:101E80009183808330E002C02FEF3FEFC9010895B6
:101E9000FC0186859785FC01E05CFF4FDC01AE5BB1
:101EA000BF4F408151812D913C91119742175307AB
:101EB000C1F70895CF93DF93FC0126853785D901BB
:101EC000A05CBF4F8D919C91119701968F739927BC
:101ED000E901CE5BDF4F4881598184179507D9F31B
:101EE0000D90BC91A02DA20FB31F6C93A685B78552
:101EF000A05CBF4F11969C938E93A689B7892C91B5
:101F000081E090E0058C02C0880F991F0A94E2F7E7
:101F1000282B2C9381E090E0DF91CF9108951F92C0
:101F20000F920FB60F9211242F933F934F938F93DD
:101F30009F93EF93FF934091C6008091D2079091B9
:101F4000D30701968F7399272091D4073091D50735
:101F50008217930759F0E091D207F091D307EE561C
:101F6000F84F40839093D3078093D207FF91EF916E
:101F70009F918F914F913F912F910F900FBE0F9096
:101F80001F9018951F920F920FB60F9211242F9346
:101F90003F938F939F93EF93FF9320918E07309100
:101FA0008F0780919007909191072817390731F496
:101FB0008091C1008F7D8093C10014C0E091900793
:101FC000F0919107E25BF84F20818091900790910A
:101FD000910701968F7399279093910780939007AB
:101FE0002093C600FF91EF919F918F913F912F9188
:101FF0000F900FBE0F901F901895CF92DF92EF9227
:10200000FF92CF93DF93EC016A017B01411581EED2
:10201000580761057105F9F0EC89FD8981E090E0D0
:102020000E8C02C0880F991F0A94E2F7808360E04B
:1020300079E08DE390E0A70196010E9410142150F1
:10204000310941095109569547953795279521152D
:1020500080E1380798F0EC89FD89108260E874E827
:102060008EE190E0A70196010E94101421503109E1
:10207000410951095695479537952795E889F9897A
:102080003083EA89FB892083EE89FF89408181E0E2
:1020900090E09C010A8C02C0220F331F0A94E2F7E1
:1020A000422B4083EE89FF8940819C010B8C02C04A
:1020B000220F331F0A94E2F7422B4083EE89FF89F7
:1020C00040819C010C8C02C0220F331F0A94E2F75E
:1020D000422B4083EE89FF8920810D8C02C0880F3E
:1020E000991F0A94E2F7809582238083DF91CF9134
:1020F000FF90EF90DF90CF900895109232071092EA
:10210000310788EE93E0A0E0B0E08093330790932E
:102110003407A0933507B09336078EE595E090938A
:10212000300780932F0782E997E090933C078093D4
:102130003B078EE497E090933E0780933D0785EC44
:1021400090E09093400780933F0784EC90E0909359
:1021500042078093410780EC90E09093440780937E
:10216000430781EC90E0909346078093450786EC07
:1021700090E0909348078093470784E08093490755
:1021800083E080934A0787E080934B0785E0809344
:102190004C0781E080934D070895CF92DF92EF9234
:1021A000FF920F931F93CF93DF936C01EB017A01A2
:1021B000E60EF71E00E010E00BC06991D601ED912C
:1021C000FC910190F081E02DC6010995080F191FBF
:1021D000CE15DF0591F7C801DF91CF911F910F91C7
:1021E000FF90EF90DF90CF900895DB010D900020DD
:1021F000E9F7AD0141505109461B570BDC01ED9148
:10220000FC910280F381E02D09940C94F510DC011F
:10221000ED91FC910190F081E02D09940F931F93B3
:10222000CF93DF93EC016DE00E9407118C016AE00F
:10223000CE010E9407119C01200F311FC901DF91BF
:10224000CF911F910F9108950F931F93CF93DF9319
:10225000EC010E94F5108C01CE010E940E11980134
:10226000280F391FC901DF91CF911F910F91089558
:102270005F926F927F928F929F92AF92BF92CF9216
:10228000DF92EF92FF920F931F93CF93DF93CDB71F
:10229000DEB7A1970FB6F894DEBF0FBECDBF3C01ED
:1022A0006A017B01522E19A281E0821710F08AE0A8
:1022B000582E8E010F5D1F4F852C912CA12CB12C17
:1022C000C701B601A50194010E9410148C2D529EE5
:1022D00080191124015011098A3010F4805D01C069
:1022E000895CF801808369017A01C114D104E10499
:1022F000F10431F7B801C3010E94F510A1960FB6A1
:10230000F894DEBF0FBECDBFDF91CF911F910F912B
:10231000FF90EF90DF90CF90BF90AF909F908F9005
:102320007F906F905F9008952115310541F4DC0195
:10233000ED91FC910190F081E02D642F09940C94B3
:1023400038110F931F93CF93DF93EC010E949411E8
:102350008C01CE010E940E119C01200F311FC9017A
:10236000DF91CF911F910F9108959A01AB0160E029
:1023700070E00C9494119A01462F50E060E070E0F8
:102380000C949411CF92DF92EF92FF920F931F93D0
:10239000CF93DF93EC016A017B012115310579F4BC
:1023A000E881F9810190F081E02D642FDF91CF91D8
:1023B0001F910F91FF90EF90DF90CF9009942A30FA
:1023C000310519F477FD0EC02AE0B701A601CE0150
:1023D000DF91CF911F910F91FF90EF90DF90CF9001
:1023E0000C9438116DE20E9407118C014427552787
:1023F000BA014C195D096E097F092AE0CE010E94DD
:1024000038119C01200F311FC901DF91CF911F911D
:102410000F91FF90EF90DF90CF9008959A01AB015C
:10242000662757FD6095762F0C94C2118230E8F430
:10243000E82FF0E0EE0FFF1FEA52F84F7183608340
:10244000813041F0809169008C7F842B80936900FA
:10245000E89A089580916900440F551F440F551F55
:10246000837F842B80936900E99A08951F920F92CD
:102470000FB60F9211242F933F934F935F936F9357
:102480007F938F939F93AF93BF93EF93FF9380912D
:10249000D6079091D707892B29F0E091D607F091C4
:1024A000D7070995FF91EF91BF91AF919F918F91C0
:1024B0007F916F915F914F913F912F910F900FBE40
:1024C0000F901F9018951F920F920FB60F92112424
:1024D0002F933F934F935F936F937F938F939F932C
:1024E000AF93BF93EF93FF938091D8079091D90753
:1024F000892B29F0E091D807F091D9070995FF9130
:10250000EF91BF91AF919F918F917F916F915F916B
:102510004F913F912F910F900FBE0F901F901895E4
:102520001F920F920FB60F9211242F933F938F9308
:102530009F93AF93BF938091DA079091DB07A091AF
:10254000DC07B091DD073091E207232F2D5F2D3797
:1025500020F40196A11DB11D05C0232F2A57029614
:10256000A11DB11D2093E2078093DA079093DB074A
:10257000A093DC07B093DD078091DE079091DF0721
:10258000A091E007B091E1070196A11DB11D8093D4
:10259000DE079093DF07A093E007B093E107BF91B8
:1025A000AF919F918F913F912F910F900FBE0F9000
:1025B0001F9018950F931F938FB7F8940091DA0727
:1025C0001091DB072091DC073091DD078FBFB80148
:1025D000C9011F910F9108950F931F939FB7F8940E
:1025E0000091DE071091DF072091E0073091E107AD
:1025F00086B5A89B06C08F3F21F00F5F1F4F2F4F5E
:102600003F4F9FBF322F212F102F0027080F111D82
:10261000211D311D42E0000F111F221F331F4A955B
:10262000D1F7B801C9011F910F910895CF92DF92A0
:10263000EF92FF92CF93DF936B017C010E94EC122B
:10264000EB010EC00E94EC126C1B7D0B683E7340C8
:1026500038F081E0C81AD108E108F108C851DC4F10
:10266000C114D104E104F10469F7DF91CF91FF9027
:10267000EF90DF90CF900895789484B5826084BD08
:1026800084B5816084BD85B5826085BD85B5816076
:1026900085BDEEE6F0E0808181608083E1E8F0E0D6
:1026A0001082808182608083808181608083E0E805
:1026B000F0E0808181608083E1EBF0E080818460E4
:1026C0008083E0EBF0E0808181608083EAE7F0E0E6
:1026D000808184608083808182608083808181604A
:1026E00080838081806880831092C1000895833048
:1026F00069F028F48130A1F0823011F514C08630E1
:10270000B1F08730C1F08430D9F404C080918000EA
:102710008F7703C0809180008F7D80938000089523
:1027200084B58F7702C084B58F7D84BD0895809174
:10273000B0008F7703C08091B0008F7D8093B00090
:102740000895CF93DF9390E0FC01E458FF4F44914C
:10275000FC01E057FF4F8491882341F190E0880FFE
:10276000991FFC01E255FF4F25913491D9018C55F9
:102770009F4FFC0185919491C82FD92F9FB7F89452
:102780008C91611106C0409584238C9388818423A9
:1027900008C0623041F4242F209582238C938881D5
:1027A000842B888302C0842B8C939FBFDF91CF91B1
:1027B00008950F931F93CF93DF931F92CDB7DEB78A
:1027C000282F30E0F901E859FF4F8491F901E458CE
:1027D000FF4F1491F901E057FF4F04910023D1F00E
:1027E000882321F069830E9477136981E02FF0E04C
:1027F000EE0FFF1FEC55FF4F85919491DC019FB7C1
:10280000F8948C91611103C01095812301C0812B34
:102810008C939FBF0F90DF91CF911F910F910895DF
:10282000A1E21A2EAA1BBB1BFD010DC0AA1FBB1FD4
:10283000EE1FFF1FA217B307E407F50720F0A21B46
:10284000B30BE40BF50B661F771F881F991F1A94B3
:1028500069F760957095809590959B01AC01BD01DD
:10286000CF0108952F923F924F925F926F927F9285
:102870008F929F92AF92BF92CF92DF92EF92FF9290
:102880000F931F93CF93DF93CDB7DEB7CA1BDB0B3C
:102890000FB6F894DEBF0FBECDBF09942A883988E1
:1028A00048885F846E847D848C849B84AA84B984E8
:1028B000C884DF80EE80FD800C811B81AA81B981F4
:1028C000CE0FD11D0FB6F894DEBF0FBECDBFED0108
:1028D0000895EE0FFF1F0590F491E02D0994A0E0FC
:1028E000B0E0E5E7F4E10C9432141B013A01611504
:1028F000710519F0FB01808391836114710439F033
:102900009301225031092332310508F0C7C08C01F0
:10291000F801D1918F012F018D2F90E00E946A154F
:10292000892BB1F7DD3229F4F801D1912F01C1E0F3
:1029300006C0DB3219F4F801D1912F01C0E0611417
:10294000710409F4B5C0F0E16F16710489F4B7C0E1
:10295000F2018081883719F0883509F0A3C0F201AF
:10296000D181F2E04F0E511CC26050E1652E712CF6
:102970008AE06816710439F1E0E16E16710429F0FD
:10298000F8E06F16710491F407C0CC24CA94DC2CD3
:10299000EC2C4FE0F42E1DC028E0622E712CCC24CC
:1029A000CA94DC2CEC2C3FE1F32E13C09301442796
:1029B00037FD4095542F6FEF7FEFCB010E9410142D
:1029C00069017A0106C099E9C92EDC2CEC2C99E149
:1029D000F92E90E020E030E0A9014301AA2497FC01
:1029E000A094BA2CED2FE053EA3060F08D2F815483
:1029F0008A3110F4E75006C08D2F81568A3140F598
:102A0000ED2FE7556E2F70E0661577050CF59F3FAB
:102A1000D9F0C216D306E406F50698F0C501B40154
:102A20000E940E189B01AC018E2F90E0A0E0B0E058
:102A3000280F391F4A1F5B1F281739074A075B07F2
:102A400010F49FEF01C091E0F201D1912F01CACFA4
:102A50002114310471F0992321F0F1E04F1A51084B
:102A600005C0C1FF06C0F2E04F1A5108F1015182C2
:102A70004082C0FF07C050954095309521953F4F4B
:102A80004F4F5F4F97FF1FC082E290E09093E407A3
:102A90008093E3072FEF3FEFA90115C020E030E05E
:102AA000A90111C0D0E36114710409F475CF60CF9E
:102AB000D03309F44DCF8AE0682E712C84CFD03307
:102AC00009F056CF45CFB901CA01CDB7DEB7E2E173
:102AD0000C944E149111FFC1803219F08950855029
:102AE000D0F70895AEE0B0E0E8E7F5E10C944014CB
:102AF0008C0186E08C831A8309838FEF9FE79E8386
:102B00008D83CE0101960E948E15EF81F885E00F2E
:102B1000F11F10822E96E4E00C945C14ACE0B0E05F
:102B2000E4E9F5E10C9432147C016B018A01FC01AB
:102B300017821682838181FFC7C188248394912CD8
:102B40008C0E9D1EF7019381F60193FD859193FFF5
:102B500081916F01882309F4B3C1853239F493FD63
:102B6000859193FF81916F01853229F4B70190E03F
:102B70000E948417E7CF712C312C20E02032A8F47A
:102B80008B3261F028F4803251F0833271F40BC043
:102B90008D3239F0803349F4216028C022602460EE
:102BA00025C0286023C0206121C027FD27C0382F01
:102BB00030533A3078F426FF06C0FAE07F9E300D9D
:102BC0001124732E13C08AE0389E300D1124332E49
:102BD00020620CC08E3221F426FD72C1206406C032
:102BE0008C3611F4206802C0883641F4F60193FD5A
:102BF000859193FF81916F018111C0CF982F9554DA
:102C0000933018F09052933028F40C5F1F4FFFE37D
:102C1000F9830DC0833631F0833771F0833509F0C5
:102C20005EC023C0F801808189830E5F1F4F662438
:102C30006394712C540115C02801F2E04F0E511C11
:102C4000F801A080B18026FF03C0672D70E002C0AC
:102C50006FEF7FEFC5012C870E9479173C0182013D
:102C60002C856FE7262E222218C02801F2E04F0E95
:102C7000511CF801A080B18026FF03C0672D70E0D1
:102C800002C06FEF7FEFC5012C870E946E173C01D9
:102C90002C8550E8252E222A820123FC1CC006C068
:102CA000B70180E290E00E9484173A94832D90E06F
:102CB00068167906A8F30FC0F50127FC859127FE59
:102CC00081915F01B70190E00E94841731103A941E
:102CD000F1E06F1A71086114710471F7EEC0843667
:102CE00011F0893641F5F80127FF07C06081718135
:102CF000828193810C5F1F4F08C06081718188279A
:102D000077FD8095982F0E5F1F4F4FE6642E62224D
:102D100097FF09C090958095709561957F4F8F4F73
:102D20009F4FF0E86F2A2AE030E0A4010E94B0171C
:102D3000A82EA81844C0853731F43FEEB32EB22236
:102D40002AE030E024C099EFB92EB2228F36B9F0D4
:102D500020F4883509F0B4C00DC0803721F08837E1
:102D600009F0AEC002C020E1B22AB4FE0BC084E07C
:102D7000B82A08C024FF09C0E6E0BE2A06C028E041
:102D800030E005C020E130E002C020E132E0F8018F
:102D9000B7FE07C060817181828193810C5F1F4FF4
:102DA00006C06081718180E090E00E5F1F4FA4013A
:102DB0000E94B017A82EA8188FE7682E6B2066FE19
:102DC0000BC0362D3E7FA71450F464FE0AC062FC8F
:102DD00008C0362D3E7E05C0BA2C362D03C0BA2C55
:102DE00001C0B72C34FF0DC0FE01EA0DF11D80813A
:102DF000803311F4397E09C032FF06C0B394B39416
:102E000004C0832F867809F0B39433FD14C030FFDB
:102E10000FC07A2CB31460F4730C7B18B32C08C069
:102E2000B70180E290E03C870E948417B3943C8510
:102E3000B314B0F304C0B31410F43B1801C0312C28
:102E400034FF12C0B70180E390E03C870E948417F2
:102E50003C8532FF1EC031FF03C088E590E002C010
:102E600088E790E0B7010CC0832F867891F031FDA0
:102E700002C080E201C08BE237FD8DE2B70190E035
:102E80000E94841706C0B70180E390E00E94841777
:102E90007A94A714C0F3AA94F401EA0DF11DB701C6
:102EA000808190E00E948417A110F5CF06C0B70181
:102EB00080E290E00E9484173A943110F8CF42CE1D
:102EC000F7012681378102C02FEF3FEFC9012C9611
:102ED000E2E10C944E14992788270895FC0105908F
:102EE000615070400110D8F7809590958E0F9F1F0C
:102EF0000895FC016150704001900110D8F7809551
:102F000090958E0F9F1F08950F931F93CF93DF937C
:102F10008C01EB018B8181FD03C00FEF1FEF1AC005
:102F200082FF0DC02E813F818C819D81281739073A
:102F300064F4E881F9810193F983E88306C0E885A8
:102F4000F985802F0995892B41F78E819F81019604
:102F50009F838E83C801DF91CF911F910F910895B8
:102F6000FA01AA27283051F1203181F1E8946F93BA
:102F70006E7F6E5F7F4F8F4F9F4FAF4FB1E03ED060
:102F8000B4E03CD0670F781F891F9A1FA11D680FFE
:102F9000791F8A1F911DA11D6A0F711D811D911D31
:102FA000A11D20D009F468943F912AE0269F1124A6
:102FB0003019305D3193DEF6CF010895462F47700A
:102FC000405D4193B3E00FD0C9F7F6CF462F4F7065
:102FD000405D4A3318F0495D31FD4052419302D0C3
:102FE000A9F7EACFB4E0A695979587957795679569
:102FF000BA95C9F700976105710508959B01AC0169
:103000000A2E06945795479537952795BA95C9F78F
:10301000620F731F841F951FA01D0895DB018F93FE
:103020009F930E941E18BF91AF91A29F800D911D8A
:10303000A39F900DB29F900D112408950E9429180E
:10304000A59F900DB49F900DA49F800D911D1124FC
:103050000895A29FB001B39FC001A39F01D0B29F6A
:0E306000700D811D1124911D0895F894FFCF6D
:10306E0002460000000000414B00004F43435F54F6
:10307E00582049443D256C752C206F6C642073617B
:10308E006D706C655F706572696F643D2575004388
:10309E00435F54582049443D256C752C206E65774E
:1030AE002073616D706C655F706572696F643D252C
:1030BE00750069643A256C75206973206D697373A8
:1030CE00696E672E204E6577204554413D256C75FF
:1030DE002C206E756D5F706572696F6473206D69FB
:1030EE00737365643D257500436341727261793A6D
:1030FE003A617070656E6428256C75292E206E3DC0
:10310E00256400257320256C7520616C72656164E1
:10311E007920696E206C6973740041646465642063
:10312E00257320696420256C75006E6F20737061A5
:10313E00636520666F7220257320256C75004E65C1
:10314E0078742065787065637465642043435F54BA
:10315E00583A2049443D256C752C204554413D2557
:10316E006C750000000000B5020000000089002808
:10317E004445425547290028494E464F29002857B5
:10318E0041524E2900284552524F5229002846419D
:10319E0054414C29002C200043435F5458007B704F
:1031AE00773A2000207D007B50523A20005278273B
:1031BE00642043435F5458207061636B65742077BD
:1031CE0069746820756E6B6E6F776E20494420258A
:1031DE006C7500527827642043435F545258207018
:1031EE0061636B6574207769746820756E6B6E6FA2
:1031FE00776E20494420256C750052782764206232
:10320E00726F6B656E207061636B65740057696ECB
:10321E00646F77206F70656E2120457870656374DA
:10322E00696E6720256C7520617420256C750057BA
:10323E00696E646F7720636C6F7365642E2073758F
:10324E0063636573733D2564004E6F207265737002
:10325E006F6E73652066726F6D2054525820256C08
:10326E00752C20726574726965733D25642E20522B
:10327E0065747279696E672E2E2E004E6F20726500
:10328E0073706F6E73652066726F6D205452582086
:10329E00256C752061667465722072657472796929
:1032AE006E672E20476976696E672075702E004115
:1032BE00434B206164646564004E414B206E6F7415
:1032CE002061646465640041434B206175746F5FD7
:1032DE0070616972206D6F6465206F6E0041434BA3
:1032EE00206175646F5F70616972206D6F64652017
:1032FE006F6666004E414B20506C656173652065AC
:10330E006E61626C65206D616E75616C20706169B5
:10331E0072696E67206D6F64652028276D272920DE
:10332E006265666F72652069737375696E672027B3
:10333E00702720636F6D6D616E642E0041434B20CC
:10334E00506C6561736520656E746572204944200A
:10335E00666F6C6C6F776564206279206361727240
:10336E00696167652072657475726E3A0041434BF0
:10337E0020706169725F7769746820736574207458
:10338E006F200041434B20656E746572206C6F6731
:10339E00206C6576656C3A0041434B204C6F67207C
:1033AE006C6576656C2073657420746F20004143E4
:1033BE004B206F6E6C79207072696E74206461742C
:1033CE00612066726F6D206B6E6F776E2074726106
:1033DE006E736D6974746572730041434B20707225
:1033EE00696E7420616C6C2076616C69642070610A
:1033FE00636B6574730041434B207072696E742069
:10340E00616C6C0041434B20656E746572204343C2
:10341E005F545820494420746F206164643A004E12
:10342E00414B20756E7265636F676E6973656420BC
:10343E00636F6D6D616E642027007B69643A2000B6
:10344E002C20743A20002C2073002C20737461748D
:10345E00653A20004E4F204D4F524520425546466C
:10346E004552532100617474616368696E67206907
:10347E006E746572727570740041434B2043432025
:10348E0054525820256C7500506F6C6C696E672015
:10349E0043432054525820256C750045444620491C
:1034AE00414D2052656365697665720046696E69A5
:1034BE007368656420696E697400000000005A0F1D
:0A34CE00CD10F70E260F0A0F480F6D
:00000001FF
