:100000000C9432030C943C270C9469270C945A03EB
:100010000C945A030C945A030C945A030C945A03EC
:100020000C945A030C945A030C945A030C945A03DC
:100030000C945A030C945A030C945A030C945A03CC
:100040000C9496270C945A030C9462240C949524D7
:100050000C945A030C945A030C945A030C945A03AC
:100060000C945A030C945A037B69643A20002C20A8
:100070006C6173745F7365656E3A20002C206E7539
:100080006D5F706572696F64735F6D6973736564CA
:100090003A20002C206574613A20002C2073616D99
:1000A000706C655F706572696F643A20007D005402
:1000B0005820256C75206F6C642073616D706C65C1
:1000C00020706572696F643D257500416464696ED6
:1000D00067206E65775F73616D706C655F706572C8
:1000E000696F6420257500545820256C75206E6555
:1000F000772073616D706C6520706572696F643D07
:100100002575002000200028444542554729002835
:10011000494E464F2900285741524E290028455242
:10012000524F52290028464154414C2900657461C0
:1001300020256C75203C206D696C6C697328292022
:10014000256C750069643A256C75206D6973736957
:100150006E672E204E6577204554413D256C7520F5
:100160006D69737365643D2575004E657874205420
:10017000582049443D256C752C204554413D256C43
:1001800075002043435F5458002043435F54525846
:100190000041434B206175746F5F70616972206F1D
:1001A0006E0041434B206175646F5F70616972201E
:1001B0006F6666004E414B20456E61626C65206D36
:1001C000616E75616C2070616972696E672062652D
:1001D000666F72652027702720636D642E0041438F
:1001E0004B20456E7465722049443A0041434B20D0
:1001F000706169725F776974682073657420746FC9
:10020000200041434B20656E746572206C6F67203F
:100210006C6576656C3A0041434B204C6F67206CEF
:100220006576656C2073657420746F20000041430F
:100230004B206F6E6C79207072696E7420646174EB
:10024000612066726F6D206B6E6F776E20747261C5
:100250006E736D6974746572730041434B207072E4
:10026000696E7420616C6C2076616C6964207061C9
:10027000636B6574730041434B207072696E742028
:10028000616C6C004E414B20756E7265636F676EDA
:100290006973656420636F6D6D616E64202700274C
:1002A000002C20000041434B20656E7465722000D5
:1002B00020494420746F206164643A0020616464C2
:1002C00065640041434B004E414B206E6F74002526
:1002D0006C7520697320616C726561647920696E48
:1002E00020646174612E0044594E414D49432041C0
:1002F00052524159204F5554204F462052414E47AB
:1003000045204552524F52004F5554204F46204DE4
:10031000454D4F52590041434B20656E7465722024
:100320000020494420746F206164643A00206164B5
:100330006465640041434B004E414B206E6F740076
:10034000256C7520697320616C7265616479206920
:100350006E20646174612E0044594E414D49432022
:100360004152524159204F5554204F462052414E40
:100370004745204552524F52004F5554204F46207A
:100380004D454D4F52590041434B20656E74657287
:10039000206E756D626572206F6600733A0041438E
:1003A0004B004E414B0044594E414D494320415270
:1003B000524159204F5554204F46204D454D4F52E4
:1003C000590041434B20656E746572206E756D62F5
:1003D0006572206F6600733A0041434B004E414BFB
:1003E0000044594E414D4943204152524159204FFA
:1003F0005554204F46204D454D4F52590041434BD7
:100400002064656C6574656420616C6C00730041E8
:10041000434B2064656C6574656420616C6C00738B
:100420000041434B007B00733A205B002C000D0A17
:100430005D7D0041434B007B00733A205B002C0044
:100440000D0A5D7D004D697373696E6720545258C3
:1004500020256C752C20726574726965733D256466
:10046000004D697373696E672054525820256C756E
:100470002E20476976696E672075702E0057696E69
:10048000646F77206F70656E2120457870656374A6
:10049000696E6720256C7520617420256C75005786
:1004A000696E646F7720636C6F7365642E2073755B
:1004B00063636573733D25640057616974696E6792
:1004C00020256C75206D7320666F722049442025AD
:1004D0006C7500527827642043435F545820706144
:1004E000636B6574207769746820756E6B6E6F77C7
:1004F0006E20494420256C750052782764204343C0
:100500005F545258207061636B657420776974681A
:1005100020756E6B6E6F776E20494420256C7500D8
:10052000527827642062726F6B656E20257320708D
:1005300061636B65740044594E414D4943204152FB
:10054000524159204F5554204F462052414E474565
:10055000204552524F5200506169722072657120DD
:1005600066726F6D20256C75007B50523A20007DBD
:10057000007B70773A2000207D002000007B6964BA
:100580003A20002C20743A20002C2073003A2000DE
:100590002C2073746174653A20006F6E006F66667C
:1005A000007D004E4F204D4F524520425546464556
:1005B00052532100617474616368696E6720696ECB
:1005C0007465727275707400506F6C6C696E672020
:1005D00043432054525820256C750041434B20431F
:1005E000432054525820256C75004544462049410B
:1005F0004D2052656365697665720046696E697360
:1006000068656420696E69740000000000070002DC
:1006100001000003040600000000000000000102C9
:100620000408102040800102040810200102040880
:10063000102004040404040404040202020202025E
:1006400003030303030300000000250028002B0020
:1006500000000000240027002A000F2299225025C4
:100660001D229D2211241FBECFEFD8E0DEBFCDBFDB
:1006700011E0A0E0B1E0ECE5FDE502C005900D92CF
:10068000AC38B107D9F713E0ACE8B1E001C01D9276
:10069000A034B107E1F716E0C0E6D6E004C0229727
:1006A000FE010E948529CA35D107C9F70E9492220E
:1006B0000C94A12E0C940000CF92DF92EF92FF9247
:1006C0000F931F936B017C0120E030E040E05FE47A
:1006D0000E94BF0687FD0EC020E030E040E05FE4EE
:1006E000C701B6010E9407050E944A078B019C01C1
:1006F000305806C0C701B6010E944A078B019C0111
:10070000B801C9011F910F91FF90EF90DF90CF903A
:100710000895A0E0B0E0EFE8F3E00C9450293C012C
:10072000CB01EA01D3012C91223008F43EC1FB0138
:100730003081323008F436C1243071F4343009F09D
:1007400034C111962C918181281709F42EC1B2E190
:100750006B2EB1E07B2E29C1343009F423C1323035
:1007600091F4223009F021C128E0F301DA0101906F
:100770000D922A95E1F7DB0111968C91F30191819D
:100780008923898311C1223009F40CC1D301129647
:10079000ED91FC911397DB0112966D917C9113976B
:1007A000D30114960D911D912D913C911797DC0169
:1007B0001496CD90DD90ED90FC901797AF01461BFD
:1007C000570BDA0157FF04C0AA27BB27A41BB50BA0
:1007D000A032B1050CF065C0141615067CF5B70102
:1007E000A6010A2E04C076956795579547950A94F9
:1007F000D2F7812C912C5401839404C0880C991C4D
:10080000AA1CBB1CAA95D2F7B1E08B1A9108A108CB
:10081000B1088C209D20AE20BF20C12CD12C7601A8
:10082000C39481149104A104B10419F4C12CD12CF6
:100830007601C42AD52AE62AF72A3EC0452BE1F1E3
:10084000EA0FFB1FB901A8010A2E04C0769567952F
:10085000579547950A94D2F7812C912C5401839493
:1008600004C0880C991CAA1CBB1CAA95D2F7A1E055
:100870008A1A9108A108B10880229122A222B322EB
:1008800001E010E020E030E081149104A104B10403
:1008900019F400E010E09801042B152B262B372BC0
:1008A0000BC06E177F0724F4C12CD12C760104C035
:1008B000FB0100E010E09801D30111964C91DC019E
:1008C00011968C91481709F442C0442349F0D7018E
:1008D000C601801B910BA20BB30B8C019D0104C0C0
:1008E0000C191D092E093F0937FD04C01982FB832D
:1008F000EA830BC081E08983FB83EA8330952095EE
:10090000109501951F4F2F4F3F4F0C831D832E8352
:100910003F830DC0880F991FAA1FBB1F8C839D8327
:10092000AE83BF838A819B8101979B838A838C815D
:100930009D81AE81BF818C019D010150110921096A
:1009400031090F3F1F4F2F4F3F4320F30BC0498307
:10095000FB83EA830C0D1D1D2E1D3F1D0C831D8383
:100960002E833F8383E088830C811D812E813F810C
:1009700037FF1AC0D901C80181709927AA27BB2760
:100980003695279517950795802B912BA22BB32B86
:100990008C839D83AE83BF838A819B8101969B83D9
:1009A0008A8302C03C0101C03E01C301CDB7DEB75E
:1009B000EEE00C946C29A0E2B0E0E1EEF4E00C94DF
:1009C0005C296D8F7E8F8F8F98A3298F3A8F4B8FE5
:1009D0005C8FBE016F5E7F4FCE014D960E94D008A6
:1009E000BE01675F7F4FCE0149960E94D008AE01DD
:1009F0004F5F5F4FBE01675F7F4FCE0141960E9400
:100A000089030E940F08A096E2E00C947829A0E2E6
:100A1000B0E0EDE0F5E00C945C296D8F7E8F8F8F58
:100A200098A3298F3A8F4B8F5C8FBE016F5E7F4FEB
:100A3000CE014D960E94D008BE01675F7F4FCE0168
:100A400049960E94D0088A8591E089278A87AE015D
:100A50004F5F5F4FBE01675F7F4FCE0141960E949F
:100A600089030E940F08A096E2E00C947829A0E286
:100A7000B0E0EDE3F5E00C944E296D8F7E8F8F8F03
:100A800098A3298F3A8F4B8F5C8FBE016F5E7F4F8B
:100A9000CE014D960E94D008BE01675F7F4FCE0108
:100AA00049960E94D0089989923008F412C089852D
:100AB000823008F41AC0943021F4823009F4B4C0B2
:100AC00008C0843021F4923009F4AEC00EC09230D8
:100AD00051F481E02A899A85291301C080E08A8B2C
:100AE000CE014196A3C0823051F481E02A899A85D3
:100AF000291301C080E08A87CE01099697C08D88AE
:100B00009E88AF88B88C0D851E852F853889E0E2D8
:100B1000F0E080E090E0DC01C12CD12C760140E0D7
:100B200050E0BA0180FE18C0400F511F621F731FB2
:100B30008C0D9D1DAE1DBF1D412C512C32014394C7
:100B4000401751076207730718F0412C512C3201EE
:100B5000840D951DA61DB71DCC0CDD1CEE1CFF1CC5
:100B600037FF02C06894C0F8000F111F221F331F07
:100B7000B694A794979487943197A1F62B893C89D2
:100B8000EB85FC852E0F3F1F2E5F3F4F3C832B8351
:100B900021E0EA893A85E31301C020E02A83EB8152
:100BA000FC810CC080FF05C07695679557954795E9
:100BB0007068B695A795979587953196B7FDF2CF52
:100BC0009F010CC0880F991FAA1FBB1F77FD816072
:100BD000440F551F661F771F215031090097A1054B
:100BE000E0E4BE0778F32B833C838C019D010F77F3
:100BF000112722273327003411052105310559F427
:100C000087FD09C0452B462B472B29F0805C9F4F61
:100C1000AF4FBF4F80788D839E83AF83B88783E0CB
:100C20008983CE01019602C082E191E00E940F0803
:100C3000A096E0E10C946A29A8E1B0E0E2E2F6E0D7
:100C40000C9456296D8B7E8B8F8B988F298B3A8BCA
:100C50004B8B5C8BBE01675F7F4FCE0145960E9438
:100C6000D008BE016F5F7F4FCE0141960E94D00831
:100C70009985923008F475C08981823008F474C077
:100C80002A853A8123272A87943011F0923019F46B
:100C9000981367C06CC0843039F41D861E861F8689
:100CA000188A1C861B8604C0823029F484E0898758
:100CB000CE0109965EC08B859C852B813C81821B71
:100CC000930B9C878B874D855E856F857889CD805A
:100CD000DE80EF80F8844C155D056E057F0538F4E5
:100CE000440F551F661F771F01979C878B87EFE185
:100CF000F0E000E010E020E030E480E090E0DC0193
:100D00004C155D056E057F0540F0802B912BA22BC5
:100D1000B32B4C195D096E097F09369527951795F8
:100D20000795440F551F661F771F319749F78C01B0
:100D30009D010F7711272227332700341105210544
:100D4000310559F487FD09C0452B462B472B29F067
:100D5000805C9F4FAF4FBF4F80788D879E87AF8756
:100D6000B88BCE01099605C0CE01019602C082E182
:100D700091E00E940F086896E8E00C947229A8E1BF
:100D8000B0E0E5ECF6E00C945C296D8B7E8B8F8BEC
:100D9000988F298B3A8B4B8B5C8BBE01675F7F4FA3
:100DA000CE0145960E94D008BE016F5F7F4FCE01F5
:100DB00041960E94D0088985823058F0898182301E
:100DC00040F0BE016F5F7F4FCE0109960E943F0940
:100DD00001C08FEF6896E2E00C947829A8E0B0E0BB
:100DE000E4EFF6E00C945A2923E029838B019C015F
:100DF000002737FD0395112722273327402F0A8329
:100E0000611571058105910519F482E0898335C06A
:100E10002EE130E03C832B83442371F06115710592
:100E2000810520E8920771F1002711279801061B20
:100E3000170B280B390B02C08B019C01C901B801AB
:100E40000E9489290197181619062CF00D831E831C
:100E50002F83388712C0082E04C0000F111F221FD5
:100E6000331F0A94D2F70D831E832F8338872EE118
:100E700030E0281B390B3C832B83CE0101960E9466
:100E80000F0804C060E070E080E09FEC2896E4E08A
:100E90000C947629ACE0B0E0E0E5F7E00C945A2938
:100EA00069877A878B879C87BE016F5F7F4FCE01F2
:100EB00009960E94D0088981823091F1823080F1B8
:100EC000843041F48A81882331F100E010E020E091
:100ED00030E829C02B813C8137FD22C02F313105FC
:100EE0008CF78EE190E0821B930B0D811E812F8188
:100EF000388504C036952795179507958A95D2F7BA
:100F00008A81882381F030952095109501951F4F97
:100F10002F4F3F4F08C00FEF1FEF2FEF3FE703C0EA
:100F200000E010E09801B801C9012C96E4E00C94AF
:100F30007629A8E0B0E0EFE9F7E00C9456298B01A0
:100F40009C011A82611571058105910519F482E0F1
:100F500089835DC083E089834EE150E05C834B83ED
:100F6000C901B8010E948929019797FF39C0EE276E
:100F7000FF27E81BF90B41E050E060E070E00E2E27
:100F800004C0440F551F661F771F0A94D2F74150C3
:100F90005109610971094023512362237323C12C34
:100FA000D12C7601C394452B462B472B19F4C12C29
:100FB000D12C760104C03695279517950795EA95AB
:100FC000D2F70C291D292E293F290D831E832F833B
:100FD00038872EE130E0281B390B3C832B8317C068
:100FE000009729F40D831E832F83388710C0082EA5
:100FF00004C0000F111F221F331F0A94D2F70D8364
:101000001E832F833887481B590B5C834B83CE018B
:1010100001960E940F082896E8E00C9472290F931D
:101020001F93CF93FC014481558166817781C181F3
:101030008081823020F460618FEF90E0A3C0843023
:1010400009F49BC0823009F492C041155105610535
:10105000710509F48FC02281338122388FEF380760
:101060000CF057C0E2E8FFEFE21BF30BEA31F105A9
:1010700064F58A019B010E2E04C0369527951795BD
:1010800007950A94D2F781E090E0A0E0B0E004C0B8
:10109000880F991FAA1FBB1FEA95D2F70197A109D4
:1010A000B10984239523A623B72341E050E060E0F3
:1010B00070E0892B8A2B8B2B19F440E050E0BA01A9
:1010C000402B512B622B732B03C040E050E0BA0140
:1010D000DB01CA018F779927AA27BB2780349105A6
:1010E000A105B10539F447FF09C0405C5F4F6F4F60
:1010F0007F4F04C0415C5F4F6F4F7F4F81E090E0B6
:1011000041155105610520E4720748F580E090E043
:1011100026C0203831058CF5DB01CA018F7799276D
:10112000AA27BB2780349105A105B10539F447FFF3
:1011300009C0405C5F4F6F4F7F4F04C0415C5F4F01
:101140006F4F7F4F77FD04C0C90181589F4F07C083
:101150007695679557954795C90180589F4F97E0B9
:1011600076956795579547959A95D1F70BC080E08E
:1011700090E005C080E090E005C08FEF90E040E097
:1011800050E0BA01982F9695C0FB97F9362F80FB57
:1011900037F9642F752F832FCF911F910F910895E9
:1011A000CF92DF92EF92DC01FB01CC901196DC90A4
:1011B000119712968C9112973FE7E32EE8226E2D3D
:1011C000A60170E0982F991F9927991F13962C91CB
:1011D000822F880F892B90E027FB222720F921837B
:1011E000009729F5411551056105710511F482E05B
:1011F00027C082E89FEF9383828327E0440F551F27
:10120000661F771F2A95D1F783E0808309C0440FBA
:10121000551F661F771F8281938101979383828375
:1012200041155105610580E4780788F320C08F3FA0
:10123000910579F4411551056105710519F484E0B2
:10124000808319C0E4FE03C081E0808310C0108257
:101250000EC08F5791099383828383E0808387E058
:10126000440F551F661F771F8A95D1F7706444831A
:10127000558366837783EF90DF90CF900895CF9367
:10128000FC01DB019081923008F452C08C918230D5
:1012900008F44EC0943071F4843039F411962C91D6
:1012A00030E08181281B310948C08181882309F4FD
:1012B0003FC03BC0843029F411968C91811138C015
:1012C00034C0923019F48230B9F735C0823069F3F6
:1012D000C18111968C911197C8131DC02281338151
:1012E00012968D919C911397821793070CF413C05B
:1012F000281739070CF417C044815581668177811E
:1013000014968D919D910D90BC91A02D84179507F9
:10131000A607B70718F4C11108C00AC04817590733
:101320006A077B0740F4C11103C02FEF3FEF05C0F0
:1013300021E030E002C020E030E0C901CF91089503
:101340002EE131E0FC013183208308952EE131E06C
:10135000FC013183208308952EE131E0FC013183CB
:1013600020830C946F222EE131E0FC013183208335
:101370000C946F220F931F93CF93DF938C0186E41D
:1013800091E0F8019183808382819381009719F124
:10139000FC013297208131814DE1429FE001439F62
:1013A000D00D1124C80FD91FCE01F801228133813D
:1013B0006D978217930741F0E881F9810190F081E0
:1013C000E02DCE010995F0CF0297DF91CF911F91CB
:1013D0000F910C947322DF91CF911F910F9108957B
:1013E000CF93DF93EC010E94BA09CE01DF91CF9138
:1013F0000C946F2222E331E0FC01318320830C94B2
:10140000BA09CF93DF93EC010E94FA09CE01DF9174
:10141000CF910C946F220F931F93CF93DF938C0186
:1014200080E591E0F8019183808382819381009728
:1014300019F1FC0132972081318146E0429FE001A1
:10144000439FD00D1124C80FD91FCE01F80122816E
:10145000338126978217930741F0E881F981019043
:10146000F081E02DCE010995F0CF0297DF91CF9169
:101470001F910F910C947322DF91CF911F910F91C7
:101480000895CF93DF93EC010E940B0ACE01DF9108
:10149000CF910C946F222CE331E0FC013183208347
:1014A0000C940B0ACF93DF93EC010E944B0ACE0100
:1014B000DF91CF910C946F2269E871E086E892E0A9
:1014C0000C94D82562E871E086E892E00C94D82567
:1014D000FC0142815381648175812AE030E086E815
:1014E00092E00C949A26CF93DF93EC0168814AE056
:1014F00050E070E086E892E00E94142788818230F4
:1015000089F028F4882341F08130D1F408C0833079
:1015100061F08430A9F40CC067E071E00BC06FE0AB
:1015200071E008C066E171E005C06DE171E002C0E4
:1015300065E271E086E892E0DF91CF910C94D825C6
:10154000DF91CF910895EF92FF920F931F93CF9366
:10155000DF93CDB7DEB7C258D1090FB6F894DEBF1E
:101560000FBECDBFC557DF4FE880F980CB58D040C4
:10157000C357DF4F08811981CD58D04090910601A3
:10158000F70180818917D0F10E94E027AB01BC01EF
:101590002AE030E086E892E00E949A2663E071E05B
:1015A00086E892E00E94D825C7010E94730A65E090
:1015B00071E086E892E00E94D825DE01AF5BBF4F64
:1015C000F8010F5F1F4FE491ED93E111F9CFAE01E8
:1015D00041575F4FCF57DF4F59834883C158D040A1
:1015E000BE016F5B7F4FCE0101960E94DE2BBE01D4
:1015F0006F5F7F4F86E892E00E942A26CE57DF4F2A
:101600000FB6F894DEBF0FBECDBFDF91CF911F9113
:101610000F91FF90EF9008952EE131E0FC013183AE
:1016200020834FEF5FEFBA01428353836483758356
:1016300008952EE131E0FC0131832083FB014081DC
:10164000518162817381FC0142835383648375837A
:101650000895CF92DF92EF92FF92CF93DF93EC0148
:10166000CC24CA94DC2C7601CA82DB82EC82FD8217
:1016700088E291E099838883CE010A960E94252210
:10168000CE82DF82E886F986188E198E1A8E1B8E1E
:101690001C8EDF91CF91FF90EF90DF90CF90089557
:1016A000CF93DF93EC01FB01408151816281738113
:1016B0004A835B836C837D8388E291E0998388838E
:1016C000CE010A960E9425224FEF5FEFBA014E83AA
:1016D0005F8368877987188E198E1A8E1B8E1C8EF1
:1016E000DF91CF910895CF93DF93EC0168E670E02E
:1016F00086E892E00E94D8254A815B816C817D81D9
:101700002AE030E086E892E00E949A266EE670E0D9
:1017100086E892E00E94D825498D5A8D6B8D7C8D8C
:101720002AE030E086E892E00E949A266CE770E0BA
:1017300086E892E00E94D8254AE050E0688D86E86D
:1017400092E00E94C12663E970E086E892E00E9480
:10175000D8254E815F81688579852AE030E086E86A
:1017600092E00E949A266BE970E086E892E00E947F
:10177000D825CE010A960E944E22FC01608171811B
:101780004AE050E086E892E00E94BB266DEA70E0F5
:1017900086E892E0DF91CF910C94D8254F925F922A
:1017A0006F927F928F929F92AF92BF92CF92DF9271
:1017B000EF92FF920F931F93CF93DF9300D01F926E
:1017C000CDB7DEB77C015B01FC01418D528D638D8D
:1017D000748D452B462B472B09F47EC04C01FAE053
:1017E0008F0E911CC4010E944E22FC014081518148
:1017F000F70182819381248135811B825F934F930E
:101800003F932F939F938F938FEA90E09F938F93B3
:101810006E01F3E0CF0ED11CDF92CF920E94A30A9B
:10182000C5010E94E71EFC01608171818281938164
:10183000F701018D128D238D348D601B710B820B8E
:10184000930B208D30E040E050E00E942A29C9012E
:101850003A832983255436410FB6F894DEBF0FBE74
:10186000CDBF27353240B8F41B829F938F938BEC0A
:1018700090E09F938F93DF92CF920E94A30ABE01C4
:101880006F5F7F4FC4010E9438220F900F900F901E
:101890000F900F900F90C4010E944E22FC014081D6
:1018A0005181F70182819381248135811B825F936D
:1018B0004F933F932F939F938F9387EE90E09F9347
:1018C0008F93CE0103969F938F930E94A30A0FB626
:1018D000F894DEBF0FBECDBFC5010E94E71EFC011C
:1018E0004080518062807380C7010A960E944E2218
:1018F000B301A201445F514061097109FC0180817B
:101900009181480F591F611D711DF701468357834F
:101910006087718781E0808FC5010E94E71EFC010E
:101920004081518162817381F701418F528F638FB2
:10193000748F0F900F900F90DF91CF911F910F91A7
:10194000FF90EF90DF90CF90BF90AF909F908F90DF
:101950007F906F905F904F900895CF92DF92EF92BB
:10196000FF920F931F93CF93DF931F92CDB7DEB7F4
:101970008C01FC01C680D780E084F1840E94E027BE
:10198000C616D706E806F906E8F5F801C680D7803E
:10199000E084F184F0E7CF0EF7E1DF1EE11CF11CDB
:1019A0000E94E0276059784E8F4F9F4FC616D7068A
:1019B000E806F90638F50E94E027F801268137810C
:1019C0004085518519829F938F937F936F935F9387
:1019D0004F933F932F938DE291E09F938F93CE018E
:1019E00001969F938F930E94A30A4FEF5FEFBA0176
:1019F000F80146835783608771870FB6F894DEBF7E
:101A00000FBECDBF0A5F1F4FC8010F90DF91CF916E
:101A10001F910F91FF90EF90DF90CF9008950F935B
:101A20001F93CF93DF931F92CDB7DEB78C010A9639
:101A30000E944E22DC018D919C91F80146815781D4
:101A400060857185480F591F611D711D468357833D
:101A500060877187808D8F5F808F92812381348131
:101A6000E581F1E0F9831F928F937F936F935F93EA
:101A70004F93EF933F932F939F9384E491E09F9331
:101A80008F93CE0101969F938F930E94A30A0FB666
:101A9000F894DEBF0FBECDBF0F90DF91CF911F91A5
:101AA0000F910895BF92CF92DF92EF92FF920F9322
:101AB0001F93CF93DF931F92CDB7DEB78C01B12C6C
:101AC0002EC0D80112968D919C911397BDE1BB9EBB
:101AD000800D911D11240E94AD0CFC01C080D180AD
:101AE000E280F380D80115962C91159712968D916E
:101AF0009C911397BDE12B9F800D911D11240E9495
:101B0000AD0CFC014081518162817381C416D50600
:101B1000E606F70618F4D8011596BC92B394F801BE
:101B20008481B81670F2258182819381FDE12F9F17
:101B3000800D911D11240E94AD0CFC01408151814A
:101B400062817381D80115968C9115971296ED914B
:101B5000FC911397BDE18B9FE00DF11D1124828153
:101B600093812481358119827F936F935F934F9383
:101B70003F932F939F938F938AE691E09F938F9348
:101B8000CE0101969F938F930E94A30A0FB6F894FB
:101B9000DEBF0FBECDBF0F90DF91CF911F910F9190
:101BA000FF90EF90DF90CF90BF900895FC0185816A
:101BB0008F5F85839481891301C015820895AF9248
:101BC000BF92CF92DF92EF92FF920F93CF93DF936A
:101BD000C02FC15050E0D6E030E022C0AC2EB12C76
:101BE000F501E40FF51FDE9F7001DF9FF00C11245B
:101BF000DC01ED91FC91EE0DFF1DC280D380E480ED
:101C0000F580D501A20FB31FDA9FF001DB9FF00D25
:101C10001124E60FF71FC282D382E482F582C150FD
:101C2000C017E0F2DF91CF910F91FF90EF90DF901E
:101C3000CF90BF90AF9008958F929F92AF92BF9236
:101C4000CF92DF92EF92FF920F931F93CF93DF9388
:101C5000102F115050E03DE1932EA22EB12CEEE05A
:101C60008E2E41C0E12FF0E09F01240F351F929E80
:101C7000D001939EB00D1124EC01288139812A0FE7
:101C80003B1FEA0DFB1D9E9EE0019F9ED00D11247F
:101C9000C60FD71FF901C280D380E480F580CA82C5
:101CA000DB82EC82FD82C680D780E084F184CE8224
:101CB000DF82E886F9863A96DE011A96F82C0190C2
:101CC0000D92FA94E1F7D9015896EC915897E88F64
:101CD0005996CD90DD90ED90FC905C97C98EDA8E90
:101CE000EB8EFC8E1150101708F4BCCFDF91CF9112
:101CF0001F910F91FF90EF90DF90CF90BF90AF902A
:101D00009F908F900895FC0181E081834FEF5FEFFA
:101D1000BA01428353836483758386831286118656
:101D200013861486158616861786108A118A128ADB
:101D3000138A148A158A82E391E090878783118E33
:101D4000108E128E138E148E158E168E178E10A274
:101D500011A212A213A214A28CE391E0978B868B9E
:101D600015A216A217A210A611A608950E94462039
:101D70000C94A81F7F928F929F92AF92BF92CF92A6
:101D8000DF92EF92FF920F931F93CF93DF931F92F7
:101D9000CDB7DEB77C0167E873E086E892E00E9489
:101DA000D825D701ED91FC910480F581E02DC70184
:101DB00009956BE973E086E892E00E9416260E947E
:101DC0006E23762E862E912CBDE16B9FC0011124CF
:101DD00002960E9471226C01FC01819291928F0106
:101DE000A12CB12C05C0C8010E94290B035E1F4F16
:101DF000FFEFAF1ABF0AC4018A199B09019699F730
:101E000082E0C80ED11CC114D10499F0D7011496F8
:101E10007C92149716960C9120E040E0B601C70121
:101E200002960E941C0EF701828193810097A1F413
:101E300036C082E0898386EA93E09F938F93CE0138
:101E400001969F938F930E94A30A0F900F900F907B
:101E50000F9062EA73E028C0FC0132972081318143
:101E60004DE1429F8001439F100D1124080F191F5F
:101E7000C801D70112962D913C9113970D5111096C
:101E80008217930749F0D801ED91FC910190F08100
:101E9000E02DC8010995ECCF02970E947322F7014B
:101EA000D382C2826EE973E086E892E00E94162631
:101EB0000F90DF91CF911F910F91FF90EF90DF90E6
:101EC000CF90BF90AF909F908F907F9008957F921A
:101ED0008F929F92AF92BF92CF92DF92EF92FF923A
:101EE0000F931F93CF93DF931F92CDB7DEB77C0183
:101EF00062EC73E086E892E00E94D825D701ED916C
:101F0000FC910480F581E02DC701099566ED73E031
:101F100086E892E00E9416260E946E23762E862E78
:101F2000912CB6E06B9FC001112402960E94712291
:101F30006C01FC01819291928F01A12CB12C02C005
:101F40000E940C0BC801FFEFAF1ABF0A0A5F1F4FB8
:101F500094012A193B092F3F3F4F91F782E0C80EA9
:101F6000D11CC114D10499F0D70114967C92149716
:101F700016960C9120E040E0B601C70102960E943F
:101F8000DF0DF701828193810097A1F436C082E0D2
:101F9000898381EE93E09F938F93CE0101969F9367
:101FA0008F930E94A30A0F900F900F900F906DEDEA
:101FB00073E028C0FC0132972081318146E0429FC6
:101FC0008001439F100D1124080F191FC801D7016C
:101FD00012962D913C911397065011098217930781
:101FE00049F0D801ED91FC910190F081E02DC801FC
:101FF0000995ECCF02970E947322F701D382C28227
:1020000069ED73E086E892E00E9416260F90DF915A
:10201000CF911F910F91FF90EF90DF90CF90BF90E5
:10202000AF909F908F907F9008951F93CF93DF93F1
:10203000EC0163E374E086E892E00E94162667E311
:1020400074E086E892E00E94D825E881F981048056
:10205000F581E02DCE01099569E374E086E892E010
:102060000E94162610E01DC08A819B8126E0129FE7
:10207000800D911D1124DC01ED91FC910480F5810E
:10208000E02D0995212F30E08E8190E001972817EF
:10209000390734F46EE374E086E892E00E94162675
:1020A0001F5F8E81181700F360E474E086E892E009
:1020B000DF91CF911F910C9416262F923F924F9251
:1020C0005F926F927F928F929F92AF92BF92CF92C8
:1020D000DF92EF92FF920F931F93CF93DF9300D085
:1020E00000D000D0CDB7DEB78C017C836B831A01A2
:1020F000DB01CD90DD90ED90FC90FC018780908419
:10210000A184B284C814D904EA04FB0418F4DA01E7
:102110001C929AC0FC014384548465847684F681C1
:10212000FA834C145D046E047F0418F4DA01FC9306
:102130008BC0FA81F23008F484C0C701B601681977
:1021400079098A099B090E9499076B017C01C301E7
:10215000B201681979098A099B090E9499079B01B4
:10216000AC01C701B6010E941C066B017C014A81CB
:10217000642F70E061507109882777FD8095982F52
:102180000E94EE069B01AC01C701B6010E94370513
:102190000E945C03D1016C93F8018681681708F0F6
:1021A0008C93D1018C918823D1F0D8011296ED91B6
:1021B000FC911397BDE18B9FE00DF11D11248280EE
:1021C0009380A480B580EB81FC81C080D180E280C7
:1021D000F380C814D904EA04FB0408F45EC0D101FA
:1021E0002C91F8013681AB81BC81CD90DD90ED90D2
:1021F000FC90BDE12B9FC0011124231798F0D8015A
:102200001296ED91FC911397E80FF91F81E042813E
:102210005381648175814C155D056E057F0509F458
:1022200044C012C00280F381E02DE80FF91F8280C4
:102230009380A480B5808C149D04AE04BF0488F103
:10224000DECFBA81B13011F080E02FC0FC01828175
:102250009381009789F482E0898387EE92E09F93CF
:102260008F93CE0101969F938F930E94A30A0F90A4
:102270000F900F900F9002C09E838D83ED81FE81A1
:1022800082819381A481B581C816D906EA06FB062E
:10229000D9F6D1011C9281E008C08150F101808300
:1022A00080CF2F5FD1012C939ACF26960FB6F8944A
:1022B000DEBF0FBECDBFDF91CF911F910F91FF9079
:1022C000EF90DF90CF90BF90AF909F908F907F90D6
:1022D0006F905F904F903F902F9008956F927F92F4
:1022E0008F929F92AF92BF92CF92DF92EF92FF9226
:1022F0000F931F93CF93DF93CDB7DEB76F970FB6D2
:10230000F894DEBF0FBECDBF7C016B011F8EAE0106
:10231000415E5F4F0E945D108823F9F0D6018C91D9
:1023200011969C91119712962C91129713963C91AD
:102330001E8E3F932F939F938F938FEC92E09F93EA
:102340008F93CE014E969F938F930E94A30A0FB650
:10235000F894DEBF0FBECDBF92C0D70116960C9188
:10236000169714966C901497061508F04FC04F8D71
:10237000041B242F2F5F12966D917C911397C70138
:1023800002960E941C0EB601CE0101960E94500BCF
:102390002F8DF70182819381FDE12F9F800D911D8B
:1023A00011244B815C816D817E81DC0112964D93FD
:1023B0005D936D937C9315974F81588569857A85D8
:1023C000FC0146835783608771872EE0FE013B96B0
:1023D0001A9601900D922A95E1F7298DDC01589605
:1023E0002C934A8D5B8D6C8D7D8DFC01418F528FBE
:1023F000638F748FCE0101960E94A609D7011696AD
:102400008C9116978F5F16968C93B9C0712C4301EF
:10241000BFEF8B1A9B0A2DE1289DC001299D900DCD
:10242000112402960E9471225C01FC01819291921A
:102430008F01812C912C08C0C8010E94290B035EDA
:102440001F4FFFEF8F1A9F0AC30188199909019640
:1024500099F732E0A30EB11CA114B10491F483E00A
:102460008E8F88E093E09F938F93CE014E969F933B
:102470008F930E94A30A0F900F900F900F9080E00F
:10248000B9C0470182E0880E911C0F8D20E040E02A
:10249000B501C4010E941C0EB601CE0101960E9436
:1024A000500B8F8D95019DE1899F200D311D1124C9
:1024B0004B815C816D817E81D90112964D935D9334
:1024C0006D937C9315974F81588569857A85F901BD
:1024D00046835783608771878EE0FE013B961A968C
:1024E00001900D928A95E1F7898DD90158968C93C8
:1024F0004A8D5B8D6C8D7D8DF901418F528F638F7D
:10250000748FCE0101960E94A6094F8DD7011696B1
:102510000C91041B242F2F5FB501C4010E941C0ED7
:10252000F70182819381009719F1FC013297208194
:1025300031814DE1429F8001439F100D1124080F0E
:10254000191FC801D70112962D913C9113970D5177
:1025500011098217930749F0D801ED91FC91019080
:10256000F081E02DC8010995ECCF02970E947322FB
:10257000F701B382A28284818F5F84838683D7012F
:1025800014968C911497F601408151816281738178
:10259000813061F41B964D935D936D937C931E97F0
:1025A000F701478350876187728724C0D7011B9644
:1025B0000D911D912D913C911E970417150726072B
:1025C000370730F4F701438754876587768711C052
:1025D000D70117960D911D912D913C911A97401797
:1025E00051076207730728F4F70147835087618713
:1025F000728781E06F960FB6F894DEBF0FBECDBF35
:10260000DF91CF911F910F91FF90EF90DF90CF90CE
:10261000BF90AF909F908F907F906F9008950F9391
:102620001F93CF93DF9300D000D0CDB7DEB78C01DE
:1026300065EA72E086E892E00E94D825D801ED9123
:10264000FC910480F581E02DC801099560EB72E0F2
:1026500086E892E00E9416260E946E2369837A83A0
:102660008B839C83BE016F5F7F4FC8010E946E11F8
:10267000882319F063EC72E002C067EC72E086E830
:1026800092E00E94D8256CEB72E086E892E00E940E
:10269000D825D801ED91FC910480F581E02DC80189
:1026A000099549815A816B817C812AE030E086E876
:1026B00092E00E94A7260F900F900F900F90DF914D
:1026C000CF911F910F9108952F923F924F925F9259
:1026D0006F927F928F929F92AF92BF92CF92DF9232
:1026E000EF92FF920F931F93CF93DF9300D000D010
:1026F00000D0CDB7DEB78C017C836B831A01DB0180
:10270000CD90DD90ED90FC90FC0187809084A184B9
:10271000B284C814D904EA04FB0418F4DA011C9248
:102720009AC0FC014384548465847684F681FA83DC
:102730004C145D046E047F0418F4DA01FC938BC022
:10274000FA81F23008F484C0C701B601681979092A
:102750008A099B090E9499076B017C01C301B201A0
:10276000681979098A099B090E9499079B01AC01A4
:10277000C701B6010E941C066B017C014A81642FCF
:1027800070E061507109882777FD8095982F0E942D
:10279000EE069B01AC01C701B6010E9437050E94FD
:1027A0005C03D1016C93F8018681681708F08C9363
:1027B000D1018C918823D1F0D8011296ED91FC9132
:1027C0001397B6E08B9FE00DF11D1124828093805A
:1027D000A480B580EB81FC81C080D180E280F38051
:1027E000C814D904EA04FB0408F45EC0D1012C919A
:1027F000F8013681AB81BC81CD90DD90ED90FC90ED
:10280000B6E02B9FC0011124231798F0D80112962F
:10281000ED91FC911397E80FF91F81E042815381FC
:10282000648175814C155D056E057F0509F444C012
:1028300012C00280F381E02DE80FF91F828093809F
:10284000A480B5808C149D04AE04BF0488F1DECF53
:10285000BA81B13011F080E02FC0FC0182819381F8
:10286000009789F482E0898388E593E09F938F93B2
:10287000CE0101969F938F930E94A30A0F900F9011
:102880000F900F9002C09E838D83ED81FE81828127
:102890009381A481B581C816D906EA06FB06D9F64C
:1028A000D1011C9281E008C08150F101808380CF6A
:1028B0002F5FD1012C939ACF26960FB6F894DEBFE6
:1028C0000FBECDBFDF91CF911F910F91FF90EF9081
:1028D000DF90CF90BF90AF909F908F907F906F9040
:1028E0005F904F903F902F9008956F927F928F92BC
:1028F0009F92AF92BF92CF92DF92EF92FF920F938F
:102900001F93CF93DF93CDB7DEB728970FB6F89418
:10291000DEBF0FBECDBF7C016B011886AE01485FE4
:102920005F4F0E9464138823F9F0D6018C911196B1
:102930009C91119712962C91129713963C911F829D
:102940003F932F939F938F9380E493E09F938F9374
:10295000CE0107969F938F930E94A30A0FB6F89417
:10296000DEBF0FBECDBF6FC0D70116960C91169774
:1029700014966C901497061560F54885041B242F57
:102980002F5F12966D917C911397C70102960E945A
:10299000DF0DB601CE0101960E94190B88854B818F
:1029A0005C816D817E81D7011296ED91FC91139728
:1029B000B6E08B9FE00DF11D1124428353836483A5
:1029C0007583CE0101960E94A009F70186818F5F71
:1029D00098C0712C4301FFEF8F1A9F0A26E0289DB3
:1029E000C001299D900D112402960E9471225C0164
:1029F000DC018D929D928D01812C912C05C00E944D
:102A00000C0BBFEF8B1A9B0AC8010A5F1F4F930183
:102A1000281939092F3F3F4F91F7F2E0AF0EB11C53
:102A2000A114B10491F483E08F8389E793E09F932D
:102A30008F93CE0107969F938F930E94A30A0F90C6
:102A40000F900F900F9080E098C0470142E0840EF5
:102A5000911C088520E040E0B501C4010E94DF0D13
:102A6000B601CE0101960E94190B88854B815C81CD
:102A70006D817E81F50196E0899FE00DF11D1124A5
:102A80004283538364837583CE0101960E94A0091B
:102A90004885D70116960C91041B242F2F5FB50192
:102AA000C4010E94DF0DF70182819381009719F123
:102AB000FC0132972081318146E0429F8001439F93
:102AC000100D1124080F191FC801D70112962D915E
:102AD0003C911397065011098217930749F0D801CA
:102AE000ED91FC910190F081E02DC8010995ECCFAA
:102AF00002970E947322F701B382A28284818F5FC2
:102B000084838683D70114968C911497F6014081B3
:102B1000518162817381813061F41B964D935D9385
:102B20006D937C931E97F701478350876187728767
:102B300024C0D7011B960D911D912D913C911E979C
:102B4000041715072607370730F4F7014387548722
:102B50006587768711C0D70117960D911D912D912C
:102B60003C911A97401751076207730728F4F70141
:102B7000478350876187728781E028960FB6F89463
:102B8000DEBF0FBECDBFDF91CF911F910F91FF90A0
:102B9000EF90DF90CF90BF90AF909F908F907F90FD
:102BA0006F9008950F931F93CF93DF93EC01FB0178
:102BB0008081882351F0813059F5BE016E5F7F4FCF
:102BC000CE0107960E946E110BC08E010E5F1F4F43
:102BD000C8010E946B21B801CE0146960E9475146F
:102BE0008823B1F061E775E086E892E00E94D8257D
:102BF0004A815B816C817D812AE030E086E892E049
:102C00000E949A2667E775E086E892E00E94162601
:102C10004FEF5FEFBA014A835B836C837D83DF9163
:102C2000CF911F910F9108950F931F93CF93DF932F
:102C300000D000D0CDB7DEB78C0166E173E086E846
:102C400092E00E94D825D801ED91FC910480F58195
:102C5000E02DC801099561E273E086E892E00E94E8
:102C600016260E946E2369837A838B839C83BE0120
:102C70006F5F7F4FC8010E947514882319F064E3C9
:102C800073E002C068E373E086E892E00E94D82512
:102C90006DE273E086E892E00E94D825D801ED91BC
:102CA000FC910480F581E02DC801099549815A8184
:102CB0006B817C812AE030E086E892E00E94A726C2
:102CC0000F900F900F900F90DF91CF911F910F9168
:102CD0000895EF92FF920F931F93CF93DF931F926C
:102CE000CDB7DEB78C0186E892E00E94F9237C0123
:102CF0009C0133272436310509F4CDC0F4F42E3479
:102D0000310509F4B9C06CF42434310509F4ECC080
:102D10002C34310509F44EC12D30310509F04FC175
:102D20005FC12136310559F12236310509F499C0C8
:102D30002335310509F043C1A9C02E36310509F408
:102D400096C054F42C36310509F4F0C0FCF42B364F
:102D5000310509F034C179C02337310509F491C038
:102D60002CF42037310509F02AC115C0253731056B
:102D700009F470C02637310509F021C135C081E062
:102D8000D80111968C9361E971E026C1F801118296
:102D900062EA71E021C1D80111968C91882319F063
:102DA00064EB71E019C16EED71E086E892E00E947B
:102DB00016260E946E23F8016283738384839583B1
:102DC0006CEE71E086E892E00E94D825D801129658
:102DD0004D915D916D917C9115972AE030E086E8E8
:102DE00092E00E94A726FCC062E072E086E892E0D2
:102DF0000E94162610E01983CE0101960E94730AE4
:102E000061EA72E086E892E00E94D8251F5F1430E4
:102E100091F71983CE0101960E94730A64EA72E069
:102E200086E892E00E9416260E946E2360930601B7
:102E300067E172E086E892E00E94D82586E091E0A2
:102E40000E94730A6DE272E0C7C0F80116826EE25A
:102E500072E0C2C081E0D80116968C936AE572E0F8
:102E6000BBC082E0F801868366E772E0B5C0C801A6
:102E700007960E940F13B4C0C80146960E9414160C
:102E8000AFC0C80107960E94BA0EAAC0C8014696F4
:102E90000E94670FA5C07801F7E0EF0EF11CD80182
:102EA0001C961C921C971D961C921D97F801128A65
:102EB000138A148A158A1E961D921D921D921C92C9
:102EC00051976DEF73E086E892E00E94D825D80113
:102ED0001796ED91FC9118970480F581E02DC701BC
:102EE00009956DE074E078C07801B6E1EB0EF11C55
:102EF000F801138E148E11A212A213A214A2158E21
:102F0000168E178E10A26FE074E086E892E00E94A1
:102F1000D825D8015696ED91FC9157970480F581FC
:102F2000E02DC70109956FE174E056C07801B7E064
:102F3000EB0EF11C61E274E086E892E00E94162636
:102F400065E274E086E892E00E94D825D8011796E1
:102F5000ED91FC9118970480F581E02DC70109954A
:102F600067E274E086E892E00E94162610E01BC03B
:102F7000F70182819381FDE11F9F800D911D112436
:102F80000E94730B212F30E0D70116968C9190E0B0
:102F900001972817390734F46CE274E086E892E070
:102FA0000E9416261F5FF7018681181708F36EE24C
:102FB00074E012C0C80146960E94151011C064E862
:102FC00072E086E892E00E94D8256E2D86E892E0B5
:102FD0000E94F9256FE972E086E892E00E941626C9
:102FE0000F90DF91CF911F910F91FF90EF90089577
:102FF0006F927F928F929F92AF92BF92CF92DF9209
:10300000EF92FF920F931F93CF93DF931F92CDB751
:10301000DEB74C013B015A01FA0180819181228186
:10302000338119823F932F939F938F9387E595E088
:103030009F938F938E010F5F1F4F1F930F930E94DB
:10304000A30A0FB6F894DEBF0FBECDBFF301808197
:10305000813009F03FC01982A801B501C40107966B
:103060000E945D10811155C035C01982AE014F5FBD
:103070005F4FB501C40146960E94641381112FC0B1
:103080003DC0F401028313832483358332C0F401ED
:10309000C280D380E480F580C016D106E206F30634
:1030A00009F427C069E675E086E892E00E94D82519
:1030B000F50140815181628173812AE030E086E828
:1030C00092E00E949A266FE675E086E892E00E9400
:1030D00016261FC0F3018081811110C0C6CFF501F3
:1030E0004081518162817381F401428353836483FF
:1030F0007583B301C4010E94D2150BC0F401818114
:10310000F5010081118122813381882309F4BFCF29
:10311000B8CF0F90DF91CF911F910F91FF90EF905B
:10312000DF90CF90BF90AF909F908F907F906F90E7
:1031300008952F923F924F925F926F927F928F925B
:103140009F92AF92BF92CF92DF92EF92FF920F9336
:103150001F93CF93DF93CDB7DEB72E970FB6F894BA
:10316000DEBF0FBECDBF3C017B876A87412C512C4F
:10317000312C4E0125E0820E911C46969E878D874C
:10318000D3011796B987A887B5E2B49D5001B59DC4
:10319000B00C1124EDE8F1E0AE0EBF1E8501C501B3
:1031A0000E944D1C882309F4E0C0C5010E94BB1D8C
:1031B000DC018C918F83C5010E94D11E882309F404
:1031C000AAC0C5010E94E21EFC010081118122817A
:1031D000338109831A832B833C8381E0AA85BB85D5
:1031E000CD90DD90ED90FC900C151D052E053F0552
:1031F00009F080E0382AC5010E942D1E882391F035
:10320000D501ED91FC910480F581E02DC501099572
:10321000AE014F5F5F4FBE01695F7F4FC3010E94E8
:10322000F817ABC01F81112309F44AC0113009F00F
:1032300094C0AE014A5F5F4FBE016F5F7F4F8885CC
:1032400099850E945D10882369F1C5010E94251DA2
:10325000F301218532852115310561F08E81958537
:10326000891740F4FDE18F9F200D311D1124222E7E
:103270003C870EC022E02D8326E335E03F932F9359
:103280009F928F920E94A30A0F900F900F900F9021
:10329000B501822D9C850E94CE0B888599850E9460
:1032A000520D5BC089819A812B813C811D833F93A4
:1032B0002F939F938F9383ED94E09F938F9319C0E7
:1032C0001D82A401BE016F5F7F4F8D859E850E9488
:1032D000641381111CC089819A812B813C81B1E0EA
:1032E000BD833F932F939F938F93E9EFF4E0FF9378
:1032F000EF939F928F920E94A30A0FB6F894DEBFBD
:103300000FBECDBFD30116968C91882331F1C50134
:103310000E94251D22C08F81813019F426E531E0FD
:1033200002C029E531E0B1E0BD833F932F93E0E295
:10333000F5E0FF93EF939F928F920E94A30A0F9064
:103340000F900F900F900F900F90D30116968C91C5
:10335000823019F4C8010E94241CD501ED91FC9122
:103360000480F581E02DC5010995BFEF4B1A5B0A7A
:10337000E5E04E16510409F007CF832D2E960FB6C7
:10338000F894DEBF0FBECDBFDF91CF911F910F919B
:10339000FF90EF90DF90CF90BF90AF909F908F9075
:1033A0007F906F905F904F903F902F9008958F92F5
:1033B0009F92AF92BF92CF92DF92EF92FF92CF9304
:1033C000DF9300D000D01F92CDB7DEB76C017B0138
:1033D0005A010E94E027F50180809180A280B3808D
:1033E000680D791D8A1D9B1D69837A838B839C835D
:1033F000F70180819181228133811D823F932F9338
:103400009F938F93BF92AF929F928F9229EB34E05C
:103410003F932F939E012B5F3F4F3F932F930E942B
:10342000A30A0FB6F894DEBF0FBECDBF06C0B7012A
:10343000C6010E949918811107C0CE0101960E9411
:1034400092238111F4CF01C081E00F900F900F9073
:103450000F900F90DF91CF91FF90EF90DF90CF9082
:10346000BF90AF909F908F900895EF92FF920F932F
:103470001F93CF93DF9300D000D000D0CDB7DEB73D
:103480008C01DC011C962C911C9719968D919C91B6
:103490001A97BDE12B9F800D911D11240E94AD0C48
:1034A000FC014081518162817381F801848501842E
:1034B000F285E02D2DE1829FE00DF11D1124828126
:1034C0009381248135811D827F936F935F934F9306
:1034D0003F932F939F938F938DE794E09F938F93C8
:1034E0007E0135E0E30EF11CFF92EF920E94A30AE9
:1034F00048EE53E060E070E049835A836B837C833D
:10350000D8011C968C911C9719966D917C911A97F5
:10351000BDE18B9F600D711D11246E5F7F4FAE0169
:103520004F5F5F4FC8010E94D7191D821F928F9372
:103530002FE934E03F932F93FF92EF928E830E9406
:10354000A30A0FB6F894DEBF0FBECDBF8E818111E6
:103550000FC0D8011C962C911C9719968D919C91A7
:103560001A97BDE12B9F800D911D11240E940F0D14
:1035700026960FB6F894DEBF0FBECDBFDF91CF9178
:103580001F910F91FF90EF9008950F931F93CF938A
:10359000DF9300D000D01F92CDB7DEB78C01DC01E5
:1035A0005C968C91882309F4A8C0F801838D811161
:1035B00012C085A1882309F499C00DC00E94E0279C
:1035C0006059784E8F4F9F4FD80196966D937D939B
:1035D0008D939C939997F801238D808D918DF6E0C2
:1035E0002F9F800D911D112402960E94B92144E65F
:1035F00050E060E070E049835A836B837C83D8019C
:103600005B968C915B9758966D917C915997B6E03B
:103610008B9F600D711D11246E5F7F4FAE014F5F58
:103620005F4FC8010E94D719882339F0C801469618
:103630000E94D60DF80115A260C0D80195968C9114
:103640009597853030F55B969C915B975896ED91F8
:10365000FC915997B6E09B9FE00DF11D11249281DA
:103660002381348145811D821F928F934F933F9315
:103670002F939F9385E494E09F938F93CE010596BB
:103680009F938F930E94A30AF80185A18F5F85A362
:1036900027C0C80146960E94D60DD8015B968C9132
:1036A0005B975896ED91FC915997B6E08B9FE00D92
:1036B000F11D1124828193812481358141E04D8364
:1036C0003F932F939F938F9381E694E09F938F93E3
:1036D000CE0105969F938F930E94A30AF80115A22D
:1036E0000FB6F894DEBF0FBECDBF07C0C8018696E7
:1036F0000E949223882309F461CF0F900F900F90BE
:103700000F900F90DF91CF911F910F9108950F931C
:103710001F93CF93DF9300D000D0CDB7DEB78C01DD
:10372000FC018585811104C0C8010E94C51A12C020
:10373000F801248581859285FDE12F9F800D911DE3
:1037400011240E94AD0C0E9492238111EDCFC8017B
:103750000E94351A19821A821B821C82BE016F5F79
:103760007F4FC8010E94991886E892E00E94CA2300
:10377000892B19F0C8010E9469160F900F900F90C5
:103780000F90DF91CF911F910F91089521E631E0C5
:10379000FC01318320830895FC0113820895FC010C
:1037A0001382128E089521E631E0FC0131832083DB
:1037B000089521E631E0FC01318320830C946F22CF
:1037C00021E631E0FC01318320830C946F22FC015F
:1037D00081E691E09183808381E182831382089561
:1037E000FC0193818281981750F48381DB019C91C5
:1037F000DF01A80FB11D14969C938F5F83830895FA
:10380000CF92DF92EF92FF920F931F93CF93DF93AC
:103810007C016B018A01C0E0D0E007C0B6016C0FEB
:103820007D1FC7010E94F01B2196F801808190E066
:10383000C817D9079CF3DF91CF911F910F91FF908B
:10384000EF90DF90CF9008950F931F93CF93DF9366
:103850008C01C0E0D0E011C0F801EC0FFD1F6481C5
:1038600040E150E086E892E00E94C1266AE775E0F8
:1038700086E892E00E94D8252196F801828190E0A6
:10388000C817D9074CF36CE775E086E892E0DF9142
:10389000CF911F910F910C941626FC0123819281E8
:1038A00081E0291708F480E00895282FFB0130817A
:1038B000E82FF92F80E002C09191890F9E2F921B73
:1038C0009317D0F30895FC0193818281981748F4EF
:1038D0009381DF01A90FB11D14968C919F5F938393
:1038E000089580E008959F92AF92BF92CF92DF92A9
:1038F000EF92FF920F931F93CF93DF93CDB7DEB775
:1039000028970FB6F894DEBF0FBECDBF8C016B01B8
:103910007A01B22E85E589838DE28A8384ED8B83DB
:1039200080E48C831D8283E0888782E08F83902EE1
:10393000A12ED801ED91FC910480F581E02DC80104
:103940000995AE01485F5F4FBE016F5F7F4FC801B1
:103950000E94001CA701B601C8010E94001CBB20E8
:1039600059F0B701C6010E94551C8E83BE016A5FE3
:103970007F4FC8010E94F01BAE01495F5F4FBE013F
:103980006C5F7F4F892D9A2D0E94001CF70180816A
:103990008B5F8B0DD80112968C93129713961C9205
:1039A00028960FB6F894DEBF0FBECDBFDF91CF9142
:1039B0001F910F91FF90EF90DF90CF90BF90AF904D
:1039C0009F900895FC0181E1828313828BE691E050
:1039D0009183808381E0858B168A178A108E118EE1
:1039E000128E4FEF5FEFBA0141A352A363A374A3FA
:1039F00008950F931F93CF93DF93EC018B019B816D
:103A00008A819817E8F48B81811111C00E94E02708
:103A10006E8B7F8B888F998FF8018081823519F4A6
:103A20001D8A8CE003C081E08D8B80E18A838B81CD
:103A3000F8019081FE01E80FF11D94838F5F8B8365
:103A4000DF91CF911F910F910895FF920F931F93D4
:103A5000CF93DF93EC016DE775E086E892E00E947A
:103A6000D82549A15AA16BA17CA12AE030E086E8C3
:103A700092E00E949A2663E875E086E892E00E9450
:103A8000D8254E895F89688D798D2AE030E086E8F7
:103A900092E00E949A268E01F12CF801838D948D7C
:103AA0000196E1F069E875E086E892E00E94D82589
:103AB0004AE050E06F2D86E892E00E94C1266DE852
:103AC00075E086E892E00E94D825F801638D748D38
:103AD0004AE050E086E892E00E94BB26F3940E5F35
:103AE0001F4FF3E0FF12D9CF8D89811112C060E919
:103AF00075E086E892E00E94D8258E85833519F41A
:103B00006AE975E002C06DE975E086E892E00E941E
:103B1000D82561EA75E086E892E0DF91CF911F91A8
:103B20000F91FF900C9416260F931F93CF93DF9362
:103B30001F92CDB7DEB78C01DC0112968C918150BB
:103B40008983BE016F5F7F4FC80104960E94551C98
:103B5000D8011296EC91F0E03197E00FF11F9481BB
:103B6000891302C081E001C082E00F90DF91CF9104
:103B70001F910F9108959C012B5E3F4FC90108953D
:103B8000CF93DF93FC018FEF9FEF948F838F968FFE
:103B9000858F90A3878F8589882319F1813041F51E
:103BA00082E090E0DF01A80FB91F14964C911497A2
:103BB00047FF12C014965C911497EC012196CE0F2A
:103BC000DF1F4C81352F3F7720E0B901642BAB011B
:103BD0005A965C934E93599702968830910511F747
:103BE00007C035852485932F80E0822B948F838FA7
:103BF000DF91CF9108950F931F93FC0111A212A2A0
:103C000013A214A28589882369F0813019F5948163
:103C10008581592F5F7040E0662757FD6095762FAC
:103C2000482B14C0258146818781908550E060E053
:103C300070E0BA0155274427722B492B182F00E05A
:103C400020E030E0402B512B622B732B41A352A379
:103C500063A374A31F910F910895FC01858981309E
:103C600029F48481881F8827881F089582858334DA
:103C700021F4938581E09F3409F080E008958F92CC
:103C80009F92AF92BF92CF92DF92EF92FF920F93EB
:103C90001F93CF93DF93FC0199249394B12C60EC94
:103CA00070E0C0E8D0E000E410E044C080E090E0C4
:103CB000A12CEB2CF12CDC01AE0DBF1DAE0FBF1FF4
:103CC00014968C9020E030E0AB01022E02C0559596
:103CD00047950A94E2F7482150E06E01022E02C097
:103CE000D594C7940A94E2F74C155D0559F0680124
:103CF000022E02C0D594C7940A94E2F74C155D05D4
:103D000019F403C041E002C0912C40E0AA0CA42A9F
:103D10002E5F3F4F28303105B9F60196823091056C
:103D200051F68B2D8695DF01A80FB11D1496AC922C
:103D3000B394B3948281B81608F4B8CF8281869583
:103D40008283992011F081E001C082E0DF91CF9160
:103D50001F910F91FF90EF90DF90CF90BF90AF90A9
:103D60009F908F900895CF93DF93EC018D898823E6
:103D700031F0813041F4CE010E943F1E03C0CE01DC
:103D80000E94941D8A8F8A8D813041F4CE010E9459
:103D9000C01DCE01DF91CF910C94FB1DDF91CF911F
:103DA0000895CF93DF93EC018A8D811103C0CE017A
:103DB0000E94B31E81E09A8D913009F080E0DF917E
:103DC000CF9108959C012F5D3F4FC90108959C013B
:103DD0002A5E3F4FC90108950F931F93CF93DF933E
:103DE000EC0119928C0106541F4FCE010E94E21C77
:103DF000A596C017D107C9F7DF91CF911F910F91F9
:103E00000895FF920F931F93CF93DF931F92CDB727
:103E1000DEB78C01FC01808145E2F42E9801F89E0A
:103E2000200D311D1124C90101960E94F91CF801D1
:103E30008081F89EE00DF11D1124319693818281DD
:103E40009817B8F080E090E025E2289FF001299FC4
:103E5000F00D11243196E00FF11F43813281431799
:103E600018F4F801808317C001968530910569F731
:103E700002C080E011C083E0898383EA95E09F93CC
:103E80008F93CE0101969F938F930E94A30A0F9068
:103E90000F900F900F9081E00F90DF91CF911F91C5
:103EA0000F91FF90089525E731E0FC0131832083D5
:103EB0000C94C61BCF93DF93EC010E94531FCE01DD
:103EC000DF91CF910C946F221F93CF93DF9300D09B
:103ED0001F92CDB7DEB711E01B8389E392E89A8386
:103EE0008983BE016D5F7F4FCE0101960E94F12252
:103EF00010935B020F900F900F90DF91CF911F9165
:103F000008951F93CF93DF9300D01F92CDB7DEB7F4
:103F100011E01B8381E89AEC9A838983BE016D5F6F
:103F20007F4FCE0101960E94F1221B8383E89AEC19
:103F30009A838983BE016D5F7F4FCE0101960E94F7
:103F4000F1220F900F900F90DF91CF911F91089564
:103F5000CF93DF9300D01F92CDB7DEB781E08B8384
:103F600089ED92E89A838983BE016D5F7F4FCE0110
:103F700001960E94F12210925B020E94811F0F9015
:103F80000F900F90DF91CF910895CF93DF9300D0E2
:103F90001F92CDB7DEB786E492E00E94631C91E0E9
:103FA0009B8390E0986B9A838983BE016D5F7F4FFE
:103FB000CE0101960E94F12286E492E00E944D1CFF
:103FC00081110E94A81F0F900F900F90DF91CF9149
:103FD00008951F93CF93DF9300D0CDB7DEB781E074
:103FE0000E94B1221982CE0101960E94E922182F67
:103FF0001982CE0101960E94E92280915B02811113
:1040000039C015FF1DC01A82CE0102960E94E92216
:104010008983BE016F5F7F4F8CE891E00E94011F92
:10402000182F1A82CE0102960E94E9228983BE01CE
:104030006F5F7F4F8CE891E00E94011F182B12C028
:1040400017FF0FC01A82CE0102960E94E9228983CF
:10405000BE016F5F7F4F8CE891E00E94011F182F17
:1040600001C010E080E00E94B122112349F00E94BB
:10407000811F06C017FD0E94C51F80E00E94B1226B
:104080000F900F90DF91CF911F9108951F93CF93C1
:10409000DF9300D000D0CDB7DEB70E94B72211E089
:1040A0001C831A821982BE016C5F7F4FCE0101967C
:1040B0000E94F12260ED77E080E090E00E941C28F1
:1040C0001C8388ED90E89A838983BE016C5F7F4FE3
:1040D000CE0101960E94F1221C8381E092E89A832E
:1040E0008983BE016C5F7F4FCE0101960E94F12251
:1040F0001C8384E396EA9A838983BE016C5F7F4FB9
:10410000CE0101960E94F1221C8387E596EC9A83EA
:104110008983BE016C5F7F4FCE0101960E94F12220
:104120001C8380EC94E99A838983BE016C5F7F4F86
:10413000CE0101960E94F1221C838CE292EC9A83BC
:104140008983BE016C5F7F4FCE0101960E94F122F0
:104150001C8381E89AEC9A838983BE016C5F7F4F50
:10416000CE0101960E94F1221C8384ED9EEC9A837D
:104170008983BE016C5F7F4FCE0101960E94F122C0
:104180001C8387EF94EC9A838983BE016C5F7F4F19
:10419000CE0101960E94F1221C8380E298E99A8365
:1041A0008983BE016C5F7F4FCE0101960E94F12290
:1041B0001C8386E69CEC9A838983BE016C5F7F4FEB
:1041C000CE0101960E94F1221C8380E090EE9A833A
:1041D0008983BE016C5F7F4FCE0101960E94F12260
:1041E0001C8380E098EC9A838983BE016C5F7F4FCB
:1041F000CE0101960E94F1221C8380E090EC9A830C
:104200008983BE016C5F7F4FCE0101960E94F1222F
:104210001B8384EB95E09F938F93CE0103969F932E
:104220008F930E94A30A64EF71E080E090E00E9407
:104230001C2840E050E069EE7FE180E00E941C27EE
:104240000F900F900F900F900F900F900F900F9076
:10425000DF91CF911F910895CF93DF93CDB7DEB754
:104260002C970FB6F894DEBF0FBECDBF2BE0E7E072
:10427000F1E0DE01119601900D922A95E1F7DA0145
:104280002C9111963C9111971296EC9112971396DE
:104290004C914A83EB833C832D83FC0180818F8387
:1042A000DB018C9188878BE08C8721E0AE01445F35
:1042B0005F4FBE016F5F7F4F86E492E00E94731CE8
:1042C0000E94641F2C960FB6F894DEBF0FBECDBFC0
:1042D000DF91CF910895CF92DF92EF92FF920F93EB
:1042E0001F93CF93DF9300D0CDB7DEB78C01FC01D5
:1042F000808191812281338141E049833F932F93D3
:104300009F938F938BED95E09F938F93EE24E3948F
:10431000F12CEC0EFD1EFF92EF920E94A30A9BE48B
:10432000C92EC98221E4D22EDA82A801B701CE01BA
:1043300002960E942C2162E370E080E090E00E94EF
:104340001C28C982DA82A801B701CE0102960E9418
:104350002C210FB6F894DEBF0FBECDBF0F900F908B
:10436000DF91CF911F910F91FF90EF90DF90CF9051
:104370000895EF92FF920F931F93CF93DF9300D096
:10438000CDB7DEB78C01FC01808191812281338120
:1043900041E049833F932F939F938F9388EC95E05F
:1043A0009F938F93EE24E394F12CEC0EFD1EFF926D
:1043B000EF920E94A30A83E5898380E58A83A8019E
:1043C000B701CE0102960E942C210FB6F894DEBFF1
:1043D0000FBECDBF0F900F90DF91CF911F910F9126
:1043E000FF90EF9008950F931F93CF93DF938C016D
:1043F0000F5F1F4F79F0EC01C654DF4FC017D10794
:1044000049F0A597E881F9810190F081E02DCE0176
:104410000995F4CFDF91CF911F910F91089586E414
:1044200092E00E94E71B85E791E09093470280931A
:1044300046028CE891E00C94EC1E8CE891E00E941E
:10444000F32186E492E00C94531FFC01128680E76E
:1044500097E19487838721E02587918380839383E5
:104460008283958384839783868391878087089549
:10447000FC012285DB018D919C91DF0132E0239FBD
:10448000A00DB11D11248D939C93822F8F5F8530D9
:1044900011F0828701C0128615860895FC0185857A
:1044A00081111AC08081918122813381820F931FF3
:1044B00024813581820F931F26813781820F931FBC
:1044C00020853185820F931F65E070E00E941629D8
:1044D0007487638781E085873B96CF0108950C94AC
:1044E0003F2A0C94A4290C943F2A089540E052ECF2
:1044F00061E070E086E892E00E94D0246AEE75E008
:1045000086E892E00E9416268CE592E00E94B60EA4
:104510006BEF75E086E892E00C9416268CE592E04D
:104520000C94871B0E9442280E9476220E948E22B1
:10453000FDCF8CE592E00C94830E8CE391E0909398
:1045400073028093720282E792E00E940B0A82E378
:1045500091E0909364028093630283E692E00C946E
:10456000BA09882311F02A9808952A9A089580E0BC
:104570000E94B122229A61E08AE00E94DF2861E075
:104580008DE00E94A72861E08BE00E94A72861E0EF
:104590008AE00E94A72860E08CE00E94A72880E5BE
:1045A0008CBD60E082E00E94A72861E082E00E946A
:1045B000DF288DB581608DBD8CB58D7F8CBD8CB5B0
:1045C00081608CBD8CB5877F8CBD8CB58B7F8CBD9D
:1045D0000895FC0180818EBD0DB407FEFDCF8EB520
:1045E0000895CF92DF92EF92FF920F931F93CF9394
:1045F000DF931F92CDB7DEB77C016B01FB01808199
:1046000081112A98F70181818983CE0101960E9448
:10461000E922182F00E0F70180818983CE010196FD
:104620000E94E922082BF6018081882319F080E09E
:104630000E94B122C8010F90DF91CF911F910F917D
:10464000FF90EF90DF90CF900895DF92EF92FF926E
:104650000F931F93CF93DF93EC017B011882D12C32
:1046600086E892E00E94CA23892BE1F08E010D0DAD
:10467000111D86E892E00E94F923F8018083D3940B
:104680000D2D10E0FE01E00FF11F3197608186E8EB
:1046900092E00E94F925F701808190E001970817C8
:1046A000190739F0FE01ED0DF11D319780818D3034
:1046B000B9F669E076E086E892E00E94162686E880
:1046C00092E00E941B24CD0DD11D1882DF91CF9165
:1046D0001F910F91FF90EF90DF900895CF93DF939C
:1046E000CDB7DEB760970FB6F894DEBF0FBECDBF73
:1046F0008FE0888BBE01605F7F4FCE0101960E94E4
:10470000252340E050E060E070E0CE0101960E9479
:10471000DB2A60960FB6F894DEBF0FBECDBFDF91E7
:10472000CF910895CF92DF92EF92FF920F931F9354
:10473000CF93DF93EC010E94E027088119812A8141
:104740003B816017710782079307C8F00E94E0273A
:10475000605679478E4F9F4FC880D980EA80FB8092
:1047600020EAC20E26E8D21E21E0E21EF11C21E062
:104770006C157D058E059F0518F020E001C021E035
:10478000822FDF91CF911F910F91FF90EF90DF90DB
:10479000CF900895FC0184859585FC01E05CFF4F76
:1047A00020813181FC01EE5BFF4F80819181281BCC
:1047B000390B2F733327C9010895FC018485958532
:1047C000FC01E05CFF4F40815181FC01EE5BFF4F3B
:1047D000208131814217530741F00190F081E02D93
:1047E000E80FF91F208130E002C02FEF3FEFC90131
:1047F0000895FC0184859585FC01E05CFF4F4081B4
:104800005181FC01EE5BFF4F20813181421753073C
:1048100071F0A081B181A80FB91F2C918081918185
:1048200001968F7399279183808330E002C02FEF28
:104830003FEFC9010895FC0186859785FC01E05C86
:10484000FF4FDC01AE5BBF4F408151812D913C9108
:10485000119742175307C1F70895CF93DF93FC01D7
:1048600026853785D901A05CBF4F8D919C9111970A
:1048700001968F739927E901CE5BDF4F48815981FB
:1048800084179507D9F30D90BC91A02DA20FB31FEB
:104890006C93A685B785A05CBF4F11969C938E93B1
:1048A000A689B7892C9181E090E0058C02C0880F21
:1048B000991F0A94E2F7282B2C9381E090E0DF9176
:1048C000CF9108951F920F920FB60F9211242F933C
:1048D0003F934F938F939F93EF93FF934091C60025
:1048E0008091290390912A0301968F739927209133
:1048F0002B0330912C038217930759F0E091290381
:10490000F0912A03E751FD4F408390932A0380934F
:104910002903FF91EF919F918F914F913F912F919B
:104920000F900FBE0F901F9018951F920F920FB609
:104930000F9211242F933F938F939F93EF93FF93A5
:104940002091E5023091E6028091E7029091E80221
:104950002817390731F48091C1008F7D8093C10001
:1049600014C0E091E702F091E802EB55FD4F208181
:104970008091E7029091E80201968F7399279093B6
:10498000E8028093E7022093C600FF91EF919F9188
:104990008F913F912F910F900FBE0F901F90189500
:1049A000CF92DF92EF92FF92CF93DF93EC016A01F7
:1049B0007B01411581EE580761057105F9F0EC891D
:1049C000FD8981E090E00E8C02C0880F991F0A9447
:1049D000E2F7808360E079E08DE390E0A701960143
:1049E0000E942A29215031094109510956954795BC
:1049F00037952795211580E1380798F0EC89FD89D6
:104A0000108260E874E88EE190E0A70196010E94B0
:104A10002A29215031094109510956954795379561
:104A20002795E889F9893083EA89FB892083EE8913
:104A3000FF89408181E090E09C010A8C02C0220F36
:104A4000331F0A94E2F7422B4083EE89FF894081AD
:104A50009C010B8C02C0220F331F0A94E2F7422BF9
:104A60004083EE89FF8940819C010C8C02C0220F9B
:104A7000331F0A94E2F7422B4083EE89FF8920819D
:104A80000D8C02C0880F991F0A94E2F7809582234B
:104A90008083DF91CF91FF90EF90DF90CF900895CA
:104AA000109289021092880288EE93E0A0E0B0E0B4
:104AB00080938A0290938B02A0938C02B0938D0214
:104AC0008FE791E0909387028093860289EE92E0CF
:104AD000909393028093920285EA92E090939502DC
:104AE0008093940285EC90E09093970280939602D5
:104AF00084EC90E0909399028093980280EC90E08F
:104B000090939B0280939A0281EC90E090939D0297
:104B100080939C0286EC90E090939F0280939E028B
:104B200084E08093A00283E08093A10287E08093D9
:104B3000A20285E08093A30281E08093A4020895FD
:104B4000CF92DF92EF92FF920F931F93CF93DF9359
:104B50006C01EB017A01E60EF71E00E010E00BC0DD
:104B60006991D601ED91FC910190F081E02DC60193
:104B70000995080F191FCE15DF0591F7C801DF91C0
:104B8000CF911F910F91FF90EF90DF90CF900895FC
:104B9000DB010D900020E9F7AD0141505109461BA2
:104BA000570BDC01ED91FC910280F381E02D09941B
:104BB000EF92FF920F931F93CF93DF937C01EB0152
:104BC00000E010E0FE0121966491662351F0F701A8
:104BD000A081B181ED91FC91C7010995080F191FC2
:104BE000F1CFC801DF91CF911F910F91FF90EF900E
:104BF0000895DC01ED91FC910190F081E02D099484
:104C00000F931F93CF93DF93EC016DE00E94F92582
:104C10008C016AE0CE010E94F9259C01200F311F12
:104C2000C901DF91CF911F910F9108950F931F93A9
:104C3000CF93DF93EC010E94D8258C01CE010E9416
:104C400000269C01200F311FC901DF91CF911F91D8
:104C50000F9108950F931F93CF93DF93EC010E9460
:104C6000C8258C01CE010E9400269801280F391F0B
:104C7000C901DF91CF911F910F9108955F926F92BB
:104C80007F928F929F92AF92BF92CF92DF92EF92DC
:104C9000FF920F931F93CF93DF93CDB7DEB7A1970A
:104CA0000FB6F894DEBF0FBECDBF3C016A017B0199
:104CB000522E19A281E0821710F08AE0582E8E0140
:104CC0000F5D1F4F852C912CA12CB12CC701B60173
:104CD000A50194010E942A298C2D529E801911242D
:104CE000015011098A3010F4805D01C0895CF8011F
:104CF000808369017A01C114D104E104F10431F720
:104D0000B801C3010E94C825A1960FB6F894DEBF72
:104D10000FBECDBFDF91CF911F910F91FF90EF900C
:104D2000DF90CF90BF90AF909F908F907F906F90CB
:104D30005F9008952115310541F4DC01ED91FC915E
:104D40000190F081E02D642F09940C943E260F937E
:104D50001F93CF93DF93EC010E949A268C01CE0122
:104D60000E9400269C01200F311FC901DF91CF91C5
:104D70001F910F9108959A01AB0160E070E00C94CF
:104D80009A269A01462F50E060E070E00C949A2633
:104D9000CF92DF92EF92FF920F931F93CF93DF9307
:104DA000EC016A017B012115310579F4E881F98173
:104DB0000190F081E02D642FDF91CF911F910F9131
:104DC000FF90EF90DF90CF9009942A30310519F4CD
:104DD00077FD0EC02AE0B701A601CE01DF91CF9189
:104DE0001F910F91FF90EF90DF90CF900C943E2693
:104DF0006DE20E94F9258C0144275527BA014C1910
:104E00005D096E097F092AE0CE010E943E269C01C1
:104E1000200F311FC901DF91CF911F910F91FF909A
:104E2000EF90DF90CF9008959A01AB01662757FD70
:104E30006095762F0C94C8268230E8F4E82FF0E0D5
:104E4000EE0FFF1FE35DFC4F71836083813041F003
:104E5000809169008C7F842B80936900E89A089583
:104E600080916900440F551F440F551F837F842B89
:104E700080936900E99A08951F920F920FB60F92DE
:104E800011242F933F934F935F936F937F938F934F
:104E90009F93AF93BF93EF93FF9380912D039091D6
:104EA0002E03892B29F0E0912D03F0912E03099513
:104EB000FF91EF91BF91AF919F918F917F916F91F2
:104EC0005F914F913F912F910F900FBE0F901F90C8
:104ED00018951F920F920FB60F9211242F933F93A4
:104EE0004F935F936F937F938F939F93AF93BF93F2
:104EF000EF93FF9380912F0390913003892B29F03A
:104F0000E0912F03F09130030995FF91EF91BF914C
:104F1000AF919F918F917F916F915F914F913F9151
:104F20002F910F900FBE0F901F9018951F920F9208
:104F30000FB60F9211242F933F938F939F93AF93AC
:104F4000BF938091310390913203A0913303B091CC
:104F5000340330913903232F2D5F2D3720F4019630
:104F6000A11DB11D05C0232F2A570296A11DB11DF9
:104F7000209339038093310390933203A09333033A
:104F8000B09334038091350390913603A091370399
:104F9000B09138030196A11DB11D80933503909304
:104FA0003603A0933703B0933803BF91AF919F911D
:104FB0008F913F912F910F900FBE0F901F901895DA
:104FC0000F931F938FB7F894009131031091320320
:104FD00020913303309134038FBFB801C9011F9171
:104FE0000F9108950F931F939FB7F8940091350385
:104FF00010913603209137033091380386B5A89B72
:1050000006C08F3F21F00F5F1F4F2F4F3F4F9FBFB5
:10501000322F212F102F0027080F111D211D311DA8
:1050200042E0000F111F221F331F4A95D1F7B8012C
:10503000C9011F910F910895CF92DF92EF92FF92D5
:10504000CF93DF936B017C010E94F227EB010EC02E
:105050000E94F2276C1B7D0B683E734038F081E0A4
:10506000C81AD108E108F108C851DC4FC114D104B5
:10507000E104F10469F7DF91CF91FF90EF90DF90A9
:10508000CF900895789484B5826084BD84B58160A2
:1050900084BD85B5826085BD85B5816085BDEEE640
:1050A000F0E0808181608083E1E8F0E0108280811F
:1050B00082608083808181608083E0E8F0E080818D
:1050C00081608083E1EBF0E0808184608083E0EBAD
:1050D000F0E0808181608083EAE7F0E08081846095
:1050E00080838081826080838081816080838081F1
:1050F000806880831092C1000895833069F028F49D
:105100008130A1F0823011F514C08630B1F08730C3
:10511000C1F08430D9F404C0809180008F7703C03F
:10512000809180008F7D80938000089584B58F7773
:1051300002C084B58F7D84BD08958091B0008F77C3
:1051400003C08091B0008F7D8093B0000895CF930D
:10515000DF9390E0FC01E25EF94F4491FC01EE5CCC
:10516000F94F8491882341F190E0880F991FFC0149
:10517000E05BF94F25913491D9018A5B994FFC018D
:1051800085919491C82FD92F9FB7F8948C91611174
:1051900006C0409584238C938881842308C06230A4
:1051A00041F4242F209582238C938881842B88833B
:1051B00002C0842B8C939FBFDF91CF9108950F93F2
:1051C0001F93CF93DF931F92CDB7DEB7282F30E028
:1051D000F901E65FF94F8491F901E25EF94F14910C
:1051E000F901EE5CF94F04910023D1F0882321F0FE
:1051F00069830E947D286981E02FF0E0EE0FFF1F98
:10520000EA5BF94F85919491DC019FB7F8948C91FA
:10521000611103C01095812301C0812B8C939FBF26
:105220000F90DF91CF911F910F910895AA1BBB1B87
:1052300051E107C0AA1FBB1FA617B70710F0A61B96
:10524000B70B881F991F5A95A9F780959095BC01B7
:10525000CD010895A1E21A2EAA1BBB1BFD010DC0B2
:10526000AA1FBB1FEE1FFF1FA217B307E407F50716
:1052700020F0A21BB30BE40BF50B661F771F881FF2
:10528000991F1A9469F760957095809590959B0188
:10529000AC01BD01CF0108952F923F924F925F92D2
:1052A0006F927F928F929F92AF92BF92CF92DF9236
:1052B000EF92FF920F931F93CF93DF93CDB7DEB79B
:1052C000CA1BDB0B0FB6F894DEBF0FBECDBF09942F
:1052D0002A88398848885F846E847D848C849B8486
:1052E000AA84B984C884DF80EE80FD800C811B8194
:1052F000AA81B981CE0FD11D0FB6F894DEBF0FBEC3
:10530000CDBFED010895EE0FFF1F0590F491E02D44
:1053100009940E94922984FF0895CB010E9492294A
:10532000805F0895AA27992329F4A85F982B11F488
:1053300080E10895903118F4AD5F9295A395990F8F
:10534000E8F78A2F992708950F931F93CF93DF9340
:105350008230910510F482E090E0E0913C03F091FE
:105360003D0320E030E0C0E0D0E023C04081518127
:1053700048175907A8F04817590761F482819381AB
:10538000209719F09B838A832EC090933D038093CE
:105390003C0329C02115310529F04217530710F0AD
:1053A000A90102C0BE01DF0102811381EF019A0150
:1053B000F8013097D9F62115310509F1281B390B71
:1053C0002430310590F412968D919C9113976115BC
:1053D000710521F0FB019383828304C090933D0308
:1053E00080933C03FD01329644C0FD01E20FF31FA0
:1053F00081939193225031092D933C933AC020918F
:105400003A0330913B03232B41F420910201309168
:10541000030130933B0320933A0320910001309124
:1054200001012115310541F42DB73EB7409104012A
:1054300050910501241B350BE0913A03F0913B0399
:10544000E217F307A0F42E1B3F0B2817390778F05B
:10545000AC014E5F5F4F2417350748F04E0F5F1FBA
:1054600050933B0340933A038193919302C0E0E051
:10547000F0E0CF01DF91CF911F910F910895EF924E
:10548000FF920F931F93CF93DF93009709F48EC081
:10549000DC01129713961C921E921297E0903C0327
:1054A000F0903D03E114F10489F42D913C911197A2
:1054B000280F391F80913A0390913B03821793077D
:1054C00089F5B0933B03A0933A0370C0E70120E055
:1054D00030E001C0EA01CA17DB0738F44A815B817A
:1054E0009E0141155105B1F722C0AC01425051094E
:1054F000FA01D383C28300811181BC01600F711F47
:105500006C177D0761F468817981600F711F6E5F90
:105510007F4F718360836A817B81738362832115EE
:10552000310529F4B0933D03A0933C033FC0F9013A
:10553000B383A283E90149915991C40FD51FAC17D8
:10554000BD0771F4DC019E918E91840F951F029628
:105550009183808312968D919C911397938382837C
:10556000A0E0B0E002C0D7017C01F7018281938105
:105570000097C9F7C701029620813181820F931FDE
:1055800020913A0330913B032817390779F410979B
:1055900029F410923D0310923C0304C013961C9210
:1055A0001E921297F0923B03E0923A03CDB7DEB71A
:1055B000E6E00C947429A0E0B0E0E1EEFAE20C948D
:1055C0004C291B013A016115710519F0FB0180831B
:1055D00091836114710439F093012250310923320F
:1055E000310508F0C7C08C01F801D1918F012F015E
:1055F0008D2F90E00E94D62B892BB1F7DD3229F454
:10560000F801D1912F01C1E006C0DB3219F4F80195
:10561000D1912F01C0E06114710409F4B5C0F0E12B
:105620006F16710489F4B7C0F2018081883719F0D0
:10563000883509F0A3C0F201D181F2E04F0E511C70
:10564000C26050E1652E712C8AE06816710439F150
:10565000E0E16E16710429F0F8E06F16710491F420
:1056600007C0CC24CA94DC2CEC2C4FE0F42E1DC0D7
:1056700028E0622E712CCC24CA94DC2CEC2C3FE167
:10568000F32E13C09301442737FD4095542F6FEF3D
:105690007FEFCB010E942A2969017A0106C099E9AE
:1056A000C92EDC2CEC2C99E1F92E90E020E030E0C2
:1056B000A9014301AA2497FCA094BA2CED2FE05332
:1056C000EA3060F08D2F81548A3110F4E75006C023
:1056D0008D2F81568A3140F5ED2FE7556E2F70E002
:1056E000661577050CF59F3FD9F0C216D306E40680
:1056F000F50698F0C501B4010E947A2E9B01AC0119
:105700008E2F90E0A0E0B0E0280F391F4A1F5B1FEA
:10571000281739074A075B0710F49FEF01C091E093
:10572000F201D1912F01CACF2114310471F09923D4
:1057300021F0F1E04F1A510805C0C1FF06C0F2E0A8
:105740004F1A5108F10151824082C0FF07C05095A5
:105750004095309521953F4F4F4F5F4F97FF1FC0AA
:1057600082E290E090933F0380933E032FEF3FEF60
:10577000A90115C020E030E0A90111C0D0E36114F7
:10578000710409F475CF60CFD03309F44DCF8AE0AE
:10579000682E712C84CFD03309F056CF45CFB90194
:1057A000CA01CDB7DEB7E2E10C9468299111FFC1BF
:1057B000803219F089508550D0F70895AEE0B0E0FE
:1057C000E4EEFBE20C945A298C0186E08C831A8368
:1057D00009838FEF9FE79E838D83CE0101960E9400
:1057E000FA2BEF81F885E00FF11F10822E96E4E08E
:1057F0000C947629ACE0B0E0E0E0FCE20C944C299B
:105800007C016B018A01FC0117821682838181FF72
:10581000C7C188248394912C8C0E9D1EF70193811F
:10582000F60193FD859193FF81916F01882309F41F
:10583000B3C1853239F493FD859193FF81916F0156
:10584000853229F4B70190E00E94F02DE7CF712C4A
:10585000312C20E02032A8F48B3261F028F4803221
:1058600051F0833271F40BC08D3239F0803349F43A
:10587000216028C02260246025C0286023C02061E8
:1058800021C027FD27C0382F30533A3078F426FF47
:1058900006C0FAE07F9E300D1124732E13C08AE0FB
:1058A000389E300D1124332E20620CC08E3221F42C
:1058B00026FD72C1206406C08C3611F4206802C037
:1058C000883641F4F60193FD859193FF81916F0134
:1058D0008111C0CF982F9554933018F09052933087
:1058E00028F40C5F1F4FFFE3F9830DC0833631F0BE
:1058F000833771F0833509F05EC023C0F8018081E1
:1059000089830E5F1F4F66246394712C540115C068
:105910002801F2E04F0E511CF801A080B18026FF53
:1059200003C0672D70E002C06FEF7FEFC5012C87C9
:105930000E94E52D3C0182012C856FE7262E222254
:1059400018C02801F2E04F0E511CF801A080B18070
:1059500026FF03C0672D70E002C06FEF7FEFC50127
:105960002C870E94DA2D3C012C8550E8252E222A16
:10597000820123FC1CC006C0B70180E290E00E94B7
:10598000F02D3A94832D90E068167906A8F30FC0A5
:10599000F50127FC859127FE81915F01B70190E019
:1059A0000E94F02D31103A94F1E06F1A71086114E1
:1059B000710471F7EEC0843611F0893641F5F801B3
:1059C00027FF07C060817181828193810C5F1F4F27
:1059D00008C060817181882777FD8095982F0E5FC0
:1059E0001F4F4FE6642E622297FF09C09095809565
:1059F000709561957F4F8F4F9F4FF0E86F2A2AE097
:105A000030E0A4010E941C2EA82EA81844C085379F
:105A100031F43FEEB32EB2222AE030E024C099EFF9
:105A2000B92EB2228F36B9F020F4883509F0B4C00F
:105A30000DC0803721F0883709F0AEC002C020E1E8
:105A4000B22AB4FE0BC084E0B82A08C024FF09C003
:105A5000E6E0BE2A06C028E030E005C020E130E0E4
:105A600002C020E132E0F801B7FE07C06081718119
:105A7000828193810C5F1F4F06C06081718180E03D
:105A800090E00E5F1F4FA4010E941C2EA82EA818A4
:105A90008FE7682E6B2066FE0BC0362D3E7FA71465
:105AA00050F464FE0AC062FC08C0362D3E7E05C07C
:105AB000BA2C362D03C0BA2C01C0B72C34FF0DC050
:105AC000FE01EA0DF11D8081803311F4397E09C099
:105AD00032FF06C0B394B39404C0832F867809F0D4
