:100000000C9464000C9451110C947E110C948C008F
:100010000C948C000C948C000C948C000C948C0030
:100020000C948C000C948C000C948C000C948C0020
:100030000C948C000C948C000C948C000C948C0010
:100040000C94A8190C948C000C947B0C0C94B70C99
:100050000C948C000C948C000C948C000C948C00F0
:100060000C948C000C948C0000000007000201002E
:100070000003040600000000000000000102040864
:100080001020408001020408102001020408102002
:10009000040404040404040402020202020203032E
:1000A00003030303000000002300260029000000D2
:1000B0000000250028002B0000000000240027007D
:1000C0002A00CE21DD21E12111241FBECFEFD8E08F
:1000D000DEBFCDBF13E0A0E0B1E0E8EFF1E502C084
:1000E00005900D92A239B107D9F716E0A2E9B3E065
:1000F00001C01D92A431B107E1F710E0C8ECD0E0D7
:1001000004C02297FE010E949C22C23CD107C9F77D
:100110000E94D6210C94FA280C940000AF92BF9252
:10012000CF92DF92EF92FF920F931F93CF93DF93C3
:1001300000D000D0CDB7DEB78C0181E0F80181831B
:100140006801F2E0CF0ED11C760158018DE4A80EB3
:10015000B11CC7010E94D609EFE0EE0EF11CEA14B3
:10016000FB04B9F7F701D182C082F801E452FF4FD6
:100170001082F801EE51FF4F1082F801ED51FF4F50
:100180001082118212821382F801E15BFF4F82E03C
:1001900080834FE753E060E070E049835A836B83CC
:1001A0007C83BE016F5F7F4FC80102960E94CF0A19
:1001B0004CE150E060E070E049835A836B837C83BC
:1001C000BE016F5F7F4FC80141960E94CF0AF801C0
:1001D000EF51FF4F81E08083F801E05BFF4F43E088
:1001E00050E060E175E54083518362837383F801D9
:1001F000E352FF4F40835183628373830F900F90CC
:100200000F900F90DF91CF911F910F91FF90EF9082
:10021000DF90CF90BF90AF900895FC01E452FF4F64
:1002200020812F5F2083DC01AF51BF4F3C9123170A
:1002300008F01082DC01A352BF4F2081FC0134E0A2
:10024000239FE00DF11D1124E05BFF4F40815181A0
:10025000628173814D935D936D937C931397FC0141
:10026000EE51FF4F108208958F929F92AF92BF92EE
:10027000CF92DF92EF92FF920F931F93CF93DF9372
:100280007C015B01912C6C018FE4C80ED11C8FE0C6
:10029000882E19C0E701899CC00DD11D112422961A
:1002A000CE010E94DA0AFC01008111812281338192
:1002B000F50140815181628173810417150726077A
:1002C000370739F09394F6018081981618F3C0E04F
:1002D000D0E0CE01DF91CF911F910F91FF90EF9071
:1002E000DF90CF90BF90AF909F908F9008950F9325
:1002F0001F93CF93DF93FB01DC01AF51BF4FDC9124
:10030000C0E012C0DC01A05BBF4F0D911D912D918B
:100310003C910496408151816281738104171507D5
:100320002607370729F0CF5FCD13ECCF80E001C05F
:1003300081E0DF91CF911F910F9108956F927F928D
:100340008F929F92AF92BF92CF92DF92EF92FF92E5
:100350000F931F93CF93DF93EC01712C4C018FE42B
:10036000880E911C9FE0692E5E019DE4A90EB11CD0
:1003700022C08E01679C000D111D11240E5F1F4FBE
:10038000C8010E947E0AFC01C080D180E280F38017
:10039000F501808191810E947E0AFC01408151819A
:1003A00062817381C416D506E606F70618F4F501D6
:1003B000118300837394F40180817816D0F2C35BBB
:1003C000DF4F888199810E947E0AFC0110810181A2
:1003D000F280E380888199810E94DA0AFC01EF9221
:1003E000FF920F931F9383818F9382818F938181DB
:1003F0008F9380818F9389E291E09F938F931F92D7
:100400000E94DF0A8DB79EB70B960FB6F8949EBF79
:100410000FBE8DBFDF91CF911F910F91FF90EF9095
:10042000DF90CF90BF90AF909F908F907F906F9014
:1004300008952F923F924F925F926F927F928F9288
:100440009F92AF92BF92CF92DF92EF92FF920F9363
:100450001F93CF93DF9300D000D0CDB7DEB77C01E0
:100460003B0100E010E0512C28E2422E3CE6A32E96
:1004700031E0B32E49E5842E41E0942E409E600188
:10048000419ED00C112483E993E0C80ED91E1601B9
:10049000C6010E94D204882309F47AC0C6010E94D2
:1004A0000607C6010E942207882309F461C0C6011D
:1004B0000E942507FC01408151816281738149833B
:1004C0005A836B837C8355245394F30180819181FB
:1004D000A281B381481759076A077B0709F0512C9D
:1004E000C6010E948C068823B9F061E571E08BE5B6
:1004F00095E00E94930E49815A816B817C812AE0AC
:1005000030E08BE595E00E947C0F67E571E08BE5BC
:1005100095E00E94E40E39C0C6010E942006BE018B
:100520006F5F7F4F882391F0C7010E9434010097CD
:1005300051F0B6010E94EC09C6010E94A105C70155
:100540000E949E0122C09F928F920BC0C7010E9401
:100550007701882321F0C6010E94A10516C0BF9231
:10056000AF921F920E94DF0AC6010E94A1050AC035
:1005700089E791E09F938F931F920E94DF0AC60143
:100580000E94A9040F900F900F90C1010E94DA04FD
:100590000F5F1F4F0530110509F070CF852D0F90AB
:1005A0000F900F900F90DF91CF911F910F91FF90BF
:1005B000EF90DF90CF90BF90AF909F908F907F9003
:1005C0006F905F904F903F902F9008958F929F92E1
:1005D000AF92BF92CF92DF92EF92FF920F931F9351
:1005E000CF93DF93EC010E94F2196B017C018E0125
:1005F000035B1F4FF801808191810E947E0AFC01FC
:10060000B080A18092808380F801808191810E94D6
:10061000DA0AFC018F929F92AF92BF9283818F93EF
:1006200082818F9381818F9380818F9381E991E083
:100630009F938F931F920E94DF0A8DB79EB70B96F0
:100640000FB6F8949EBF0FBE8DBFB12C98EEC90EA9
:1006500093E0D91EE11CF11C0E94F2196C157D0576
:100660008E059F0588F01F92BF9223EB31E03F93E8
:100670002F931F920E94DF0A0F900F900F900F9000
:100680000F90B11021C003C0B110EDCF12C0C35BF9
:10069000DF4F88819981DF91CF911F910F91FF905A
:1006A000EF90DF90CF90BF90AF909F908F900C9481
:1006B0009F0AF801808191810E94DA0ABC01CE0173
:1006C0000E941902B82EC8CFDF91CF911F910F91D0
:1006D000FF90EF90DF90CF90BF90AF909F908F9062
:1006E0000895AF92BF92CF92DF92EF92FF920F9355
:1006F0001F93CF93DF9300D000D0CDB7DEB78C012E
:10070000FC01E452FF4F808181111DC00E94F2194B
:10071000580123EEA20EB11CF501C080D180E28009
:10072000F380F0E7CF0EF7E1DF1EE11CF11C6C1542
:100730007D058E059F05A0F5F801EE51FF4F8081E4
:10074000882319F12DC058012DEDA20EB11CC50151
:100750000E945D090E94F2196B017C0184E6C80EBB
:10076000D11CE11CF11C06C0B501C8010E94190290
:10077000811124C00E94F2196C157D058E059F051C
:1007800098F316C08F5F80831CC019821A821B8267
:100790001C82BE016F5F7F4FC8010E94190211C009
:1007A0000E94F219F5016083718382839383CBCF1A
:1007B000F801EE51FF4F8081853020F3C8010E947F
:1007C0000D010F900F900F900F90DF91CF911F911F
:1007D0000F91FF90EF90DF90CF90BF90AF90089572
:1007E000CF92DF92EF92FF92CF93DF93EC01FC0167
:1007F000E15BFF4F8081811104C0CE010E94710333
:100800001CC00E94F2196B017C01FE01E35BFF4FEB
:10081000808191810E947E0AFC0140815181628128
:100820007381445F514061097109C416D506E6061B
:10083000F70618F3CE010E94E6028BE595E00E94D0
:10084000E20B181619066CF58BE595E00E94110C69
:100850007C0199278134910521F08D34910551F463
:1008600005C081E089836DEC71E011C019826FEDE4
:1008700071E00DC062EF71E08BE595E00E94930E90
:100880006E2D8BE595E00E94950E67E072E08BE59A
:1008900095E0DF91CF91FF90EF90DF90CF900C9497
:1008A000E40EDF91CF91FF90EF90DF90CF9008950D
:1008B000CF93DF9300D0CDB7DEB789839A830E94B0
:1008C0006D080E94CF0789819A810F900F90DF9168
:1008D000CF910C949E0126E1FC01208311820895A2
:1008E000FB012081FC0120830895FC01918180811E
:1008F000981750F48181DB019C91DF01A80FB11D95
:1009000012969C938F5F81830895CF92DF92EF922E
:10091000FF920F931F93CF93DF937C016B018A01AA
:10092000C0E0D0E007C0B6016C0F7D1FC7010E9478
:1009300075042196F801808190E0C817D9079CF3CF
:10094000DF91CF911F910F91FF90EF90DF90CF90AB
:1009500008950F931F93CF93DF938C01C0E0D0E0F5
:1009600011C0F801EC0FFD1F628140E150E08BE502
:1009700095E00E94BB0F6AE671E08BE595E00E946E
:10098000930E2196F801808190E0C817D9074CF3A7
:100990006BE671E08BE595E0DF91CF911F910F91B0
:1009A0000C94E40EFC012181908181E0291708F468
:1009B00080E00895FC0111820895282FFB01308109
:1009C000E82FF92F80E002C09191890F9E2F921B92
:1009D0009317D0F30895FC0181810895FC01918162
:1009E0008081981748F49181DF01A90FB11D1296FB
:1009F0008C919F5F9183089580E008959F92AF92BC
:100A0000BF92CF92DF92EF92FF920F931F93CF93FB
:100A1000DF93CDB7DEB728970FB6F894DEBF0FBED1
:100A2000CDBF8C016B017A01B22E85E589838DE201
:100A30008A8384ED8B8380E48C831D8283E08887A6
:100A400082E08F83F8011182902EA12EAE01485FC3
:100A50005F4FBE016F5F7F4FC8010E948504A701F1
:100A6000B601C8010E948504BB2059F0B701C60138
:100A70000E94DD048E83BE016A5F7F4FC8010E9421
:100A80007504AE01495F5F4FBE016C5F7F4F892DDA
:100A90009A2D0E948504F70180818B5F8B0DF801F0
:100AA0008083118228960FB6F894DEBF0FBECDBFAB
:100AB000DF91CF911F910F91FF90EF90DF90CF903A
:100AC000BF90AF909F900895FC0186E180831182D2
:100AD000118E128E138E148E158E4FEF5FEFBA01AA
:100AE00044A355A366A377A308950F931F93CF93B1
:100AF000DF93EC018B01998188819817E8F4898153
:100B0000811111C00E94F219698F7A8F8B8F9C8F8F
:100B1000F8018081823519F4188E8CE003C081E0E1
:100B2000888F80E188838981F8019081FE01E80F38
:100B3000F11D92838F5F8983DF91CF911F910F9178
:100B400008951F93CF93DF93EC010E94F219AB013C
:100B5000BC012AE030E08BE595E00E947C0F69E063
:100B600072E08BE595E00E94930E4CA15DA16EA111
:100B70007FA12AE030E08BE595E00E947C0F60E1E8
:100B800072E08BE595E00E94930E498D5A8D6B8D36
:100B90007C8D2AE030E08BE595E00E947C0F10E030
:100BA0008E8D9F8D0196D9F066E172E08BE595E020
:100BB0000E94930E4AE050E0612F8BE595E00E9481
:100BC000BB0F69E671E08BE595E00E94930E6E8D98
:100BD0007F8D4AE050E08BE595E00E949D0F1F5FFE
:100BE00022961330E9F667E571E08BE595E0DF9139
:100BF000CF911F910C94E40E0F931F93CF93DF932B
:100C00001F92CDB7DEB78C01DC018C9181508983B6
:100C1000BE016F5F7F4FC80102960E94DD04D801BC
:100C2000EC91F0E03197E00FF11F228191E0821307
:100C300090E0892F0F90DF91CF911F910F91089530
:100C4000FC01808D0895CF93DF93FC018FEF9FEF20
:100C5000978F868F91A380A393A382A3808D8823EF
:100C600009F182E090E0DF01A80FB91F12964C91C4
:100C7000129747FF12C012965C911297EC012196D1
:100C8000CE0FDF1F4A81352F3F7720E0B901642B5B
:100C9000AB015D965C934E935C970296883091050C
:100CA00011F707C033852285932F80E0822B978F21
:100CB000868FDF91CF9108950F931F93FC0114A2AB
:100CC00015A216A217A2808D882359F092818381E4
:100CD000592F5F7040E0662757FD6095762F482BAF
:100CE00014C0238144818581968150E060E070E0EA
:100CF000BA0155274427722B492B182F00E020E01A
:100D000030E0402B512B622B732B44A355A366A3D9
:100D100077A31F910F910895FC01808D882329F0FE
:100D20008281881F8827881F08958085833421F455
:100D3000918581E09F3409F080E008959F92AF9201
:100D4000BF92CF92DF92EF92FF920F931F93CF93B8
:100D5000DF93FC0190E081E0A12C00E810E040E48A
:100D6000E42EF12C41C0E801042E02C0D595C795B0
:100D70000A94E2F77C917C237C1771F0E701042E42
:100D800002C0D595C7950A94E2F7BE017C917623FF
:100D9000761305C0A12C04C0AA24A39401C080E04E
:100DA000BB0CBA284E5F5F4F48305105E1F62F5F0C
:100DB0003F4F2230310531F40FC020E030E0B12C3C
:100DC000C92ED12C40E050E0B9016C0D7D1D6E0F95
:100DD0007F1FDB011296C7CF292F2695DF01A20FB7
:100DE000B11D1296BC929E5F2081921730F39081C4
:100DF00096959083DF91CF911F910F91FF90EF9087
:100E0000DF90CF90BF90AF909F900895CF93DF93E6
:100E1000EC01888D882321F0CE010E949E0603C03C
:100E2000CE010E94FC058D8F8D8D882341F0CE016F
:100E30000E942306CE01DF91CF910C945C06DF91D6
:100E4000CF910895FC01858D08959C012C5D3F4F45
:100E5000C90108959C01225E3F4FC90108959C017C
:100E6000275E3F4FC90108950F931F93CF93DF93E0
:100E7000EC0119928C0107531F4FCE010E946405AB
:100E8000A896C017D107C9F7DF91CF911F910F9195
:100E900008951F93CF93DF93EC01888118E29E01A0
:100EA000189F200D311D1124C90101960E9475055E
:100EB0008881FE01189FE00DF11D1124319691816A
:100EC00080819817B0F080E090E028E2289FF00140
:100ED000299FF00D11243196EC0FFD1F41813081C7
:100EE000431710F4888312C001968530910571F77D
:100EF00002C080E00CC08AE192E09F938F9382E071
:100F00008F930E94DF0A0F900F900F9081E0DF9186
:100F1000CF911F9108951F93CF93DF9300D01F921D
:100F2000CDB7DEB711E01B8389E392E89A8389830A
:100F3000BE016D5F7F4FCE0101960E94AE0B1093F4
:100F400073040F900F900F90DF91CF911F91089530
:100F50001F93CF93DF9300D01F92CDB7DEB711E080
:100F60001B8381E89AEC9A838983BE016D5F7F4F72
:100F7000CE0101960E94AE0B1B8383E89AEC9A8304
:100F80008983BE016D5F7F4FCE0101960E94AE0B3B
:100F90000F900F900F90DF91CF911F910895CF93F5
:100FA000DF9300D01F92CDB7DEB781E08B8389ED50
:100FB00092E89A838983BE016D5F7F4FCE010196CF
:100FC0000E94AE0B109273040E94A8070F900F901E
:100FD0000F90DF91CF910895CF93DF9300D01F92B0
:100FE000CDB7DEB78BE594E00E94EE0491E09B83E1
:100FF00090E0986B9A838983BE016D5F7F4FCE012D
:1010000001960E94AE0B8BE594E00E94D204811100
:101010000E94CF070F900F900F90DF91CF9108950E
:101020001F93CF93DF9300D0CDB7DEB781E00E944E
:101030006E0B1982CE0101960E94A60B182F198201
:10104000CE0101960E94A60B80917304811139C0D4
:1010500015FF1DC01A82CE0102960E94A60B89833D
:10106000BE016F5F7F4F82E993E00E944907182F0E
:101070001A82CE0102960E94A60B8983BE016F5F81
:101080007F4F82E993E00E944907182B12C017FF97
:101090000FC01A82CE0102960E94A60B8983BE0160
:1010A0006F5F7F4F82E993E00E944907182F01C0CC
:1010B00010E080E00E946E0B112349F00E94A80707
:1010C00006C017FD0E94EC0780E00E946E0B0F9097
:1010D0000F90DF91CF911F9108951F93CF93DF93CE
:1010E00000D01F92CDB7DEB78BE292E09F938F9333
:1010F0001F920E94DF0A0E94740B11E01B831A8268
:101100001982BE016D5F7F4FCE0101960E94AE0B2A
:1011100060ED77E080E090E00E942E1A8AE492E091
:101120009F938F931F920E94DF0A1B8388ED90E8A4
:101130009A838983BE016D5F7F4FCE0101960E9425
:10114000AE0B1B8381E092E89A838983BE016D5FB9
:101150007F4FCE0101960E94AE0B1B8384E396EA7B
:101160009A838983BE016D5F7F4FCE0101960E94F5
:10117000AE0B1B8387E596EC9A838983BE016D5F76
:101180007F4FCE0101960E94AE0B1B8380EC94E949
:101190009A838983BE016D5F7F4FCE0101960E94C5
:1011A000AE0B1B838CE292EC9A838983BE016D5F48
:1011B0007F4FCE0101960E94AE0B1B8381E89AEC13
:1011C0009A838983BE016D5F7F4FCE0101960E9495
:1011D000AE0B1B8384ED9EEC9A838983BE016D5F09
:1011E0007F4FCE0101960E94AE0B1B8387EF94ECDC
:1011F0009A838983BE016D5F7F4FCE0101960E9465
:10120000AE0B1B8380E298E99A838983BE016D5FF0
:101210007F4FCE0101960E94AE0B1B8386E69CECAD
:101220009A838983BE016D5F7F4FCE0101960E9434
:10123000AE0B1B8380E090EE9A838983BE016D5FC5
:101240007F4FCE0101960E94AE0B1B8380E098EC8D
:101250009A838983BE016D5F7F4FCE0101960E9404
:10126000AE0B1B8380E090EC9A838983BE016D5F97
:101270007F4FCE0101960E94AE0B8CE792E09F93C8
:101280008F931F920E94DF0A64EF71E080E090E08C
:101290000E942E1A40E050E060E178E080E00E9479
:1012A00021110FB6F894DEBF0FBECDBF0F900F9087
:1012B0000F90DF91CF911F9108950F931F93CF93BC
:1012C000DF93CDB7DEB72C970FB6F894DEBF0FBE15
:1012D000CDBF8C01FC0183818F9382818F938181AB
:1012E0008F9380818F9380E992E09F938F931F92D9
:1012F0000E94DF0A8BE0E6E0F1E0DE01119601904A
:101300000D928A95E1F7F8018081918122813381E4
:101310003A832B839C838D838BE08C8721E0AE0105
:10132000445F5F4FBE016F5F7F4F8BE594E00E948B
:10133000FE040E948B070FB6F894DEBF0FBECDBF30
:101340002C960FB6F894DEBF0FBECDBFDF91CF91C4
:101350001F910F910895CF93DF93CDB7DEB76197BB
:101360000FB6F894DEBF0FBECDBF80E1E1E1F1E042
:10137000DE01119601900D928A95E1F780E1898B4B
:1013800020E0AE014F5E5F4FBE016F5F7F4F8BE588
:1013900094E00E94FE040E948B0761960FB6F894B9
:1013A000DEBF0FBECDBFDF91CF910895FC014FEF9F
:1013B0005FEFBA0140835183628373834483558313
:1013C0006683778380E797E191878087128613860B
:1013D0001486158616860895EF92FF920F931F9339
:1013E000CF93DF93EC017B014B855C856D857E851A
:1013F000452B462B472B09F45AC089858F93888546
:101400008F938F818F938E818F938D818F938C811A
:101410008F9383EA92E09F938F931F920E94DF0A3B
:10142000C7010E942F07FC01608171818281938135
:101430000B851C852D853E85601B710B820B930BE4
:101440002A8530E040E050E00E944122C9018454E6
:1014500096416DB77EB7675F7F4F0FB6F8947EBF3A
:101460000FBE6DBF8935924018F43987288704C0B4
:1014700080E797E19987888789858F9388858F93FF
:101480008F818F938E818F938D818F938C818F939A
:1014900086EC92E09F938F931F920E94DF0A8DB794
:1014A0009EB709960FB6F8949EBF0FBE8DBFC701B9
:1014B0000E942F07FC0140815181628173818885E0
:1014C0009985480F591F611D711D488359836A838F
:1014D0007B8381E08A87C7010E942F07FC0140813E
:1014E0005181628173814B875C876D877E87DF9135
:1014F000CF911F910F91FF90EF900895CF92DF92BF
:10150000EF92FF92CF93DF93EC01C880D980EA80FD
:10151000FB800E94F219C616D706E806F90638F4D1
:101520004FEF5FEFBA01488359836A837B83CE0113
:10153000DF91CF91FF90EF90DF90CF900895FC0165
:10154000808591854081518162817381480F591F47
:10155000611D711D408351836283738382858F5F18
:1015600082871F928F937F936F935F934F938781AF
:101570008F9386818F9385818F9384818F9389EE5A
:1015800092E09F938F931F920E94DF0A8DB79EB7C0
:101590000D960FB6F8949EBF0FBE8DBF0895FB0148
:1015A0004081518162817381FC014483558366834C
:1015B000778308959C012C5F3F4FC90108950F93D5
:1015C0001F93CF93DF93CDB7DEB7C354D1090FB6C6
:1015D000F894DEBF0FBECDBF2B962FAD2B97249670
:1015E0002FAF24970E94F2199F938F937F936F934D
:1015F0008FE992E09F938F938E010F5F1F4F1F9390
:101600000F930E941626B8018BE595E00E94930E79
:101610000FB6F894DEBF0FBECDBF24962FAD249732
:10162000213049F028F0223049F0233081F409C0FC
:101630006FE173E008C067E273E005C062E373E046
:1016400002C06BE373E08BE595E00E94930EAE0160
:10165000435B5F4F23965FAF4EAF23972D966EADE2
:101660007FAD2D97CE0101960E943A26BE016F5F95
:101670007F4F8BE595E00E94E40ECD5BDF4F0FB608
:10168000F894DEBF0FBECDBFDF91CF911F910F91B8
:10169000089540E052EC61E070E08BE595E00E9437
:1016A0003B0D84E493E09F938F931F920E94DF0A87
:1016B00084E794E00E9458048CE593E09F938F9315
:1016C0001F920E94DF0A0F900F900F900F900F90C3
:1016D0000F90089584E794E00C94F003882311F0B0
:1016E0002A9808952A9A089580E00E946E0B229A03
:1016F00061E08AE00E94FB1A61E08DE00E94C31A5B
:1017000061E08BE00E94C31A61E08AE00E94C31A84
:1017100060E08CE00E94C31A80E58CBD60E082E04E
:101720000E94C31A61E082E00E94FB1A8DB58160BD
:101730008DBD8CB58D7F8CBD8CB581608CBD8CB51D
:10174000877F8CBD8CB58B7F8CBD0895FC0180811B
:101750008EBD0DB407FEFDCF8EB50895CF92DF92FA
:10176000EF92FF920F931F93CF93DF931F92CDB70A
:10177000DEB77C016B01FB01808181112A98F701A2
:1017800081818983CE0101960E94A60B182F00E06B
:10179000F70180818983CE0101960E94A60B082B58
:1017A000F6018081882319F080E00E946E0BC80149
:1017B0000F90DF91CF911F910F91FF90EF90DF90ED
:1017C000CF900895FC0184859585FC01E05CFF4F76
:1017D00020813181FC01EE5BFF4F80819181281BCC
:1017E000390B2F733327C9010895FC018485958532
:1017F000FC01E05CFF4F40815181FC01EE5BFF4F3B
:10180000208131814217530741F00190F081E02D92
:10181000E80FF91F208130E002C02FEF3FEFC90130
:101820000895FC0184859585FC01E05CFF4F4081B3
:101830005181FC01EE5BFF4F20813181421753073C
:1018400071F0A081B181A80FB91F2C918081918185
:1018500001968F7399279183808330E002C02FEF28
:101860003FEFC9010895FC0186859785FC01E05C86
:10187000FF4FDC01AE5BBF4F408151812D913C9108
:10188000119742175307C1F70895CF93DF93FC01D7
:1018900026853785D901A05CBF4F8D919C9111970A
:1018A00001968F739927E901CE5BDF4F48815981FB
:1018B00084179507D9F30D90BC91A02DA20FB31FEB
:1018C0006C93A685B785A05CBF4F11969C938E93B1
:1018D000A689B7892C9181E090E0058C02C0880F21
:1018E000991F0A94E2F7282B2C9381E090E0DF9176
:1018F000CF91089508951F920F920FB60F92112461
:101900002F933F934F938F939F93EF93FF93409128
:10191000C6008091FE059091FF0501968F7399276F
:1019200020910006309101068217930759F0E0914B
:10193000FE05F091FF05E254FA4F40839093FF05B6
:101940008093FE05FF91EF919F918F914F913F9171
:101950002F910F900FBE0F901F9018958BE595E07B
:101960000E94E20B892B11F00C947A0C08951F92BF
:101970000F920FB60F9211242F933F938F939F9343
:10198000EF93FF932091BA053091BB058091BC0580
:101990009091BD052817390731F48091C1008F7DE2
:1019A0008093C10014C0E091BC05F091BD05E658DC
:1019B000FA4F20818091BC059091BD0501968F73EF
:1019C00099279093BD058093BC052093C600FF9195
:1019D000EF919F918F913F912F910F900FBE0F909C
:1019E0001F9018954F925F926F927F928F92AF9255
:1019F000BF92CF92DF92EF92FF920F931F93CF93FC
:101A0000DF93CDB7DEB7FC011382128288EE482E39
:101A100083E0582E612C712C448255826682778235
:101A20008EE693E091838083758764875787468726
:101A3000318B208B138B028BF58AE48AD78AC68A76
:101A4000B18EA08E828E8A89838F8B89848F8C89B8
:101A5000858F8D89868FDF91CF911F910F91FF9098
:101A6000EF90DF90CF90BF90AF908F907F906F906E
:101A70005F904F900895CF92DF92EF92FF92CF93B5
:101A8000DF93EC016A017B01411581EE5807610586
:101A90007105F9F0EC89FD8981E090E00E8C02C0BF
:101AA000880F991F0A94E2F7808360E079E08DE364
:101AB00090E0A70196010E9441222150310941097D
:101AC00051095695479537952795211580E1380797
:101AD00098F0EC89FD89108260E874E88EE190E06E
:101AE000A70196010E944122215031094109510963
:101AF0005695479537952795E889F9893083EA897E
:101B0000FB892083EE89FF89408181E090E09C0180
:101B10000A8C02C0220F331F0A94E2F7422B408343
:101B2000EE89FF8940819C010B8C02C0220F331F7C
:101B30000A94E2F7422B4083EE89FF8940819C01A1
:101B40000C8C02C0220F331F0A94E2F7422B408311
:101B5000EE89FF8920810D8C02C0880F991F0A949D
:101B6000E2F7809582238083DF91CF91FF90EF9001
:101B7000DF90CF900895CF93DF93FC018685978502
:101B8000DC01A05CBF4FEC01CE5BDF4F4D915C915F
:101B900011972881398142175307C1F7A689B78960
:101BA0004C9181E090E09C01028C02C0220F331F17
:101BB0000A94E2F7209524232C93A689B7894C91A7
:101BC0009C01038C02C0220F331F0A94E2F7209578
:101BD00024232C93A689B7894C919C01048C02C0C4
:101BE000220F331F0A94E2F7209524232C93A68911
:101BF000B7892C91058C02C0880F991F0A94E2F7CF
:101C0000809582238C9384859585FC01EE5BFF4F44
:101C100020813181FC01E05CFF4F31832083DF9123
:101C2000CF91089581E00895CF92DF92EF92FF92D5
:101C30000F931F93CF93DF936C01EB017A01E60EB4
:101C4000F71E00E010E00BC06991D601ED91FC9108
:101C50000190F081E02DC6010995080F191FCE15DE
:101C6000DF0591F7C801DF91CF911F910F91FF9090
:101C7000EF90DF90CF900895EF92FF920F931F9314
:101C8000CF93DF937C01EB0100E010E0FE01219691
:101C90006491662351F0F701A081B181ED91FC912F
:101CA000C7010995080F191FF1CFC801DF91CF9126
:101CB0001F910F91FF90EF900895AF92BF92CF9236
:101CC000DF92EF92FF920F931F93CF93DF937C01EC
:101CD0006B0100E010E0C0E0D0E011C0D701ED9151
:101CE000FC91A080B180B801C6010E948216682FC5
:101CF000C701F5010995C80FD91F0F5F1F4FD60106
:101D000014968D919C9115970817190738F3CE01F9
:101D1000DF91CF911F910F91FF90EF90DF90CF90C7
:101D2000BF90AF9008950C943122DC01ED91FC91AD
:101D30000190F081E02D0994DB01ED91FC91119768
:101D40000190F081E02DBC01CD0109940F931F9308
:101D5000CF93DF93EC016DE00E94950E8C016AE059
:101D6000CE010E94950E9C01200F311FC901DF9109
:101D7000CF911F910F9108950F931F93CF93DF93EE
:101D8000EC010E943C0E8C01CE010E94A60E9C012B
:101D9000200F311FC901DF91CF911F910F9108953D
:101DA0000F931F93CF93DF93EC010E945D0E8C0184
:101DB000CE010E94A60E9C01200F311FC901DF91A8
:101DC000CF911F910F9108950F931F93CF93DF939E
:101DD000EC010E9431228C01CE010E94A60E9801D6
:101DE000280F391FC901DF91CF911F910F910895DD
:101DF0000F931F93CF93DF93EC010E94950E8C01FC
:101E0000CE010E94A60E9C01200F311FC901DF9157
:101E1000CF911F910F9108950F931F93CF93DF934D
:101E2000EC010E949C0E8C01CE010E94A60E9C012A
:101E3000200F311FC901DF91CF911F910F9108959C
:101E40005F926F927F928F929F92AF92BF92CF924A
:101E5000DF92EF92FF920F931F93CF93DF93CDB753
:101E6000DEB7A1970FB6F894DEBF0FBECDBF3C0121
:101E70006A017B01522E19A281E0821710F08AE0DC
:101E8000582E8E010F5D1F4F852C912CA12CB12C4B
:101E9000C701B601A50194010E9441228C2D529EDA
:101EA00080191124015011098A3010F4805D01C09D
:101EB000895CF801808369017A01C114D104E104CD
:101EC000F10431F7B801C3010E943122A1960FB687
:101ED000F894DEBF0FBECDBFDF91CF911F910F9160
:101EE000FF90EF90DF90CF90BF90AF909F908F903A
:101EF0007F906F905F9008952115310541F4DC01CA
:101F0000ED91FC910190F081E02D642F09940C94E7
:101F1000200F0F931F93CF93DF93EC010E947C0F50
:101F20008C01CE010E94A60E9C01200F311FC90119
:101F3000DF91CF911F910F9108959A01AB0160E05D
:101F400070E00C947C0F0F931F93CF93DF93EC0101
:101F50009A01AB0160E070E00E947C0F8C01CE0121
:101F60000E94A60E9801280F391FC901DF91CF9159
:101F70001F910F9108959A01462F50E060E070E0A4
:101F80000C947C0F0F931F93CF93DF93EC019A0176
:101F9000462F50E060E070E00E947C0F8C01CE0183
:101FA0000E94A60E9801280F391FC901DF91CF9119
:101FB0001F910F910895CF92DF92EF92FF920F93AE
:101FC0001F93CF93DF93EC016A017B01211531054B
:101FD00079F4E881F9810190F081E02D642FDF919F
:101FE000CF911F910F91FF90EF90DF90CF900994C8
:101FF0002A30310519F477FD0EC02AE0B701A60199
:10200000CE01DF91CF911F910F91FF90EF90DF9064
:10201000CF900C94200F6DE20E94950E8C01442706
:102020005527BA014C195D096E097F092AE0CE01D6
:102030000E94200F9C01200F311FC901DF91CF9119
:102040001F910F91FF90EF90DF90CF9008950F9325
:102050001F93CF93DF93EC010E94DB0F8C01CE0125
:102060000E94A60E9C01200F311FC901DF91CF9164
:102070001F910F9108959A01AB01662757FD609556
:10208000762F0C94DB0F0F931F93CF93DF93EC010C
:102090009A01AB01662757FD6095762F0E94DB0FF2
:1020A0008C01CE010E94A60E9801280F391FC9018C
:1020B000DF91CF911F910F9108954F925F926F9290
:1020C0007F928F929F92AF92BF92CF92DF92EF92C8
:1020D000FF920F931F93CF933C014A015B01C22FE4
:1020E00020E030E0A901C501B4010E94ED1E87FF88
:1020F0000AC06DE2C3010E94950E2C01B7FAB0949C
:10210000B7F8B09402C0412C512C10E060E070E0B0
:1021100080E09FE307C020E030E040E251E40E940D
:102120001B1E1F5F1C13F7CF262F372F482F592F49
:10213000C501B4010E94DA1C962EA72EB82EC92E16
:102140000E945B1BD62EE72EF82E192F0E94C71F68
:102150009B01AC01692D7A2D8B2D9C2D0E94061DB3
:10216000C62EB72EA82E992E2AE04D2D5E2D6F2D4E
:10217000712FC3010E94200F8C01040D151DCC236B
:10218000B9F16AE772E0C3010E943122080F191FFA
:102190002FC020E030E040E251E46C2D7B2D8A2DF1
:1021A000992D0E94361D4B015C01792D9B2D0E94BB
:1021B000781F6B01EE24D7FCE094FE2C2AE030E07F
:1021C000B701A601C3010E94DB0F080F191FC70149
:1021D000B6010E941C1F9B01AC01682D792D8A2D30
:1021E0009B2D0E94061DC62EB72EA82E992EC150DB
:1021F000C111CFCFC801CF911F910F91FF90EF90E8
:10220000DF90CF90BF90AF909F908F907F906F9016
:102210005F904F9008950C945D100F931F93CF9390
:10222000DF93EC010E945D108C01CE010E94A60E8E
:102230009801280F391FC901DF91CF911F910F918C
:1022400008958230E8F4E82FF0E0EE0FFF1FEE5F14
:10225000F94F71836083813041F0809169008C7FF8
:10226000842B80936900E89A089580916900440F57
:10227000551F440F551F837F842B80936900E99A73
:102280000895823068F4813011F0E89801C0E9982F
:10229000E82FF0E0EE0FFF1FEE5FF94F1182108282
:1022A00008951F920F920FB60F9211242F933F9310
:1022B0004F935F936F937F938F939F93AF93BF934E
:1022C000EF93FF938091020690910306892B29F0EA
:1022D000E0910206F09103060995FF91EF91BF91FD
:1022E000AF919F918F917F916F915F914F913F91AE
:1022F0002F910F900FBE0F901F9018951F920F9265
:102300000FB60F9211242F933F934F935F936F93C8
:102310007F938F939F93AF93BF93EF93FF9380919E
:10232000040690910506892B29F0E0910406F091AE
:1023300005060995FF91EF91BF91AF919F918F9104
:102340007F916F915F914F913F912F910F900FBEB1
:102350000F901F901895FC01808191810C94562359
:10236000CF93DF93EC0188819981009711F00E944F
:102370005623198218821D821C821B821A82DF91C9
:10238000CF9108950F931F93CF93DF93EC018B01AF
:102390006F5F7F4F888199810E94F223009731F00F
:1023A000998388831B830A8381E001C080E0DF91E9
:1023B000CF911F910F910895CF93DF93EC01888106
:1023C0009981892B31F08A819B818617970708F0C4
:1023D0000CC0CE010E94C211882349F08C819D81DE
:1023E000892B19F4E881F981108281E001C080E035
:1023F000DF91CF910895EF92FF920F931F93CF93A8
:10240000DF93EC017B018A01BA010E94DC1181118A
:1024100004C0CE010E94B01107C01D830C83B70118
:10242000888199810E942825CE01DF91CF911F914B
:102430000F91FF90EF900895DC0111961C921E926F
:1024400013961C921E92129715961C921E92149728
:1024500016961C926115710559F0DB010D90002054
:10246000E9F7AD0141505109461B570B0C94FB1184
:102470000895CF93DF93EC01FB018617970761F076
:10248000608171816115710529F0448155810E9437
:10249000FB1102C00E94B011CE01DF91CF910895CF
:1024A000FC0111821082138212821582148216821C
:1024B0000C943912CF93DF93D82FC92F6115710572
:1024C00061F0DB010D900020E9F7AD0141505109A9
:1024D000461B570B0E94FB1102C00E94B0118D2FAA
:1024E0009C2FDF91CF9108950F931F93CF93DF938C
:1024F000CDB7DEB7A1970FB6F894DEBF0FBECDBF44
:102500008C01CB01BA01F801118210821382128270
:1025100015821482168230E0AE014F5F5F4F0E9439
:10252000DB25BE016F5F7F4FC8010E945A12A19642
:102530000FB6F894DEBF0FBECDBFDF91CF911F91D4
:102540000F9108950F931F93CF93DF93CDB7DEB70D
:10255000A2970FB6F894DEBF0FBECDBF8C01CB01A2
:10256000BA01F8011182108213821282158214823C
:10257000168230E0AE014F5F5F4F0E949225BE0190
:102580006F5F7F4FC8010E945A12A2960FB6F8944F
:10259000DEBF0FBECDBFDF91CF911F910F91089588
:1025A0000F931F93CF93DF93CDB7DEB761970FB62D
:1025B000F894DEBF0FBECDBF8C01CB01F8011182B4
:1025C00010821382128215821482168250E0BE019C
:1025D0006F5F7F4F0E940026BE016F5F7F4FC80173
:1025E0000E945A1261960FB6F894DEBF0FBECDBF9F
:1025F000DF91CF911F910F9108950F931F93CF9368
:10260000DF93CDB7DEB762970FB6F894DEBF0FBE8B
:10261000CDBF8C01CB01F80111821082138212828E
:1026200015821482168250E0BE016F5F7F4F0E94B8
:102630007125BE016F5F7F4FC8010E945A126296DA
:102640000FB6F894DEBF0FBECDBFDF91CF911F91C3
:102650000F9108950F931F93CF93DF93CDB7DEB7FC
:1026600029970FB6F894DEBF0FBECDBF8C01862F21
:10267000F80111821082138212821582148216824E
:1026800050E0BE016F5F7F4F90E00E940026BE01C8
:102690006F5F7F4FC8010E945A1229960FB6F894B7
:1026A000DEBF0FBECDBFDF91CF911F910F91089577
:1026B000CF93DF9300D0CDB7DEB7FC01118210823B
:1026C0001382128215821482168269831A82BE01D5
:1026D0006F5F7F4F0E945A120F900F90DF91CF9142
:1026E0000895EF92FF920F931F93CF93DF93EC0126
:1026F0007B010C811D816115710511F480E016C00C
:102700004115510591F0040F151FB8010E94DC110D
:102710008823A1F3288139818C819D81B701820FA3
:10272000931F0E9428251D830C8381E0DF91CF91A8
:102730001F910F91FF90EF900895FB014481558107
:10274000608171810C9471136115710559F0DB0181
:102750000D900020E9F7AD0141505109461B570B80
:102760000C94711380E00895CF93DF9300D0CDB720
:10277000DEB769831A8241E050E0BE016F5F7F4F90
:102780000E9471130F900F90DF91CF910895EF92F7
:10279000FF920F931F93CF93DF9300D000D0CDB75C
:1027A000DEB77C01862F4AE050E08E010F5F1F4F9D
:1027B000B80190E00E947125F80101900020E9F72E
:1027C000AF0141505109401B510BB801C7010E9494
:1027D00071130F900F900F900F90DF91CF911F9179
:1027E0000F91FF90EF900895EF92FF920F931F9338
:1027F000CF93DF93CDB7DEB727970FB6F894DEBF40
:102800000FBECDBF7C01CB014AE050E08E010F5FCF
:102810001F4FB8010E947125F80101900020E9F7CF
:10282000AF0141505109401B510BB801C7010E9433
:10283000711327960FB6F894DEBF0FBECDBFDF91A0
:10284000CF911F910F91FF90EF900895EF92FF921B
:102850000F931F93CF93DF9300D000D000D0CDB75C
:10286000DEB77C01CB014AE050E08E010F5F1F4FC5
:10287000B8010E940026F80101900020E9F7AF019D
:1028800041505109401B510BB801C7010E947113FF
:1028900026960FB6F894DEBF0FBECDBFDF91CF9165
:1028A0001F910F91FF90EF900895EF92FF920F9379
:1028B0001F93CF93DF93CDB7DEB72C970FB6F89465
:1028C000DEBF0FBECDBF7C01CB01BA012AE030E0F4
:1028D0008E010F5F1F4FA8010E949225F801019001
:1028E0000020E9F7AF0141505109401B510BB801DD
:1028F000C7010E9471132C960FB6F894DEBF0FBE6D
:10290000CDBFDF91CF911F910F91FF90EF90089570
:10291000EF92FF920F931F93CF93DF93CDB7DEB764
:102920002B970FB6F894DEBF0FBECDBF7C01CB0155
:10293000BA012AE030E08E010F5F1F4FA8010E940C
:10294000DB25F80101900020E9F7AF014150510962
:10295000401B510BB801C7010E9471132B960FB693
:10296000F894DEBF0FBECDBFDF91CF911F910F91C5
:10297000FF90EF900895CF93DF93D82FC92FFB01DD
:1029800044815581608171810E947113811104C05D
:102990008D2F9C2F0E94B0118D2F9C2FDF91CF91F6
:1029A0000895CF93DF93D82FC92F6115710569F072
:1029B000DB010D900020E9F7AD0141505109461BA4
:1029C000570B0E947113811104C08D2F9C2F0E9400
:1029D000B0118D2F9C2FDF91CF910895CF93DF936E
:1029E000D82FC92F0E94B413811104C08D2F9C2FA2
:1029F0000E94B0118D2F9C2FDF91CF910895CF931E
:102A0000DF93D82FC92F0E94C713811104C08D2FC7
:102A10009C2F0E94B0118D2F9C2FDF91CF91089594
:102A2000CF93DF93D82FC92F0E94F413811104C0D4
:102A30008D2F9C2F0E94B0118D2F9C2FDF91CF9155
:102A40000895CF93DF93D82FC92F0E9426148111A8
:102A500004C08D2F9C2F0E94B0118D2F9C2FDF91D1
:102A6000CF910895CF93DF93D82FC92F0E9455148B
:102A7000811104C08D2F9C2F0E94B0118D2F9C2F8F
:102A8000DF91CF910895CF93DF93D82FC92F0E9464
:102A90008814811104C08D2F9C2F0E94B0118D2F9E
:102AA0009C2FDF91CF910895CF93DF93DC01ED91BF
:102AB000FC91EB01A881B981309711F01097C9F40E
:102AC000109759F0EB012C813D81232B31F02C9193
:102AD00030E031952195310914C0309781F0DC0147
:102AE00014968D919C911597892B49F0208130E0A7
:102AF00008C0BD01CF01DF91CF910C941F2520E0CC
:102B000030E0C901DF91CF910895FC0144815581E6
:102B1000FB01248135814217530729F40E94541583
:102B200021E0892B09F020E0822F0895DC01149622
:102B30002D913C911597232B39F481E06115710596
:102B400011F0FB0108C00895DC01ED91FC916115C5
:102B5000710529F481E09081992349F007C0CF01E4
:102B60000E941F259C0181E0232B09F080E008953D
:102B70000E945415892F881F8827881F08950E9456
:102B8000541521E0181619060CF020E0822F089544
:102B90000E94541521E0181619060CF420E0822F2B
:102BA00008950E945415892F8095881F8827881FB3
:102BB0000895EF92FF920F931F93CF93DF938617A1
:102BC000970709F1FC0124813581FB01448155817E
:102BD00024173507D1F4232BB1F0C081D181FC013A
:102BE000008111810BC090E00E94E9247C01899151
:102BF00090E00E94E924E816F90639F4F801819181
:102C00008F018111F0CF81E001C080E0DF91CF9191
:102C10001F910F91FF90EF900895FA01DB01149638
:102C20004D915C911597DC0114962D913C9115976F
:102C3000241B350B2E173F0790F08D919C91009728
:102C400071F0DB016D917C916115710541F08E0F82
:102C50009F1F0E942F259C0181E0232B09F080E01B
:102C60000895FC0144815581FB012481358142177F
:102C7000530720F040E050E00C940D1680E00895DA
:102C8000FC0184819581DB0114964D915C9115972F
:102C900084179507A0F0208131812115310579F045
:102CA0006D917C916115710551F0841B950B820F1C
:102CB000931F0E941F259C0181E0232B09F080E0D7
:102CC0000895DC0114962D913C91159762177307B6
:102CD00028F4ED91FC91E60FF71F40830895FC0165
:102CE000248135816217730720F4808191810097D8
:102CF00029F41092060666E076E002C0680F791F9C
:102D0000CB010895FC01248135816217730748F4D3
:102D100080819181009729F0FC01E60FF71F8081E7
:102D2000089580E008950C9482160F931F93CF931B
:102D3000DF93EB0141155105E9F02097D9F0FC0133
:102D4000048115812017310708F013C04150510943
:102D5000021B130B4017510708F48A01FC01608124
:102D60007181620F731FA801CE010E943D25C00F23
:102D7000D11F1882DF91CF911F910F910895CF93AA
:102D8000DF93FC01848195814817590770F4C08155
:102D9000D18170E0CE01840F951F0E941425009709
:102DA00021F09C012C1B3D0B02C02FEF3FEFC9010E
:102DB000DF91CF91089540E050E00C94BF16CF937F
:102DC000DF93FC01848195814817590780F4C08105
:102DD000D181FB0160817181CE01840F951F0E941A
:102DE0005725009721F09C012C1B3D0B02C02FEFB3
:102DF0003FEFC901DF91CF91089540E050E00C947E
:102E0000DF16DF92EF92FF920F931F93CF93DF9322
:102E1000EC018C819D814817590718F02FEF3FEF87
:102E20001BC08A010F5F1F4FE881F981E00FF11F7E
:102E3000D0801082E880F98070E0C7010E944C25A4
:102E4000F701E00FF11FD082009741F3288139810B
:102E5000AC01421B530B9A01C901DF91CF911F9125
:102E60000F91FF90EF90DF900895FC014481558110
:102E7000415051090C940117AF92BF92CF92DF924B
:102E8000EF92FF920F931F93CF93DF936B018A0111
:102E9000FB01448155814115510569F1FC012481F3
:102EA00035812115310539F12417350720F1021735
:102EB000130718F0890101501109FC01E080F1802D
:102EC000C701CFEFDFEF5701A00EB11E10C0F60112
:102ED000608171810E945725009779F09C012E191D
:102EE0003F090217130708F49E010196E901A8168D
:102EF000B90668F702C0CFEFDFEFCE01DF91CF91C7
:102F00001F910F91FF90EF90DF90CF90BF90AF9007
:102F10000895FC0144815581FB0124813581421BC8
:102F2000530B0C943C17BF92CF92DF92EF92FF921B
:102F30000F931F93CF93DF936C017B01EA0189010B
:102F40002417350720F48D2FE901042F182F6BE685
:102F500071E0C6010E941C12D70114968D919C91BC
:102F600015978C179D07C8F08017910708F48C01FE
:102F7000D701ED91FC911197E00FF11FB080108205
:102F80006D917C916C0F7D1FC6010E945A12D70172
:102F9000ED91FC91E00FF11FB082C601DF91CF915E
:102FA0001F910F91FF90EF90DF90CF90BF90089509
:102FB000CF93DF93EC01FB01248135810E949317AD
:102FC000CE01DF91CF910895DC01ED91FC91309716
:102FD00029F40895861301C04083319680818111C0
:102FE000F9CF08952F923F924F925F926F927F9206
:102FF0008F929F92AF92BF92CF92DF92EF92FF9209
:103000000F931F93CF93DF938C015B017A01DC0157
:1030100014966D907C9015976114710409F4E1C0C9
:10302000FB01448055804114510409F4DAC0DA01EF
:103030001496CD90DC901597C418D508FC01C0817A
:10304000D181C114D104E1F411C0D7016C91119662
:103050007C91119714964D915C911597C8010E942F
:10306000F924F701C481D581C00FD11FD5016D911D
:103070007C91CE010E9457258C01009731F7B1C099
:10308000D7FE02C04E012FC0FB01208031804301DA
:103090004EC023014C1A5D0AA201BE01C4010E9468
:1030A000F924E401C40DD51DD7016C9111967C91D2
:1030B000119714964D915C911597CE010E94F924B9
:1030C000F701848095808C0E9D1ED5011496CD91BC
:1030D000DC911597C60DD71DF801848195818C0D63
:1030E0009D1D95838483D5016D917C91CE010E94B5
:1030F00057253C01009769F6BE01C401DF91CF91CD
:103100001F910F91FF90EF90DF90CF90BF90AF9005
:103110009F908F907F906F905F904F903F902F90F7
:103120000C942825EC01C40DD51D8C0C9D1CB101FF
:10313000CE010E9457250097A9F78614970409F439
:1031400050C0F801828193818815990598F4B401E3
:10315000C8010E94C211882309F443C00BC0D7FDE7
:1031600040C0AE01B501C8010E943C17EC0197FFB9
:1031700007C037C0D8011496CD91DC9115972FC0A8
:10318000F80180819181D50114962D913C9115977C
:103190002C0F3D1F820F931F44815581421B530BFF
:1031A000BC018C0D9D1D0E940225F8018481958132
:1031B0008C0D9D1D958384830190F081E02DE80F97
:1031C000F91F1082D8012D913C912C0F3D1FF70162
:1031D0006081718144815581C9010E94F924219740
:1031E000BECFDF91CF911F910F91FF90EF90DF90B5
:1031F000CF90BF90AF909F908F907F906F905F9097
:103200004F903F902F900895CF93DF93FC01C081A2
:10321000D181209729F407C090E00E94E924899386
:1032200088818111F9CFDF91CF910895CF93DF93FA
:10323000FC01C081D181209729F407C090E00E9451
:10324000F124899388818111F9CFDF91CF9108957D
:10325000AF92BF92CF92DF92EF92FF920F931F93A4
:10326000CF93DF936C01DC01ED90FC901197E1149A
:10327000F10409F442C014960D911C9115970115A3
:103280001105D9F15701E501BFEFAB1ABB0A8881DF
:1032900090E00E94E124892BB1F7015011090E0D35
:1032A0001F1DF801808190E00E94E124892B69F4C0
:1032B0000F5F1F4F0C1B1D0BD60115961C930E9311
:1032C0001497EC16FD0650F404C00C171D0790F47B
:1032D000EFCFA801BE01C7010E94F924D601ED91EC
:1032E000FC91119714968D919C911597E80FF91FF9
:1032F000108203C001501109D4CFDF91CF911F91EB
:103300000F91FF90EF90DF90CF90BF90AF90089516
:10331000FC0180819181009711F00C94BA2460E047
:1033200070E080E090E008950C94BB220C9456234A
:1033300021E030E0FC018081882311F020E030E0C2
:10334000C901089521E0FC0120830895089508959E
:103350001F920F920FB60F9211242F933F938F93CA
:103360009F93AF93BF938091070690910806A09119
:103370000906B0910A0630910F06232F2D5F2D37D5
:1033800020F40196A11DB11D05C0232F2A570296D6
:10339000A11DB11D20930F06809307069093080688
:1033A000A0930906B0930A0680910B0690910C0633
:1033B000A0910D06B0910E060196A11DB11D80933E
:1033C0000B0690930C06A0930D06B0930E06BF91CA
:1033D000AF919F918F913F912F910F900FBE0F90C2
:1033E0001F9018950F931F938FB7F89400910706BD
:1033F000109108062091090630910A068FBFB80186
:10340000C9011F910F9108950F931F939FB7F894CF
:1034100000910B0610910C0620910D0630910E06BE
:1034200086B5A89B06C08F3F21F00F5F1F4F2F4F1F
:103430003F4F9FBF322F212F102F0027080F111D44
:10344000211D311D42E0000F111F221F331F4A951D
:10345000D1F7B801C9011F910F910895CF92DF9262
:10346000EF92FF92CF93DF936B017C010E94041ACD
:10347000EB010EC00E94041A6C1B7D0B683E73406A
:1034800038F081E0C81AD108E108F108C851DC4FD2
:10349000C114D104E104F10469F7DF91CF91FF90E9
:1034A000EF90DF90CF900895019739F0880F991F22
:1034B000880F991F02970197F1F70895789484B5C2
:1034C000826084BD84B5816084BD85B5826085BD20
:1034D00085B5816085BDEEE6F0E080818160808306
:1034E000E1E8F0E0108280818260808380818160E9
:1034F0008083E0E8F0E0808181608083E1EBF0E0B0
:10350000808184608083E0EBF0E080818160808353
:10351000EAE7F0E08081846080838081826080833C
:103520008081816080838081806880831092C10067
:103530000895833069F028F48130A1F0823011F5CC
:1035400014C08630B1F08730C1F08430D9F404C0A3
:10355000809180008F7703C0809180008F7D809361
:103560008000089584B58F7702C084B58F7D84BDB7
:1035700008958091B0008F7703C08091B0008F7D57
:103580008093B0000895CF93DF9390E0FC01E4585E
:10359000FF4F4491FC01E057FF4F8491882341F194
:1035A00090E0880F991FFC01E854FF4F259134915A
:1035B000D90182559F4FFC0185919491C82FD92F35
:1035C0009FB7F8948C91611106C0409584238C9329
:1035D0008881842308C0623041F4242F20958223FF
:1035E0008C938881842B888302C0842B8C939FBF0B
:1035F000DF91CF9108950F931F93CF93DF931F9285
:10360000CDB7DEB7282F30E0F901E859FF4F84919C
:10361000F901E458FF4F1491F901E057FF4F04916D
:103620000023D1F0882321F069830E94991A6981CF
:10363000E02FF0E0EE0FFF1FE255FF4F85919491D0
:10364000DC019FB7F8948C91611103C01095812320
:1036500001C0812B8C939FBF0F90DF91CF911F9161
:103660000F910895CF93DF93282F30E0F901E859A7
:10367000FF4F8491F901E458FF4FD491F901E057CD
:10368000FF4FC491CC2389F081110E94991AEC2F2D
:10369000F0E0EE0FFF1FEC55FF4F85919491DC0198
:1036A0008C918D2321E030E011F420E030E0C9015D
:1036B000DF91CF910895CF92DF92EF92FF920F9317
:1036C0001F936B017C0120E030E040E05FE40E944A
:1036D000BE1E87FD0EC020E030E040E05FE4C70181
:1036E000B6010E94061D0E94781F8B019C01305874
:1036F00006C0C701B6010E94781F8B019C01B8016A
:10370000C9011F910F91FF90EF90DF90CF90089526
:10371000A0E0B0E0EEE8FBE10C9467223C01CB01B5
:10372000EA01D3012C91223008F43EC1FB01308123
:10373000323008F436C1243071F4343009F034C129
:1037400011962C918181281709F42EC1B1E26B2EBC
:10375000B1E07B2E29C1343009F423C1323091F419
:10376000223009F021C128E0F301DA0101900D9225
:103770002A95E1F7DB0111968C91F3019181892360
:10378000898311C1223009F40CC1D3011296ED9145
:10379000FC911397DB0112966D917C911397D301E5
:1037A00014960D911D912D913C911797DC01149663
:1037B000CD90DD90ED90FC901797AF01461B570B15
:1037C000DA0157FF04C0AA27BB27A41BB50BA03200
:1037D000B1050CF065C0141615067CF5B701A601FD
:1037E0000A2E04C076956795579547950A94D2F7A7
:1037F000812C912C5401839404C0880C991CAA1C20
:10380000BB1CAA95D2F7B1E08B1A9108A108B108A8
:103810008C209D20AE20BF20C12CD12C7601C394DA
:1038200081149104A104B10419F4C12CD12C7601A6
:10383000C42AD52AE62AF72A3EC0452BE1F1EA0F31
:10384000FB1FB901A8010A2E04C07695679557950C
:1038500047950A94D2F7812C912C5401839404C08B
:10386000880C991CAA1CBB1CAA95D2F7A1E08A1A45
:103870009108A108B10880229122A222B32201E07E
:1038800010E020E030E081149104A104B10419F4A7
:1038900000E010E09801042B152B262B372B0BC0D2
:1038A0006E177F0724F4C12CD12C760104C0FB01D4
:1038B00000E010E09801D30111964C91DC011196C3
:1038C0008C91481709F442C0442349F0D701C6013E
:1038D000801B910BA20BB30B8C019D0104C00C1932
:1038E0001D092E093F0937FD04C01982FB83EA83B5
:1038F0000BC081E08983FB83EA8330952095109586
:1039000001951F4F2F4F3F4F0C831D832E833F8305
:103910000DC0880F991FAA1FBB1F8C839D83AE8388
:10392000BF838A819B8101979B838A838C819D8140
:10393000AE81BF818C019D0101501109210931091E
:103940000F3F1F4F2F4F3F4320F30BC04983FB8393
:10395000EA830C0D1D1D2E1D3F1D0C831D832E8320
:103960003F8383E088830C811D812E813F8137FF57
:103970001AC0D901C80181709927AA27BB2736959B
:10398000279517950795802B912BA22BB32B8C8312
:103990009D83AE83BF838A819B8101969B838A83AB
:1039A00002C03C0101C03E01C301CDB7DEB7EEE06D
:1039B0000C948322A0E2B0E0E0EEFCE10C947322D0
:1039C0006D8F7E8F8F8F98A3298F3A8F4B8F5C8F4F
:1039D000BE016F5E7F4FCE014D960E94FE20BE015C
:1039E000675F7F4FCE0149960E94FE20AE014F5F78
:1039F0005F4FBE01675F7F4FCE0141960E94881BDB
:103A00000E943D20A096E2E00C948F22A0E2B0E05C
:103A1000ECE0FDE10C9473226D8F7E8F8F8F98A365
:103A2000298F3A8F4B8F5C8FBE016F5E7F4FCE0127
:103A30004D960E94FE20BE01675F7F4FCE014996E2
:103A40000E94FE208A8591E089278A87AE014F5F18
:103A50005F4FBE01675F7F4FCE0141960E94881B7A
:103A60000E943D20A096E2E00C948F22A0E2B0E0FC
:103A7000ECE3FDE10C9465226D8F7E8F8F8F98A310
:103A8000298F3A8F4B8F5C8FBE016F5E7F4FCE01C7
:103A90004D960E94FE20BE01675F7F4FCE01499682
:103AA0000E94FE209989923008F412C089858230E4
:103AB00008F41AC0943021F4823009F4B4C008C06C
:103AC000843021F4923009F4AEC00EC0923051F42B
:103AD00081E02A899A85291301C080E08A8BCE0172
:103AE0004196A3C0823051F481E02A899A85291336
:103AF00001C080E08A87CE01099697C08D889E8894
:103B0000AF88B88C0D851E852F853889E0E2F0E0FE
:103B100080E090E0DC01C12CD12C760140E050E047
:103B2000BA0180FE18C0400F511F621F731F8C0D19
:103B30009D1DAE1DBF1D412C512C320143944017D9
:103B400051076207730718F0412C512C3201840D84
:103B5000951DA61DB71DCC0CDD1CEE1CFF1C37FFF0
:103B600002C06894C0F8000F111F221F331FB694C3
:103B7000A794979487943197A1F62B893C89EB857C
:103B8000FC852E0F3F1F2E5F3F4F3C832B8321E090
:103B9000EA893A85E31301C020E02A83EB81FC81A6
:103BA0000CC080FF05C0769567955795479570685E
:103BB000B695A795979587953196B7FDF2CF9F015A
:103BC0000CC0880F991FAA1FBB1F77FD8160440F8F
:103BD000551F661F771F215031090097A105E0E4AA
:103BE000BE0778F32B833C838C019D010F7711274F
:103BF00022273327003411052105310559F487FDAB
:103C000009C0452B462B472B29F0805C9F4FAF4FB7
:103C1000BF4F80788D839E83AF83B88783E089838D
:103C2000CE01019602C081E291E00E943D20A09663
:103C3000E0E10C948122A8E1B0E0E1E2FEE10C9425
:103C40006D226D8B7E8B8F8B988F298B3A8B4B8B54
:103C50005C8BBE01675F7F4FCE0145960E94FE20C0
:103C6000BE016F5F7F4FCE0141960E94FE20998575
:103C7000923008F475C08981823008F474C02A85B6
:103C80003A8123272A87943011F0923019F498133F
:103C900067C06CC0843039F41D861E861F86188A62
:103CA0001C861B8604C0823029F484E08987CE01FB
:103CB00009965EC08B859C852B813C81821B930B72
:103CC0009C878B874D855E856F857889CD80DE806A
:103CD000EF80F8844C155D056E057F0538F4440FC0
:103CE000551F661F771F01979C878B87EFE1F0E0D8
:103CF00000E010E020E030E480E090E0DC014C15D2
:103D00005D056E057F0540F0802B912BA22BB32B18
:103D10004C195D096E097F0936952795179507950A
:103D2000440F551F661F771F319749F78C019D017E
:103D30000F7711272227332700341105210531057C
:103D400059F487FD09C0452B462B472B29F0805C91
:103D50009F4FAF4FBF4F80788D879E87AF87B88BBF
:103D6000CE01099605C0CE01019602C081E291E024
:103D70000E943D206896E8E00C948922A8E1B0E01A
:103D8000E4ECFEE10C9473226D8B7E8B8F8B988F0D
:103D9000298B3A8B4B8B5C8BBE01675F7F4FCE01CB
:103DA00045960E94FE20BE016F5F7F4FCE01419677
:103DB0000E94FE208985823058F08981823040F04F
:103DC000BE016F5F7F4FCE0109960E946D2101C039
:103DD0008FEF6896E2E00C948F22A8E1B0E0E3EF69
:103DE000FEE10C9473226D8B7E8B8F8B988F298BC9
:103DF0003A8B4B8B5C8BBE01675F7F4FCE01459644
:103E00000E94FE20BE016F5F7F4FCE0141960E944F
:103E1000FE208985823058F08981823040F0BE01D1
:103E20006F5F7F4FCE0109960E946D2101C081E036
:103E30006896E2E00C948F22A8E0B0E0E2E2FFE1B5
:103E40000C94712223E029838B019C01002737FD0C
:103E50000395112722273327402F0A836115710507
:103E60008105910519F482E0898335C02EE130E0A7
:103E70003C832B83442371F061157105810520E893
:103E8000920771F1002711279801061B170B280BC9
:103E9000390B02C08B019C01C901B8010E94A0220C
:103EA0000197181619062CF00D831E832F8338876F
:103EB00012C0082E04C0000F111F221F331F0A94C6
:103EC000D2F70D831E832F8338872EE130E0281B25
:103ED000390B3C832B83CE0101960E943D2004C008
:103EE00060E070E080E09FEC2896E4E00C948D2286
:103EF000ACE0B0E0EEE7FFE10C94712269877A87CD
:103F00008B879C87BE016F5F7F4FCE0109960E9411
:103F1000FE208981823091F1823080F1843041F439
:103F20008A81882331F100E010E020E030E829C0E8
:103F30002B813C8137FD22C02F3131058CF78EE17A
:103F400090E0821B930B0D811E812F81388504C068
:103F500036952795179507958A95D2F78A818823F4
:103F600081F030952095109501951F4F2F4F3F4FB1
:103F700008C00FEF1FEF2FEF3FE703C000E010E096
:103F80009801B801C9012C96E4E00C948D22A8E0B8
:103F9000B0E0EDECFFE10C946D228B019C011A82E4
:103FA000611571058105910519F482E089835DC071
:103FB00083E089834EE150E05C834B83C901B80103
:103FC0000E94A022019797FF39C0EE27FF27E81B28
:103FD000F90B41E050E060E070E00E2E04C0440FA9
:103FE000551F661F771F0A94D2F741505109610986
:103FF00071094023512362237323C12CD12C7601F4
:10400000C394452B462B472B19F4C12CD12C760198
:1040100004C03695279517950795EA95D2F70C2990
:104020001D292E293F290D831E832F8338872EE1DA
:1040300030E0281B390B3C832B8317C0009729F4F1
:104040000D831E832F83388710C0082E04C0000FF5
:10405000111F221F331F0A94D2F70D831E832F8353
:104060003887481B590B5C834B83CE0101960E9415
:104070003D202896E8E00C9489220F931F93CF935C
:10408000FC014481558166817781C18180818230C4
:1040900020F460618FEF90E0A3C0843009F49BC0EE
:1040A000823009F492C0411551056105710509F48A
:1040B0008FC02281338122388FEF38070CF057C030
:1040C000E2E8FFEFE21BF30BEA31F10564F58A0148
:1040D0009B010E2E04C036952795179507950A94D7
:1040E000D2F781E090E0A0E0B0E004C0880F991F13
:1040F000AA1FBB1FEA95D2F70197A109B109842332
:104100009523A623B72341E050E060E070E0892BBF
:104110008A2B8B2B19F440E050E0BA01402B512B35
:10412000622B732B03C040E050E0BA01DB01CA01EF
:104130008F779927AA27BB2780349105A105B10560
:1041400039F447FF09C0405C5F4F6F4F7F4F04C099
:10415000415C5F4F6F4F7F4F81E090E0411551050B
:10416000610520E4720748F580E090E026C0203821
:1041700031058CF5DB01CA018F779927AA27BB2768
:1041800080349105A105B10539F447FF09C0405CB1
:104190005F4F6F4F7F4F04C0415C5F4F6F4F7F4F4A
:1041A00077FD04C0C90181589F4F07C07695679578
:1041B00057954795C90180589F4F97E07695679529
:1041C000579547959A95D1F70BC080E090E005C0D0
:1041D00080E090E005C08FEF90E040E050E0BA0151
:1041E000982F9695C0FB97F9362F80FB37F9642FEF
:1041F000752F832FCF911F910F910895CF92DF924A
:10420000EF92DC01FB01CC901196DC901197129695
:104210008C9112973FE7E32EE8226E2DA60170E005
:10422000982F991F9927991F13962C91822F880FE9
:10423000892B90E027FB222720F92183009729F57D
:10424000411551056105710511F482E027C082E82E
:104250009FEF9383828327E0440F551F661F771FCC
:104260002A95D1F783E0808309C0440F551F661F4C
:10427000771F828193810197938382834115510532
:10428000610580E4780788F320C08F3F910579F4B9
:10429000411551056105710519F484E0808319C049
:1042A000E4FE03C081E0808310C010820EC08F57EF
:1042B00091099383828383E0808387E0440F551FB5
:1042C000661F771F8A95D1F7706444835583668390
:1042D0007783EF90DF90CF900895CF93FC01DB01BF
:1042E0009081923008F452C08C91823008F44EC014
:1042F000943071F4843039F411962C9130E081813E
:10430000281B310948C08181882309F43FC03BC084
:10431000843029F411968C91811138C034C09230C8
:1043200019F48230B9F735C0823069F3C181119632
:104330008C911197C8131DC02281338112968D91E3
:104340009C911397821793070CF413C02817390711
:104350000CF417C0448155816681778114968D9144
:104360009D910D90BC91A02D84179507A607B707C6
:1043700018F4C11108C00AC0481759076A077B071B
:1043800040F4C11103C02FEF3FEF05C021E030E042
:1043900002C020E030E0C901CF9108958BE594E0A0
:1043A0000E946B0482E993E00C9434070E945E1A29
:1043B0000E94490B0E946A0BFDCF84E794E00C94A5
:1043C0008E0010925E0510925D0588EE93E0A0E0ED
:1043D000B0E080935F0590936005A0936105B09372
:1043E00062058EE693E090935C0580935B058EEB0F
:1043F00095E090936805809367058AE795E0909330
:104400006A058093690585EC90E090936C05809334
:104410006B0584EC90E090936E0580936D0580ECC5
:1044200090E09093700580936F0581EC90E09093FD
:1044300072058093710586EC90E0909374058093EB
:10444000730584E08093750583E08093760587E0AB
:104450008093770585E08093780581E080937905E6
:104460000895DB010D900020E9F7AD01415051099D
:10447000461B570BDC01ED91FC910280F381E02D8E
:104480000994A1E21A2EAA1BBB1BFD010DC0AA1F95
:10449000BB1FEE1FFF1FA217B307E407F50720F0AD
:1044A000A21BB30BE40BF50B661F771F881F991F28
:1044B0001A9469F760957095809590959B01AC0171
:1044C000BD01CF0108952F923F924F925F926F925C
:1044D0007F928F929F92AF92BF92CF92DF92EF9294
:1044E000FF920F931F93CF93DF93CDB7DEB7CA1B15
:1044F000DB0B0FB6F894DEBF0FBECDBF09942A8840
:10450000398848885F846E847D848C849B84AA84E7
:10451000B984C884DF80EE80FD800C811B81AA8174
:10452000B981CE0FD11D0FB6F894DEBF0FBECDBF3F
:10453000ED010895EE0FFF1F0590F491E02D099411
:104540000E94A92284FF0895CB010E94A922805FC6
:104550000895AA27992329F4A85F982B11F480E1E4
:104560000895903118F4AD5F9295A395990FE8F7EF
:104570008A2F992708950F931F93CF93DF9382304B
:10458000910510F482E090E0E0911206F09113069C
:1045900020E030E0C0E0D0E023C0408151814817E6
:1045A0005907A8F04817590761F482819381209731
:1045B00019F09B838A832EC0909313068093120672
:1045C00029C02115310529F04217530710F0A90120
:1045D00002C0BE01DF0102811381EF019A01F801DF
:1045E0003097D9F62115310509F1281B390B2430F4
:1045F000310590F412968D919C9113976115710578
:1046000021F0FB019383828304C09093130680936F
:104610001206FD01329644C0FD01E20FF31F8193A3
:104620009193225031092D933C933AC0209110066A
:1046300030911106232B41F42091020130910301A6
:104640003093110620931006209100013091010152
:104650002115310541F42DB73EB740910401509129
:104660000501241B350BE0911006F0911106E217AD
:10467000F307A0F42E1B3F0B2817390778F0AC0185
:104680004E5F5F4F2417350748F04E0F5F1F509362
:104690001106409310068193919302C0E0E0F0E090
:1046A000CF01DF91CF911F910F910895EF92FF926B
:1046B0000F931F93CF93DF93009709F48EC0DC0113
:1046C000129713961C921E921297E0901206F09089
:1046D0001306E114F10489F42D913C911197280FF0
:1046E000391F80911006909111068217930789F562
:1046F000B0931106A093100670C0E70120E030E0EF
:1047000001C0EA01CA17DB0738F44A815B819E01C8
:1047100041155105B1F722C0AC0142505109FA01CF
:10472000D383C28300811181BC01600F711F6C179C
:104730007D0761F468817981600F711F6E5F7F4F23
:10474000718360836A817B81738362832115310564
:1047500029F4B0931306A09312063FC0F901B38366
:10476000A283E90149915991C40FD51FAC17BD0728
:1047700071F4DC019E918E91840F951F02969183B6
:10478000808312968D919C91139793838283A0E0EE
:10479000B0E002C0D7017C01F701828193810097CC
:1047A000C9F7C701029620813181820F931F2091A2
:1047B0001006309111062817390779F4109729F45B
:1047C000109213061092120604C013961C921E92A9
:1047D0001297F0921106E0921006CDB7DEB7E6E030
:1047E0000C948B22A0E0B0E0E8EFF3E20C94692295
:1047F000EC01009729F4CB010E94BB22EC01B4C06C
:10480000DC01A60FB71FFC013297AE17BF0718F4E3
:10481000C0E0D0E0A9C00081118106171707B0F0F1
:104820000530110508F4A0C0C80104978617970742
:1048300008F49AC002501109061B170B0D931D9323
:1048400071836083CD010E9456238EC06B01C01A14
:10485000D10A7C01E00EF11EE0911206F0911306E0
:1048600020E030E080E090E048C0EE15FF05D1F593
:1048700080809180540142E0A40EB11CAC14BD04B0
:1048800088F17401EC18FD08670122E0C20ED11C0A
:104890009E012250310945E0C416D10478F04281CE
:1048A000538113965C934E9312971196FC92EE925D
:1048B000F901718360833A2F2B2F09C00E5F1F4FC0
:1048C000080D191DD9010D931C9332812381009786
:1048D00021F0FC013283238347C0309312062093DA
:1048E000130642C0808191812817390708F49C0182
:1048F00052814381CF01E52FF42F309709F0B5CFD6
:1049000080911006909111068E159F05F1F42617DF
:104910003707D8F48091000190910101009741F48C
:104920008DB79EB72091040130910501821B930B36
:10493000A817B90708F06CCFB0931106A093100622
:10494000FE013297718360830FC0CB010E94BB22AE
:104950007C01009709F45CCFA801BE010E94F924F4
:10496000CE010E945623E701CE01CDB7DEB7ECE0C1
:104970000C9485221F93FC0199278827BC01E89499
:1049800011911032E9F3193010F01E30C8F31B32C8
:1049900051F01D3249F4689406C00E94C625610F8B
:1049A000711D811D911D119110531A30B0F33EF409
:1049B00090958095709561957F4F8F4F9F4F1F9178
:1049C0000895911150C3803219F089508550D0F765
:1049D00008959111089581548A5108F4805E855A92
:1049E00008959111089581568A5108F4805285588E
:1049F0000895FB01DC0102C001900D92415050402E
:104A0000D8F708956817790768F4FB01DC01E40F13
:104A1000F51FA40FB51F02C002900E9241505040E6
:104A2000D8F708950C94F924FC018191861721F0A0
:104A30008823D9F7992708953197CF010895FB016D
:104A4000DC018D91019080190110D9F3990B089523
:104A5000FB01DC0101900D920020E1F70895FB01BC
:104A6000DC014150504030F08D910190801919F4D3
:104A70000020B9F7881B990B0895FB01DC01415018
:104A8000504048F001900D920020C9F701C01D92DE
:104A900041505040E0F70895FC0181E090E0019022
:104AA000061609F4CF010020D1F701970895FB0104
:104AB00051915523A9F0BF01DC014D9145174111DA
:104AC000E1F759F4CD010190002049F04D914015D6
:104AD0004111C9F3FB014111EFCF81E090E0019753
:104AE0000895FB019F01E8944230C4F04532B4F4CC
:104AF0004A3029F497FB1EF4909581959F4F642FBF
:104B000077270E94E628805D8A330CF0895D8193C7
:104B1000CB010097A1F716F45DE251931082C90111
:104B20000C944C28FA01CF93FF93EF93223044F179
:104B3000253234F5C22FE894CA3049F497FB3EF48D
:104B400090958095709561957F4F8F4F9F4F2C2F3B
:104B5000332744275527FF93EF930E944122EF917B
:104B6000FF91605D6A330CF0695D6193B901CA0120
:104B7000605070408040904051F716F4CDE2C193F0
:104B800010828F919F91CF910C944C28592F482FD0
:104B9000372F262F660F771F881F991F660F771FE5
:104BA000881F991F620F731F841F951F660F771F41
:104BB000881F991F0895FA01CF93FF93EF93223036
:104BC000CCF02532BCF4C22F2C2F33274427552795
:104BD000FF93EF930E944122EF91FF91605D6A3352
:104BE0000CF0695D6193B901CA016050704080406A
:104BF000904051F710828F919F91CF910C944C2847
:104C0000FB019F01423074F0453264F4642F772732
:104C10000E94E628805D8A330CF0895D8193CB0188
:104C20000097A1F71082C9010C944C28A0E1B0E0D4
:104C3000ECE1F6E20C9471220F89188D86E08C83EA
:104C40001A8309838FEF9FE79E838D83AE01455EB4
:104C50005F4F588B4F87698D7A8DCE0101960E94E8
:104C60005626EF81F885E00FF11F10826096E4E090
:104C70000C948D22AEE0B0E0E0E4F6E20C947122F8
:104C80008C0186E08C831A8309838FEF9FE79E83D4
:104C90008D83CE0101960E945626EF81F885E00FA4
:104CA000F11F10822E96E4E00C948D22ACE0B0E06F
:104CB000ECE5F6E20C9463227C016B018A01FC01B5
:104CC00017821682838181FFC7C188248394912C27
:104CD0008C0E9D1EF7019381F60193FD859193FF44
:104CE00081916F01882309F4B3C1853239F493FDB2
:104CF000859193FF81916F01853229F4B70190E08E
:104D00000E945C28E7CF712C312C20E02032A8F4DF
:104D10008B3261F028F4803251F0833271F40BC091
:104D20008D3239F0803349F4216028C0226024603C
:104D300025C0286023C0206121C027FD27C0382F4F
:104D400030533A3078F426FF06C0FAE07F9E300DEB
:104D50001124732E13C08AE0389E300D1124332E97
:104D600020620CC08E3221F426FD72C1206406C080
:104D70008C3611F4206802C0883641F4F60193FDA8
:104D8000859193FF81916F018111C0CF982F955428
:104D9000933018F09052933028F40C5F1F4FFFE3CC
:104DA000F9830DC0833631F0833771F0833509F014
:104DB0005EC023C0F801808189830E5F1F4F662487
:104DC0006394712C540115C02801F2E04F0E511C60
:104DD000F801A080B18026FF03C0672D70E002C0FB
:104DE0006FEF7FEFC5012C870E9441283C018201B3
:104DF0002C856FE7262E222218C02801F2E04F0EE4
:104E0000511CF801A080B18026FF03C0672D70E01F
:104E100002C06FEF7FEFC5012C870E9436283C014E
:104E20002C8550E8252E222A820123FC1CC006C0B6
:104E3000B70180E290E00E945C283A94832D90E0D4
:104E400068167906A8F30FC0F50127FC859127FEA7
:104E500081915F01B70190E00E945C2831103A9483
:104E6000F1E06F1A71086114710471F7EEC08436B5
:104E700011F0893641F5F80127FF07C06081718183
:104E8000828193810C5F1F4F08C0608171818827E8
:104E900077FD8095982F0E5F1F4F4FE6642E62229C
:104EA00097FF09C090958095709561957F4F8F4FC2
:104EB0009F4FF0E86F2A2AE030E0A4010E94882882
:104EC000A82EA81844C0853731F43FEEB32EB22285
:104ED0002AE030E024C099EFB92EB2228F36B9F023
:104EE00020F4883509F0B4C00DC0803721F0883730
:104EF00009F0AEC002C020E1B22AB4FE0BC084E0CB
:104F0000B82A08C024FF09C0E6E0BE2A06C028E08F
:104F100030E005C020E130E002C020E132E0F801DD
:104F2000B7FE07C060817181828193810C5F1F4F42
:104F300006C06081718180E090E00E5F1F4FA40188
:104F40000E948828A82EA8188FE7682E6B2066FE7E
:104F50000BC0362D3E7FA71450F464FE0AC062FCDD
:104F600008C0362D3E7E05C0BA2C362D03C0BA2CA3
:104F700001C0B72C34FF0DC0FE01EA0DF11D808188
:104F8000803311F4397E09C032FF06C0B394B39464
:104F900004C0832F867809F0B39433FD14C030FF2A
:104FA0000FC07A2CB31460F4730C7B18B32C08C0B8
:104FB000B70180E290E03C870E945C28B3943C8576
:104FC000B314B0F304C0B31410F43B1801C0312C77
:104FD00034FF12C0B70180E390E03C870E945C2858
:104FE0003C8532FF1EC031FF03C088E590E002C05F
:104FF00088E790E0B7010CC0832F867891F031FDEF
:1050000002C080E201C08BE237FD8DE2B70190E083
:105010000E945C2806C0B70180E390E00E945C28F3
:105020007A94A714C0F3AA94F401EA0DF11DB70114
:10503000808190E00E945C28A110F5CF06C0B701E6
:1050400080E290E00E945C283A943110F8CF42CE82
:10505000F7012681378102C02FEF3FEFC9012C965F
:10506000E2E10C947F22992788270895FC0105909E
:10507000615070400110D8F7809590958E0F9F1F5A
:105080000895FC016150704001900110D8F780959F
:1050900090958E0F9F1F0895DC01FC01672F719181
:1050A0007723E1F7329704C07C916D93708362910E
:1050B000AE17BF07C8F308950F931F93CF93DF93E5
:1050C0008C01EB018B8181FD03C00FEF1FEF1AC034
:1050D00082FF0DC02E813F818C819D812817390769
:1050E00064F4E881F9810193F983E88306C0E885D7
:1050F000F985802F0995892B41F78E819F81019633
:105100009F838E83C801DF91CF911F910F910895E6
:10511000FA01AA27283051F1203181F1E8946F93E8
:105120006E7F6E5F7F4F8F4F9F4FAF4FB1E03ED08E
:10513000B4E03CD0670F781F891F9A1FA11D680F2C
:10514000791F8A1F911DA11D6A0F711D811D911D5F
:10515000A11D20D009F468943F912AE0269F1124D4
:105160003019305D3193DEF6CF010895462F477038
:10517000405D4193B3E00FD0C9F7F6CF462F4F7093
:10518000405D4A3318F0495D31FD4052419302D0F1
:10519000A9F7EACFB4E0A695979587957795679597
:1051A000BA95C9F700976105710508959B01AC0197
:1051B0000A2E06945795479537952795BA95C9F7BE
:1051C000620F731F841F951FA01D0895AA1BBB1B90
:1051D00051E107C0AA1FBB1FA617B70710F0A61BF7
:1051E000B70B881F991F5A95A9F780959095BC0118
:0851F000CD010895F894FFCFF2
:1051F8000000140620004600000000005053000084
:105208004F555565A69555555555555555555555AB
:105218005500000000000000004E65787420657895
:105228007065637465642043435F545820686173F4
:105238002049443D256C752C204554413D256C750D
:10524800007B50523A20007D00556E6B6E6F776E72
:105258002043435F54582049443A2000556E6B6EF2
:105268006F776E2049443A200042726F6B656E205A
:105278007061636B65742072656365697665642E19
:105288000057696E646F77206F70656E21204578CE
:1052980070656374696E6720256C752061742025BC
:1052A8006C750057696E646F7720636C6F73656403
:1052B8002E20737563636573733D2564006175748F
:1052C8006F5F70616972206D6F6465206F6E006139
:1052D80075746F5F70616972206D6F6465206F66A9
:1052E8006600756E7265636F676E697365642063C7
:1052F8006F6D6D616E64202700207B69643A200021
:105308002C20743A20002C2073004E4F204D4F5211
:1053180045204255464645525321005374617274E4
:10532800696E6720726631325F696E697469616C93
:10533800697A655F65646628290052464D31326294
:105348002066696E697368656420706F7765722D71
:1053580075702072657365742E20205374617274A1
:10536800696E6720696E69742E2E2E0061747461EF
:105378006368696E6720696E74657272757074000F
:10538800506F6C6C696E6720434320545258202537
:105398006C750043435F54582049443D256C752C77
:1053A800206F6C642073616D706C655F70657269E5
:1053B8006F643D25750043435F54582049443D259B
:1053C8006C752C206E65772073616D706C655F70ED
:1053D8006572696F643D25750069643A256C7520AE
:1053E8006973206D697373696E672E204E65772027
:1053F8004554413D256C752C206E756D5F70657246
:10540800696F6473206D69737365643D2575002049
:10541800494E464F3A2000205741524E494E473A8E
:105428002000204552524F523A2000204641544114
:105438004C3A20004544462045636F4D616E6167D4
:1054480065722052656365697665720046696E69A2
:105458007368656420696E69740000000000450C7B
:10546800140EE20B110CF50B330C00000000A71909
:10547800140EA719A719A719A71900000000A71942
:02548800140E00
:00000001FF
