:100000000C9464000C948D110C94BA110C948C0017
:100010000C948C000C948C000C948C000C948C0030
:100020000C948C000C948C000C948C000C948C0020
:100030000C948C000C948C000C948C000C948C0010
:100040000C94E4190C948C000C94B70C0C94F30CE5
:100050000C948C000C948C000C948C000C948C00F0
:100060000C948C000C948C0000000007000201002E
:100070000003040600000000000000000102040864
:100080001020408001020408102001020408102002
:10009000040404040404040402020202020203032E
:1000A00003030303000000002300260029000000D2
:1000B0000000250028002B0000000000240027007D
:1000C0002A000A2227222B2211241FBECFEFD8E0BC
:1000D000DEBFCDBF13E0A0E0B1E0ECE8F2E502C086
:1000E00005900D92AE34B107D9F715E0AEE4B3E058
:1000F00001C01D92AF3CB107E1F710E0C8ECD0E0C1
:1001000004C02297FE010E94E622C23CD107C9F733
:100110000E9420220C9444290C940000AF92BF92BC
:10012000CF92DF92EF92FF920F931F93CF93DF93C3
:1001300000D000D0CDB7DEB78C016C018FEFC81AAC
:10014000D80A76015801ECE4AE0EB11CC7010E943A
:10015000320AFFE0EF0EF11CEA14FB04B9F7F701D5
:10016000D182C082F801E552FF4F1082F801EF51B1
:10017000FF4F1082F801EE51FF4F10821182128260
:100180001382F801E25BFF4F82E080834FE753E088
:1001900060E070E049835A836B837C83BE016F5FAC
:1001A0007F4FC80101960E940B0B4CE150E060E0CC
:1001B00070E049835A836B837C83BE016F5F7F4FFE
:1001C000C80140960E940B0BF801E052FF4F81E0FE
:1001D0008083F801E15BFF4F43E050E060E175E5AB
:1001E0004083518362837383F801E452FF4F40835D
:1001F0005183628373830F900F900F900F90DF9164
:10020000CF911F910F91FF90EF90DF90CF90BF9013
:10021000AF900895FC01E552FF4F20812F5F2083AE
:10022000DC01A052BF4F3C91231708F01082DC0183
:10023000A452BF4F2081FC0134E0239FE00DF11D4B
:100240001124E15BFF4F40815181628173814D93A5
:100250005D936D937C931397FC01EF51FF4F1082D8
:1002600008958F929F92AF92BF92CF92DF92EF92BA
:10027000FF920F931F93CF93DF937C015B01912C2F
:100280006C018EE4C80ED11C8FE0882E19C0E701E6
:10029000899CC00DD11D11242196CE010E94160B00
:1002A000FC010081118122813381F501408151815E
:1002B00062817381041715072607370739F0939475
:1002C000F6018081981618F3C0E0D0E0CE01DF91EE
:1002D000CF911F910F91FF90EF90DF90CF90BF9043
:1002E000AF909F908F9008950F931F93CF93DF93BC
:1002F000FB01DC01A052BF4FDC91C0E012C0DC0169
:10030000A15BBF4F0D911D912D913C9104964081B1
:10031000518162817381041715072607370729F079
:10032000CF5FCD13ECCF80E001C081E0DF91CF91B2
:100330001F910F9108953F924F925F926F927F921B
:100340008F929F92AF92BF92CF92DF92EF92FF92E5
:100350000F931F93CF93DF9300D000D0CDB7DEB7BC
:100360006C013B01512C412C98E2392E26E3A22E40
:1003700021E0B22E39E2832E31E0932E55C0359C18
:10038000700111248FE493E0E80EF91EC7010E946A
:100390006304882309F447C0C7010E94B806882374
:1003A000D1F1C7010E94BB06FC01408151816281ED
:1003B000738149835A836B837C8344244394F30180
:1003C0000081118122813381401751076207730731
:1003D00009F0412CBE016F5F7F4FC6010E943101C1
:1003E000009721F0B7010E94480A08C0BE016F5F64
:1003F0007F4FC6010E947401882321F0C7010E942B
:10040000320511C09F928F921F920E941B0BC70151
:100410000E94320505C0BF92AF921F920E941B0B33
:100420000F900F900F90539480914E03851508F014
:10043000A6CF8EE493E00E946607842D0F900F9064
:100440000F900F90DF91CF911F910F91FF90EF9040
:10045000DF90CF90BF90AF909F908F907F906F90E4
:100460005F904F903F900895CF92DF92EF92FF926E
:100470000F931F93CF93DF93EC01FC01E552FF4FE5
:10048000808181111DC00E942E1A8E010E511F4FB6
:10049000F801C080D180E280F380F0E7CF0EF7E171
:1004A000DF1EE11CF11C6C157D058E059F0578F59E
:1004B000FE01EF51FF4F8081882309F442C027C01D
:1004C0008E0104521F4FC8010E94B9090E942E1AC2
:1004D0006B017C0124E6C20ED11CE11CF11C0CC096
:1004E0008EE493E00E94A707882331F0B801CE0183
:1004F0000E949B01811113C00E942E1A6C157D056C
:100500008E059F0568F316C08F5F80831AC00E9416
:100510002E1AF8016083718382839383D1CFCE0139
:10052000DF91CF911F910F91FF90EF90DF90CF90CF
:100530000C940A01FE01EF51FF4F8081853020F3BA
:10054000EECFDF91CF911F910F91FF90EF90DF9051
:10055000CF9008956F927F928F929F92AF92BF92A9
:10056000CF92DF92EF92FF920F931F93CF93DF937F
:10057000EC01712C4C018EE4880E911C4FE0642E2E
:100580005E019CE4A90EB11C22C08E01679C000D87
:10059000111D11240F5F1F4FC8010E94DA0AFC01D0
:1005A000C080D180E280F380F501808191810E943A
:1005B000DA0AFC014081518162817381C416D5063B
:1005C000E606F70618F4F501118300837394F4012D
:1005D00080817816D0F2C45BDF4F888199810E94B8
:1005E000DA0AFC0110810181F280E380888199811F
:1005F0000E94160BFC01EF92FF920F931F938381D1
:100600008F9382818F9381818F9380818F938EE4EA
:1006100091E09F938F931F920E941B0B8DB79EB703
:100620000B960FB6F8949EBF0FBE8DBFDF91CF9192
:100630001F910F91FF90EF90DF90CF90BF90AF9000
:100640009F908F907F906F9008958F929F92AF921E
:10065000BF92CF92DF92EF92FF920F931F93CF93AF
:10066000DF93EC010E942E1A6B017C018E01045B6A
:100670001F4FF801808191810E94DA0AFC01B0804D
:10068000A18092808380F801808191810E94160B65
:10069000FC018F929F92AF92BF9283818F93828150
:1006A0008F9381818F9380818F9384E791E09F93D3
:1006B0008F931F920E941B0B8DB79EB70B960FB6A0
:1006C000F8949EBF0FBE8DBFB12C98EEC90E93E07B
:1006D000D91EE11CF11C0DC0F801808191810E949E
:1006E000160BBC01CE010E949B01882311F0BB2494
:1006F000B3940E942E1A6C157D058E059F0588F017
:100700001F92BF9286E991E09F938F931F920E9460
:100710001B0B0F900F900F900F900F90B1100BC00C
:1007200003C0B110EDCF16C0FE01E45BFF4F808126
:1007300091810E94DB0ACE01DF91CF911F910F9131
:10074000FF90EF90DF90CF90BF90AF909F908F90F1
:100750000C94AA028EE493E00E94A707882349F232
:10076000BBCFCF92DF92EF92FF92CF93DF93EC015A
:10077000FC01E25BFF4F8081811109C0CE01DF9156
:10078000CF91FF90EF90DF90CF900C9434020E94B5
:100790002E1A6B017C01FE01E45BFF4F8081918189
:1007A0000E94DA0AFC014081518162817381445FB9
:1007B000514061097109C416D506E606F706F0F244
:1007C000CE01DF91CF91FF90EF90DF90CF900C940E
:1007D0002503CF93DF9300D0CDB7DEB789839A830B
:1007E0000E94BE080E94200889819A810F900F9074
:1007F000DF91CF910C94AA0226E1FC0120831182A3
:100800000895FB012081FC0120830895FC01918162
:100810008081981750F48181DB019C91DF01A80F42
:10082000B11D12969C938F5F81830895CF92DF92C2
:10083000EF92FF920F931F93CF93DF937C016B0195
:100840008A01C0E0D0E007C0B6016C0F7D1FC70170
:100850000E9406042196F801808190E0C817D9070C
:100860009CF3DF91CF911F910F91FF90EF90DF905C
:10087000CF9008950F931F93CF93DF938C01C0E027
:10088000D0E011C0F801EC0FFD1F628140E150E0A3
:1008900086E195E00E94F70F64E371E086E195E060
:1008A0000E94CF0E2196F801808190E0C817D907E9
:1008B0004CF365E371E086E195E0DF91CF911F9104
:1008C0000F910C94200FFC012181908181E0291768
:1008D00008F480E00895FC0111820895282FFB019F
:1008E0003081E82FF92F80E002C09191890F9E2F6F
:1008F000921B9317D0F30895FC0181810895FC01A8
:1009000091818081981748F49181DF01A90FB11D71
:1009100012968C919F5F9183089580E008959F9235
:10092000AF92BF92CF92DF92EF92FF920F931F93FD
:10093000CF93DF93CDB7DEB728970FB6F894DEBF1D
:100940000FBECDBF8C016B017A01B22E85E5898384
:100950008DE28A8384ED8B8380E48C831D8283E027
:10096000888782E08F83F8011182902EA12EAE013C
:10097000485F5F4FBE016F5F7F4FC8010E94160442
:10098000A701B601C8010E941604BB2059F0B701A7
:10099000C6010E946E048E83BE016A5F7F4FC8014C
:1009A0000E940604AE01495F5F4FBE016C5F7F4F3E
:1009B000892D9A2D0E941604F70180818B5F8B0D83
:1009C000F8018083118228960FB6F894DEBF0FBE1F
:1009D000CDBFDF91CF911F910F91FF90EF90DF90EE
:1009E000CF90BF90AF909F900895FC0186E18083E7
:1009F0001182118E128E138E148E158E4FEF5FEFB3
:100A0000BA0144A355A366A377A308950F931F9338
:100A1000CF93DF93EC018B01998188819817E8F4DB
:100A20008981811111C00E942E1A698F7A8F8B8F54
:100A30009C8FF8018081853521F481E0888F80E1E9
:100A400002C0188E8CE088838981F8019081FE01B4
:100A5000E80FF11D92838F5F8983DF91CF911F9102
:100A60000F9108951F93CF93DF93EC010E942E1AEC
:100A7000AB01BC012AE030E086E195E00E94B80FAE
:100A800060EB71E086E195E00E94CF0E4CA15DA184
:100A90006EA17FA12AE030E086E195E00E94B80FC8
:100AA00068EB71E086E195E00E94CF0E498D5A8D8A
:100AB0006B8D7C8D2AE030E086E195E00E94B80FD6
:100AC00010E08E8D9F8D0196D9F06EEB71E086E17E
:100AD00095E00E94CF0E4AE050E0612F86E195E05C
:100AE0000E94F70F63E371E086E195E00E94CF0E6C
:100AF0006E8D7F8D4AE050E086E195E00E94D90F2F
:100B00001F5F22961330E9F662EC71E086E195E012
:100B1000DF91CF911F910C94200FFC011182108E58
:100B20008FEF9FEF93A382A391A380A3978F868FCC
:100B30004FEF5FEFBA0144A355A366A377A3158EC9
:100B4000118E128E138E148E8CE0808308950F9375
:100B50001F93CF93DF931F92CDB7DEB78C01DC01DB
:100B60008C9181508983BE016F5F7F4FC8010296CF
:100B70000E946E04D801EC91F0E03197E00FF11F74
:100B8000228191E0821390E0892F0F90DF91CF9125
:100B90001F910F910895CF93DF93FC018FEF9FEF8B
:100BA000978F868F91A380A393A382A3808D8823A0
:100BB00009F182E090E0DF01A80FB91F12964C9175
:100BC000129747FF12C012965C911297EC01219682
:100BD000CE0FDF1F4A81352F3F7720E0B901642B0C
:100BE000AB015D965C934E935C97029688309105BD
:100BF00011F707C033852285932F80E0822B978FD2
:100C0000868FDF91CF9108950F931F93FC0114A25B
:100C100015A216A217A2808D882359F09281838194
:100C2000592F5F7040E0662757FD6095762F482B5F
:100C300014C0238144818581968150E060E070E09A
:100C4000BA0155274427722B492B182F00E020E0CA
:100C500030E0402B512B622B732B44A355A366A38A
:100C600077A31F910F9108959F92AF92BF92CF9259
:100C7000DF92EF92FF920F931F93CF93DF93FC01CC
:100C800090E081E0A12C00E810E040E4E42EF12C9B
:100C900041C0E801042E02C0D595C7950A94E2F739
:100CA0007C917C237C1771F0E701042E02C0D5955E
:100CB000C7950A94E2F7BE017C917623761305C0AE
:100CC000A12C04C0AA24A39401C080E0BB0CBA28C4
:100CD0004E5F5F4F48305105E1F62F5F3F4F2230A6
:100CE000310531F40FC020E030E0B12CC92ED12CF9
:100CF00040E050E0B9016C0D7D1D6E0F7F1FDB01E0
:100D00001296C7CF292F2695DF01A20FB11D12968B
:100D1000BC929E5F2081921730F3908196959083CC
:100D2000DF91CF911F910F91FF90EF90DF90CF90C7
:100D3000BF90AF909F900895CF93DF93EC01888D83
:100D4000882321F0CE010E94340603C0CE010E9408
:100D5000A7058D8F8D8D882341F0CE010E94CB0594
:100D6000CE01DF91CF910C940406DF91CF910895CD
:100D7000FC01858D08959C012C5D3F4FC9010895AC
:100D80009C01225E3F4FC90108959C01275E3F4FA1
:100D9000C9010895CF92DF92EF92FF920F931F93B4
:100DA000CF93DF938C016B01EC0119927C0189ECEC
:100DB000E80EF11CCE010E94F504A896CE15DF05C1
:100DC000C9F720E030E098E2929FF001939FF00D88
:100DD00011243196E00FF11FD6018C9180832F5F93
:100DE0003F4F2530310581F7DF91CF911F910F9152
:100DF000FF90EF90DF90CF9008951F93CF93DF93F4
:100E0000EC01888118E29E01189F200D311D1124EC
:100E1000C90101960E9406058881FE01189FE00D18
:100E2000F11D1124319621819081291790F0853090
:100E300060F084EC91E09F938F9382E08F930E9407
:100E40001B0B0F900F900F9002C08F5F888381E083
:100E500001C080E0DF91CF911F910895DF92EF9262
:100E6000FF920F931F93CF93DF937C0165ED71E0A9
:100E700086E195E00E94200F00E010E058E2D52EB8
:100E800016C0D09EE001D19ED00D11242196CE0D2A
:100E9000DF1DCE010E949C068D8D882319F0CE01A6
:100EA0000E943A04CE010E948D050F5F1F4FF7018B
:100EB000808190E00817190724F31082DF91CF9109
:100EC0001F910F91FF90EF90DF900895FF920F9385
:100ED0001F93CF93DF93EC0100E010E068E2F62E61
:100EE0000CC0F09EC001F19E900D112401968C0F54
:100EF0009D1F0E948D050F5F1F4F888190E008178E
:100F000019077CF328E2289FF001299FF00D112496
:100F10003196EC0FFD1F8181882359F089ED91E016
:100F20009F938F9382E08F930E941B0B0F900F90E3
:100F30000F901882DF91CF911F910F91FF9008952C
:100F4000FC0181E09081911101C080E00895CF9271
:100F5000DF92EF92FF920F931F93CF93DF937C0169
:100F6000FC018081811113C0D12C1CC0CC9E80015A
:100F7000CD9E100D11240F5F1F4F0E0D1F1DC801B8
:100F80000E949C06F801858DD82A219605C0C0E0F4
:100F9000D0E0D12C78E2C72EF701208130E0C217D3
:100FA000D30724F38D2DDF91CF911F910F91FF90E7
:100FB000EF90DF90CF9008951F93CF93DF9300D0F1
:100FC0001F92CDB7DEB711E01B8389E392E89A83C5
:100FD0008983BE016D5F7F4FCE0101960E94EA0BAF
:100FE00010932F040F900F900F90DF91CF911F91CE
:100FF00008951F93CF93DF9300D01F92CDB7DEB734
:1010000011E01B8381E89AEC9A838983BE016D5FAE
:101010007F4FCE0101960E94EA0B1B8383E89AEC76
:101020009A838983BE016D5F7F4FCE0101960E9436
:10103000EA0B0F900F900F90DF91CF911F910895C1
:10104000CF93DF9300D01F92CDB7DEB781E08B83C3
:1010500089ED92E89A838983BE016D5F7F4FCE014F
:1010600001960E94EA0B10922F040E94F9070F903C
:101070000F900F90DF91CF910895CF93DF9300D021
:101080001F92CDB7DEB787E194E00E947F0491E024
:101090009B8390E0986B9A838983BE016D5F7F4F3D
:1010A000CE0101960E94EA0B87E194E00E9463045E
:1010B00081110E9420080F900F900F90DF91CF9127
:1010C00008951F93CF93DF9300D0CDB7DEB781E0B3
:1010D0000E94AA0B1982CE0101960E94E20B182FE2
:1010E0001982CE0101960E94E20B80912F0481119A
:1010F00039C015FF1DC01A82CE0102960E94E20B74
:101100008983BE016F5F7F4F8EE493E00E94FD06EE
:10111000182F1A82CE0102960E94E20B8983BE012B
:101120006F5F7F4F8EE493E00E94FD06182B12C084
:1011300017FF0FC01A82CE0102960E94E20B89832C
:10114000BE016F5F7F4F8EE493E00E94FD06182F73
:1011500001C010E080E00E94AA0B112349F00E9418
:10116000F90706C017FD0E943D0880E00E94AA0B07
:101170000F900F90DF91CF911F9108951F93CF9300
:10118000DF9300D01F92CDB7DEB786EE91E09F933C
:101190008F931F920E941B0B0E94B00B11E01B83C8
:1011A0001A821982BE016D5F7F4FCE0101960E94A7
:1011B000EA0B60ED77E080E090E00E946A1A85E03B
:1011C00092E09F938F931F920E941B0B1B8388EDCD
:1011D00090E89A838983BE016D5F7F4FCE010196AF
:1011E0000E94EA0B1B8381E092E89A838983BE0107
:1011F0006D5F7F4FCE0101960E94EA0B1B8384E353
:1012000096EA9A838983BE016D5F7F4FCE01019676
:101210000E94EA0B1B8387E596EC9A838983BE01C3
:101220006D5F7F4FCE0101960E94EA0B1B8380EC1D
:1012300094E99A838983BE016D5F7F4FCE01019649
:101240000E94EA0B1B838CE292EC9A838983BE0195
:101250006D5F7F4FCE0101960E94EA0B1B8381E8F0
:101260009AEC9A838983BE016D5F7F4FCE01019610
:101270000E94EA0B1B8384ED9EEC9A838983BE0156
:101280006D5F7F4FCE0101960E94EA0B1B8387EFB3
:1012900094EC9A838983BE016D5F7F4FCE010196E6
:1012A0000E94EA0B1B8380E298E99A838983BE013E
:1012B0006D5F7F4FCE0101960E94EA0B1B8386E68D
:1012C0009CEC9A838983BE016D5F7F4FCE010196AE
:1012D0000E94EA0B1B8380E090EE9A838983BE0113
:1012E0006D5F7F4FCE0101960E94EA0B1B8380E069
:1012F00098EC9A838983BE016D5F7F4FCE01019682
:101300000E94EA0B1B8380E090EC9A838983BE01E4
:101310006D5F7F4FCE0101960E94EA0B87E392E05A
:101320009F938F931F920E941B0B64EF71E080E0EC
:1013300090E00E946A1A40E050E061E678E080E0C8
:101340000E945D110FB6F894DEBF0FBECDBF0F90A7
:101350000F900F90DF91CF911F9108958EE493E04D
:101360000E94A007882321F08EE493E00C942E07BE
:1013700008950F931F93CF93DF93CDB7DEB72C97CC
:101380000FB6F894DEBF0FBECDBF8C01FC01838188
:101390008F9382818F9381818F9380818F938BE450
:1013A00092E09F938F931F920E941B0B8BE0E6E0CD
:1013B000F1E0DE01119601900D928A95E1F7F801B6
:1013C00080819181228133813A832B839C838D8319
:1013D0008BE08C8721E0AE01445F5F4FBE016F5F01
:1013E0007F4F87E194E00E948F040E94DC070FB6D4
:1013F000F894DEBF0FBECDBF2C960FB6F894DEBFBB
:101400000FBECDBFDF91CF911F910F910895CF9364
:10141000DF93CDB7DEB761970FB6F894DEBF0FBE8E
:10142000CDBF80E1E1E1F1E0DE01119601900D9286
:101430008A95E1F780E1898B20E0AE014F5E5F4F36
:10144000BE016F5F7F4F87E194E00E948F040E948E
:10145000DC0761960FB6F894DEBF0FBECDBFDF91FB
:10146000CF910895FC014FEF5FEFBA0140835183A4
:1014700062837383448355836683778380E797E130
:10148000918780871286138614861586168608959E
:10149000EF92FF920F931F93CF93DF93EC017B01A9
:1014A0004B855C856D857E85452B462B472B09F446
:1014B0005AC089858F9388858F938F818F938E8172
:1014C0008F938D818F938C818F938EE592E09F9384
:1014D0008F931F920E941B0BC7010E94C506FC013F
:1014E00060817181828193810B851C852D853E856C
:1014F000601B710B820B930B2A8530E040E050E0BB
:101500000E948B22C901845496416DB77EB7675FF4
:101510007F4F0FB6F8947EBF0FBE6DBF89359240E6
:1015200018F43987288704C080E797E1998788876E
:1015300089858F9388858F938F818F938E818F93E9
:101540008D818F938C818F9381E892E09F938F930D
:101550001F920E941B0B8DB79EB709960FB6F89489
:101560009EBF0FBE8DBFC7010E94C506FC01408112
:1015700051816281738188859985480F591F611D4A
:10158000711D488359836A837B8381E08A87C70101
:101590000E94C506FC0140815181628173814B87A5
:1015A0005C876D877E87DF91CF911F910F91FF90B0
:1015B000EF9008950895FC018085918540815181C7
:1015C00062817381480F591F611D711D40835183D2
:1015D0006283738382858F5F82871F928F937F934D
:1015E0006F935F934F9387818F9386818F938581CC
:1015F0008F9384818F9384EA92E09F938F931F92BD
:101600000E941B0B8DB79EB70D960FB6F8949EBF28
:101610000FBE8DBF0895FB014081518162817381AE
:10162000FC01448355836683778308959C012C5F76
:101630003F4FC90108950F931F93CF93DF93CDB709
:10164000DEB7C354D1090FB6F894DEBF0FBECDBFCD
:101650002B962FAD2B9724962FAF24970E942E1AEE
:101660009F938F937F936F938AE592E09F938F93DD
:101670008E010F5F1F4F1F930F930E946026B801CA
:1016800086E195E00E94CF0E0FB6F894DEBF0FBE44
:10169000CDBF24962FAD2497213049F028F0223079
:1016A00049F0233081F409C06AED72E008C062EEAF
:1016B00072E005C06DEE72E002C066EF72E086E196
:1016C00095E00E94CF0EAE01435B5F4F23965FAF64
:1016D0004EAF23972D966EAD7FAD2D97CE0101961F
:1016E0000E948426BE016F5F7F4F86E195E00E94D5
:1016F000200FCD5BDF4F0FB6F894DEBF0FBECDBF1E
:10170000DF91CF911F910F91089540E052EC61E07D
:1017100070E086E195E00E94770D8FEF92E09F9355
:101720008F931F920E941B0B80E394E00E94E903B9
:1017300087E193E09F938F931F920E941B0B0F9062
:101740000F900F900F900F900F90089580E394E00A
:101750000C94B103882311F02A9808952A9A0895C9
:1017600080E00E94AA0B229A61E08AE00E94371B67
:1017700061E08DE00E94FF1A61E08BE00E94FF1A99
:1017800061E08AE00E94FF1A60E08CE00E94FF1A8C
:1017900080E58CBD60E082E00E94FF1A61E082E09B
:1017A0000E94371B8DB581608DBD8CB58D7F8CBD42
:1017B0008CB581608CBD8CB5877F8CBD8CB58B7FE3
:1017C0008CBD0895FC0180818EBD0DB407FEFDCF58
:1017D0008EB50895CF92DF92EF92FF920F931F93F1
:1017E000CF93DF931F92CDB7DEB77C016B01FB0176
:1017F000808181112A98F70181818983CE01019628
:101800000E94E20B182F00E0F70180818983CE014E
:1018100001960E94E20B082BF6018081882319F0C3
:1018200080E00E94AA0BC8010F90DF91CF911F9119
:101830000F91FF90EF90DF90CF900895FC01848589
:101840009585FC01E05CFF4F20813181FC01EE5B5E
:10185000FF4F80819181281B390B2F733327C901DA
:101860000895FC0184859585FC01E05CFF4F408173
:101870005181FC01EE5BFF4F2081318142175307FC
:1018800041F00190F081E02DE80FF91F208130E058
:1018900002C02FEF3FEFC9010895FC0184859585B3
:1018A000FC01E05CFF4F40815181FC01EE5BFF4F8A
:1018B000208131814217530771F0A081B181A80FB7
:1018C000B91F2C918081918101968F739927918303
:1018D000808330E002C02FEF3FEFC9010895FC0183
:1018E00086859785FC01E05CFF4FDC01AE5BBF4F56
:1018F000408151812D913C91119742175307C1F7B7
:101900000895CF93DF93FC0126853785D901A05C2C
:10191000BF4F8D919C91119701968F739927E90183
:10192000CE5BDF4F4881598184179507D9F30D901D
:10193000BC91A02DA20FB31F6C93A685B785A05CA8
:10194000BF4F11969C938E93A689B7892C9181E005
:1019500090E0058C02C0880F991F0A94E2F7282BAB
:101960002C9381E090E0DF91CF91089508951F922C
:101970000F920FB60F9211242F933F934F938F9393
:101980009F93EF93FF934091C6008091B90590918A
:10199000BA0501968F7399272091BB053091BC053C
:1019A0008217930759F0E091B905F091BA05E7580D
:1019B000FA4F40839093BA058093B905FF91EF9158
:1019C0009F918F914F913F912F910F900FBE0F904C
:1019D0001F90189586E195E00E941E0C892B11F04E
:1019E0000C94B60C08951F920F920FB60F9211240B
:1019F0002F933F938F939F93EF93FF9320917505C0
:101A000030917605809177059091780528173907F0
:101A100031F48091C1008F7D8093C10014C0E091AA
:101A20007705F0917805EB5CFA4F2081809177057E
:101A30009091780501968F739927909378058093FC
:101A400077052093C600FF91EF919F918F913F9171
:101A50002F910F900FBE0F901F9018954F925F928D
:101A60006F927F928F92AF92BF92CF92DF92EF925E
:101A7000FF920F931F93CF93DF93CDB7DEB7FC0197
:101A80001382128288EE482E83E0582E612C712C2E
:101A9000448255826682778289E293E091838083D3
:101AA0007587648757874687318B208B138B028B12
:101AB000F58AE48AD78AC68AB18EA08E828E8A89F8
:101AC000838F8B89848F8C89858F8D89868FDF9119
:101AD000CF911F910F91FF90EF90DF90CF90BF902B
:101AE000AF908F907F906F905F904F900895CF92BE
:101AF000DF92EF92FF92CF93DF93EC016A017B01BB
:101B0000411581EE580761057105F9F0EC89FD89F1
:101B100081E090E00E8C02C0880F991F0A94E2F7D2
:101B2000808360E079E08DE390E0A70196010E9458
:101B30008B22215031094109510956954795379516
:101B40002795211580E1380798F0EC89FD891082EE
:101B500060E874E88EE190E0A70196010E948B2274
:101B600021503109410951095695479537952795D7
:101B7000E889F9893083EA89FB892083EE89FF8926
:101B8000408181E090E09C010A8C02C0220F331F4B
:101B90000A94E2F7422B4083EE89FF8940819C0141
:101BA0000B8C02C0220F331F0A94E2F7422B4083B2
:101BB000EE89FF8940819C010C8C02C0220F331FEB
:101BC0000A94E2F7422B4083EE89FF8920810D8C35
:101BD00002C0880F991F0A94E2F7809582238083C0
:101BE000DF91CF91FF90EF90DF90CF900895CF934A
:101BF000DF93FC0186859785DC01A05CBF4FEC017B
:101C0000CE5BDF4F4D915C9111972881398142174E
:101C10005307C1F7A689B7894C9181E090E09C01F8
:101C2000028C02C0220F331F0A94E2F7209524236E
:101C30002C93A689B7894C919C01038C02C0220F7A
:101C4000331F0A94E2F7209524232C93A689B789A1
:101C50004C919C01048C02C0220F331F0A94E2F7BE
:101C6000209524232C93A689B7892C91058C02C03A
:101C7000880F991F0A94E2F7809582238C938485BC
:101C80009585FC01EE5BFF4F20813181FC01E05C1A
:101C9000FF4F31832083DF91CF91089581E0089534
:101CA000CF92DF92EF92FF920F931F93CF93DF9328
:101CB0006C01EB017A01E60EF71E00E010E00BC0AC
:101CC0006991D601ED91FC910190F081E02DC60162
:101CD0000995080F191FCE15DF0591F7C801DF918F
:101CE000CF911F910F91FF90EF90DF90CF900895CB
:101CF000EF92FF920F931F93CF93DF937C01EB0141
:101D000000E010E0FE0121966491662351F0F70196
:101D1000A081B181ED91FC91C7010995080F191FB0
:101D2000F1CFC801DF91CF911F910F91FF90EF90FC
:101D30000895AF92BF92CF92DF92EF92FF920F93EE
:101D40001F93CF93DF937C016B0100E010E0C0E0B4
:101D5000D0E011C0D701ED91FC91A080B180B80115
:101D6000C6010E94BE16682FC701F5010995C80F6C
:101D7000D91F0F5F1F4FD60114968D919C91159717
:101D80000817190738F3CE01DF91CF911F910F91FA
:101D9000FF90EF90DF90CF90BF90AF9008950C949C
:101DA0007B22DC01ED91FC910190F081E02D099402
:101DB000DB01ED91FC9111970190F081E02DBC01C8
:101DC000CD0109940F931F93CF93DF93EC016DE046
:101DD0000E94D10E8C016AE0CE010E94D10E9C01BE
:101DE000200F311FC901DF91CF911F910F910895ED
:101DF0000F931F93CF93DF93EC010E94780E8C0119
:101E0000CE010E94E20E9C01200F311FC901DF911B
:101E1000CF911F910F9108950F931F93CF93DF934D
:101E2000EC010E94990E8C01CE010E94E20E9C01F1
:101E3000200F311FC901DF91CF911F910F9108959C
:101E40000F931F93CF93DF93EC010E947B228C01B1
:101E5000CE010E94E20E9801280F391FC901DF91BF
:101E6000CF911F910F9108950F931F93CF93DF93FD
:101E7000EC010E94D10E8C01CE010E94E20E9C0169
:101E8000200F311FC901DF91CF911F910F9108954C
:101E90000F931F93CF93DF93EC010E94D80E8C0118
:101EA000CE010E94E20E9C01200F311FC901DF917B
:101EB000CF911F910F9108955F926F927F928F92B1
:101EC0009F92AF92BF92CF92DF92EF92FF920F93C9
:101ED0001F93CF93DF93CDB7DEB7A1970FB6F894DA
:101EE000DEBF0FBECDBF3C016A017B01522E19A29D
:101EF00081E0821710F08AE0582E8E010F5D1F4F8F
:101F0000852C912CA12CB12CC701B601A5019401FF
:101F10000E948B228C2D529E801911240150110990
:101F20008A3010F4805D01C0895CF801808369010A
:101F30007A01C114D104E104F10431F7B801C301FD
:101F40000E947B22A1960FB6F894DEBF0FBECDBFD4
:101F5000DF91CF911F910F91FF90EF90DF90CF9085
:101F6000BF90AF909F908F907F906F905F900895FB
:101F70002115310541F4DC01ED91FC910190F081D6
:101F8000E02D642F09940C945C0F0F931F93CF9353
:101F9000DF93EC010E94B80F8C01CE010E94E20E8B
:101FA0009C01200F311FC901DF91CF911F910F912B
:101FB00008959A01AB0160E070E00C94B80F0F93A4
:101FC0001F93CF93DF93EC019A01AB0160E070E0C7
:101FD0000E94B80F8C01CE010E94E20E9801280FDA
:101FE000391FC901DF91CF911F910F9108959A0177
:101FF000462F50E060E070E00C94B80F0F931F93F1
:10200000CF93DF93EC019A01462F50E060E070E03F
:102010000E94B80F8C01CE010E94E20E9801280F99
:10202000391FC901DF91CF911F910F910895CF9270
:10203000DF92EF92FF920F931F93CF93DF93EC0108
:102040006A017B012115310579F4E881F98101905C
:10205000F081E02D642FDF91CF911F910F91FF90C0
:10206000EF90DF90CF9009942A30310519F477FD75
:102070000EC02AE0B701A601CE01DF91CF911F91DA
:102080000F91FF90EF90DF90CF900C945C0F6DE27A
:102090000E94D10E8C0144275527BA014C195D09C5
:1020A0006E097F092AE0CE010E945C0F9C01200F7F
:1020B000311FC901DF91CF911F910F91FF90EF90D8
:1020C000DF90CF9008950F931F93CF93DF93EC0190
:1020D0000E9417108C01CE010E94E20E9C01200F7D
:1020E000311FC901DF91CF911F910F9108959A017E
:1020F000AB01662757FD6095762F0C9417100F9350
:102100001F93CF93DF93EC019A01AB01662757FD34
:102110006095762F0E9417108C01CE010E94E20E6E
:102120009801280F391FC901DF91CF911F910F919D
:1021300008954F925F926F927F928F929F92AF928B
:10214000BF92CF92DF92EF92FF920F931F93CF93A4
:102150003C014A015B01C22F20E030E0A901C5012A
:10216000B4010E94291F87FF0AC06DE2C3010E94CB
:10217000D10E2C01B7FAB094B7F8B09402C0412C3C
:10218000512C10E060E070E080E09FE307C020E0A9
:1021900030E040E251E40E94571E1F5F1C13F7CF4E
:1021A000262F372F482F592FC501B4010E94161D25
:1021B000962EA72EB82EC92E0E94971BD62EE72E3C
:1021C000F82E192F0E9403209B01AC01692D7A2D56
:1021D0008B2D9C2D0E94421DC62EB72EA82E992E07
:1021E0002AE04D2D5E2D6F2D712FC3010E945C0FD3
:1021F0008C01040D151DCC23B9F165E372E0C30118
:102200000E947B22080F191F2FC020E030E040E21F
:1022100051E46C2D7B2D8A2D992D0E94721D4B014E
:102220005C01792D9B2D0E94B41F6B01EE24D7FC1D
:10223000E094FE2C2AE030E0B701A601C3010E9421
:102240001710080F191FC701B6010E94581F9B01E4
:10225000AC01682D792D8A2D9B2D0E94421DC62E22
:10226000B72EA82E992EC150C111CFCFC801CF9142
:102270001F910F91FF90EF90DF90CF90BF90AF90A4
:102280009F908F907F906F905F904F9008950C94E7
:1022900099100F931F93CF93DF93EC010E94991035
:1022A0008C01CE010E94E20E9801280F391FC9014E
:1022B000DF91CF911F910F9108958230E8F4E82FBC
:1022C000F0E0EE0FFF1FE354FA4F7183608381301B
:1022D00041F0809169008C7F842B80936900E89A9B
:1022E000089580916900440F551F440F551F837F47
:1022F000842B80936900E99A0895823068F48130D4
:1023000011F0E89801C0E998E82FF0E0EE0FFF1F08
:10231000E354FA4F1182108208951F920F920FB664
:102320000F9211242F933F934F935F936F937F935B
:102330008F939F93AF93BF93EF93FF938091BD05CE
:102340009091BE05892B29F0E091BD05F091BE0565
:102350000995FF91EF91BF91AF919F918F917F91DF
:102360006F915F914F913F912F910F900FBE0F9002
:102370001F9018951F920F920FB60F9211242F9352
:102380003F934F935F936F937F938F939F93AF93FD
:10239000BF93EF93FF938091BF059091C005892B68
:1023A00029F0E091BF05F091C0050995FF91EF91EB
:1023B000BF91AF919F918F917F916F915F914F915D
:1023C0003F912F910F900FBE0F901F901895FC0119
:1023D000808191810C94A023CF93DF93EC018881BD
:1023E0009981009711F00E94A023198218821D8202
:1023F0001C821B821A82DF91CF9108950F931F9345
:10240000CF93DF93EC018B016F5F7F4F88819981C0
:102410000E943C24009731F0998388831B830A83B0
:1024200081E001C080E0DF91CF911F910F9108956D
:10243000CF93DF93EC0188819981892B31F08A81D8
:102440009B818617970708F00CC0CE010E94FE11F1
:10245000882349F08C819D81892B19F4E881F981C9
:10246000108281E001C080E0DF91CF910895EF926A
:10247000FF920F931F93CF93DF93EC017B018A01AF
:10248000BA010E941812811104C0CE010E94EC1101
:1024900007C01D830C83B701888199810E94722532
:1024A000CE01DF91CF911F910F91FF90EF90089592
:1024B000DC0111961C921E9213961C921E9212978A
:1024C00015961C921E92149716961C926115710512
:1024D00059F0DB010D900020E9F7AD0141505109A1
:1024E000461B570B0C9437120895CF93DF93EC01E2
:1024F000FB018617970761F0608171816115710595
:1025000029F0448155810E94371202C00E94EC11CB
:10251000CE01DF91CF910895FC01118210821382C8
:1025200012821582148216820C947512CF93DF9357
:10253000D82FC92F6115710561F0DB010D900020C6
:10254000E9F7AD0141505109461B570B0E94371264
:1025500002C00E94EC118D2F9C2FDF91CF91089526
:102560000F931F93CF93DF93CDB7DEB7A1970FB62D
:10257000F894DEBF0FBECDBF8C01CB01BA01F801CC
:10258000118210821382128215821482168230E028
:10259000AE014F5F5F4F0E942526BE016F5F7F4FE8
:1025A000C8010E949612A1960FB6F894DEBF0FBE26
:1025B000CDBFDF91CF911F910F9108950F931F937E
:1025C000CF93DF93CDB7DEB7A2970FB6F894DEBFF7
:1025D0000FBECDBF8C01CB01BA01F8011182108270
:1025E0001382128215821482168230E0AE014F5F90
:1025F0005F4F0E94DC25BE016F5F7F4FC8010E94C4
:102600009612A2960FB6F894DEBF0FBECDBFDF9133
:10261000CF911F910F9108950F931F93CF93DF9345
:10262000CDB7DEB761970FB6F894DEBF0FBECDBF52
:102630008C01CB01F8011182108213821282158263
:102640001482168250E0BE016F5F7F4F0E944A26BF
:10265000BE016F5F7F4FC8010E94961261960FB650
:10266000F894DEBF0FBECDBFDF91CF911F910F91C8
:1026700008950F931F93CF93DF93CDB7DEB7629783
:102680000FB6F894DEBF0FBECDBF8C01CB01F801B1
:10269000118210821382128215821482168250E0F7
:1026A000BE016F5F7F4F0E94BB25BE016F5F7F4FF2
:1026B000C8010E94961262960FB6F894DEBF0FBE54
:1026C000CDBFDF91CF911F910F9108950F931F936D
:1026D000CF93DF93CDB7DEB729970FB6F894DEBF5F
:1026E0000FBECDBF8C01862FF8011182108213829C
:1026F000128215821482168250E0BE016F5F7F4FF6
:1027000090E00E944A26BE016F5F7F4FC8010E9481
:10271000961229960FB6F894DEBF0FBECDBFDF919B
:10272000CF911F910F910895CF93DF9300D0CDB734
:10273000DEB7FC011182108213821282158214828C
:10274000168269831A82BE016F5F7F4F0E949612C4
:102750000F900F90DF91CF910895EF92FF920F931A
:102760001F93CF93DF93EC017B010C811D816115D9
:10277000710511F480E016C04115510591F0040F68
:10278000151FB8010E9418128823A1F328813981EE
:102790008C819D81B701820F931F0E9472251D833A
:1027A0000C8381E0DF91CF911F910F91FF90EF900B
:1027B0000895FB0144815581608171810C94AD13B2
:1027C0006115710559F0DB010D900020E9F7AD01AD
:1027D00041505109461B570B0C94AD1380E00895EE
:1027E000CF93DF9300D0CDB7DEB769831A8241E083
:1027F00050E0BE016F5F7F4F0E94AD130F900F90AE
:10280000DF91CF910895EF92FF920F931F93CF9393
:10281000DF9300D000D0CDB7DEB77C01862F4AE031
:1028200050E08E010F5F1F4FB80190E00E94BB2562
:10283000F80101900020E9F7AF0141505109401B18
:10284000510BB801C7010E94AD130F900F900F906C
:102850000F90DF91CF911F910F91FF90EF9008950E
:10286000EF92FF920F931F93CF93DF93CDB7DEB715
:1028700027970FB6F894DEBF0FBECDBF7C01CB010A
:102880004AE050E08E010F5F1F4FB8010E94BB2548
:10289000F80101900020E9F7AF0141505109401BB8
:1028A000510BB801C7010E94AD1327960FB6F894DB
:1028B000DEBF0FBECDBFDF91CF911F910F91FF9073
:1028C000EF900895EF92FF920F931F93CF93DF93B2
:1028D00000D000D000D0CDB7DEB77C01CB014AE0FC
:1028E00050E08E010F5F1F4FB8010E944A26F80189
:1028F00001900020E9F7AF0141505109401B510BF5
:10290000B801C7010E94AD1326960FB6F894DEBF3A
:102910000FBECDBFDF91CF911F910F91FF90EF9030
:102920000895EF92FF920F931F93CF93DF93CDB74C
:10293000DEB72C970FB6F894DEBF0FBECDBF7C017B
:10294000CB01BA012AE030E08E010F5F1F4FA801D2
:102950000E94DC25F80101900020E9F7AF01415009
:102960005109401B510BB801C7010E94AD132C96B1
:102970000FB6F894DEBF0FBECDBFDF91CF911F9190
:102980000F91FF90EF900895EF92FF920F931F9396
:10299000CF93DF93CDB7DEB72B970FB6F894DEBF9A
:1029A0000FBECDBF7C01CB01BA012AE030E08E0121
:1029B0000F5F1F4FA8010E942526F80101900020FB
:1029C000E9F7AF0141505109401B510BB801C70154
:1029D0000E94AD132B960FB6F894DEBF0FBECDBF8D
:1029E000DF91CF911F910F91FF90EF900895CF93BA
:1029F000DF93D82FC92FFB014481558160817181FC
:102A00000E94AD13811104C08D2F9C2F0E94EC11E8
:102A10008D2F9C2FDF91CF910895CF93DF93D82FE7
:102A2000C92F6115710569F0DB010D900020E9F7F0
:102A3000AD0141505109461B570B0E94AD13811146
:102A400004C08D2F9C2F0E94EC118D2F9C2FDF91A5
:102A5000CF910895CF93DF93D82FC92F0E94F01301
:102A6000811104C08D2F9C2F0E94EC118D2F9C2F63
:102A7000DF91CF910895CF93DF93D82FC92F0E9474
:102A80000314811104C08D2F9C2F0E94EC118D2FF7
:102A90009C2FDF91CF910895CF93DF93D82FC92F2B
:102AA0000E943014811104C08D2F9C2F0E94EC11C4
:102AB0008D2F9C2FDF91CF910895CF93DF93D82F47
:102AC000C92F0E946214811104C08D2F9C2F0E9477
:102AD000EC118D2F9C2FDF91CF910895CF93DF9331
:102AE000D82FC92F0E949114811104C08D2F9C2FC3
:102AF0000E94EC118D2F9C2FDF91CF910895CF93E1
:102B0000DF93D82FC92F0E94C414811104C08D2FC8
:102B10009C2F0E94EC118D2F9C2FDF91CF91089557
:102B2000CF93DF93DC01ED91FC91EB01A881B9819A
:102B3000309711F01097C9F4109759F0EB012C81E0
:102B40003D81232B31F02C9130E0319521953109D5
:102B500014C0309781F0DC0114968D919C911597EB
:102B6000892B49F0208130E008C0BD01CF01DF9101
:102B7000CF910C94692520E030E0C901DF91CF911D
:102B80000895FC0144815581FB0124813581421760
:102B9000530729F40E94901521E0892B09F020E0C9
:102BA000822F0895DC0114962D913C911597232BCB
:102BB00039F481E06115710511F0FB0108C0089539
:102BC000DC01ED91FC916115710529F481E09081A2
:102BD000992349F007C0CF010E9469259C0181E03B
:102BE000232B09F080E008950E949015892F881FFB
:102BF0008827881F08950E94901521E0181619064D
:102C00000CF020E0822F08950E94901521E0181604
:102C100019060CF420E0822F08950E949015892F48
:102C20008095881F8827881F0895EF92FF920F9341
:102C30001F93CF93DF938617970709F1FC01248137
:102C40003581FB014481558124173507D1F4232BAD
:102C5000B1F0C081D181FC01008111810BC090E0F5
:102C60000E9433257C01899190E00E943325E8166B
:102C7000F90639F4F80181918F018111F0CF81E0DB
:102C800001C080E0DF91CF911F910F91FF90EF90F5
:102C90000895FA01DB0114964D915C911597DC01C2
:102CA00014962D913C911597241B350B2E173F0739
:102CB00090F08D919C91009771F0DB016D917C916A
:102CC0006115710541F08E0F9F1F0E9479259C01AF
:102CD00081E0232B09F080E00895FC0144815581B7
:102CE000FB01248135814217530720F040E050E07A
:102CF0000C94491680E00895FC0184819581DB01E4
:102D000014964D915C91159784179507A0F020813A
:102D100031812115310579F06D917C916115710535
:102D200051F0841B950B820F931F0E9469259C0113
:102D300081E0232B09F080E00895DC0114962D91A9
:102D40003C9115976217730728F4ED91FC91E60FFB
:102D5000F71F40830895FC012481358162177307B2
:102D600020F480819181009729F41092C10561ECD3
:102D700075E002C0680F791FCB010895FC01248122
:102D800035816217730748F480819181009729F09B
:102D9000FC01E60FF71F8081089580E008950C94F0
:102DA000BE160F931F93CF93DF93EB01411551058F
:102DB000E9F02097D9F0FC01048115812017310733
:102DC00008F013C041505109021B130B4017510763
:102DD00008F48A01FC0160817181620F731FA801F0
:102DE000CE010E948725C00FD11F1882DF91CF919D
:102DF0001F910F910895CF93DF93FC0184819581FA
:102E00004817590770F4C081D18170E0CE01840F5A
:102E1000951F0E945E25009721F09C012C1B3D0B05
:102E200002C02FEF3FEFC901DF91CF91089540E03D
:102E300050E00C94FB16CF93DF93FC0184819581C5
:102E40004817590780F4C081D181FB0160817181ED
:102E5000CE01840F951F0E94A125009721F09C01AF
:102E60002C1B3D0B02C02FEF3FEFC901DF91CF912B
:102E7000089540E050E00C941B17DF92EF92FF9210
:102E80000F931F93CF93DF93EC018C819D814817A3
:102E9000590718F02FEF3FEF1BC08A010F5F1F4F3C
:102EA000E881F981E00FF11FD0801082E880F9807D
:102EB00070E0C7010E949625F701E00FF11FD08254
:102EC000009741F328813981AC01421B530B9A01D1
:102ED000C901DF91CF911F910F91FF90EF90DF908B
:102EE0000895FC0144815581415051090C943D17CE
:102EF000AF92BF92CF92DF92EF92FF920F931F9308
:102F0000CF93DF936B018A01FB0144815581411509
:102F1000510569F1FC01248135812115310539F113
:102F20002417350720F10217130718F08901015003
:102F30001109FC01E080F180C701CFEFDFEF5701FD
:102F4000A00EB11E10C0F601608171810E94A12502
:102F5000009779F09C012E193F090217130708F416
:102F60009E010196E901A816B90668F702C0CFEFE5
:102F7000DFEFCE01DF91CF911F910F91FF90EF9086
:102F8000DF90CF90BF90AF900895FC0144815581B0
:102F9000FB0124813581421B530B0C947817BF929F
:102FA000CF92DF92EF92FF920F931F93CF93DF9315
:102FB0006C017B01EA0189012417350720F48D2F6C
:102FC000E901042F182F65E371E0C6010E94581231
:102FD000D70114968D919C9115978C179D07C8F079
:102FE0008017910708F48C01D701ED91FC9111979E
:102FF000E00FF11FB08010826D917C916C0F7D1FEE
:10300000C6010E949612D701ED91FC91E00FF11FCD
:10301000B082C601DF91CF911F910F91FF90EF9089
:10302000DF90CF90BF900895CF93DF93EC01FB0129
:10303000248135810E94CF17CE01DF91CF91089571
:10304000DC01ED91FC91309729F40895861301C0BD
:103050004083319680818111F9CF08952F923F925C
:103060004F925F926F927F928F929F92AF92BF9298
:10307000CF92DF92EF92FF920F931F93CF93DF9344
:103080008C015B017A01DC0114966D907C901597A0
:103090006114710409F4E1C0FB01448055804114BE
:1030A000510409F4DAC0DA011496CD90DC9015973A
:1030B000C418D508FC01C081D181C114D104E1F448
:1030C00011C0D7016C9111967C91119714964D9176
:1030D0005C911597C8010E944325F701C481D581F1
:1030E000C00FD11FD5016D917C91CE010E94A12509
:1030F0008C01009731F7B1C0D7FE02C04E012FC03E
:10310000FB012080318043014EC023014C1A5D0A2F
:10311000A201BE01C4010E944325E401C40DD51DD6
:10312000D7016C9111967C91119714964D915C91F9
:103130001597CE010E944325F701848095808C0E5F
:103140009D1ED5011496CD91DC911597C60DD71D06
:10315000F801848195818C0D9D1D95838483D50113
:103160006D917C91CE010E94A1253C01009769F6EA
:10317000BE01C401DF91CF911F910F91FF90EF909D
:10318000DF90CF90BF90AF909F908F907F906F9087
:103190005F904F903F902F900C947225EC01C40DDE
:1031A000D51D8C0C9D1CB101CE010E94A12500975C
:1031B000A9F78614970409F450C0F801828193811D
:1031C0008815990598F4B401C8010E94FE1188235E
:1031D00009F443C00BC0D7FD40C0AE01B501C80122
:1031E0000E947817EC0197FF07C037C0D8011496EA
:1031F000CD91DC9115972FC0F80180819181D50187
:1032000014962D913C9115972C0F3D1F820F931F03
:1032100044815581421B530BBC018C0D9D1D0E94A6
:103220004C25F801848195818C0D9D1D95838483A7
:103230000190F081E02DE80FF91F1082D8012D9147
:103240003C912C0F3D1FF7016081718144815581B4
:10325000C9010E9443252197BECFDF91CF911F91D5
:103260000F91FF90EF90DF90CF90BF90AF909F9025
:103270008F907F906F905F904F903F902F90089528
:10328000CF93DF93FC01C081D181209729F407C03F
:1032900090E00E943325899388818111F9CFDF91D5
:1032A000CF910895CF93DF93FC01C081D181209706
:1032B00029F407C090E00E943B2589938881811101
:1032C000F9CFDF91CF910895AF92BF92CF92DF9265
:1032D000EF92FF920F931F93CF93DF936C01DC016A
:1032E000ED90FC901197E114F10409F442C014969A
:1032F0000D911C91159701151105D9F15701E501A3
:10330000BFEFAB1ABB0A888190E00E942B25892B66
:10331000B1F7015011090E0D1F1DF801808190E0D9
:103320000E942B25892B69F40F5F1F4F0C1B1D0B6F
:10333000D60115961C930E931497EC16FD0650F4C7
:1033400004C00C171D0790F4EFCFA801BE01C70100
:103350000E944325D601ED91FC91119714968D9111
:103360009C911597E80FF91F108203C001501109B5
:10337000D4CFDF91CF911F910F91FF90EF90DF900D
:10338000CF90BF90AF900895FC018081918100970C
:1033900011F00C94042560E070E080E090E0089566
:1033A0000C9405230C94A02321E030E0FC018081E3
:1033B000882311F020E030E0C901089521E0FC01EC
:1033C00020830895089508951F920F920FB60F92CB
:1033D00011242F933F938F939F93AF93BF9380912B
:1033E000C2059091C305A091C405B091C505309167
:1033F000CA05232F2D5F2D3720F40196A11DB11D85
:1034000005C0232F2A570296A11DB11D2093CA057E
:103410008093C2059093C305A093C405B093C505DE
:103420008091C6059091C705A091C805B091C905C6
:103430000196A11DB11D8093C6059093C705A09369
:10344000C805B093C905BF91AF919F918F913F91EE
:103450002F910F900FBE0F901F9018950F931F93F1
:103460008FB7F8940091C2051091C3052091C4054F
:103470003091C5058FBFB801C9011F910F91089503
:103480000F931F939FB7F8940091C6051091C7053D
:103490002091C8053091C90586B5A89B06C08F3F0D
:1034A00021F00F5F1F4F2F4F3F4F9FBF322F212F14
:1034B000102F0027080F111D211D311D42E0000FA4
:1034C000111F221F331F4A95D1F7B801C9011F915F
:1034D0000F910895CF92DF92EF92FF92CF93DF93F7
:1034E0006B017C010E94401AEB010EC00E94401A41
:1034F0006C1B7D0B683E734038F081E0C81AD10820
:10350000E108F108C851DC4FC114D104E104F10411
:1035100069F7DF91CF91FF90EF90DF90CF90089502
:10352000019739F0880F991F880F991F029701970B
:10353000F1F70895789484B5826084BD84B5816084
:1035400084BD85B5826085BD85B5816085BDEEE6AB
:10355000F0E0808181608083E1E8F0E0108280818A
:1035600082608083808181608083E0E8F0E08081F8
:1035700081608083E1EBF0E0808184608083E0EB18
:10358000F0E0808181608083EAE7F0E08081846000
:10359000808380818260808380818160808380815C
:1035A000806880831092C1000895833069F028F408
:1035B0008130A1F0823011F514C08630B1F087302F
:1035C000C1F08430D9F404C0809180008F7703C0AB
:1035D000809180008F7D80938000089584B58F77DF
:1035E00002C084B58F7D84BD08958091B0008F772F
:1035F00003C08091B0008F7D8093B0000895CF9379
:10360000DF9390E0FC01E458FF4F4491FC01E05748
:10361000FF4F8491882341F190E0880F991FFC01AE
:10362000E854FF4F25913491D90182559F4FFC01F9
:1036300085919491C82FD92F9FB7F8948C916111DF
:1036400006C0409584238C938881842308C062300F
:1036500041F4242F209582238C938881842B8883A6
:1036600002C0842B8C939FBFDF91CF9108950F935D
:103670001F93CF93DF931F92CDB7DEB7282F30E093
:10368000F901E859FF4F8491F901E458FF4F149173
:10369000F901E057FF4F04910023D1F0882321F076
:1036A00069830E94D51A6981E02FF0E0EE0FFF1FB9
:1036B000E255FF4F85919491DC019FB7F8948C916E
:1036C000611103C01095812301C0812B8C939FBF92
:1036D0000F90DF91CF911F910F910895CF93DF93BA
:1036E000282F30E0F901E859FF4F8491F901E4589F
:1036F000FF4FD491F901E057FF4FC491CC2389F0DB
:1037000081110E94D51AEC2FF0E0EE0FFF1FEC554F
:10371000FF4F85919491DC018C918D2321E030E065
:1037200011F420E030E0C901DF91CF910895CF92EC
:10373000DF92EF92FF920F931F936B017C0120E0C9
:1037400030E040E05FE40E94FA1E87FD0EC020E0FA
:1037500030E040E05FE4C701B6010E94421D0E94D4
:10376000B41F8B019C01305806C0C701B6010E94EE
:10377000B41F8B019C01B801C9011F910F91FF90EB
:10378000EF90DF90CF900895A0E0B0E0EAECFBE18D
:103790000C94B1223C01CB01EA01D3012C912230DF
:1037A00008F43EC1FB013081323008F436C12430C8
:1037B00071F4343009F034C111962C9181812817AD
:1037C00009F42EC1B1E26B2EB1E07B2E29C1343059
:1037D00009F423C1323091F4223009F021C128E0EC
:1037E000F301DA0101900D922A95E1F7DB011196C0
:1037F0008C91F30191818923898311C1223009F4CD
:103800000CC1D3011296ED91FC911397DB01129636
:103810006D917C911397D30114960D911D912D916B
:103820003C911797DC011496CD90DD90ED90FC90C3
:103830001797AF01461B570BDA0157FF04C0AA27A1
:10384000BB27A41BB50BA032B1050CF065C0141644
:1038500015067CF5B701A6010A2E04C0769567957A
:10386000579547950A94D2F7812C912C5401839453
:1038700004C0880C991CAA1CBB1CAA95D2F7B1E005
:103880008B1A9108A108B1088C209D20AE20BF2082
:10389000C12CD12C7601C39481149104A104B104EC
:1038A00019F4C12CD12C7601C42AD52AE62AF72A8C
:1038B0003EC0452BE1F1EA0FFB1FB901A8010A2E1A
:1038C00004C076956795579547950A94D2F7812C51
:1038D000912C5401839404C0880C991CAA1CBB1C15
:1038E000AA95D2F7A1E08A1A9108A108B10880220E
:1038F0009122A222B32201E010E020E030E0811406
:103900009104A104B10419F400E010E09801042B23
:10391000152B262B372B0BC06E177F0724F4C12CD9
:10392000D12C760104C0FB0100E010E09801D30126
:1039300011964C91DC0111968C91481709F442C004
:10394000442349F0D701C601801B910BA20BB30B96
:103950008C019D0104C00C191D092E093F0937FD7A
:1039600004C01982FB83EA830BC081E08983FB8357
:10397000EA8330952095109501951F4F2F4F3F4FAB
:103980000C831D832E833F830DC0880F991FAA1FB0
:10399000BB1F8C839D83AE83BF838A819B810197EC
:1039A0009B838A838C819D81AE81BF818C019D0127
:1039B00001501109210931090F3F1F4F2F4F3F437C
:1039C00020F30BC04983FB83EA830C0D1D1D2E1DC4
:1039D0003F1D0C831D832E833F8383E088830C81EE
:1039E0001D812E813F8137FF1AC0D901C801817026
:1039F0009927AA27BB273695279517950795802BDA
:103A0000912BA22BB32B8C839D83AE83BF838A81A2
:103A10009B8101969B838A8302C03C0101C03E01C9
:103A2000C301CDB7DEB7EEE00C94CD22A0E2B0E04A
:103A3000ECE1FDE10C94BD226D8F7E8F8F8F98A3FA
:103A4000298F3A8F4B8F5C8FBE016F5E7F4FCE0107
:103A50004D960E943A21BE01675F7F4FCE01499685
:103A60000E943A21AE014F5F5F4FBE01675F7F4FFB
:103A7000CE0141960E94C41B0E947920A096E2E0EC
:103A80000C94D922A0E2B0E0E8E4FDE10C94BD2260
:103A90006D8F7E8F8F8F98A3298F3A8F4B8F5C8F7E
:103AA000BE016F5E7F4FCE014D960E943A21BE014E
:103AB000675F7F4FCE0149960E943A218A8591E047
:103AC00089278A87AE014F5F5F4FBE01675F7F4FD7
:103AD000CE0141960E94C41B0E947920A096E2E08C
:103AE0000C94D922A0E2B0E0E8E7FDE10C94AF220B
:103AF0006D8F7E8F8F8F98A3298F3A8F4B8F5C8F1E
:103B0000BE016F5E7F4FCE014D960E943A21BE01ED
:103B1000675F7F4FCE0149960E943A219989923082
:103B200008F412C08985823008F41AC0943021F458
:103B3000823009F4B4C008C0843021F4923009F412
:103B4000AEC00EC0923051F481E02A899A852913C3
:103B500001C080E08A8BCE014196A3C0823051F42F
:103B600081E02A899A85291301C080E08A87CE01E5
:103B7000099697C08D889E88AF88B88C0D851E8564
:103B80002F853889E0E2F0E080E090E0DC01C12C94
:103B9000D12C760140E050E0BA0180FE18C0400F01
:103BA000511F621F731F8C0D9D1DAE1DBF1D412C2B
:103BB000512C32014394401751076207730718F0E4
:103BC000412C512C3201840D951DA61DB71DCC0C26
:103BD000DD1CEE1CFF1C37FF02C06894C0F8000F0C
:103BE000111F221F331FB694A7949794879431977F
:103BF000A1F62B893C89EB85FC852E0F3F1F2E5F9C
:103C00003F4F3C832B8321E0EA893A85E31301C0CF
:103C100020E02A83EB81FC810CC080FF05C07695F3
:103C20006795579547957068B695A7959795879529
:103C30003196B7FDF2CF9F010CC0880F991FAA1FC4
:103C4000BB1F77FD8160440F551F661F771F2150F2
:103C500031090097A105E0E4BE0778F32B833C838C
:103C60008C019D010F77112722273327003411057E
:103C70002105310559F487FD09C0452B462B472BFB
:103C800029F0805C9F4FAF4FBF4F80788D839E831C
:103C9000AF83B88783E08983CE01019602C081E2B9
:103CA00091E00E947920A096E0E10C94CB22A8E15B
:103CB000B0E0EDE5FEE10C94B7226D8B7E8B8F8B2F
:103CC000988F298B3A8B4B8B5C8BBE01675F7F4F44
:103CD000CE0145960E943A21BE016F5F7F4FCE0113
:103CE00041960E943A219985923008F475C08981E5
:103CF000823008F474C02A853A8123272A879430B9
:103D000011F0923019F4981367C06CC0843039F404
:103D10001D861E861F86188A1C861B8604C082305C
:103D200029F484E08987CE0109965EC08B859C8545
:103D30002B813C81821B930B9C878B874D855E85F5
:103D40006F857889CD80DE80EF80F8844C155D0525
:103D50006E057F0538F4440F551F661F771F0197C6
:103D60009C878B87EFE1F0E000E010E020E030E49A
:103D700080E090E0DC014C155D056E057F0540F0AC
:103D8000802B912BA22BB32B4C195D096E097F0957
:103D90003695279517950795440F551F661F771F72
:103DA000319749F78C019D010F771127222733277F
:103DB000003411052105310559F487FD09C0452B53
:103DC000462B472B29F0805C9F4FAF4FBF4F807829
:103DD0008D879E87AF87B88BCE01099605C0CE012F
:103DE000019602C081E291E00E9479206896E8E0A5
:103DF0000C94D322A8E1B0E0E0E0FFE10C94BD22F6
:103E00006D8B7E8B8F8B988F298B3A8B4B8B5C8B3A
:103E1000BE01675F7F4FCE0145960E943A21BE01E9
:103E20006F5F7F4FCE0141960E943A218985823093
:103E300058F08981823040F0BE016F5F7F4FCE0124
:103E400009960E94A92101C08FEF6896E2E00C94C8
:103E5000D922A8E1B0E0EFE2FFE10C94BD226D8B26
:103E60007E8B8F8B988F298B3A8B4B8B5C8BBE0113
:103E7000675F7F4FCE0145960E943A21BE016F5F7A
:103E80007F4FCE0141960E943A218985823058F0B9
:103E90008981823040F0BE016F5F7F4FCE0109966D
:103EA0000E94A92101C081E06896E2E00C94D92229
:103EB000A8E0B0E0EEE5FFE10C94BB2223E029830B
:103EC0008B019C01002737FD0395112722273327FB
:103ED000402F0A83611571058105910519F482E06F
:103EE000898335C02EE130E03C832B83442371F07D
:103EF00061157105810520E8920771F100271127EE
:103F00009801061B170B280B390B02C08B019C0173
:103F1000C901B8010E94EA220197181619062CF06F
:103F20000D831E832F83388712C0082E04C0000F14
:103F3000111F221F331F0A94D2F70D831E832F8374
:103F400038872EE130E0281B390B3C832B83CE01D0
:103F500001960E94792004C060E070E080E09FEC50
:103F60002896E4E00C94D722ACE0B0E0EAEBFFE165
:103F70000C94BB2269877A878B879C87BE016F5F11
:103F80007F4FCE0109960E943A218981823091F1BA
:103F9000823080F1843041F48A81882331F100E05D
:103FA00010E020E030E829C02B813C8137FD22C0A1
:103FB0002F3131058CF78EE190E0821B930B0D8140
:103FC0001E812F81388504C0369527951795079552
:103FD0008A95D2F78A81882381F0309520951095B3
:103FE00001951F4F2F4F3F4F08C00FEF1FEF2FEFCF
:103FF0003FE703C000E010E09801B801C9012C962A
:10400000E4E00C94D722A8E0B0E0E9E0F0E20C9400
:10401000B7228B019C011A826115710581059105FA
:1040200019F482E089835DC083E089834EE150E02A
:104030005C834B83C901B8010E94EA22019797FF74
:1040400039C0EE27FF27E81BF90B41E050E060E0A4
:1040500070E00E2E04C0440F551F661F771F0A9490
:10406000D2F741505109610971094023512362235C
:104070007323C12CD12C7601C394452B462B472B9F
:1040800019F4C12CD12C760104C0369527951795CB
:104090000795EA95D2F70C291D292E293F290D8372
:1040A0001E832F8338872EE130E0281B390B3C8399
:1040B0002B8317C0009729F40D831E832F83388725
:1040C00010C0082E04C0000F111F221F331F0A94B6
:1040D000D2F70D831E832F833887481B590B5C83CF
:1040E0004B83CE0101960E9479202896E8E00C943B
:1040F000D3220F931F93CF93FC0144815581668196
:104100007781C1818081823020F460618FEF90E0FF
:10411000A3C0843009F49BC0823009F492C04115D9
:1041200051056105710509F48FC022813381223860
:104130008FEF38070CF057C0E2E8FFEFE21BF30BFC
:10414000EA31F10564F58A019B010E2E04C0369513
:104150002795179507950A94D2F781E090E0A0E0A3
:10416000B0E004C0880F991FAA1FBB1FEA95D2F7C1
:104170000197A109B10984239523A623B72341E020
:1041800050E060E070E0892B8A2B8B2B19F440E023
:1041900050E0BA01402B512B622B732B03C040E03F
:1041A00050E0BA01DB01CA018F779927AA27BB2704
:1041B00080349105A105B10539F447FF09C0405C81
:1041C0005F4F6F4F7F4F04C0415C5F4F6F4F7F4F1A
:1041D00081E090E041155105610520E4720748F542
:1041E00080E090E026C0203831058CF5DB01CA0163
:1041F0008F779927AA27BB2780349105A105B105A0
:1042000039F447FF09C0405C5F4F6F4F7F4F04C0D8
:10421000415C5F4F6F4F7F4F77FD04C0C9018158EC
:104220009F4F07C07695679557954795C901805868
:104230009F4F97E076956795579547959A95D1F753
:104240000BC080E090E005C080E090E005C08FEFFB
:1042500090E040E050E0BA01982F9695C0FB97F9A6
:10426000362F80FB37F9642F752F832FCF911F9145
:104270000F910895CF92DF92EF92DC01FB01CC9079
:104280001196DC90119712968C9112973FE7E32ECE
:10429000E8226E2DA60170E0982F991F9927991F8B
:1042A00013962C91822F880F892B90E027FB2227D1
:1042B00020F92183009729F5411551056105710504
:1042C00011F482E027C082E89FEF9383828327E086
:1042D000440F551F661F771F2A95D1F783E080830F
:1042E00009C0440F551F661F771F82819381019774
:1042F0009383828341155105610580E4780788F333
:1043000020C08F3F910579F4411551056105710574
:1043100019F484E0808319C0E4FE03C081E0808347
:1043200010C010820EC08F5791099383828383E05F
:10433000808387E0440F551F661F771F8A95D1F74A
:1043400070644483558366837783EF90DF90CF90CA
:104350000895CF93FC01DB019081923008F452C0A4
:104360008C91823008F44EC0943071F4843039F46A
:1043700011962C9130E08181281B310948C0818140
:10438000882309F43FC03BC0843029F411968C91F6
:10439000811138C034C0923019F48230B9F735C079
:1043A000823069F3C18111968C911197C8131DC099
:1043B0002281338112968D919C91139782179307D6
:1043C0000CF413C0281739070CF417C04481558129
:1043D0006681778114968D919D910D90BC91A02D51
:1043E00084179507A607B70718F4C11108C00AC0BB
:1043F000481759076A077B0740F4C11103C02FEF24
:104400003FEF05C021E030E002C020E030E0C9010C
:10441000CF910895CF93DF931F92CDB7DEB787E199
:1044200094E00E94FC038CE08983BE016F5F7F4FA4
:104430008EE493E00E94CA060F90DF91CF91089519
:104440000E949A1A0E94850B0E94A60BFDCF80E362
:1044500094E00C948E00109219051092180588EEC5
:1044600093E0A0E0B0E080931A0590931B05A09321
:104470001C05B0931D0589E293E090931705809386
:10448000160589E795E0909323058093220585E33F
:1044900095E0909325058093240585EC90E090931A
:1044A00027058093260584EC90E09093290580935E
:1044B000280580EC90E090932B0580932A0581ECF1
:1044C00090E090932D0580932C0586EC90E09093DE
:1044D0002F0580932E0584E08093300583E0809340
:1044E000310587E08093320585E08093330581E0D4
:1044F000809334050895DB010D900020E9F7AD01AC
:1045000041505109461B570BDC01ED91FC91028093
:10451000F381E02D0994A1E21A2EAA1BBB1BFD0119
:104520000DC0AA1FBB1FEE1FFF1FA217B307E40792
:10453000F50720F0A21BB30BE40BF50B661F771FEA
:10454000881F991F1A9469F76095709580959095CA
:104550009B01AC01BD01CF0108952F923F924F9274
:104560005F926F927F928F929F92AF92BF92CF9203
:10457000DF92EF92FF920F931F93CF93DF93CDB70C
:10458000DEB7CA1BDB0B0FB6F894DEBF0FBECDBF84
:1045900009942A88398848885F846E847D848C8455
:1045A0009B84AA84B984C884DF80EE80FD800C815E
:1045B0001B81AA81B981CE0FD11D0FB6F894DEBF41
:1045C0000FBECDBFED010895EE0FFF1F0590F491D2
:1045D000E02D09940E94F32284FF0895CB010E94EC
:1045E000F322805F0895AA27992329F4A85F982BC6
:1045F00011F480E10895903118F4AD5F9295A39580
:10460000990FE8F78A2F992708950F931F93CF9357
:10461000DF938230910510F482E090E0E091CD05C7
:10462000F091CE0520E030E0C0E0D0E023C0408132
:10463000518148175907A8F04817590761F482813A
:104640009381209719F09B838A832EC09093CE0587
:104650008093CD0529C02115310529F04217530754
:1046600010F0A90102C0BE01DF0102811381EF0138
:104670009A01F8013097D9F62115310509F1281B67
:10468000390B2430310590F412968D919C9113973B
:104690006115710521F0FB019383828304C090931F
:1046A000CE058093CD05FD01329644C0FD01E20F99
:1046B000F31F81939193225031092D933C933AC07B
:1046C0002091CB053091CC05232B41F420910201A0
:1046D000309103013093CC052093CB05209100014C
:1046E000309101012115310541F42DB73EB74091BC
:1046F000040150910501241B350BE091CB05F0918D
:10470000CC05E217F307A0F42E1B3F0B281739073F
:1047100078F0AC014E5F5F4F2417350748F04E0F1D
:104720005F1F5093CC054093CB058193919302C0BA
:10473000E0E0F0E0CF01DF91CF911F910F9108955C
:10474000EF92FF920F931F93CF93DF93009709F49B
:104750008EC0DC01129713961C921E921297E09065
:10476000CD05F090CE05E114F10489F42D913C9132
:104770001197280F391F8091CB059091CC05821796
:10478000930789F5B093CC05A093CB0570C0E701E2
:1047900020E030E001C0EA01CA17DB0738F44A81A3
:1047A0005B819E0141155105B1F722C0AC01425019
:1047B0005109FA01D383C28300811181BC01600FCA
:1047C000711F6C177D0761F468817981600F711F1B
:1047D0006E5F7F4F718360836A817B8173836283A5
:1047E0002115310529F4B093CE05A093CD053FC026
:1047F000F901B383A283E90149915991C40FD51FEF
:10480000AC17BD0771F4DC019E918E91840F951F4A
:1048100002969183808312968D919C911397938336
:104820008283A0E0B0E002C0D7017C01F701828161
:1048300093810097C9F7C701029620813181820FC9
:10484000931F2091CB053091CC052817390779F4B7
:10485000109729F41092CE051092CD0504C013963E
:104860001C921E921297F092CC05E092CB05CDB728
:10487000DEB7E6E00C94D522A0E0B0E0E2E4F4E29A
:104880000C94B322EC01009729F4CB010E9405237C
:10489000EC01B4C0DC01A60FB71FFC013297AE17C4
:1048A000BF0718F4C0E0D0E0A9C00081118106174D
:1048B0001707B0F00530110508F4A0C0C80104972F
:1048C0008617970708F49AC002501109061B170BA8
:1048D0000D931D9371836083CD010E94A0238EC030
:1048E0006B01C01AD10A7C01E00EF11EE091CD05EA
:1048F000F091CE0520E030E080E090E048C0EE1579
:10490000FF05D1F580809180540142E0A40EB11CD6
:10491000AC14BD0488F17401EC18FD08670122E0B5
:10492000C20ED11C9E012250310945E0C416D104AB
:1049300078F04281538113965C934E9312971196AF
:10494000FC92EE92F901718360833A2F2B2F09C0FC
:104950000E5F1F4F080D191DD9010D931C93328155
:104960002381009721F0FC013283238347C03093D9
:10497000CD052093CE0542C080819181281739074B
:1049800008F49C0152814381CF01E52FF42F309729
:1049900009F0B5CF8091CB059091CC058E159F0580
:1049A000F1F426173707D8F48091000190910101A6
:1049B000009741F48DB79EB7209104013091050115
:1049C000821B930BA817B90708F06CCFB093CC05E6
:1049D000A093CB05FE013297718360830FC0CB019A
:1049E0000E9405237C01009709F45CCFA801BE0159
:1049F0000E944325CE010E94A023E701CE01CDB73E
:104A0000DEB7ECE00C94CF221F93FC019927882796
:104A1000BC01E89411911032E9F3193010F01E3006
:104A2000C8F31B3251F01D3249F4689406C00E944D
:104A30001026610F711D811D911D119110531A30A7
:104A4000B0F33EF490958095709561957F4F8F4FB0
:104A50009F4F1F910895911150C3803219F08950D2
:104A60008550D0F708959111089581548A5108F422
:104A7000805E855A08959111089581568A5108F4EF
:104A8000805285580895FB01DC0102C001900D920F
:104A900041505040D8F708956817790768F4FB0132
:104AA000DC01E40FF51FA40FB51F02C002900E92A7
:104AB00041505040D8F708950C944325FC01819152
:104AC000861721F08823D9F7992708953197CF01C8
:104AD0000895FB01DC018D91019080190110D9F33B
:104AE000990B0895FB01DC0101900D920020E1F784
:104AF0000895FB01DC014150504030F08D91019050
:104B0000801919F40020B9F7881B990B0895FB014F
:104B1000DC014150504048F001900D920020C9F74F
:104B200001C01D9241505040E0F70895FC0181E022
:104B300090E00190061609F4CF010020D1F701970B
:104B40000895FB0151915523A9F0BF01DC014D915E
:104B500045174111E1F759F4CD010190002049F0CA
:104B60004D9140154111C9F3FB014111EFCF81E097
:104B700090E001970895FB019F01E8944230C4F052
:104B80004532B4F44A3029F497FB1EF49095819590
:104B90009F4F642F77270E943029805D8A330CF065
:104BA000895D8193CB010097A1F716F45DE25193E3
:104BB0001082C9010C949628FA01CF93FF93EF93CA
:104BC000223044F1253234F5C22FE894CA3049F43A
:104BD00097FB3EF490958095709561957F4F8F4F30
:104BE0009F4F2C2F332744275527FF93EF930E9485
:104BF0008B22EF91FF91605D6A330CF0695D6193E8
:104C0000B901CA01605070408040904051F716F4DD
:104C1000CDE2C19310828F919F91CF910C949628F1
:104C2000592F482F372F262F660F771F881F991F60
:104C3000660F771F881F991F620F731F841F951FB0
:104C4000660F771F881F991F0895FA01CF93FF936E
:104C5000EF932230CCF02532BCF4C22F2C2F332717
:104C600044275527FF93EF930E948B22EF91FF91EA
:104C7000605D6A330CF0695D6193B901CA016050EF
:104C800070408040904051F710828F919F91CF915A
:104C90000C949628FB019F01423074F0453264F475
:104CA000642F77270E943029805D8A330CF0895D5C
:104CB0008193CB010097A1F71082C9010C9496282B
:104CC000A0E1B0E0E6E6F6E20C94BB220F89188D75
:104CD00086E08C831A8309838FEF9FE79E838D8301
:104CE000AE01455E5F4F588B4F87698D7A8DCE013F
:104CF00001960E94A026EF81F885E00FF11F108237
:104D00006096E4E00C94D722AEE0B0E0EAE8F6E288
:104D10000C94BB228C0186E08C831A8309838FEF6D
:104D20009FE79E838D83CE0101960E94A026EF818E
:104D3000F885E00FF11F10822E96E4E00C94D72244
:104D4000ACE0B0E0E6EAF6E20C94AD227C016B0147
:104D50008A01FC0117821682838181FFC7C18824E2
:104D60008394912C8C0E9D1EF7019381F60193FD87
:104D7000859193FF81916F01882309F4B3C1853236
:104D800039F493FD859193FF81916F01853229F468
:104D9000B70190E00E94A628E7CF712C312C20E0CB
:104DA0002032A8F48B3261F028F4803251F0833243
:104DB00071F40BC08D3239F0803349F4216028C082
:104DC0002260246025C0286023C0206121C027FD07
:104DD00027C0382F30533A3078F426FF06C0FAE067
:104DE0007F9E300D1124732E13C08AE0389E300D43
:104DF0001124332E20620CC08E3221F426FD72C1A4
:104E0000206406C08C3611F4206802C0883641F454
:104E1000F60193FD859193FF81916F018111C0CFC0
:104E2000982F9554933018F09052933028F40C5FDB
:104E30001F4FFFE3F9830DC0833631F0833771F0E4
:104E4000833509F05EC023C0F801808189830E5F3D
:104E50001F4F66246394712C540115C02801F2E0A1
:104E60004F0E511CF801A080B18026FF03C0672DB2
:104E700070E002C06FEF7FEFC5012C870E948B2886
:104E80003C0182012C856FE7262E222218C02801C2
:104E9000F2E04F0E511CF801A080B18026FF03C044
:104EA000672D70E002C06FEF7FEFC5012C870E9475
:104EB00080283C012C8550E8252E222A820123FCE3
:104EC0001CC006C0B70180E290E00E94A6283A9478
:104ED000832D90E068167906A8F30FC0F50127FC32
:104EE000859127FE81915F01B70190E00E94A6287D
:104EF00031103A94F1E06F1A71086114710471F77E
:104F0000EEC0843611F0893641F5F80127FF07C05D
:104F100060817181828193810C5F1F4F08C0608125
:104F20007181882777FD8095982F0E5F1F4F4FE680
:104F3000642E622297FF09C09095809570956195C7
:104F40007F4F8F4F9F4FF0E86F2A2AE030E0A40197
:104F50000E94D228A82EA81844C0853731F43FEE0D
:104F6000B32EB2222AE030E024C099EFB92EB2224B
:104F70008F36B9F020F4883509F0B4C00DC0803701
:104F800021F0883709F0AEC002C020E1B22AB4FE99
:104F90000BC084E0B82A08C024FF09C0E6E0BE2A9E
:104FA00006C028E030E005C020E130E002C020E18A
:104FB00032E0F801B7FE07C0608171818281938180
:104FC0000C5F1F4F06C06081718180E090E00E5F32
:104FD0001F4FA4010E94D228A82EA8188FE7682E80
:104FE0006B2066FE0BC0362D3E7FA71450F464FE86
:104FF0000AC062FC08C0362D3E7E05C0BA2C362D94
:1050000003C0BA2C01C0B72C34FF0DC0FE01EA0D5D
:10501000F11D8081803311F4397E09C032FF06C052
:10502000B394B39404C0832F867809F0B39433FD0E
:1050300014C030FF0FC07A2CB31460F4730C7B18CB
:10504000B32C08C0B70180E290E03C870E94A628FC
:10505000B3943C85B314B0F304C0B31410F43B18FC
:1050600001C0312C34FF12C0B70180E390E03C87CF
:105070000E94A6283C8532FF1EC031FF03C088E590
:1050800090E002C088E790E0B7010CC0832F8678DB
:1050900091F031FD02C080E201C08BE237FD8DE26C
:1050A000B70190E00E94A62806C0B70180E390E017
:1050B0000E94A6287A94A714C0F3AA94F401EA0DDA
:1050C000F11DB701808190E00E94A628A110F5CFC4
:1050D00006C0B70180E290E00E94A6283A94311001
:1050E000F8CF42CEF7012681378102C02FEF3FEF84
:1050F000C9012C96E2E10C94C922992788270895CA
:10510000FC010590615070400110D8F78095909592
:105110008E0F9F1F0895FC01615070400190011097
:10512000D8F7809590958E0F9F1F0895DC01FC01A4
:10513000672F71917723E1F7329704C07C916D93CB
:1051400070836291AE17BF07C8F308950F931F9342
:10515000CF93DF938C01EB018B8181FD03C00FEFB7
:105160001FEF1AC082FF0DC02E813F818C819D816F
:105170002817390764F4E881F9810193F983E883FA
:1051800006C0E885F985802F0995892B41F78E8126
:105190009F8101969F838E83C801DF91CF911F91DC
:1051A0000F910895FA01AA27283051F1203181F199
:1051B000E8946F936E7F6E5F7F4F8F4F9F4FAF4F1F
:1051C000B1E03ED0B4E03CD0670F781F891F9A1F32
:1051D000A11D680F791F8A1F911DA11D6A0F711DE6
:1051E000811D911DA11D20D009F468943F912AE0F2
:1051F000269F11243019305D3193DEF6CF010895DA
:10520000462F4770405D4193B3E00FD0C9F7F6CF0A
:10521000462F4F70405D4A3318F0495D31FD4052D2
:10522000419302D0A9F7EACFB4E0A6959795879568
:1052300077956795BA95C9F7009761057105089547
:105240009B01AC010A2E06945795479537952795F3
:10525000BA95C9F7620F731F841F951FA01D08958B
:10526000AA1BBB1B51E107C0AA1FBB1FA617B7078C
:1052700010F0A61BB70B881F991F5A95A9F78095A8
:0C5280009095BC01CD010895F894FFCF7B
:10528C000000CF0520004600000000005053000035
:10529C004F555565A6955555555555555555555517
:1052AC00550000000000000000556E6B6E6F776EAD
:1052BC002049443A200042726F6B656E2070616326
:1052CC006B65742072656365697665642E004E6546
:1052DC0078742065787065637465642074782068D0
:1052EC006173207569643D256C752C206574613D76
:1052FC00256C750057696E646F77206F70656E2131
:10530C0020457870656374696E6720256C75206123
:10531C007420256C750057696E646F7720636C6F11
:10532C007365642E20737563636573733D25640028
:10533C00207B7569643A20002C20743A20002C20C4
:10534C0073007D004E4F204D4F524520425546462E
:10535C00455253210052583A004C4F53494E472066
:10536C004441544121005374617274696E67207218
:10537C006631325F696E697469616C697A655F6503
:10538C00646628290052464D3132622066696E6986
:10539C007368656420706F7765722D757020726507
:1053AC007365742E20205374617274696E67206962
:1053BC006E69742E2E2E00617474616368696E6759
:1053CC0020696E7465727275707400506F6C6C69C4
:1053DC006E672043432054525820256C750043437C
:1053EC005F54582049443D256C752C206F6C64200B
:1053FC0073616D706C655F706572696F643D257566
:10540C000043435F54582049443D256C752C206E55
:10541C0065772073616D706C655F706572696F6420
:10542C003D25750069643A256C75206973206D699A
:10543C007373696E672E204E6577204554413D2568
:10544C006C752C206E756D5F706572696F6473205E
:10545C006D69737365643D25750020494E464F3A5E
:10546C002000205741524E494E473A2000204552C9
:10547C00524F523A200020464154414C3A200045AC
:10548C0044462045636F4D616E61676572205265BD
:10549C006365697665720046696E69736865642038
:1054AC00696E69740000000000810C500E1E0C4DDA
:1054BC000C310C6F0C00000000E319500EE319E3E3
:0E54CC0019E319E31900000000E319500E0067
:00000001FF
