:100000000C9460000C944E1D0C947B1D0C94880085
:100010000C9488000C9488000C9488000C94880040
:100020000C9488000C9488000C9488000C94880030
:100030000C9488000C9488000C9488000C94880020
:100040000C94A81D0C9488000C94A71A0C94DA1A2E
:100050000C9488000C9488000C9488000C94880000
:100060000C9488000C948800000000070002010036
:100070000003040600000000000000000102040864
:100080001020408001020408102001020408102002
:10009000040404040404040402020202020203032E
:1000A0000303030300000000250028002B000000CC
:1000B0000000240027002A00E3182619951B2A199E
:1000C00011241FBECFEFD8E0DEBFCDBF15E0A0E00A
:1000D000B1E0E8E5F9E402C005900D92A835B1075A
:1000E000D9F716E0A8E5B5E001C01D92AA3FB10717
:1000F000E1F710E0CEEBD0E004C02297FE010E94B1
:10010000831FC83BD107C9F70E940B190C949F2489
:100110000C940000CF92DF92EF92FF920F931F9307
:100120006B017C0120E030E040E05FE40E94ED03E1
:1001300087FD0EC020E030E040E05FE4C701B6017B
:100140000E9435020E9478048B019C01305806C041
:10015000C701B6010E9478048B019C01B801C90156
:100160001F910F91FF90EF90DF90CF900895A0E046
:10017000B0E0EDEBF0E00C944E1F3C01CB01EA0146
:10018000D3012C91223008F43EC1FB013081323082
:1001900008F436C1243071F4343009F034C11196BA
:1001A0002C918181281709F42EC1B2E16B2EB1E0A8
:1001B0007B2E29C1343009F423C1323091F422302E
:1001C00009F021C128E0F301DA0101900D922A958E
:1001D000E1F7DB0111968C91F301918189238983E9
:1001E00011C1223009F40CC1D3011296ED91FC919A
:1001F0001397DB0112966D917C911397D30114969E
:100200000D911D912D913C911797DC011496CD9085
:10021000DD90ED90FC901797AF01461B570BDA016C
:1002200057FF04C0AA27BB27A41BB50BA032B105FA
:100230000CF065C0141615067CF5B701A6010A2E50
:1002400004C076956795579547950A94D2F7812C07
:10025000912C5401839404C0880C991CAA1CBB1CCB
:10026000AA95D2F7B1E08B1A9108A108B1088C20A9
:100270009D20AE20BF20C12CD12C7601C3948114C7
:100280009104A104B10419F4C12CD12C7601C42A23
:10029000D52AE62AF72A3EC0452BE1F1EA0FFB1FDB
:1002A000B901A8010A2E04C0769567955795479520
:1002B0000A94D2F7812C912C5401839404C0880CA9
:1002C000991CAA1CBB1CAA95D2F7A1E08A1A910816
:1002D000A108B10880229122A222B32201E010E0FD
:1002E00020E030E081149104A104B10419F400E08D
:1002F00010E09801042B152B262B372B0BC06E1703
:100300007F0724F4C12CD12C760104C0FB0100E04E
:1003100010E09801D30111964C91DC0111968C915B
:10032000481709F442C0442349F0D701C601801B95
:10033000910BA20BB30B8C019D0104C00C191D097C
:100340002E093F0937FD04C01982FB83EA830BC0E5
:1003500081E08983FB83EA83309520951095019590
:100360001F4F2F4F3F4F0C831D832E833F830DC0A4
:10037000880F991FAA1FBB1F8C839D83AE83BF83E9
:100380008A819B8101979B838A838C819D81AE8129
:10039000BF818C019D0101501109210931090F3FD5
:1003A0001F4F2F4F3F4320F30BC04983FB83EA834A
:1003B0000C0D1D1D2E1D3F1D0C831D832E833F83A1
:1003C00083E088830C811D812E813F8137FF1AC015
:1003D000D901C80181709927AA27BB27369527958F
:1003E00017950795802B912BA22BB32B8C839D8384
:1003F000AE83BF838A819B8101969B838A8302C0DF
:100400003C0101C03E01C301CDB7DEB7EEE00C9464
:100410006A1FA0E2B0E0EFE0F2E00C945A1F6D8F8B
:100420007E8F8F8F98A3298F3A8F4B8F5C8FBE0161
:100430006F5E7F4FCE014D960E94FE05BE01675F45
:100440007F4FCE0149960E94FE05AE014F5F5F4F80
:10045000BE01675F7F4FCE0141960E94B7000E94A8
:100460003D05A096E2E00C94761FA0E2B0E0EBE33D
:10047000F2E00C945A1F6D8F7E8F8F8F98A3298F77
:100480003A8F4B8F5C8FBE016F5E7F4FCE014D96D2
:100490000E94FE05BE01675F7F4FCE0149960E9414
:1004A000FE058A8591E089278A87AE014F5F5F4FFD
:1004B000BE01675F7F4FCE0141960E94B7000E9448
:1004C0003D05A096E2E00C94761FA0E2B0E0EBE6DA
:1004D000F2E00C944C1F6D8F7E8F8F8F98A3298F25
:1004E0003A8F4B8F5C8FBE016F5E7F4FCE014D9672
:1004F0000E94FE05BE01675F7F4FCE0149960E94B4
:10050000FE059989923008F412C08985823008F47A
:100510001AC0943021F4823009F4B4C008C0843089
:1005200021F4923009F4AEC00EC0923051F481E053
:100530002A899A85291301C080E08A8BCE014196D1
:10054000A3C0823051F481E02A899A85291301C021
:1005500080E08A87CE01099697C08D889E88AF88F3
:10056000B88C0D851E852F853889E0E2F0E080E0AB
:1005700090E0DC01C12CD12C760140E050E0BA01C2
:1005800080FE18C0400F511F621F731F8C0D9D1DF0
:10059000AE1DBF1D412C512C320143944017510711
:1005A0006207730718F0412C512C3201840D951D00
:1005B000A61DB71DCC0CDD1CEE1CFF1C37FF02C0B6
:1005C0006894C0F8000F111F221F331FB694A79420
:1005D000979487943197A1F62B893C89EB85FC850C
:1005E0002E0F3F1F2E5F3F4F3C832B8321E0EA8974
:1005F0003A85E31301C020E02A83EB81FC810CC023
:1006000080FF05C076956795579547957068B695B4
:10061000A795979587953196B7FDF2CF9F010CC0AE
:10062000880F991FAA1FBB1F77FD8160440F551FBC
:10063000661F771F215031090097A105E0E4BE072E
:1006400078F32B833C838C019D010F7711272227A0
:100650003327003411052105310559F487FD09C000
:10066000452B462B472B29F0805C9F4FAF4FBF4F48
:1006700080788D839E83AF83B88783E08983CE01A2
:10068000019602C082E191E00E943D05A096E0E162
:100690000C94681FA8E1B0E0E0E5F3E00C94541F6F
:1006A0006D8B7E8B8F8B988F298B3A8B4B8B5C8BD2
:1006B000BE01675F7F4FCE0145960E94FE05BE01D9
:1006C0006F5F7F4FCE0141960E94FE059985923063
:1006D00008F475C08981823008F474C02A853A8193
:1006E00023272A87943011F0923019F4981367C0A9
:1006F0006CC0843039F41D861E861F86188A1C86BD
:100700001B8604C0823029F484E08987CE010996D3
:100710005EC08B859C852B813C81821B930B9C87C3
:100720008B874D855E856F857889CD80DE80EF80F3
:10073000F8844C155D056E057F0538F4440F551F90
:10074000661F771F01979C878B87EFE1F0E000E041
:1007500010E020E030E480E090E0DC014C155D0525
:100760006E057F0540F0802B912BA22BB32B4C19EB
:100770005D096E097F093695279517950795440FF2
:10078000551F661F771F319749F78C019D010F7721
:10079000112722273327003411052105310559F48B
:1007A00087FD09C0452B462B472B29F0805C9F4FC6
:1007B000AF4FBF4F80788D879E87AF87B88BCE01B4
:1007C000099605C0CE01019602C082E191E00E9427
:1007D0003D056896E8E00C94701FA8E1B0E0E3EFF7
:1007E000F3E00C945A1F6D8B7E8B8F8B988F298B27
:1007F0003A8B4B8B5C8BBE01675F7F4FCE0145967A
:100800000E94FE05BE016F5F7F4FCE0141960E94A0
:10081000FE058985823058F08981823040F0BE0122
:100820006F5F7F4FCE0109960E946D0601C08FEF6A
:100830006896E2E00C94761FA8E0B0E0E2E2F4E013
:100840000C94581F23E029838B019C01002737FD5E
:100850000395112722273327402F0A83611571053D
:100860008105910519F482E0898335C02EE130E0DD
:100870003C832B83442371F061157105810520E8C9
:10088000920771F1002711279801061B170B280BFF
:10089000390B02C08B019C01C901B8010E94871F5E
:1008A0000197181619062CF00D831E832F833887A5
:1008B00012C0082E04C0000F111F221F331F0A94FC
:1008C000D2F70D831E832F8338872EE130E0281B5B
:1008D000390B3C832B83CE0101960E943D0504C059
:1008E00060E070E080E09FEC2896E4E00C94741FD8
:1008F000ACE0B0E0EEE7F4E00C94581F69877A872B
:100900008B879C87BE016F5F7F4FCE0109960E9447
:10091000FE058981823091F1823080F1843041F48A
:100920008A81882331F100E010E020E030E829C01E
:100930002B813C8137FD22C02F3131058CF78EE1B0
:1009400090E0821B930B0D811E812F81388504C09E
:1009500036952795179507958A95D2F78A8188232A
:1009600081F030952095109501951F4F2F4F3F4FE7
:1009700008C00FEF1FEF2FEF3FE703C000E010E0CC
:100980009801B801C9012C96E4E00C94741FA8E00A
:10099000B0E0EDECF4E00C94541F8B019C011A8242
:1009A000611571058105910519F482E089835DC0A7
:1009B00083E089834EE150E05C834B83C901B80139
:1009C0000E94871F019797FF39C0EE27FF27E81B7A
:1009D000F90B41E050E060E070E00E2E04C0440FDF
:1009E000551F661F771F0A94D2F7415051096109BC
:1009F00071094023512362237323C12CD12C76012A
:100A0000C394452B462B472B19F4C12CD12C7601CE
:100A100004C03695279517950795EA95D2F70C29C6
:100A20001D292E293F290D831E832F8338872EE110
:100A300030E0281B390B3C832B8317C0009729F427
:100A40000D831E832F83388710C0082E04C0000F2B
:100A5000111F221F331F0A94D2F70D831E832F8389
:100A60003887481B590B5C834B83CE0101960E944B
:100A70003D052896E8E00C94701F0F931F93CF93C9
:100A8000FC014481558166817781C18180818230FA
:100A900020F460618FEF90E0A3C0843009F49BC024
:100AA000823009F492C0411551056105710509F4C0
:100AB0008FC02281338122388FEF38070CF057C066
:100AC000E2E8FFEFE21BF30BEA31F10564F58A017E
:100AD0009B010E2E04C036952795179507950A940D
:100AE000D2F781E090E0A0E0B0E004C0880F991F49
:100AF000AA1FBB1FEA95D2F70197A109B109842368
:100B00009523A623B72341E050E060E070E0892BF5
:100B10008A2B8B2B19F440E050E0BA01402B512B6B
:100B2000622B732B03C040E050E0BA01DB01CA0125
:100B30008F779927AA27BB2780349105A105B10596
:100B400039F447FF09C0405C5F4F6F4F7F4F04C0CF
:100B5000415C5F4F6F4F7F4F81E090E04115510541
:100B6000610520E4720748F580E090E026C0203857
:100B700031058CF5DB01CA018F779927AA27BB279E
:100B800080349105A105B10539F447FF09C0405CE7
:100B90005F4F6F4F7F4F04C0415C5F4F6F4F7F4F80
:100BA00077FD04C0C90181589F4F07C076956795AE
:100BB00057954795C90180589F4F97E0769567955F
:100BC000579547959A95D1F70BC080E090E005C006
:100BD00080E090E005C08FEF90E040E050E0BA0187
:100BE000982F9695C0FB97F9362F80FB37F9642F25
:100BF000752F832FCF911F910F910895CF92DF9280
:100C0000EF92DC01FB01CC901196DC9011971296CB
:100C10008C9112973FE7E32EE8226E2DA60170E03B
:100C2000982F991F9927991F13962C91822F880F1F
:100C3000892B90E027FB222720F92183009729F5B3
:100C4000411551056105710511F482E027C082E864
:100C50009FEF9383828327E0440F551F661F771F02
:100C60002A95D1F783E0808309C0440F551F661F82
:100C7000771F828193810197938382834115510568
:100C8000610580E4780788F320C08F3F910579F4EF
:100C9000411551056105710519F484E0808319C07F
:100CA000E4FE03C081E0808310C010820EC08F5725
:100CB00091099383828383E0808387E0440F551FEB
:100CC000661F771F8A95D1F77064448355836683C6
:100CD0007783EF90DF90CF900895CF93FC01DB01F5
:100CE0009081923008F452C08C91823008F44EC04A
:100CF000943071F4843039F411962C9130E0818174
:100D0000281B310948C08181882309F43FC03BC0BA
:100D1000843029F411968C91811138C034C09230FE
:100D200019F48230B9F735C0823069F3C181119668
:100D30008C911197C8131DC02281338112968D9119
:100D40009C911397821793070CF413C02817390747
:100D50000CF417C0448155816681778114968D917A
:100D60009D910D90BC91A02D84179507A607B707FC
:100D700018F4C11108C00AC0481759076A077B0751
:100D800040F4C11103C02FEF3FEF05C021E030E078
:100D900002C020E030E0C901CF9108954FEF5FEF2E
:100DA000BA01FC0140835183628373830895FB0180
:100DB0004081518162817381FC0140835183628350
:100DC00073830895FC014FEF5FEFBA0140835183B5
:100DD00062837383448355836683778380E797E1D7
:100DE0009187808712861386148615861686089545
:100DF000FC01DB014D915D916D917C9140835183AC
:100E0000628373834FEF5FEFBA0144835583668338
:100E1000778380E797E1918780871286138614860F
:100E2000158616860895CF92DF92EF92FF920F9368
:100E30001F93CF93DF931F92CDB7DEB77C016B0179
:100E4000FC014385548565857685452B462B472BCC
:100E500009F45FC040855185808191812281338171
:100E600019825F934F933F932F939F938F938AE1C0
:100E700091E09F938F93CE0101969F938F930E9451
:100E8000C808C6010E94E815FC0160817181828159
:100E90009381F7010385148525853685601B710BC9
:100EA000820B930B228530E040E050E00E94281F27
:100EB000C901845496410FB6F894DEBF0FBECDBF72
:100EC0008935924020F4F7013187208705C080E7FB
:100ED00097E1F70191878087F701408551858081EF
:100EE00091812281338119825F934F933F932F9396
:100EF0009F938F938DE391E09F938F93CE01019603
:100F00009F938F930E94C8080FB6F894DEBF0FBE60
:100F1000CDBFC6010E94E815FC014081518162816C
:100F20007381F70180859185480F591F611D711DDF
:100F3000448355836683778381E08287C6010E945C
:100F4000E815FC014081518162817381F70143877B
:100F50005487658776870F90DF91CF911F910F910E
:100F6000FF90EF90DF90CF900895CF92DF92EF92B5
:100F7000FF92CF93DF93EC01CC80DD80EE80FF8089
:100F80000E94F21DC616D706E806F90638F44FEFA0
:100F90005FEFBA014C835D836E837F832496CE011D
:100FA000DF91CF91FF90EF90DF90CF900895CF9396
:100FB000DF931F92CDB7DEB7FC0180859185448118
:100FC000558166817781480F591F611D711D4483CA
:100FD00055836683778382858F5F828790812181A5
:100FE0003281E381F1E0F9831F928F937F936F93B6
:100FF0005F934F93EF933F932F939F9380E691E0FE
:101000009F938F93CE0101969F938F930E94C80860
:101010000FB6F894DEBF0FBECDBF0F90DF91CF911A
:101020000895BF92CF92DF92EF92FF920F931F939A
:10103000CF93DF931F92CDB7DEB78C01B12C2AC0BE
:10104000D8018D919C91BFE0BB9E800D911D112414
:101050000E94B507FC01C080D180E280F380D801F6
:1010600013962C9113978D919C91BFE02B9F800D2F
:10107000911D11240E94B507FC01408151816281BC
:101080007381C416D506E606F70618F4D801139640
:10109000BC92B394F8018281B81690F223818081CA
:1010A0009181FFE02F9F800D911D11240E94B507B3
:1010B000FC014081518162817381D80113968C912A
:1010C0001397ED91FC91BFE08B9FE00DF11D112472
:1010D000808191812281338119827F936F935F9305
:1010E0004F933F932F939F938F9386E991E09F9324
:1010F0008F93CE0101969F938F930E94C8080FB6DD
:10110000F894DEBF0FBECDBF0F90DF91CF911F913E
:101110000F91FF90EF90DF90CF90BF900895FC016A
:1011200083818F5F83839281891301C01382089525
:10113000CF93DF93EC0168814AE050E070E080E4F7
:1011400096E00E94261D8881823089F028F4882349
:1011500041F08130D1F408C0833061F08430A9F4CB
:101160000CC06BEB71E00BC063EC71E008C06AEC83
:1011700071E005C061ED71E002C069ED71E080E4ED
:1011800096E0DF91CF910C941D1CDF91CF910895D3
:101190000F931F93CF93DF93CDB7DEB7C254D1091E
:1011A0000FB6F894DEBF0FBECDBF2B960EAD1FADB0
:1011B0002B9790910601F8018081891778F10E94A0
:1011C000F21DAB01BC012AE030E080E496E00E9411
:1011D000AC1C62EE71E080E496E00E941D1CC80128
:1011E0000E94980862EE71E080E496E00E941D1C67
:1011F000AE01435B5F4F23965FAF4EAF23972D96B3
:101200006EAD7FAD2D97CE0101960E94DC21BE010F
:101210006F5F7F4F80E496E00E943C1CCE5BDF4F07
:101220000FB6F894DEBF0FBECDBFDF91CF911F91F7
:101230000F9108951F93CF93DF931F92CDB7DEB721
:1012400010E01983CE0101960E94980861EE71E0CA
:1012500080E496E00E941D1C1F5F143091F71983F3
:10126000CE0101960E94980863EE71E080E496E05A
:101270000E943C1C0F90DF91CF911F910895EF9237
:10128000FF920F931F93CF93DF933FE0439FA00103
:101290001124AFE02A9F600D711D112420E030E081
:1012A000C0E0DFE013C07B01E20EF31EDC01ED9134
:1012B000FC91E20FF31FE40FF51FD7011D2F0190E2
:1012C0000D921A95E1F7CF5F215F3F4FC013EBCF2F
:1012D000DF91CF911F910F91FF90EF900895FC0146
:1012E00081E081834FEF5FEFBA01428353836483D0
:1012F000758386831086178211861286138614865C
:10130000158616861786108A118A128A148A138AFD
:10131000158A168A178A108E118E128E138E148ECD
:10132000158E168E178E10A211A212A213A2089566
:101330000E9436170C949816CF93DF931F92CDB767
:10134000DEB7FC01208131812115310569F0FB01F7
:101350004081FC018281481738F4FFE04F9F200D47
:10136000311D1124C90112C082E0898384EE91E00D
:101370009F938F93CE0101969F938F930E94C808ED
:1013800080E090E00F900F900F900F900F90DF9102
:10139000CF9108954F925F926F927F928F929F921A
:1013A000AF92BF92CF92DF92EF92FF920F93CF93C3
:1013B000DF9300D000D0CDB7DEB73C012B01E9822E
:1013C000BE016F5F7F4F2C834A835B830E949C0921
:1013D000FC01C080D180E280F380F20180809180A6
:1013E000A280B38089812C814A815B818C149D0409
:1013F000AE04BF0421F4FA01808381E021C08C1483
:101400009D04AE04BF0460F4982F921B923018F430
:10141000FA0180830BC0E92EE694E20E082F0CC07F
:10142000902F981B923020F4FA01008380E008C0CE
:10143000E92EE694E80E282FB201C3010E94CA09E2
:101440000F900F900F900F90DF91CF910F91FF9021
:10145000EF90DF90CF90BF90AF909F908F907F9054
:101460006F905F904F9008952F923F924F925F92AE
:101470006F927F928F929F92AF92BF92CF92DF92A4
:10148000EF92FF920F93CF93DF9300D000D01F9283
:10149000CDB7DEB71C017D836C835B834A83FC017F
:1014A0000281011102C0FA0137C0EC81FD81C080C8
:1014B000D180E280F380013009F04AC01982BE0178
:1014C0006F5F7F4F0E949C09FC0180819181A28106
:1014D000B381C816D906EA06FB0629F4EA81FB8126
:1014E000108281E084C0EC81FD81C080D180E280E7
:1014F000F3801982BE016F5F7F4FC1010E949C097A
:10150000FC0180819181A281B381C816D906EA06C7
:10151000FB0628F4EA81FB81108280E068C0EC8140
:10152000FD81C080D180E280F3801982BE016F5FAF
:101530007F4FC1010E949C09FC0180819181A281A1
:10154000B3818C159D05AE05BF0508F050C00AC0DB
:10155000FC0140845184628473844C145D046E04E5
:101560007F0420F4EA81FB810083D7CFFC018480D3
:101570009580A680B780C814D904EA04FB0408F457
:10158000C9CFC701B601681979098A099B090E9468
:10159000C7046B017C01C301B201681979098A098A
:1015A0009B090E94C7049B01AC01C701B6010E94C0
:1015B0004A036B017C01602F70E06150710988273C
:1015C00077FD8095982F0E941C049B01AC01C701F8
:1015D000B6010E9465020E948A00E62E20E04A8140
:1015E0005B816C817D81C1010E94CA0900C00F909E
:1015F0000F900F900F900F90DF91CF910F91FF9070
:10160000EF90DF90CF90BF90AF909F908F907F90A2
:101610006F905F904F903F902F9008956F927F92C0
:101620008F929F92AF92BF92CF92DF92EF92FF92F2
:101630000F931F93CF93DF93CDB7DEB761970FB6AC
:10164000F894DEBF0FBECDBF7C016B01198AAE01DD
:101650004F5E5F4F0E94340A882309F444C0D601CC
:101660008C9111969C91119712962C91129713962A
:101670003C91188A3F932F939F938F9385E092E03C
:101680009F938F93CE0140969F938F930E94C8089B
:101690000FB6F894DEBF0FBECDBF10E019C0D70162
:1016A000ED91FC91BFE01B9FE00DF11D11244081E5
:1016B0005181628173812AE030E080E496E00E94EB
:1016C000AC1C62EE71E080E496E00E941D1C1F5F7E
:1016D000F7018281181718F362EE71E080E496E05A
:1016E0000E943C1C33C0D70112966C90712CC30130
:1016F00001962FE0FC012E9FC0012F9F900D112419
:101700000E94EB185C014C0100E010E0C4010E9453
:10171000E206FFE08F0E911C0F5F1F4FC301801B7D
:10172000910B019699F7A114B10491F483E0888B91
:101730008DE192E09F938F93CE0140969F938F937C
:101740000E94C8080F900F900F900F9080E06FC01C
:10175000098920E040E0B501C7010E943F0989895D
:1017600085014FE0849F000D111D1124B601CE01AB
:1017700001960E94F8068FE0FE013196D801019093
:101780000D928A95E1F74989D70112960C91041BB5
:10179000242F2F5FB501C7010E943F09F701808107
:1017A0009181009711F00E94ED18D7011196BC921B
:1017B000AE9212968C9112978F5F12968C9312971D
:1017C000F6014081518162817381813061F4189604
:1017D0004D935D936D937C931B97F70144835583E1
:1017E0006683778324C0D70118960D911D912D91A2
:1017F0003C911B97041715072607370730F4F701AC
:10180000408751876287738711C0D70114960D9165
:101810001D912D913C91179740175107620773074F
:1018200028F4F701448355836683778381E06196CA
:101830000FB6F894DEBF0FBECDBFDF91CF911F91E1
:101840000F91FF90EF90DF90CF90BF90AF909F905F
:101850008F907F906F900895CF93DF931F92CDB7B5
:10186000DEB7FC01208131812115310569F0FB01D2
:101870004081FC018281481738F4F4E04F9F200D2D
:10188000311D1124C90112C082E0898384EE91E0E8
:101890009F938F93CE0101969F938F930E94C808C8
:1018A00080E090E00F900F900F900F900F90DF91DD
:1018B000CF9108954F925F926F927F928F929F92F5
:1018C000AF92BF92CF92DF92EF92FF920F93CF939E
:1018D000DF9300D000D0CDB7DEB73C012B01E98209
:1018E000BE016F5F7F4F2C834A835B830E942C0C69
:1018F000FC01C080D180E280F380F2018080918081
:10190000A280B38089812C814A815B818C149D04E3
:10191000AE04BF0421F4FA01808381E021C08C145D
:101920009D04AE04BF0460F4982F921B923018F40B
:10193000FA0180830BC0E92EE694E20E082F0CC05A
:10194000902F981B923020F4FA01008380E008C0A9
:10195000E92EE694E80E282FB201C3010E945A0C2A
:101960000F900F900F900F90DF91CF910F91FF90FC
:10197000EF90DF90CF90BF90AF909F908F907F902F
:101980006F905F904F9008952F923F924F925F9289
:101990006F927F928F929F92AF92BF92CF92DF927F
:1019A000EF92FF920F93CF93DF9300D000D01F925E
:1019B000CDB7DEB71C017D836C835B834A83FC015A
:1019C0000281011102C0FA0137C0EC81FD81C080A3
:1019D000D180E280F380013009F04AC01982BE0153
:1019E0006F5F7F4F0E942C0CFC0180819181A2814E
:1019F000B381C816D906EA06FB0629F4EA81FB8101
:101A0000108281E084C0EC81FD81C080D180E280C1
:101A1000F3801982BE016F5F7F4FC1010E942C0CC1
:101A2000FC0180819181A281B381C816D906EA06A2
:101A3000FB0628F4EA81FB81108280E068C0EC811B
:101A4000FD81C080D180E280F3801982BE016F5F8A
:101A50007F4FC1010E942C0CFC0180819181A281E9
:101A6000B3818C159D05AE05BF0508F050C00AC0B6
:101A7000FC0140845184628473844C145D046E04C0
:101A80007F0420F4EA81FB810083D7CFFC018480AE
:101A90009580A680B780C814D904EA04FB0408F432
:101AA000C9CFC701B601681979098A099B090E9443
:101AB000C7046B017C01C301B201681979098A0965
:101AC0009B090E94C7049B01AC01C701B6010E949B
:101AD0004A036B017C01602F70E061507109882717
:101AE00077FD8095982F0E941C049B01AC01C701D3
:101AF000B6010E9465020E948A00E62E20E04A811B
:101B00005B816C817D81C1010E945A0C00C00F90E5
:101B10000F900F900F900F90DF91CF910F91FF904A
:101B2000EF90DF90CF90BF90AF909F908F907F907D
:101B30006F905F904F903F902F9008956F927F929B
:101B40008F929F92AF92BF92CF92DF92EF92FF92CD
:101B50000F931F93CF93DF9300D000D000D0CDB769
:101B6000DEB77C018B011E82AE014A5F5F4F0E948F
:101B7000C40C882309F444C0D8018C9111969C911F
:101B8000119712962C91129713963C911D823F93B8
:101B90002F939F938F9385E092E09F938F93CE0135
:101BA00005969F938F930E94C8080FB6F894DEBFE6
:101BB0000FBECDBF10E019C0D701ED91FC91B4E08C
:101BC0001B9FE00DF11D11244081518162817381C1
:101BD0002AE030E080E496E00E94AC1C62EE71E006
:101BE00080E496E00E941D1C1F5FF7018281181798
:101BF00018F362EE71E080E496E00E943C1C31C074
:101C0000D70112966C90712CC3010196880F991F11
:101C1000880F991F0E94EB186C014C01A12CB12C6C
:101C2000C4010E94CE06B4E08B0E911CEFEFAE1AF9
:101C3000BE0AC3018A199B09019691F7C114D10408
:101C400091F483E08D838DE192E09F938F93CE0199
:101C500005969F938F930E94C8080F900F900F9046
:101C60000F9080E093C03E81560120E013C0C50173
:101C70008C199D09F701A081B181A80FB91F4D9161
:101C80005D916D917C91D5014D935D936D937D93A5
:101C90005D012F5F2313EBCF5601B4E02B9FA00C07
:101CA000B11C1124B801CE0101960E94D7064981CA
:101CB0005A816B817C81F5014083518362837383F8
:101CC000AE81F70192809A1A8A2F8F5FF4E0AF9F5E
:101CD00030011124960194E0899F200D311D1124BB
:101CE00080E090E0812C15C05901A80EB91ED701E3
:101CF000ED91FC91E80FF91FE60DF71D4081518130
:101D000062817381F501408351836283738383947D
:101D100004968910E9CFD7018D919C91009711F01D
:101D20000E94ED18F701D182C08282818F5F828389
:101D3000D8014D915D916D917C91813049F440873E
:101D400051876287738744835583668377831EC078
:101D5000F7010085118522853385041715072607AD
:101D6000370728F440875187628773870EC0F701D1
:101D70000481158126813781401751076207730757
:101D800020F4448355836683778381E026960FB6DB
:101D9000F894DEBF0FBECDBFDF91CF911F910F91A1
:101DA000FF90EF90DF90CF90BF90AF909F908F907B
:101DB0007F906F9008950F931F93CF93DF93EC0163
:101DC0008C010E5F1F4F662329F0B80107960E9411
:101DD0000E0B08C0C8010E945B18B801CE014396E3
:101DE0000E949E0D8823B1F06BE272E080E496E0E1
:101DF0000E941D1C4A815B816C817D812AE030E05C
:101E000080E496E00E94AC1C61E372E080E496E01E
:101E10000E943C1C4FEF5FEFBA014A835B836C83E7
:101E20007D83DF91CF911F910F9108952F923F9263
:101E30004F925F926F927F928F929F92AF92BF92DA
:101E4000CF92DF92EF92FF920F931F93CF93DF9386
:101E5000CDB7DEB72F970FB6F894DEBF0FBECDBF5C
:101E60005C017B876A87212C312C1F822E0125E0A3
:101E7000420E511C439699878887450197E0890E49
:101E8000911CE3E2E29D3001E39D700C112429E5F1
:101E900035E0620E731E6C867D86C3010E947F133F
:101EA000882309F407C1C3010E94C415C3010E941D
:101EB000E015882309F4E5C0C3010E94E315FC0185
:101EC000008111812281338109831A832B833C8312
:101ED000F1E0FF83EA85FB85C080D180E280F3805A
:101EE0000C151D052E053F0509F01F82C3010E9438
:101EF0004A15882309F452C0C3010E94DE148823C6
:101F000009F4E1C01D82A201BE016F5F7F4FC401D1
:101F10000E94340A8111CAC0D6C01D82A201BE012E
:101F20006F5F7F4F888599850E94C40C8111BEC068
:101F3000F501818109811A812B813C81882329F057
:101F400002831383248335830AC0F501C280D380C2
:101F5000E480F580C016D106E206F30641F4C30121
:101F60000E94DE14682FC5010E94DB0E9FC064E34F
:101F700072E080E496E00E941D1C49815A816B81C9
:101F80007C812AE030E080E496E00E94AC1C62E3B1
:101F900072E080E496E00E943C1C88C0C3010E946D
:101FA000DE14882309F443C0AE014A5F5F4FBE01CF
:101FB0006F5F7F4FC4010E94340A882359F1F501F5
:101FC00087819085009761F02E813185231740F439
:101FD000FFE02F9F800D911D11248E879F870EC0DB
:101FE00022E02D8384EE91E09F938F935F924F9236
:101FF0000E94C8080F900F900F900F90B3018E852C
:102000009F850E941307C3010E944B14C4010E94C4
:1020100011084CC089819A812B813C81F1E0FD83BC
:102020003F932F939F938F932AE332E017C01D8233
:10203000A201BE016F5F7F4F888599850E94C40C05
:1020400081111BC089819A812B813C81F1E0FD8344
:102050003F932F939F938F9320E632E03F932F93EC
:102060005F924F920E94C8080FB6F894DEBF0FBE71
:10207000CDBFF50186818823C9F0C3010E944B14AE
:1020800015C0F1E0FD8327E832E03F932F935F9284
:102090004F920E94C8080F900F900F900F90F5017B
:1020A0008681823019F4C3010E9456138C859D8568
:1020B0000E948713FFEF2F1A3F0A25E022163104F2
:1020C00009F0DFCE06C0C3010E94DE14811130CFBB
:1020D00024CF8F812F960FB6F894DEBF0FBECDBFF1
:1020E000DF91CF911F910F91FF90EF90DF90CF90F4
:1020F000BF90AF909F908F907F906F905F904F9028
:102100003F902F900895AF92BF92CF92DF92EF92BF
:10211000FF920F931F93CF93DF93EC018B015A0132
:102120000E94F21D6B017C01F501408151816281A9
:102130007381C40ED51EE61EF71E06C0B801CE017F
:102140000E94160F811109C00E94F21D6C157D05B9
:102150008E059F0598F380E001C081E0DF91CF916B
:102160001F910F91FF90EF90DF90CF90BF90AF90B5
:102170000895EF92FF920F931F93CF93DF9300D0B8
:1021800000D000D0CDB7DEB78C01DC011A962C91BF
:102190001A9717968D919C911897BFE02B9F800DF1
:1021A000911D11240E94B507FC014081518162817B
:1021B0007381F80182850780F085E02D2FE0829FF2
:1021C000E00DF11D112480819181228133811D82D6
:1021D0007F936F935F934F933F932F939F938F932F
:1021E0008AE992E09F938F937E0135E0E30EF11C24
:1021F000FF92EF920E94C80848EE53E060E070E062
:1022000049835A836B837C83D8011A968C911A97E1
:1022100017966D917C911897BFE08B9F600D711D93
:102220001124AE014F5F5F4FC8010E9483101D82D1
:102230001F928F932CEB32E03F932F93FF92EF92FC
:102240008E830E94C8080FB6F894DEBF0FBECDBFC4
:102250008E8181110FC0D8011A962C911A9717966A
:102260008D919C911897BFE02B9F800D911D11249B
:102270000E94D70726960FB6F894DEBF0FBECDBFDB
:10228000DF91CF911F910F91FF90EF900895EF9202
:10229000FF920F931F93CF93DF9300D000D01F9234
:1022A000CDB7DEB77C01DC0155968C91882309F40B
:1022B000AFC0F7018689811119C00E94F21DD701B4
:1022C00090960D911D912D913C9193970059184E28
:1022D0002F4F3F4F601771078207930708F08EC09A
:1022E0005F968C91882309F493C088C0F7012689F2
:1022F00083899489F4E02F9F800D911D11240E9401
:10230000A91844E650E060E070E049835A836B838B
:102310007C83D70156968C91569753966D917C91FC
:102320005497B4E08B9F600D711D1124AE014F5F77
:102330005F4FC7010E948310882339F0C70143967D
:102340000E948F08F701178E63C0D7015F968C91AA
:102350005F97853030F556969C9156975396ED9140
:10236000FC915497B4E09B9FE00DF11D11249081E6
:102370002181328143811D821F928F934F933F931E
:102380002F939F9386ED92E09F938F93CE010596B6
:102390009F938F930E94C808F701878D8F5F878F67
:1023A00027C0C70143960E948F08D70156968C918B
:1023B00056975396ED91FC915497B4E08B9FE00DA6
:1023C000F11D1124808191812281338141E04D836F
:1023D0003F932F939F938F9388E093E09F938F93E6
:1023E000CE0105969F938F930E94C808F701178E20
:1023F0000FB6F894DEBF0FBECDBF0AC00E94F21D1B
:10240000D70190966D937D938D939C9393976ECF08
:102410000F900F900F900F900F90DF91CF911F9121
:102420000F91FF90EF900895CF92DF92EF92FF927D
:102430000F931F93CF93DF9300D000D0CDB7DEB7BB
:102440008C01FC018185811104C0C8010E944711E3
:1024500020C00E94F21D6B017C01F801228587815A
:102460009085FFE02F9F800D911D11240E94B507DC
:10247000FC014081518162817381445F5140610957
:102480007109C416D506E606F706F8F2C8010E94DF
:10249000B91019821A821B821C82BE016F5F7F4FA6
:1024A000C8010E94160F80E496E00E940F1A892B43
:1024B00009F4B6C080E496E00E943E1A7C019C01BB
:1024C00033272D36310559F194F42136310509F1C0
:1024D0002CF42D30310509F092C0A2C0223631050E
:1024E00009F46CC02B36310509F089C05CC0203777
:1024F0003105D1F02CF42E36310509F080C064C0CE
:102500002537310509F454C02637310509F077C065
:1025100031C081E0F801818364E573E07DC0F8019A
:1025200011826AE673E078C0F8018181882319F08E
:1025300061E873E071C069EC73E080E496E00E94AA
:102540003C1C0E94EB19F80162837383848395839A
:102550006AEF73E080E496E00E941D1CF80142815E
:102560005381648175812AE030E080E496E00E9426
:10257000B91C56C060E174E080E496E00E943C1C07
:102580000E941A090E94EB196093060165E274E04B
:1025900080E496E00E941D1C86E091E00E9498086D
:1025A00063EE71E039C0F80116826BE374E034C069
:1025B00081E0F801868367E674E02EC082E0F801CE
:1025C000868363E874E028C061E974E080E496E003
:1025D0000E943C1C0E94EB1969837A838B839C8345
:1025E000BE016F5F7F4FC80107960E940E0B8823C4
:1025F00019F06CE373E010C066E473E00DC06CEAA0
:1026000074E080E496E00E941D1C6E2D80E496E04C
:102610000E941F1C65EC74E080E496E00E943C1C64
:102620000F900F900F900F90DF91CF911F910F910E
:10263000FF90EF90DF90CF90089521E1FC0120837F
:1026400011820895FC0191818081981750F4818155
:10265000DB019C91DF01A80FB11D12969C938F5F47
:1026600081830895CF92DF92EF92FF920F931F9391
:10267000CF93DF937C016B018A01C0E0D0E007C0FB
:10268000B6016C0F7D1FC7010E9422132196F8012D
:10269000808190E0C817D9079CF3DF91CF911F91FB
:1026A0000F91FF90EF90DF90CF9008950F931F93BD
:1026B000CF93DF938C01C0E0D0E011C0F801EC0FA4
:1026C000FD1F628140E150E080E496E00E94D31C4F
:1026D00062EE71E080E496E00E941D1C2196F801F4
:1026E000808190E0C817D9074CF363EE71E080E475
:1026F00096E0DF91CF911F910F910C943C1CFC014F
:102700002181908181E0291708F480E00895FC017F
:1027100011820895282FFB013081E82FF92F80E0E6
:1027200002C09191890F9E2F921B9317D0F30895A9
:10273000FC0191818081981748F49181DF01A90FF4
:10274000B11D12968C919F5F9183089580E008954A
:102750009F92AF92BF92CF92DF92EF92FF920F9330
:102760001F93CF93DF93CDB7DEB728970FB6F894BA
:10277000DEBF0FBECDBF8C016B017A01B22E85E5A5
:1027800089838DE28A8384ED8B8380E48C831D8230
:1027900083E0888782E08F83F8011182902EA12E3A
:1027A000AE01485F5F4FBE016F5F7F4FC8010E945F
:1027B0003213A701B601C8010E943213BB2059F0A1
:1027C000B701C6010E948A138E83BE016A5F7F4FE4
:1027D000C8010E942213AE01495F5F4FBE016C5FCA
:1027E0007F4F892D9A2D0E943213F70180818B5FD4
:1027F0008B0DF8018083118228960FB6F894DEBF06
:102800000FBECDBFDF91CF911F910F91FF90EF9041
:10281000DF90CF90BF90AF909F900895FC0181E131
:1028200080831182148A158A168A178A108E4FEFB8
:102830005FEFBA01478F50A361A372A308950F936E
:102840001F93CF93DF93EC018B01998188819817B7
:10285000E8F48981811111C00E94F21D6C8B7D8B7F
:102860008E8B9F8BF8018081823519F41B8A8CE056
:1028700003C081E08B8B80E188838981F80190819E
:10288000FE01E80FF11D92838F5F8983DF91CF9165
:102890001F910F910895FF920F931F93CF93DF9392
:1028A000EC0167EC74E080E496E00E941D1C4F8D03
:1028B00058A169A17AA12AE030E080E496E00E9464
:1028C000AC1C6DEC74E080E496E00E941D1C4C8909
:1028D0005D896E897F892AE030E080E496E00E947D
:1028E000AC1C8E01F12CF801818D928D0196E1F0E6
:1028F00063ED74E080E496E00E941D1C4AE050E025
:102900006F2D80E496E00E94D31C67E372E080E4C0
:1029100096E00E941D1CF801618D728D4AE050E026
:1029200080E496E00E94CD1CF3940E5F1F4FF3E00D
:10293000FF12D9CF8B89811112C067ED74E080E45A
:1029400096E00E941D1C8C85833519F467E673E0C0
:1029500002C06DE773E080E496E00E941D1C62E314
:1029600072E080E496E0DF91CF911F910F91FF908C
:102970000C943C1C0F931F93CF93DF931F92CDB702
:10298000DEB78C01DC018C9181508983BE016F5FC1
:102990007F4FC80102960E948A13D801EC91F0E0A3
:1029A0003197E00FF11F228191E0821390E0892F8F
:1029B0000F90DF91CF911F910F910895FC018389B2
:1029C0000895CF93DF93FC018FEF9FEF928F818F5C
:1029D000948F838F968F858F8389882309F182E076
:1029E00090E0DF01A80FB91F12964C91129747FF94
:1029F00012C012965C911297EC012196CE0FDF1F48
:102A00004A81352F3F7720E0B901642BAB015896FE
:102A10005C934E93579702968830910511F707C043
:102A200033852285932F80E0822B928F818FDF91D7
:102A3000CF9108950F931F93FC01178E10A211A23E
:102A400012A28389882359F092818381592F5F7064
:102A500040E0662757FD6095762F482B14C02381F0
:102A600044818581968150E060E070E0BA0155278D
:102A70004427722B492B182F00E020E030E0402B38
:102A8000512B622B732B478F50A361A372A31F910D
:102A90000F910895FC018389882329F08281881F82
:102AA0008827881F08958085833421F4918581E0EB
:102AB0009F3409F080E008959F92AF92BF92CF9229
:102AC000DF92EF92FF920F931F93CF93DF93FC015E
:102AD00090E081E0A12C00E810E040E4E42EF12C2D
:102AE00041C0E801042E02C0D595C7950A94E2F7CB
:102AF0007C917C237C1771F0E701042E02C0D595F0
:102B0000C7950A94E2F7BE017C917623761305C03F
:102B1000A12C04C0AA24A39401C080E0BB0CBA2855
:102B20004E5F5F4F48305105E1F62F5F3F4F223037
:102B3000310531F40FC020E030E0B12CC92ED12C8A
:102B400040E050E0B9016C0D7D1D6E0F7F1FDB0171
:102B50001296C7CF292F2695DF01A20FB11D12961D
:102B6000BC929E5F2081921730F39081969590835E
:102B7000DF91CF911F910F91FF90EF90DF90CF9059
:102B8000BF90AF909F900895CF93DF93EC018B8916
:102B9000882321F0CE010E945C1503C0CE010E9463
:102BA000BA14888F888D882341F0CE010E94E114E9
:102BB000CE01DF91CF910C941A15DF91CF9108953A
:102BC000FC01808D08959C01215E3F4FC90108954D
:102BD0009C012C5E3F4FC90108950F931F93CF9323
:102BE000DF93EC0119928C0100551F4FCE010E941A
:102BF0000E14A396C017D107C9F7DF91CF911F918B
:102C00000F910895FF920F931F93CF93DF931F921D
:102C1000CDB7DEB78C01FC01808153E2F52E98011F
:102C2000F89E200D311D1124C90101960E941F1428
:102C3000F8018081F89EE00DF11D112431969181FB
:102C400080819817B8F080E090E023E2289FF0019F
:102C5000299FF00D11243196E00FF11F4181308141
:102C6000431718F4F801808317C001968530910549
:102C700069F702C080E011C083E0898381EE94E0AF
:102C80009F938F93CE0101969F938F930E94C808C4
:102C90000F900F900F900F9081E00F90DF91CF91E8
:102CA0001F910F91FF9008951F93CF93DF9300D052
:102CB0001F92CDB7DEB711E01B8389E392E89A83B8
:102CC0008983BE016D5F7F4FCE0101960E946E1910
:102CD00010931B060F900F900F90DF91CF911F91D3
:102CE00008951F93CF93DF9300D01F92CDB7DEB727
:102CF00011E01B8381E89AEC9A838983BE016D5FA2
:102D00007F4FCE0101960E946E191B8383E89AECD7
:102D10009A838983BE016D5F7F4FCE0101960E9429
:102D20006E190F900F900F90DF91CF911F91089522
:102D3000CF93DF9300D01F92CDB7DEB781E08B83B6
:102D400089ED92E89A838983BE016D5F7F4FCE0142
:102D500001960E946E1910921B060E9471160F9028
:102D60000F900F90DF91CF910895CF93DF9300D014
:102D70001F92CDB7DEB788E096E00E94981391E0ED
:102D80009B8390E0986B9A838983BE016D5F7F4F30
:102D9000CE0101960E946E1988E096E00E947F1392
:102DA00081110E9498160F900F900F90DF91CF9194
:102DB00008951F93CF93DF9300D0CDB7DEB781E0A6
:102DC0000E942E191982CE0101960E946619182FB1
:102DD0001982CE0101960E94661980911B0681110D
:102DE00039C015FF1DC01A82CE0102960E946619D5
:102DF0008983BE016F5F7F4F88E595E00E940216D0
:102E0000182F1A82CE0102960E9466198983BE018C
:102E10006F5F7F4F88E595E00E940216182B12C065
:102E200017FF0FC01A82CE0102960E94661989838D
:102E3000BE016F5F7F4F88E595E00E940216182F54
:102E400001C010E080E00E942E19112349F00E9479
:102E5000711606C017FD0E94B51680E00E942E195B
:102E60000F900F90DF91CF911F9108951F93CF93F3
:102E7000DF9300D000D0CDB7DEB70E94341911E047
:102E80001C831A821982BE016C5F7F4FCE010196AE
:102E90000E946E1960ED77E080E090E00E942E1EA7
:102EA0001C8388ED90E89A838983BE016C5F7F4F15
:102EB000CE0101960E946E191C8381E092E89A83EC
:102EC0008983BE016C5F7F4FCE0101960E946E190F
:102ED0001C8384E396EA9A838983BE016C5F7F4FEB
:102EE000CE0101960E946E191C8387E596EC9A83A9
:102EF0008983BE016C5F7F4FCE0101960E946E19DF
:102F00001C8380EC94E99A838983BE016C5F7F4FB8
:102F1000CE0101960E946E191C838CE292EC9A837A
:102F20008983BE016C5F7F4FCE0101960E946E19AE
:102F30001C8381E89AEC9A838983BE016C5F7F4F82
:102F4000CE0101960E946E191C8384ED9EEC9A833B
:102F50008983BE016C5F7F4FCE0101960E946E197E
:102F60001C8387EF94EC9A838983BE016C5F7F4F4B
:102F7000CE0101960E946E191C8380E298E99A8323
:102F80008983BE016C5F7F4FCE0101960E946E194E
:102F90001C8386E69CEC9A838983BE016C5F7F4F1D
:102FA000CE0101960E946E191C8380E090EE9A83F8
:102FB0008983BE016C5F7F4FCE0101960E946E191E
:102FC0001C8380E098EC9A838983BE016C5F7F4FFD
:102FD000CE0101960E946E191C8380E090EC9A83CA
:102FE0008983BE016C5F7F4FCE0101960E946E19EE
:102FF0001B8382EF94E09F938F93CE0103969F9360
:103000008F930E94C80864EF71E080E090E00E9416
:103010002E1E40E050E069ED76E180E00E942E1D1A
:103020000F900F900F900F900F900F900F900F90A8
:10303000DF91CF911F910895CF93DF93CDB7DEB786
:103040002C970FB6F894DEBF0FBECDBF2BE0E7E0A4
:10305000F1E0DE01119601900D922A95E1F7DA0177
:103060002C9111963C9111971296EC911297139610
:103070004C914A83EB833C832D83FC0180818F83B9
:10308000DB018C9188878BE08C8721E0AE01445F67
:103090005F4FBE016F5F7F4F88E096E00E94A813EC
:1030A0000E9454162C960FB6F894DEBF0FBECDBF0B
:1030B000DF91CF910895CF92DF92EF92FF920F931D
:1030C0001F93CF93DF9300D0CDB7DEB78C01FC0107
:1030D000808191812281338141E049833F932F9305
:1030E0009F938F9386E095E09F938F93EE24E394D4
:1030F000F12CEC0EFD1EFF92EF920E94C8089BE49B
:10310000C92EC98221E4D22EDA82A801B701CE01EC
:1031100002960E941C1862E370E080E090E00E943A
:103120002E1EC982DA82A801B701CE0102960E9442
:103130001C180FB6F894DEBF0FBECDBF0F900F90D6
:10314000DF91CF911F910F91FF90EF90DF90CF9083
:103150000895EF92FF920F931F93CF93DF9300D0C8
:10316000CDB7DEB78C01FC01808191812281338152
:1031700041E049833F932F939F938F9385E195E09F
:103180009F938F93EE24E394F12CEC0EFD1EFF929F
:10319000EF920E94C80883E5898380E58A83A801AD
:1031A000B701CE0102960E941C180FB6F894DEBF3C
:1031B0000FBECDBF0F900F90DF91CF911F910F9158
:1031C000FF90EF90089588E096E00E941D1388E537
:1031D00095E00C94ED150C94A21F0C943D2040E05A
:1031E00052EC61E070E080E496E00E94151B68E21A
:1031F00075E080E496E00E943C1C8CE196E00E9421
:10320000980969E375E080E496E00C943C1C8CE13D
:1032100096E00C9414120E94541E0E94EF180E9413
:103220000719FDCFCF93DF93EC018B899C89009721
:1032300011F00E94ED188F819885009721F0DF91A1
:10324000CF910C94ED18DF91CF9108958CE196E029
:103250000C946F098CE196E00C941219882311F0FC
:103260002A9808952A9A089580E00E942E19229A99
:1032700061E08AE00E94F11E61E08DE00E94B91ECB
:1032800061E08BE00E94B91E61E08AE00E94B91EF5
:1032900060E08CE00E94B91E80E58CBD60E082E0B9
:1032A0000E94B91E61E082E00E94F11E8DB581602E
:1032B0008DBD8CB58D7F8CBD8CB581608CBD8CB582
:1032C000877F8CBD8CB58B7F8CBD0895FC01808180
:1032D0008EBD0DB407FEFDCF8EB50895CF92DF925F
:1032E000EF92FF920F931F93CF93DF931F92CDB76F
:1032F000DEB77C016B01FB01808181112A98F70107
:1033000081818983CE0101960E946619182F00E001
:10331000F70180818983CE0101960E946619082BEE
:10332000F6018081882319F080E00E942E19C801DF
:103330000F90DF91CF911F910F91FF90EF90DF9051
:10334000CF900895DF92EF92FF920F931F93CF9348
:10335000DF93EC017B011882D12C80E496E00E947F
:103360000F1A892BE1F08E010D0D111D80E496E0FE
:103370000E943E1AF8018083D3940D2D10E0FE01C7
:10338000E00FF11F3197608180E496E00E941F1CDE
:10339000F701808190E001970817190739F0FE01C5
:1033A000ED0DF11D319780818D30B9F663EE71E03E
:1033B00080E496E00E943C1C80E496E00E94601A43
:1033C000CD0DD11D1882DF91CF911F910F91FF90EC
:1033D000EF90DF900895CF93DF93CDB7DEB760977E
:1033E0000FB6F894DEBF0FBECDBF8FE0888BBE0155
:1033F000605F7F4FCE0101960E94A21940E050E02D
:1034000060E070E0CE0101960E94D92060960FB670
:10341000F894DEBF0FBECDBFDF91CF910895FC01C0
:1034200084859585FC01E05CFF4F20813181FC01A2
:10343000EE5BFF4F80819181281B390B2F7333275F
:10344000C9010895FC0184859585FC01E05CFF4F6E
:1034500040815181FC01EE5BFF4F20813181421799
:10346000530741F00190F081E02DE80FF91F208112
:1034700030E002C02FEF3FEFC9010895FC018485C1
:103480009585FC01E05CFF4F40815181FC01EE5BC2
:10349000FF4F208131814217530771F0A081B18124
:1034A000A80FB91F2C918081918101968F73992764
:1034B0009183808330E002C02FEF3FEFC901089570
:1034C000FC0186859785FC01E05CFF4FDC01AE5B6B
:1034D000BF4F408151812D913C9111974217530765
:1034E000C1F70895CF93DF93FC0126853785D90175
:1034F000A05CBF4F8D919C91119701968F73992776
:10350000E901CE5BDF4F4881598184179507D9F3D4
:103510000D90BC91A02DA20FB31F6C93A685B7850B
:10352000A05CBF4F11969C938E93A689B7892C916E
:1035300081E090E0058C02C0880F991F0A94E2F7A1
:10354000282B2C9381E090E0DF91CF9108951F927A
:103550000F920FB60F9211242F933F934F938F9397
:103560009F93EF93FF934091C6008091E306909163
:10357000E40601968F7399272091E5063091E606BF
:103580008217930759F0E091E306F091E406ED55B8
:10359000F94F40839093E4068093E306FF91EF9107
:1035A0009F918F914F913F912F910F900FBE0F9050
:1035B0001F9018951F920F920FB60F9211242F9300
:1035C0003F938F939F93EF93FF9320919F063091AA
:1035D000A0068091A1069091A2062817390731F420
:1035E0008091C1008F7D8093C10014C0E091A1063D
:1035F000F091A206E15AF94F20818091A1069091A5
:10360000A20601968F7399279093A2068093A10634
:103610002093C600FF91EF919F918F913F912F9141
:103620000F900FBE0F901F901895CF92DF92EF92E0
:10363000FF92CF93DF93EC016A017B01411581EE8C
:10364000580761057105F9F0EC89FD8981E090E08A
:103650000E8C02C0880F991F0A94E2F7808360E005
:1036600079E08DE390E0A70196010E94281F215088
:1036700031094109510956954795379527952115E7
:1036800080E1380798F0EC89FD89108260E874E8E1
:103690008EE190E0A70196010E94281F2150310978
:1036A000410951095695479537952795E889F98934
:1036B0003083EA89FB892083EE89FF89408181E09C
:1036C00090E09C010A8C02C0220F331F0A94E2F79B
:1036D000422B4083EE89FF8940819C010B8C02C004
:1036E000220F331F0A94E2F7422B4083EE89FF89B1
:1036F00040819C010C8C02C0220F331F0A94E2F718
:10370000422B4083EE89FF8920810D8C02C0880FF7
:10371000991F0A94E2F7809582238083DF91CF91ED
:10372000FF90EF90DF90CF90089510924306109293
:10373000420688EE93E0A0E0B0E0809344069093C8
:103740004506A0934606B09347068BE495E0909318
:1037500041068093400683EA96E090934D0680935D
:103760004C068FE596E090934F0680934E0685ECCD
:1037700090E0909351068093500684EC90E09093F3
:1037800053068093520680EC90E090935506809308
:10379000540681EC90E0909357068093560686EC91
:1037A00090E0909359068093580684E080935A06DF
:1037B00083E080935B0687E080935C0685E08093DE
:1037C0005D0681E080935E060895CF92DF92EF92CE
:1037D000FF920F931F93CF93DF936C01EB017A015C
:1037E000E60EF71E00E010E00BC06991D601ED91E6
:1037F000FC910190F081E02DC6010995080F191F79
:10380000CE15DF0591F7C801DF91CF911F910F9180
:10381000FF90EF90DF90CF900895DB010D90002096
:10382000E9F7AD0141505109461B570BDC01ED9101
:10383000FC910280F381E02D09940C940D1CDC01B5
:10384000ED91FC910190F081E02D09940F931F936D
:10385000CF93DF93EC016DE00E941F1C8C016AE0A6
:10386000CE010E941F1C9C01200F311FC901DF9156
:10387000CF911F910F9108950F931F93CF93DF93D3
:10388000EC010E940D1C8C01CE010E94261C9801A7
:10389000280F391FC901DF91CF911F910F91089512
:1038A0005F926F927F928F929F92AF92BF92CF92D0
:1038B000DF92EF92FF920F931F93CF93DF93CDB7D9
:1038C000DEB7A1970FB6F894DEBF0FBECDBF3C01A7
:1038D0006A017B01522E19A281E0821710F08AE062
:1038E000582E8E010F5D1F4F852C912CA12CB12CD1
:1038F000C701B601A50194010E94281F8C2D529E7C
:1039000080191124015011098A3010F4805D01C022
:10391000895CF801808369017A01C114D104E10452
:10392000F10431F7B801C3010E940D1CA1960FB636
:10393000F894DEBF0FBECDBFDF91CF911F910F91E5
:10394000FF90EF90DF90CF90BF90AF909F908F90BF
:103950007F906F905F9008952115310541F4DC014F
:10396000ED91FC910190F081E02D642F09940C946D
:10397000501C0F931F93CF93DF93EC010E94AC1C5C
:103980008C01CE010E94261C9C01200F311FC90111
:10399000DF91CF911F910F9108959A01AB0160E0E3
:1039A00070E00C94AC1C9A01462F50E060E070E08F
:1039B0000C94AC1CCF92DF92EF92FF920F931F9367
:1039C000CF93DF93EC016A017B012115310579F476
:1039D000E881F9810190F081E02D642FDF91CF9192
:1039E0001F910F91FF90EF90DF90CF9009942A30B4
:1039F000310519F477FD0EC02AE0B701A601CE010A
:103A0000DF91CF911F910F91FF90EF90DF90CF90BA
:103A10000C94501C6DE20E941F1C8C0144275527FA
:103A2000BA014C195D096E097F092AE0CE010E9496
:103A3000501C9C01200F311FC901DF91CF911F91B4
:103A40000F91FF90EF90DF90CF9008959A01AB0116
:103A5000662757FD6095762F0C94DA1C8230E8F4C7
:103A6000E82FF0E0EE0FFF1FE951F94F71836083FB
:103A7000813041F0809169008C7F842B80936900B4
:103A8000E89A089580916900440F551F440F551F0F
:103A9000837F842B80936900E99A08951F920F9287
:103AA0000FB60F9211242F933F934F935F936F9311
:103AB0007F938F939F93AF93BF93EF93FF938091E7
:103AC000E7069091E806892B29F0E091E706F0914E
:103AD000E8060995FF91EF91BF91AF919F918F916A
:103AE0007F916F915F914F913F912F910F900FBEFA
:103AF0000F901F9018951F920F920FB60F921124DE
:103B00002F933F934F935F936F937F938F939F93E5
:103B1000AF93BF93EF93FF938091E9069091EA06EC
:103B2000892B29F0E091E906F091EA060995FF91C9
:103B3000EF91BF91AF919F918F917F916F915F9125
:103B40004F913F912F910F900FBE0F901F9018959E
:103B50001F920F920FB60F9211242F933F938F93C2
:103B60009F93AF93BF938091EB069091EC06A09149
:103B7000ED06B091EE063091F306232F2D5F2D3721
:103B800020F40196A11DB11D05C0232F2A570296CE
:103B9000A11DB11D2093F3068093EB069093EC06D4
:103BA000A093ED06B093EE068091EF069091F0069B
:103BB000A091F106B091F2060196A11DB11D80936E
:103BC000EF069093F006A093F106B093F206BF9132
:103BD000AF919F918F913F912F910F900FBE0F90BA
:103BE0001F9018950F931F938FB7F8940091EB06D1
:103BF0001091EC062091ED063091EE068FBFB801D2
:103C0000C9011F910F9108950F931F939FB7F894C7
:103C10000091EF061091F0062091F1063091F20626
:103C200086B5A89B06C08F3F21F00F5F1F4F2F4F17
:103C30003F4F9FBF322F212F102F0027080F111D3C
:103C4000211D311D42E0000F111F221F331F4A9515
:103C5000D1F7B801C9011F910F910895CF92DF925A
:103C6000EF92FF92CF93DF936B017C010E94041EC1
:103C7000EB010EC00E94041E6C1B7D0B683E73405E
:103C800038F081E0C81AD108E108F108C851DC4FCA
:103C9000C114D104E104F10469F7DF91CF91FF90E1
:103CA000EF90DF90CF900895789484B5826084BDC2
:103CB00084B5816084BD85B5826085BD85B5816030
:103CC00085BDEEE6F0E0808181608083E1E8F0E090
:103CD0001082808182608083808181608083E0E8BF
:103CE000F0E0808181608083E1EBF0E0808184609E
:103CF0008083E0EBF0E0808181608083EAE7F0E0A0
:103D00008081846080838081826080838081816003
:103D100080838081806880831092C1000895833001
:103D200069F028F48130A1F0823011F514C086309A
:103D3000B1F08730C1F08430D9F404C080918000A4
:103D40008F7703C0809180008F7D809380000895DD
:103D500084B58F7702C084B58F7D84BD089580912E
:103D6000B0008F7703C08091B0008F7D8093B0004A
:103D70000895CF93DF9390E0FC01E458FF4F449106
:103D8000FC01E057FF4F8491882341F190E0880FB8
:103D9000991FFC01E255FF4F25913491D9018C55B3
:103DA0009F4FFC0185919491C82FD92F9FB7F8940C
:103DB0008C91611106C0409584238C938881842363
:103DC00008C0623041F4242F209582238C9388818F
:103DD000842B888302C0842B8C939FBFDF91CF916B
:103DE00008950F931F93CF93DF931F92CDB7DEB744
:103DF000282F30E0F901E859FF4F8491F901E45888
:103E0000FF4F1491F901E057FF4F04910023D1F0C7
:103E1000882321F069830E948F1E6981E02FF0E0E2
:103E2000EE0FFF1FEC55FF4F85919491DC019FB77A
:103E3000F8948C91611103C01095812301C0812BEE
:103E40008C939FBF0F90DF91CF911F910F91089599
:103E5000A1E21A2EAA1BBB1BFD010DC0AA1FBB1F8E
:103E6000EE1FFF1FA217B307E407F50720F0A21B00
:103E7000B30BE40BF50B661F771F881F991F1A946D
:103E800069F760957095809590959B01AC01BD0197
:103E9000CF0108952F923F924F925F926F927F923F
:103EA0008F929F92AF92BF92CF92DF92EF92FF924A
:103EB0000F931F93CF93DF93CDB7DEB7CA1BDB0BF6
:103EC0000FB6F894DEBF0FBECDBF09942A8839889B
:103ED00048885F846E847D848C849B84AA84B984A2
:103EE000C884DF80EE80FD800C811B81AA81B981AE
:103EF000CE0FD11D0FB6F894DEBF0FBECDBFED01C2
:103F00000895EE0FFF1F0590F491E02D09940E9493
:103F1000901F84FF0895CB010E94901F805F089539
:103F2000AA27992329F4A85F982B11F480E108951A
:103F3000903118F4AD5F9295A395990FE8F78A2F09
:103F4000992708950F931F93CF93DF9382309105A4
:103F500010F482E090E0E091F606F091F70620E0A0
:103F600030E0C0E0D0E023C04081518148175907BC
:103F7000A8F04817590761F482819381209719F0BE
:103F80009B838A832EC09093F7068093F60629C000
:103F90002115310529F04217530710F0A90102C07D
:103FA000BE01DF0102811381EF019A01F801309710
:103FB000D9F62115310509F1281B390B24303105BB
:103FC00090F412968D919C9113976115710521F0D3
:103FD000FB019383828304C09093F7068093F606D7
:103FE000FD01329644C0FD01E20FF31F81939193CE
:103FF000225031092D933C933AC02091F406309120
:10400000F506232B41F420910201309103013093F6
:10401000F5062093F406209100013091010121154D
:10402000310541F42DB73EB740910401509105018F
:10403000241B350BE091F406F091F506E217F30727
:10404000A0F42E1B3F0B2817390778F0AC014E5F08
:104050005F4F2417350748F04E0F5F1F5093F5064A
:104060004093F4068193919302C0E0E0F0E0CF0129
:10407000DF91CF911F910F910895EF92FF920F93CF
:104080001F93CF93DF93009709F48EC0DC01129742
:1040900013961C921E921297E090F606F090F70687
:1040A000E114F10489F42D913C911197280F391FE7
:1040B0008091F4069091F5068217930789F5B093E5
:1040C000F506A093F40670C0E70120E030E001C0DF
:1040D000EA01CA17DB0738F44A815B819E0141156A
:1040E0005105B1F722C0AC0142505109FA01D38306
:1040F000C28300811181BC01600F711F6C177D07A5
:1041000061F468817981600F711F6E5F7F4F7183E9
:1041100060836A817B81738362832115310529F471
:10412000B093F706A093F6063FC0F901B383A283CC
:10413000E90149915991C40FD51FAC17BD0771F41E
:10414000DC019E918E91840F951F0296918380834E
:1041500012968D919C91139793838283A0E0B0E097
:1041600002C0D7017C01F701828193810097C9F7D2
:10417000C701029620813181820F931F2091F4069E
:104180003091F5062817390779F4109729F4109221
:10419000F7061092F60604C013961C921E92129710
:1041A000F092F506E092F406CDB7DEB7E6E00C94A7
:1041B000721FA0E0B0E0EFEDF0E20C944A1F1B018B
:1041C0003A016115710519F0FB0180839183611437
:1041D000710439F09301225031092332310508F07E
:1041E000C7C08C01F801D1918F012F018D2F90E074
:1041F0000E94D421892BB1F7DD3229F4F801D19145
:104200002F01C1E006C0DB3219F4F801D1912F0172
:10421000C0E06114710409F4B5C0F0E16F167104D7
:1042200089F4B7C0F2018081883719F0883509F028
:10423000A3C0F201D181F2E04F0E511CC26050E1E7
:10424000652E712C8AE06816710439F1E0E16E1672
:10425000710429F0F8E06F16710491F407C0CC24C2
:10426000CA94DC2CEC2C4FE0F42E1DC028E0622E0A
:10427000712CCC24CA94DC2CEC2C3FE1F32E13C01F
:104280009301442737FD4095542F6FEF7FEFCB010B
:104290000E94281F69017A0106C099E9C92EDC2C09
:1042A000EC2C99E1F92E90E020E030E0A9014301E7
:1042B000AA2497FCA094BA2CED2FE053EA3060F0CA
:1042C0008D2F81548A3110F4E75006C08D2F81560E
:1042D0008A3140F5ED2FE7556E2F70E066157705B2
:1042E0000CF59F3FD9F0C216D306E406F50698F008
:1042F000C501B4010E9478249B01AC018E2F90E08F
:10430000A0E0B0E0280F391F4A1F5B1F28173907AC
:104310004A075B0710F49FEF01C091E0F201D191D1
:104320002F01CACF2114310471F0992321F0F1E05B
:104330004F1A510805C0C1FF06C0F2E04F1A5108DC
:10434000F10151824082C0FF07C0509540953095E1
:1043500021953F4F4F4F5F4F97FF1FC082E290E084
:104360009093F9068093F8062FEF3FEFA90115C04F
:1043700020E030E0A90111C0D0E36114710409F418
:1043800075CF60CFD03309F44DCF8AE0682E712C01
:1043900084CFD03309F056CF45CFB901CA01CDB78C
:1043A000DEB7E2E10C94661F9111FFC1803219F073
:1043B00089508550D0F70895AEE0B0E0E2EEF1E22A
:1043C0000C94581F8C0186E08C831A8309838FEF2D
:1043D0009FE79E838D83CE0101960E94F821EF8195
:1043E000F885E00FF11F10822E96E4E00C94741F04
:1043F000ACE0B0E0EEEFF1E20C944A1F7C016B01FF
:104400008A01FC0117821682838181FFC7C188243B
:104410008394912C8C0E9D1EF7019381F60193FDE0
:10442000859193FF81916F01882309F4B3C185328F
:1044300039F493FD859193FF81916F01853229F4C1
:10444000B70190E00E94EE23E7CF712C312C20E0E1
:104450002032A8F48B3261F028F4803251F083329C
:1044600071F40BC08D3239F0803349F4216028C0DB
:104470002260246025C0286023C0206121C027FD60
:1044800027C0382F30533A3078F426FF06C0FAE0C0
:104490007F9E300D1124732E13C08AE0389E300D9C
:1044A0001124332E20620CC08E3221F426FD72C1FD
:1044B000206406C08C3611F4206802C0883641F4AE
:1044C000F60193FD859193FF81916F018111C0CF1A
:1044D000982F9554933018F09052933028F40C5F35
:1044E0001F4FFFE3F9830DC0833631F0833771F03E
:1044F000833509F05EC023C0F801808189830E5F97
:104500001F4F66246394712C540115C02801F2E0FA
:104510004F0E511CF801A080B18026FF03C0672D0B
:1045200070E002C06FEF7FEFC5012C870E94E3238C
:104530003C0182012C856FE7262E222218C028011B
:10454000F2E04F0E511CF801A080B18026FF03C09D
:10455000672D70E002C06FEF7FEFC5012C870E94CE
:10456000D8233C012C8550E8252E222A820123FCE9
:104570001CC006C0B70180E290E00E94EE233A948E
:10458000832D90E068167906A8F30FC0F50127FC8B
:10459000859127FE81915F01B70190E00E94EE2393
:1045A00031103A94F1E06F1A71086114710471F7D7
:1045B000EEC0843611F0893641F5F80127FF07C0B7
:1045C00060817181828193810C5F1F4F08C060817F
:1045D0007181882777FD8095982F0E5F1F4F4FE6DA
:1045E000642E622297FF09C0909580957095619521
:1045F0007F4F8F4F9F4FF0E86F2A2AE030E0A401F1
:104600000E941A24A82EA81844C0853731F43FEE22
:10461000B32EB2222AE030E024C099EFB92EB222A4
:104620008F36B9F020F4883509F0B4C00DC080375A
:1046300021F0883709F0AEC002C020E1B22AB4FEF2
:104640000BC084E0B82A08C024FF09C0E6E0BE2AF7
:1046500006C028E030E005C020E130E002C020E1E3
:1046600032E0F801B7FE07C06081718182819381D9
:104670000C5F1F4F06C06081718180E090E00E5F8B
:104680001F4FA4010E941A24A82EA8188FE7682E95
:104690006B2066FE0BC0362D3E7FA71450F464FEDF
:1046A0000AC062FC08C0362D3E7E05C0BA2C362DED
:1046B00003C0BA2C01C0B72C34FF0DC0FE01EA0DB7
:1046C000F11D8081803311F4397E09C032FF06C0AC
:1046D000B394B39404C0832F867809F0B39433FD68
:1046E00014C030FF0FC07A2CB31460F4730C7B1825
:1046F000B32C08C0B70180E290E03C870E94EE2313
:10470000B3943C85B314B0F304C0B31410F43B1855
:1047100001C0312C34FF12C0B70180E390E03C8728
:104720000E94EE233C8532FF1EC031FF03C088E5A6
:1047300090E002C088E790E0B7010CC0832F867834
:1047400091F031FD02C080E201C08BE237FD8DE2C5
:10475000B70190E00E94EE2306C0B70180E390E02D
:104760000E94EE237A94A714C0F3AA94F401EA0DF0
:10477000F11DB701808190E00E94EE23A110F5CFDA
:1047800006C0B70180E290E00E94EE233A94311017
:10479000F8CF42CEF7012681378102C02FEF3FEFDD
:1047A000C9012C96E2E10C94661F99278827089589
:1047B000FC010590615070400110D8F780959095EC
:1047C0008E0F9F1F0895FC016150704001900110F1
:1047D000D8F7809590958E0F9F1F08950F931F9384
:1047E000CF93DF938C01EB018B8181FD03C00FEF31
:1047F0001FEF1AC082FF0DC02E813F818C819D81E9
:104800002817390764F4E881F9810193F983E88373
:1048100006C0E885F985802F0995892B41F78E819F
:104820009F8101969F838E83C801DF91CF911F9155
:104830000F910895FA01AA27283051F1203181F112
:10484000E8946F936E7F6E5F7F4F8F4F9F4FAF4F98
:10485000B1E03ED0B4E03CD0670F781F891F9A1FAB
:10486000A11D680F791F8A1F911DA11D6A0F711D5F
:10487000811D911DA11D20D009F468943F912AE06B
:10488000269F11243019305D3193DEF6CF01089553
:10489000462F4770405D4193B3E00FD0C9F7F6CF84
:1048A000462F4F70405D4A3318F0495D31FD40524C
:1048B000419302D0A9F7EACFB4E0A69597958795E2
:1048C00077956795BA95C9F70097610571050895C1
:1048D0009B01AC010A2E069457954795379527956D
:1048E000BA95C9F7620F731F841F951FA01D089505
:1048F000DB018F939F930E948824BF91AF91A29F69
:10490000800D911DA39F900DB29F900D11240895CD
:104910000E949324A59F900DB49F900DA49F800D9D
:10492000911D11240895A29FB001B39FC001A39FC0
:1049300001D0B29F700D811D1124911D089510E0CA
:10494000CEEBD0E004C0FE010E94831F2296C03C43
:08495000D107C9F7F894FFCF6D
:104958000000FA06200002460000000000414B005B
:10496800004F000000000000000043435F5458203F
:1049780049443D256C752C206F6C642073616D7003
:104988006C655F706572696F643D25750043435FB0
:1049980054582049443D256C752C206E657720734A
:1049A800616D706C655F706572696F643D25750037
:1049B80069643A256C75206973206D697373696E33
:1049C800672E204E6577204554413D256C752C2077
:1049D8006E756D5F706572696F6473206D6973734E
:1049E80065643D2575004E6578742065787065634B
:1049F8007465642043435F54583A2049443D256C0C
:104A0800752C204554413D256C7500284445425578
:104A180047290028494E464F2900285741524E2918
:104A280000284552524F52290028464154414C29EA
:104A3800002C200044594E414D49432041525241D7
:104A480059204F5554204F462052414E4745204546
:104A580052524F5200256C7520697320616C726543
:104A680061647920696E20646174612E004F555429
:104A7800204F46204D454D4F5259007B70773A20C4
:104A880000207D007B50523A200052782764204352
:104A9800435F5458207061636B657420776974684C
:104AA80020756E6B6E6F776E20494420256C7500FB
:104AB800527827642043435F545258207061636BD7
:104AC8006574207769746820756E6B6E6F776E20D9
:104AD800494420256C7500527827642062726F6BF8
:104AE800656E207061636B65740057696E646F77DB
:104AF800206F70656E2120457870656374696E67F4
:104B080020256C7520617420256C750057696E64CA
:104B18006F7720636C6F7365642E207375636365AC
:104B280073733D2564004E6F20726573706F6E73EA
:104B3800652066726F6D2054525820256C752C20A4
:104B4800726574726965733D25642E2052657472AE
:104B580079696E672E2E2E004E6F20726573706F06
:104B68006E73652066726F6D2054525820256C75DF
:104B7800206166746572207265747279696E672E39
:104B880020476976696E672075702E0041434B2077
:104B98006164646564004E414B206E6F74206164EB
:104BA8006465640041434B206175746F5F7061698F
:104BB80072206D6F6465206F6E0041434B206175F4
:104BC800646F5F70616972206D6F6465206F6666DF
:104BD800004E414B20506C6561736520656E6162C3
:104BE8006C65206D616E75616C2070616972696EAB
:104BF80067206D6F64652028276D27292062656608
:104C08006F72652069737375696E67202770272036
:104C1800636F6D6D616E642E0041434B20506C656F
:104C280061736520656E74657220494420666F6CF7
:104C38006C6F77656420627920636172726961675D
:104C4800652072657475726E3A0041434B2070613D
:104C580069725F776974682073657420746F2000C7
:104C680041434B20656E746572206C6F67206C65DC
:104C780076656C3A0041434B204C6F67206C657633
:104C8800656C2073657420746F200041434B206F5E
:104C98006E6C79207072696E74206461746120662C
:104CA800726F6D206B6E6F776E207472616E736DAC
:104CB8006974746572730041434B207072696E7435
:104CC80020616C6C2076616C6964207061636B652F
:104CD80074730041434B207072696E7420616C6C70
:104CE8000041434B20656E7465722043435F5458FE
:104CF80020494420746F206164643A004E414B207F
:104D0800756E7265636F676E6973656420636F6D36
:104D18006D616E642027007B69643A20002C207442
:104D28003A20002C2073002C2073746174653A209B
:104D3800004E4F204D4F524520425546464552534E
:104D48002100617474616368696E6720696E7465B7
:104D580072727570740041434B204343205452587B
:104D680020256C7500506F6C6C696E67204343207A
:104D780054525820256C75004544462049414D2021
:104D880052656365697665720046696E6973686520
:104D98006420696E69740000000000721AE51B0F38
:084DA8001A3E1A221A601A00DB
:00000001FF
