:100000000C94B2030C94FB290C94282A0C94DA0368
:100010000C94DA030C94DA030C94DA030C94DA03EC
:100020000C94DA030C94DA030C94DA030C94DA03DC
:100030000C94DA030C94DA030C94DA030C94DA03CC
:100040000C94552A0C94DA030C9421270C94542711
:100050000C94DA030C94DA030C94DA030C94DA03AC
:100060000C94DA030C94DA037B226964223A2000B0
:100070002C2022616374697665223A20007D007B22
:10008000226964223A20002C20226C6173745F7311
:1000900065656E223A20002C20226E756D5F7065BA
:1000A00072696F64735F6D6973736564223A2000CF
:1000B0002C2022657461223A20002C202273616D6D
:1000C000706C655F706572696F64223A20002C2045
:1000D00022616374697665223A20007D00545820BD
:1000E000256C75206F6C642073616D706C65207079
:1000F0006572696F643D257500416464696E6720AF
:100100006E65775F73616D706C655F706572696F46
:100110006420257500545820256C75206E65772065
:1001200073616D706C6520706572696F643D2575D3
:100130000020002000284445425547290028494E08
:10014000464F2900285741524E2900284552524F08
:1001500052290028464154414C29006574612025EC
:100160006C75203C206D696C6C6973282920256CA6
:10017000752E2069643D256C752E206E756D5F703F
:100180006572696F64733D25642C206163746976C0
:10019000653D25640069643A256C75206D6973734B
:1001A000696E672E204E6577204554413D256C755C
:1001B000206D69737365643D2575004E6578742004
:1001C00054582049443D256C752C204554413D250B
:1001D0006C75002043435F5458002043435F5452E2
:1001E000580041434B206175746F5F7061697220E4
:1001F0006F6E0041434B206175646F5F706169727F
:10020000206F6666004E414B20456E61626C652032
:100210006D616E75616C2070616972696E672062D4
:1002200065666F72652027702720636D642E00411C
:10023000434B20456E7465722049443A0041434B5C
:1002400020706169725F77697468207365742074C7
:100250006F200041434B20656E746572206C6F67A0
:10026000206C6576656C3A0041434B204C6F6720EB
:100270006C6576656C2073657420746F2000004196
:10028000434B206F6E6C79207072696E74206461CC
:1002900074612066726F6D206B6E6F776E20747262
:1002A000616E736D6974746572730041434B2070A5
:1002B00072696E7420616C6C2076616C6964207068
:1002C00061636B6574730041434B207072696E7497
:1002D00020616C6C004E414B20756E7265636F67D8
:1002E0006E6973656420636F6D6D616E64202700B5
:1002F00027002C20000041434B20656E746572205E
:100300000020494420746F206164643A00206164D5
:100310006465640041434B004E414B206E6F740096
:10032000256C7520697320616C7265616479206940
:100330006E20646174612E0044594E414D49432042
:100340004152524159204F5554204F462052414E60
:100350004745204552524F52004F5554204F46209A
:100360004D454D4F52590041434B20656E746572A7
:10037000200020494420746F206164643A002061A9
:10038000646465640041434B004E414B206E6F74C2
:1003900000256C7520697320616C72656164792039
:1003A000696E20646174612E0044594E414D494389
:1003B000204152524159204F5554204F462052411E
:1003C0004E4745204552524F52004F5554204F46FC
:1003D000204D454D4F52590041434B20656E746589
:1003E00072206E756D626572206F6600733A00410F
:1003F000434B004E414B0044594E414D494320412F
:1004000052524159204F5554204F46204D454D4F93
:1004100052590041434B20656E746572206E756DB4
:10042000626572206F6600733A0041434B004E4193
:100430004B0044594E414D494320415252415920AD
:100440004F5554204F46204D454D4F525900414382
:100450004B2064656C6574656420616C6C0073008E
:1004600041434B2064656C6574656420616C6C006D
:10047000730041434B20656E74657220002049442F
:1004800020746F2072656D6F76653A002072656D1D
:100490006F7665640041434B004E414B206E6F7494
:1004A00000256C75206E6F7420696E206461746124
:1004B0002E004E414B20696E64657820746F6F206A
:1004C0006C617267650041434B20656E74657220F4
:1004D0000020494420746F2072656D6F76653A0084
:1004E0002072656D6F7665640041434B004E414B51
:1004F000206E6F7400256C75206E6F7420696E20FD
:10050000646174612E004E414B20696E64657820F1
:10051000746F6F206C617267650041434B007B0014
:10052000733A205B002C000D0A5D7D0041434B00B7
:100530007B00733A205B002C000D0A5D7D004D6945
:100540007373696E672054525820256C752C207285
:100550006574726965733D2564004D697373696ED6
:10056000672054525820256C752E20476976696E95
:10057000672075702E0057696E646F77206F706505
:100580006E2120457870656374696E6720256C75EF
:1005900020617420256C750057696E646F77206345
:1005A0006C6F7365642E20737563636573733D258B
:1005B000640057616974696E6720256C75206D73DE
:1005C00020666F7220494420256C7500527827649C
:1005D0002043435F5458207061636B6574207769D2
:1005E000746820756E6B6E6F776E20494420256CA1
:1005F0007500527827642043435F5452582070613D
:10060000636B6574207769746820756E6B6E6F77A5
:100610006E20494420256C75005278276420627250
:100620006F6B656E202573207061636B6574004489
:10063000594E414D4943204152524159204F555442
:10064000204F462052414E4745204552524F5200BE
:1006500050616972207265712066726F6D20256C21
:1006600075007B50523A20007D007B70773A200065
:10067000207D002000007B226964223A20002C208B
:100680002274223A20002C20227300223A20002CCF
:1006900020227374617465223A2000310030007D9D
:1006A000004E4F204D4F524520425546464552532D
:1006B0002100617474616368696E6720696E746596
:1006C000727275707400506F6C6C696E6720434372
:1006D0002054525820256C750041434B2043432041
:1006E00054525820256C75004544462049414D2000
:1006F00052656365697665720046696E69736865FF
:100700006420696E69740020000000000007000288
:1007100001000003040600000000000000000102C8
:10072000040810204080010204081020010204087F
:10073000102004040404040404040202020202025D
:1007400003030303030300000000250028002B001F
:1007500000000000240027002A00B92443250F28A8
:10076000C724472511241FBECFEFD8E0DEBFCDBF81
:1007700011E0A0E0B1E0EAEDF2E602C005900D92D2
:10078000AC38B107D9F713E0ACE8B1E001C01D9275
:10079000A034B107E1F717E0C0E6D7E004C0229724
:1007A000FE010E94442CCA35D107C9F70E943C259E
:1007B0000C9460310C940000CF92DF92EF92FF9284
:1007C0000F931F936B017C0120E030E040E05FE479
:1007D0000E943F0787FD0EC020E030E040E05FE46C
:1007E000C701B6010E9487050E94CA078B019C01C0
:1007F000305806C0C701B6010E94CA078B019C0190
:10080000B801C9011F910F91FF90EF90DF90CF9039
:100810000895A0E0B0E0EFE0F4E00C940F2C3C0170
:10082000CB01EA01D3012C91223008F43EC1FB0137
:100830003081323008F436C1243071F4343009F09C
:1008400034C111962C918181281709F42EC1B2E18F
:100850006B2EB1E07B2E29C1343009F423C1323034
:1008600091F4223009F021C128E0F301DA0101906E
:100870000D922A95E1F7DB0111968C91F30191819C
:100880008923898311C1223009F40CC1D301129646
:10089000ED91FC911397DB0112966D917C9113976A
:1008A000D30114960D911D912D913C911797DC0168
:1008B0001496CD90DD90ED90FC901797AF01461BFC
:1008C000570BDA0157FF04C0AA27BB27A41BB50B9F
:1008D000A032B1050CF065C0141615067CF5B70101
:1008E000A6010A2E04C076956795579547950A94F8
:1008F000D2F7812C912C5401839404C0880C991C4C
:10090000AA1CBB1CAA95D2F7B1E08B1A9108A108CA
:10091000B1088C209D20AE20BF20C12CD12C7601A7
:10092000C39481149104A104B10419F4C12CD12CF5
:100930007601C42AD52AE62AF72A3EC0452BE1F1E2
:10094000EA0FFB1FB901A8010A2E04C0769567952E
:10095000579547950A94D2F7812C912C5401839492
:1009600004C0880C991CAA1CBB1CAA95D2F7A1E054
:100970008A1A9108A108B10880229122A222B322EA
:1009800001E010E020E030E081149104A104B10402
:1009900019F400E010E09801042B152B262B372BBF
:1009A0000BC06E177F0724F4C12CD12C760104C034
:1009B000FB0100E010E09801D30111964C91DC019D
:1009C00011968C91481709F442C0442349F0D7018D
:1009D000C601801B910BA20BB30B8C019D0104C0BF
:1009E0000C191D092E093F0937FD04C01982FB832C
:1009F000EA830BC081E08983FB83EA8330952095ED
:100A0000109501951F4F2F4F3F4F0C831D832E8351
:100A10003F830DC0880F991FAA1FBB1F8C839D8326
:100A2000AE83BF838A819B8101979B838A838C815C
:100A30009D81AE81BF818C019D0101501109210969
:100A400031090F3F1F4F2F4F3F4320F30BC0498306
:100A5000FB83EA830C0D1D1D2E1D3F1D0C831D8382
:100A60002E833F8383E088830C811D812E813F810B
:100A700037FF1AC0D901C80181709927AA27BB275F
:100A80003695279517950795802B912BA22BB32B85
:100A90008C839D83AE83BF838A819B8101969B83D8
:100AA0008A8302C03C0101C03E01C301CDB7DEB75D
:100AB000EEE00C942B2CA0E2B0E0E1E6F5E00C9423
:100AC0001B2C6D8F7E8F8F8F98A3298F3A8F4B8F22
:100AD0005C8FBE016F5E7F4FCE014D960E94500924
:100AE000BE01675F7F4FCE0149960E945009AE015B
:100AF0004F5F5F4FBE01675F7F4FCE0141960E94FF
:100B000009040E948F08A096E2E00C94372CA0E222
:100B1000B0E0EDE8F5E00C941B2C6D8F7E8F8F8F8D
:100B200098A3298F3A8F4B8F5C8FBE016F5E7F4FEA
:100B3000CE014D960E945009BE01675F7F4FCE01E6
:100B400049960E9450098A8591E089278A87AE01DB
:100B50004F5F5F4FBE01675F7F4FCE0141960E949E
:100B600009040E948F08A096E2E00C94372CA0E2C2
:100B7000B0E0EDEBF5E00C940D2C6D8F7E8F8F8F38
:100B800098A3298F3A8F4B8F5C8FBE016F5E7F4F8A
:100B9000CE014D960E945009BE01675F7F4FCE0186
:100BA00049960E9450099989923008F412C08985AB
:100BB000823008F41AC0943021F4823009F4B4C0B1
:100BC00008C0843021F4923009F4AEC00EC09230D7
:100BD00051F481E02A899A85291301C080E08A8B2B
:100BE000CE014196A3C0823051F481E02A899A85D2
:100BF000291301C080E08A87CE01099697C08D88AD
:100C00009E88AF88B88C0D851E852F853889E0E2D7
:100C1000F0E080E090E0DC01C12CD12C760140E0D6
:100C200050E0BA0180FE18C0400F511F621F731FB1
:100C30008C0D9D1DAE1DBF1D412C512C32014394C6
:100C4000401751076207730718F0412C512C3201ED
:100C5000840D951DA61DB71DCC0CDD1CEE1CFF1CC4
:100C600037FF02C06894C0F8000F111F221F331F06
:100C7000B694A794979487943197A1F62B893C89D1
:100C8000EB85FC852E0F3F1F2E5F3F4F3C832B8350
:100C900021E0EA893A85E31301C020E02A83EB8151
:100CA000FC810CC080FF05C07695679557954795E8
:100CB0007068B695A795979587953196B7FDF2CF51
:100CC0009F010CC0880F991FAA1FBB1F77FD816071
:100CD000440F551F661F771F215031090097A1054A
:100CE000E0E4BE0778F32B833C838C019D010F77F2
:100CF000112722273327003411052105310559F426
:100D000087FD09C0452B462B472B29F0805C9F4F60
:100D1000AF4FBF4F80788D839E83AF83B88783E0CA
:100D20008983CE01019602C082E191E00E948F0882
:100D3000A096E0E10C94292CA8E1B0E0E2EAF6E00C
:100D40000C94152C6D8B7E8B8F8B988F298B3A8B07
:100D50004B8B5C8BBE01675F7F4FCE0145960E9437
:100D60005009BE016F5F7F4FCE0141960E9450092E
:100D70009985923008F475C08981823008F474C076
:100D80002A853A8123272A87943011F0923019F46A
:100D9000981367C06CC0843039F41D861E861F8688
:100DA000188A1C861B8604C0823029F484E0898757
:100DB000CE0109965EC08B859C852B813C81821B70
:100DC000930B9C878B874D855E856F857889CD8059
:100DD000DE80EF80F8844C155D056E057F0538F4E4
:100DE000440F551F661F771F01979C878B87EFE184
:100DF000F0E000E010E020E030E480E090E0DC0192
:100E00004C155D056E057F0540F0802B912BA22BC4
:100E1000B32B4C195D096E097F09369527951795F7
:100E20000795440F551F661F771F319749F78C01AF
:100E30009D010F7711272227332700341105210543
:100E4000310559F487FD09C0452B462B472B29F066
:100E5000805C9F4FAF4FBF4F80788D879E87AF8755
:100E6000B88BCE01099605C0CE01019602C082E181
:100E700091E00E948F086896E8E00C94312CA8E17C
:100E8000B0E0E5E4F7E00C941B2C6D8B7E8B8F8B30
:100E9000988F298B3A8B4B8B5C8BBE01675F7F4FA2
:100EA000CE0145960E945009BE016F5F7F4FCE0173
:100EB00041960E9450098985823058F0898182309C
:100EC00040F0BE016F5F7F4FCE0109960E94BF09BF
:100ED00001C08FEF6896E2E00C94372CA8E0B0E0F8
:100EE000E4E7F7E00C94192C23E029838B019C01A3
:100EF000002737FD0395112722273327402F0A8328
:100F0000611571058105910519F482E0898335C069
:100F10002EE130E03C832B83442371F06115710591
:100F2000810520E8920771F1002711279801061B1F
:100F3000170B280B390B02C08B019C01C901B801AA
:100F40000E94482C0197181619062CF00D831E8359
:100F50002F83388712C0082E04C0000F111F221FD4
:100F6000331F0A94D2F70D831E832F8338872EE117
:100F700030E0281B390B3C832B83CE0101960E9465
:100F80008F0804C060E070E080E09FEC2896E4E009
:100F90000C94352CACE0B0E0E0EDF7E00C94192CAB
:100FA00069877A878B879C87BE016F5F7F4FCE01F1
:100FB00009960E9450098981823091F1823080F136
:100FC000843041F48A81882331F100E010E020E090
:100FD00030E829C02B813C8137FD22C02F313105FB
:100FE0008CF78EE190E0821B930B0D811E812F8187
:100FF000388504C036952795179507958A95D2F7B9
:101000008A81882381F030952095109501951F4F96
:101010002F4F3F4F08C00FEF1FEF2FEF3FE703C0E9
:1010200000E010E09801B801C9012C96E4E00C94AE
:10103000352CA8E0B0E0EFE1F8E00C94152C8B0122
:101040009C011A82611571058105910519F482E0F0
:1010500089835DC083E089834EE150E05C834B83EC
:10106000C901B8010E94482C019797FF39C0EE27AB
:10107000FF27E81BF90B41E050E060E070E00E2E26
:1010800004C0440F551F661F771F0A94D2F74150C2
:101090005109610971094023512362237323C12C33
:1010A000D12C7601C394452B462B472B19F4C12C28
:1010B000D12C760104C03695279517950795EA95AA
:1010C000D2F70C291D292E293F290D831E832F833A
:1010D00038872EE130E0281B390B3C832B8317C067
:1010E000009729F40D831E832F83388710C0082EA4
:1010F00004C0000F111F221F331F0A94D2F70D8363
:101100001E832F833887481B590B5C834B83CE018A
:1011100001960E948F082896E8E00C94312C0F93DA
:101120001F93CF93FC014481558166817781C181F2
:101130008081823020F460618FEF90E0A3C0843022
:1011400009F49BC0823009F492C041155105610534
:10115000710509F48FC02281338122388FEF38075F
:101160000CF057C0E2E8FFEFE21BF30BEA31F105A8
:1011700064F58A019B010E2E04C0369527951795BC
:1011800007950A94D2F781E090E0A0E0B0E004C0B7
:10119000880F991FAA1FBB1FEA95D2F70197A109D3
:1011A000B10984239523A623B72341E050E060E0F2
:1011B00070E0892B8A2B8B2B19F440E050E0BA01A8
:1011C000402B512B622B732B03C040E050E0BA013F
:1011D000DB01CA018F779927AA27BB2780349105A5
:1011E000A105B10539F447FF09C0405C5F4F6F4F5F
:1011F0007F4F04C0415C5F4F6F4F7F4F81E090E0B5
:1012000041155105610520E4720748F580E090E042
:1012100026C0203831058CF5DB01CA018F7799276C
:10122000AA27BB2780349105A105B10539F447FFF2
:1012300009C0405C5F4F6F4F7F4F04C0415C5F4F00
:101240006F4F7F4F77FD04C0C90181589F4F07C082
:101250007695679557954795C90180589F4F97E0B8
:1012600076956795579547959A95D1F70BC080E08D
:1012700090E005C080E090E005C08FEF90E040E096
:1012800050E0BA01982F9695C0FB97F9362F80FB56
:1012900037F9642F752F832FCF911F910F910895E8
:1012A000CF92DF92EF92DC01FB01CC901196DC90A3
:1012B000119712968C9112973FE7E32EE8226E2D3C
:1012C000A60170E0982F991F9927991F13962C91CA
:1012D000822F880F892B90E027FB222720F921837A
:1012E000009729F5411551056105710511F482E05A
:1012F00027C082E89FEF9383828327E0440F551F26
:10130000661F771F2A95D1F783E0808309C0440FB9
:10131000551F661F771F8281938101979383828374
:1013200041155105610580E4780788F320C08F3F9F
:10133000910579F4411551056105710519F484E0B1
:10134000808319C0E4FE03C081E0808310C0108256
:101350000EC08F5791099383828383E0808387E057
:10136000440F551F661F771F8A95D1F77064448319
:10137000558366837783EF90DF90CF900895CF9366
:10138000FC01DB019081923008F452C08C918230D4
:1013900008F44EC0943071F4843039F411962C91D5
:1013A00030E08181281B310948C08181882309F4FC
:1013B0003FC03BC0843029F411968C91811138C014
:1013C00034C0923019F48230B9F735C0823069F3F5
:1013D000C18111968C911197C8131DC02281338150
:1013E00012968D919C911397821793070CF413C05A
:1013F000281739070CF417C044815581668177811D
:1014000014968D919D910D90BC91A02D84179507F8
:10141000A607B70718F4C11108C00AC04817590732
:101420006A077B0740F4C11103C02FEF3FEF05C0EF
:1014300021E030E002C020E030E0C901CF91089502
:101440002EE131E0FC013183208308952EE131E06B
:10145000FC013183208308952EE131E0FC013183CA
:1014600020830C9419252EE131E0FC013183208387
:101470000C9419250F931F93CF93DF938C0186E46F
:1014800091E0F8019183808382819381009719F123
:10149000FC013297208131814EE1429FE001439F60
:1014A000D00D1124C80FD91FCE01F801228133813C
:1014B0006E978217930741F0E881F9810190F081DE
:1014C000E02DCE010995F0CF0297DF91CF911F91CA
:1014D0000F910C941D25DF91CF911F910F910895CD
:1014E000CF93DF93EC010E943A0ACE01DF91CF91B6
:1014F0000C94192522E331E0FC01318320830C9404
:101500003A0ACF93DF93EC010E947A0ACE01DF9171
:10151000CF910C9419250F931F93CF93DF938C01D8
:1015200080E591E0F8019183808382819381009727
:1015300019F1FC0132972081318147E0429FE0019F
:10154000439FD00D1124C80FD91FCE01F80122816D
:10155000338127978217930741F0E881F981019041
:10156000F081E02DCE010995F0CF0297DF91CF9168
:101570001F910F910C941D25DF91CF911F910F9119
:101580000895CF93DF93EC010E948B0ACE01DF9187
:10159000CF910C9419252CE331E0FC013183208399
:1015A0000C948B0ACF93DF93EC010E94CB0ACE01FF
:1015B000DF91CF910C9419256AED71E086E892E0F5
:1015C0000C94972863ED71E086E892E00C949728DC
:1015D000CF93DF93EC0168E670E086E892E00E942A
:1015E00097284A815B816C817D812AE030E086E822
:1015F00092E00E94592960E770E086E892E00E943C
:1016000097286E814AE050E070E086E892E00E9400
:10161000D3296DE770E086E892E0DF91CF910C94DA
:101620009728CF93DF93EC0168814AE050E070E0A7
:1016300086E892E00E94D3298881823089F028F4DC
:10164000882341F08130D1F408C0833061F08430C8
:10165000A9F40CC065E371E00BC06DE371E008C054
:1016600064E471E005C06BE471E002C063E571E021
:1016700086E892E0DF91CF910C949728DF91CF918B
:101680000895EF92FF920F931F93CF93DF93CDB7FF
:10169000DEB7C258D1090FB6F894DEBF0FBECDBF7A
:1016A000C557DF4FE880F980CB58D040C357DF4F94
:1016B00008811981CD58D04090910601F7018081B1
:1016C0008917D0F10E949F2AAB01BC012AE030E0CB
:1016D00086E892E00E94592961E371E086E892E091
:1016E0000E949728C7010E94110B63E371E086E80E
:1016F00092E00E949728DE01AF5BBF4FF8010F5FB9
:101700001F4FE491ED93E111F9CFAE0141575F4FC7
:10171000CF57DF4F59834883C158D040BE016F5B1C
:101720007F4FCE0101960E949D2EBE016F5F7F4FBD
:1017300086E892E00E94E928CE57DF4F0FB6F89472
:10174000DEBF0FBECDBFDF91CF911F910F91FF90F4
:10175000EF900895FC018EE191E0918380834FEF3B
:101760005FEFBA01428353836483758381E086838C
:101770000895FC018EE191E091838083DB014D911E
:101780005D916D917C91428353836483758381E085
:1017900086830895CF92DF92EF92FF92CF93DF93EB
:1017A000EC01CC24CA94DC2C7601CA82DB82EC8268
:1017B000FD8281E08E8388E291E099838883CE0167
:1017C0000B960E94CF24CF82D886E986FA86198E9E
:1017D0001A8E1B8E1C8E1D8EDF91CF91FF90EF9085
:1017E000DF90CF900895CF93DF93EC01FB01408110
:1017F0005181628173814A835B836C837D8381E045
:101800008E8388E291E099838883CE010B960E94B3
:10181000CF244FEF5FEFBA014F83588769877A87EC
:10182000198E1A8E1B8E1C8E1D8EDF91CF910895FE
:10183000CF93DF93EC016FE770E086E892E00E94BF
:1018400097284A815B816C817D812AE030E086E8BF
:1018500092E00E94592967E870E086E892E00E94D1
:1018600097284A8D5B8D6C8D7D8D2AE030E086E86F
:1018700092E00E94592967E970E086E892E00E94B0
:1018800097284AE050E0698D86E892E00E9480291E
:1018900060EB70E086E892E00E9497284F815885BF
:1018A00069857A852AE030E086E892E00E9459292D
:1018B0006AEB70E086E892E00E949728CE010B96D2
:1018C0000E94F824FC01608171814AE050E086E8C2
:1018D00092E00E947A296EEC70E086E892E00E9425
:1018E00097286E814AE050E070E086E892E00E941E
:1018F000D3296BED70E086E892E0DF91CF910C94F4
:1019000097284F925F926F927F928F929F92AF92A1
:10191000BF92CF92DF92EF92FF920F931F93CF93DC
:10192000DF9300D01F92CDB7DEB77C015B01FC01D5
:10193000428D538D648D758D452B462B472B09F4B5
:101940007EC04C01FBE08F0E911CC4010E94F82464
:10195000FC0140815181F70182819381248135818D
:101960001B825F934F933F932F939F938F938DEDA4
:1019700090E09F938F936E01F3E0CF0ED11CDF9226
:10198000CF920E94410BC5010E949121FC01608110
:10199000718182819381F701028D138D248D358DA4
:1019A000601B710B820B930B218D30E040E050E007
:1019B0000E94E92BC9013A832983255436410FB689
:1019C000F894DEBF0FBECDBF27353240B8F41B827E
:1019D0009F938F9389EF90E09F938F93DF92CF92A5
:1019E0000E94410BBE016F5F7F4FC4010E94E22441
:1019F0000F900F900F900F900F900F90C4010E94C6
:101A0000F824FC0140815181F70182819381248176
:101A100035811B825F934F933F932F939F938F93B7
:101A200085E191E09F938F93CE0103969F938F93CF
:101A30000E94410B0FB6F894DEBF0FBECDBFC501AB
:101A40000E949121FC014080518062807380C70117
:101A50000B960E94F824B301A201445F5140610932
:101A60007109FC0180819181480F591F611D711D11
:101A7000F701478350876187728711E0118FC50195
:101A80000E949121FC014081518162817381F701A3
:101A9000428F538F648F758F16830F900F900F9026
:101AA000DF91CF911F910F91FF90EF90DF90CF903A
:101AB000BF90AF909F908F907F906F905F904F906E
:101AC0000895AF92BF92CF92DF92EF92FF920F9361
:101AD0001F93CF93DF931F92CDB7DEB78C01FC012C
:101AE000C780D084E184F2840E949F2AC616D7065C
:101AF000E806F90608F04CC0F801C780D084E184FC
:101B0000F284F0E7CF0EF7E1DF1EE11CF11C0E942A
:101B10009F2A6059784E8F4F9F4FC616D706E8060A
:101B2000F906B0F5F801A680B18CF280E380D4808C
:101B3000C5800E949F2AF801278130854185528502
:101B400019821F92AF921F92BF92CF92DF92EF92B3
:101B5000FF929F938F937F936F935F934F933F93E6
:101B60002F938BE591E09F938F93CE0101969F93E6
:101B70008F930E94410B4FEF5FEFBA01F80147834B
:101B80005087618772870FB6F894DEBF0FBECDBF56
:101B9000095F1F4FC8010F90DF91CF911F910F91E7
:101BA000FF90EF90DF90CF90BF90AF9008950F938C
:101BB0001F93CF93DF931F92CDB7DEB78C010B96A7
:101BC0000E94F824DC018D919C91F8014781508599
:101BD00061857285480F591F611D711D47835087AC
:101BE00061877287818D8F5F818F863008F01682C2
:101BF000F801928123813481E581F1E0F9831F921C
:101C00008F937F936F935F934F93EF933F932F93B4
:101C10009F9385E991E09F938F93CE0101969F93C7
:101C20008F930E94410B0FB6F894DEBF0FBECDBF5D
:101C30000F90DF91CF911F910F910895BF92CF9296
:101C4000DF92EF92FF920F931F93CF93DF931F9238
:101C5000CDB7DEB78C01B12C2BC0D80112968D9177
:101C60009C911397BEE1BB9E800D911D1124FC0138
:101C700026812223E1F00E94610DDC01CD90DD90F0
:101C8000ED90FC90F801258182819381FEE12F9FE8
:101C9000800D911D11240E94610DDC014D915D911B
:101CA0006D917C91C416D506E606F706F0F1B39463
:101CB000F8018481B81688F2258182819381FEE142
:101CC0002F9F800D911D11240E94610DFC01408108
:101CD000518162817381D80115968C911597129666
:101CE000ED91FC911397BEE18B9FE00DF11D112446
:101CF000828193812481358119827F936F935F93D1
:101D00004F933F932F939F938F938BEB91E09F93F0
:101D10008F93CE0101969F938F930E94410B0FB634
:101D2000F894DEBF0FBECDBF04C0D8011596BC929B
:101D3000BECF0F90DF91CF911F910F91FF90EF9049
:101D4000DF90CF90BF900895FC0185818F5F8583E0
:101D50009481891301C015820895CF92DF92EF928A
:101D6000FF920F93CF93DF93C02FC15050E0D7E085
:101D700030E027C0CC2ED12CD601A40FB51FDA9F9E
:101D80007001DB9FF00C1124FC01A081B181AE0D2C
:101D9000BF1D7601E20EF31EDE9DF001DF9DF00D0A
:101DA0001124E60FF71F1296CD90DD90ED90FC9078
:101DB0001597C282D382E482F5821696AC91A683EF
:101DC000C150C017B8F2DF91CF910F91FF90EF9003
:101DD000DF90CF900895FC0181E081834FEF5FEFAA
:101DE000BA01428353836483758386831286118686
:101DF00013861486158616861786108A118A128A0B
:101E0000138A148A158A82E391E090878783118E62
:101E1000108E128E138E148E158E168E178E10A2A3
:101E200011A212A213A214A28CE391E0978B868BCD
:101E300015A216A217A210A611A608950E94F022BC
:101E40000C9452227F928F929F92AF92BF92CF9228
:101E5000DF92EF92FF920F931F93CF93DF931F9226
:101E6000CDB7DEB77C0163E174E086E892E00E94C2
:101E70009728D701ED91FC910480F581E02DC701F1
:101E8000099567E274E086E892E00E94D5280E94F6
:101E90002D26762E862E912CB7E06B9FC001112443
:101EA00002960E941B256C01FC01819291928F0188
:101EB000A12CB12C05C0C8010E94AA0B095F1F4FBD
:101EC000FFEFAF1ABF0AC4018A199B09019699F75F
:101ED00082E0C80ED11CC114D10499F0D701149628
:101EE0007C92149716960C9120E040E0B601C70151
:101EF00002960E94AD0EF701828193810097A1F4B2
:101F000036C082E0898382E394E09F938F93CE0171
:101F100001969F938F930E94410B0F900F900F900B
:101F20000F906EE274E028C0FC013297208131816D
:101F300047E0429F8001439F100D1124080F191F95
:101F4000C801D70112962D913C91139707501109A2
:101F50008217930749F0D801ED91FC910190F0812F
:101F6000E02DC8010995ECCF02970E941D25F701CD
:101F7000D382C2826AE274E086E892E00E94D528A9
:101F80000F90DF91CF911F910F91FF90EF90DF9015
:101F9000CF90BF90AF909F908F907F9008951F93A8
:101FA000CF93DF93EC016CE275E086E892E00E944B
:101FB000D52860E375E086E892E00E949728E881E2
:101FC000F9810480F581E02DCE01099562E375E089
:101FD00086E892E00E94D52810E01DC08A819B818E
:101FE00027E0129F800D911D1124DC01ED91FC91E1
:101FF0000480F581E02D0995212F30E08E8190E05D
:1020000001972817390734F467E375E086E892E012
:102010000E94D5281F5F8E81181700F369E375E0D1
:1020200086E892E0DF91CF911F910C94D5282F92F2
:102030003F924F925F926F927F928F929F92AF9258
:10204000BF92CF92DF92EF92FF920F931F93CF93A5
:10205000DF9300D000D000D0CDB7DEB78C017C83F9
:102060006B831A01DB01CD90DD90ED90FC90FC01BB
:1020700087809084A184B284C814D904EA04FB0444
:1020800018F4DA011C929AC0FC01438454846584DC
:102090007684F681FA834C145D046E047F0418F490
:1020A000DA01FC938BC0FA81F23008F484C0C701D6
:1020B000B601681979098A099B090E9419086B0100
:1020C0007C01C301B201681979098A099B090E9440
:1020D00019089B01AC01C701B6010E949C066B0167
:1020E0007C014A81642F70E061507109882777FD77
:1020F0008095982F0E946E079B01AC01C701B60125
:102100000E94B7050E94DC03D1016C93F80186811F
:10211000681708F08C93D1018C918823D1F0D801F5
:102120001296ED91FC911397BEE18B9FE00DF11D8E
:10213000112482809380A480B580EB81FC81C080D3
:10214000D180E280F380C814D904EA04FB0408F4C7
:102150005EC0D1012C91F8013681AB81BC81CD905C
:10216000DD90ED90FC90BEE12B9FC0011124231760
:1021700098F0D8011296ED91FC911397E80FF91F92
:1021800081E042815381648175814C155D056E0546
:102190007F0509F444C012C00280F381E02DE80FEE
:1021A000F91F82809380A480B5808C149D04AE04B6
:1021B000BF0488F1DECFBA81B13011F080E02FC0CA
:1021C000FC0182819381009789F482E0898388E30E
:1021D00093E09F938F93CE0101969F938F930E94DC
:1021E000410B0F900F900F900F9002C09E838D8334
:1021F000ED81FE8182819381A481B581C816D906C3
:10220000EA06FB06D9F6D1011C9281E008C0815094
:10221000F101808380CF2F5FD1012C939ACF269636
:102220000FB6F894DEBF0FBECDBFDF91CF911F91E7
:102230000F91FF90EF90DF90CF90BF90AF909F9065
:102240008F907F906F905F904F903F902F90089568
:10225000CF93DF93EC01CB01FB0142815381648179
:1022600075814A835B836C837D8326812E834781BE
:102270005085618572854F83588769877A872EE0FC
:102280003B96DE011B9601900D922A95E1F7FC0129
:10229000218D298F428D538D648D758D4A8F5B8F73
:1022A0006C8F7D8FCE01DF91CF9108959F92AF9279
:1022B000BF92CF92DF92EF92FF920F931F93CF9333
:1022C000DF93EC017B01102F1150C42ED12C8EE135
:1022D000982EA22EB12C1AC0E12FF0E09F012C0DF8
:1022E0003D1D929EC001939E900D112468817981BD
:1022F000680F791FEA0DFB1D9E9EC0019F9E900DE9
:1023000011248E0D9F1D0E9428111150101720F3CB
:10231000DF91CF911F910F91FF90EF90DF90CF90C1
:10232000BF90AF909F9008957F928F929F92AF92AF
:10233000BF92CF92DF92EF92FF920F931F93CF93B2
:10234000DF931F92CDB7DEB77C0168ED73E086E8BE
:1023500092E00E949728D701ED91FC910480F581CD
:10236000E02DC70109956CEE73E086E892E00E94CB
:10237000D5280E942D26762E862E912CBEE16B9FAD
:10238000C001112402960E941B256C01FC01819260
:1023900091928F01A12CB12C02C00E94CA0BC801DE
:1023A000FFEFAF1ABF0A025E1F4F94012A193B09C3
:1023B0002F3F3F4F91F782E0C80ED11CC114D104CA
:1023C00099F0D70114967C92149716960C9120E000
:1023D00040E0B601C70102960E945611F7018281C2
:1023E00093810097A1F436C082E0898387EF93E060
:1023F0009F938F93CE0101969F938F930E94410BE1
:102400000F900F900F900F9063EF73E028C0FC01C6
:102410003297208131814EE1429F8001439F100D10
:102420001124080F191FC801D70112962D913C9154
:1024300013970E5111098217930749F0D801ED91B6
:10244000FC910190F081E02DC8010995ECCF029735
:102450000E941D25F701D382C2826FEE73E086E8E9
:1024600092E00E94D5280F90DF91CF911F910F919C
:10247000FF90EF90DF90CF90BF90AF909F908F90A4
:102480007F9008958F929F92AF92BF92CF92DF92EA
:10249000EF92FF920F931F93CF93DF9300D000D062
:1024A00000D0CDB7DEB78C0162E774E086E892E039
:1024B0000E949728D801ED91FC910480F581E02DD0
:1024C000C80109956DE774E086E892E00E94D5287E
:1024D0000E942D2669837A838B839C831E82AE01A2
:1024E0004A5F5F4FBE016F5F7F4FC8010E941710A8
:1024F000882309F471C0AE80F8019680A91438F0E1
:1025000062EB74E086E892E00E94D5287DC09A9440
:102510009A18A394FEE1AF9E50011124C12CD12C36
:10252000E12CF12C9EE1892E1BC012968D919C917D
:102530001397B6016A0D7B1D680F791FA701420F23
:10254000511D849E9001859E300D1124820F931F92
:102550000E942811BFEFEB1AFB0AEEE1CE0ED11C50
:102560002E81D801E91408F321110EC01296ED91C5
:10257000FC9113974281538164817581F8014783EF
:102580005087618772871EC016964C91169730E06F
:10259000842F90E0019728173907A1F412968D91A6
:1025A0009C911397BEE14B9F800D911D1124FC015E
:1025B000FC974281538164817581F8014387548778
:1025C00065877687D80116968C9116978150169656
:1025D0008C9365E974E01AC089819A812B813C81D2
:1025E0001D823F932F939F938F9381EA94E09F9353
:1025F0008F93CE0105969F938F930E94410B0FB648
:10260000F894DEBF0FBECDBF69E974E086E892E0C2
:102610000E9497286CE874E086E892E00E94972870
:10262000D801ED91FC910480F581E02DC801099558
:1026300049815A816B817C812AE030E086E892E012
:102640000E94662926960FB6F894DEBF0FBECDBF56
:10265000DF91CF911F910F91FF90EF90DF90CF907E
:10266000BF90AF909F908F9008956F927F928F92BE
:102670009F92AF92BF92CF92DF92EF92FF920F9311
:102680001F93CF93DF93CDB7DEB7A0970FB6F89423
:10269000DEBF0FBECDBF7C016B0118A2AE01405E54
:1026A0005F4F0E9417108823F9F0D6018C91119684
:1026B0009C91119712962C91129713963C911F8E14
:1026C0003F932F939F938F9380E293E09F938F93F9
:1026D000CE014F969F938F930E94410B0FB6F894B3
:1026E000DEBF0FBECDBF6EC0D70116960C911697F8
:1026F00014966C901497061558F548A1041B242FC6
:102700002F5F12966D917C911397C70102960E94DC
:102710005611B601CE0101960E94F30B28A1F701D4
:1027200082819381BE016F5F7F4FFEE12F9F800DFD
:10273000911D11240E942811CE0101960E94260AA3
:10274000D70116968C9116978F5F16968C9397C02B
:10275000712C4301BFEF8B1A9B0A2EE1289DC0010B
:10276000299D900D112402960E941B255C01FC01FD
:10277000819291928F01812C912C05C00E94CA0BED
:10278000FFEF8F1A9F0AC801025E1F4F930128199D
:1027900039092F3F3F4F91F782E0A80EB11CA114D9
:1027A000B10491F483E08F8F89E593E09F938F9339
:1027B000CE014F969F938F930E94410B0F900F90E5
:1027C0000F900F9080E096C0470192E0890E911C17
:1027D00008A120E040E0B501C4010E945611B601F5
:1027E000CE0101960E94F30B88A1BE016F5F7F4F5F
:1027F000D501EEE18E9FA00DB11D1124CD010E94E7
:102800002811CE0101960E94260A48A1D7011696EA
:102810000C91041B242F2F5FB501C4010E94561197
:10282000F70182819381009719F1FC013297208191
:1028300031814EE1429F8001439F100D1124080F0A
:10284000191FC801D70112962D913C9113970E5173
:1028500011098217930749F0D801ED91FC9101907D
:10286000F081E02DC8010995ECCF02970E941D254B
:10287000F701B382A28284818F5F84838683D7012C
:1028800014968C911497F601408151816281738175
:10289000813061F41B964D935D936D937C931E97ED
:1028A000F701478350876187728724C0D7011B9641
:1028B0000D911D912D913C911E9704171507260728
:1028C000370730F4F701438754876587768711C04F
:1028D000D70117960D911D912D913C911A97401794
:1028E00051076207730728F4F70147835087618710
:1028F000728781E0A0960FB6F894DEBF0FBECDBF01
:10290000DF91CF911F910F91FF90EF90DF90CF90CB
:10291000BF90AF909F908F907F906F9008950F938E
:102920001F93CF93DF9300D000D0CDB7DEB78C01DB
:1029300066EF72E086E892E00E949728D801ED9158
:10294000FC910480F581E02DC801099561E073E0F8
:1029500086E892E00E94D5280E942D2669837A831A
:102960008B839C83BE016F5F7F4FC8010E9435132C
:10297000882319F064E173E002C068E173E086E83F
:1029800092E00E9497286DE073E086E892E00E9452
:102990009728D801ED91FC910480F581E02DC801C4
:1029A000099549815A816B817C812AE030E086E873
:1029B00092E00E9466290F900F900F900F90DF9188
:1029C000CF911F910F9108952F923F924F925F9256
:1029D0006F927F928F929F92AF92BF92CF92DF922F
:1029E000EF92FF920F931F93CF93DF9300D000D00D
:1029F00000D0CDB7DEB78C017C836B831A01DB017D
:102A0000CD90DD90ED90FC90FC0187809084A184B6
:102A1000B284C814D904EA04FB0418F4DA011C9245
:102A20009AC0FC014384548465847684F681FA83D9
:102A30004C145D046E047F0418F4DA01FC938BC01F
:102A4000FA81F23008F484C0C701B6016819790927
:102A50008A099B090E9419086B017C01C301B2011C
:102A6000681979098A099B090E9419089B01AC0120
:102A7000C701B6010E949C066B017C014A81642F4C
:102A800070E061507109882777FD8095982F0E942A
:102A90006E079B01AC01C701B6010E94B7050E94F9
:102AA000DC03D1016C93F8018681681708F08C93E0
:102AB000D1018C918823D1F0D8011296ED91FC912F
:102AC0001397B7E08B9FE00DF11D11248280938056
:102AD000A480B580EB81FC81C080D180E280F3804E
:102AE000C814D904EA04FB0408F45EC0D1012C9197
:102AF000F8013681AB81BC81CD90DD90ED90FC90EA
:102B0000B7E02B9FC0011124231798F0D80112962B
:102B1000ED91FC911397E80FF91F81E042815381F9
:102B2000648175814C155D056E057F0509F444C00F
:102B300012C00280F381E02DE80FF91F828093809C
:102B4000A480B5808C149D04AE04BF0488F1DECF50
:102B5000BA81B13011F080E02FC0FC0182819381F5
:102B6000009789F482E0898389EA93E09F938F93A9
:102B7000CE0101969F938F930E94410B0F900F906F
:102B80000F900F9002C09E838D83ED81FE81828124
:102B90009381A481B581C816D906EA06FB06D9F649
:102BA000D1011C9281E008C08150F101808380CF67
:102BB0002F5FD1012C939ACF26960FB6F894DEBFE3
:102BC0000FBECDBFDF91CF911F910F91FF90EF907E
:102BD000DF90CF90BF90AF909F908F907F906F903D
:102BE0005F904F903F902F9008956F927F928F92B9
:102BF0009F92AF92BF92CF92DF92EF92FF920F938C
:102C00001F93CF93DF93CDB7DEB729970FB6F89414
:102C1000DEBF0FBECDBF7C016B011986AE01475FE1
:102C20005F4F0E94E4148823F9F0D6018C9111962D
:102C30009C91119712962C91129713963C9118869D
:102C40003F932F939F938F9381E993E09F938F936B
:102C5000CE0108969F938F930E94410B0FB6F89474
:102C6000DEBF0FBECDBF70C0D70116960C91169770
:102C700014966C901497061570F54985041B242F43
:102C80002F5F12966D917C911397C70102960E9457
:102C9000AD0EB601CE0101960E94B90B8985D70110
:102CA0001296ED91FC911397B7E08B9FE00DF11D0B
:102CB00011244B815C816D817E81428353836483C7
:102CC00075838F818683CE0101960E94200AF701C9
:102CD00086818F5F99C0712C4301FFEF8F1A9F0A85
:102CE00027E0289DC001299D900D112402960E9485
:102CF0001B255C01DC018D929D928D01812C912C14
:102D000008C0C8010E94AA0B095F1F4FBFEF8B1AB2
:102D10009B0AC30188199909019699F7F2E0AF0E51
:102D2000B11CA114B10491F483E088878AEC93E08C
:102D30009F938F93CE0108969F938F930E94410B90
:102D40000F900F900F900F9080E09AC0470122E003
:102D5000820E911C098520E040E0B501C4010E946B
:102D6000AD0EB601CE0101960E94B90B8985F50121
:102D700097E0899FE00DF11D11244B815C816D81ED
:102D80007E8142835383648375838F818683CE01E2
:102D900001960E94200A4985D70116960C91041BC2
:102DA000242F2F5FB501C4010E94AD0EF70182816F
:102DB0009381009719F1FC0132972081318147E01E
:102DC000429F8001439F100D1124080F191FC80155
:102DD000D70112962D913C91139707501109821734
:102DE000930749F0D801ED91FC910190F081E02D1D
:102DF000C8010995ECCF02970E941D25F701B38207
:102E0000A28284818F5F84838683D70114968C91FC
:102E10001497F6014081518162817381813061F4A0
:102E20001B964D935D936D937C931E97F70147839B
:102E300050876187728724C0D7011B960D911D9121
:102E40002D913C911E97041715072607370730F47C
:102E5000F701438754876587768711C0D701179696
:102E60000D911D912D913C911A97401751076207C2
:102E7000730728F4F701478350876187728781E0E1
:102E800029960FB6F894DEBF0FBECDBFDF91CF916C
:102E90001F910F91FF90EF90DF90CF90BF90AF9078
:102EA0009F908F907F906F9008950F931F93CF9373
:102EB000DF93EC01FB018081882351F0813059F5CB
:102EC000BE016E5F7F4FCE0107960E9435130BC087
:102ED0008E010E5F1F4FC8010E941524B801CE015C
:102EE00046960E94F5158823B1F06AE676E086E8FA
:102EF00092E00E9497284A815B816C817D812AE063
:102F000030E086E892E00E94592960E776E086E8A2
:102F100092E00E94D5284FEF5FEFBA014A835B83AE
:102F20006C837D83DF91CF911F910F9108950F9353
:102F30001F93CF93DF9300D000D0CDB7DEB78C01C5
:102F400067E673E086E892E00E949728D801ED9149
:102F5000FC910480F581E02DC801099562E773E0DA
:102F600086E892E00E94D5280E942D2669837A8304
:102F70008B839C83BE016F5F7F4FC8010E94F51554
:102F8000882319F065E873E002C069E873E086E819
:102F900092E00E9497286EE773E086E892E00E9434
:102FA0009728D801ED91FC910480F581E02DC801AE
:102FB000099549815A816B817C812AE030E086E85D
:102FC00092E00E9466290F900F900F900F90DF9172
:102FD000CF911F910F9108959F92AF92BF92CF9280
:102FE000DF92EF92FF920F931F93CF93DF9300D066
:102FF00000D000D0CDB7DEB78C0166EC74E086E877
:1030000092E00E949728D801ED91FC910480F5810F
:10301000E02DC801099561ED74E086E892E00E9418
:10302000D5280E942D2669837A838B839C831E82F8
:10303000AE014A5F5F4FBE016F5F7F4FC8010E94C4
:10304000E414882309F475C0BE80F801A680BA1480
:1030500038F066E075E086E892E00E94D52881C0ED
:10306000AA94AB18EB2CE394F7E0EF9E70011124C7
:1030700027E0B29E6001112480E090E0912C1DC0F9
:1030800012962D913C911397DC01AE0DBF1DA20F3E
:10309000B31FFC01EC0DFD1DE20FF31F12964D91C5
:1030A0005D916D917C911597428353836483758301
:1030B00016962C91268393940796D8019A10E0CF08
:1030C000B1100EC01296ED91FC911397428153817D
:1030D00064817581F80147835087618772871FC0BB
:1030E00016964C9116972B2D30E0842F90E0019787
:1030F00028173907A1F412968D919C911397B7E088
:103100004B9F800D911D1124FC013E9742815381FC
:1031100064817581F8014387548765877687D80174
:1031200016968C911697815016968C9369EE74E0E2
:103130001AC089819A812B813C811D823F932F93F4
:103140009F938F9385EF94E09F938F93CE01059685
:103150009F938F930E94410B0FB6F894DEBF0FBE72
:10316000CDBF6DEE74E086E892E00E94972860EE95
:1031700074E086E892E00E949728D801ED91FC91D6
:103180000480F581E02DC801099549815A816B8140
:103190007C812AE030E086E892E00E94662926964B
:1031A0000FB6F894DEBF0FBECDBFDF91CF911F9158
:1031B0000F91FF90EF90DF90CF90BF90AF909F90D6
:1031C0000895EF92FF920F931F93CF93DF931F9277
:1031D000CDB7DEB78C0186E892E00E94B8267C016C
:1031E0009C0133272436310509F4DAC024F52E3446
:1031F000310509F4C6C06CF42434310509F4F9C072
:103200002C34310509F465C12D30310509F066C152
:1032100076C12335310509F4BEC02CF422353105C1
:1032200009F05CC10DC12136310571F1223631053D
:1032300009F054C19BC02037310591F194F42C362C
:10324000310509F402C12CF42B36310509F046C1D1
:1032500081C02D363105F9F02E36310509F03EC119
:103260008BC02337310509F491C02CF42237310586
:1032700009F034C1E0C02537310509F470C02637A4
:10328000310509F02BC135C081E0D80111968C932E
:1032900062EE71E030C1F801118263EF71E02BC181
:1032A000D80111968C91882319F065E072E023C152
:1032B0006FE272E086E892E00E94D5280E942D26F7
:1032C000F80162837383848395836DE372E086E8FB
:1032D00092E00E949728D80112964D915D916D91D0
:1032E0007C9115972AE030E086E892E00E946629FA
:1032F00006C163E572E086E892E00E94D52810E0FE
:103300001983CE0101960E94110B62EF72E086E8EC
:1033100092E00E9497281F5F143091F71983CE0125
:1033200001960E94110B65EF72E086E892E00E9420
:10333000D5280E942D266093060168E672E086E893
:1033400092E00E94972886E091E00E94110B6EE7C0
:1033500072E0D1C0F80116826FE772E0CCC081E064
:10336000D80116968C936BEA72E0C5C082E0F80132
:10337000868367EC72E0BFC0C80107960E948F1475
:10338000BEC0C80146960E949717B9C0C8010796EB
:103390000E949411B4C0C80146960E94220FAFC08B
:1033A0007801F7E0EF0EF11CD8011C961C921C97D7
:1033B0001D961C921D97F801128A138A148A158A89
:1033C0001E961D921D921D921C9251976EE474E000
:1033D00086E892E00E949728D8011796ED91FC911B
:1033E00018970480F581E02DC70109956EE574E01A
:1033F00082C07801B6E1EB0EF11CF801138E148E39
:1034000011A212A213A214A2158E168E178E10A24C
:1034100060E674E086E892E00E949728D80156960C
:10342000ED91FC9157970480F581E02DC701099536
:1034300060E774E060C0C80107960E9442125FC056
:10344000C80146960E94EC175AC07801B7E0EB0E0F
:10345000F11C6AE175E086E892E00E94D5286EE1F1
:1034600075E086E892E00E949728D8011796ED91C2
:10347000FC9118970480F581E02DC701099560E261
:1034800075E086E892E00E94D52810E01BC0F701A5
:1034900082819381FEE11F9F800D911D11240E9466
:1034A000180C212F30E0D70116968C9190E00197EF
:1034B0002817390734F465E275E086E892E00E9447
:1034C000D5281F5FF7018681181708F367E275E0BA
:1034D00012C0C80146960E94CF0F11C065ED72E080
:1034E00086E892E00E9497286E2D86E892E00E947E
:1034F000B82860EF72E086E892E00E94D5280F902D
:10350000DF91CF911F910F91FF90EF9008956F92EF
:103510007F928F929F92AF92BF92CF92DF92EF9263
:10352000FF920F931F93CF93DF931F92CDB7DEB718
:103530004C013B015A01FA01808191812281338142
:1035400019823F932F939F938F9380E596E09F93EB
:103550008F938E010F5F1F4F1F930F930E94410B9C
:103560000FB6F894DEBF0FBECDBFF301808181306E
:1035700009F03FC01982A801B501C40107960E9455
:103580001710811155C035C01982AE014F5F5F4FD2
:10359000B501C40146960E94E41481112FC03DC0BC
:1035A000F401028313832483358332C0F401C28083
:1035B000D380E480F580C016D106E206F30609F454
:1035C00027C062E676E086E892E00E949728F5013F
:1035D00040815181628173812AE030E086E892E087
:1035E0000E94592968E676E086E892E00E94D52894
:1035F0001FC0F3018081811110C0C6CFF501408149
:10360000518162817381F4014283538364837583A2
:10361000B301C4010E9455170BC0F4018181F5016B
:103620000081118122813381882309F4BFCFB8CF73
:103630000F90DF91CF911F910F91FF90EF90DF904E
:10364000CF90BF90AF909F908F907F906F90089594
:103650002F923F924F925F926F927F928F929F92A2
:10366000AF92BF92CF92DF92EF92FF920F931F9390
:10367000CF93DF93CDB7DEB72E970FB6F894DEBFAA
:103680000FBECDBF3C017B876A87412C512C312C6A
:103690004E0125E0820E911C46969E878D87D301B0
:1036A0001796B987A887B5E2B49D5001B59DB00CB7
:1036B0001124EDE8F1E0AE0EBF1E8501C5010E94A8
:1036C000F71E882309F4E0C0C5010E946520DC01D3
:1036D0008C918F83C5010E947B21882309F4AAC0A5
:1036E000C5010E948C21FC0100811181228133815E
:1036F00009831A832B833C8381E0AA85BB85CD9007
:10370000DD90ED90FC900C151D052E053F0509F090
:1037100080E0382AC5010E94D720882391F0D50186
:10372000ED91FC910480F581E02DC5010995AE0174
:103730004F5F5F4FBE01695F7F4FC3010E94871AD1
:10374000ABC01F81112309F44AC0113009F094C0A5
:10375000AE014A5F5F4FBE016F5F7F4F88859985DD
:103760000E941710882369F1C5010E94CF1FF30141
:10377000218532852115310561F08E819585891766
:1037800040F4FEE18F9F200D311D1124222E3C8735
:103790000EC022E02D832FE236E03F932F939F92BD
:1037A0008F920E94410B0F900F900F900F90B501D8
:1037B000822D9C850E94810C888599850E941E0E11
:1037C0005BC089819A812B813C811D833F932F931C
:1037D0009F938F938CEC95E09F938F9319C01D82DC
:1037E000A401BE016F5F7F4F8D859E850E94E4140A
:1037F00081111CC089819A812B813C81B1E0BD83FC
:103800003F932F939F938F93E2EFF5E0FF93EF9316
:103810009F928F920E94410B0FB6F894DEBF0FBEAD
:10382000CDBFD30116968C91882331F1C5010E943A
:10383000CF1F22C08F81813019F426E531E002C00C
:1038400029E531E0B1E0BD833F932F93E9E1F6E054
:10385000FF93EF939F928F920E94410B0F900F90D6
:103860000F900F900F900F90D30116968C9182308D
:1038700019F4C8010E94CE1ED501ED91FC9104807F
:10388000F581E02DC5010995BFEF4B1A5B0AE5E014
:103890004E16510409F007CF832D2E960FB6F894DB
:1038A000DEBF0FBECDBFDF91CF911F910F91FF9073
:1038B000EF90DF90CF90BF90AF909F908F907F90D0
:1038C0006F905F904F903F902F9008958F929F92AE
:1038D000AF92BF92CF92DF92EF92FF92CF93DF939E
:1038E00000D000D01F92CDB7DEB76C017B015A012A
:1038F0000E949F2AF50180809180A280B380680D8C
:10390000791D8A1D9B1D69837A838B839C83F701B4
:1039100080819181228133811D823F932F939F93D8
:103920008F93BF92AF929F928F9222EB35E03F939D
:103930002F939E012B5F3F4F3F932F930E94410B8C
:103940000FB6F894DEBF0FBECDBF06C0B701C601EB
:103950000E94281B811107C0CE0101960E945126AA
:103960008111F4CF01C081E00F900F900F900F9064
:103970000F90DF91CF91FF90EF90DF90CF90BF90AD
:10398000AF909F908F900895EF92FF920F931F93A7
:10399000CF93DF9300D000D000D0CDB7DEB78C013D
:1039A000DC011C962C911C9719968D919C911A976D
:1039B000BEE12B9F800D911D11240E94610DFC0121
:1039C0004081518162817381F80184850184F2858F
:1039D000E02D2EE1829FE00DF11D11248281938163
:1039E000248135811D827F936F935F934F933F9323
:1039F0002F939F938F9386E795E09F938F937E01FC
:103A000035E0E30EF11CFF92EF920E94410B48EE6D
:103A100053E060E070E049835A836B837C83D80174
:103A20001C968C911C9719966D917C911A97BEE10A
:103A30008B9F600D711D11246E5F7F4FAE014F5F34
:103A40005F4FC8010E94661C1D821F928F9328E958
:103A500035E03F932F93FF92EF928E830E94410BAC
:103A60000FB6F894DEBF0FBECDBF8E81811113C09B
:103A7000D8011C962C911C9719968D919C911A97A0
:103A8000BEE12B9F800D911D11240E94D70DC8010E
:103A900007960E941E0E26960FB6F894DEBF0FBE44
:103AA000CDBFDF91CF911F910F91FF90EF900895BF
:103AB0000F931F93CF93DF9300D000D01F92CDB709
:103AC000DEB78C01DC015C968C915C97882309F44D
:103AD000BEC05B968C915B97811111C095968C91BD
:103AE000882309F45BC00BC00E949F2A6059784E5E
:103AF0008F4F9F4FF80166A377A380A791A7D801A6
:103B00005B962C915B9758968D919C915997B7E055
:103B10002B9F800D911D112402960E9463244AE57B
:103B200050E060E070E049835A836B837C83F80146
:103B3000838D608D718DF7E08F9F600D711D112455
:103B40006E5F7F4FAE014F5F5F4FC8010E94661CE2
:103B5000D8015B969C915B975896ED91FC91599793
:103B6000882371F0B7E09B9FE00DF11D112481E0E7
:103B70008683C80146960E94A40EF80115A267C06C
:103B8000D80195968C91853050F5B7E09B9FE00D5C
:103B9000F11D11249681911108C021C0C80186969B
:103BA0000E945126811153C09FCF9281238134817D
:103BB00045811D821F928F934F933F932F939F9325
:103BC0008EE395E09F938F93CE0105969F938F93FD
:103BD0000E94410BF80185A18F5F85A333C0D801F6
:103BE0005B968C915B975896ED91FC915997B7E055
:103BF0008B9FE00DF11D11241682C80146960E948C
:103C0000A40EF801838D008CF18DE02D27E0829FBA
:103C1000E00DF11D1124828193812481358141E0E1
:103C20004D833F932F939F938F938AE595E09F93C6
:103C30008F93CE0105969F938F930E94410BD801DD
:103C400095961C920FB6F894DEBF0FBECDBF0F90B5
:103C50000F900F900F900F90DF91CF911F910F91C8
:103C600008950F931F93CF93DF9300D000D0CDB76B
:103C7000DEB78C01FC018585811104C0C8010E945A
:103C8000581D12C0F801248581859285FEE12F9F81
:103C9000800D911D11240E94610D0E9451268111F9
:103CA000EDCFC8010E94C41C19821A821B821C829B
:103CB000BE016F5F7F4FC8010E94281B86E892E01B
:103CC0000E948926892B19F0C8010E94E1180F90E3
:103CD0000F900F900F90DF91CF911F910F9108954A
:103CE00021E631E0FC01318320830895FC01138239
:103CF0000895FC011382128E089521E631E0FC0143
:103D000031832083089521E631E0FC013183208353
:103D10000C94192521E631E0FC01318320830C94B9
:103D20001925FC0181E691E09183808381E1828302
:103D300013820895FC0193818281981750F4838146
:103D4000DB019C91DF01A80FB11D14969C938F5F3E
:103D500083830895CF92DF92EF92FF920F931F9388
:103D6000CF93DF937C016B018A01C0E0D0E007C0F4
:103D7000B6016C0F7D1FC7010E949A1E2196F801A3
:103D8000808190E0C817D9079CF3DF91CF911F91F4
:103D90000F91FF90EF90DF90CF9008950F931F93B6
:103DA000CF93DF938C01C0E0D0E011C0F801EC0F9D
:103DB000FD1F648140E150E086E892E00E94802986
:103DC00063E776E086E892E00E9497282196F80162
:103DD000828190E0C817D9074CF365E776E086E862
:103DE00092E0DF91CF911F910F910C94D528FC01A7
:103DF0002381928181E0291708F480E00895282F1B
:103E0000FB013081E82FF92F80E002C09191890FEA
:103E10009E2F921B9317D0F30895FC01938182810A
:103E2000981748F49381DF01A90FB11D14968C9166
:103E30009F5F9383089580E008959F92AF92BF9211
:103E4000CF92DF92EF92FF920F931F93CF93DF9366
:103E5000CDB7DEB728970FB6F894DEBF0FBECDBF43
:103E60008C016B017A01B22E85E589838DE28A830C
:103E700084ED8B8380E48C831D8283E0888782E0DD
:103E80008F83902EA12ED801ED91FC910480F581B5
:103E9000E02DC8010995AE01485F5F4FBE016F5F1D
:103EA0007F4FC8010E94AA1EA701B601C8010E9447
:103EB000AA1EBB2059F0B701C6010E94FF1E8E83C7
:103EC000BE016A5F7F4FC8010E949A1EAE01495F22
:103ED0005F4FBE016C5F7F4F892D9A2D0E94AA1EF5
:103EE000F70180818B5F8B0DD80112968C9312970E
:103EF00013961C9228960FB6F894DEBF0FBECDBF66
:103F0000DF91CF911F910F91FF90EF90DF90CF90B5
:103F1000BF90AF909F900895FC0181E1828313824E
:103F20008BE691E09183808381E0858B168A178AE6
:103F3000108E118E128E4FEF5FEFBA0141A352A384
:103F400063A374A308950F931F93CF93DF93EC01A2
:103F50008B019B818A819817E8F48B81811111C0B4
:103F60000E949F2A6E8B7F8B888F998FF8018081AA
:103F7000823519F41D8A8CE003C081E08D8B80E1CD
:103F80008A838B81F8019081FE01E80FF11D9483F3
:103F90008F5F8B83DF91CF911F910F910895FF92D7
:103FA0000F931F93CF93DF93EC0166E776E086E8EB
:103FB00092E00E94972849A15AA16BA17CA12AE016
:103FC00030E086E892E00E9459296EE776E086E8C4
:103FD00092E00E9497284E895F89688D798D2AE04A
:103FE00030E086E892E00E9459298E01F12CF80118
:103FF000838D948D0196E1F066E876E086E892E0A4
:104000000E9497284AE050E06F2D86E892E00E94D7
:1040100080296BE876E086E892E00E949728F80114
:10402000638D748D4AE050E086E892E00E947A2920
:10403000F3940E5F1F4FF3E0FF12D9CF8D898111EA
:1040400012C06FE876E086E892E00E9497288E859D
:10405000833519F46BE976E002C06DE976E086E815
:1040600092E00E9497286FE976E086E892E0DF917F
:10407000CF911F910F91FF900C94D5280F931F9310
:10408000CF93DF931F92CDB7DEB78C01DC01129680
:104090008C9181508983BE016F5F7F4FC801049668
:1040A0000E94FF1ED8011296EC91F0E03197E00FCC
:1040B000F11F9481891302C081E001C082E00F905A
:1040C000DF91CF911F910F9108959C012B5E3F4F7F
:1040D000C9010895CF93DF93FC018FEF9FEF948F79
:1040E000838F968F858F90A3878F8589882319F179
:1040F000813041F582E090E0DF01A80FB91F1496EE
:104100004C91149747FF12C014965C911497EC01E0
:104110002196CE0FDF1F4C81352F3F7720E0B9016C
:10412000642BAB015A965C934E9359970296883054
:10413000910511F707C035852485932F80E0822BE8
:10414000948F838FDF91CF9108950F931F93FC017C
:1041500011A212A213A214A28589882369F08130CA
:1041600019F594818581592F5F7040E0662757FDCE
:104170006095762F482B14C02581468187819085D4
:1041800050E060E070E0BA0155274427722B492BBC
:10419000182F00E020E030E0402B512B622B732BD6
:1041A00041A352A363A374A31F910F910895FC012F
:1041B0008589813029F48481881F8827881F089584
:1041C0008285833421F4938581E09F3409F080E077
:1041D00008958F929F92AF92BF92CF92DF92EF920B
:1041E000FF920F931F93CF93DF93FC019924939435
:1041F000B12C60EC70E0C0E8D0E000E410E044C016
:1042000080E090E0A12CEB2CF12CDC01AE0DBF1D69
:10421000AE0FBF1F14968C9020E030E0AB01022E51
:1042200002C0559547950A94E2F7482150E06E0187
:10423000022E02C0D594C7940A94E2F74C155D058E
:1042400059F06801022E02C0D594C7940A94E2F78F
:104250004C155D0519F403C041E002C0912C40E00B
:10426000AA0CA42A2E5F3F4F28303105B9F60196DB
:104270008230910551F68B2D8695DF01A80FB11D77
:104280001496AC92B394B3948281B81608F4B8CF64
:10429000828186958283992011F081E001C082E0BD
:1042A000DF91CF911F910F91FF90EF90DF90CF9012
:1042B000BF90AF909F908F900895CF93DF93EC01C4
:1042C0008D89882331F0813041F4CE010E94E920AC
:1042D00003C0CE010E943E208A8F8A8D813041F436
:1042E000CE010E946A20CE01DF91CF910C94A520CF
:1042F000DF91CF910895CF93DF93EC018A8D8111E7
:1043000003C0CE010E945D2181E09A8D913009F0B9
:1043100080E0DF91CF9108959C012F5D3F4FC9014F
:1043200008959C012A5E3F4FC90108950F931F9382
:10433000CF93DF93EC0119928C0106541F4FCE01ED
:104340000E948C1FA596C017D107C9F7DF91CF91A6
:104350001F910F910895FF920F931F93CF93DF93B7
:104360001F92CDB7DEB78C01FC01808145E2F42EAF
:104370009801F89E200D311D1124C90101960E945B
:10438000A31FF8018081F89EE00DF11D11243196E4
:10439000938182819817B8F080E090E025E2289F11
:1043A000F001299FF00D11243196E00FF11F438198
:1043B0003281431718F4F801808317C001968530C5
:1043C000910569F702C080E011C083E0898381EA2A
:1043D00096E09F938F93CE0101969F938F930E94B7
:1043E000410B0F900F900F900F9081E00F90DF9195
:1043F000CF911F910F91FF90089525E731E0FC01C7
:10440000318320830C94701ECF93DF93EC010E94C4
:10441000FD21CE01DF91CF910C9419251F93CF93ED
:10442000DF9300D01F92CDB7DEB711E01B8389E385
:1044300092E89A838983BE016D5F7F4FCE0101961A
:104440000E949B2510935B020F900F900F90DF91BD
:10445000CF911F9108951F93CF93DF9300D01F92A8
:10446000CDB7DEB711E01B8381E89AEC9A8389838C
:10447000BE016D5F7F4FCE0101960E949B251B837D
:1044800083E89AEC9A838983BE016D5F7F4FCE01EA
:1044900001960E949B250F900F900F90DF91CF9176
:1044A0001F910895CF93DF9300D01F92CDB7DEB751
:1044B00081E08B8389ED92E89A838983BE016D5FE9
:1044C0007F4FCE0101960E949B2510925B020E94B5
:1044D0002B220F900F900F90DF91CF910895CF93E3
:1044E000DF9300D01F92CDB7DEB786E492E00E9442
:1044F0000D1F91E09B8390E0986B9A838983BE01A6
:104500006D5F7F4FCE0101960E949B2586E492E06D
:104510000E94F71E81110E9452220F900F900F905F
:10452000DF91CF9108951F93CF93DF9300D0CDB744
:10453000DEB781E00E945B251982CE0101960E94C0
:104540009325182F1982CE0101960E949325809100
:104550005B02811139C015FF1DC01A82CE0102967F
:104560000E9493258983BE016F5F7F4F8CE891E0A5
:104570000E94AB21182F1A82CE0102960E94932529
:104580008983BE016F5F7F4F8CE891E00E94AB2171
:10459000182B12C017FF0FC01A82CE0102960E947C
:1045A00093258983BE016F5F7F4F8CE891E00E9465
:1045B000AB21182F01C010E080E00E945B25112381
:1045C00049F00E942B2206C017FD0E946F2280E056
:1045D0000E945B250F900F90DF91CF911F9108955E
:1045E0001F93CF93DF9300D000D0CDB7DEB70E94EA
:1045F000612511E01C831A821982BE016C5F7F4F16
:10460000CE0101960E949B2560ED77E080E090E06E
:104610000E94DB2A1C8388ED90E89A838983BE017F
:104620006C5F7F4FCE0101960E949B251C8381E029
:1046300092E89A838983BE016C5F7F4FCE01019619
:104640000E949B251C838CE296EA9A838983BE0193
:104650006C5F7F4FCE0101960E949B251C8387E5EE
:1046600096EC9A838983BE016C5F7F4FCE010196E1
:104670000E949B251C8380EC94E99A838983BE0168
:104680006C5F7F4FCE0101960E949B251C838AE2BE
:1046900092EC9A838983BE016C5F7F4FCE010196B5
:1046A0000E949B251C8381E89AEC9A838983BE0132
:1046B0006C5F7F4FCE0101960E949B251C8384ED89
:1046C0009EEC9A838983BE016C5F7F4FCE01019679
:1046D0000E949B251C8387EB94EC9A838983BE01FF
:1046E0006C5F7F4FCE0101960E949B251C8380E268
:1046F00098E99A838983BE016C5F7F4FCE01019652
:104700000E949B251C8386E69CEC9A838983BE01CC
:104710006C5F7F4FCE0101960E949B251C8380E039
:1047200090EE9A838983BE016C5F7F4FCE01019624
:104730000E949B251C8380E098EC9A838983BE01AC
:104740006C5F7F4FCE0101960E949B251C8380E009
:1047500090EC9A838983BE016C5F7F4FCE010196F6
:104760000E949B251B8382EB96E09F938F93CE0143
:1047700003969F938F930E94410B64EF71E080E05A
:1047800090E00E94DB2A40E050E063E972E280E0C2
:104790000E94DB290F900F900F900F900F900F90B9
:1047A0000F900F90DF91CF911F910895CF93DF93DA
:1047B000CDB7DEB72C970FB6F894DEBF0FBECDBFD6
:1047C0002BE0E7E0F1E0DE01119601900D922A95D1
:1047D000E1F7DA012C9111963C9111971296EC9128
:1047E000129713964C914A83EB833C832D83FC01F3
:1047F00080818F83DB018C9188878BE08C8721E01F
:10480000AE01445F5F4FBE016F5F7F4F86E492E071
:104810000E941D1F0E940E222C960FB6F894DEBF38
:104820000FBECDBFDF91CF910895CF92DF92EF926F
:10483000FF920F931F93CF93DF9300D0CDB7DEB7D6
:104840008C01FC01808191812281338141E0498387
:104850003F932F939F938F9389ED96E09F938F9330
:10486000EE24E394F12CEC0EFD1EFF92EF920E94D9
:10487000410B9BE4C92EC98221E4D22EDA82A80121
:10488000B701CE0102960E94D62362E370E080E079
:1048900090E00E94DB2AC982DA82A801B701CE012A
:1048A00002960E94D6230FB6F894DEBF0FBECDBF8E
:1048B0000F900F90DF91CF911F910F91FF90EF908C
:1048C000DF90CF900895EF92FF920F931F93CF93B5
:1048D000DF9300D0CDB7DEB78C01FC0180819181E0
:1048E0002281338141E049833F932F939F938F939C
:1048F00086EC96E09F938F93EE24E394F12CEC0EDC
:10490000FD1EFF92EF920E94410B83E5898380E5B3
:104910008A83A801B701CE0102960E94D6230FB662
:10492000F894DEBF0FBECDBF0F900F90DF91CF91F7
:104930001F910F91FF90EF9008950F931F93CF93C6
:10494000DF938C010F5F1F4F79F0EC01C654DF4FEE
:10495000C017D10749F0A597E881F9810190F0814E
:10496000E02DCE010995F4CFDF91CF911F910F91EA
:10497000089586E492E00E94911E85E791E090936D
:104980004702809346028CE891E00C9496218CE8D3
:1049900091E00E949D2486E492E00C94FD21FC01AC
:1049A000128680E797E19487838721E025879183AA
:1049B000808393838283958384839783868391877F
:1049C00080870895FC012285DB018D919C91DF0198
:1049D00032E0239FA00DB11D11248D939C93822F53
:1049E0008F5F853011F0828701C012861586089589
:1049F000FC01858581111AC08081918122813381DA
:104A0000820F931F24813581820F931F2681378166
:104A1000820F931F20853185820F931F65E070E020
:104A20000E94D52B7487638781E085873B96CF01F1
:104A300008950C94FE2C0C94632C0C94FE2C089579
:104A400040E052EC61E070E086E892E00E948F273F
:104A500068EE76E086E892E00E94D5288CE592E048
:104A60000E941E0F69EF76E086E892E00C94D5284C
:104A70008CE592E00C94311E0E94012B0E942025AF
:104A80000E943825FDCF8CE592E00C94EB0E8CE370
:104A900091E0909373028093720282E792E00E9409
:104AA0008B0A82E391E0909364028093630283E631
:104AB00092E00C943A0A882311F02A9808952A9AD1
:104AC000089580E00E945B25229A61E08AE00E94BE
:104AD0009E2B61E08DE00E94662B61E08BE00E94DE
:104AE000662B61E08AE00E94662B60E08CE00E9409
:104AF000662B80E58CBD60E082E00E94662B61E061
:104B000082E00E949E2B8DB581608DBD8CB58D7F1E
:104B10008CBD8CB581608CBD8CB5877F8CBD8CB510
:104B20008B7F8CBD0895FC0180818EBD0DB407FE86
:104B3000FDCF8EB50895CF92DF92EF92FF920F9343
:104B40001F93CF93DF931F92CDB7DEB77C016B012C
:104B5000FB01808181112A98F70181818983CE012F
:104B600001960E949325182F00E0F7018081898328
:104B7000CE0101960E949325082BF601808188239F
:104B800019F080E00E945B25C8010F90DF91CF9162
:104B90001F910F91FF90EF90DF90CF900895DF92DB
:104BA000EF92FF920F931F93CF93DF93EC017B0162
:104BB0001882D12C86E892E00E948926892B89F1FF
:104BC00086E892E00E94B8268F37A1F4DD2049F1F3
:104BD000DA9468E086E892E00E94EC2667E077E0ED
:104BE00086E892E00E94972868E086E892E00E94BA
:104BF000EC2617C0FE01ED0DF11D8083D3940D2D21
:104C000010E0FE01E00FF11F3197608186E892E02D
:104C10000E94B828F701808190E0019708171907D2
:104C200039F0FE01ED0DF11D319780818D3011F6C7
:104C300069E077E086E892E00E94D52886E892E075
:104C40000E94DA26CD0DD11D1882DF91CF911F91E0
:104C50000F91FF90EF90DF900895CF93DF93CDB742
:104C6000DEB760970FB6F894DEBF0FBECDBF8FE002
:104C7000888BBE01605F7F4FCE0101960E94CF25D9
:104C800040E050E060E070E0CE0101960E949A2D75
:104C900060960FB6F894DEBF0FBECDBFDF91CF9107
:104CA0000895CF92DF92EF92FF920F931F93CF93CD
:104CB000DF93EC010E949F2A088119812A813B81A0
:104CC0006017710782079307C8F00E949F2A6056F9
:104CD00079478E4F9F4FC880D980EA80FB8020EAB9
:104CE000C20E26E8D21E21E0E21EF11C21E06C1566
:104CF0007D058E059F0518F020E001C021E0822F80
:104D0000DF91CF911F910F91FF90EF90DF90CF90A7
:104D10000895FC0184859585FC01E05CFF4F2081AE
:104D20003181FC01EE5BFF4F80819181281B390BA3
:104D30002F733327C9010895FC0184859585FC01F3
:104D4000E05CFF4F40815181FC01EE5BFF4F208111
:104D500031814217530741F00190F081E02DE80FB7
:104D6000F91F208130E002C02FEF3FEFC901089505
:104D7000FC0184859585FC01E05CFF4F40815181F9
:104D8000FC01EE5BFF4F208131814217530771F028
:104D9000A081B181A80FB91F2C91808191810196CA
:104DA0008F7399279183808330E002C02FEF3FEF0C
:104DB000C9010895FC0186859785FC01E05CFF4FE1
:104DC000DC01AE5BBF4F408151812D913C91119729
:104DD00042175307C1F70895CF93DF93FC0126854F
:104DE0003785D901A05CBF4F8D919C911197019699
:104DF0008F739927E901CE5BDF4F48815981841772
:104E00009507D9F30D90BC91A02DA20FB31F6C9301
:104E1000A685B785A05CBF4F11969C938E93A689FB
:104E2000B7892C9181E090E0058C02C0880F991F12
:104E30000A94E2F7282B2C9381E090E0DF91CF9148
:104E400008951F920F920FB60F9211242F933F9344
:104E50004F938F939F93EF93FF934091C600809160
:104E6000290390912A0301968F73992720912B0390
:104E700030912C038217930759F0E0912903F091A8
:104E80002A03E751FD4F408390932A03809329031F
:104E9000FF91EF919F918F914F913F912F910F90A3
:104EA0000FBE0F901F9018951F920F920FB60F9282
:104EB00011242F933F938F939F93EF93FF93209110
:104EC000E5023091E6028091E7029091E80228170E
:104ED000390731F48091C1008F7D8093C10014C0E7
:104EE000E091E702F091E802EB55FD4F20818091BF
:104EF000E7029091E80201968F7399279093E80258
:104F00008093E7022093C600FF91EF919F918F91CC
:104F10003F912F910F900FBE0F901F901895CF9239
:104F2000DF92EF92FF92CF93DF93EC016A017B0156
:104F3000411581EE580761057105F9F0EC89FD898D
:104F400081E090E00E8C02C0880F991F0A94E2F76E
:104F5000808360E079E08DE390E0A70196010E94F4
:104F6000E92B21503109410951095695479537954B
:104F70002795211580E1380798F0EC89FD8910828A
:104F800060E874E88EE190E0A70196010E94E92BA9
:104F90002150310941095109569547953795279573
:104FA000E889F9893083EA89FB892083EE89FF89C2
:104FB000408181E090E09C010A8C02C0220F331FE7
:104FC0000A94E2F7422B4083EE89FF8940819C01DD
:104FD0000B8C02C0220F331F0A94E2F7422B40834E
:104FE000EE89FF8940819C010C8C02C0220F331F87
:104FF0000A94E2F7422B4083EE89FF8920810D8CD1
:1050000002C0880F991F0A94E2F78095822380835B
:10501000DF91CF91FF90EF90DF90CF9008951092A5
:1050200089021092880288EE93E0A0E0B0E08093BD
:105030008A0290938B02A0938C02B0938D028FE72B
:1050400091E0909387028093860289EE92E090939C
:1050500093028093920285EA92E090939502809366
:10506000940285EC90E0909397028093960284ECF2
:1050700090E0909399028093980280EC90E0909356
:105080009B0280939A0281EC90E090939D02809322
:105090009C0286EC90E090939F0280939E0284E0B5
:1050A0008093A00283E08093A10287E08093A20214
:1050B00085E08093A30281E08093A4020895CF92BB
:1050C000DF92EF92FF920F931F93CF93DF936C01C8
:1050D000EB017A01E60EF71E00E010E00BC06991CB
:1050E000D601ED91FC910190F081E02DC60109956A
:1050F000080F191FCE15DF0591F7C801DF91CF9179
:105100001F910F91FF90EF90DF90CF900895DB01FA
:105110000D900020E9F7AD0141505109461B570B96
:10512000DC01ED91FC910280F381E02D0994EF9276
:10513000FF920F931F93CF93DF937C01EB0100E06D
:1051400010E0FE0121966491662351F0F701A081E1
:10515000B181ED91FC91C7010995080F191FF1CF9D
:10516000C801DF91CF911F910F91FF90EF900895AB
:10517000DC01ED91FC910190F081E02D09940F93F9
:105180001F93CF93DF93EC016DE00E94B8288C0150
:105190006AE0CE010E94B8289C01200F311FC9018E
:1051A000DF91CF911F910F9108950F931F93CF938C
:1051B000DF93EC010E9497288C01CE010E94BF284A
:1051C0009C01200F311FC901DF91CF911F910F91D9
:1051D00008950F931F93CF93DF93EC010E948728CC
:1051E0008C01CE010E94BF289801280F391FC901E8
:1051F000DF91CF911F910F9108955F926F927F92EF
:105200008F929F92AF92BF92CF92DF92EF92FF92D6
:105210000F931F93CF93DF93CDB7DEB7A1970FB650
:10522000F894DEBF0FBECDBF3C016A017B01522E58
:1052300019A281E0821710F08AE0582E8E010F5DCE
:105240001F4F852C912CA12CB12CC701B601A501B3
:1052500094010E94E92B8C2D529E8019112401503B
:1052600011098A3010F4805D01C0895CF8018083E7
:1052700069017A01C114D104E104F10431F7B801E4
:10528000C3010E948728A1960FB6F894DEBF0FBE17
:10529000CDBFDF91CF911F910F91FF90EF90DF90E5
:1052A000CF90BF90AF909F908F907F906F905F90C6
:1052B00008952115310541F4DC01ED91FC91019037
:1052C000F081E02D642F09940C94FD280F931F9317
:1052D000CF93DF93EC010E9459298C01CE010E94EB
:1052E000BF289C01200F311FC901DF91CF911F9171
:1052F0000F9108959A01AB0160E070E00C94592978
:105300009A01462F50E060E070E00C945929CF924A
:10531000DF92EF92FF920F931F93CF93DF93EC01F5
:105320006A017B012115310579F4E881F981019049
:10533000F081E02D642FDF91CF911F910F91FF90AD
:10534000EF90DF90CF9009942A30310519F477FD62
:105350000EC02AE0B701A601CE01DF91CF911F91C7
:105360000F91FF90EF90DF90CF900C94FD286DE2AD
:105370000E94B8288C0144275527BA014C195D09B1
:105380006E097F092AE0CE010E94FD289C01200FB2
:10539000311FC901DF91CF911F910F91FF90EF90C5
:1053A000DF90CF9008959A01AB01662757FD609575
:1053B000762F0C9487298230E8F4E82FF0E0EE0F86
:1053C000FF1FE35DFC4F71836083813041F080916A
:1053D00069008C7F842B80936900E89A08958091FE
:1053E0006900440F551F440F551F837F842B809302
:1053F0006900E99A08951F920F920FB60F92112437
:105400002F933F934F935F936F937F938F939F93CC
:10541000AF93BF93EF93FF9380912D0390912E0351
:10542000892B29F0E0912D03F0912E030995FF912E
:10543000EF91BF91AF919F918F917F916F915F910C
:105440004F913F912F910F900FBE0F901F90189585
:105450001F920F920FB60F9211242F933F934F93E9
:105460005F936F937F938F939F93AF93BF93EF93CC
:10547000FF9380912F0390913003892B29F0E091C5
:105480002F03F09130030995FF91EF91BF91AF91F8
:105490009F918F917F916F915F914F913F912F914C
:1054A0000F900FBE0F901F9018951F920F920FB67E
:1054B0000F9211242F933F938F939F93AF93BF939A
:1054C0008091310390913203A0913303B091340362
:1054D00030913903232F2D5F2D3720F40196A11D24
:1054E000B11D05C0232F2A570296A11DB11D20937F
:1054F00039038093310390933203A0933303B09325
:1055000034038091350390913603A0913703B09115
:1055100038030196A11DB11D809335039093360386
:10552000A0933703B0933803BF91AF919F918F91B0
:105530003F912F910F900FBE0F901F9018950F93D2
:105540001F938FB7F894009131031091320320918B
:105550003303309134038FBFB801C9011F910F91FC
:1055600008950F931F939FB7F894009135031091FE
:105570003603209137033091380386B5A89B06C0C7
:105580008F3F21F00F5F1F4F2F4F3F4F9FBF322F95
:10559000212F102F0027080F111D211D311D42E062
:1055A000000F111F221F331F4A95D1F7B801C901FF
:1055B0001F910F910895CF92DF92EF92FF92CF93B8
:1055C000DF936B017C010E94B12AEB010EC00E94A7
:1055D000B12A6C1B7D0B683E734038F081E0C81A1D
:1055E000D108E108F108C851DC4FC114D104E1042D
:1055F000F10469F7DF91CF91FF90EF90DF90CF90AA
:105600000895789484B5826084BD84B5816084BD3A
:1056100085B5826085BD85B5816085BDEEE6F0E02B
:10562000808181608083E1E8F0E010828081826087
:105630008083808181608083E0E8F0E08081816008
:105640008083E1EBF0E0808184608083E0EBF0E038
:10565000808181608083EAE7F0E0808184608083DC
:105660008081826080838081816080838081806886
:1056700080831092C1000895833069F028F481304E
:10568000A1F0823011F514C08630B1F08730C1F03E
:105690008430D9F404C0809180008F7703C080915A
:1056A00080008F7D80938000089584B58F7702C03D
:1056B00084B58F7D84BD08958091B0008F7703C03D
:1056C0008091B0008F7D8093B0000895CF93DF93D9
:1056D00090E0FC01E25EF84F4491FC01EE5CF84F73
:1056E0008491882341F190E0880F991FFC01E05BD1
:1056F000F84F25913491D9018A5B984FFC0185912F
:105700009491C82FD92F9FB7F8948C91611106C03E
:10571000409584238C938881842308C0623041F4AF
:10572000242F209582238C938881842B888302C028
:10573000842B8C939FBFDF91CF9108950F931F937C
:10574000CF93DF931F92CDB7DEB7282F30E0F9015A
:10575000E65FF84F8491F901E25EF84F1491F90188
:10576000EE5CF84F04910023D1F0882321F0698387
:105770000E943C2B6981E02FF0E0EE0FFF1FEA5BF7
:10578000F84F85919491DC019FB7F8948C91611149
:1057900003C01095812301C0812B8C939FBF0F9074
:1057A000DF91CF911F910F910895AA1BBB1B51E16F
:1057B00007C0AA1FBB1FA617B70710F0A61BB70B81
:1057C000881F991F5A95A9F780959095BC01CD0126
:1057D0000895A1E21A2EAA1BBB1BFD010DC0AA1F32
:1057E000BB1FEE1FFF1FA217B307E407F50720F04A
:1057F000A21BB30BE40BF50B661F771F881F991FC5
:105800001A9469F760957095809590959B01AC010D
:10581000BD01CF0108952F923F924F925F926F92F8
:105820007F928F929F92AF92BF92CF92DF92EF9230
:10583000FF920F931F93CF93DF93CDB7DEB7CA1BB1
:10584000DB0B0FB6F894DEBF0FBECDBF09942A88DC
:10585000398848885F846E847D848C849B84AA8484
:10586000B984C884DF80EE80FD800C811B81AA8111
:10587000B981CE0FD11D0FB6F894DEBF0FBECDBFDC
:10588000ED010895EE0FFF1F0590F491E02D0994AE
:105890000E94512C84FF0895CB010E94512C805FFF
:1058A0000895AA27992329F4A85F982B11F480E181
:1058B0000895903118F4AD5F9295A395990FE8F78C
:1058C0008A2F992708950F931F93CF93DF938230E8
:1058D000910510F482E090E0E0913C03F0913D03EB
:1058E00020E030E0C0E0D0E023C040815181481783
:1058F0005907A8F04817590761F4828193812097CE
:1059000019F09B838A832EC090933D0380933C03C0
:1059100029C02115310529F04217530710F0A901BC
:1059200002C0BE01DF0102811381EF019A01F8017B
:105930003097D9F62115310509F1281B390B243090
:10594000310590F412968D919C9113976115710514
:1059500021F0FB019383828304C090933D038093E5
:105960003C03FD01329644C0FD01E20FF31F819319
:105970009193225031092D933C933AC020913A03E0
:1059800030913B03232B41F420910201309103011C
:1059900030933B0320933A032091000130910101A1
:1059A0002115310541F42DB73EB7409104015091C6
:1059B0000501241B350BE0913A03F0913B03E217FC
:1059C000F307A0F42E1B3F0B2817390778F0AC0122
:1059D0004E5F5F4F2417350748F04E0F5F1F5093FF
:1059E0003B0340933A038193919302C0E0E0F0E0DF
:1059F000CF01DF91CF911F910F910895EF92FF9208
:105A00000F931F93CF93DF93009709F48EC0DC01AF
:105A1000129713961C921E921297E0903C03F090FE
:105A20003D03E114F10489F42D913C911197280F65
:105A3000391F80913A0390913B038217930789F5B0
:105A4000B0933B03A0933A0370C0E70120E030E03D
:105A500001C0EA01CA17DB0738F44A815B819E0165
:105A600041155105B1F722C0AC0142505109FA016C
:105A7000D383C28300811181BC01600F711F6C1739
:105A80007D0761F468817981600F711F6E5F7F4FC0
:105A9000718360836A817B81738362832115310501
:105AA00029F4B0933D03A0933C033FC0F901B383B5
:105AB000A283E90149915991C40FD51FAC17BD07C5
:105AC00071F4DC019E918E91840F951F0296918353
:105AD000808312968D919C91139793838283A0E08B
