:100000000C9460000C94391D0C94661D0C948800AF
:100010000C9488000C9488000C9488000C94880040
:100020000C9488000C9488000C9488000C94880030
:100030000C9488000C9488000C9488000C94880020
:100040000C94961D0C9488000C94E61A0C94191BC1
:100050000C9488000C9488000C9488000C94880000
:100060000C9488000C948800000000070002010036
:100070000003040600000000000000000102040864
:100080001020408001020408102001020408102002
:10009000040404040404040402020202020203032E
:1000A0000303030300000000250028002B000000CC
:1000B0000000240027002A0026195519D41B5919BD
:1000C00011241FBECFEFD8E0DEBFCDBF13E0A0E00C
:1000D000B1E0E2E0F4E402C005900D92A634B1076D
:1000E000D9F714E0A6E4B3E001C01D92AC3EB1071D
:1000F000E1F710E0CEEBD0E004C02297FE010E94B1
:10010000711FC83BD107C9F70E944E190C94F42106
:100110000C940000CF92DF92EF92FF920F931F9307
:100120006B017C0120E030E040E05FE40E94ED03E1
:1001300087FD0EC020E030E040E05FE4C701B6017B
:100140000E9435020E9478048B019C01305806C041
:10015000C701B6010E9478048B019C01B801C90156
:100160001F910F91FF90EF90DF90CF900895A0E046
:10017000B0E0EDEBF0E00C943C1F3C01CB01EA0158
:10018000D3012C91223008F43EC1FB013081323082
:1001900008F436C1243071F4343009F034C11196BA
:1001A0002C918181281709F42EC1B1E16B2EB1E0A9
:1001B0007B2E29C1343009F423C1323091F422302E
:1001C00009F021C128E0F301DA0101900D922A958E
:1001D000E1F7DB0111968C91F301918189238983E9
:1001E00011C1223009F40CC1D3011296ED91FC919A
:1001F0001397DB0112966D917C911397D30114969E
:100200000D911D912D913C911797DC011496CD9085
:10021000DD90ED90FC901797AF01461B570BDA016C
:1002200057FF04C0AA27BB27A41BB50BA032B105FA
:100230000CF065C0141615067CF5B701A6010A2E50
:1002400004C076956795579547950A94D2F7812C07
:10025000912C5401839404C0880C991CAA1CBB1CCB
:10026000AA95D2F7B1E08B1A9108A108B1088C20A9
:100270009D20AE20BF20C12CD12C7601C3948114C7
:100280009104A104B10419F4C12CD12C7601C42A23
:10029000D52AE62AF72A3EC0452BE1F1EA0FFB1FDB
:1002A000B901A8010A2E04C0769567955795479520
:1002B0000A94D2F7812C912C5401839404C0880CA9
:1002C000991CAA1CBB1CAA95D2F7A1E08A1A910816
:1002D000A108B10880229122A222B32201E010E0FD
:1002E00020E030E081149104A104B10419F400E08D
:1002F00010E09801042B152B262B372B0BC06E1703
:100300007F0724F4C12CD12C760104C0FB0100E04E
:1003100010E09801D30111964C91DC0111968C915B
:10032000481709F442C0442349F0D701C601801B95
:10033000910BA20BB30B8C019D0104C00C191D097C
:100340002E093F0937FD04C01982FB83EA830BC0E5
:1003500081E08983FB83EA83309520951095019590
:100360001F4F2F4F3F4F0C831D832E833F830DC0A4
:10037000880F991FAA1FBB1F8C839D83AE83BF83E9
:100380008A819B8101979B838A838C819D81AE8129
:10039000BF818C019D0101501109210931090F3FD5
:1003A0001F4F2F4F3F4320F30BC04983FB83EA834A
:1003B0000C0D1D1D2E1D3F1D0C831D832E833F83A1
:1003C00083E088830C811D812E813F8137FF1AC015
:1003D000D901C80181709927AA27BB27369527958F
:1003E00017950795802B912BA22BB32B8C839D8384
:1003F000AE83BF838A819B8101969B838A8302C0DF
:100400003C0101C03E01C301CDB7DEB7EEE00C9464
:10041000581FA0E2B0E0EFE0F2E00C94481F6D8FAF
:100420007E8F8F8F98A3298F3A8F4B8F5C8FBE0161
:100430006F5E7F4FCE014D960E94FE05BE01675F45
:100440007F4FCE0149960E94FE05AE014F5F5F4F80
:10045000BE01675F7F4FCE0141960E94B7000E94A8
:100460003D05A096E2E00C94641FA0E2B0E0EBE34F
:10047000F2E00C94481F6D8F7E8F8F8F98A3298F89
:100480003A8F4B8F5C8FBE016F5E7F4FCE014D96D2
:100490000E94FE05BE01675F7F4FCE0149960E9414
:1004A000FE058A8591E089278A87AE014F5F5F4FFD
:1004B000BE01675F7F4FCE0141960E94B7000E9448
:1004C0003D05A096E2E00C94641FA0E2B0E0EBE6EC
:1004D000F2E00C943A1F6D8F7E8F8F8F98A3298F37
:1004E0003A8F4B8F5C8FBE016F5E7F4FCE014D9672
:1004F0000E94FE05BE01675F7F4FCE0149960E94B4
:10050000FE059989923008F412C08985823008F47A
:100510001AC0943021F4823009F4B4C008C0843089
:1005200021F4923009F4AEC00EC0923051F481E053
:100530002A899A85291301C080E08A8BCE014196D1
:10054000A3C0823051F481E02A899A85291301C021
:1005500080E08A87CE01099697C08D889E88AF88F3
:10056000B88C0D851E852F853889E0E2F0E080E0AB
:1005700090E0DC01C12CD12C760140E050E0BA01C2
:1005800080FE18C0400F511F621F731F8C0D9D1DF0
:10059000AE1DBF1D412C512C320143944017510711
:1005A0006207730718F0412C512C3201840D951D00
:1005B000A61DB71DCC0CDD1CEE1CFF1C37FF02C0B6
:1005C0006894C0F8000F111F221F331FB694A79420
:1005D000979487943197A1F62B893C89EB85FC850C
:1005E0002E0F3F1F2E5F3F4F3C832B8321E0EA8974
:1005F0003A85E31301C020E02A83EB81FC810CC023
:1006000080FF05C076956795579547957068B695B4
:10061000A795979587953196B7FDF2CF9F010CC0AE
:10062000880F991FAA1FBB1F77FD8160440F551FBC
:10063000661F771F215031090097A105E0E4BE072E
:1006400078F32B833C838C019D010F7711272227A0
:100650003327003411052105310559F487FD09C000
:10066000452B462B472B29F0805C9F4FAF4FBF4F48
:1006700080788D839E83AF83B88783E08983CE01A2
:10068000019602C081E191E00E943D05A096E0E163
:100690000C94561FA8E1B0E0E0E5F3E00C94421F93
:1006A0006D8B7E8B8F8B988F298B3A8B4B8B5C8BD2
:1006B000BE01675F7F4FCE0145960E94FE05BE01D9
:1006C0006F5F7F4FCE0141960E94FE059985923063
:1006D00008F475C08981823008F474C02A853A8193
:1006E00023272A87943011F0923019F4981367C0A9
:1006F0006CC0843039F41D861E861F86188A1C86BD
:100700001B8604C0823029F484E08987CE010996D3
:100710005EC08B859C852B813C81821B930B9C87C3
:100720008B874D855E856F857889CD80DE80EF80F3
:10073000F8844C155D056E057F0538F4440F551F90
:10074000661F771F01979C878B87EFE1F0E000E041
:1007500010E020E030E480E090E0DC014C155D0525
:100760006E057F0540F0802B912BA22BB32B4C19EB
:100770005D096E097F093695279517950795440FF2
:10078000551F661F771F319749F78C019D010F7721
:10079000112722273327003411052105310559F48B
:1007A00087FD09C0452B462B472B29F0805C9F4FC6
:1007B000AF4FBF4F80788D879E87AF87B88BCE01B4
:1007C000099605C0CE01019602C081E191E00E9428
:1007D0003D056896E8E00C945E1FA8E1B0E0E3EF09
:1007E000F3E00C94481F6D8B7E8B8F8B988F298B39
:1007F0003A8B4B8B5C8BBE01675F7F4FCE0145967A
:100800000E94FE05BE016F5F7F4FCE0141960E94A0
:10081000FE058985823058F08981823040F0BE0122
:100820006F5F7F4FCE0109960E946D0601C08FEF6A
:100830006896E2E00C94641FA8E0B0E0E2E2F4E025
:100840000C94461F23E029838B019C01002737FD70
:100850000395112722273327402F0A83611571053D
:100860008105910519F482E0898335C02EE130E0DD
:100870003C832B83442371F061157105810520E8C9
:10088000920771F1002711279801061B170B280BFF
:10089000390B02C08B019C01C901B8010E94751F70
:1008A0000197181619062CF00D831E832F833887A5
:1008B00012C0082E04C0000F111F221F331F0A94FC
:1008C000D2F70D831E832F8338872EE130E0281B5B
:1008D000390B3C832B83CE0101960E943D0504C059
:1008E00060E070E080E09FEC2896E4E00C94621FEA
:1008F000ACE0B0E0EEE7F4E00C94461F69877A873D
:100900008B879C87BE016F5F7F4FCE0109960E9447
:10091000FE058981823091F1823080F1843041F48A
:100920008A81882331F100E010E020E030E829C01E
:100930002B813C8137FD22C02F3131058CF78EE1B0
:1009400090E0821B930B0D811E812F81388504C09E
:1009500036952795179507958A95D2F78A8188232A
:1009600081F030952095109501951F4F2F4F3F4FE7
:1009700008C00FEF1FEF2FEF3FE703C000E010E0CC
:100980009801B801C9012C96E4E00C94621FA8E01C
:10099000B0E0EDECF4E00C94421F8B019C011A8254
:1009A000611571058105910519F482E089835DC0A7
:1009B00083E089834EE150E05C834B83C901B80139
:1009C0000E94751F019797FF39C0EE27FF27E81B8C
:1009D000F90B41E050E060E070E00E2E04C0440FDF
:1009E000551F661F771F0A94D2F7415051096109BC
:1009F00071094023512362237323C12CD12C76012A
:100A0000C394452B462B472B19F4C12CD12C7601CE
:100A100004C03695279517950795EA95D2F70C29C6
:100A20001D292E293F290D831E832F8338872EE110
:100A300030E0281B390B3C832B8317C0009729F427
:100A40000D831E832F83388710C0082E04C0000F2B
:100A5000111F221F331F0A94D2F70D831E832F8389
:100A60003887481B590B5C834B83CE0101960E944B
:100A70003D052896E8E00C945E1F0F931F93CF93DB
:100A8000FC014481558166817781C18180818230FA
:100A900020F460618FEF90E0A3C0843009F49BC024
:100AA000823009F492C0411551056105710509F4C0
:100AB0008FC02281338122388FEF38070CF057C066
:100AC000E2E8FFEFE21BF30BEA31F10564F58A017E
:100AD0009B010E2E04C036952795179507950A940D
:100AE000D2F781E090E0A0E0B0E004C0880F991F49
:100AF000AA1FBB1FEA95D2F70197A109B109842368
:100B00009523A623B72341E050E060E070E0892BF5
:100B10008A2B8B2B19F440E050E0BA01402B512B6B
:100B2000622B732B03C040E050E0BA01DB01CA0125
:100B30008F779927AA27BB2780349105A105B10596
:100B400039F447FF09C0405C5F4F6F4F7F4F04C0CF
:100B5000415C5F4F6F4F7F4F81E090E04115510541
:100B6000610520E4720748F580E090E026C0203857
:100B700031058CF5DB01CA018F779927AA27BB279E
:100B800080349105A105B10539F447FF09C0405CE7
:100B90005F4F6F4F7F4F04C0415C5F4F6F4F7F4F80
:100BA00077FD04C0C90181589F4F07C076956795AE
:100BB00057954795C90180589F4F97E0769567955F
:100BC000579547959A95D1F70BC080E090E005C006
:100BD00080E090E005C08FEF90E040E050E0BA0187
:100BE000982F9695C0FB97F9362F80FB37F9642F25
:100BF000752F832FCF911F910F910895CF92DF9280
:100C0000EF92DC01FB01CC901196DC9011971296CB
:100C10008C9112973FE7E32EE8226E2DA60170E03B
:100C2000982F991F9927991F13962C91822F880F1F
:100C3000892B90E027FB222720F92183009729F5B3
:100C4000411551056105710511F482E027C082E864
:100C50009FEF9383828327E0440F551F661F771F02
:100C60002A95D1F783E0808309C0440F551F661F82
:100C7000771F828193810197938382834115510568
:100C8000610580E4780788F320C08F3F910579F4EF
:100C9000411551056105710519F484E0808319C07F
:100CA000E4FE03C081E0808310C010820EC08F5725
:100CB00091099383828383E0808387E0440F551FEB
:100CC000661F771F8A95D1F77064448355836683C6
:100CD0007783EF90DF90CF900895CF93FC01DB01F5
:100CE0009081923008F452C08C91823008F44EC04A
:100CF000943071F4843039F411962C9130E0818174
:100D0000281B310948C08181882309F43FC03BC0BA
:100D1000843029F411968C91811138C034C09230FE
:100D200019F48230B9F735C0823069F3C181119668
:100D30008C911197C8131DC02281338112968D9119
:100D40009C911397821793070CF413C02817390747
:100D50000CF417C0448155816681778114968D917A
:100D60009D910D90BC91A02D84179507A607B707FC
:100D700018F4C11108C00AC0481759076A077B0751
:100D800040F4C11103C02FEF3FEF05C021E030E078
:100D900002C020E030E0C901CF91089525E731E09D
:100DA000FC0131832083089525E731E0FC01318384
:100DB0002083089525E731E0FC01318320830C94E2
:100DC000931D25E731E0FC01318320830C94931DB2
:100DD0000F931F93CF93DF938C018DE991E0F8017E
:100DE0009183808382819381009719F1FC0132976E
:100DF0002081318141E1429FE001439FD00D1124C8
:100E0000C80FD91FCE01F801228133816197821763
:100E1000930741F0E881F9810190F081E02DCE0146
:100E20000995F0CF0297DF91CF911F910F910C940C
:100E30003019DF91CF911F910F910895CF93DF93D8
:100E4000EC010E94E806CE01DF91CF910C94931D36
:100E500029E831E0FC01318320830C94E806CF932C
:100E6000DF93EC010E942807CE01DF91CF910C9413
:100E7000931D0F931F93CF93DF938C0187EA91E02B
:100E8000F8019183808382819381009719F1FC019D
:100E900032972081318146E0429FE001439FD00D8F
:100EA0001124C80FD91FCE01F80122813381269762
:100EB0008217930741F0E881F9810190F081E02DDC
:100EC000CE010995F0CF0297DF91CF911F910F913D
:100ED0000C943019DF91CF911F910F910895CF930A
:100EE000DF93EC010E943907CE01DF91CF910C9482
:100EF000931D23E931E0FC01318320830C943907F1
:100F0000CF93DF93EC010E947907CE01DF91CF915F
:100F10000C94931D69E171E082E394E00C945C1CF5
:100F200061E271E082E394E00C945C1CCF93DF9368
:100F3000EC0168E271E082E394E00E945C1C4A816B
:100F40005B816C817D812AE030E082E394E00E9445
:100F5000EB1C6EE271E082E394E00E945C1C4D8524
:100F60005E856F8578892AE030E082E394E00E9414
:100F7000EB1C60E471E082E394E00E945C1C4AE0B8
:100F800050E06C8582E394E00E94121D67E571E0F9
:100F900082E394E00E945C1C4E815F8168857985C4
:100FA0002AE030E082E394E00E94EB1C6FE571E000
:100FB00082E394E00E945C1C6A857B854AE050E0F5
:100FC00082E394E00E940C1D61E073E082E394E010
:100FD000DF91CF910C947B1CCF93DF93EC0168E2FF
:100FE00071E082E394E00E945C1C4A815B816C8129
:100FF0007D812AE030E082E394E00E94EB1C61E016
:1010000073E082E394E0DF91CF910C947B1C25E7A1
:1010100031E0FC01318320834FEF5FEFBA0142835F
:10102000538364837583089525E731E0FC013183A0
:101030002083FB014081518162817381FC014283E5
:101040005383648375830895FC014FEF5FEFBA010A
:1010500042835383648375838FE791E09183808318
:10106000468357836087718780E797E193878287FC
:101070001486158616861786108A0895FC01DB01F2
:101080004D915D916D917C9142835383648375830F
:101090008FE791E0918380834FEF5FEFBA01468342
:1010A00057836087718780E797E1938782871486EB
:1010B000158616861786108A0895EF92FF920F9371
:1010C0001F93CF93DF93EC017B014D855E856F8588
:1010D0007889452B462B472B09F1C7010E949816AA
:1010E000FC0160817181828193810D851E852F8530
:1010F0003889601B710B820B930B2C8530E040E02C
:1011000050E00E94161F3B872A8724543641293518
:10111000324020F080E797E19B878A87C7010E94D1
:101120009816FC0140815181628173818A859B857B
:10113000480F591F611D711D4E835F836887798732
:1011400081E08C87C7010E949816FC014081518183
:10115000628173814D875E876F87788BDF91CF9136
:101160001F910F91FF90EF900895CF92DF92EF9231
:10117000FF92CF93DF93EC01CE80DF80E884F98487
:101180000E94E01DC616D706E806F90638F44FEFB0
:101190005FEFBA014E835F83688779872696CE0119
:1011A000DF91CF91FF90EF90DF90CF900895FC01F9
:1011B000828593854681578160857185480F591FC7
:1011C000611D711D468357836087718784858F5F9A
:1011D00084870895CF92DF92EF92FF921F93CF936F
:1011E000DF93EC0110E024C08A819B8121E1129FF2
:1011F000800D911D11240E94B508FC01C080D18092
:10120000E280F3802D818A819B81F1E12F9F800D07
:10121000911D11240E94B508FC0140815181628119
:101220007381C416D506E606F70608F41D831F5F12
:101230008C811817C8F22D818A819B81F1E12F9F43
:10124000800D911D1124DF91CF911F91FF90EF90A0
:10125000DF90CF900C94B508FC0185818F5F85836A
:101260009481891301C015820895FC0181E0818376
:101270004FEF5FEFBA0142835383648375838683A4
:101280001286118613861486158616861786108A8E
:10129000118A128A138A148A89E891E090878783D9
:1012A000108E178A118E128E138E148E158E168E36
:1012B000178E10A211A212A283E991E0968B858B62
:1012C00013A214A215A216A217A208950E94CA176B
:1012D0000C942C171F93CF93DF93EC016DEA71E010
:1012E00082E394E00E945C1CE881F9810480F5812E
:1012F000E02DCE0109956DEB71E082E394E00E9450
:101300007B1C10E00FC08A819B8121E1129F800D20
:10131000911D1124DC01ED91FC910480F581E02DFB
:1013200009951F5F8C81181770F3DF91CF911F9182
:1013300008951F93CF93DF93EC016DEA71E082E390
:1013400094E00E945C1CE881F9810480F581E02D25
:10135000CE0109956DEB71E082E394E00E947B1C65
:1013600010E00FC08A819B8126E0129F800D911DA5
:101370001124DC01ED91FC910480F581E02D0995AB
:101380001F5F8C81181770F3DF91CF911F91089523
:10139000FC01228133812115310569F0FB01408177
:1013A000FC018481481738F4F1E14F9F200D311D75
:1013B0001124C901089508954F925F926F927F9210
:1013C0008F929F92AF92BF92CF92DF92EF92FF9255
:1013D0000F93CF93DF9300D000D0CDB7DEB73C01A1
:1013E0002B01E982BE016F5F7F4F2C834A835B83B1
:1013F0000E94C809FC01C280D380E480F580F2011C
:1014000080809180A280B38089812C814A815B8118
:101410008C149D04AE04BF0421F4FA01808381E0A2
:1014200021C08C149D04AE04BF0460F4982F921B5D
:10143000923018F4FA0180830BC0E92EE694E20E94
:10144000082F0CC0902F981B923020F4FA010083D3
:1014500080E008C0E92EE694E80E282FB201C3010F
:101460000E94DC090F900F900F900F90DF91CF91A9
:101470000F91FF90EF90DF90CF90BF90AF909F9033
:101480008F907F906F905F904F9008952F923F9232
:101490004F925F926F927F928F929F92AF92BF9284
:1014A000CF92DF92EF92FF920F93CF93DF9300D012
:1014B00000D01F92CDB7DEB71C017D836C835B83A8
:1014C0004A83FC010481011102C0FA0130C0EC81A1
:1014D000FD81C080D180E280F3800130F1F5198276
:1014E000BE016F5F7F4F0E94C809FC01828193811A
:1014F000A481B581C816D906EA06FB0629F4EA815B
:10150000FB81108281E078C01982BE016F5F7F4F3E
:10151000C1010E94C809FC0182819381A481B58127
:10152000C816D906EA06FB0628F4EA81FB81108278
:1015300080E062C01982BE016F5F7F4FC1010E94CF
:10154000C809FC0182819381A481B5818C159D0518
:10155000AE05BF0508F050C00AC0FC0142845384A8
:10156000648475844C145D046E047F0420F4EA8165
:10157000FB810083DDCFFC0186809780A084B1844D
:10158000C814D904EA04FB0408F4CFCFC701B6019C
:10159000681979098A099B090E94C7046B017C01BB
:1015A000C301B201681979098A099B090E94C7041D
:1015B0009B01AC01C701B6010E944A036B017C018B
:1015C000602F70E061507109882777FD8095982F12
:1015D0000E941C049B01AC01C701B6010E94650278
:1015E0000E948A00E62E20E04A815B816C817D8129
:1015F000C1010E94DC0900C00F900F900F900F9066
:101600000F90DF91CF910F91FF90EF90DF90CF90EF
:10161000BF90AF909F908F907F906F905F904F9012
:101620003F902F9008954F925F926F927F928F928A
:101630009F92AF92BF92CF92DF92EF92FF920F9361
:101640001F93CF93DF93CDB7DEB762970FB6F894B1
:10165000DEBF0FBECDBF7C015B011A8AAE014E5EBC
:101660005F4F0E94460A882321F0C7010E946A0941
:1016700041C1D70114966C90712C4301BFEF8B1AB6
:101680009B0A21E1289DC001299D900D11240296FD
:101690000E942E198C01FC01819291926F01812C84
:1016A000912CC6010E942408FFEF8F1A9F0A21E1A6
:1016B000C20ED11CC30188199909019691F74801FE
:1016C00082E0880E911C8114910409F413C13A89B7
:1016D000670192E0C90ED11CF80120E033C0CF01B0
:1016E000801B910BD6016D907C90680E791ED30102
:1016F00012964D915D916D917C9115974483558320
:101700006683778316964D915D916D917C911997C3
:1017100040875187628773871A968D919C911B979A
:10172000958784871C968C911C9786871D964D9172
:101730005D916D917C9150974787508B618B728B37
:101740002F5F71962313CBCFB501CE0101960E9476
:101750003E088A89F401B1E18B9FE00DF11D11244F
:101760004B815C816D817E81428353836483758369
:101770004F81588569857A8546835783608771874D
:101780008B859C85938782878D8584874E855F8531
:1017900068897989458756876787708BCE0101965E
:1017A0000E94D4068A89F7017480781A282F2F5F47
:1017B000F1E12F9F90011124F801E20FF31F41E1A5
:1017C000849FC0011124801B910B821B930B10E09E
:1017D00033C09F01280F391FD6014D905C90420EF7
:1017E000531ED20112964D915D916D917C9115978A
:1017F000448355836683778316964D915D916D91F1
:101800007C91199740875187628773871A962D912B
:101810003C911B97358724871C962C911C97268713
:101820001D964D915D916D917C9150974787508B9E
:10183000618B728B1F5F71961711CBCFF70182817D
:101840009381009719F1FC0132972081318141E1A8
:10185000429F8001439F100D1124080F191FC801DA
:10186000D70112962D913C911397015111098217BE
:10187000930749F0D801ED91FC910190F081E02DA2
:10188000C8010995ECCF02970E943019F7019382A5
:10189000828284818F5F8483D5014D915D916D91AA
:1018A0007C91813049F442875387648775874683EA
:1018B00057836087718721C0F701028513852485CE
:1018C0003585041715072607370728F442875387FD
:1018D0006487758711C0F7010681178120853185DE
:1018E000401751076207730738F4468357836087B0
:1018F000718702C080E001C081E062960FB6F89463
:10190000DEBF0FBECDBFDF91CF911F910F91FF9032
:10191000EF90DF90CF90BF90AF909F908F907F908F
:101920006F905F904F9008950F931F93CF93DF9325
:1019300000D000D0CDB7DEB78C0160EC71E082E35F
:1019400094E00E945C1CD801ED91FC910480F5812B
:10195000E02DC80109956BEC71E082E394E00E94F0
:101960007B1C0E942A1A69837A838B839C83BE0125
:101970006F5F7F4FC8010E94130B882319F067ED3A
:1019800071E002C06BED71E082E394E00E945C1CA8
:1019900063EE71E082E394E00E945C1CD801ED915B
:1019A000FC910480F581E02DC801099549815A8197
:1019B0006B817C812AE030E082E394E00E94F81C95
:1019C0000F900F900F900F90DF91CF911F910F917B
:1019D0000895FC01228133812115310569F0FB0155
:1019E0004081FC018481481738F4F6E04F9F200DB8
:1019F000311D1124C901089508954F925F926F928D
:101A00007F928F929F92AF92BF92CF92DF92EF928E
:101A1000FF920F93CF93DF9300D000D0CDB7DEB706
:101A20003C012B01E982BE016F5F7F4F2C834A830B
:101A30005B830E94E90CFC01C280D380E480F580C6
:101A4000F20180809180A280B38089812C814A81BB
:101A50005B818C149D04AE04BF0421F4FA018083E1
:101A600081E021C08C149D04AE04BF0460F4982F63
:101A7000921B923018F4FA0180830BC0E92EE69491
:101A8000E20E082F0CC0902F981B923020F4FA0120
:101A9000008380E008C0E92EE694E80E282FB2010A
:101AA000C3010E94FD0C0F900F900F900F90DF91DB
:101AB000CF910F91FF90EF90DF90CF90BF90AF90BC
:101AC0009F908F907F906F905F904F9008952F928E
:101AD0003F924F925F926F927F928F929F92AF92BE
:101AE000BF92CF92DF92EF92FF920F93CF93DF934B
:101AF00000D000D01F92CDB7DEB71C017D836C8370
:101B00005B834A83FC010481011102C0FA0130C0E9
:101B1000EC81FD81C080D180E280F3800130F1F55D
:101B20001982BE016F5F7F4F0E94E90CFC01828128
:101B30009381A481B581C816D906EA06FB0629F46B
:101B4000EA81FB81108281E078C01982BE016F5F5B
:101B50007F4FC1010E94E90CFC0182819381A48125
:101B6000B581C816D906EA06FB0628F4EA81FB818E
:101B7000108280E062C01982BE016F5F7F4FC10199
:101B80000E94E90CFC0182819381A481B5818C15AE
:101B90009D05AE05BF0508F050C00AC0FC01428497
:101BA0005384648475844C145D046E047F0420F4B3
:101BB000EA81FB810083DDCFFC0186809780A084D1
:101BC000B184C814D904EA04FB0408F4CFCFC701D8
:101BD000B601681979098A099B090E94C7046B013B
:101BE0007C01C301B201681979098A099B090E9425
:101BF000C7049B01AC01C701B6010E944A036B01F7
:101C00007C01602F70E061507109882777FD809515
:101C1000982F0E941C049B01AC01C701B6010E94D1
:101C200065020E948A00E62E20E04A815B816C8179
:101C30007D81C1010E94FD0C00C00F900F900F909C
:101C40000F900F90DF91CF910F91FF90EF90DF9069
:101C5000CF90BF90AF909F908F907F906F905F904C
:101C60004F903F902F9008956F927F928F929F9206
:101C7000AF92BF92CF92DF92EF92FF920F931F939A
:101C8000CF93DF93CDB7DEB727970FB6F894DEBFBB
:101C90000FBECDBF7C015B011F82AE01495F5F4F6C
:101CA0000E94670D882321F0C7010E949909EAC0AC
:101CB000D70114966C90712C4301BFEF8B1A9B0ACD
:101CC00026E0289DC001299D900D112402960E94B6
:101CD0002E198C01FC01819291926F01812C912C23
:101CE000C6010E940708FFEF8F1A9F0A26E0C20E66
:101CF000D11CC30188199909019691F76801B2E0D6
:101D0000CB0ED11CC114D10409F4BCC03F814701E2
:101D1000E2E08E0E911CF80120E015C0CF01801B7F
:101D2000910BD4014D915C91480F591FDA01129625
:101D30004D915D916D917C91159744835583668398
:101D400077832F5F36962313E9CFB501CE01019635
:101D50000E9414088F814B815C816D817E81F60128
:101D6000B6E08B9FE00DF11D112442835383648301
:101D70007583CE0101960E94CE062F81F7017480F3
:101D8000721A822F8F5FF6E02F9F9001112496E048
:101D9000899F000D111D112480E090E0612C14C07A
:101DA000D401ED91FC91E80FF91FE20FF31F42817E
:101DB000538164817581F801E80FF91F44835583CD
:101DC00066837783639406966710EACFF701828172
:101DD0009381009719F1FC0132972081318146E00F
:101DE000429F8001439F100D1124080F191FC80145
:101DF000D70112962D913C91139706501109821725
:101E0000930749F0D801ED91FC910190F081E02D0C
:101E1000C8010995ECCF02970E943019F701D382CF
:101E2000C28284818F5F8483D5014D915D916D91D4
:101E30007C91813049F44287538764877587468354
:101E400057836087718721C0F70102851385248538
:101E50003585041715072607370728F44287538767
:101E60006487758711C0F701068117812085318548
:101E7000401751076207730738F44683578360871A
:101E8000718702C080E001C081E027960FB6F89408
:101E9000DEBF0FBECDBFDF91CF911F910F91FF909D
:101EA000EF90DF90CF90BF90AF909F908F907F90FA
:101EB0006F9008950F931F93CF93DF9300D000D0BE
:101EC000CDB7DEB78C0160EC71E082E394E00E9454
:101ED0005C1CD801ED91FC910480F581E02DC801D6
:101EE00009956BEC71E082E394E00E947B1C0E94F8
:101EF0002A1A69837A838B839C83BE016F5F7F4F2D
:101F0000C8010E94340E882319F067ED71E002C009
:101F10006BED71E082E394E00E945C1C63EE71E083
:101F200082E394E00E945C1CD801ED91FC91048056
:101F3000F581E02DC801099549815A816B817C8129
:101F40002AE030E082E394E00E94F81C0F900F90AA
:101F50000F900F90DF91CF911F910F910895EF9205
:101F6000FF920F931F93CF93DF93EC0182E394E0F2
:101F70000E947D1A8C019C0133272436310509F417
:101F80008CC0D4F42C34310509F418C14CF42D3034
:101F9000310509F434C12434310509F019C1BEC03A
:101FA0002136310521F12236310509F45DC02E3488
:101FB000310509F00DC167C02E36310509F459C04D
:101FC00054F42C36310509F4EFC0B4F42B36310546
:101FD00009F0FEC040C02537310509F440C026375E
:101FE0003105B1F12037310509F0F2C009C081E0B7
:101FF00089836AEE71E0F9C019826BEF71E0F5C078
:102000008981882319F06DE072E0EFC067E372E028
:1020100082E394E00E947B1C0E942A1A6A837B83DD
:102020008C839D8365E472E082E394E00E945C1CF3
:102030004A815B816C817D812AE030E082E394E01B
:10204000DF91CF911F910F91FF90EF900C94F81CAE
:102050006BE572E0CAC01E8263E772E0C6C081E031
:102060008E836FE972E0C1C082E08E836BEB72E019
:10207000BCC0CE010796DF91CF911F910F91FF90C9
:10208000EF900C94940CCE014596DF91CF911F9167
:102090000F91FF90EF900C945A0F7E0187E0E80EAD
:1020A000F11C1C861B86198A1A8A1B8A1C8A1D86AB
:1020B0001E861F86188A29853A852115310519F152
:1020C000F90132978081918141E1489F8001499FC8
:1020D000100D1124020F131FC801D70112962D9164
:1020E0003C911397015111098217930749F0D801C8
:1020F000ED91FC910190F081E02DC8010995ECCFA4
:1021000002970E9430191A86198669EC72E082E300
:1021100094E00E945C1CEF81F8853EC07E01B5E131
:10212000EB0EF11C1A8E198E1F8E18A219A21AA27C
:102130001B8E1C8E1D8E1E8E2F89388D211531050C
:1021400009F1F90132978081918146E0489F800131
:10215000499F100D1124020F131FC801F70122819E
:102160003381065011098217930749F0D801ED9188
:10217000FC910190F081E02DC8010995EECF029706
:102180000E943019188E1F8A69EC72E082E394E095
:102190000E945C1CED89FE890480F581E02DC70159
:1021A00009956BE073E021C0CE010796DF91CF91D6
:1021B0001F910F91FF90EF900C946A09CE01459604
:1021C000DF91CF911F910F91FF90EF900C9499099F
:1021D00069ED72E082E394E00E945C1C602F82E370
:1021E00094E00E945E1C62EF72E082E394E0DF9173
:1021F000CF911F910F91FF90EF900C947B1CDF917A
:10220000CF911F910F91FF90EF9008952F923F92E1
:102210004F925F926F927F928F929F92AF92BF92F6
:10222000CF92DF92EF92FF920F931F93CF93DF93A2
:10223000CDB7DEB728970FB6F894DEBF0FBECDBF7F
:102240003C017F836E83412C512CD12C4C0135E114
:10225000830E911C1C0187E0280E311C93E2949D93
:102260007001959DF00C1124E7E4F3E0EE0EFF1EE3
:10227000CE2CBF2CC7010E942F14882309F4C9C09B
:10228000C7010E947416C7010E949016882309F4A2
:10229000B5C0C7010E949316FC0140815181628143
:1022A000738149835A836B837C83DD24D394EE81CD
:1022B000FF8180819181A281B381481759076A0704
:1022C0007B0709F0D12CC7010E94FA15882309F475
:1022D00055C0C7010E948E15882309F4A3C01D8232
:1022E000AE014B5F5F4FBE016F5F7F4FC1010E9428
:1022F000460A81118AC096C01D82AE014B5F5F4FB6
:10230000BE016F5F7F4FC4010E94670D81117DC0C8
:10231000F301818149815A816B817C81882329F075
:1023200042835383648375830AC0F301028113815E
:1023300024813581041715072607370741F4C701A3
:102340000E948E15682FC3010E9468125EC064EF60
:1023500072E082E394E00E945C1C49815A816B81A7
:102360007C812AE030E082E394E00E94EB1C61E093
:1023700073E082E394E00E947B1C47C0C7010E9487
:102380008E15882339F1AE014B5F5F4FBE016F5F41
:102390007F4FC1010E94460AF301882341F18185E4
:1023A0009285009759F02D813385231738F4F1E198
:1023B0002F9F800D911D1124A82E9887B7018A2D7B
:1023C00098850E945D08C7010E94FB14C1010E940C
:1023D000EA081BC01D82AE014B5F5F4FBE016F5FFD
:1023E0007F4FC4010E94670D811104C0F3018681F3
:1023F000882359F0C7010E94FB1407C0F3018681AE
:10240000823019F4C7010E9406148C2D9B2D0E9466
:102410003714FFEF4F1A5F0A35E04316510409F0F5
:102420001DCF06C0C7010E948E15811171CF64CFE8
:102430008D2D28960FB6F894DEBF0FBECDBFDF916D
:10244000CF911F910F91FF90EF90DF90CF90BF90B1
:10245000AF909F908F907F906F905F904F903F9044
:102460002F900895AF92BF92CF92DF92EF92FF929A
:102470000F931F93CF93DF93EC018B015A010E94BE
:10248000E01D6B017C01F501408151816281738106
:10249000C40ED51EE61EF71E06C0B801CE010E946E
:1024A0000611811109C00E94E01D6C157D058E0585
:1024B0009F0598F380E001C081E0DF91CF911F91EB
:1024C0000F91FF90EF90DF90CF90BF90AF90089565
:1024D000EF92FF920F931F93CF93DF9300D000D022
:1024E000CDB7DEB78C0182E0E82EF12CE00EF11EB4
:1024F000662331F0B701C80107960E94130B19C07B
:10250000C7010E94DF1844E650E060E070E04983B4
:102510005A836B837C83AE014F5F5F4FB701C80165
:102520000E943212882331F1B701C80145960E94FA
:10253000340E8823F9F06AEF72E082E394E00E949F
:102540005C1CF80142815381648175812AE030E08E
:1025500082E394E00E94EB1C60E073E082E394E08D
:102560000E947B1C4FEF5FEFBA01F8014283538357
:10257000648375830F900F900F900F90DF91CF9130
:102580001F910F91FF90EF9008950F931F93CF939A
:10259000DF9300D000D0CDB7DEB78C01FC012485DD
:1025A00081859285F1E12F9F800D911D11240E945C
:1025B000B50848EE53E060E070E049835A836B83CE
:1025C0007C83F801848561857285F1E18F9F600DC0
:1025D000711D11246E5F7F4FAE014F5F5F4FC801C9
:1025E0000E94321281110BC0F801248581859285E9
:1025F000F1E12F9F800D911D11240E94D7080F90AB
:102600000F900F900F90DF91CF911F910F91089530
:10261000EF92FF920F931F93CF93DF9300D000D0E0
:10262000CDB7DEB77C01FC01818D882309F455C04C
:10263000828D811115C00E94E01DF70104A115A132
:1026400026A137A10059184E2F4F3F4F6017710731
:1026500082079307D0F583A1882309F43EC035C0D3
:10266000F701228D8789908DF6E02F9F800D911DB7
:10267000112402960E94101944E650E060E070E0D8
:1026800049835A836B837C83F701828D6789708DC0
:10269000F6E08F9F600D711D11246E5F7F4FAE01BC
:1026A0004F5F5F4FC7010E943212811107C0F701CF
:1026B00083A1853018F48F5F83A30FC0C7014596AF
:1026C0000E942C09F70113A208C00E94E01DF70127
:1026D00064A375A386A397A3C3CF0F900F900F9009
:1026E0000F90DF91CF911F910F91FF90EF90089580
:1026F000CF92DF92EF92FF920F931F93CF93DF93CE
:1027000000D000D0CDB7DEB78C01FC0183858111EC
:1027100004C0C8010E94081320C00E94E01D6B0184
:102720007C01F801248581859285F1E12F9F800D40
:10273000911D11240E94B508FC01408151816281E4
:102740007381445F514061097109C416D506E606DC
:10275000F706F8F2C8010E94C51219821A821B827C
:102760001C82BE016F5F7F4FC8010E94061182E389
:1027700094E00E944E1A892B19F0C8010E94AF0FF5
:102780000F900F900F900F90DF91CF911F910F91AD
:10279000FF90EF90DF90CF90089521E1FC0120831E
:1027A00011820895FC0191818081981750F48181F4
:1027B000DB019C91DF01A80FB11D12969C938F5FE6
:1027C00081830895CF92DF92EF92FF920F931F9330
:1027D000CF93DF937C016B018A01C0E0D0E007C09A
:1027E000B6016C0F7D1FC7010E94D2132196F8011C
:1027F000808190E0C817D9079CF3DF91CF911F919A
:102800000F91FF90EF90DF90CF9008950F931F935B
:10281000CF93DF938C01C0E0D0E011C0F801EC0F42
:10282000FD1F628140E150E082E394E00E94121DAE
:1028300068EF72E082E394E00E945C1C2196F8014C
:10284000808190E0C817D9074CF369EF72E082E30A
:1028500094E0DF91CF911F910F910C947B1CFC01B0
:102860002181908181E0291708F480E00895FC011E
:1028700011820895282FFB013081E82FF92F80E085
:1028800002C09191890F9E2F921B9317D0F3089548
:10289000FC0191818081981748F49181DF01A90F93
:1028A000B11D12968C919F5F9183089580E00895E9
:1028B0009F92AF92BF92CF92DF92EF92FF920F93CF
:1028C0001F93CF93DF93CDB7DEB728970FB6F89459
:1028D000DEBF0FBECDBF8C016B017A01B22E85E544
:1028E00089838DE28A8384ED8B8380E48C831D82CF
:1028F00083E0888782E08F83F8011182902EA12ED9
:10290000AE01485F5F4FBE016F5F7F4FC8010E94FD
:10291000E213A701B601C8010E94E213BB2059F0DF
:10292000B701C6010E943A148E83BE016A5F7F4FD1
:10293000C8010E94D213AE01495F5F4FBE016C5FB8
:102940007F4F892D9A2D0E94E213F70180818B5FC2
:102950008B0DF8018083118228960FB6F894DEBFA4
:102960000FBECDBFDF91CF911F910F91FF90EF90E0
:10297000DF90CF90BF90AF909F900895FC0181E1D0
:1029800080831182148A158A168A178A108E4FEF57
:102990005FEFBA01478F50A361A372A308950F930D
:1029A0001F93CF93DF93EC018B0199818881981756
:1029B000E8F48981811111C00E94E01D6C8B7D8B30
:1029C0008E8B9F8BF8018081823519F41B8A8CE0F5
:1029D00003C081E08B8B80E188838981F80190813D
:1029E000FE01E80FF11D92838F5F8983DF91CF9104
:1029F0001F910F910895FF920F931F93CF93DF9331
:102A0000EC0168E271E082E394E00E945C1C4F8D6F
:102A100058A169A17AA12AE030E082E394E00E9403
:102A2000EB1C63E073E082E394E00E945C1C4C8941
:102A30005D896E897F892AE030E082E394E00E941C
:102A4000EB1C8E01F12CF801818D928D0196E1F045
:102A500069E073E082E394E00E945C1C4AE050E08D
:102A60006F2D82E394E00E94121D67EF72E082E313
:102A700094E00E945C1CF801618D728D4AE050E088
:102A800082E394E00E940C1DF3940E5F1F4FF3E06D
:102A9000FF12D9CF8B89811112C06DE073E082E300
:102AA00094E00E945C1C8C85833519F468EF71E01A
:102AB00002C069E072E082E394E00E945C1C61E085
:102AC00073E082E394E0DF91CF911F910F91FF902B
:102AD0000C947B1C0F931F93CF93DF931F92CDB762
:102AE000DEB78C01DC018C9181508983BE016F5F60
:102AF0007F4FC80102960E943A14D801EC91F0E091
:102B00003197E00FF11F228191E0821390E0892F2D
:102B10000F90DF91CF911F910F910895FC01838950
:102B20000895CF93DF93FC018FEF9FEF928F818FFA
:102B3000948F838F968F858F8389882309F182E014
:102B400090E0DF01A80FB91F12964C91129747FF32
:102B500012C012965C911297EC012196CE0FDF1FE6
:102B60004A81352F3F7720E0B901642BAB0158969D
:102B70005C934E93579702968830910511F707C0E2
:102B800033852285932F80E0822B928F818FDF9176
:102B9000CF9108950F931F93FC01178E10A211A2DD
:102BA00012A28389882359F092818381592F5F7003
:102BB00040E0662757FD6095762F482B14C023818F
:102BC00044818581968150E060E070E0BA0155272C
:102BD0004427722B492B182F00E020E030E0402BD7
:102BE000512B622B732B478F50A361A372A31F91AC
:102BF0000F910895FC018389882329F08281881F21
:102C00008827881F08958085833421F4918581E089
:102C10009F3409F080E008959F92AF92BF92CF92C7
:102C2000DF92EF92FF920F931F93CF93DF93FC01FC
:102C300090E081E0A12C00E810E040E4E42EF12CCB
:102C400041C0E801042E02C0D595C7950A94E2F769
:102C50007C917C237C1771F0E701042E02C0D5958E
:102C6000C7950A94E2F7BE017C917623761305C0DE
:102C7000A12C04C0AA24A39401C080E0BB0CBA28F4
:102C80004E5F5F4F48305105E1F62F5F3F4F2230D6
:102C9000310531F40FC020E030E0B12CC92ED12C29
:102CA00040E050E0B9016C0D7D1D6E0F7F1FDB0110
:102CB0001296C7CF292F2695DF01A20FB11D1296BC
:102CC000BC929E5F2081921730F3908196959083FD
:102CD000DF91CF911F910F91FF90EF90DF90CF90F8
:102CE000BF90AF909F900895CF93DF93EC018B89B5
:102CF000882321F0CE010E940C1603C0CE010E9451
:102D00006A15888F888D882341F0CE010E94911525
:102D1000CE01DF91CF910C94CA15DF91CF91089528
:102D2000FC01808D08959C01215E3F4FC9010895EB
:102D30009C012C5E3F4FC90108950F931F93CF93C1
:102D4000DF93EC0119928C0100551F4FCE010E94B8
:102D5000BE14A396C017D107C9F7DF91CF911F9179
:102D60000F9108951F93CF93DF93EC01888113E2B5
:102D70009E01189F200D311D1124C90101960E944A
:102D8000CF148881FE01189FE00DF11D11243196AA
:102D9000918180819817B8F080E090E023E2289F2D
:102DA000F001299FF00D11243196EC0FFD1F418198
:102DB0003081431710F4888304C001968530910553
:102DC00071F781E001C080E0DF91CF911F910895FC
:102DD0001F93CF93DF9300D01F92CDB7DEB711E0E2
:102DE0001B8389E392E89A838983BE016D5F7F4FDD
:102DF000CE0101960E94AD19109309040F900F9017
:102E00000F90DF91CF911F9108951F93CF93DF9380
:102E100000D01F92CDB7DEB711E01B8381E89AEC9A
:102E20009A838983BE016D5F7F4FCE0101960E9418
:102E3000AD191B8383E89AEC9A838983BE016D5F89
:102E40007F4FCE0101960E94AD190F900F900F9009
:102E5000DF91CF911F910895CF93DF9300D01F9200
:102E6000CDB7DEB781E08B8389ED92E89A838983C1
:102E7000BE016D5F7F4FCE0101960E94AD19109289
:102E800009040E9405170F900F900F90DF91CF91CA
:102E90000895CF93DF9300D01F92CDB7DEB786EFB2
:102EA00093E00E94481491E09B8390E0986B9A8392
:102EB0008983BE016D5F7F4FCE0101960E94AD19DF
:102EC00086EF93E00E942F1481110E942C170F901F
:102ED0000F900F90DF91CF9108951F93CF93DF93C1
:102EE00000D0CDB7DEB781E00E946D191982CE0106
:102EF00001960E94A519182F1982CE0101960E94F1
:102F0000A51980910904811139C015FF1DC01A82CD
:102F1000CE0102960E94A5198983BE016F5F7F4F83
:102F200086E493E00E94B216182F1A82CE01029610
:102F30000E94A5198983BE016F5F7F4F86E493E0ED
:102F40000E94B216182B12C017FF0FC01A82CE01B2
:102F500002960E94A5198983BE016F5F7F4F86E4A8
:102F600093E00E94B216182F01C010E080E00E948A
:102F70006D19112349F00E94051706C017FD0E9424
:102F8000491780E00E946D190F900F90DF91CF914B
:102F90001F9108951F93CF93DF9300D01F92CDB759
:102FA000DEB70E94731911E01B831A821982BE01D9
:102FB0006D5F7F4FCE0101960E94AD1960ED77E005
:102FC00080E090E00E941C1E1B8388ED90E89A83AD
:102FD0008983BE016D5F7F4FCE0101960E94AD19BE
:102FE0001B8381E092E89A838983BE016D5F7F4FE6
:102FF000CE0101960E94AD191B8384E396EA9A8361
:103000008983BE016D5F7F4FCE0101960E94AD198D
:103010001B8387E596EC9A838983BE016D5F7F4FA2
:10302000CE0101960E94AD191B8380EC94E99A832E
:103030008983BE016D5F7F4FCE0101960E94AD195D
:103040001B838CE292EC9A838983BE016D5F7F4F74
:10305000CE0101960E94AD191B8381E89AEC9A83F8
:103060008983BE016D5F7F4FCE0101960E94AD192D
:103070001B8384ED9EEC9A838983BE016D5F7F4F35
:10308000CE0101960E94AD191B8387EF94EC9A83C1
:103090008983BE016D5F7F4FCE0101960E94AD19FD
:1030A0001B8380E298E99A838983BE016D5F7F4F1D
:1030B000CE0101960E94AD191B8386E69CEC9A8393
:1030C0008983BE016D5F7F4FCE0101960E94AD19CD
:1030D0001B8380E090EE9A838983BE016D5F7F4FF2
:1030E000CE0101960E94AD191B8380E098EC9A8373
:1030F0008983BE016D5F7F4FCE0101960E94AD199D
:103100001B8380E090EC9A838983BE016D5F7F4FC3
:10311000CE0101960E94AD1964EF71E080E090E06D
:103120000E941C1E40E050E06DE677E180E00E94C6
:10313000191D0F900F900F90DF91CF911F9108955F
:10314000CF93DF93CDB7DEB72C970FB6F894DEBFE1
:103150000FBECDBF2BE0E6E0F1E0DE01119601905D
:103160000D922A95E1F7DA012C9111963C91119775
:103170001296EC91129713964C914A83EB833C8301
:103180002D83FC0180818F83DB018C9188878BE00C
:103190008C8721E0AE01445F5F4FBE016F5F7F4FC0
:1031A00086EF93E00E9458140E94E8162C960FB602
:1031B000F894DEBF0FBECDBFDF91CF910895EF929F
:1031C000FF920F931F93CF93DF9300D0CDB7DEB75D
:1031D0008C018BE4E82EE98291E4F92EFA82A801B1
:1031E000BE016F5F7F4FCE0102960E94A01862E37E
:1031F00070E080E090E00E941C1EE982FA82A80143
:10320000BE016F5F7F4FCE0102960E94A0180F9003
:103210000F90DF91CF911F910F91FF90EF90089544
:10322000CF93DF9300D0CDB7DEB723E5298320E528
:103230002A83AC01BE016F5F7F4FCE0102960E94D0
:10324000A0180F900F90DF91CF91089586EF93E033
:103250000E94CD1386E493E00C949D160C94901F6D
:103260000C942B2040E052EC61E070E082E394E0AB
:103270000E94541B67E173E082E394E00E947B1C90
:103280008AE094E00E94660968E273E082E394E0D9
:103290000C947B1C8AE094E00C9478130E94421EEC
:1032A0000E9432190E944A19FDCF8AE094E00C94E2
:1032B000350983E991E09093200480931F048FE106
:1032C00094E00E94390789E891E09093120480937A
:1032D000110481E194E00C94E806882311F02A9807
:1032E00008952A9A089580E00E946D19229A61E05B
:1032F0008AE00E94DF1E61E08DE00E94A71E61E06F
:103300008BE00E94A71E61E08AE00E94A71E60E099
:103310008CE00E94A71E80E58CBD60E082E00E94E8
:10332000A71E61E082E00E94DF1E8DB581608DBD29
:103330008CB58D7F8CBD8CB581608CBD8CB5877F45
:103340008CBD8CB58B7F8CBD0895FC0180818EBDBA
:103350000DB407FEFDCF8EB50895CF92DF92EF92A8
:10336000FF920F931F93CF93DF931F92CDB7DEB7DA
:103370007C016B01FB01808181112A98F701818119
:103380008983CE0101960E94A519182F00E0F7014C
:1033900080818983CE0101960E94A519082BF60130
:1033A0008081882319F080E00E946D19C8010F9078
:1033B000DF91CF911F910F91FF90EF90DF90CF9011
:1033C0000895DF92EF92FF920F931F93CF93DF93B5
:1033D000EC017B011882D12C82E394E00E944E1A0A
:1033E000892BE1F08E010D0D111D82E394E00E9406
:1033F0007D1AF8018083D3940D2D10E0FE01E00FBB
:10340000F11F3197608182E394E00E945E1CF70116
:10341000808190E001970817190739F0FE01ED0D42
:10342000F11D319780818D30B9F669EF72E082E34A
:1034300094E00E947B1C82E394E00E949F1ACD0DD1
:10344000D11D1882DF91CF911F910F91FF90EF90C6
:10345000DF900895CF93DF93CDB7DEB760970FB6B7
:10346000F894DEBF0FBECDBF8FE0888BBE01605FDA
:103470007F4FCE0101960E94E11940E050E060E0EC
:1034800070E0CE0101960E94C72060960FB6F894B6
:10349000DEBF0FBECDBFDF91CF910895FC018485C3
:1034A0009585FC01E05CFF4F20813181FC01EE5BE2
:1034B000FF4F80819181281B390B2F733327C9015E
:1034C0000895FC0184859585FC01E05CFF4F4081F7
:1034D0005181FC01EE5BFF4F208131814217530780
:1034E00041F00190F081E02DE80FF91F208130E0DC
:1034F00002C02FEF3FEFC9010895FC018485958537
:10350000FC01E05CFF4F40815181FC01EE5BFF4F0D
:10351000208131814217530771F0A081B181A80F3A
:10352000B91F2C918081918101968F739927918386
:10353000808330E002C02FEF3FEFC9010895FC0106
:1035400086859785FC01E05CFF4FDC01AE5BBF4FD9
:10355000408151812D913C91119742175307C1F73A
:103560000895CF93DF93FC0126853785D901A05CB0
:10357000BF4F8D919C91119701968F739927E90107
:10358000CE5BDF4F4881598184179507D9F30D90A1
:10359000BC91A02DA20FB31F6C93A685B785A05C2C
:1035A000BF4F11969C938E93A689B7892C9181E089
:1035B00090E0058C02C0880F991F0A94E2F7282B2F
:1035C0002C9381E090E0DF91CF9108951F920F92AC
:1035D0000FB60F9211242F933F934F938F939F9386
:1035E000EF93FF934091C6008091D5049091D6044B
:1035F00001968F7399272091D7043091D8048217B0
:10360000930759F0E091D504F091D604EB56FB4FA7
:1036100040839093D6048093D504FF91EF919F91BE
:103620008F914F913F912F910F900FBE0F901F9050
:1036300018951F920F920FB60F9211242F933F935C
:103640008F939F93EF93FF93209191043091920475
:1036500080919304909194042817390731F4809154
:10366000C1008F7D8093C10014C0E0919304F0915C
:103670009404EF5AFB4F208180919304909194041D
:1036800001968F73992790939404809393042093C9
:10369000C600FF91EF919F918F913F912F910F90D5
:1036A0000FBE0F901F901895CF92DF92EF92FF926E
:1036B000CF93DF93EC016A017B01411581EE58073E
:1036C00061057105F9F0EC89FD8981E090E00E8CCF
:1036D00002C0880F991F0A94E2F7808360E079E0C6
:1036E0008DE390E0A70196010E94161F2150310939
:1036F000410951095695479537952795211580E140
:10370000380798F0EC89FD89108260E874E88EE152
:1037100090E0A70196010E94161F2150310941092E
:1037200051095695479537952795E889F98930834A
:10373000EA89FB892083EE89FF89408181E090E05E
:103740009C010A8C02C0220F331F0A94E2F7422B1D
:103750004083EE89FF8940819C010B8C02C0220FBF
:10376000331F0A94E2F7422B4083EE89FF894081A0
:103770009C010C8C02C0220F331F0A94E2F7422BEB
:103780004083EE89FF8920810D8C02C0880F991F2C
:103790000A94E2F7809582238083DF91CF91FF9096
:1037A000EF90DF90CF90089510923504109234047A
:1037B00088EE93E0A0E0B0E0809336049093370465
:1037C000A0933804B09339048AE393E090933304D0
:1037D0008093320485E994E090933F0480933E0403
:1037E00081E594E0909341048093400485EC90E05F
:1037F000909343048093420484EC90E090934504BA
:103800008093440480EC90E09093470480934604B6
:1038100081EC90E0909349048093480486EC90E01A
:1038200090934B0480934A0484E080934C0483E09B
:1038300080934D0487E080934E0485E080934F048D
:1038400081E0809350040895CF92DF92EF92FF922F
:103850000F931F93CF93DF936C01EB017A01E60E78
:10386000F71E00E010E00BC06991D601ED91FC91CC
:103870000190F081E02DC6010995080F191FCE15A2
:10388000DF0591F7C801DF91CF911F910F91FF9054
:10389000EF90DF90CF900895DB010D900020E9F7C5
:1038A000AD0141505109461B570BDC01ED91FC91D4
:1038B0000280F381E02D09940C944C1CDC01ED9105
:1038C000FC910190F081E02D09940F931F93CF9309
:1038D000DF93EC016DE00E945E1C8C016AE0CE017A
:1038E0000E945E1C9C01200F311FC901DF91CF9106
:1038F0001F910F9108950F931F93CF93DF93EC01C6
:103900000E944C1C8C01CE010E94651C9801280F5E
:10391000391FC901DF91CF911F910F9108955F92D7
:103920006F927F928F929F92AF92BF92CF92DF92CF
:10393000EF92FF920F931F93CF93DF93CDB7DEB734
:10394000A1970FB6F894DEBF0FBECDBF3C016A0150
:103950007B01522E19A281E0821710F08AE0582EC6
:103960008E010F5D1F4F852C912CA12CB12CC7010E
:10397000B601A50194010E94161F8C2D529E80193C
:103980001124015011098A3010F4805D01C0895C56
:10399000F801808369017A01C114D104E104F104C2
:1039A00031F7B801C3010E944C1CA1960FB6F894E0
:1039B000DEBF0FBECDBFDF91CF911F910F91FF9062
:1039C000EF90DF90CF90BF90AF909F908F907F90BF
:1039D0006F905F9008952115310541F4DC01ED9160
:1039E000FC910190F081E02D642F09940C948F1CC0
:1039F0000F931F93CF93DF93EC010E94EB1C8C017C
:103A0000CE010E94651C9C01200F311FC901DF916E
:103A1000CF911F910F9108959A01AB0160E070E082
:103A20000C94EB1C9A01462F50E060E070E00C947F
:103A3000EB1C8230E8F4E82FF0E0EE0FFF1FE752B6
:103A4000FB4F71836083813041F0809169008C7FEE
:103A5000842B80936900E89A089580916900440F4F
:103A6000551F440F551F837F842B80936900E99A6B
:103A700008951F920F920FB60F9211242F933F9328
:103A80004F935F936F937F938F939F93AF93BF9366
:103A9000EF93FF938091D9049091DA04892B29F058
:103AA000E091D904F091DA040995FF91EF91BF916B
:103AB000AF919F918F917F916F915F914F913F91C6
:103AC0002F910F900FBE0F901F9018951F920F927D
:103AD0000FB60F9211242F933F934F935F936F93E1
:103AE0007F938F939F93AF93BF93EF93FF938091B7
:103AF000DB049091DC04892B29F0E091DB04F09148
:103B0000DC040995FF91EF91BF91AF919F918F9147
:103B10007F916F915F914F913F912F910F900FBEC9
:103B20000F901F9018950C942B2008951F920F92C0
:103B30000FB60F9211242F933F938F939F93AF93C0
:103B4000BF938091DD049091DE04A091DF04B091D9
:103B5000E0043091E504232F2D5F2D3720F40196EA
:103B6000A11DB11D05C0232F2A570296A11DB11D0D
:103B70002093E5048093DD049093DE04A093DF049A
:103B8000B093E0048091E1049091E204A091E304F9
:103B9000B091E4040196A11DB11D8093E1049093BE
:103BA000E204A093E304B093E404BF91AF919F912A
:103BB0008F913F912F910F900FBE0F901F901895EE
:103BC0000F931F938FB7F8940091DD041091DE04DA
:103BD0002091DF043091E0048FBFB801C9011F912B
:103BE0000F9108950F931F939FB7F8940091E104EC
:103BF0001091E2042091E3043091E40486B5A89B7F
:103C000006C08F3F21F00F5F1F4F2F4F3F4F9FBFC9
:103C1000322F212F102F0027080F111D211D311DBC
:103C200042E0000F111F221F331F4A95D1F7B80140
:103C3000C9011F910F910895CF92DF92EF92FF92E9
:103C4000CF93DF936B017C010E94F21DEB010EC04C
:103C50000E94F21D6C1B7D0B683E734038F081E0C2
:103C6000C81AD108E108F108C851DC4FC114D104C9
:103C7000E104F10469F7DF91CF91FF90EF90DF90BD
:103C8000CF900895789484B5826084BD84B58160B6
:103C900084BD85B5826085BD85B5816085BDEEE654
:103CA000F0E0808181608083E1E8F0E01082808133
:103CB00082608083808181608083E0E8F0E08081A1
:103CC00081608083E1EBF0E0808184608083E0EBC1
:103CD000F0E0808181608083EAE7F0E080818460A9
:103CE0008083808182608083808181608083808105
:103CF000806880831092C1000895833069F028F4B1
:103D00008130A1F0823011F514C08630B1F08730D7
:103D1000C1F08430D9F404C0809180008F7703C053
:103D2000809180008F7D80938000089584B58F7787
:103D300002C084B58F7D84BD08958091B0008F77D7
:103D400003C08091B0008F7D8093B0000895CF9321
:103D5000DF9390E0FC01E458FF4F4491FC01E057F1
:103D6000FF4F8491882341F190E0880F991FFC0157
:103D7000E255FF4F25913491D9018C559F4FFC019D
:103D800085919491C82FD92F9FB7F8948C91611188
:103D900006C0409584238C938881842308C06230B8
:103DA00041F4242F209582238C938881842B88834F
:103DB00002C0842B8C939FBFDF91CF9108950F9306
:103DC0001F93CF93DF931F92CDB7DEB7282F30E03C
:103DD000F901E859FF4F8491F901E458FF4F14911C
:103DE000F901E057FF4F04910023D1F0882321F01F
:103DF00069830E947D1E6981E02FF0E0EE0FFF1FB6
:103E0000EC55FF4F85919491DC019FB7F8948C910C
:103E1000611103C01095812301C0812B8C939FBF3A
:103E20000F90DF91CF911F910F910895A1E21A2E6B
:103E3000AA1BBB1BFD010DC0AA1FBB1FEE1FFF1F4E
:103E4000A217B307E407F50720F0A21BB30BE40B9E
:103E5000F50B661F771F881F991F1A9469F76095E5
:103E60007095809590959B01AC01BD01CF0108959F
:103E70002F923F924F925F926F927F928F929F927A
:103E8000AF92BF92CF92DF92EF92FF920F931F9368
:103E9000CF93DF93CDB7DEB7CA1BDB0B0FB6F89419
:103EA000DEBF0FBECDBF09942A88398848885F8459
:103EB0006E847D848C849B84AA84B984C884DF80CA
:103EC000EE80FD800C811B81AA81B981CE0FD11DAE
:103ED0000FB6F894DEBF0FBECDBFED010895EE0F13
:103EE000FF1F0590F491E02D09940E947E1F84FF2E
:103EF0000895CB010E947E1F805F0895AA27992311
:103F000029F4A85F982B11F480E10895903118F4FA
:103F1000AD5F9295A395990FE8F78A2F9927089599
:103F20000F931F93CF93DF938230910510F482E0BB
:103F300090E0E091E804F091E90420E030E0C0E096
:103F4000D0E023C04081518148175907A8F0481795
:103F5000590761F482819381209719F09B838A83AA
:103F60002EC09093E9048093E80429C021153105FF
:103F700029F04217530710F0A90102C0BE01DF016A
:103F800002811381EF019A01F8013097D9F62115CA
:103F9000310509F1281B390B2430310590F41296B4
:103FA0008D919C9113976115710521F0FB0193830D
:103FB000828304C09093E9048093E804FD01329663
:103FC00044C0FD01E20FF31F819391932250310908
:103FD0002D933C933AC02091E6043091E704232BC3
:103FE00041F420910201309103013093E7042093C2
:103FF000E60420910001309101012115310541F4C1
:104000002DB73EB74091040150910501241B350B9B
:10401000E091E604F091E704E217F307A0F42E1B09
:104020003F0B2817390778F0AC014E5F5F4F24171C
:10403000350748F04E0F5F1F5093E7044093E604A6
:104040008193919302C0E0E0F0E0CF01DF91CF9146
:104050001F910F910895EF92FF920F931F93CF93AB
:10406000DF93009709F48EC0DC01129713961C921F
:104070001E921297E090E804F090E904E114F10434
:1040800089F42D913C911197280F391F8091E604F6
:104090009091E7048217930789F5B093E704A09302
:1040A000E60470C0E70120E030E001C0EA01CA1771
:1040B000DB0738F44A815B819E0141155105B1F758
:1040C00022C0AC0142505109FA01D383C28300815E
:1040D0001181BC01600F711F6C177D0761F468814D
:1040E0007981600F711F6E5F7F4F718360836A817A
:1040F0007B81738362832115310529F4B093E90430
:10410000A093E8043FC0F901B383A283E901499178
:104110005991C40FD51FAC17BD0771F4DC019E91F6
:104120008E91840F951F02969183808312968D91B4
:104130009C91139793838283A0E0B0E002C0D701E3
:104140007C01F701828193810097C9F7C70102962C
:1041500020813181820F931F2091E6043091E70482
:104160002817390779F4109729F41092E90410926E
:10417000E80404C013961C921E921297F092E70472
:10418000E092E604CDB7DEB7E6E00C94601FA0E055
:10419000B0E0EDECF0E20C94381F1B013A01611520
:1041A000710519F0FB01808391836114710439F06A
:1041B0009301225031092332310508F0C7C08C0128
:1041C000F801D1918F012F018D2F90E00E94C22123
:1041D000892BB1F7DD3229F4F801D1912F01C1E02B
:1041E00006C0DB3219F4F801D1912F01C0E061144F
:1041F000710409F4B5C0F0E16F16710489F4B7C019
:10420000F2018081883719F0883509F0A3C0F201E6
:10421000D181F2E04F0E511CC26050E1652E712C2D
:104220008AE06816710439F1E0E16E16710429F034
:10423000F8E06F16710491F407C0CC24CA94DC2C0A
:10424000EC2C4FE0F42E1DC028E0622E712CCC2403
:10425000CA94DC2CEC2C3FE1F32E13C093014427CD
:1042600037FD4095542F6FEF7FEFCB010E94161F53
:1042700069017A0106C099E9C92EDC2CEC2C99E180
:10428000F92E90E020E030E0A9014301AA2497FC38
:10429000A094BA2CED2FE053EA3060F08D2F8154BA
:1042A0008A3110F4E75006C08D2F81568A3140F5CF
:1042B000ED2FE7556E2F70E0661577050CF59F3FE3
:1042C000D9F0C216D306E406F50698F0C501B4018C
:1042D0000E94CD219B01AC018E2F90E0A0E0B0E0C8
:1042E000280F391F4A1F5B1F281739074A075B072A
:1042F00010F49FEF01C091E0F201D1912F01CACFDC
:104300002114310471F0992321F0F1E04F1A510882
:1043100005C0C1FF06C0F2E04F1A5108F1015182F9
:104320004082C0FF07C050954095309521953F4F82
:104330004F4F5F4F97FF1FC082E290E09093EB04D6
:104340008093EA042FEF3FEFA90115C020E030E091
:10435000A90111C0D0E36114710409F475CF60CFD5
:10436000D03309F44DCF8AE0682E712C84CFD0333E
:1043700009F056CF45CFB901CA01CDB7DEB7E2E1AA
:104380000C94541F911106C0803219F08950855049
:10439000D0F70895992788270895DB018F939F937D
:1043A0000E94DD21BF91AF91A29F800D911DA39F1F
:1043B000900DB29F900D112408950E94E821A59FB1
:1043C000900DB49F900DA49F800D911D1124089510
:1043D000A29FB001B39FC001A39F01D0B29F700DF7
:1043E000811D1124911D089510E0CEEBD0E004C092
:1043F000FE010E94711F2296C03CD107C9F7F894B4
:02440000FFCFEC
:104402000000EC042000460000000000414B0000C8
:104412004F00000000000000002043435F54525848
:10442200002043435F5458007B69643A20002C20EB
:1044320074696D655F6C6173745F7365656E3A0074
:104442002C206E756D5F706572696F6473206D6983
:10445200737365643A20002C206574613A20002C45
:104462002073616D706C655F706572696F643A206C
:104472000000000000CE06DA06EC0700000000D4BF
:1044820006E10696070000000028072F07900700A4
:10449200000000790780078A0700000000E8061E76
:1044A20007951D0000000039076F07951D41434B1A
:1044B200206C697374696E6720616C6C00733A00DA
:1044C20041434B20656E746572200020494420747C
:1044D2006F206164643A0041434B004E414B206EB1
:1044E2006F74002061646465640041434B20617510
:1044F200746F5F70616972206F6E0041434B20617F
:1045020075646F5F70616972206F6666004E414B21
:1045120020456E61626C65206D616E75616C207004
:10452200616972696E67206265666F7265202770C5
:104532002720636D642E0041434B20456E746572E3
:104542002049443A0041434B20706169725F7769A8
:1045520074682073657420746F20004E414B206490
:104562006562756767696E672064697361626C650D
:1045720064210041434B206F6E6C79207072696E2A
:104582007420646174612066726F6D206B6E6F7748
:104592006E207472616E736D69747465727300411A
:1045A200434B207072696E7420616C6C2076616C72
:1045B2006964207061636B6574730041434B2070C2
:1045C20072696E7420616C6C0041434B2064656CAF
:1045D2006574656420616C6C004E414B20756E728F
:1045E20065636F676E6973656420636F6D6D616E7D
:1045F200642027007B50523A20007B70773A2000DB
:10460200207D002C20743A20002C2073002C207373
:10461200746174653A20004544462049414D205258
:10462200656365697665720046696E69736865647B
:1046320020696E69740000000000B11A241C4E1A31
:064642007D1A611A9F1AA7
:00000001FF
