:100000000C9464000C94BC120C94E9120C948C00B7
:100010000C948C000C948C000C948C000C948C0030
:100020000C948C000C948C000C948C000C948C0020
:100030000C948C000C948C000C948C000C948C0010
:100040000C942E1B0C948C000C94AF0D0C94E00DB2
:100050000C948C000C948C000C948C000C948C00F0
:100060000C948C000C948C000000000024002700ED
:100070002A0000000000250028002B0000000000DE
:1000800023002600290004040404040404040202DA
:100090000202020203030303030301020408102007
:1000A0004080010204081020010204081020000012
:1000B0000007000201000003040600000000000029
:1000C0000000380C760C3B0F11241FBECFEFD8E098
:1000D000DEBFCDBF14E0A0E0B1E0ECE5FFE402C07C
:1000E00005900D92A232B107D9F716E0A2E2B4E072
:1000F00001C01D92AB37B107E1F710E0C8ECD0E0CA
:1001000004C02297FE010E943B24C23CD107C9F7DC
:100110000E946F0C0C94AC270C940000FC01108220
:100120001182128213822FEF3FEF4FEF5FEF248394
:100130003583468357830895CF93DF93EC01CB013A
:100140000E945F07FC0180819181A281B381805967
:10015000984EAF4FBF4F88839983AA83BB83DF91AB
:10016000CF910895FC01608171818281938108950E
:100170000F931F93CF93DF938C01FC0180819181BA
:10018000A281B3818059984EAF4FBF4F8083918336
:10019000A283B3830E94761BAB01BC01CAE4D6E004
:1001A000CE012AE030E00E94ED10CE0160E071E067
:1001B0000E940910F8014481558166817781CE0142
:1001C0002AE030E00E94ED10CE0166E071E00E946E
:1001D0000910F8014081518162817381CE012AE0CA
:1001E00030E00E94FC10DF91CF911F910F91089594
:1001F000FB012081318142815381FC0124833583BD
:10020000468357830895FC016481758186819781B7
:100210000895CF93DF93FC01EC0125E030E08FEFF0
:100220009FEFAFEFBFEF188219821A821B828C8377
:100230009D83AE83BF832150304028962115310520
:1002400091F711A612A6DF01A854BF4F1C92DF013F
:10025000A754BF4F1D921D921D921C92139782E0CE
:1002600080A72FE733E040E050E0248335834683C6
:1002700057832CE130E040E050E024873587468703
:10028000578781E083A723E030E040E155E524A7CC
:1002900035A746A757A7DF91CF910895BF92CF9278
:1002A000DF92EF92FF920F931F93CF93DF93EB01B7
:1002B000BA01FC01B0A4DC01E0E0F0E01CC06F0179
:1002C0001496ED90FD900D911C911797319618960C
:1002D000288139814A815B81E216F30604071507FC
:1002E00051F423E0CC0CDD1C2A95E1F78C0D9D1D0B
:1002F0000E949C0002C0EB1510F3DF91CF911F917B
:100300000F91FF90EF90DF90CF90BF900895FC0188
:1003100082A58F5F82A793A5891708F012A6E854DB
:10032000FF4F10820895EF92FF920F931F93CF9388
:10033000DF93EC01ABA5FC01BC9680E00FC0E1901F
:10034000F19001911191EB01288139814A815B8102
:10035000E216F3060407150729F08F5F8A1778F372
:1003600080E001C081E0DF91CF911F910F91FF905C
:10037000EF9008956F927F928F929F92AF92BF926B
:10038000CF92DF92EF92FF920F931F93DF93CF9361
:1003900000D000D0CDB7DEB75C014B01FF24EE24C6
:1003A00038E2632E712C6E010894C11CD11C4EC022
:1003B0008F2D90E0869D8001879D100D969D100DDC
:1003C0001124045C1B4FC8010E94D6048823E9F164
:1003D000C8010E945207882341F1C8010E94AF055D
:1003E000C8010E945507FC0180819181A281B381DF
:1003F00089839A83AB83BC83EE24E394F401208148
:1004000031814281538182179307A407B50709F010
:10041000EE24C501B6010E9493018823B1F4C50101
:10042000B601A8010E944E0110C00E94761BAB01CC
:10043000BC018AE496E02AE030E00E94ED108AE4F4
:1004400096E06EE171E00E945A10F39480913B04B3
:100450008F1508F0ADCF8BE394E00E944A088E2DF3
:100460000F900F900F900F90CF91DF911F910F91F0
:10047000FF90EF90DF90CF90BF90AF909F908F90C4
:100480007F906F900895EF92FF920F931F93CF93F9
:10049000DF93EC018AA58823E9F40E94761B9B0177
:1004A000AC01FE01E754FF4F80819181A281B381AD
:1004B0008059984EAF4FBF4F281739074A075B073F
:1004C00008F067C0FE01E854FF4F8081882309F4DB
:1004D00071C05FC00E94761BAB01BC018AE496E04C
:1004E0002AE030E00E94ED108AE496E067E371E0D4
:1004F0000E940910EAA5F0E03B96EE0FFF1FEE0FF9
:10050000FF1FEC0FFD1F40815181628173818AE4DE
:1005100096E02AE030E00E94FC108AA590E00B965D
:10052000880F991F880F991F8C0F9D1F0E94D50B54
:100530000E94761B7B018C0184E690E0A0E0B0E095
:10054000E80EF91E0A1F1B1F15C08BE394E00E94E2
:10055000B908882379F06AA570E0655F7F4F660F60
:10056000771F660F771F6C0F7D1FCE010E94BA01A7
:10057000882359F40E94761B6E157F05800791072A
:1005800020F311C08F5F808315C0CE010E948701C8
:1005900011C00E94761BFE01E754FF4F60837183F8
:1005A0008283938397CFFE01E854FF4F808185308B
:1005B00048F3EBCFDF91CF911F910F91FF90EF9018
:1005C00008950F931F93CF93DF93EC0108A5BC010F
:1005D00010E01BC0E9A5F0E0B3E0EE0FFF1FBA95F5
:1005E000E1F7EC0FFD1FDB012D913D914D915C91E9
:1005F00080819181A281B381281739074A075B075F
:1006000008F419A71F5F685F7F4F101719F70E9442
:10061000761BAB01BC018AE496E02AE030E00E9440
:10062000ED108AE496E065E471E00E940910E9A506
:10063000F0E0A3E0EE0FFF1FAA95E1F7EC0FFD1F1E
:1006400044815581668177818AE496E02AE030E032
:100650000E94ED108AE496E062E671E00E940910C3
:10066000E9A5F0E073E0EE0FFF1F7A95E1F7EC0FDC
:10067000FD1F40815181628173818AE496E02AE006
:1006800030E00E94FC10DF91CF911F910F910895EF
:100690008F929F92AF92BF92CF92DF92FF920F9371
:1006A0001F93DF93CF9300D000D0CDB7DEB78C017E
:1006B0000E94761B5B016C010E94761BAB01BC01A2
:1006C0008AE496E02AE030E00E94ED108AE496E0A9
:1006D00068E671E00E945A10FF2488EE93E0A0E0E3
:1006E000B0E0A80EB91ECA1EDB1E4E010894811C84
:1006F000911C1BC0D8019996EC91F0E033E0EE0F0D
:10070000FF1F3A95E1F7E00FF11F84819581A681E3
:10071000B78189839A83AB83BC83C801B4010E94EB
:10072000BA01882311F0FF24F3940E94761B6A1506
:100730007B058C059D0548F4FF2039F48BE394E09C
:100740000E94B908882389F3D5CF0E94761BAB019C
:10075000BC018AE496E02AE030E00E94ED108AE4D1
:1007600096E066E771E00E9409108AE496E06F2D3A
:1007700070E04AE050E00E94A511FF2061F4F8010A
:1007800081A590E023E0880F991F2A95E1F7800F5B
:10079000911F0E94B800C8010E94E1020F900F90C3
:1007A0000F900F90CF91DF911F910F91FF90DF90ED
:1007B000CF90BF90AF909F908F900895CF93DF938D
:1007C000EC0188A58823D1F00E94761B9B01AC0127
:1007D000E9A5F0E063E0EE0FFF1F6A95E1F7EC0F8B
:1007E000FD1F80819181A281B381845F9140A040EF
:1007F000B040281739074A075B0720F4CE010E9452
:10080000430203C0CE010E944803DF91CF910895B7
:10081000AF92BF92CF92DF92EF92FF920F931F930E
:10082000DF93CF9300D000D0CDB7DEB76C010E942C
:10083000E1020E94D70A0E944A090E94761BAB017E
:10084000BC018AE496E02AE030E00E94ED108AE4E0
:1008500096E06FE871E00E945A100E94761B7B01BF
:100860008C0180E395E7A0E0B0E0E80EF91E0A1FD6
:100870001B1F5E010894A11CB11C0EC08BE394E009
:100880000E94B908882341F019821A821B821C82B7
:10089000C601B5010E94BA010E94761B6E157F0544
:1008A0008007910758F30E94761BAB01BC018AE4D4
:1008B00096E02AE030E00E94ED108AE496E06FEACC
:1008C00071E00E945A10C6010E94E1020F900F9041
:1008D0000F900F90CF91DF911F910F91FF90EF90AC
:1008E000DF90CF90BF90AF900895FC0186E18083A8
:1008F00011820895FB012081FC0120830895FC01F1
:1009000080E090E011C031812081321760F42181B4
:10091000DB01A80FB91F3C91DF01A20FB11D129698
:100920003C932F5F21830196DA012C9130E08217EE
:1009300093074CF30895FC0191818081981758F436
:100940008181DB019C91DF01A80FB11D12969C9360
:1009500012978F5F818308950F931F93CF93DF9337
:100960008C01C0E0D0E011C0F801EC0FFD1F6281E6
:100970008AE496E040E150E00E942D118AE496E07E
:100980006DEC71E00E9409102196F801808190E0E1
:10099000C817D9074CF38AE496E06FEC71E00E9427
:1009A0005A10DF91CF911F910F910895FC01218181
:1009B000908181E0291708F480E00895FC011182FC
:1009C0000895FB016081282F392FF90190E080E024
:1009D00003C02191820F9F5F9617D8F30895FC0101
:1009E00081810895FC0191818081981750F4918153
:1009F000DF01A90FB11D12968C9112979F5F918311
:100A0000089580E008959F92AF92BF92CF92DF92B7
:100A1000EF92FF920F931F93DF93CF93CDB7DEB783
:100A200027970FB6F894DEBF0FBECDBF8C016B01C8
:100A30007A01B22EDE011596E4E1F2E083E0019046
:100A40000D928150E1F780E48B831C8283E08983DF
:100A500082E08A83F8011182A02E912EC801BE0186
:100A60006B5F7F4FAE014F5F5F4F0E947F04C801F5
:100A7000B601A7010E947F04BB2081F0C601B70127
:100A80000E94E104F80121819081291738F49181B5
:100A9000E90FF11D82839F5FF80191838A2D992DC3
:100AA000BE016D5F7F4FAE014E5F5F4F0E947F04BE
:100AB000F70180818B5F8B0DF8018083118227966F
:100AC0000FB6F894DEBF0FBECDBFCF91DF911F915F
:100AD0000F91FF90EF90DF90CF90BF90AF909F90DD
:100AE0000895FC0186E180831182118E128E138E8F
:100AF000148E158E2FEF3FEF4FEF5FEF24A335A33A
:100B000046A357A308950F931F93CF93DF93EC0150
:100B10008B01998188819817E8F48981882389F469
:100B20000E94761B698F7A8F8B8F9C8FF801808152
:100B3000853521F481E0888F80E102C0188E8CE039
:100B400088838981F8019081FE01E80FF11D92836D
:100B50008F5F8983DF91CF911F910F9108951F932C
:100B6000CF93DF93EC010E94761BAB01BC018AE4BA
:100B700096E02AE030E00E94ED108AE496E060ED15
:100B800071E00E9409104CA15DA16EA17FA18AE4D1
:100B900096E02AE030E00E94ED108AE496E067EDEE
:100BA00071E00E9409108AE496E06AED71E00E940B
:100BB0000910498D5A8D6B8D7C8D8AE496E02AE070
:100BC00030E00E94ED1010E08E8D9F8D2FEF8F3F53
:100BD0009207D9F08AE496E06EED71E00E94091068
:100BE0008AE496E0612F4AE050E00E942D118AE4E9
:100BF00096E062EE71E00E9409106E8D7F8D8AE4AE
:100C000096E04AE050E00E940F111F5F22961330D9
:100C1000D9F68AE496E065EE71E00E945A10DF9101
:100C2000CF911F910895FC011182108E8FEF9FEFDD
:100C300093A382A391A380A3978F868F2FEF3FEF7B
:100C40004FEF5FEF24A335A346A357A3158E118E54
:100C5000128E138E148E8CE0808308950F931F9351
:100C6000DF93CF930F92CDB7DEB78C01DC018C916F
:100C700081508983C8010296BE016F5F7F4F0E9439
:100C8000E104D801EC91F0E03197E00FF11F2281EF
:100C900091E0821390E0892F0F90CF91DF911F9107
:100CA0000F910895CF93DF93FC018FEF9FEF978F04
:100CB000868F91A380A393A382A3808D8823F9F0CC
:100CC000DF0182E090E0EF01C80FD91F4A8147FFA2
:100CD00010C05A81EC012196CE0FDF1F4A81352FBB
:100CE0003F7720E050E0422B532B5F965C934E936E
:100CF0005E97029612968830910529F709C0938570
:100D00008285392F20E090E0822B932B978F868F5E
:100D1000DF91CF9108951F93FC0114A215A216A292
:100D200017A2808D882399F02281838130E02F7073
:100D30003070322F2227442737FD4095542F90E002
:100D4000A0E0B0E0282B392B4A2B5B2B25C0238158
:100D500064811581A68130E040E050E0522F4427A5
:100D60003327222770E080E090E0CB0177276627C9
:100D7000262B372B482B592B8A2F90E0A0E0B0E090
:100D8000282B392B4A2B5B2B712F60E080E090E001
:100D9000262B372B482B592B24A335A346A357A327
:100DA0001F910895AF92BF92CF92DF92EF92FF9280
:100DB0000F931F93CF93DF93FC0190E0AA24A39499
:100DC00080E0C0E8D0E020E4C22ED12C38C07E0103
:100DD000042E02C0F594E7940A94E2F77C917E21F8
:100DE0007E1571F07601042E02C0F594E7940A9402
:100DF000E2F7B701EC90E622E61621F480E003C0AA
:100E000081E001C0AA24BB0CB82A4E5F5F4F483076
:100E10005105E9F62F5F3F4F2017310739F040E0C9
:100E200050E0DF01A20FB31F1296D1CF292F2695D4
:100E3000DF01A20FB11D1296BC9212979E5F208116
:100E4000921738F4292F30E089010E5F1F4FBB2421
:100E5000E6CF9081969590838A2DDF91CF911F9157
:100E60000F91FF90EF90DF90CF90BF90AF900895DB
:100E7000CF93DF93EC01888D882321F0CE010E946F
:100E8000D20603C0CE010E942E068D8F8D8D882341
:100E900031F0CE010E945206CE010E948B06DF91F6
:100EA000CF910895FC01858D08959C012C5D3F4FE5
:100EB000C90108959C01225E3F4FC90108959C011C
:100EC000275E3F4FC9010895CF93DF93FC01EB01EB
:100ED000DC011D9287539F4F66E12FEF3FEF4FEFED
:100EE0005FEF6C9311961C92119759961D921D926B
:100EF0001D921C925C975D961C925D9794962D9323
:100F00003D934D935C9397979896A817B90749F727
:100F100088818183888181A78881DF01AF5ABF4F93
:100F20008C938881DF01A758BF4F8C938881EF5540
:100F3000FF4F8083DF91CF9108950F931F93CF933D
:100F4000DF93EC01288130E008E210E0209FC0012F
:100F5000219F900D309F900D112401968C0F9D1FA5
:100F60000E9483052881822F90E0809FF001819F5D
:100F7000F00D909FF00D1124EC0FFD1F92818181E7
:100F8000981768F0253038F08AE496E068EE71E052
:100F90000E945A1002C02F5F288381E001C080E0C8
:100FA000DF91CF911F910F9108953F924F925F92E1
:100FB0006F927F928F929F92AF92BF92CF92DF9269
:100FC000EF92FF920F931F93CF93DF936C018AE40C
:100FD00096E069EF71E00E945A10E6016E96EE24E9
:100FE000FF2448E2842E912CAA24AA94BA2C4424EB
:100FF0004A94542C32013CE0332E33C0E89C8001EB
:10100000E99C100DF89C100D11240F5F1F4F0C0D63
:101010001D1DC8010E9438078881882319F0C80166
:101020000E94AC04E89CF001E99CF00DF89CF00DE6
:101030001124EC0DFD1D1282118EBE82AD82BC8288
:10104000AB82BA82A9824F82588669867A861882D4
:10105000128E138E148E158E31820894E11CF11CB1
:10106000A896F601808190E0E816F9063CF210821D
:10107000DF91CF911F910F91FF90EF90DF90CF9074
:10108000BF90AF909F908F907F906F905F904F90A8
:101090003F900895DF92EF92FF920F931F93CF93AB
:1010A000DF93EC01488150E0FC017E9680E090E007
:1010B00068E270E02FEF3FEFEE24EA94FE2C870108
:1010C000ACE0DA2E25C0869FD001879FB00D969F99
:1010D000B00D1124AC0FBD1F12961C921297599699
:1010E0001C9259973683258334832383328321834B
:1010F000E782F0860187128710825A961D921D9210
:101100001D921C925D971196DC9211970196B896EC
:1011100084179507C4F288E290E0489FF001499F48
:10112000F00D589FF00D1124EC0FFD1F82818823D4
:1011300081F00E94761BAB01BC018AE496E02AE0B4
:1011400030E00E94ED108AE496E06DEF71E00E94BD
:101150005A101882DF91CF911F910F91FF90EF905D
:10116000DF900895FC0181E09081992309F480E0EB
:101170000895AF92BF92CF92DF92EF92FF920F93BA
:101180001F93DF93CF930F92CDB7DEB78C01FC0195
:101190008081882349F17801AA24BB2440E0B8E289
:1011A000CB2ED12C1AC0AC9C9001AD9C300DBC9CB8
:1011B000300D11242F5F3F4FC801820F931F4983C9
:1011C0000E943807F701868D4981482B0894A11C9D
:1011D000B11C88E290E0E80EF91EF801208130E0B1
:1011E000A216B30604F301C040E0842F0F90CF9104
:1011F000DF911F910F91FF90EF90DF90CF90BF9004
:10120000AF9008951F93DF93CF9300D00F92CDB787
:10121000DEB789E392E89B838A8311E01983CE01CC
:101220000296BE016F5F7F4F0E94BB0C1093220499
:101230000F900F900F90CF91DF911F9108951F9302
:10124000DF93CF9300D000D000D0CDB7DEB781E8D8
:101250009AEC9C838B8311E01983CE010396BE0127
:101260006F5F7F4F0E94BB0C83E89AEC9E838D8357
:101270001A83CE010596BE016E5F7F4F0E94BB0CA4
:1012800026960FB6F894DEBF0FBECDBFCF91DF918B
:101290001F910895DF93CF9300D00F92CDB7DEB7A3
:1012A00089ED92E89B838A8381E08983CE0102964F
:1012B000BE016F5F7F4F0E94BB0C109222040E9400
:1012C0001F090F900F900F90CF91DF910895DF933A
:1012D000CF9300D00F92CDB7DEB783E294E00E94A7
:1012E000F20490E0986B9B838A8381E08983CE012E
:1012F0000296BE016F5F7F4F0E94BB0C83E294E0B9
:101300000E94D604882311F00E944A090F900F9082
:101310000F90CF91DF9108951F93DF93CF93CDB7B7
:10132000DEB728970FB6F894DEBF0FBECDBF81E0C1
:101330000E947B0C1982CE0101960E94B30C182FDB
:101340001A82CE0102960E94B30C80912204882357
:10135000C9F515FF1DC01B82CE0103960E94B30C78
:101360008C838BE394E0BE016C5F7F4F0E949D07EE
:10137000182F1D82CE0105960E94B30C8E838BE33D
:1013800094E0BE016A5F7F4F0E949D07182B12C038
:1013900017FF0FC01F82CE0107960E94B30C8887EB
:1013A0008BE394E0BE01685F7F4F0E949D07182F7A
:1013B00001C010E080E00E947B0C112351F00E94DC
:1013C0001F0907C017FF02C00E94670980E00E9442
:1013D0007B0C28960FB6F894DEBF0FBECDBFCF9121
:1013E000DF911F910895FF920F931F93DF93CF9387
:1013F000CDB7DEB7AA970FB6F894DEBF0FBECDBF4C
:101400000AE416E0C80167E172E00E945A100E94E7
:10141000810C188A1F86FF24F394F982CE010F965F
:10142000BE016F5F7F4F0E94BB0C60ED77E080E0F4
:1014300090E00E94AA1BC80166E372E00E945A1065
:101440001A8A198AFA82CE014196BE016E5F7F4FD9
:101450000E94BB0C87E590E89C8B8B8BFB82CE01B6
:101460004396BE016D5F7F4F0E94BB0C89ED92E8F1
:101470009E8B8D8BFC82CE014596BE016C5F7F4FAB
:101480000E94BB0C88E196EA988F8F8BFD82CE017B
:101490004796BE016B5F7F4F0E94BB0C8AE896ECBB
:1014A0009A8F898FFE82CE014996BE016A5F7F4F77
:1014B0000E94BB0C80EC94E99C8F8B8FFF82CE0145
:1014C0004B96BE01695F7F4F0E94BB0C8CE692EC8D
:1014D0009E8F8D8FF886CE014D96BE01685F7F4F3F
:1014E0000E94BB0C81E89AEC98A38F8FF986CE01FD
:1014F0004F96BE01675F7F4F0E94BB0C83E89AEC5A
:101500009AA389A3FA86CE018196BE01665F7F4FBA
:101510000E94BB0C8FE994EC9CA38BA3FB86CE01AD
:101520008396BE01655F7F4F0E94BB0C80E090EE0A
:101530009EA38DA3FC86CE018596BE01645F7F4F7E
:101540000E94BB0C8EE098EC98A78FA3FD86CE017D
:101550008796BE01635F7F4F0E94BB0C80E090ECDA
:101560009AA789A7FE86CE018996BE01625F7F4F4A
:101570000E94BB0CC80168E672E00E945A1080E02D
:101580006CE879E040E050E00E948C12C8016CE702
:1015900072E00E945A10AA960FB6F894DEBF0FBEF2
:1015A000CDBFCF91DF911F910F91FF900895FF92D2
:1015B0000F931F93DF93CF93CDB7DEB7AD970FB6E1
:1015C000F894DEBF0FBECDBF0AE416E0C80167E89D
:1015D00072E00E945A100E94810C198A188AFF2416
:1015E000F394F982CE014096BE016F5F7F4F0E9457
:1015F000BB0C60ED77E080E090E00E94AA1BC80180
:1016000066E372E00E945A1088ED90E89B8B8A8B0B
:10161000FA82CE014296BE016E5F7F4F0E94BB0CE4
:1016200081E092E89D8B8C8BFB82CE014496BE01BB
:101630006D5F7F4F0E94BB0C84E396EA9F8B8E8B7D
:10164000FC82CE014696BE016C5F7F4F0E94BB0CB0
:1016500087E596EC998F888FFD82CE014896BE0172
:101660006B5F7F4F0E94BB0C80EC94E99B8F8A8F4D
:10167000FE82CE014A96BE016A5F7F4F0E94BB0C7C
:101680008CE292EC9D8F8C8FFF82CE014C96BE0136
:10169000695F7F4F0E94BB0C81E89AEC9F8F8E8F11
:1016A000F886CE014E96BE01685F7F4F0E94BB0C4C
:1016B00084ED9EEC99A388A3F986CE018096BE01A5
:1016C000675F7F4F0E94BB0C87EF94EC9BA38AA3BC
:1016D000FA86CE018296BE01665F7F4F0E94BB0CE8
:1016E00080E298E99DA38CA3FB86CE018496BE017F
:1016F000655F7F4F0E94BB0C86E69CEC9FA38EA388
:10170000FC86CE018696BE01645F7F4F0E94BB0CB3
:1017100080E090EE99A788A7FD86CE018896BE014D
:10172000635F7F4F0E94BB0C80E098EC9BA78AA769
:10173000FE86CE018A96BE01625F7F4F0E94BB0C7F
:1017400080E090EC9DA78CA7FF86CE018C96BE0111
:10175000615F7F4F0E94BB0CC80168E672E00E9487
:101760005A1064EF71E080E090E00E94AA1B80E0D4
:101770006CE879E040E050E00E948C12AD960FB624
:10178000F894DEBF0FBECDBFCF91DF911F910F91B7
:10179000FF9008958BE394E00E94B208882321F023
:1017A0008BE394E00E94D5070895DF93CF93CDB7E4
:1017B000DEB72C970FB6F894DEBF0FBECDBFFC018D
:1017C000CE01029647EB52E02BE0DA010D90AD011D
:1017D000DC010D92CD012150C1F7808191812281E0
:1017E00033813B832C839D838E838BE0898383E2CB
:1017F00094E0BE016E5F7F4FAE014F5F5F4F21E00F
:101800000E9403050E9402092C960FB6F894DEBFD1
:101810000FBECDBFCF91DF910895DF93CF93CDB7AA
:10182000DEB761970FB6F894DEBF0FBECDBFDE0105
:101830001296E7EAF2E080E101900D928150E1F723
:1018400080E1898383E294E0BE016E5F7F4FAE0149
:101850004F5F5F4F20E00E9403050E9402096196DE
:101860000FB6F894DEBF0FBECDBFCF91DF910895C4
:10187000DF93CF930F92CDB7DEB783E294E00E945F
:1018800075048CE089838BE394E0BE016F5F7F4F2A
:101890000E9464070F90CF91DF910895CF93DF935B
:1018A000CAE4D6E0CE0140E052EC61E070E00E9474
:1018B000660ECE0162EC72E00E945A1084E095E060
:1018C0000E940804CE016AED72E00E945A10DF9176
:1018D000CF91089584E095E00E94DE0308950E9470
:1018E000DB1B0E944E0C0E946A0CFDCF84E095E049
:1018F0000E9409010895882311F02A9808952A9AD0
:10190000089580E00E947B0C229A8AE061E00E94A8
:10191000671C8DE061E00E94431C8BE061E00E9447
:10192000431C8AE061E00E94431C8CE060E00E945E
:10193000431C80E58CBD82E060E00E94431C82E095
:1019400061E00E94671C8DB581608DBD8CB58D7F77
:101950008CBD8CB581608CBD8CB5877F8CBD8CB502
:101960008B7F8CBD0895FC0180818EBD0DB407FE78
:10197000FDCF8EB50895CF92DF92EF92FF920F9335
:101980001F93DF93CF9300D0CDB7DEB76C017B01FF
:10199000FB018081882319F081E00E947B0CF60115
:1019A00081818983CE0101960E94B30C182F00E03B
:1019B000F60180818A83CE0102960E94B30CC82E64
:1019C000DD24C02AD12AF7018081882319F080E024
:1019D0000E947B0CC6010F900F90CF91DF911F9159
:1019E0000F91FF90EF90DF90CF900895FC018485D8
:1019F0009585FC01E05CFF4F208131818E5B9F4F1C
:101A0000FC0180819181281B390B2F733070C90133
:101A10000895FC0184859585FC01E05CFF4F4081C1
:101A20005181FC01EE5BFF4F20813181421753074A
:101A300041F00190F081E02DE80FF91F208130E0A6
:101A400002C02FEF3FEFC9010895FC018485958501
:101A5000FC01E05CFF4F40815181FC01EE5BFF4FD8
:101A6000208131814217530771F0A081B181A80F05
:101A7000B91F2C918081918101968F739070918311
:101A8000808330E002C02FEF3FEFC9010895DC01F1
:101A90001E968D919C911F97FC01E05CFF4F8E5B21
:101AA0009F4F40815181DC012D913C91119742174C
:101AB0005307B9F708951F93FC01162F2685378524
:101AC000D901A05CBF4F8D919C91019660E470E0BC
:101AD0000E94B923D901AE5BBF4F4D915C91119724
:101AE00084179507D1F3D901A05CBF4F0D90BC912D
:101AF000A02DA20FB31F1C93A685B785A05CBF4F76
:101B000011969C938E93A689B7892C9181E090E0E1
:101B1000058C02C0880F991F0A94E2F7282B2C939A
:101B200081E090E01F910895FB01E05CFF4F208170
:101B300031812F5F3F4F2F733070DB01AE5BBF4FA2
:101B40004D915C9111972417350739F0A081B1812F
:101B5000A60FB71F8C9331832083089508951F9299
:101B60000F920FB60F9211242F933F934F935F93D1
:101B70006F937F938F939F93AF93BF93EF93FF9355
:101B80008091C60062EC75E00E94940DFF91EF9188
:101B9000BF91AF919F918F917F916F915F914F9185
:101BA0003F912F910F900FBE0F901F9018958AE4D0
:101BB00096E00E94F60C009711F00E94AE0D089579
:101BC0001F920F920FB60F9211242F933F935F93A2
:101BD0006F937F938F939F93AF93BF93EF93FF93F5
:101BE000209146063091470680914806909149061B
:101BF0002817390731F48091C1008F7D8093C1008F
:101C000016C0E0914806F0914906EA5FF94F20813D
:101C10008091480690914906019660E470E00E9428
:101C2000B92390934906809348062093C600FF91FC
:101C3000EF91BF91AF919F918F917F916F915F9144
:101C40003F912F910F900FBE0F901F9018958F927C
:101C5000AF92BF92CF92DF92EF92FF920F931F93BA
:101C6000DF93CF93CDB7DEB7FC011382128288EEEB
:101C700093E0A0E0B0E084839583A683B7838CEEE5
:101C800092E0918380837587648757874687318B7D
:101C9000208B138B028BF58AE48AD78AC68AB18E91
:101CA000A08E828E8E85838F8F85848F8889858F85
:101CB0008989868FCF91DF911F910F91FF90EF90CF
:101CC000DF90CF90BF90AF908F900895DF92EF920A
:101CD000FF920F931F93CF93DF93EC017A018B0157
:101CE000DD24D394403081EE580780E0680780E01F
:101CF000780749F4DD24EC89FD89108260E874E8F6
:101D00008EE190E00FC0EC89FD8981E090E00E8CBF
:101D100002C0880F991F0A94E2F7808360E079E09F
:101D20008DE390E0A80197010E94CC232150304020
:101D300040405040569547953795279580E1203093
:101D4000380710F0DD20B1F6E889F9893083EA8997
:101D5000FB892083EE89FF89408181E090E09C012E
:101D60000A8C02C0220F331F0A94E2F7422B4083F1
:101D7000EE89FF8940819C010B8C02C0220F331F2A
:101D80000A94E2F7422B4083EE89FF8940819C014F
:101D90000C8C02C0220F331F0A94E2F7422B4083BF
:101DA000EE89FF8920810D8C02C0880F991F0A944B
:101DB000E2F7809582238083DF91CF911F910F916D
:101DC000FF90EF90DF900895CF93DF93FC0186851D
:101DD0009785DC01A05CBF4F8E5B9F4F4D915C915E
:101DE0001197EC012881398142175307B9F7A68969
:101DF000B7894C9181E090E09C01028C02C0220FD7
:101E0000331F0A94E2F7209524232C93A689B789DF
:101E10004C919C01038C02C0220F331F0A94E2F7FD
:101E2000209524232C93A689B7894C919C01048C7E
:101E300002C0220F331F0A94E2F7209524232C932B
:101E4000A689B7892C91058C02C0880F991F0A9426
:101E5000E2F7809582238C9384859585FC01EE5B67
:101E6000FF4F20813181805C9F4FFC0131832083B3
:101E7000DF91CF91089510924D0610924C0688EE96
:101E800093E0A0E0B0E080934E0690934F06A093BD
:101E90005006B0935106ECE4F6E08CEE92E092939B
:101EA000829382EC95E09587848786E096E0978719
:101EB000868785EC90E0918B808B84EC90E0938B0F
:101EC000828B80EC90E0958B848B81EC90E0978BFB
:101ED000868B86EC90E0918F808F84E0828F83E008
:101EE000838F87E0848F85E0858F81E0868F0895DA
:101EF000CF92DF92EF92FF920F931F93CF93DF93D6
:101F00006C017B018A01C0E0D0E00FC0D7016D9168
:101F10007D01D601ED91FC910190F081E02DC6018B
:101F20000995C80FD91F015010400115110571F70F
:101F3000CE01DF91CF911F910F91FF90EF90DF9035
:101F4000CF900895DB010D900020E9F7AD014150DD
:101F50005040461B570BDC01ED91FC910280F38150
:101F6000E02D09950895EF92FF920F931F93CF9361
:101F7000DF937C01062F172FC0E0D0E0F8010F5F40
:101F80001F4F6491662351F0F701A081B181ED915B
:101F9000FC91C7010995C80FD91FF0CFCE01DF9181
:101FA000CF911F910F91FF90EF900895AF92BF9244
:101FB000CF92DF92EF92FF920F931F93CF93DF9315
:101FC0007C016B01C0E0D0E000E010E010C0D70160
:101FD000ED91FC91A080B180C601BE010E94F61770
:101FE000682FC701F5010995080F191F2196F60101
:101FF00084819581C817D90750F3C801DF91CF912B
:102000001F910F91FF90EF90DF90CF90BF90AF9016
:1020100008950E94A20F0895DC01ED91FC910190BA
:10202000F081E02D099508959C01CB01DB01ED9134
:10203000FC910190F081E02DB901099508950F936D
:102040001F93CF93DF93EC016DE00E940C108C0185
:10205000CE016AE00E940C10080F191FC801DF9121
:10206000CF911F910F9108950F931F93CF93DF93FB
:10207000EC010E94B30F8C01CE010E941F10080FCB
:10208000191FC801DF91CF911F910F9108950F93F0
:102090001F93CF93DF93EC010E94D60F8C01CE01EA
:1020A0000E941F10080F191FC801DF91CF911F91C7
:1020B0000F9108950F931F93CF93DF93EC010E942C
:1020C000A20F8C01CE010E941F10080F191FC8011A
:1020D000DF91CF911F910F9108950F931F93CF938D
:1020E000DF93EC010E940C108C01CE010E941F10A6
:1020F000080F191FC801DF91CF911F910F9108950B
:102100000F931F93CF93DF93EC010E9414108C0167
:10211000CE010E941F10080F191FC801DF91CF9137
:102120001F910F9108958F929F92AF92BF92CF927D
:10213000DF92EF92FF920F931F93DF93CF93CDB770
:10214000DEB7A1970FB6F894DEBF0FBECDBF6C010E
:10215000042FE52FCB01122F19A2223008F41AE028
:1021600021E2E22EF12CEC0EFD1E812E9924AA24F0
:10217000BB2403C0022FE32FCA01602F7E2FA501CD
:1021800094010E94CC23129F802D1124081B0894D7
:10219000E108F1080A3010F4005D01C0095CF701A4
:1021A0000083211531054105510521F7C601B7010D
:1021B0000E94A20FA1960FB6F894DEBF0FBECDBF4E
:1021C000CF91DF911F910F91FF90EF90DF90CF9013
:1021D000BF90AF909F908F9008952115310549F4DD
:1021E000DC01ED91FC910190F081E02D642F0995C7
:1021F00008950E94931008950F931F93CF93DF9338
:10220000EC010E94ED108C01CE010E941F10080FFE
:10221000191FC801DF91CF911F910F9108959A0165
:10222000AB0160E070E00E94ED1008950F931F93E2
:10223000CF93DF93EC019A01AB0160E070E00E9464
:10224000ED108C01CE010E941F10080F191FC8014C
:10225000DF91CF911F910F9108959A01462F50E081
:1022600060E070E00E94ED1008950F931F93CF93EC
:10227000DF93EC019A01462F50E060E070E00E948D
:10228000ED108C01CE010E941F10080F191FC8010C
:10229000DF91CF911F910F910895CF92DF92EF922E
:1022A000FF920F931F93CF93DF93EC017A018B0181
:1022B0002115310541F4E881F9810190F081E02D8B
:1022C000642F09951AC02A303105A9F477FF12C08E
:1022D0006DE20E940C106C0144275527BA014E197B
:1022E0005F09600B710BCE012AE00E949310C80EAB
:1022F000D91E04C02AE00E9493106C01C601DF9130
:10230000CF911F910F91FF90EF90DF90CF900895A4
:102310000F931F93CF93DF93EC010E944D118C011B
:10232000CE010E941F10080F191FC801DF91CF9125
:102330001F910F9108959A01FB01AF01662757FD88
:102340006095762F0E944D1108950F931F93CF93A0
:10235000DF93EC019A01CB01AC01662757FD609534
:10236000762FCE010E944D118C01CE010E941F10CC
:10237000080F191FC801DF91CF911F910F91089588
:102380006F927F929F92AF92BF92CF92DF92EF9225
:10239000FF920F931F93CF93DF933C017A018B0140
:1023A000C22ECB01BA0120E030E0A9010E947520C5
:1023B00087FF0AC0C3016DE20E940C10EC0117FBFD
:1023C000109517F9109502C0C0E0D0E0DD2450E070
:1023D00040E030E02FE311C0DA01F9016B2F742FD8
:1023E0008F2F922F20E030E040E251E40E94971FAF
:1023F000562F472F382F292FD394DC1468F3C801A8
:10240000B701DA01F9012B2F342F4F2F5E2F0E94D5
:102410003F1E5B01F82E992E7B2D0E94C91C162FA2
:10242000D72EE82E092F0E9457219B01AC016A2D5F
:102430007B2D8F2D992D0E946C1E962EA72EB82EC7
:10244000F92EC301412F5D2D6E2D702F2AE030E053
:102450000E94ED10C80FD91FCC20B9F1C30168E06C
:1024600073E00E94A20FC80FD91F2FC0692D7A2DCB
:102470008B2D9F2D20E030E040E251E40E949D1E14
:10248000D62EB72EA82E992E0E9405217B0100275B
:10249000F7FC0095102FC301B801A7012AE030E036
:1024A0000E944D11C80FD91FC801B7010E94A52075
:1024B0009B01AC016D2D7B2D8A2D992D0E946C1EE8
:1024C000962EA72EB82EF92ECA94CC2079F6CE01DE
:1024D000DF91CF911F910F91FF90EF90DF90CF9000
:1024E000BF90AF909F907F906F9008950E94C01111
:1024F00008950F931F93CF93DF93EC010E94C011B7
:102500008C01CE010E941F10080F191FC801DF9116
:10251000CF911F910F9108958230E8F4E82FF0E0F9
:10252000EE0FFF1FE759F94F71836083813041F04F
:10253000809169008C7F842B80936900E89A0895CC
:1025400080916900440F551F440F551F837F842BD2
:1025500080936900E99A0895823068F4813011F01F
:10256000E89801C0E998E82FF0E0EE0FFF1FE75967
:10257000F94F1182108208951F920F920FB60F9299
:1025800011242F933F934F935F936F937F938F9378
:102590009F93AF93BF93EF93FF93809169069091C0
:1025A0006A06009729F0E0916906F0916A0609959C
:1025B000FF91EF91BF91AF919F918F917F916F911B
:1025C0005F914F913F912F910F900FBE0F901F90F1
:1025D00018951F920F920FB60F9211242F933F93CD
:1025E0004F935F936F937F938F939F93AF93BF931B
:1025F000EF93FF9380916B0690916C06009729F002
:10260000E0916B06F0916C060995FF91EF91BF91F7
:10261000AF919F918F917F916F915F914F913F917A
:102620002F910F900FBE0F901F901895FC01808185
:1026300091810E94D9240895CF93DF93EC01888182
:102640009981009711F00E94D924198218821D8265
:102650001C821B821A82DF91CF9108950F931F93E2
:10266000CF93DF93EC018B016F5F7F4F888199815E
:102670000E947225009731F0998388831B830A8317
:1026800081E001C080E0DF91CF911F910F9108950B
:10269000CF93DF93EC0188819981009729F08A819B
:1026A0009B818617970778F4CE010E942E1388230A
:1026B00041F08C819D81009731F4E881F98110828D
:1026C00002C080E001C081E0DF91CF910895EF92D8
:1026D000FF920F931F93CF93DF93EC017B018A014D
:1026E000BA010E944813882321F4CE010E941C13D2
:1026F00007C01D830C8388819981B7010E94AB2696
:10270000CE01DF91CF911F910F91FF90EF9008952F
:10271000CF93DF93FC011182108213821282158203
:10272000148216826115710559F0EB0109900020A1
:10273000E9F7AE0141505040461B570B0E9467130A
:10274000DF91CF910895EF92FF92CF93DF93EC0149
:10275000FB018617970761F0608171816115710532
:1027600029F0448155810E94671302C00E941C1306
:10277000CE01DF91CF91FF90EF900895FC0111827F
:102780001082138212821582148216820E94A31371
:1027900008950F931F938C016115710561F0DB01A2
:1027A0000D900020E9F7AD0141505040461B570BFA
:1027B0000E94671302C00E941C13C8011F910F9151
:1027C0000895EF92FF920F931F93DF93CF93CDB7AE
:1027D000DEB7A1970FB6F894DEBF0FBECDBF7C0168
:1027E000CB01BA01F7011182108213821282158285
:1027F000148216828E010F5F1F4FA80130E00E94E5
:102800005E27C701B8010E94C913A1960FB6F894BC
:10281000DEBF0FBECDBFCF91DF911F910F91FF9013
:10282000EF900895EF92FF920F931F93DF93CF9352
:10283000CDB7DEB7A2970FB6F894DEBF0FBECDBFFF
:102840007C01CB01BA01F70111821082138212823E
:102850001582148216828E010F5F1F4FA80130E08F
:102860000E941527C701B8010E94C913A2960FB68E
:10287000F894DEBF0FBECDBFCF91DF911F910F91B6
:10288000FF90EF900895EF92FF920F931F93DF93C5
:10289000CF93CDB7DEB761970FB6F894DEBF0FBE0A
:1028A000CDBF7C01CB01F70111821082138212820D
:1028B0001582148216828E010F5F1F4FB80150E0FF
:1028C0000E948327C701B8010E94C91361960FB601
:1028D000F894DEBF0FBECDBFCF91DF911F910F9156
:1028E000FF90EF900895EF92FF920F931F93DF9365
:1028F000CF93CDB7DEB762970FB6F894DEBF0FBEA9
:10290000CDBF7C01CB01F7011182108213821282AC
:102910001582148216828E010F5F1F4FB80150E09E
:102920000E94F426C701B8010E94C91362960FB62F
:10293000F894DEBF0FBECDBFCF91DF911F910F91F5
:10294000FF90EF900895EF92FF920F931F93DF9304
:10295000CF93CDB7DEB729970FB6F894DEBF0FBE81
:10296000CDBF7C01862FF701118210821382128263
:1029700015821482168290E08E010F5F1F4FB801FE
:1029800050E00E948327C701B8010E94C91329960D
:102990000FB6F894DEBF0FBECDBFCF91DF911F9170
:1029A0000F91FF90EF900895DF93CF9300D0CDB7B4
:1029B000DEB7FC011182108213821282158214820A
:1029C000168269831A82BE016F5F7F4F0E94C9130E
:1029D0000F900F90CF91DF910895EF92FF920F9398
:1029E0001F93CF93DF93EC017B010C811D81611557
:1029F0007105B9F04115510591F0040F151FB8018B
:102A00000E944813882369F0288139818C819D8137
:102A1000820F931FB7010E94AB261D830C8381E0B8
:102A200001C080E0DF91CF911F910F91FF90EF9057
:102A30000895FB0160817181448155810E94ED14EC
:102A400008956115710561F0DB010D900020E9F733
:102A5000AD0141505040461B570B0E94ED140895A4
:102A600080E00895DF93CF9300D0CDB7DEB76983C0
:102A70001A82BE016F5F7F4F41E050E00E94ED146B
:102A80000F900F90CF91DF910895EF92FF920F93E7
:102A90001F93DF93CF9300D000D0CDB7DEB77C017A
:102AA000862F90E08E010F5F1F4FB8014AE050E083
:102AB0000E94F426F80101900020E9F7AF0141508F
:102AC0005040401B510BC701B8010E94ED140F90FC
:102AD0000F900F900F90CF91DF911F910F91FF906A
:102AE000EF900895EF92FF920F931F93DF93CF9390
:102AF000CDB7DEB727970FB6F894DEBF0FBECDBFB8
:102B00007C01CB018E010F5F1F4FB8014AE050E0FE
:102B10000E94F426F80101900020E9F7AF0141502E
:102B20005040401B510BC701B8010E94ED1427967D
:102B30000FB6F894DEBF0FBECDBFCF91DF911F91CE
:102B40000F91FF90EF900895EF92FF920F931F93D4
:102B5000DF93CF9300D000D000D0CDB7DEB77C019B
:102B6000CB018E010F5F1F4FB8014AE050E00E9479
:102B70008327F80101900020E9F7AF014150504050
:102B8000401B510BC701B8010E94ED1426960FB6E9
:102B9000F894DEBF0FBECDBFCF91DF911F910F9193
:102BA000FF90EF900895EF92FF920F931F93DF93A2
:102BB000CF93CDB7DEB72C970FB6F894DEBF0FBE1C
:102BC000CDBF7C01CB01BA018E010F5F1F4FA80161
:102BD0002AE030E00E941527F80101900020E9F773
:102BE000AF0141505040401B510BC701B8010E943A
:102BF000ED142C960FB6F894DEBF0FBECDBFCF916B
:102C0000DF911F910F91FF90EF900895EF92FF9247
:102C10000F931F93DF93CF93CDB7DEB72B970FB6EC
:102C2000F894DEBF0FBECDBF7C01CB01BA018E018F
:102C30000F5F1F4FA8012AE030E00E945E27F801D5
:102C400001900020E9F7AF0141505040401B510B6B
:102C5000C701B8010E94ED142B960FB6F894DEBFA1
:102C60000FBECDBFCF91DF911F910F91FF90EF90DD
:102C700008950F931F938C01FB0160817181448142
:102C800055810E94ED14882319F4C8010E941C1379
:102C9000C8011F910F9108950F931F938C01611527
:102CA000710569F0DB010D900020E9F7AD0141509D
:102CB0005040461B570B0E94ED14882319F4C8019D
:102CC0000E941C13C8011F910F9108950F931F9329
:102CD0008C010E943215882319F4C8010E941C132C
:102CE000C8011F910F9108950F931F938C010E94AB
:102CF0004515882319F4C8010E941C13C8011F91AF
:102D00000F9108950F931F938C010E9472158823D1
:102D100019F4C8010E941C13C8011F910F91089556
:102D20000F931F938C010E94A415882319F4C801E6
:102D30000E941C13C8011F910F9108950F931F93B8
:102D40008C010E94D315882319F4C8010E941C131A
:102D5000C8011F910F9108950F931F938C010E943A
:102D60000616882319F4C8010E941C13C8011F917C
:102D70000F910895CF93DF93FC01DB018081918156
:102D8000009731F06D917C91119761157105E9F40F
:102D9000CD91DC911197209769F014962D913C917B
:102DA00015972115310531F0288130E030952195B6
:102DB0003F4F12C0009771F02481358121153105F4
:102DC00049F0FC01208130E007C00E94A226282F94
:102DD000392F02C020E030E0C901DF91CF91089582
:102DE000FC0144815581FB01248135814217530741
:102DF00029F40E94BA1621E0009709F020E0822F02
:102E00000895FC0184819581009741F46115710555
:102E100019F081E0FB0109C081E008950190F08183
:102E2000E02D6115710531F481E09081992359F00D
:102E300080E00895CF010E94A2269C0181E0211527
:102E4000310509F080E008950E94BA16892F881F85
:102E50008827881F08950E94BA1621E018161906BF
:102E60000CF020E0822F08950E94BA1621E0181677
:102E700019060CF420E0822F08950E94BA16892FBB
:102E80008095881F8827881F0895EF92FF920F93DF
:102E90001F93CF93DF93FC01DB018617970709F19E
:102EA0008481958114962D913C91159782179307F3
:102EB000D1F40097B1F000811181CD91DC9111978F
:102EC0000BC090E00E946C267C01899190E00E94EA
:102ED0006C26E816F90639F4F80181918F018823F0
:102EE00081F781E001C080E0DF91CF911F910F91C8
:102EF000FF90EF900895FC01DB01CA0114964D91FB
:102F00005C91159724813581241B350B28173907CF
:102F1000A0F0208131812115310579F06D917C91EE
:102F200011976115710559F0820F931F0E94B22607
:102F30009C0181E02115310519F080E0089580E0C1
:102F40000895FC0144815581FB012481358142179C
:102F5000530728F040E050E00E947B17089580E07E
:102F60000895FC01DB018481958114964D915C915B
:102F7000159784179507B0F020813181211531050F
:102F800089F06D917C9111976115710569F0841B31
:102F9000950B820F931F0E94A2269C0181E02115B0
:102FA000310519F080E0089580E00895FC018481E6
:102FB00095816817790730F40190F081E02DE60FD4
:102FC000F71F40830895FC01848195816817790774
:102FD00020F480819181009729F410926D066DE6AE
:102FE00076E002C0680F791FCB010895FC0184814F
:102FF00095816817790748F480819181009739F0AD
:10300000680F791FFB018081089580E0089580E0BA
:1030100008950E94F61708950F931F93CF93DF939F
:10302000FC018B0141155105F1F061157105D9F0D5
:10303000C481D5812C173D0718F0FB01108213C005
:1030400041505040C21BD30B4C175D0708F4EA01F6
:1030500060817181620F731FC801AE010E94C0269A
:10306000C00FD11F1882DF91CF911F910F9108954A
:10307000CF93DF93FC01CA012481358142175307A6
:1030800068F4C081D1818C0F9D1F70E00E9497264B
:10309000009721F09C012C1B3D0B02C02FEF3FEF4E
:1030A000C901DF91CF91089540E050E00E943818A7
:1030B0000895CF93DF93FC01CA0124813581421723
:1030C000530778F4C081D181FB01608171818C0F3D
:1030D0009D1F0E94DA26009721F09C012C1B3D0BBE
:1030E00002C02FEF3FEFC901DF91CF91089540E07B
:1030F00050E00E9459180895DF92EF92FF920F93CB
:103100001F93CF93DF93EC018C819D814817590762
:10311000E8F47A010894E11CF11CE881F981EE0DD4
:10312000FF1DD080108208811981C80170E00E94C3
:10313000CF260E0D1F1DF801D082009739F028818F
:103140003981AC01421B530B9A0102C02FEF3FEFB4
:10315000C901DF91CF911F910F91FF90EF90DF9008
:103160000895FC0144815581415050400E947C18D3
:103170000895AF92BF92CF92DF92EF92FF920F939A
:103180001F93CF93DF93FC016B018A01DB0114963F
:103190002D913C9115972115310551F1848195812F
:1031A000009731F18217930718F14817590718F063
:1031B0008C0101501040E080F180C701CFEFDFEFBC
:1031C0005701A00EB11E10C0F601608171810E94EE
:1031D000DA26009779F09C012E193F090217130790
:1031E00008F49E010196E901A816B90668F702C025
:1031F000CFEFDFEFCE01DF91CF911F910F91FF90C5
:10320000EF90DF90CF90BF90AF900895FC01448184
:103210005581FB0124813581421B530B0E94B91853
:103220000895AF92BF92CF92DF92EF92FF920F93E9
:103230001F93CF93DF93F82EE92E6B018A01E901EA
:103240002417350748F4342F212F8E01C901A92EE8
:10325000E5015E01B22EE5018F2D9E2D62E173E046
:103260000E948813D60114968D919C911597801712
:103270009107D8F08C179D0708F4EC01D601ED9169
:10328000FC911197EC0FFD1FB08010826D917C9125
:10329000600F711F8F2D9E2D0E94C913D601ED91D5
:1032A000FC911197EC0FFD1FB0828F2D9E2DDF91A9
:1032B000CF911F910F91FF90EF90DF90CF90BF9033
:1032C000AF900895CF93DF93EC01FB01248135810A
:1032D0000E941119CE01DF91CF910895DC01ED918B
:1032E000FC911197309729F40895861709F44083CB
:1032F000319680818823C9F708952F923F924F928B
:103300005F926F927F928F929F92AF92BF92CF9275
:10331000DF92EF92FF920F931F93CF93DF937C0185
:103320002B016A01DC0114966D907C901597611455
:10333000710409F4D9C0FB01848095808114910443
:1033400009F4D2C0DA011496AD90BC901597A81874
:10335000B908FC0100811181A114B104F1F413C07A
:10336000D6016C9111967C91119714964D915C91B8
:103370001597CE010E947C26D60114960D911C91C2
:1033800015970C0F1D1FF20160817181C8010E9409
:10339000DA26EC01009721F7A7C0B7FC02C0E301D1
:1033A00042C048012DC0E301C01BD10BC401B801CC
:1033B000AE010E947C26C80DD91DD6016C911196D4
:1033C0007C91119714964D915C911597CE010E94B6
:1033D0007C26D60114968D909C9015978C0E9D1E80
:1033E000F20104811581060D171DD70114968D91E8
:1033F0009C9115978A0D9B1D15969C938E931497FF
:10340000F20160817181C8010E94DA263C010097B7
:1034100051F6C401B8010E94AB2666C08C01080DAC
:10342000191DCA0DDB1DD2016D917C91C8010E944E
:10343000DA26009799F7C615D70509F455C0F701A4
:10344000828193818C179D0708F045C0C701BE019A
:103450000E942E13882309F447C03DC0C701B20162
:10346000A9010E94B918EC0197FD3EC0D7016D91EA
:103470007C911197F201848195818C0F9D1F680FBB
:10348000791F14964D915C911597481B590BCB01F0
:103490008A0D9B1D0E948526D70114968D919C91C3
:1034A00015978A0D9B1D15969C938E931497ED91FD
:1034B000FC911197E80FF91F10822D913C912C0F70
:1034C0003D1FF6016081718144815581C9010E94CF
:1034D0007C269E0105C0D70114962D913C9115972D
:1034E0002150304037FFBACFDF91CF911F910F911C
:1034F000FF90EF90DF90CF90BF90AF909F908F9014
:103500007F906F905F904F903F902F900895CF9352
:10351000DF93FC01C081D181209729F407C090E09E
:103520000E946C26899388818823C9F7DF91CF9107
:103530000895CF93DF93FC01C081D181209729F4B6
:1035400007C090E00E947426899388818823C9F778
:10355000DF91CF910895AF92BF92CF92DF92EF9219
:10356000FF920F931F93CF93DF936C01DC01ED90DB
:10357000FC901197E114F10409F43FC01496AD904A
:10358000BC901597A114B104C1F18701E8018881AD
:103590000F5F1F4F90E00E9464260097B9F78501E6
:1035A000015010400E0D1F1DF801808190E00E9417
:1035B0006426009731F00C171D0718F001501040D9
:1035C000F3CF0F5F1F4F0C1B1D0BD60115961C93DD
:1035D0000E931497EC16FD0628F4C701BE01A8014E
:1035E0000E947C26D601ED91FC91119714968D9145
:1035F0009C911597E80FF91F1082DF91CF911F91D1
:103600000F91FF90EF90DF90CF90BF90AF90089513
:10361000FC0180819181009729F00E943D269B0149
:10362000AC0103C020E030E0A901B901CA0108954E
:103630000E943F2408950E94D924089521E030E09B
:10364000FC018081882311F020E030E0C901089559
:1036500021E0FC0120830895089508951F920F92A0
:103660000FB60F9211242F933F938F939F93AF9395
:10367000BF938091720690917306A0917406B091E9
:103680007506309176060196A11DB11D232F2D5F81
:103690002D3720F02D570196A11DB11D20937606E0
:1036A0008093720690937306A0937406B093750688
:1036B00080916E0690916F06A0917006B091710690
:1036C0000196A11DB11D80936E0690936F06A09385
:1036D0007006B0937106BF91AF919F918F913F910A
:1036E0002F910F900FBE0F901F9018958FB7F894E1
:1036F00020917206309173064091740650917506C0
:103700008FBFB901CA0108959FB7F89420916E0642
:1037100030916F06409170065091710686B5A89B56
:1037200006C08F3F21F02F5F3F4F4F4F5F4F9FBF2E
:10373000542F432F322F2227280F311D411D511D99
:1037400082E0220F331F441F551F8A95D1F7B9011C
:10375000CA010895EF92FF920F931F93CF93DF93C7
:103760007B018C010E94841BEB010FC00E94841B13
:103770006C1B7D0B83E0683E780738F00894E10805
:10378000F10801091109C851DC4FE114F1040105E8
:10379000110561F7DF91CF911F910F91FF90EF908D
:1037A0000895019739F0880F991F880F991F029784
:1037B0000197F1F70895789484B5826084BD84B54B
:1037C000816084BD85B5826085BD85B5816085BD1C
:1037D000EEE6F0E0808181608083E1E8F0E0108235
:1037E000808182608083808181608083E0E8F0E076
:1037F000808181608083E1EBF0E080818460808360
:10380000E0EBF0E0808181608083EAE7F0E0808196
:1038100084608083808182608083808181608083F6
:103820008081806880831092C1000895833071F098
:10383000843028F48130A1F0823021F514C0863024
:10384000B1F08730D1F08430E9F404C08091800079
:103850008F7703C0809180008F7D809380000895D2
:1038600084B58F7702C084B58F7D84BD0895809123
:10387000B0008F778093B00008958091B0008F7D65
:103880008093B000089590E0FC01E656FF4F24912C
:10389000FC01EA57FF4FE491EE23C1F0F0E0EE0F98
:1038A000FF1FE859FF4F85919491DC01662341F495
:1038B0009FB7F8948C91209582238C939FBF089595
:1038C0009FB7F8948C91822B8C939FBF08950F9390
:1038D0001F93DF93CF930F92CDB7DEB7282F30E041
:1038E000F901E255FF4F8491F901E656FF4F14911B
:1038F0002A573F4FF90104910023D9F0882321F082
:1039000069830E94161C6981E02FF0E0EE0FFF1F13
:10391000EE58FF4F85919491DC019FB7F894662390
:1039200021F48C911095812302C08C91812B8C9372
:103930009FBF0F90CF91DF911F910F9108950F932B
:103940001F93282F30E0F901E255FF4F8491F901D0
:10395000E656FF4F04912A573F4FF9011491112366
:1039600091F0882311F00E94161CE12FF0E0EE0F79
:10397000FF1FE458FF4F85919491DC018C918023C7
:1039800021E030E011F420E030E0C9011F910F91F7
:103990000895EF92FF920F931F937B018C0120E01B
:1039A00030E040E05FE40E94452087FD11C0C8017F
:1039B000B70120E030E040E05FE40E946C1E0E940E
:1039C00005219B01AC01205030404040504806C0CA
:1039D000C801B7010E9405219B01AC01B901CA01D0
:1039E0001F910F91FF90EF900895A0E0B0E0EBEFF2
:1039F000FCE10C940624FC01EA018081823008F489
:103A000038C1DB019C91923008F430C1843059F404
:103A1000943009F02EC1918111968C9111979817CD
:103A200009F021C126C1943009F420C19230B1F4CB
:103A3000823009F01EC1CA01AF0128E0DA010D9001
:103A4000AD01DC010D92CD012150C1F7DB011196D2
:103A50008C9111979181892389830AC1823009F45D
:103A600005C1C280D380DB0112966D907C901397C4
:103A700024813581468157811496ED90FD900D91FA
:103A80001C911797C601861997095C0197FF04C01E
:103A9000AA24BB24A81AB90AB0E2AB16B1040CF0F0
:103AA00061C0181619066CF5370148010A2C04C0CC
:103AB00096948794779467940A94D2F781E090E083
:103AC000A0E0B0E00A2C04C0880F991FAA1FBB1FFA
:103AD0000A94D2F70197A109B1098E219F21A02351
:103AE000B123EE24FF248701E3940097A105B105DB
:103AF00019F4EE24FF248701E628F728082919295C
:103B00003CC00097D1F1CA0CDB1C39014A010A2CD8
:103B100004C096948794779467940A94D2F781E0CE
:103B200090E0A0E0B0E00A2C04C0880F991FAA1F03
:103B3000BB1F0A94D2F70197A109B10982239323ED
:103B4000A423B52321E030E040E050E00097A10538
:103B5000B10519F420E030E0A901262937294829C8
:103B600059290BC06C147D0424F4EE24FF24870132
:103B700004C0630120E030E0A9018181FB01918153
:103B8000891709F445C0882349F0D801C701821B71
:103B9000930BA40BB50B9C01AD0104C02E193F097A
:103BA000400B510B57FD04C01982DB82CA820BC047
:103BB00081E08983DB82CA825095409530952195BA
:103BC0003F4F4F4F5F4F2C833D834E835F830DC02C
:103BD000880F991FAA1FBB1F8C839D83AE83BF8351
:103BE0008A819B8101979B838A838C819D81AE8191
:103BF000BF819C01AD0121503040404050402F3FDB
:103C0000EFEF3E07EFEF4E07EFE35E0708F30BC061
:103C10008983DB82CA822E0D3F1D401F511F2C83DA
:103C20003D834E835F8383E088832C813D814E8179
:103C30005F8157FF1DC0DA01C90181709070A070CB
:103C4000B0705695479537952795822B932BA42BCB
:103C5000B52B8C839D83AE83BF838A819B81019624
:103C60009B838A8305C0E3E1F3E003C0FB0101C04D
:103C7000FE01CF01CDB7DEB7EEE00C942224A0E226
:103C8000B0E0E5E4FEE10C940E2469837A838B8333
:103C90009C832D833E834F83588789E0E82EF12C47
:103CA000EC0EFD1ECE010196B7010E94F7228E0197
:103CB0000F5E1F4FCE010596B8010E94F722C70183
:103CC000B801AE01475E5F4F0E94F51C0E94292299
:103CD000A096E6E00C942A24A0E2B0E0E2E7FEE140
:103CE0000C940E2469837A838B839C832D833E837B
:103CF0004F8358878E01075F1F4FCE010196B80191
:103D00000E94F72291E1E92EF12CEC0EFD1ECE016E
:103D10000596B7010E94F7228A8991E089278A8B4C
:103D2000C801B701AE01475E5F4F0E94F51C0E94BB
:103D30002922A096E6E00C942A24A0E2B0E0E3EA6F
:103D4000FEE10C94022469837A838B839C832D8308
:103D50003E834F835887CE010196BE01675F7F4F38
:103D60000E94F722CE010596BE016F5E7F4F0E9432
:103D7000F7229985923078F089898230C0F09430AA
:103D800019F4823041F4CBC0843019F4923079F4C4
:103D9000C6C0923051F481E02A859A89291709F426
:103DA00080E08A87CE010996BCC0823051F481E060
:103DB0002A859A89291709F480E08A8BCE014196D9
:103DC000B0C06D847E848F849888ED88FE880F89CA
:103DD000188DE0E2F0E080E090E0DC01AA24BB2452
:103DE000650120E030E0A901B301617070706115D8
:103DF0007105D1F02E0D3F1D401F511F15012601E9
:103E0000280E391E4A1E5B1E81E090E0A0E0B0E063
:103E10002E153F054007510718F080E090E0DC01C7
:103E2000820D931DA41DB51DAA0CBB1CCC1CDD1C52
:103E300017FF09C061E0262E312C412C512CA228FD
:103E4000B328C428D528319749F0EE0CFF1C001F79
:103E5000111F9694879477946794C6CF6B897C8959
:103E6000EB85FC856E0F7F1F6E5F7F4F7C8F6B8FA6
:103E700061E0EA857A89E71709F460E06A8F6B8D63
:103E80007C8D10C0FC01E170F070309729F05695E0
:103E90004795379527955068B695A7959795879537
:103EA0006F5F7F4FB7FDEECF0CC0880F991FAA1F21
:103EB000BB1F57FD8160220F331F441F551F6150E8
:103EC00070408030E0E09E07E0E0AE07E0E4BE072F
:103ED00060F36B8F7C8F6FE7E62EF12C012D112D97
:103EE000E822F9220A231B2360E4E616F104010507
:103EF000110561F487FD0AC0211531054105510501
:103F000029F0805C9F4FAF4FBF4F80788D8F9E8F81
:103F1000AF8FB8A383E0898FCE01499602C083E1B9
:103F200093E00E942922A096E2E10C941E24A8E1CD
:103F3000B0E0EDE9FFE10C940A2469837A838B8376
:103F40009C832D833E834F8358878E01075F1F4FCD
:103F5000CE010196B8010E94F72281E1E82EF12CF2
:103F6000EC0EFD1ECE010596B7010E94F722998541
:103F7000923008F483C08989823008F47BC02A8596
:103F80003A8923272A87943011F0923021F4981728
:103F900009F06CC071C0843039F41D861E861F86FE
:103FA000188A1C861B866AC0823019F484E08987CF
:103FB00065C08B859C852B893C89821B930B9C87D4
:103FC0008B872D853E854F855889ED88FE880F8922
:103FD000188D2E153F054007510738F4220F331F67
:103FE000441F551F01979C878B876FE170E0A12CC0
:103FF000B12CC12CA0E4DA2E80E090E0DC012E157B
:104000003F054007510740F08A299B29AC29BD296B
:104010002E193F09400B510BD694C794B794A7941F
:10402000220F331F441F551F6150704041F76FE747
:10403000E62EF12C012D112DE822F9220A231B2353
:1040400060E4E616F1040105110561F487FD0AC07C
:10405000211531054105510529F0805C9F4FAF4F77
:10406000BF4F80788D879E87AF87B88B8E01075FA3
:104070001F4F04C0870102C003E113E0C8010E9482
:1040800029226896EAE00C942624A8E1B0E0EBE44B
:10409000F0E20C940E2469837A838B839C832D83B6
:1040A0003E834F8358878E01075F1F4FCE010196D5
:1040B000B8010E94F72281E1E82EF12CEC0EFD1EE2
:1040C000CE010596B7010E94F7228985823040F023
:1040D0008989823028F0C801B7010E94602301C09D
:1040E0008FEF6896E6E00C942A24A8E1B0E0EBE7B5
:1040F000F0E20C940E2469837A838B839C832D8356
:104100003E834F8358878E01075F1F4FCE01019674
:10411000B8010E94F72281E1E82EF12CEC0EFD1E81
:10412000CE010596B7010E94F7228985823040F0C2
:104130008989823028F0C801B7010E94602301C03C
:1041400081E06896E6E00C942A24A8E0B0E0EBEA6F
:10415000F0E20C940E247B018C0183E08983D8016A
:10416000C7018827B7FD83959927AA27BB27282F42
:104170008A83E114F1040105110519F482E08983B1
:1041800037C08EE190E09C838B83222389F080E00E
:10419000E81680E0F80680E0080780E8180769F173
:1041A00010950095F094E094E11CF11C011D111D87
:1041B000ED82FE820F831887C801B7010E94CF21CC
:1041C0009C01215030401216130694F4022E04C0B4
:1041D000EE0CFF1C001F111F0A94D2F7ED82FE8225
:1041E0000F8318878EE190E0821B930B9C838B8357
:1041F000CE0101960E94292204C060E070E080E0B8
:104200009FEC2896E6E00C942A24ACE0B0E0EBE0CA
:10421000F1E20C94122469837A838B839C83CE0110
:104220000196BE016B5F7F4F0E94F7228D81823025
:1042300081F1823070F1843021F48E81882369F11C
:104240000AC02F81388537FD24C06E812F3131059A
:104250003CF0662311F120E030E040E050E821C05E
:104260008EE190E0821B930B29853A854B855C8516
:1042700004C056954795379527958A95D2F76623BA
:1042800081F050954095309521953F4F4F4F5F4FAE
:1042900008C020E030E0A90104C02FEF3FEF4FEF4E
:1042A0005FE7B901CA012C96E2E00C942E24A8E045
:1042B000B0E0EDE5F1E20C940C247B018C011A8254
:1042C000611571058105910519F482E089835FC04C
:1042D00083E089838EE1C82ED12CDC82CB82ED82F3
:1042E000FE820F831887C801B7010E94CF21FC010D
:1042F0003197F7FF3AC0AA27BB27AE1BBF0B21E0BF
:1043000030E040E050E00A2E04C0220F331F441F6B
:10431000551F0A94D2F721503040404050402E2182
:104320003F214023512361E070E080E090E02115BF
:1043300031054105510519F460E070E0CB0104C07E
:1043400016950795F794E794AA95D2F7E62AF72AE7
:10435000082B192BED82FE820F8318878EE190E0E7
:104360008E1B9F0B9C838B8312C0309781F00E2E87
:1043700004C0EE0CFF1C001F111F0A94D2F7ED823F
:10438000FE820F831887CE1ADF0ADC82CB82CE0131
:1043900001960E9429222896E8E00C942824AF92E6
:1043A000BF92CF92DF92EF92FF920F931F937B0108
:1043B0008C0180E0E81680E0F80681E0080780E0E4
:1043C000180758F4EFEFEE16F1040105110509F096
:1043D00090F480E090E0DC0117C0F0E0EF16F0E030
:1043E000FF06F0E00F07F1E01F0750F480E190E0D6
:1043F000A0E0B0E009C088E090E0A0E0B0E004C038
:1044000088E190E0A0E0B0E020E230E040E050E061
:10441000281B390B4A0B5B0B5701680104C0D6946B
:10442000C794B794A7948A95D2F7D601C501855E43
:104430009C4FFC018081281B310941095109C901A8
:104440001F910F91FF90EF90DF90CF90BF90AF90B2
:104450000895EF92FF920F931F93CF93DF93FC0188
:10446000248135814681578161818081823020F4A9
:104470004061EFEFF0E0A3C0843009F49BC08230CC
:1044800009F492C0211531054105510509F48FC089
:104490000280F381E02D8FEFE238F8070CF05AC06C
:1044A000C2E8DFEFCE1BDF0BCA31D1056CF5790115
:1044B0008A010C2E04C016950795F794E7940A9488
:1044C000D2F781E090E0A0E0B0E00C2E04C0880FAD
:1044D000991FAA1FBB1F0A94D2F70197A109B1091E
:1044E00082239323A423B52321E030E040E050E071
:1044F0000097A105B10519F420E030E0A9012E29AB
:104500003F29402B512B03C020E030E0A901DA0104
:10451000C9018F779070A070B07080349105A105AB
:10452000B10539F427FF09C0205C3F4F4F4F5F4F63
:1045300004C0215C3F4F4F4F5F4FE1E0F0E020307F
:1045400080E0380780E0480780E4580728F5E0E07D
:10455000F0E022C0E038F1056CF5E158FF4FDA01D8
:10456000C9018F779070A070B07080349105A1055B
:10457000B10539F427FF09C0205C3F4F4F4F5F4F13
:1045800004C0215C3F4F4F4F5F4F57FF05C056950A
:10459000479537952795319687E0569547953795F6
:1045A00027958A95D1F70BC0E0E0F0E005C0E0E088
:1045B000F0E005C0EFEFF0E020E030E0A9018E2F41
:1045C000879588278795942F9F77679566276795A6
:1045D000E695E22EA92FA82BFE2FF62B622F732F24
:1045E0008A2F9F2FCDB7DEB7E6E00C942A24DC019A
:1045F000FB012C9111963C91119712968C91129778
:10460000482F4F7750E0982F991F9927991F13969D
:104610006C911397862F880F892B90E0661F662771
:10462000661F6183009739F5211531054105510554
:1046300011F482E029C082E89FEF9383828367E0D0
:10464000220F331F441F551F6A95D1F783E08083E3
:1046500009C0220F331F441F551F82819381019788
:1046600093838283203080E0380780E0480780E42D
:10467000580778F320C08F3F910579F42115310553
:104680004105510519F484E08083089544FF03C077
:1046900081E0808310C010820EC08F5790409383BA
:1046A000828383E0808387E0220F331F441F551FDE
:1046B0008A95D1F7506424833583468357830895C0
:1046C000FC01DB019081923008F449C08C9182306A
:1046D00008F445C0943051F461818430B1F51196ED
:1046E0002C91119730E0261B310941C0843021F014
:1046F000923041F48230B1F111968C911197882358
:10470000A1F12DC06181823001F111968C91119738
:104710006817D9F42281338112968D919C91139759
:104720008217930794F028173907BCF0248135814C
:104730004681578114968D919D910D90BC91A02D2D
:1047400082179307A407B50718F4662341F00DC03C
:10475000281739074A075B0728F4662331F021E060
:1047600030E005C020E030E002C02FEF3FEFC9018C
:10477000089597FB092E07260AD077FD04D02ED086
:1047800006D000201AF4709561957F4F0895F6F7D2
:10479000909581959F4F0895A1E21A2EAA1BBB1BED
:1047A000FD010DC0AA1FBB1FEE1FFF1FA217B307FD
:1047B000E407F50720F0A21BB30BE40BF50B661F13
:1047C000771F881F991F1A9469F7609570958095D7
:1047D00090959B01AC01BD01CF010895AA1BBB1BA5
:1047E00051E107C0AA1FBB1FA617B70710F0A61BF1
:1047F000B70B881F991F5A95A9F780959095BC0112
:10480000CD0108952F923F924F925F926F927F92C7
:104810008F929F92AF92BF92CF92DF92EF92FF92D0
:104820000F931F93CF93DF93CDB7DEB7CA1BDB0B7C
:104830000FB6F894DEBF0FBECDBF09942A88398821
:1048400048885F846E847D848C849B84AA84B98428
:10485000C884DF80EE80FD800C811B81AA81B98134
:10486000CE0FD11D0FB6F894DEBF0FBECDBFED0148
:104870000895EE0FFF1F0590F491E02D0994CF935A
:10488000DF938230910510F482E090E0E0917906A8
:10489000F0917A0640E050E020E030E026C06081F0
:1048A000718168177907E0F06817790781F48281D0
:1048B00093812115310531F0D90113969C938E9384
:1048C00012972BC090937A068093790626C04115E3
:1048D000510519F06417750718F4AB01E901DF0100
:1048E0009F0172816381E72FF62F3097C1F6411542
:1048F000510501F1481B590B4430510580F41296C3
:104900008D919C911397209719F09B838A8304C003
:1049100090937A0680937906FD01329646C0FD0198
:10492000E40FF51F819391934250504011965C9390
:104930004E933BC0209177063091780621153105C2
:1049400041F420911D0430911E0430937806209389
:10495000770620911F04309120042115310541F480
:104960002DB73EB740911B0450911C04241B350BFE
:10497000E0917706F0917806E217F307A0F42E1B7A
:104980003F0B2817390778F0AC014E5F5F4F2417B3
:10499000350748F04E0F5F1F509378064093770617
:1049A0008193919302C0E0E0F0E0CF01DF91CF91DD
:1049B0000895CF93DF93009709F491C0FC013297DB
:1049C000138212826091790670917A0661157105E1
:1049D00081F420813181280F391F809177069091D1
:1049E00078068217930799F5F0937806E093770697
:1049F00076C0DB0180E090E002C0CD01D901AE17A6
:104A0000BF0748F412962D913C911397211531055B
:104A1000A1F7CD0121C0B383A283EF014991599140
:104A20009E01240F351FA217B30779F42D913C91F5
:104A30001197240F351F2E5F3F4F3183208312962D
:104A40002D913C91139733832283009729F4F0939F
:104A50007A06E093790643C0DC011396FC93EE934B
:104A600012974D915D91A40FB51FEA17FB0769F4EA
:104A700020813181240F351F2E5F3F4FEC01398398
:104A80002883228133813B832A83E0E0F0E002C067
:104A9000FB01BC01DB0112968D919C91139700974D
:104AA000B9F79B012E5F3F4F8D919C911197820F1B
:104AB000931F40917706509178064817590779F46B
:104AC000309729F410927A061092790602C0138268
:104AD0001282225030403093780620937706DF917F
:104AE000CF910895A0E0B0E0E8E7F5E20C94082447
:104AF0008C01CB010115110529F40E943F24082FD8
:104B0000192FB5C0D80112979801260F371F2A1701
:104B10003B0708F4AAC0ED90FC901197E616F70643
:104B2000D0F045E0E416F10408F4A1C0A701445018
:104B300050404617570708F49AC0A701425050400A
:104B4000461B570BF901419351936D937C93CF0111
:104B50000E94D9248CC05B01AE18BF0848018E0C9E
:104B60009F1CE0917906F0917A06CC24DD24C0E008
:104B7000D0E041C0E815F90599F560817181AB017C
:104B80004E5F5F4F4A155B0558F1AB014A195B094F
:104B9000CC24DD246894C1F8C40ED51E8280A38085
:104BA000E5E0CE16D10448F0F9018282A382518358
:104BB000408311969C938E9309C0C7010296860F7D
:104BC000971F11969C938E93E82DFA2D209719F03C
:104BD000FB83EA834CC0F0937A06E093790647C0E2
:104BE00040815181C416D50608F46A01EF01528153
:104BF0004381E52FF42F309709F0BCCF4091770621
:104C00005091780648155905E9F4C816D906D0F42C
:104C100040911F04509120044115510541F44DB7B6
:104C20005EB760911B0470911C04461B570B241740
:104C30003507D8F4309378062093770611969C9325
:104C40008E9315C00E943F24C82EE6016E01D92E16
:104C5000E601209751F08C2DB801A7010E947C2617
:104C6000C8010E94D924860102C000E010E0C801FA
:104C7000CDB7DEB7ECE00C9424241F93FC019927F8
:104C80008827BC01E89411911032E9F3193010F033
:104C90001E30C8F31B3251F01D3249F4689406C02F
:104CA0000E944927610F711D811D911D11911053A3
:104CB0001A30B0F33EF490958095709561957F4FD2
:104CC0008F4F9F4F1F910895911133C1803219F07A
:104CD00089508550D0F708959111089581548A51D3
:104CE00008F4805E855A08959111089581568A517D
:104CF00008F4805285580895FB01DC0102C0019040
:104D00000D9241505040D8F708956817790768F41C
:104D1000FB01DC01E40FF51FA40FB51F02C00290D8
:104D20000E9241505040D8F708950C947C26FC0117
:104D30008191861721F08823D9F799270895319713
:104D4000CF010895FB01DC018D91019080190110C4
:104D5000D9F3990B0895FB01DC0101900D9200201D
:104D6000E1F70895FB01DC014150504030F08D9196
:104D70000190801919F40020B9F7881B990B089548
:104D8000FB01DC014150504048F001900D920020A1
:104D9000C9F701C01D9241505040E0F70895FC0151
:104DA00081E090E00190061609F4CF010020D1F7D0
:104DB00001970895FB0151915523A9F0BF01DC0132
:104DC0004D9145174111E1F759F4CD0101900020B3
:104DD00049F04D9140154111C9F3FB014111EFCF4D
:104DE00081E090E001970895FB019F01E894423033
:104DF000C4F04532B4F44A3029F497FB1EF4909580
:104E000081959F4F642F77270E94EE23805D8A3320
:104E10000CF0895D8193CB010097A1F716F45DE258
:104E200051931082C9010C949C27FA01CF93FF93F0
:104E3000EF93223044F1253234F5C22FE894CA3082
:104E400049F497FB3EF490958095709561957F4F5E
:104E50008F4F9F4F2C2F332744275527FF93EF93D6
:104E60000E94CC23EF91FF91605D6A330CF0695D85
:104E70006193B901CA01605070408040904051F781
:104E800016F4CDE2C19310828F919F91CF910C9433
:104E90009C27592F482F372F262F660F771F881FE3
:104EA000991F660F771F881F991F620F731F841F3A
:104EB000951F660F771F881F991F0895FA01CF93DA
:104EC000FF93EF932230CCF02532BCF4C22F2C2F6D
:104ED000332744275527FF93EF930E94CC23EF916C
:104EE000FF91605D6A330CF0695D6193B901CA019D
:104EF000605070408040904051F710828F919F9198
:104F0000CF910C949C27FB019F01423074F04532F5
:104F100064F4642F77270E94EE23805D8A330CF0BF
:104F2000895D8193CB010097A1F71082C9010C9490
:104F30009C27992788270895DC01FC01672F719130
:104F40007723E1F7329704C07C916D93708362916F
:0C4F5000AE17BF07C8F30895F894FFCF18
:104F5C00207569643A00206973206D697373696EFA
:104F6C00672E206E657720657461203D20002042FD
:104F7C00726F6B656E207061636B65742072656314
:104F8C0065697665642E0020706F6C6C696E6720A5
:104F9C0049414D2000204E6578742065787065631A
:104FAC007465642074782068617320756964203D91
:104FBC002000206574613D002057696E646F772076
:104FCC006F70656E21002077696E646F7720636C5B
:104FDC006F7365642E20737563636573733D002076
:104FEC00506173736976656C79206C697374656E46
:104FFC00696E6720666F72203330732E2E2E002060
:10500C002E2E2E646F6E6520706173736976656CDD
:10501C0079206C697374656E696E672E00200000D0
:10502C00207B7569643A00207B00743A20002C20A8
:10503C0073003A20007D7D004E4F204D4F5245208D
:10504C0042554646455253210052583A002057418A
:10505C00524E494E473A204C4F53494E47204441FB
:10506C0054412100552DD45374617274696E6720BC
:10507C00726631325F696E697469616C697A655FF9
:10508C0063632829200052464D3132622066696ED6
:10509C00697368656420706F7765722D7570207206
:1050AC00657365742E20205374617274696E672069
:1050BC00696E69742E2E2E00617474616368696E5A
:1050CC006720696E7465727275707400446F6E65DA
:1050DC0020696E69742E005374617274696E672056
:1050EC00726631325F696E697469616C697A655F89
:1050FC0065646628292000555565A6955555555566
:10510C005555555555555546000000000050530057
:10511C00004F4544462045636F4D616E6167657273
:10512C002052656365697665720046696E697368BD
:10513C00656420696E697400000000005B0D780FD7
:10514C00F60C250D090D470D000000002D1B780FE6
:10515C002D1B2D1B2D1B2D1B2E00000000002D1BAD
:10516C00780F0000000000000000000001020203A4
:10517C0003030304040404040404040505050505E1
:10518C0005050505050505050505050606060606BE
:10519C0006060606060606060606060606060606A3
:1051AC00060606060606060606060607070707078E
:1051BC000707070707070707070707070707070773
:1051CC000707070707070707070707070707070763
:1051DC000707070707070707070707070707070753
:1051EC00070707070707070707070708080808083E
:1051FC000808080808080808080808080808080823
:10520C000808080808080808080808080808080812
:10521C000808080808080808080808080808080802
:10522C0008080808080808080808080808080808F2
:10523C0008080808080808080808080808080808E2
:10524C0008080808080808080808080808080808D2
:10525C0008080808080808080808080808080808C2
:10526C00080808080808080808080820007B060039
:02527C00000030
:00000001FF
