:100000000C94C6030C94E42B0C94112C0C94EE036A
:100010000C94EE030C94EE030C94EE030C94EE039C
:100020000C94EE030C94EE030C94EE030C94EE038C
:100030000C94EE030C94EE030C94EE030C94EE037C
:100040000C943E2C0C94EE030C940A290C943D293C
:100050000C94EE030C94EE030C94EE030C94EE035C
:100060000C94EE030C94EE037B226964223A200088
:100070002C2022616374697665223A20007D007B22
:10008000226964223A20002C20226C6173745F7311
:1000900065656E223A20002C20226E756D5F7065BA
:1000A00072696F64735F6D6973736564223A2000CF
:1000B0002C2022657461223A20002C202273616D6D
:1000C000706C655F706572696F64223A20002C2045
:1000D00022616374697665223A20007D00545820BD
:1000E000256C752E20416464696E67206E65775FAC
:1000F00073616D706C655F706572696F64202575E2
:100100002C2061766572616765206E6F773D25757D
:100110000020002000284445425547290028494E28
:10012000464F2900285741524E2900284552524F28
:1001300052290028464154414C290065746120250C
:100140006C75203C206D696C6C6973282920256CC6
:10015000752E2069643D256C752E206E756D5F705F
:100160006572696F64733D25642C206163746976E0
:10017000653D25640069643A256C75206D6973736B
:10018000696E672E204E6577204554413D256C757C
:10019000206D69737365643D2575004E6578742024
:1001A00054582049443D256C752C204554413D252B
:1001B0006C750043435F54580043435F54525800EA
:1001C000617474616368696E6720696E74657272C8
:1001D000757074004E4F204D4F5245204255464693
:1001E000455253210041434B206175746F5F70612C
:1001F0006972206F6E0041434B206175746F5F70B0
:10020000616972206F6666004E414B20456E6162E7
:100210006C65206D616E75616C2070616972696ECC
:1002200067206265666F7265207020636D640041AF
:10023000434B20456E7465722049443A004E414B51
:100240000041434B20706169725F77697468207365
:10025000657420746F200041434B20656E74657295
:10026000206C6F67206C6576656C3A20004E414BC0
:100270000041434B204C6F67206C6576656C2073A2
:10028000657420746F20000041434B206F6E6C79C1
:10029000207072696E7420646174612066726F6D83
:1002A000206B6E6F776E207472616E736D697474FB
:1002B0006572730041434B207072696E7420616CEB
:1002C0006C2076616C6964207061636B6574730087
:1002D00041434B207072696E7420616C6C004E411A
:1002E0004B20756E7265636F676E6973656420631A
:1002F0006D6420270027002C20000041434B20651F
:100300006E746572200020494420746F206164641B
:100310003A002061646465642000200041434B0082
:100320004E414B206E6F7400256C752069732061FF
:100330006C726561647920696E20646174612E005D
:1003400044594E414D4943204152524159204F5545
:1003500054204F462052414E4745204552524F525D
:10036000004F5554204F46204D454D4F52590041A6
:10037000434B20656E746572200020494420746FE1
:10038000206164643A002061646465642000200098
:1003900041434B004E414B206E6F7400256C75201D
:1003A000697320616C726561647920696E20646193
:1003B00074612E0044594E414D49432041525241EF
:1003C00059204F5554204F462052414E4745204515
:1003D00052524F52004F5554204F46204D454D4FDD
:1003E00052590041434B20656E746572206E756DE5
:1003F000626572206F662000733A00206164646554
:10040000642000730041434B004E414B206E6F74DB
:100410000044594E414D4943204152524159204FC9
:100420005554204F46204D454D4F52590041434BA6
:1004300020656E746572206E756D626572206F66E0
:100440002000733A002061646465642000730041F9
:10045000434B004E414B206E6F740044594E414D4A
:100460004943204152524159204F5554204F462074
:100470004D454D4F52590041434B2064656C6574A6
:10048000656420616C6C2000730041434B206465FF
:100490006C6574656420616C6C2000730041434B93
:1004A00020656E746572200020494420746F2072AC
:1004B000656D6F76653A002072656D6F76656420B4
:1004C00000200041434B004E414B206E6F740025CD
:1004D0006C75206E6F7420696E20646174612E00EB
:1004E0004E414B20696E64657820746F6F206C619B
:1004F0007267650041434B20656E74657220002071
:10050000494420746F2072656D6F76653A002072E1
:10051000656D6F7665642000200041434B004E41BD
:100520004B206E6F7400256C75206E6F7420696EA1
:1005300020646174612E004E414B20696E646578C1
:1005400020746F6F206C617267650041434B007BC4
:10055000220073223A205B002C000D0A5D7D0041D1
:10056000434B007B220073223A205B002C000D0AD3
:100570005D7D0057696E206F70656E2145787065EE
:100580006374696E6720256C7520617420256C7515
:100590000057696E20636C6F7365642E73756363B7
:1005A0006573733D25640057616974696E67202522
:1005B0006C75206D7320666F7220494420256C7520
:1005C00000527827642043435F5458207061636B66
:1005D0006574207720756E6B6E6F776E20494420AE
:1005E000256C7500527827642043435F545258208D
:1005F0007061636B6574207720756E6B6E6F776EBC
:1006000020494420256C7500527827642062726F5F
:100610006B656E202573207061636B6574004459AF
:100620004E414D4943204152524159204F5554208B
:100630004F462052414E4745204552524F520020CE
:10064000000050616972207265712066726D20250C
:100650006C75007B227072223A20007D007B227034
:1006600077223A2000207D0041434B20656E74655F
:10067000722054525820746F207377697463682015
:10068000006F6E3A006F66663A0041434B004E4180
:100690004B00506F6C6C2043432054525820256C03
:1006A000750041434B2043432054525820256C751C
:1006B00000435258002C202274223A20002C202281
:1006C0007374617465223A2000310030007D007B34
:1006D0002274797065223A202200222C202269643B
:1006E000223A2000747800747278007D002C202259
:1006F00073656E736F7273223A207B002C20002288
:1007000000223A20007D004544462049414D2052B8
:10071000656365697665720046696E6973686564CC
:1007200020696E69740020000074696D656F7574CE
:1007300000000000070002010000030406000000A2
:1007400000000000000102040810204080010204A3
:100750000810200102040810200404040404040406
:100760000402020202020203030303030300000067
:1007700000250028002B0000000000240027002A8C
:100780000000E623D226F8294224D62611241FBED3
:10079000CFEFD8E0DEBFCDBF11E0A0E0B1E0ECEDDF
:1007A000F6E602C005900D92A839B107D9F713E01B
:1007B000A8E9B1E001C01D92AC37B107E1F717E03D
:1007C000C8E8D7E004C02297FE010E94452EC23837
:1007D000D107C9F70E94CB260C9461330C9400001A
:1007E000CF92DF92EF92FF920F931F936B017C01E8
:1007F00020E030E040E05FE40E94530787FD0EC038
:1008000020E030E040E05FE4C701B6010E949B05B4
:100810000E94DE078B019C01305806C0C701B6015B
:100820000E94DE078B019C01B801C9011F910F9145
:10083000FF90EF90DF90CF900895A0E0B0E0E3E26A
:10084000F4E00C94102E3C01CB01EA01D3012C9171
:10085000223008F43EC1FB013081323008F436C149
:10086000243071F4343009F034C111962C91818117
:10087000281709F42EC1BAE16B2EB1E07B2E29C1F5
:10088000343009F423C1323091F4223009F021C10F
:1008900028E0F301DA0101900D922A95E1F7DB01DE
:1008A00011968C91F30191818923898311C12230A2
:1008B00009F40CC1D3011296ED91FC911397DB0161
:1008C00012966D917C911397D30114960D911D9101
:1008D0002D913C911797DC011496CD90DD90ED9011
:1008E000FC901797AF01461B570BDA0157FF04C066
:1008F000AA27BB27A41BB50BA032B1050CF065C01D
:10090000141615067CF5B701A6010A2E04C07695CB
:100910006795579547950A94D2F7812C912C5401ED
:10092000839404C0880C991CAA1CBB1CAA95D2F7FE
:10093000B1E08B1A9108A108B1088C209D20AE204F
:10094000BF20C12CD12C7601C39481149104A10441
:10095000B10419F4C12CD12C7601C42AD52AE62A77
:10096000F72A3EC0452BE1F1EA0FFB1FB901A801B0
:100970000A2E04C076956795579547950A94D2F745
:10098000812C912C5401839404C0880C991CAA1CBE
:10099000BB1CAA95D2F7A1E08A1A9108A108B10858
:1009A00080229122A222B32201E010E020E030E078
:1009B00081149104A104B10419F400E010E098013D
:1009C000042B152B262B372B0BC06E177F0724F417
:1009D000C12CD12C760104C0FB0100E010E098018D
:1009E000D30111964C91DC0111968C91481709F4B2
:1009F00042C0442349F0D701C601801B910BA20BD2
:100A0000B30B8C019D0104C00C191D092E093F096F
:100A100037FD04C01982FB83EA830BC081E0898320
:100A2000FB83EA8330952095109501951F4F2F4F3A
:100A30003F4F0C831D832E833F830DC0880F991F6A
:100A4000AA1FBB1F8C839D83AE83BF838A819B813A
:100A500001979B838A838C819D81AE81BF818C01AC
:100A60009D0101501109210931090F3F1F4F2F4FDF
:100A70003F4320F30BC04983FB83EA830C0D1D1D0C
:100A80002E1D3F1D0C831D832E833F8383E08883AF
:100A90000C811D812E813F8137FF1AC0D901C80109
:100AA00081709927AA27BB27369527951795079513
:100AB000802B912BA22BB32B8C839D83AE83BF8382
:100AC0008A819B8101969B838A8302C03C0101C07D
:100AD0003E01C301CDB7DEB7EEE00C942C2EA0E2B0
:100AE000B0E0E5E7F5E00C941C2E6D8F7E8F8F8FC4
:100AF00098A3298F3A8F4B8F5C8FBE016F5E7F4F1B
:100B0000CE014D960E946409BE01675F7F4FCE0102
:100B100049960E946409AE014F5F5F4FBE01675F57
:100B20007F4FCE0141960E941D040E94A308A0960B
:100B3000E2E00C94382EA0E2B0E0E1EAF5E00C949B
:100B40001C2E6D8F7E8F8F8F98A3298F3A8F4B8F9E
:100B50005C8FBE016F5E7F4FCE014D960E9464098F
:100B6000BE01675F7F4FCE0149960E9464098A8566
:100B700091E089278A87AE014F5F5F4FBE01675FB3
:100B80007F4FCE0141960E941D040E94A308A096AB
:100B9000E2E00C94382EA0E2B0E0E1EDF5E00C9438
:100BA0000E2E6D8F7E8F8F8F98A3298F3A8F4B8F4C
:100BB0005C8FBE016F5E7F4FCE014D960E9464092F
:100BC000BE01675F7F4FCE0149960E9464099989F3
:100BD000923008F412C08985823008F41AC094302B
:100BE00021F4823009F4B4C008C0843021F492307A
:100BF00009F4AEC00EC0923051F481E02A899A8582
:100C0000291301C080E08A8BCE014196A3C08230B7
:100C100051F481E02A899A85291301C080E08A87EE
:100C2000CE01099697C08D889E88AF88B88C0D85B7
:100C30001E852F853889E0E2F0E080E090E0DC015D
:100C4000C12CD12C760140E050E0BA0180FE18C0E2
:100C5000400F511F621F731F8C0D9D1DAE1DBF1DC8
:100C6000412C512C320143944017510762077307FE
:100C700018F0412C512C3201840D951DA61DB71D75
:100C8000CC0CDD1CEE1CFF1C37FF02C06894C0F8C2
:100C9000000F111F221F331FB694A79497948794B7
:100CA0003197A1F62B893C89EB85FC852E0F3F1FE0
:100CB0002E5F3F4F3C832B8321E0EA893A85E31383
:100CC00001C020E02A83EB81FC810CC080FF05C0BD
:100CD00076956795579547957068B695A7959795BA
:100CE00087953196B7FDF2CF9F010CC0880F991FF1
:100CF000AA1FBB1F77FD8160440F551F661F771F1A
:100D0000215031090097A105E0E4BE0778F32B8359
:100D10003C838C019D010F77112722273327003454
:100D200011052105310559F487FD09C0452B462BD6
:100D3000472B29F0805C9F4FAF4FBF4F80788D834A
:100D40009E83AF83B88783E08983CE01019602C07A
:100D50008AE191E00E94A308A096E0E10C942A2E7B
:100D6000A8E1B0E0E6EBF6E00C94162E6D8B7E8BDE
:100D70008F8B988F298B3A8B4B8B5C8BBE01675F77
:100D80007F4FCE0145960E946409BE016F5F7F4F81
:100D9000CE0141960E9464099985923008F475C08D
:100DA0008981823008F474C02A853A8123272A87F2
:100DB000943011F0923019F4981367C06CC08430ED
:100DC00039F41D861E861F86188A1C861B8604C061
:100DD000823029F484E08987CE0109965EC08B8534
:100DE0009C852B813C81821B930B9C878B874D8537
:100DF0005E856F857889CD80DE80EF80F8844C1524
:100E00005D056E057F0538F4440F551F661F771F7B
:100E100001979C878B87EFE1F0E000E010E020E095
:100E200030E480E090E0DC014C155D056E057F0547
:100E300040F0802B912BA22BB32B4C195D096E092E
:100E40007F093695279517950795440F551F661FFF
:100E5000771F319749F78C019D010F7711272227C2
:100E60003327003411052105310559F487FD09C0E8
:100E7000452B462B472B29F0805C9F4FAF4FBF4F30
:100E800080788D879E87AF87B88BCE01099605C085
:100E9000CE01019602C08AE191E00E94A308689603
:100EA000E8E00C94322EA8E1B0E0E9E5F7E00C941C
:100EB0001C2E6D8B7E8B8F8B988F298B3A8B4B8B57
:100EC0005C8BBE01675F7F4FCE0145960E9464092F
:100ED000BE016F5F7F4FCE0141960E9464098985F4
:100EE000823058F08981823040F0BE016F5F7F4FC1
:100EF000CE0109960E94D30901C08FEF6896E2E007
:100F00000C94382EA8E0B0E0E8E8F7E00C941A2E34
:100F100023E029838B019C01002737FD03951127CE
:100F200022273327402F0A8361157105810591051A
:100F300019F482E0898335C02EE130E03C832B83B5
:100F4000442371F061157105810520E8920771F164
:100F5000002711279801061B170B280B390B02C01D
:100F60008B019C01C901B8010E94492E01971816F6
:100F700019062CF00D831E832F83388712C0082E8C
:100F800004C0000F111F221F331F0A94D2F70D83D4
:100F90001E832F8338872EE130E0281B390B3C83DA
:100FA0002B83CE0101960E94A30804C060E070E08C
:100FB00080E09FEC2896E4E00C94362EACE0B0E0A4
:100FC000E4EEF7E00C941A2E69877A878B879C876A
:100FD000BE016F5F7F4FCE0109960E94640989812F
:100FE000823091F1823080F1843041F48A8188230B
:100FF00031F100E010E020E030E829C02B813C8195
:1010000037FD22C02F3131058CF78EE190E0821B35
:10101000930B0D811E812F81388504C0369527954D
:10102000179507958A95D2F78A81882381F03095A4
:101030002095109501951F4F2F4F3F4F08C00FEF80
:101040001FEF2FEF3FE703C000E010E09801B80169
:10105000C9012C96E4E00C94362EA8E0B0E0E3E35E
:10106000F8E00C94162E8B019C011A826115710513
:101070008105910519F482E089835DC083E089834D
:101080004EE150E05C834B83C901B8010E94492EB8
:10109000019797FF39C0EE27FF27E81BF90B41E0C6
:1010A00050E060E070E00E2E04C0440F551F661F34
:1010B000771F0A94D2F74150510961097109402301
:1010C000512362237323C12CD12C7601C394452B69
:1010D000462B472B19F4C12CD12C760104C0369530
:1010E000279517950795EA95D2F70C291D292E29E2
:1010F0003F290D831E832F8338872EE130E0281B84
:10110000390B3C832B8317C0009729F40D831E8372
:101110002F83388710C0082E04C0000F111F221F14
:10112000331F0A94D2F70D831E832F833887481B01
:10113000590B5C834B83CE0101960E94A30828962D
:10114000E8E00C94322E0F931F93CF93FC0144815F
:10115000558166817781C1818081823020F4606110
:101160008FEF90E0A3C0843009F49BC0823009F473
:1011700092C0411551056105710509F48FC02281A6
:10118000338122388FEF38070CF057C0E2E8FFEFC9
:10119000E21BF30BEA31F10564F58A019B010E2E87
:1011A00004C036952795179507950A94D2F781E0E4
:1011B00090E0A0E0B0E004C0880F991FAA1FBB1FF9
:1011C000EA95D2F70197A109B10984239523A623B3
:1011D000B72341E050E060E070E0892B8A2B8B2B35
:1011E00019F440E050E0BA01402B512B622B732BD5
:1011F00003C040E050E0BA01DB01CA018F779927B4
:10120000AA27BB2780349105A105B10539F447FF12
:1012100009C0405C5F4F6F4F7F4F04C0415C5F4F20
:101220006F4F7F4F81E090E041155105610520E44B
:10123000720748F580E090E026C0203831058CF533
:10124000DB01CA018F779927AA27BB278034910534
:10125000A105B10539F447FF09C0405C5F4F6F4FEE
:101260007F4F04C0415C5F4F6F4F7F4F77FD04C0DD
:10127000C90181589F4F07C0769567955795479547
:10128000C90180589F4F97E0769567955795479588
:101290009A95D1F70BC080E090E005C080E090E027
:1012A00005C08FEF90E040E050E0BA01982F96958E
:1012B000C0FB97F9362F80FB37F9642F752F832FEA
:1012C000CF911F910F910895CF92DF92EF92DC01A1
:1012D000FB01CC901196DC90119712968C9112978D
:1012E0003FE7E32EE8226E2DA60170E0982F991FAC
:1012F0009927991F13962C91822F880F892B90E0A4
:1013000027FB222720F92183009729F54115510554
:101310006105710511F482E027C082E89FEF938395
:10132000828327E0440F551F661F771F2A95D1F748
:1013300083E0808309C0440F551F661F771F828199
:10134000938101979383828341155105610580E460
:10135000780788F320C08F3F910579F44115510536
:101360006105710519F484E0808319C0E4FE03C0AF
:1013700081E0808310C010820EC08F579109938343
:10138000828383E0808387E0440F551F661F771FA9
:101390008A95D1F770644483558366837783EF9091
:1013A000DF90CF900895CF93FC01DB0190819230C4
:1013B00008F452C08C91823008F44EC0943071F41D
:1013C000843039F411962C9130E08181281B310949
:1013D00048C08181882309F43FC03BC0843029F490
:1013E00011968C91811138C034C0923019F482303A
:1013F000B9F735C0823069F3C18111968C9111978C
:10140000C8131DC02281338112968D919C91139730
:10141000821793070CF413C0281739070CF417C070
:10142000448155816681778114968D919D910D90AF
:10143000BC91A02D84179507A607B70718F4C11112
:1014400008C00AC0481759076A077B0740F4C11152
:1014500003C02FEF3FEF05C021E030E002C020E0E5
:1014600030E0C901CF91089526E231E0FC013183DB
:101470002083089526E231E0FC0131832083089522
:1014800026E231E0FC01318320830C94EA2626E237
:1014900031E0FC01318320830C94EA260F931F93E3
:1014A000CF93DF938C018EE491E0F80191838083E8
:1014B00082819381009719F1FC013297208131815B
:1014C0004EE1429FE001439FD00D1124C80FD91F68
:1014D000CE01F801228133816E978217930741F084
:1014E000E881F9810190F081E02DCE010995F0CFDE
:1014F0000297DF91CF911F910F910C94EE26DF910F
:10150000CF911F910F910895CF93DF93EC010E942B
:101510004E0ACE01DF91CF910C94EA262AE331E006
:10152000FC01318320830C944E0ACF93DF93EC01AE
:101530000E948E0ACE01DF91CF910C94EA260F9380
:101540001F93CF93DF938C0188E591E0F80191839D
:10155000808382819381009719F1FC013297208169
:10156000318147E0429FE001439FD00D1124C80F15
:10157000D91FCE01F8012281338127978217930763
:1015800041F0E881F9810190F081E02DCE010995CB
:10159000F0CF0297DF91CF911F910F910C94EE261F
:1015A000DF91CF911F910F910895CF93DF93EC01BD
:1015B0000E949F0ACE01DF91CF910C94EA2624E489
:1015C00031E0FC01318320830C949F0ACF93DF9399
:1015D000EC010E94DF0ACE01DF91CF910C94EA2644
:1015E00069EB71E082EC92E00C94802A63EB71E08D
:1015F00082EC92E00C94802ACF93DF93EC0168E6B2
:1016000070E082EC92E00E94802A4A815B816C81CA
:101610007D812AE030E082EC92E00E94422B60E77C
:1016200070E082EC92E00E94802A6E814AE050E0F5
:1016300070E082EC92E00E94BC2B6DE770E082ECDF
:1016400092E0DF91CF910C94802ACF93DF93EC014D
:1016500068814AE050E070E082EC92E00E94BC2B8E
:101660008881823089F028F4882341F08130D1F4D8
:1016700008C0833061F08430A9F40CC065E171E0EA
:101680000BC06DE171E008C064E271E005C06BE27F
:1016900071E002C063E371E082EC92E0DF91CF91F0
:1016A0000C94802ADF91CF910895EF92FF920F93CF
:1016B0001F93CF93DF93CDB7DEB7C258D1090FB6D2
:1016C000F894DEBF0FBECDBFC557DF4FE880F9806D
:1016D000CB58D040C357DF4F08811981CD58D04037
:1016E00090910601F70180818917D0F10E94882C22
:1016F000AB01BC012AE030E082EC92E00E94422B78
:1017000061E171E082EC92E00E94802AC7010E94B0
:10171000250B63E171E082EC92E00E94802ADE01F9
:10172000AF5BBF4FF8010F5F1F4FE491ED93E111E5
:10173000F9CFAE0141575F4FCF57DF4F59834883F1
:10174000C158D040BE016F5B7F4FCE0101960E9411
:101750009E30BE016F5F7F4F82EC92E00E94D22AE2
:10176000CE57DF4F0FB6F894DEBF0FBECDBFDF916F
:10177000CF911F910F91FF90EF900895FC0186E2A9
:1017800091E0918380834FEF5FEFBA0142835383EF
:101790006483758381E086830895FC0186E291E08D
:1017A00091838083DB014D915D916D917C914283AA
:1017B00053836483758381E086830895CF93DF9399
:1017C000EC014FEF5FEFBA014A835B836C837D834B
:1017D00081E08E8380E391E099838883CE010B962C
:1017E0000E94442445E957EE6FEF7FEF4F835887FF
:1017F00069877A87198E1A8E1B8E1C8E1D8EDF913B
:10180000CF910895CF93DF93EC01FB01408151818B
:10181000628173814A835B836C837D8381E08E83E5
:1018200080E391E099838883CE010B960E94442443
:1018300045E957EE6FEF7FEF4F83588769877A87C7
:10184000198E1A8E1B8E1C8E1D8EDF91CF910895DE
:10185000CF93DF93EC016FE770E082EC92E00E949F
:10186000802A4A815B816C817D812AE030E082ECB4
:1018700092E00E94422B67E870E082EC92E00E94C6
:10188000802A4A8D5B8D6C8D7D8D2AE030E082EC64
:1018900092E00E94422B67E970E082EC92E00E94A5
:1018A000802A4AE050E0698D82EC92E00E94692B28
:1018B00060EB70E082EC92E00E94802A4F815885B4
:1018C00069857A852AE030E082EC92E00E94422B22
:1018D0006AEB70E082EC92E00E94802ACE010B96C7
:1018E0000E946D24FC01608171814AE050E082EC2D
:1018F00092E00E94632B6EEC70E082EC92E00E941A
:10190000802A6E814AE050E070E082EC92E00E9412
:10191000BC2B6BED70E082EC92E0DF91CF910C94E8
:10192000802A8F929F92AF92BF92CF92DF92EF92D6
:10193000FF920F931F93CF93DF9300D01F92CDB7E9
:10194000DEB75C014B01FC01028D138D248D358DBA
:10195000011511052105310509F445C0FB01628D12
:10196000738D848D958D601B710B820B930BF5012C
:10197000218D30E040E050E00E94D22D3A8329834F
:10198000255436412735324070F58501055F1F4FDC
:10199000BE016F5F7F4FC8010E945724C8010E949B
:1019A0006D24FC016081718149815A81F501828138
:1019B0009381248135811B827F936F935F934F9333
:1019C0003F932F939F938F938DED90E09F938F93F1
:1019D000CE0103969F938F930E94550B0FB6F894F8
:1019E000DEBF0FBECDBFF401C28CD38CE48CF58C6E
:1019F000C5010B960E946D24FC0180819181C80E67
:101A0000D91EE11CF11CF501C782D086E186F28661
:101A100081E0818FF401428D538D648D758DF501C8
:101A2000428F538F648F758F86830F900F900F9026
:101A3000DF91CF911F910F91FF90EF90DF90CF90AA
:101A4000BF90AF909F908F9008950F931F93CF9367
:101A5000DF931F92CDB7DEB78C010B960E946D24E9
:101A6000DC018D919C91F8014781508561857285DB
:101A7000480F591F611D711D478350876187728709
:101A8000818D8F5F818F863008F01682F8019281F8
:101A900023813481E581F1E0F9831F928F937F9355
:101AA0006F935F934F93EF933F932F939F9385E7AC
:101AB00091E09F938F93CE0101969F938F930E9405
:101AC000550B0FB6F894DEBF0FBECDBF0F90DF9160
:101AD000CF911F910F910895AF92BF92CF92DF9255
:101AE000EF92FF920F931F93CF93DF931F92CDB787
:101AF000DEB78C01FC01C780D084E184F284FAEF68
:101B0000CF0ED11CE11CF11C0E94882CC616D706F2
:101B1000E806F90608F047C0F801C780D084E184E0
:101B2000F284FAE6CF0EF8E1DF1EE11CF11C0E9400
:101B3000882C6059784E8F4F9F4FC616D706E806FF
:101B4000F90688F5F801A680B18CF280E380D48094
:101B5000C5800E94882CF8012781308541855285F7
:101B600019821F92AF921F92BF92CF92DF92EF9293
:101B7000FF929F938F937F936F935F934F933F93C6
:101B80002F938BE391E09F938F93CE0101969F93C8
:101B90008F930E94550BC8010E94250D0FB6F89433
:101BA000DEBF0FBECDBF095F1F4FC8010F90DF9191
:101BB000CF911F910F91FF90EF90DF90CF90BF904A
:101BC000AF900895BF92CF92DF92EF92FF920F9362
:101BD0001F93CF93DF931F92CDB7DEB78C01B12C4B
:101BE0002BC0D80112968D919C911397BEE1BB9E9C
:101BF000800D911D1124FC0126812223E1F00E9419
:101C00006C0DDC01CD90DD90ED90FC90F80125810C
:101C100082819381FEE12F9F800D911D11240E94EE
:101C20006C0DDC014D915D916D917C91C416D506D2
:101C3000E606F706F0F1B394F8018681B81688F24B
:101C4000258182819381FEE12F9F800D911D1124BA
:101C50000E946C0DFC014081518162817381D80129
:101C600015968C9115971296ED91FC911397BEE104
:101C70008B9FE00DF11D1124828193812481358198
:101C800019827F936F935F934F933F932F939F930B
:101C90008F938BE991E09F938F93CE0101969F9351
:101CA0008F930E94550B0FB6F894DEBF0FBECDBFC9
:101CB00004C0D8011596BC92BECF0F90DF91CF9192
:101CC0001F910F91FF90EF90DF90CF90BF900895FC
:101CD000FC0185818F5F85839681891301C0158200
:101CE000089529E631E0FC01318320830895FC0149
:101CF0001382089529E631E0FC01318320830895A1
:101D000029E631E0FC01318320830C94EA2629E6A0
:101D100031E0FC01318320830C94EA26CF92DF92DC
:101D2000EF92FF920F93CF93DF93C02FC15050E0FB
:101D3000D7E030E027C0CC2ED12CD601A40FB51FA0
:101D4000DA9F7001DB9FF00C1124FC01A081B181AE
:101D5000AE0DBF1D7601E20EF31EDE9DF001DF9D8C
:101D6000F00D1124E60FF71F1296CD90DD90ED9047
:101D7000FC901597C282D382E482F5821696AC91CC
:101D8000A683C150C017B8F2DF91CF910F91FF9099
:101D9000EF90DF90CF900895CF93DF9320918F0243
:101DA0003091900240919102509192026091930281
:101DB000709194028091950290919602AFEF0E94EB
:101DC000F42D20938F023093900240939102509310
:101DD0009202609393027093940280939502909381
:101DE0009602A0E00E94002E31F489E691E09093E3
:101DF0006E0280936D02209187023091880240919B
:101E0000890250918A0260918B0270918C028091BC
:101E10008D0290918E02AFEF0E94F42D20938702E5
:101E2000309388024093890250938A0260938B0218
:101E300070938C0280938D0290938E02A0E00E949A
:101E4000002E91F48BE991E0892B71F0C3E4D2E08C
:101E5000E881F9810190F081E02DCE010995AA97E2
:101E600081E0C137D807A1F7DF91CF910895FC0138
:101E700081E081834FEF5FEFBA0142835383648334
:101E800075831682878313861286148615861686B6
:101E90001786108A118A128A138A148A158A168A5A
:101EA0008AE391E091878087128E118E138E148EB3
:101EB000158E168E178E10A211A212A213A214A2B2
:101EC00015A284E491E0908F878B16A217A210A62A
:101ED00011A612A608951F93CF93DF9300D000D0D0
:101EE000CDB7DEB7109298010E94F72611E01C834F
:101EF0001A821982BE016C5F7F4FCE0101960E944B
:101F0000312760ED77E080E090E00E94C42C1C83D4
:101F100088ED90E89A838983BE016C5F7F4FCE0184
:101F200001960E9431271C8381E092E89A8389837D
:101F3000BE016C5F7F4FCE0101960E9431271C834A
:101F40008FE296EA9A838983BE016C5F7F4FCE0150
:101F500001960E9431271C8387E596EC9A8389833A
:101F6000BE016C5F7F4FCE0101960E9431271C831A
:101F700080EC94E99A838983BE016C5F7F4FCE0128
:101F800001960E9431271C838AEE92EC9A83898302
:101F9000BE016C5F7F4FCE0101960E9431271C83EA
:101FA00081E89AEC9A838983BE016C5F7F4FCE01F2
:101FB00001960E9431271C8384ED9EEC9A838983CD
:101FC000BE016C5F7F4FCE0101960E9431271C83BA
:101FD00087EA94EC9A838983BE016C5F7F4FCE01C0
:101FE00001960E9431271C8380E298E99A838983B5
:101FF000BE016C5F7F4FCE0101960E9431271C838A
:1020000086E69CEC9A838983BE016C5F7F4FCE018C
:1020100001960E9431271C8380E090EE9A83898389
:10202000BE016C5F7F4FCE0101960E9431271C8359
:1020300080E098EC9A838983BE016C5F7F4FCE016C
:1020400001960E9431271C8380E090EC9A8389835B
:10205000BE016C5F7F4FCE0101960E9431271B832A
:1020600080EC91E09F938F93CE0103969F938F9383
:102070000E94550B64EF71E080E090E00E94C42C58
:1020800040E050E065EF7BE180E00E94C42B0F90C0
:102090000F900F900F900F900F900F900F90DF9177
:1020A000CF911F9108953F924F925F926F927F92CE
:1020B0008F929F92AF92BF92CF92DF92EF92FF9258
:1020C0000F931F93CF93DF931F92CDB7DEB75C01C1
:1020D0006DE274E082EC92E00E94802AD501ED91DD
:1020E000FC910480F581E02DC501099562E474E05E
:1020F00082EC92E00E94BE2A0E941A286B017C01A9
:102100006F3FBFEF7B078B079B0709F472C0362E2A
:102110004C2C512CE7E06E9FC001112402960E94C6
:10212000EC264C01DC014D925D928D01612C712CED
:1021300005C0C8010E94BE0B095F1F4FBFEF6B1A9D
:102140007B0AC20186199709019699F7F2E08F0E72
:10215000911C8114910499F0D50114963C92149726
:1021600016960C9120E040E0B401C50102960E9451
:102170008E0EF50182819381009791F434C082E044
:1021800089838BE594E09F938F93CE0101969F9373
:102190008F930E94550B0F900F900F900F9029C0B6
:1021A000FC0132972081318147E0429F8001439FAB
:1021B000100D1124080F191FC801D50112962D9179
:1021C0003C911397075011098217930749F0D801E2
:1021D000ED91FC910190F081E02DC8010995ECCFC3
:1021E00002970E94EE26F501938282826FE474E0EA
:1021F00002C063E574E082EC92E00E94802A65E40C
:1022000074E082EC92E00E94802A2AE030E0B7017C
:10221000A60182EC92E00E94422BD501ED91FC9147
:102220000480F581E02DC50109956DE474E082EC30
:1022300092E00E94BE2A0F90DF91CF911F910F91E3
:10224000FF90EF90DF90CF90BF90AF909F908F90D6
:102250007F906F905F904F903F9008951F93CF9322
:10226000DF93EC016FE575E082EC92E00E94BE2AFC
:1022700063E675E082EC92E00E94802AE881F981B1
:102280000480F581E02DCE01099566E675E082ECCB
:1022900092E00E94BE2A10E01DC08A819B8127E047
:1022A000129F800D911D1124DC01ED91FC910480A1
:1022B000F581E02D0995212F30E08E8190E0019786
:1022C0002817390734F46CE675E082EC92E00E943E
:1022D000BE2A1F5F8E81181700F36EE675E082EC50
:1022E00092E0DF91CF911F910C94BE2A0F931F9320
:1022F000CF93DF93EC0119928C010D521F4FCE0149
:102300000E94AC24AA96C017D107C9F7DF91CF91DC
:102310001F910F9108952F923F924F925F926F926B
:102320007F928F929F92AF92BF92CF92DF92EF9265
:10233000FF920F931F93CF93DF9300D000D000D074
:10234000CDB7DEB78C017C836B831A01DB01CD90A6
:10235000DD90ED90FC90FC0187809084A184B28494
:10236000C814D904EA04FB0418F4DA011C929AC0D8
:10237000FC014384548465847684F681FA834C148A
:102380005D046E047F0418F4DA01FC938BC0FA81BB
:10239000F23008F484C0C701B601681979098A09C6
:1023A0009B090E942D086B017C01C301B2016819D1
:1023B00079098A099B090E942D089B01AC01C7017C
:1023C000B6010E94B0066B017C014A81642F70E067
:1023D00061507109882777FD8095982F0E948207A8
:1023E0009B01AC01C701B6010E94CB050E94F0031E
:1023F000D1016C93F8018681681708F08C93D101A4
:102400008C918823D1F0D8011296ED91FC9113970D
:10241000BEE18B9FE00DF11D112482809380A4808A
:10242000B580EB81FC81C080D180E280F380C8144C
:10243000D904EA04FB0408F45EC0D1012C91F80130
:102440003681AB81BC81CD90DD90ED90FC90BEE1FA
:102450002B9FC0011124231798F0D8011296ED91FB
:10246000FC911397E80FF91F81E042815381648149
:1024700075814C155D056E057F0509F444C012C0D9
:102480000280F381E02DE80FF91F82809380A48001
:10249000B5808C149D04AE04BF0488F1DECFBA81F0
:1024A000B13011F080E02FC0FC0182819381009750
:1024B00089F482E0898380E493E09F938F93CE0137
:1024C00001969F938F930E94550B0F900F900F9042
:1024D0000F9002C09E838D83ED81FE818281938166
:1024E000A481B581C816D906EA06FB06D9F6D10142
:1024F0001C9281E008C08150F101808380CF2F5F62
:10250000D1012C939ACF26960FB6F894DEBF0FBE5A
:10251000CDBFDF91CF911F910F91FF90EF90DF9092
:10252000CF90BF90AF909F908F907F906F905F9073
:102530004F903F902F900895CF93DF93EC01CB0104
:10254000FB0142815381648175814A835B836C8383
:102550007D8326812E8347815085618572854F83D7
:10256000588769877A872EE03B96DE011B9601909B
:102570000D922A95E1F7FC01218D298F428D538D13
:10258000648D758D4A8F5B8F6C8F7D8FCE01DF914F
:10259000CF9108959F92AF92BF92CF92DF92EF9228
:1025A000FF920F931F93CF93DF93EC017B01102FCA
:1025B0001150C42ED12C8EE1982EA22EB12C1AC00F
:1025C000E12FF0E09F012C0D3D1D929EC001939ED6
:1025D000900D112468817981680F791FEA0DFB1D28
:1025E0009E9EC0019F9E900D11248E0D9F1D0E94E6
:1025F0009C121150101720F3DF91CF911F910F9172
:10260000FF90EF90DF90CF90BF90AF909F90089594
:102610003F924F925F926F927F928F929F92AF9272
:10262000BF92CF92DF92EF92FF920F931F93CF93BF
:10263000DF931F92CDB7DEB75C0163EE73E082ECEF
:1026400092E00E94802AD501ED91FC910480F581F1
:10265000E02DC501099568EF73E082EC92E00E94DD
:10266000BE2A0E941A286B017C016F3FBFEF7B07D7
:102670008B079B0709F473C0362E4C2C512CEEE1CE
:102680006E9FC001112402960E94EC264C01DC01D1
:102690004D925D928D01612C712C02C00E94DE0B67
:1026A000C801BFEF6B1A7B0A025E1F4F9201261909
:1026B00037092F3F3F4F91F7F2E08F0E911C8114A5
:1026C000910499F0D50114963C92149716960C91AA
:1026D00020E040E0B401C50102960E94CA12F50153
:1026E00082819381009791F434C082E0898381E1F3
:1026F00094E09F938F93CE0101969F938F930E94B6
:10270000550B0F900F900F900F9029C0FC0132973E
:10271000208131814EE1429F8001439F100D1124A1
:10272000080F191FC801D50112962D913C911397DE
:102730000E5111098217930749F0D801ED91FC91D0
:102740000190F081E02DC8010995ECCF02970E941D
:10275000EE26F5019382828265E074E002C069E0B2
:1027600074E082EC92E00E94802A6BEF73E082ECCE
:1027700092E00E94802A2AE030E0B701A60182ECB4
:1027800092E00E94422BD501ED91FC910480F581ED
:10279000E02DC501099563E074E082EC92E00E94AF
:1027A000BE2A0F90DF91CF911F910F91FF90EF9074
:1027B000DF90CF90BF90AF909F908F907F906F9061
:1027C0005F904F903F9008958F929F92AF92BF92EB
:1027D000CF92DF92EF92FF920F931F93CF93DF93ED
:1027E00000D000D000D0CDB7DEB78C016DE974E029
:1027F00082EC92E00E94802AD801ED91FC91048045
:10280000F581E02DC801099568EA74E082EC92E058
:102810000E94BE2A0E941A2869837A838B839C8334
:102820006F3F7F4F8F4F9F4F19F467EC74E097C055
:102830001E82AE014A5F5F4FBE016F5F7F4FC801CE
:102840000E948B11882309F471C0AE80F801968034
:10285000A91438F060EE74E082EC92E00E94BE2A87
:10286000E4CF9A949A18A394FEE1AF9E50011124EC
:10287000C12CD12CE12CF12C9EE1892E1BC012968B
:102880008D919C911397B6016A0D7B1D680F791F7E
:10289000A701420F511D849E9001859E300D112489
:1028A000820F931F0E949C12BFEFEB1AFB0AEEE10E
:1028B000CE0ED11C2E81D801E91408F321110EC0CF
:1028C0001296ED91FC911397428153816481758139
:1028D000F80147835087618772871EC016964C9116
:1028E000169730E0842F90E0019728173907A1F45C
:1028F00012968D919C911397BEE14B9F800D911D77
:102900001124FC01FC974281538164817581F80197
:102910004387548765877687D80116968C911697DA
:10292000815016968C9363EC74E019C089819A816A
:102930002B813C811D823F932F939F938F938FEC2C
:1029400094E09F938F93CE0105969F938F930E945F
:10295000550B0FB6F894DEBF0FBECDBF66CF82EC2D
:1029600092E00E94802A67EB74E082EC92E00E9481
:10297000802AD801ED91FC910480F581E02DC801F9
:10298000099561EC74E082EC92E00E94802A498112
:102990005A816B817C812AE030E082EC92E00E94D7
:1029A0004F2B26960FB6F894DEBF0FBECDBFDF913A
:1029B000CF911F910F91FF90EF90DF90CF90BF903C
:1029C000AF909F908F9008956F927F928F929F9279
:1029D000AF92BF92CF92DF92EF92FF920F931F932D
:1029E000CF93DF93CDB7DEB7A0970FB6F894DEBFD5
:1029F0000FBECDBF7C016B0118A2AE01405E5F4FE0
:102A00000E948B118823F9F0D6018C9111969C912C
:102A1000119712962C91129713963C911F8E3F930B
:102A20002F939F938F9388E293E09F938F93CE0190
:102A30004F969F938F930E94550B0FB6F894DEBF6D
:102A40000FBECDBF6EC0D70116960C911697149687
:102A50006C901497061558F548A1041B242F2F5F7E
:102A600012966D917C911397C70102960E94CA122B
:102A7000B601CE0101960E94020C28A1F7018281C5
:102A80009381BE016F5F7F4FFEE12F9F800D911DEF
:102A900011240E949C12CE0101960E943A0AD7018D
:102AA00016968C9116978F5F16968C9397C0712C03
:102AB0004301BFEF8B1A9B0A2EE1289DC001299D7F
:102AC000900D112402960E94EC265C01FC0181927B
:102AD00091928F01812C912C05C00E94DE0BFFEF9B
:102AE0008F1A9F0AC801025E1F4F930128193909E6
:102AF0002F3F3F4F91F782E0A80EB11CA114B10403
:102B000091F483E08F8F81E693E09F938F93CE01C2
:102B10004F969F938F930E94550B0F900F900F909D
:102B20000F9080E096C0470192E0890E911C08A1A9
:102B300020E040E0B501C4010E94CA12B601CE01F6
:102B400001960E94020C88A1BE016F5F7F4FD501E4
:102B5000EEE18E9FA00DB11D1124CD010E949C12AB
:102B6000CE0101960E943A0A48A1D70116960C910F
:102B7000041B242F2F5FB501C4010E94CA12F70164
:102B800082819381009719F1FC0132972081318174
:102B90004EE1429F8001439F100D1124080F191F21
:102BA000C801D70112962D913C9113970E5111092E
:102BB0008217930749F0D801ED91FC910190F081C3
:102BC000E02DC8010995ECCF02970E94EE26F7018F
:102BD000B382A28284818F5F84838683D701149617
:102BE0008C911497F601408151816281738181300B
:102BF00061F41B964D935D936D937C931E97F70143
:102C0000478350876187728724C0D7011B960D9137
:102C10001D912D913C911E97041715072607370724
:102C200030F4F701438754876587768711C0D70151
:102C300017960D911D912D913C911A9740175107B0
:102C40006207730728F4F70147835087618772870B
:102C500081E0A0960FB6F894DEBF0FBECDBFDF9126
:102C6000CF911F910F91FF90EF90DF90CF90BF9089
:102C7000AF909F908F907F906F9008950F931F93C8
:102C8000CF93DF9300D000D0CDB7DEB78C016BEFD0
:102C900072E082EC92E00E94802AD801ED91FC91D2
:102CA0000480F581E02DC801099566E073E082ECAF
:102CB00092E00E94BE2A0E941A2869837A838B833D
:102CC0009C836F3F7F4F8F4F9F4F19F460E273E0FB
:102CD0000AC0BE016F5F7F4FC8010E94E4148823C1
:102CE000A9F36CE173E082EC92E00E94802A62E139
:102CF00073E082EC92E00E94802AD801ED91FC9171
:102D00000480F581E02DC80109956AE173E082EC49
:102D100092E00E94802A49815A816B817C812AE05D
:102D200030E082EC92E00E944F2B0F900F900F90BA
:102D30000F90DF91CF911F910F9108951F93CF9323
:102D4000DF9300D01F92CDB7DEB711E01B8381E87F
:102D50009AEC9A838983BE016D5F7F4FCE01019605
:102D60000E9431271B8383E89AEC9A838983BE01F2
:102D70006D5F7F4FCE0101960E9431270F900F901B
:102D80000F90DF91CF911F9108951F93CF93DF9301
:102D900000D01F92CDB7DEB71092990111E01B83CE
:102DA00089ED92E89A838983BE016D5F7F4FCE01E2
:102DB00001960E9431271B8388E590E89A838983D6
:102DC000BE016D5F7F4FCE0101960E9431270E94A8
:102DD0009E160F900F900F90DF91CF911F91089545
:102DE000CF93DF93EC010E946B0F0E94C5160E94E7
:102DF000882C6FA378A789A79AA7DF91CF91089510
:102E00002F923F924F925F926F927F928F929F92FA
:102E1000AF92BF92CF92DF92EF92FF920F931F93E8
:102E2000CF93DF9300D000D000D0CDB7DEB78C01B8
:102E30007C836B831A01DB01CD90DD90ED90FC90DB
:102E4000FC0187809084A184B284C814D904EA0468
:102E5000FB0418F4DA011C929AC0FC0143845484E8
:102E600065847684F681FA834C145D046E047F04D5
:102E700018F4DA01FC938BC0FA81F23008F484C0B4
:102E8000C701B601681979098A099B090E942D08B2
:102E90006B017C01C301B201681979098A099B0998
:102EA0000E942D089B01AC01C701B6010E94B0062B
:102EB0006B017C014A81642F70E0615071098827A1
:102EC00077FD8095982F0E9482079B01AC01C70176
:102ED000B6010E94CB050E94F003D1016C93F8016A
:102EE0008681681708F08C93D1018C918823D1F0EA
:102EF000D8011296ED91FC911397B7E08B9FE00DEE
:102F0000F11D112482809380A480B580EB81FC8127
:102F1000C080D180E280F380C814D904EA04FB04A5
:102F200008F45EC0D1012C91F8013681AB81BC81DF
:102F3000CD90DD90ED90FC90B7E02B9FC001112467
:102F4000231798F0D8011296ED91FC911397E80F92
:102F5000F91F81E042815381648175814C155D05C3
:102F60006E057F0509F444C012C00280F381E02D94
:102F7000E80FF91F82809380A480B5808C149D0493
:102F8000AE04BF0488F1DECFBA81B13011F080E029
:102F90002FC0FC0182819381009789F482E08983AC
:102FA00084EB93E09F938F93CE0101969F938F9331
:102FB0000E94550B0F900F900F900F9002C09E83B0
:102FC0008D83ED81FE8182819381A481B581C816B4
:102FD000D906EA06FB06D9F6D1011C9281E008C0A9
:102FE0008150F101808380CF2F5FD1012C939ACF44
:102FF00026960FB6F894DEBF0FBECDBFDF91CF91FE
:103000001F910F91FF90EF90DF90CF90BF90AF9006
:103010009F908F907F906F905F904F903F902F90F8
:1030200008956F927F928F929F92AF92BF92CF92AC
:10303000DF92EF92FF920F931F93CF93DF93CDB761
:10304000DEB729970FB6F894DEBF0FBECDBF7C0167
:103050006B011986AE01475F5F4F0E9400178823FE
:10306000F9F0D6018C9111969C91119712962C91A2
:10307000129713963C9118863F932F939F938F93AB
:103080008CE993E09F938F93CE0108969F938F9343
:103090000E94550B0FB6F894DEBF0FBECDBF70C0B7
:1030A000D70116960C91169714966C9014970615E6
:1030B00070F54985041B242F2F5F12966D917C912A
:1030C0001397C70102960E948E0EB601CE0101969B
:1030D0000E94CD0B8985D7011296ED91FC91139733
:1030E000B7E08B9FE00DF11D11244B815C816D8158
:1030F0007E8142835383648375838F818683CE016F
:1031000001960E94340AF70186818F5F99C0712C65
:103110004301FFEF8F1A9F0A27E0289DC001299DD8
:10312000900D112402960E94EC265C01DC018D9228
:103130009D928D01812C912C08C0C8010E94BE0B6C
:10314000095F1F4FBFEF8B1A9B0AC30188199909AA
:10315000019699F7F2E0AF0EB11CA114B10491F4FD
:1031600083E0888785ED93E09F938F93CE01089647
:103170009F938F930E94550B0F900F900F900F907D
:1031800080E09AC0470122E0820E911C098520E070
:1031900040E0B501C4010E948E0EB601CE01019639
:1031A0000E94CD0B8985F50197E0899FE00DF11D07
:1031B00011244B815C816D817E81428353836483C2
:1031C00075838F818683CE0101960E94340A4985DA
:1031D000D70116960C91041B242F2F5FB501C40153
:1031E0000E948E0EF70182819381009719F1FC01F4
:1031F00032972081318147E0429F8001439F100D2B
:103200001124080F191FC801D70112962D913C9166
:103210001397075011098217930749F0D801ED91D0
:10322000FC910190F081E02DC8010995ECCF029747
:103230000E94EE26F701B382A28284818F5F84838D
:103240008683D70114968C911497F60140815181A1
:1032500062817381813061F41B964D935D936D9310
:103260007C931E97F701478350876187728724C03C
:10327000D7011B960D911D912D913C911E9704171E
:1032800015072607370730F4F7014387548765870A
:10329000768711C0D70117960D911D912D913C9104
:1032A0001A97401751076207730728F4F7014783FD
:1032B00050876187728781E029960FB6F894DEBF48
:1032C0000FBECDBFDF91CF911F910F91FF90EF9077
:1032D000DF90CF90BF90AF909F908F907F906F9036
:1032E00008950F931F93CF93DF9300D000D0CDB7F5
:1032F000DEB78C016FE673E082EC92E00E94802AD8
:10330000D801ED91FC910480F581E02DC80109956B
:103310006AE773E082EC92E00E94BE2A0E941A28BB
:1033200069837A838B839C836F3F7F4F8F4F9F4F3F
:1033300019F464E973E00AC0BE016F5F7F4FC801F2
:103340000E9411188823A9F360E973E082EC92E0EF
:103350000E94802A66E873E082EC92E00E94802A54
:10336000D801ED91FC910480F581E02DC80109950B
:103370006EE873E082EC92E00E94802A49815A81D3
:103380006B817C812AE030E082EC92E00E944F2B3E
:103390000F900F900F900F90DF91CF911F910F9191
:1033A00008959F92AF92BF92CF92DF92EF92FF92D9
:1033B0000F931F93CF93DF9300D000D000D0CDB7F1
:1033C000DEB78C0164EF74E082EC92E00E94802A08
:1033D000D801ED91FC910480F581E02DC80109959B
:1033E0006FEF74E082EC92E00E94BE2A0E941A28DD
:1033F00069837A838B839C836F3F7F4F8F4F9F4F6F
:1034000019F46EE175E09BC01E82AE014A5F5F4F0A
:10341000BE016F5F7F4FC8010E940017882309F427
:1034200075C0BE80F801A680BA1438F067E375E075
:1034300082EC92E00E94BE2AE4CFAA94AB18EB2C57
:10344000E394F7E0EF9E7001112427E0B29E600143
:10345000112480E090E0912C1DC012962D913C919A
:103460001397DC01AE0DBF1DA20FB31FFC01EC0DC5
:10347000FD1DE20FF31F12964D915D916D917C91B0
:103480001597428353836483758316962C91268304
:1034900093940796D8019A10E0CFB1100EC01296FF
:1034A000ED91FC9113974281538164817581F801FC
:1034B00047835087618772871FC016964C91169775
:1034C0002B2D30E0842F90E0019728173907A1F4C5
:1034D00012968D919C911397B7E04B9F800D911D93
:1034E0001124FC013E974281538164817581F8016A
:1034F0004387548765877687D80116968C911697EF
:10350000815016968C936AE175E019C089819A8181
:103510002B813C811D823F932F939F938F9386E253
:1035200095E09F938F93CE0105969F938F930E9472
:10353000550B0FB6F894DEBF0FBECDBF62CF82EC45
:1035400092E00E94802A6EE075E082EC92E00E9498
:10355000802AD801ED91FC910480F581E02DC8010D
:10356000099568E175E082EC92E00E94802A498129
:103570005A816B817C812AE030E082EC92E00E94EB
:103580004F2B26960FB6F894DEBF0FBECDBFDF914E
:10359000CF911F910F91FF90EF90DF90CF90BF9050
:1035A000AF909F9008951F93CF93DF93CDB7DEB771
:1035B00028970FB6F894DEBF0FBECDBF809198015B
:1035C000882319F1188681EB96E09F938F93CE01A3
:1035D00008969F938F930E94550B0E94882C6C59DC
:1035E0007F4F8F4F9F4F69837A838B839C830F908C
:1035F0000F900F900F9080919801882331F0CE01A9
:1036000001960E9465278111F6CF11E01093990170
:103610001F8380E398E99E838D83BE01695F7F4F9E
:10362000CE0105960E9431271F8388E990E89E838A
:103630008D83BE01695F7F4FCE0105960E943127C1
:103640001F8389E792E89E838D83BE01695F7F4F68
:10365000CE0105960E94312728960FB6F894DEBF5A
:103660000FBECDBFDF91CF911F910895CF92DF9212
:10367000EF92FF920F931F93CF93DF931F92CDB7DB
:10368000DEB77C016B01DC018C918701BAE28B9F74
:10369000000D111D11240F5F1F4FF80193818281CE
:1036A0009817F0F48381811111C00E94882CD801F1
:1036B0005A966D937D938D939C935D97ED91FC91BC
:1036C0000680F781E02DB601C8010995F8018381D4
:1036D000D6019C91E80FF11D94838F5FF8018383DD
:1036E000D7018C91F701BAE28B9FE00DF11D1124F7
:1036F0003196938182819817B8F080E090E02AE2B9
:10370000289FF001299FF00D11243196EE0DFF1D29
:1037100043813281431718F4F701808317C0019663
:103720008530910569F702C080E011C083E089838C
:1037300084ED91E09F938F93CE0101969F938F9399
:103740000E94550B0F900F900F900F9081E00F90FB
:10375000DF91CF911F910F91FF90EF90DF90CF906D
:103760000895CF93DF9300D01F92CDB7DEB780913D
:103770007002823069F481E08B8380E298E99A8359
:103780008983BE016D5F7F4FCE0101960E94312774
:103790009091700280916F02981758F49091700286
:1037A000E92FF0E0E359FD4F84819F5F9093700211
:1037B00001C080E091E09B8390E0986B9A838983BD
:1037C000BE016D5F7F4FCE0101960E94312790911F
:1037D000700280916F02981710F00E94C5160F902A
:1037E0000F900F90DF91CF9108951F93CF93DF93A8
:1037F00000D0CDB7DEB781E00E94F1261982CE015C
:1038000001960E942927182F1982CE0101960E9445
:1038100029278091990181113FC015FF1DC01A828F
:10382000CE0102960E9429278983BE016F5F7F4FD8
:103830008AE991E00E94361B182F1A82CE01029667
:103840000E9429278983BE016F5F7F4F8AE991E03B
:103850000E94361B182B12C017FF0FC01A82CE0110
:1038600002960E9429278983BE016F5F7F4F8AE9F4
:1038700091E00E94361B182F01C010E080E00E94EA
:10388000F126112329F00E949E16109298010AC079
:1038900081E08093980106C017FD0E94B11B80E073
:1038A0000E94F1260F900F90DF91CF911F91089504
:1038B000FC0180E090E011C033812281321760F476
:1038C0002381DB01A80FB91F3C91DF01A20FB11DBD
:1038D00014963C932F5F23830196DA012C9130E0FC
:1038E000821793074CF30895CF92DF92EF92FF92E5
:1038F0000F931F93CF93DF93CDB7DEB768970FB6C3
:10390000F894DEBF0FBECDBF7B016A01C9012BE079
:10391000E7E0F1E08E010F5F1F4FD80101900D929B
:103920002A95E1F7BE016E5F7F4F0E945D28F70187
:1039300080818F83F601808188878BE0888F88E083
:10394000E2E1F1E0DE011C9601900D928A95E1F72B
:1039500080E48C8B1D8A88E08F8B82E08E8BE091D7
:103960006D02F0916E020480F581E02D8DE692E00B
:103970000995AE01495E5F4FBE01645F7F4F8DE6E2
:1039800092E00E94581CAE01485E5F4FB8018DE680
:1039900092E00E94581C988DF80180E002C02191AD
:1039A000820F2E2F201B2917D0F3209170029091A7
:1039B0006F02291750F490917002E92FF0E0E3595B
:1039C000FD4F84839F5F90937002AE014A5E5F4F0C
:1039D000BE016C5E7F4F8DE692E00E94581C888D80
:1039E000855F80936F02109270020E94D31A9091AB
:1039F000700280916F029817D0F368960FB6F89412
:103A0000DEBF0FBECDBFDF91CF911F910F91FF9011
:103A1000EF90DF90CF900895CF93DF9300D0CDB794
:103A2000DEB79B01442311F04EE401C046E4498314
:103A30004FE44A83AE014F5F5F4FBE016E5F7F4F21
:103A40000E94741C0F900F90DF91CF910895FF9208
:103A50000F931F93CF93DF9300D000D0CDB7DEB785
:103A60008C01F62E68E676E082EC92E00E94802AD5
:103A7000FF2019F061E876E002C065E876E082ECAC
:103A800092E00E94BE2A0E941A2869837A838B835F
:103A90009C836F3F7F4F8F4F9F4F19F46EE876E006
:103AA00009C04F2DBE016F5F7F4FC8010E940C1DE2
:103AB0006AE876E082EC92E00E94BE2A0F900F90B6
:103AC0000F900F90DF91CF911F910F91FF9008956C
:103AD000EF92FF920F931F93CF93DF931F92CDB777
:103AE000DEB78C0182EC92E00E94A1287C019C014F
:103AF00033272436310509F4F4C074F52C3431052C
:103B000009F488C19CF42033310509F488C12CF4F0
:103B10002D30310509F09BC1ABC12133310509F4CA
:103B200080C12434310509F092C104C12335310527
:103B300009F4D2C04CF42E34310509F4C3C0223547
:103B4000310509F084C11DC12136310591F12236BC
:103B5000310509F07CC1ABC020373105B1F194F4D7
:103B60002C36310509F412C12CF42B36310509F03D
:103B70006EC191C02D36310519F12E36310509F08F
:103B800066C19BC02437310509F450C14CF422377B
:103B9000310509F4F1C02337310509F058C197C048
:103BA0002537310509F47CC02637310509F04FC1AE
:103BB00038C081E0D80111968C9365EE71E054C154
:103BC000F801118266EF71E04FC1D80111968C9116
:103BD000882319F068E072E047C16FE272E082EC7E
:103BE00092E00E94BE2A0E941A286F3FBFEF7B0717
:103BF0008B079B0719F46DE372E036C1F80162830D
:103C000073838483958361E472E082EC92E00E9486
:103C1000802AD80112964D915D916D917C911597F6
:103C20000FC167E572E082EC92E00E94802A10E00A
:103C30001983CE0101960E94250B67EF72E082EC9A
:103C400092E00E94802A1F5F143091F71983CE0101
:103C500001960E94250B6AEF72E082EC92E00E94CE
:103C6000BE2A0E941A286F3FBFEF7B078B079B0776
:103C700019F46DE672E0F8C06093060161E772E046
:103C800082EC92E00E94802A86E091E00E94250B5F
:103C900067E872E0E9C0F801178268E872E0E4C002
:103CA00081E0D80117968C9364EB72E0DDC082E06E
:103CB000F801878360ED72E0D7C0C80108960E94C2
:103CC0003E16D6C0C80147960E947119D1C0C801DE
:103CD00008960E940813CCC0C80147960E94531052
:103CE000C7C07801F8E0EF0EF11CD8011D961C92B8
:103CF0001D971E961C921E97F801138A148A158A26
:103D0000168A1F961D921D921D921C92529767E76C
:103D100074E082EC92E00E94802AD8011896ED911E
:103D2000FC9119970480F581E02DC701099568E899
:103D300074E09AC07801B7E1EB0EF11CF801148E23
:103D4000158E12A213A214A215A2168E178E10A2FF
:103D500011A26AE874E082EC92E00E94802AD80105
:103D60005796ED91FC9158970480F581E02DC7019D
:103D700009956BE974E078C0C80108960E94E413C5
:103D800077C0C80147960E94D11972C07801B8E087
:103D9000EB0EF11C6BE475E082EC92E00E94BE2A0F
:103DA0006FE475E082EC92E00E94802AD8011896B8
:103DB000ED91FC9119970480F581E02DC7010995DB
:103DC00062E575E082EC92E00E94BE2A10E01BC022
:103DD000F70182819381FEE11F9F800D911D1124C7
:103DE0000E94280C212F30E0D70116968C9190E08C
:103DF00001972817390734F468E575E082EC92E002
:103E00000E94BE2A1F5FF7018681181708F36AE532
:103E100075E02AC0C80147960E942E1129C060E0B3
:103E200001C061E0C8010E94271D22C06AE070E065
:103E300080E090E00E94C42C0E94882CAB01BC0161
:103E40002AE030E082EC92E00E944F2B11C06EED30
:103E500072E082EC92E00E94802A6E2D82EC92E069
:103E60000E94A12A65EF72E082EC92E00E94BE2AD5
:103E70000F90DF91CF911F910F91FF90EF900895D8
:103E8000AF92BF92CF92DF92EF92FF920F931F9368
:103E9000CF93DF9300D0CDB7DEB76C018B01FB0170
:103EA000808191812281338141E049833F932F9327
:103EB0009F938F9382EA96E09F938F93EE24E394EF
:103EC000F12CEC0EFD1EFF92EF920E94550B3BE48D
:103ED000A32EA98241E4B42EBA829801A701BE01A3
:103EE0006E5F7F4FC6010E94741C62E370E080E049
:103EF00090E00E94C42CA982BA829801A701BE0159
:103F00006E5F7F4FC6010E94741C0FB6F894DEBF2F
:103F10000FBECDBF0F900F90DF91CF911F910F91EA
:103F2000FF90EF90DF90CF90BF90AF900895EF9209
:103F3000FF920F931F93CF93DF93EC018B01CB0183
:103F40000E947625FC018081882351F0813039F56B
:103F5000BE016E5F7F4FCE0108960E94E4140DC033
:103F60007E01F2E0EF0EF11CB701CE010E94401F6E
:103F7000B701CE0147960E941118882381F06DE5A4
:103F800076E082EC92E00E94802A61E0C8010E9403
:103F9000C32465E676E082EC92E00E94BE2A4FEFF1
:103FA0005FEFBA014A835B836C837D83DF91CF919E
:103FB0001F910F91FF90EF900895CF92DF92EF92B3
:103FC000FF920F931F93CF93DF93CDB7DEB7279761
:103FD0000FB6F894DEBF0FBECDBF7C016B01CB01E5
:103FE0000E947625FC011081C6010E946E26FC010C
:103FF000808191812281338189839A832B833C83C1
:104000001D823F932F939F938F9382E496E09F931B
:104010008F93AE014B5F5F4F5F934F934E835F83F0
:104020000E94550B0FB6F894DEBF0FBECDBF4E8178
:104030005F81113091F51D82BE016F5F7F4FC70117
:1040400008960E948B11811142C038C01D82BE01AA
:104050006F5F7F4FC70147960E940017811120C0F4
:104060002DC0F701028113812481358104171507C2
:104070002607370709F41DC063E576E082EC92E07D
:104080000E94802A61E0C6010E94C3246BE576E0AD
:1040900082EC92E00E94BE2A1AC011110FC0D6CF46
:1040A00049815A816B817C81F70142835383648308
:1040B0007583B601C7010E94971F09C0F70181816E
:1040C00049815A816B817C81882359F2EDCF2796F3
:1040D0000FB6F894DEBF0FBECDBFDF91CF911F9119
:1040E0000F91FF90EF90DF90CF9008952F923F9225
:1040F0004F925F926F927F928F929F92AF92BF92F8
:10410000CF92DF92EF92FF920F931F93CF93DF93A3
:10411000CDB7DEB760970FB6F894DEBF0FBECDBF48
:104120003C017C876B87412C512C312C4E0125E0C2
:10413000820E911C4796988B8F87D3011896BA8769
:10414000A987BAE2B49D5001B59DB00C1124EBE9EA
:10415000F1E0AE0EBF1ED50113969C9113971296F7
:104160008C91981708F40EC1C5010E947625FC01B8
:10417000F081FF83A8862B2CD5015E968C915E97EB
:10418000811107C0ED91FC910084F185E02DC501FE
:104190000995F501868D813009F0ABC0C5010E94FB
:1041A0006E26DC010D911D912D913C9109831A839E
:1041B0002B833C8381E0EB85FC85C080D180E2804D
:1041C000F3800C151D052E053F0509F080E0382A07
:1041D000C5010E94E825882371F0D501ED91FC917D
:1041E0000480F581E02D8885922D0995B501C301E4
:1041F0000E94DD1FCFC02F81222309F44EC0213041
:1042000009F0B7C0AE014A5F5F4FBE016F5F7F4FDD
:1042100089859A850E948B11882381F1C5010E94AE
:104220004025D3011A962D913C911B9721153105FC
:1042300069F08E811E969C91891740F4BEE18B9F98
:10424000200D311D11242D873E870EC082E08D8305
:104250002EE136E03F932F939F928F920E94550B51
:104260000F900F900F900F90B5018D859E850E9445
:10427000910C89859A850E94E20D7BC089819A8183
:104280002B813C81EF81ED833F932F939F938F93FD
:1042900081EC95E09F938F9319C01D82A401BE010C
:1042A0006F5F7F4F8F8598890E94001781111DC015
:1042B00089819A812B813C81B1E0BD833F932F930B
:1042C0009F938F93E4EEF5E0FF93EF939F928F928D
:1042D0000E94550B0FB6F894DEBF0FBECDBFD301C1
:1042E00017968C91882309F444C0C5010E9440258B
:1042F00040C02F81213019F42EE531E002C021E6C3
:1043000031E041E04D833F932F9388E096E09F9307
:104310008F939F928F920E94550B0F900F900F904A
:104320000F900F900F90F3018781823011F500E01C
:1043300010E012C0F501E00FF11F648140E150E090
:1043400082EC92E00E94692B6FE376E082EC92E0CF
:104350000E94802A0F5F1F4FD50112968C9190E02A
:10436000081719073CF361E476E082EC92E00E94C2
:10437000BE2AD501ED91FC910480F581E02D888560
:10438000922D0995BFEF4B1A5B0AE5E04E165104DA
:1043900009F0D7CE832D60960FB6F894DEBF0FBE1E
:1043A000CDBFDF91CF911F910F91FF90EF90DF90E4
:1043B000CF90BF90AF909F908F907F906F905F90C5
:1043C0004F903F902F9008958F929F92AF92BF92FF
:1043D000CF92DF92EF92FF92CF93DF9300D000D085
:1043E0001F92CDB7DEB76C017B015A010E94882C69
:1043F000F50180809180A280B380680D791D8A1DAF
:104400009B1D69837A838B839C83F70180819181D3
:10441000228133811D823F932F939F938F93BF926D
:10442000AF929F928F9227EA35E03F932F939E01A0
:104430002B5F3F4F3F932F930E94550B0FB6F8947D
:10444000DEBF0FBECDBF06C0B701C6010E947620F9
:10445000811107C0CE0101960E9465278111F4CF1A
:1044600001C081E00F900F900F900F900F90DF919F
:10447000CF91FF90EF90DF90CF90BF90AF909F9043
:104480008F900895EF92FF920F931F93CF93DF9336
:1044900000D000D000D0CDB7DEB78C01DC011D9676
:1044A0002C911D971A968D919C911B97BEE12B9F85
:1044B000800D911D11240E946C0DFC0140815181E1
:1044C00062817381F80185850284F385E02D2EE1F8
:1044D000829FE00DF11D1124828193812481358119
:1044E0001D827F936F935F934F933F932F939F937F
:1044F0008F9383E795E09F938F937E0135E0E30EE2
:10450000F11CFF92EF920E94550B44EF51E060E0E6
:1045100070E049835A836B837C83D8011D968C910C
:104520001D971A966D917C911B97BEE18B9F600D34
:10453000711D11246E5F7F4FAE014F5F5F4FC80149
:104540000E94E4211D821F928F9321E935E03F9361
:104550002F93FF92EF928E830E94550B0FB6F89423
:10456000DEBF0FBECDBF8E81811113C0D8011D9655
:104570002C911D971A968D919C911B97BEE12B9FB4
:10458000800D911D11240E94250DC80108960E94DE
:10459000E20D26960FB6F894DEBF0FBECDBFDF91B9
:1045A000CF911F910F91FF90EF900895EF92FF929E
:1045B0000F931F93CF93DF9300D000D0CDB7DEB71A
:1045C0008B01FB01208131814281538161E069834C
:1045D0005F934F933F932F9322E936E03F932F93BE
:1045E000EE24E394F12CEC0EFD1EFF92EF928B83F0
:1045F0009C830E94550B23E5298320E52A8398019B
:10460000A701BE016E5F7F4F8B819C810E94741C4D
:104610000FB6F894DEBF0FBECDBF0F900F900F9076
:104620000F90DF91CF911F910F91FF90EF90089520
:10463000EF92FF920F931F93CF93DF9300D000D0A0
:10464000CDB7DEB78C01DC015D968C915D97882338
:1046500009F463C05C968C91811118C0C8018796DB
:104660000E946527882321F081E0F80186830EC02F
:10467000D80116961C920E94882C6059784E8F4F54
:104680009F4FF80167A370A781A792A7D80116963C
:104690008C911697882379F05C968C915C9759964B
:1046A000ED91FC915A97B7E08B9FE00DF11D11241D
:1046B000868181112EC0F801848D618D728DF7E0A5
:1046C0008F9F600D711D11246E5F7F4FC8010E9486
:1046D000D622D8015C968C915C975996ED90FC900F
:1046E0005A97B7E08B9FE00CF11C112444E650E090
:1046F00060E070E049835A836B837C83B7016E5F0F
:104700007F4FAE014F5F5F4FC8010E94E421F70168
:104710008683C80147960E94680E0F900F900F90F5
:104720000F90DF91CF911F910F91FF90EF9008951F
:104730000F931F93CF93DF9300D000D0CDB7DEB798
:104740008C01FC018685811104C0C8010E941823D8
:1047500021C0F801258582859385FEE12F9F800D7C
:10476000911D11240E946C0DFC01408151816281D8
:1047700073814A5F51096109710949835A836B83C7
:104780007C83CE0101960E9465278111DECFC8018E
:104790000E94422219821A821B821C82BE016F5F14
:1047A0007F4FC8010E94762082EC92E00E9472281E
:1047B000892B19F0C8010E94681D0F900F900F906F
:1047C0000F90DF91CF911F910F9108952091870253
:1047D000309188024091890250918A0260918B0247
:1047E00070918C0280918D0290918E02A1E00E94C6
:1047F000F42D2093870230938802409389025093CE
:104800008A0260938B0270938C0280938D02909346
:104810008E020E94002E21F48AE991E00E94761116
:1048200020918F023091900240919102509192021A
:1048300060919302709194028091950290919602FA
:10484000A1E00E94F42D20938F02309390024093B8
:10485000910250939202609393027093940280931A
:104860009502909396020E94002E59F486E180935F
:104870006F021092700283E791E090936E02809332
:104880006D0208950C94CC0EFC01128680E797E12E
:104890009487838721E02587918380839383828314
:1048A0009583848397838683918780870895FC010D
:1048B0002285DB018D919C91DF0132E0239FA00DC9
:1048C000B11D11248D939C93822F8F5F853011F041
:1048D000828701C0128615860895FC0185858111A5
:1048E0001AC08081918122813381820F931F24819C
:1048F0003581820F931F26813781820F931F208578
:104900003185820F931F65E070E00E94BE2D748791
:10491000638781E085873B96CF010895FC01DB0129
:104920008C91823519F4178E8CE003C081E0878F5B
:1049300080E18283089529E631E0FC013183208300
:104940000895FC011382168E089529E631E0FC01DA
:10495000318320830C94EA26FC0186E18283138252
:10496000128E138E148E158E168E8DE791E0918324
:10497000808381E0878F4FEF5FEFBA0146A357A393
:1049800060A771A708951F93CF93DF93EC01162FB3
:104990006FEC76E082EC92E00E94802A8F8D81306D
:1049A00019F464EE76E002C067EE76E082EC92E005
:1049B0000E94802A6AED76E082EC92E00E94802AD2
:1049C0004EA15FA168A579A52AE030E082EC92E0D3
:1049D0000E94422B112349F06BEE76E082EC92E0CC
:1049E000DF91CF911F910C94802ADF91CF911F917D
:1049F00008950F931F93CF93DF938C016DEE76E0B4
:104A000082EC92E00E94802AE80101E010E021E0BF
:104A100088A199A1019621F1211106C06CEF76E0E1
:104A200082EC92E00E94802A6FEF76E082EC92E0C6
:104A30000E94802A4AE050E0B80182EC92E00E9495
:104A4000BC2B61E077E082EC92E00E94802A68A1B2
:104A500079A14AE050E082EC92E00E94632B20E0D2
:104A600022960F5F1F4F0430110591F665E077E045
:104A700082EC92E0DF91CF911F910F910C94802AEC
:104A8000CF93DF93EC0160E00E94C32465EB76E0F6
:104A900082EC92E00E94802A4A8D5B8D6C8D7D8D28
:104AA0002AE030E082EC92E00E94422BCE010E948C
:104AB000F9248F8D811112C06DEB76E082EC92E0CB
:104AC0000E94802A8E85833519F469EC76E002C055
:104AD0006BEC76E082EC92E00E94802A6DEC76E04E
:104AE00082EC92E0DF91CF910C94BE2A9C01215E72
:104AF0003F4FC9010895CF93DF93FC018FEF9FEFE4
:104B000091A380A393A382A395A384A3878D8823D5
:104B100019F1813041F582E090E0DF01A80FB91F63
:104B200014964C91149747FF12C014965C911497F9
:104B3000EC012196CE0FDF1F4C81352F3F7720E00F
:104B4000B901642BAB015F965C934E935E9702961E
:104B50008830910511F707C035852485932F80E0B3
:104B6000822B91A380A3DF91CF9108950F931F9380
:104B7000FC0116A217A210A611A6878D882369F042
:104B8000813019F594818581592F5F7040E0662747
:104B900057FD6095762F482B14C02581468187816B
:104BA000908550E060E070E0BA0155274427722BF1
:104BB000492B182F00E020E030E0402B512B622BD6
:104BC000732B46A357A360A771A71F910F91089558
:104BD000FC01878D813029F48481881F8827881FF4
:104BE00008958285833421F4938581E09F3409F010
:104BF00080E008958F929F92AF92BF92CF92DF9202
:104C0000EF92FF920F931F93CF93DF93FC019924B0
:104C10009394B12C60EC70E0C0E8D0E000E410E0C8
:104C200044C080E090E0A12CEB2CF12CDC01AE0D17
:104C3000BF1DAE0FBF1F14968C9020E030E0AB017B
:104C4000022E02C0559547950A94E2F7482150E09C
:104C50006E01022E02C0D594C7940A94E2F74C1557
:104C60005D0559F06801022E02C0D594C7940A94DC
:104C7000E2F74C155D0519F403C041E002C0912C28
:104C800040E0AA0CA42A2E5F3F4F28303105B9F628
:104C900001968230910551F68B2D8695DF01A80F84
:104CA000B11D1496AC92B394B3948281B81608F4F3
:104CB000B8CF828186958283992011F081E001C06E
:104CC00082E0DF91CF911F910F91FF90EF90DF90E5
:104CD000CF90BF90AF909F908F9008959C012A5DD8
:104CE0003F4FC9010895DC0112965C9151509C011F
:104CF0002C5F3F4FF90140E002C06191460F6E2FDB
:104D0000621B6517D0F3DC011296EC91F0E031974D
:104D1000E80FF91F8481481302C081E0089582E002
:104D20000895CF93DF93EC018F8D882331F081308C
:104D300041F4CE010E94FA2503C0CE010E947326E1
:104D40008E8F8E8D813041F4CE010E947B25CE0165
:104D5000DF91CF910C94B625DF91CF91089540E07B
:104D600052EC61E070E082EC92E00E94782967E00A
:104D700077E082EC92E00E94BE2A87E992E00E94EE
:104D8000F01668E177E082EC92E00C94BE2A87E9A5
:104D900092E00C9498230E94EA2C0E94AF260E9475
:104DA000C726FDCF87E992E00C94370F84E491E0A9
:104DB0009093AF028093AE028EEA92E00E949F0A27
:104DC0008AE391E09093A00280939F028FE992E0A2
:104DD0000C944E0A0C94FF2E0C94642E0C94FF2E0F
:104DE0000895882311F02A9808952A9A089580E05A
:104DF0000E94F126229A61E08AE00E94872D61E0FC
:104E00008DE00E944F2D61E08BE00E944F2D61E00C
:104E10008AE00E944F2D60E08CE00E944F2D80E5DB
:104E20008CBD60E082E00E944F2D61E082E00E9434
:104E3000872D8DB581608DBD8CB58D7F8CBD8CB57A
:104E400081608CBD8CB5877F8CBD8CB58B7F8CBD14
:104E50000895FC0180818EBD0DB407FEFDCF8EB597
:104E60000895CF92DF92EF92FF920F931F93CF930B
:104E7000DF931F92CDB7DEB77C016B01FB01808110
:104E800081112A98F70181818983CE0101960E94C0
:104E90002927182F00E0F70180818983CE01019630
:104EA0000E942927082BF6018081882319F080E0D1
:104EB0000E94F126C8010F90DF91CF911F910F91B1
:104EC000FF90EF90DF90CF900895CF92DF92EF9216
:104ED000FF920F931F93CF93DF93EC010E94882CD6
:104EE000088119812A813B81601771078207930726
:104EF000C8F00E94882C605679478E4F9F4FC8801B
:104F0000D980EA80FB8020EAC20E26E8D21E21E08A
:104F1000E21EF11C21E06C157D058E059F0518F041
:104F200020E001C021E0822FDF91CF911F910F91EE
:104F3000FF90EF90DF90CF900895BF92CF92DF92D5
:104F4000EF92FF920F931F93CF93DF9300D000D087
:104F50001F92CDB7DEB78C016B01FC0110820E945D
:104F6000882C68577C4E8F4F9F4F69837A838B8341
:104F70009C83B12C82EC92E00E947228892BB9F1BB
:104F800082EC92E00E94A128482F8F37A1F4BB2029
:104F900071F1BA9468E082EC92E00E94D52866E252
:104FA00077E082EC92E00E94802A68E082EC92E056
:104FB0000E94D5281CC0F801EB0DF11D8083B3942D
:104FC000EB2CF12CF801EE0DFF1D3197608182EC86
:104FD00092E04D830E94A12AF601208130E0215009
:104FE00031094D81E216F30641F04D3031F0CE012A
:104FF00001960E9465278111BDCF68E277E082ECBF
:1050000092E00E94BE2A82EC92E00E94C328F8013E
:10501000EB0DF11D10820F900F900F900F900F90DD
:10502000DF91CF911F910F91FF90EF90DF90CF9084
:10503000BF9008950F931F93CF93DF93CDB7DEB743
:1050400061970FB6F894DEBF0FBECDBF8FE0898B9E
:10505000BE016F5E7F4FCE0101960E949D27898120
:10506000811114C081E0888B89E297E09F938F9330
:10507000CE0140969F938F930E94550B0F900F90F7
:105080000F900F900FEF1FEF98010AC040E050E023
:1050900060E070E0CE0101960E949B2F8B019C0185
:1050A000B801C90161960FB6F894DEBF0FBECDBF3F
:1050B000DF91CF911F910F910895FC01DB01408199
:1050C000518162817381AB01662777275C931196CA
:1050D0004C9311978081918112969C93129713960D
:1050E0008C930895FC0184859585FC01E05CFF4F5D
:1050F00020813181FC01EE5BFF4F80819181281B73
:10510000390B2F733327C9010895FC0184859585D8
:10511000FC01E05CFF4F40815181FC01EE5BFF4FE1
:10512000208131814217530741F00190F081E02D39
:10513000E80FF91F208130E002C02FEF3FEFC901D7
:105140000895FC0184859585FC01E05CFF4F40815A
:105150005181FC01EE5BFF4F2081318142175307E3
:1051600071F0A081B181A80FB91F2C91808191812C
:1051700001968F7399279183808330E002C02FEFCF
:105180003FEFC9010895FC0186859785FC01E05C2D
:10519000FF4FDC01AE5BBF4F408151812D913C91AF
:1051A000119742175307C1F70895CF93DF93FC017E
:1051B00026853785D901A05CBF4F8D919C911197B1
:1051C00001968F739927E901CE5BDF4F48815981A2
:1051D00084179507D9F30D90BC91A02DA20FB31F92
:1051E0006C93A685B785A05CBF4F11969C938E9358
:1051F000A689B7892C9181E090E0058C02C0880FC8
:10520000991F0A94E2F7282B2C9381E090E0DF911C
:10521000CF9108951F920F920FB60F9211242F93E2
:105220003F934F938F939F93EF93FF934091C600CB
:10523000809165039091660301968F739927209161
:105240006703309168038217930759F0E091650373
:10525000F0916603EB5DFC4F40839093660380936F
:105260006503FF91EF919F918F914F913F912F9106
:105270000F900FBE0F901F9018951F920F920FB6B0
:105280000F9211242F933F938F939F93EF93FF934C
:1052900020912103309122038091230390912403D4
:1052A0002817390731F48091C1008F7D8093C100A8
:1052B00014C0E0912303F0912403EF51FD4F2081AE
:1052C000809123039091240301968F7399279093E3
:1052D0002403809323032093C600FF91EF919F91B5
:1052E0008F913F912F910F900FBE0F901F901895A7
:1052F000CF92DF92EF92FF92CF93DF93EC016A019E
:105300007B01411581EE580761057105F9F0EC89C3
:10531000FD8981E090E00E8C02C0880F991F0A94ED
:10532000E2F7808360E079E08DE390E0A7019601E9
:105330000E94D22D215031094109510956954795B6
:1053400037952795211580E1380798F0EC89FD897C
:10535000108260E874E88EE190E0A70196010E9457
:10536000D22D21503109410951095695479537955C
:105370002795E889F9893083EA89FB892083EE89BA
:10538000FF89408181E090E09C010A8C02C0220FDD
:10539000331F0A94E2F7422B4083EE89FF89408154
:1053A0009C010B8C02C0220F331F0A94E2F7422BA0
:1053B0004083EE89FF8940819C010C8C02C0220F42
:1053C000331F0A94E2F7422B4083EE89FF89208144
:1053D0000D8C02C0880F991F0A94E2F780958223F2
:1053E0008083DF91CF91FF90EF90DF90CF90089571
:1053F0001092C5021092C40288EE93E0A0E0B0E0E3
:105400008093C6029093C702A093C802B093C902CA
:105410008BE891E09093C3028093C20285E293E00F
:105420009093CF028093CE0281EE92E09093D102CE
:105430008093D00285EC90E09093D3028093D202C7
:1054400084EC90E09093D5028093D40280EC90E0BD
:105450009093D7028093D60281EC90E09093D9028A
:105460008093D80286EC90E09093DB028093DA027E
:1054700084E08093DC0283E08093DD0287E0809308
:10548000DE0285E08093DF0281E08093E0020895F0
:10549000CF92DF92EF92FF920F931F93CF93DF9300
:1054A0006C01EB017A01E60EF71E00E010E00BC084
:1054B0006991D601ED91FC910190F081E02DC6013A
:1054C0000995080F191FCE15DF0591F7C801DF9167
:1054D000CF911F910F91FF90EF90DF90CF900895A3
:1054E000DB010D900020E9F7AD0141505109461B49
:1054F000570BDC01ED91FC910280F381E02D0994C2
:10550000EF92FF920F931F93CF93DF937C01EB01F8
:1055100000E010E0FE0121966491662351F0F7014E
:10552000A081B181ED91FC91C7010995080F191F68
:10553000F1CFC801DF91CF911F910F91FF90EF90B4
:105540000895DC01ED91FC910190F081E02D09942A
:105550000F931F93CF93DF93EC016DE00E94A12A7C
:105560008C016AE0CE010E94A12A9C01200F311F0C
:10557000C901DF91CF911F910F9108950F931F9350
:10558000CF93DF93EC010E94802A8C01CE010E9410
:10559000A82A9C01200F311FC901DF91CF911F91D3
:1055A0000F9108950F931F93CF93DF93EC010E9407
:1055B000702A8C01CE010E94A82A9801280F391F59
:1055C000C901DF91CF911F910F9108955F926F9262
:1055D0007F928F929F92AF92BF92CF92DF92EF9283
:1055E000FF920F931F93CF93DF93CDB7DEB7A197B1
:1055F0000FB6F894DEBF0FBECDBF3C016A017B0140
:10560000522E19A281E0821710F08AE0582E8E01E6
:105610000F5D1F4F852C912CA12CB12CC701B60119
:10562000A50194010E94D22D8C2D529E8019112427
:10563000015011098A3010F4805D01C0895CF801C5
:10564000808369017A01C114D104E104F10431F7C6
:10565000B801C3010E94702AA1960FB6F894DEBF6C
:105660000FBECDBFDF91CF911F910F91FF90EF90B3
:10567000DF90CF90BF90AF909F908F907F906F9072
:105680005F9008952115310541F4DC01ED91FC9105
:105690000190F081E02D642F09940C94E62A0F9379
:1056A0001F93CF93DF93EC010E94422B8C01CE011C
:1056B0000E94A82A9C01200F311FC901DF91CF91C0
:1056C0001F910F9108959A01AB0160E070E00C9476
:1056D000422B9A01462F50E060E070E00C94422B80
:1056E000CF92DF92EF92FF920F931F93CF93DF93AE
:1056F000EC016A017B012115310579F4E881F9811A
:105700000190F081E02D642FDF91CF911F910F91D7
:10571000FF90EF90DF90CF9009942A30310519F473
:1057200077FD0EC02AE0B701A601CE01DF91CF912F
:105730001F910F91FF90EF90DF90CF900C94E62A8D
:105740006DE20E94A12A8C0144275527BA014C1909
:105750005D096E097F092AE0CE010E94E62A9C01BC
:10576000200F311FC901DF91CF911F910F91FF9041
:10577000EF90DF90CF9008959A01AB01662757FD17
:105780006095762F0C94702B8230E8F4E82FF0E0CF
:10579000EE0FFF1FE759FC4F71836083813041F0AA
:1057A000809169008C7F842B80936900E89A08952A
:1057B00080916900440F551F440F551F837F842B30
:1057C00080936900E99A08951F920F920FB60F9285
:1057D00011242F933F934F935F936F937F938F93F6
:1057E0009F93AF93BF93EF93FF9380916903909141
:1057F0006A03892B29F0E0916903F0916A03099506
:10580000FF91EF91BF91AF919F918F917F916F9198
:105810005F914F913F912F910F900FBE0F901F906E
:1058200018951F920F920FB60F9211242F933F934A
:105830004F935F936F937F938F939F93AF93BF9398
:10584000EF93FF9380916B0390916C03892B29F068
:10585000E0916B03F0916C030995FF91EF91BF917B
:10586000AF919F918F917F916F915F914F913F91F8
:105870002F910F900FBE0F901F9018951F920F92AF
:105880000FB60F9211242F933F938F939F93AF9353
:10589000BF9380916D0390916E03A0916F03B091BF
:1058A000700330917503232F2D5F2D3720F401965F
:1058B000A11DB11D05C0232F2A570296A11DB11DA0
:1058C0002093750380936D0390936E03A0936F03F1
:1058D000B09370038091710390917203A091730350
:1058E000B09174030196A11DB11D80937103909333
:1058F0007203A0937303B0937403BF91AF919F9110
:105900008F913F912F910F900FBE0F901F90189580
:105910000F931F938FB7F89400916D0310916E034E
:1059200020916F03309170038FBFB801C9011F919F
:105930000F9108950F931F939FB7F89400917103EF
:1059400010917203209173033091740386B5A89B64
:1059500006C08F3F21F00F5F1F4F2F4F3F4F9FBF5C
:10596000322F212F102F0027080F111D211D311D4F
:1059700042E0000F111F221F331F4A95D1F7B801D3
:10598000C9011F910F910895CF92DF92EF92FF927C
:10599000CF93DF936B017C010E949A2CEB010EC028
:1059A0000E949A2C6C1B7D0B683E734038F081E09E
:1059B000C81AD108E108F108C851DC4FC114D1045C
:1059C000E104F10469F7DF91CF91FF90EF90DF9050
:1059D000CF900895789484B5826084BD84B5816049
:1059E00084BD85B5826085BD85B5816085BDEEE6E7
:1059F000F0E0808181608083E1E8F0E010828081C6
:105A000082608083808181608083E0E8F0E0808133
:105A100081608083E1EBF0E0808184608083E0EB53
:105A2000F0E0808181608083EAE7F0E0808184603B
:105A30008083808182608083808181608083808197
:105A4000806880831092C1000895833069F028F443
:105A50008130A1F0823011F514C08630B1F087306A
:105A6000C1F08430D9F404C0809180008F7703C0E6
:105A7000809180008F7D80938000089584B58F771A
:105A800002C084B58F7D84BD08958091B0008F776A
:105A900003C08091B0008F7D8093B0000895CF93B4
:105AA000DF9390E0FC01EB5BF84F4491FC01E75A77
:105AB000F84F8491882341F190E0880F991FFC01F1
:105AC000E958F84F25913491D9018359984FFC0139
:105AD00085919491C82FD92F9FB7F8948C9161111B
