:100000000C94EB030C947B2B0C94A82B0C941304F2
:100010000C9413040C9413040C9413040C94130404
:100020000C9413040C9413040C9413040C941304F4
:100030000C9413040C9413040C9413040C941304E4
:100040000C94D52B0C9413040C94A1280C94D42854
:100050000C9413040C9413040C9413040C941304C4
:100060000C9413040C9413047B226964223A20003C
:100070002C2022616374697665223A20007D007B22
:10008000226964223A20002C20226C6173745F7311
:1000900065656E223A20002C20226E756D5F7065BA
:1000A00072696F64735F6D6973736564223A2000CF
:1000B0002C2022657461223A20002C202273616D6D
:1000C000706C655F706572696F64223A20002C2045
:1000D00022616374697665223A20007D00545820BD
:1000E000256C752E20416464696E67206E65775FAC
:1000F00073616D706C655F706572696F64202575E2
:100100002C2061766572616765206E6F773D25757D
:100110000020002000284445425547290028494E28
:10012000464F2900285741524E2900284552524F28
:1001300052290028464154414C290065746120250C
:100140006C75203C206D696C6C6973282920256CC6
:10015000752E2069643D256C752E206E756D5F705F
:100160006572696F64733D25642C206163746976E0
:10017000653D25640069643A256C75206D6973736B
:10018000696E672E204E6577204554413D256C757C
:10019000206D69737365643D2575004E6578742024
:1001A00054582049443D256C752C204554413D252B
:1001B0006C750043435F54580043435F54525800EA
:1001C00041434B206175746F5F70616972206F6E7F
:1001D0000041434B206175746F5F70616972206FDD
:1001E0006666004E414B20456E61626C65206D6114
:1001F0006E75616C2070616972696E6720626566F8
:100200006F72652027702720636D642E0041434B79
:1002100020456E7465722049443A004E414B0041BE
:10022000434B20706169725F7769746820736574ED
:1002300020746F200041434B20656E746572206C02
:100240006F67206C6576656C3A20004E414B00412B
:10025000434B204C6F67206C6576656C207365742A
:1002600020746F20000041434B206F6E6C7920702A
:1002700072696E7420646174612066726F6D206BA8
:100280006E6F776E207472616E736D6974746572CF
:10029000730041434B207072696E7420616C6C2056
:1002A00076616C6964207061636B657473004143AF
:1002B0004B207072696E7420616C6C004E414B2053
:1002C000756E7265636F676E6973656420636F6DC9
:1002D0006D616E6420270027002C20000041434BF5
:1002E00020656E746572200020494420746F20617F
:1002F00064643A0020616464656420002000414326
:100300004B004E414B206E6F7400256C7520697355
:1003100020616C726561647920696E20646174612A
:100320002E0044594E414D494320415252415920DB
:100330004F5554204F462052414E4745204552527A
:100340004F52004F5554204F46204D454D4F525966
:100350000041434B20656E746572200020494420A3
:10036000746F206164643A002061646465642000F5
:10037000200041434B004E414B206E6F7400256CB2
:100380007520697320616C726561647920696E20E3
:10039000646174612E0044594E414D4943204152DD
:1003A000524159204F5554204F462052414E474507
:1003B000204552524F52004F5554204F46204D4534
:1003C0004D4F52590041434B20656E746572206E4B
:1003D000756D626572206F662000733A002061645B
:1003E0006465642000730041434B004E414B206E16
:1003F0006F740044594E414D494320415252415976
:10040000204F5554204F46204D454D4F52590041E5
:10041000434B20656E746572206E756D6265722047
:100420006F662000733A0020616464656420007385
:100430000041434B004E414B206E6F740044594EB7
:10044000414D4943204152524159204F5554204F6C
:1004500046204D454D4F52590041434B2064656C39
:100460006574656420616C6C2000730041434B200F
:1004700064656C6574656420616C6C200073004178
:10048000434B20656E746572200020494420746FD0
:100490002072656D6F76653A002072656D6F7665C6
:1004A000642000200041434B004E414B206E6F748E
:1004B00000256C75206E6F7420696E206461746114
:1004C0002E004E414B20696E64657820746F6F205A
:1004D0006C617267650041434B20656E74657220E4
:1004E0000020494420746F2072656D6F76653A0074
:1004F0002072656D6F7665642000200041434B00DB
:100500004E414B206E6F7400256C75206E6F742009
:10051000696E20646174612E004E414B20696E64E7
:10052000657820746F6F206C617267650041434B82
:10053000007B220073223A205B002C000D0A5D7DB7
:100540000041434B007B220073223A205B002C00C9
:100550000D0A5D7D004D697373696E6720545258B2
:1005600020256C752C20726574726965733D256455
:10057000004D697373696E672054525820256C755D
:100580002E20476976696E672075702E0057696E58
:10059000646F77206F70656E212045787065637495
:1005A000696E6720256C7520617420256C75005775
:1005B000696E646F7720636C6F7365642E2073754A
:1005C00063636573733D25640057616974696E6781
:1005D00020256C75206D7320666F7220494420259C
:1005E0006C7500527827642043435F545820706133
:1005F000636B6574207769746820756E6B6E6F77B6
:100600006E20494420256C750052782764204343AE
:100610005F545258207061636B6574207769746809
:1006200020756E6B6E6F776E20494420256C7500C7
:10063000527827642062726F6B656E20257320707C
:1006400061636B65740044594E414D4943204152EA
:10065000524159204F5554204F462052414E474554
:10066000204552524F5200506169722072657120CC
:1006700066726F6D20256C75007B227072223A20A5
:10068000007D007B227077223A2000207D004143CC
:100690004B20656E746572206964206F6620545229
:1006A0005820746F207377697463683A0041434B34
:1006B000004E414B002000002C202274223A2000E2
:1006C0002C20227374617465223A200031003000BE
:1006D0007D007B2274797065223A202200222C2032
:1006E000226964223A2000747800747278007D00D8
:1006F0002C202273656E736F7273223A207B002C5C
:1007000020002200223A20007D004E4F204D4F5203
:100710004520425546464552532100617474616339
:1007200068696E6720696E746572727570740050C6
:100730006F6C6C696E672043432054525820256CBF
:10074000750041434B2043432054525820256C757B
:10075000004544462049414D2052656365697665F0
:10076000720046696E697368656420696E69740019
:1007700020000074696D656F75740000000007004B
:100780000201000003040600000000000000000158
:100790000204081020408001020408102001020415
:1007A00008102004040404040404040202020202E7
:1007B0000203030303030300000000250028002BAD
:1007C0000000000000240027002A0000FB258526E9
:1007D0008F290926892611241FBECFEFD8E0DEBF5E
:1007E000CDBF11E0A0E0B1E0EAEDF5E602C0059072
:1007F0000D92AC38B107D9F713E0ACE8B1E001C015
:100800001D92A034B107E1F717E0C2EDD7E004C0B4
:100810002297FE010E94C42DCC3CD107C9F70E944B
:100820007E260C94E0320C940000CF92DF92EF927F
:10083000FF920F931F936B017C0120E030E040E0BA
:100840005FE40E94780787FD0EC020E030E040E0C2
:100850005FE4C701B6010E94C0050E9403088B0136
:100860009C01305806C0C701B6010E9403088B01E5
:100870009C01B801C9011F910F91FF90EF90DF908B
:10088000CF900895A0E0B0E0E8E4F4E00C948F2D60
:100890003C01CB01EA01D3012C91223008F43EC186
:1008A000FB013081323008F436C1243071F4343029
:1008B00009F034C111962C918181281709F42EC1B9
:1008C000B2E16B2EB1E07B2E29C1343009F423C193
:1008D000323091F4223009F021C128E0F301DA012D
:1008E00001900D922A95E1F7DB0111968C91F301AD
:1008F00091818923898311C1223009F40CC1D3016C
:100900001296ED91FC911397DB0112966D917C91FB
:100910001397D30114960D911D912D913C9117972A
:10092000DC011496CD90DD90ED90FC901797AF010F
:10093000461B570BDA0157FF04C0AA27BB27A41B8D
:10094000B50BA032B1050CF065C0141615067CF588
:10095000B701A6010A2E04C076956795579547956D
:100960000A94D2F7812C912C5401839404C0880CF2
:10097000991CAA1CBB1CAA95D2F7B1E08B1A91084E
:10098000A108B1088C209D20AE20BF20C12CD12C05
:100990007601C39481149104A104B10419F4C12C0B
:1009A000D12C7601C42AD52AE62AF72A3EC0452B47
:1009B000E1F1EA0FFB1FB901A8010A2E04C07695E8
:1009C0006795579547950A94D2F7812C912C54013D
:1009D000839404C0880C991CAA1CBB1CAA95D2F74E
:1009E000A1E08A1A9108A108B10880229122A222CE
:1009F000B32201E010E020E030E081149104A10472
:100A0000B10419F400E010E09801042B152B262BFB
:100A1000372B0BC06E177F0724F4C12CD12C760125
:100A200004C0FB0100E010E09801D30111964C9145
:100A3000DC0111968C91481709F442C0442349F017
:100A4000D701C601801B910BA20BB30B8C019D013A
:100A500004C00C191D092E093F0937FD04C0198275
:100A6000FB83EA830BC081E08983FB83EA833095B3
:100A70002095109501951F4F2F4F3F4F0C831D83DD
:100A80002E833F830DC0880F991FAA1FBB1F8C8325
:100A90009D83AE83BF838A819B8101979B838A83D9
:100AA0008C819D81AE81BF818C019D010150110916
:100AB000210931090F3F1F4F2F4F3F4320F30BC038
:100AC0004983FB83EA830C0D1D1D2E1D3F1D0C83E6
:100AD0001D832E833F8383E088830C811D812E81BB
:100AE0003F8137FF1AC0D901C80181709927AA2711
:100AF000BB273695279517950795802B912BA22B11
:100B0000B32B8C839D83AE83BF838A819B810196A7
:100B10009B838A8302C03C0101C03E01C301CDB763
:100B2000DEB7EEE00C94AB2DA0E2B0E0EAE9F5E030
:100B30000C949B2D6D8F7E8F8F8F98A3298F3A8F6A
:100B40004B8F5C8FBE016F5E7F4FCE014D960E9432
:100B50008909BE01675F7F4FCE0149960E948909CE
:100B6000AE014F5F5F4FBE01675F7F4FCE01419681
:100B70000E9442040E94C808A096E2E00C94B72D9F
:100B8000A0E2B0E0E6ECF5E00C949B2D6D8F7E8F3B
:100B90008F8F98A3298F3A8F4B8F5C8FBE016F5E2A
:100BA0007F4FCE014D960E948909BE01675F7F4F3E
:100BB000CE0149960E9489098A8591E089278A8712
:100BC000AE014F5F5F4FBE01675F7F4FCE01419621
:100BD0000E9442040E94C808A096E2E00C94B72D3F
:100BE000A0E2B0E0E6EFF5E00C948D2D6D8F7E8FE6
:100BF0008F8F98A3298F3A8F4B8F5C8FBE016F5ECA
:100C00007F4FCE014D960E948909BE01675F7F4FDD
:100C1000CE0149960E9489099989923008F412C040
:100C20008985823008F41AC0943021F4823009F4A6
:100C3000B4C008C0843021F4923009F4AEC00EC0B4
:100C4000923051F481E02A899A85291301C080E00D
:100C50008A8BCE014196A3C0823051F481E02A896B
:100C60009A85291301C080E08A87CE01099697C032
:100C70008D889E88AF88B88C0D851E852F85388914
:100C8000E0E2F0E080E090E0DC01C12CD12C7601C4
:100C900040E050E0BA0180FE18C0400F511F621FB3
:100CA000731F8C0D9D1DAE1DBF1D412C512C32019B
:100CB0004394401751076207730718F0412C512CD9
:100CC0003201840D951DA61DB71DCC0CDD1CEE1C3C
:100CD000FF1C37FF02C06894C0F8000F111F221FCD
:100CE000331FB694A794979487943197A1F62B89D4
:100CF0003C89EB85FC852E0F3F1F2E5F3F4F3C83C9
:100D00002B8321E0EA893A85E31301C020E02A839E
:100D1000EB81FC810CC080FF05C0769567955795E7
:100D200047957068B695A795979587953196B7FDC5
:100D3000F2CF9F010CC0880F991FAA1FBB1F77FD20
:100D40008160440F551F661F771F2150310900979E
:100D5000A105E0E4BE0778F32B833C838C019D0161
:100D60000F7711272227332700341105210531057C
:100D700059F487FD09C0452B462B472B29F0805C91
:100D80009F4FAF4FBF4F80788D839E83AF83B887CF
:100D900083E08983CE01019602C082E191E00E9446
:100DA000C808A096E0E10C94A92DA8E1B0E0EBED15
:100DB000F6E00C94952D6D8B7E8B8F8B988F298B05
:100DC0003A8B4B8B5C8BBE01675F7F4FCE014596A4
:100DD0000E948909BE016F5F7F4FCE0141960E943C
:100DE00089099985923008F475C08981823008F4A8
:100DF00074C02A853A8123272A87943011F09230D3
:100E000019F4981367C06CC0843039F41D861E86AF
:100E10001F86188A1C861B8604C0823029F484E051
:100E20008987CE0109965EC08B859C852B813C818C
:100E3000821B930B9C878B874D855E856F85788998
:100E4000CD80DE80EF80F8844C155D056E057F0552
:100E500038F4440F551F661F771F01979C878B87B7
:100E6000EFE1F0E000E010E020E030E480E090E02E
:100E7000DC014C155D056E057F0540F0802B912B44
:100E8000A22BB32B4C195D096E097F093695279566
:100E900017950795440F551F661F771F319749F720
:100EA0008C019D010F77112722273327003411056C
:100EB0002105310559F487FD09C0452B462B472BE9
:100EC00029F0805C9F4FAF4FBF4F80788D879E8702
:100ED000AF87B88BCE01099605C0CE01019602C03E
:100EE00082E191E00E94C8086896E8E00C94B12D78
:100EF000A8E1B0E0EEE7F7E00C949B2D6D8B7E8BC4
:100F00008F8B988F298B3A8B4B8B5C8BBE01675FE5
:100F10007F4FCE0145960E948909BE016F5F7F4FCA
:100F2000CE0141960E9489098985823058F08981D5
:100F3000823040F0BE016F5F7F4FCE0109960E9464
:100F4000F80901C08FEF6896E2E00C94B72DA8E095
:100F5000B0E0EDEAF7E00C94992D23E029838B01B2
:100F60009C01002737FD0395112722273327402FA7
:100F70000A83611571058105910519F482E0898361
:100F800035C02EE130E03C832B83442371F06115A2
:100F90007105810520E8920771F10027112798015A
:100FA000061B170B280B390B02C08B019C01C901D2
:100FB000B8010E94C82D0197181619062CF00D8350
:100FC0001E832F83388712C0082E04C0000F111F04
:100FD000221F331F0A94D2F70D831E832F83388775
:100FE0002EE130E0281B390B3C832B83CE01019688
:100FF0000E94C80804C060E070E080E09FEC289682
:10100000E4E00C94B52DACE0B0E0E9E0F8E00C943D
:10101000992D69877A878B879C87BE016F5F7F4F89
:10102000CE0109960E9489098981823091F182302E
:1010300080F1843041F48A81882331F100E010E0AE
:1010400020E030E829C02B813C8137FD22C02F31C0
:1010500031058CF78EE190E0821B930B0D811E8190
:101060002F81388504C036952795179507958A9561
:10107000D2F78A81882381F03095209510950195CB
:101080001F4F2F4F3F4F08C00FEF1FEF2FEF3FE7CE
:1010900003C000E010E09801B801C9012C96E4E01B
:1010A0000C94B52DA8E0B0E0E8E5F8E00C94952D9F
:1010B0008B019C011A82611571058105910519F456
:1010C00082E089835DC083E089834EE150E05C83E8
:1010D0004B83C901B8010E94C82D019797FF39C001
:1010E000EE27FF27E81BF90B41E050E060E070E0DD
:1010F0000E2E04C0440F551F661F771F0A94D2F7A7
:10110000415051096109710940235123622373231E
:10111000C12CD12C7601C394452B462B472B19F4B7
:10112000C12CD12C760104C03695279517950795CB
:10113000EA95D2F70C291D292E293F290D831E83FC
:101140002F8338872EE130E0281B390B3C832B831B
:1011500017C0009729F40D831E832F83388710C092
:10116000082E04C0000F111F221F331F0A94D2F74C
:101170000D831E832F833887481B590B5C834B8359
:10118000CE0101960E94C8082896E8E00C94B12D83
:101190000F931F93CF93FC01448155816681778122
:1011A000C1818081823020F460618FEF90E0A3C024
:1011B000843009F49BC0823009F492C04115510576
:1011C0006105710509F48FC02281338122388FEFC8
:1011D00038070CF057C0E2E8FFEFE21BF30BEA31EF
:1011E000F10564F58A019B010E2E04C03695279502
:1011F000179507950A94D2F781E090E0A0E0B0E05F
:1012000004C0880F991FAA1FBB1FEA95D2F7019748
:10121000A109B10984239523A623B72341E050E017
:1012200060E070E0892B8A2B8B2B19F440E050E0B2
:10123000BA01402B512B622B732B03C040E050E0CE
:10124000BA01DB01CA018F779927AA27BB2780340F
:101250009105A105B10539F447FF09C0405C5F4F16
:101260006F4F7F4F04C0415C5F4F6F4F7F4F81E0F6
:1012700090E041155105610520E4720748F580E0D2
:1012800090E026C0203831058CF5DB01CA018F774C
:101290009927AA27BB2780349105A105B10539F408
:1012A00047FF09C0405C5F4F6F4F7F4F04C0415CF8
:1012B0005F4F6F4F7F4F77FD04C0C90181589F4F2B
:1012C00007C07695679557954795C90180589F4FF8
:1012D00097E076956795579547959A95D1F70BC006
:1012E00080E090E005C080E090E005C08FEF90E0E6
:1012F00040E050E0BA01982F9695C0FB97F9362F41
:1013000080FB37F9642F752F832FCF911F910F9199
:101310000895CF92DF92EF92DC01FB01CC90119601
:10132000DC90119712968C9112973FE7E32EE822FA
:101330006E2DA60170E0982F991F9927991F13967B
:101340002C91822F880F892B90E027FB222720F9F0
:101350002183009729F5411551056105710511F4A7
:1013600082E027C082E89FEF9383828327E0440FC7
:10137000551F661F771F2A95D1F783E0808309C028
:10138000440F551F661F771F8281938101979383B6
:10139000828341155105610580E4780788F320C0F8
:1013A0008F3F910579F4411551056105710519F4D7
:1013B00084E0808319C0E4FE03C081E0808310C014
:1013C00010820EC08F5791099383828383E08083BC
:1013D00087E0440F551F661F771F8A95D1F7706409
:1013E0004483558366837783EF90DF90CF90089591
:1013F000CF93FC01DB019081923008F452C08C91B4
:10140000823008F44EC0943071F4843039F411966F
:101410002C9130E08181281B310948C081818823CB
:1014200009F43FC03BC0843029F411968C9181119E
:1014300038C034C0923019F48230B9F735C08230E8
:1014400069F3C18111968C911197C8131DC0228137
:10145000338112968D919C911397821793070CF408
:1014600013C0281739070CF417C0448155816681D1
:10147000778114968D919D910D90BC91A02D84172C
:101480009507A607B70718F4C11108C00AC0481786
:1014900059076A077B0740F4C11103C02FEF3FEFE4
:1014A00005C021E030E002C020E030E0C901CF916A
:1014B00008952EE131E0FC013183208308952EE16F
:1014C00031E0FC013183208308952EE131E0FC01FD
:1014D000318320830C945B262EE131E0FC013183C3
:1014E00020830C945B260F931F93CF93DF938C0183
:1014F00086E491E0F8019183808382819381009753
:1015000019F1FC013297208131814EE1429FE001C7
:10151000439FD00D1124C80FD91FCE01F80122819D
:1015200033816E978217930741F0E881F98101902A
:10153000F081E02DCE010995F0CF0297DF91CF9198
:101540001F910F910C945F26DF91CF911F910F9106
:101550000895CF93DF93EC010E94730ACE01DF91CF
:10156000CF910C945B2622E331E0FC013183208390
:101570000C94730ACF93DF93EC010E94B30ACE015F
:10158000DF91CF910C945B260F931F93CF93DF9342
:101590008C0180E591E0F8019183808382819381C1
:1015A000009719F1FC0132972081318147E0429F79
:1015B000E001439FD00D1124C80FD91FCE01F801BF
:1015C0002281338127978217930741F0E881F981BF
:1015D0000190F081E02DCE010995F0CF0297DF91C7
:1015E000CF911F910F910C945F26DF91CF911F91A6
:1015F0000F910895CF93DF93EC010E94C40ACE01AE
:10160000DF91CF910C945B262CE331E0FC01318318
:1016100020830C94C40ACF93DF93EC010E94040B47
:10162000CE01DF91CF910C945B2669EB71E086E8E7
:1016300092E00C94172A63EB71E086E892E00C9438
:10164000172ACF93DF93EC0168E670E086E892E01A
:101650000E94172A4A815B816C817D812AE030E0FB
:1016600086E892E00E94D92A60E770E086E892E07E
:101670000E94172A6E814AE050E070E086E892E00E
:101680000E94532B6DE770E086E892E0DF91CF91E6
:101690000C94172ACF93DF93EC0168814AE050E065
:1016A00070E086E892E00E94532B8881823089F0B6
:1016B00028F4882341F08130D1F408C0833061F0F0
:1016C0008430A9F40CC065E171E00BC06DE171E0FC
:1016D00008C064E271E005C06BE271E002C063E340
:1016E00071E086E892E0DF91CF910C94172ADF91A8
:1016F000CF910895EF92FF920F931F93CF93DF93B3
:10170000CDB7DEB7C258D1090FB6F894DEBF0FBE11
:10171000CDBFC557DF4FE880F980CB58D040C357C5
:10172000DF4F08811981CD58D04090910601F70113
:1017300080818917D0F10E941F2CAB01BC012AE0E7
:1017400030E086E892E00E94D92A61E171E086E803
:1017500092E00E94172AC7010E944A0B63E171E0E0
:1017600086E892E00E94172ADE01AF5BBF4FF801C6
:101770000F5F1F4FE491ED93E111F9CFAE01415797
:101780005F4FCF57DF4F59834883C158D040BE01C8
:101790006F5B7F4FCE0101960E941D30BE016F5FCF
:1017A0007F4F86E892E00E94692ACE57DF4F0FB63E
:1017B000F894DEBF0FBECDBFDF91CF911F910F9187
:1017C000FF90EF900895FC018EE191E0918380837A
:1017D0004FEF5FEFBA01428353836483758381E0E7
:1017E00086830895FC018EE191E091838083DB0183
:1017F0004D915D916D917C91428353836483758398
:1018000081E086830895CF93DF93EC014FEF5FEF84
:10181000BA014A835B836C837D8381E08E8388E297
:1018200091E099838883CE010B960E94112645E9A9
:1018300057EE6FEF7FEF4F83588769877A87198E4E
:101840001A8E1B8E1C8E1D8EDF91CF910895CF9323
:10185000DF93EC01FB0140815181628173814A83F6
:101860005B836C837D8381E08E8388E291E0998342
:101870008883CE010B960E94112645E957EE6FEF43
:101880007FEF4F83588769877A87198E1A8E1B8E50
:101890001C8E1D8EDF91CF910895CF93DF93EC01C5
:1018A0006FE770E086E892E00E94172A4A815B8128
:1018B0006C817D812AE030E086E892E00E94D92A9E
:1018C00067E870E086E892E00E94172A4A8D5B8DF7
:1018D0006C8D7D8D2AE030E086E892E00E94D92A66
:1018E00067E970E086E892E00E94172A4AE050E03B
:1018F000698D86E892E00E94002B60EB70E086E83C
:1019000092E00E94172A4F81588569857A852AE0DE
:1019100030E086E892E00E94D92A6AEB70E086E81F
:1019200092E00E94172ACE010B960E943A26FC01F3
:10193000608171814AE050E086E892E00E94FA2AD4
:101940006EEC70E086E892E00E94172A6E814AE011
:1019500050E070E086E892E00E94532B6BED70E05F
:1019600086E892E0DF91CF910C94172AAF92BF9254
:10197000CF92DF92EF92FF920F931F93CF93DF935B
:1019800000D01F92CDB7DEB78C015B01FC01428D08
:10199000538D648D758D452B462B472B09F44DC017
:1019A000C5010E94D322FC016081718182819381F3
:1019B000F801C28CD38CE48CF58C6C197D098E09EE
:1019C0009F09218D30E040E050E00E94692D3A836C
:1019D0002983255436412735324078F578018BE04C
:1019E000E80EF11CBE016F5F7F4FC7010E942426E5
:1019F000C7010E943A26FC016081718149815A81A8
:101A0000F80182819381248135811B827F936F93BA
:101A10005F934F933F932F939F938F938DED90E020
:101A20009F938F93CE0103969F938F930E947A0B7F
:101A30000FB6F894DEBF0FBECDBFC5010E94D32202
:101A4000FC01C080D180E280F380C8010B960E9427
:101A50003A26FC0180819181C80ED91EE11CF11C3F
:101A6000F801C782D086E186F286FF24F394F18ED6
:101A7000C5010E94D322FC014081518162817381A2
:101A8000F801428F538F648F758FF6820F900F90FD
:101A90000F90DF91CF911F910F91FF90EF90DF900A
:101AA000CF90BF90AF9008950F931F93CF93DF9384
:101AB0001F92CDB7DEB78C010B960E943A26DC014F
:101AC0008D919C91F8014781508561857285480F01
:101AD000591F611D711D4783508761877287818DF2
:101AE0008F5F818F863008F01682F8019281238102
:101AF0003481E581F1E0F9831F928F937F936F9397
:101B00005F934F93EF933F932F939F9385E791E0DC
:101B10009F938F93CE0101969F938F930E947A0B90
:101B20000FB6F894DEBF0FBECDBF0F90DF91CF91FF
:101B30001F910F910895AF92BF92CF92DF92EF92D3
:101B4000FF920F931F93CF93DF931F92CDB7DEB712
:101B50008C01FC01C780D084E184F284FAEFCF0EBF
:101B6000D11CE11CF11C0E941F2CC616D706E806EA
:101B7000F90608F047C0F801C780D084E184F284F8
:101B8000FAE6CF0EF8E1DF1EE11CF11C0E941F2CCB
:101B90006059784E8F4F9F4FC616D706E806F90654
:101BA00088F5F801A680B18CF280E380D480C580EE
:101BB0000E941F2CF80127813085418552851982AA
:101BC0001F92AF921F92BF92CF92DF92EF92FF923D
:101BD0009F938F937F936F935F934F933F932F9335
:101BE0008BE391E09F938F93CE0101969F938F9308
:101BF0000E947A0BC8010E94540D0FB6F894DEBF04
:101C00000FBECDBF095F1F4FC8010F90DF91CF916D
:101C10001F910F91FF90EF90DF90CF90BF90AF900A
:101C20000895BF92CF92DF92EF92FF920F931F938E
:101C3000CF93DF931F92CDB7DEB78C01B12C2BC0B1
:101C4000D80112968D919C911397BEE1BB9E800D99
:101C5000911D1124FC0126812223E1F00E949B0D9D
:101C6000DC01CD90DD90ED90FC90F8012581828122
:101C70009381FEE12F9F800D911D11240E949B0DE9
:101C8000DC014D915D916D917C91C416D506E606FF
:101C9000F706F0F1B394F8018481B81688F2258133
:101CA00082819381FEE12F9F800D911D11240E945E
:101CB0009B0DFC014081518162817381D801159691
:101CC0008C9115971296ED91FC911397BEE18B9F25
:101CD000E00DF11D112482819381248135811982C7
:101CE0007F936F935F934F933F932F939F938F9324
:101CF0008BE991E09F938F93CE0101969F938F93F1
:101D00000E947A0B0FB6F894DEBF0FBECDBF04C0A1
:101D1000D8011596BC92BECF0F90DF91CF911F9145
:101D20000F91FF90EF90DF90CF90BF900895FC014E
:101D300085818F5F85839481891301C01582089501
:101D4000CF92DF92EF92FF920F93CF93DF93C02F4A
:101D5000C15050E0D7E030E027C0CC2ED12CD601C6
:101D6000A40FB51FDA9F7001DB9FF00C1124FC015A
:101D7000A081B181AE0DBF1D7601E20EF31EDE9D86
:101D8000F001DF9DF00D1124E60FF71F1296CD90A4
:101D9000DD90ED90FC901597C282D382E482F582AB
:101DA0001696AC91A683C150C017B8F2DF91CF91BF
:101DB0000F91FF90EF90DF90CF900895FC0181E0AC
:101DC00081834FEF5FEFBA0142835383648375834E
:101DD00086831286118613861486158616861786C4
:101DE000108A118A128A138A148A158A82E391E072
:101DF00090878783118E108E128E138E148E158EFF
:101E0000168E178E10A211A212A213A214A28CE396
:101E100091E0978B868B15A216A217A210A611A689
:101E20000895CF93DF93EC010E9432240E94942303
:101E30000E941F2C6EA37FA388A799A7DF91CF9143
:101E400008951F93CF93DF9300D000D000D0CDB77B
:101E5000DEB7162F6EE876E086E892E00E94552AFB
:101E60000E94C62769837A838B839C836F3F7F4F51
:101E70008F4F9F4F19F461EB76E014C0112311F0DE
:101E80008EE401C086E48D838FE48E83AE014F5FC4
:101E90005F4FBE016B5F7F4FCE0106960E941825F3
:101EA0006DEA76E086E892E00E94552A26960FB603
:101EB000F894DEBF0FBECDBFDF91CF911F91089583
:101EC0003F924F925F926F927F928F929F92AF92CA
:101ED000BF92CF92DF92EF92FF920F931F93CF9317
:101EE000DF931F92CDB7DEB75C016FE074E086E848
:101EF00092E00E94172AD501ED91FC910480F581B2
:101F0000E02DC501099564E274E086E892E00E9444
:101F1000552A0E94C6276B017C016F3FBFEF7B07EC
:101F20008B079B0709F472C0362E4C2C512CE7E02E
:101F30006E9FC001112402960E945D264C01DC01B7
:101F40004D925D928D01612C712C05C0C8010E94DB
:101F5000E30B095F1F4FBFEF6B1A7B0AC2018619A3
:101F60009709019699F7F2E08F0E911C8114910464
:101F700099F0D50114963C92149716960C9120E096
:101F800040E0B401C50102960E94A00EF5018281D5
:101F90009381009791F434C082E089838DE394E0CB
:101FA0009F938F93CE0101969F938F930E947A0BFC
:101FB0000F900F900F900F9029C0FC013297208155
:101FC000318147E0429F8001439F100D1124080F8B
:101FD000191FC801D50112962D913C9113970750F6
:101FE00011098217930749F0D801ED91FC910190F6
:101FF000F081E02DC8010995ECCF02970E945F2681
:10200000F5019382828261E374E002C065E374E0CB
:1020100086E892E00E94172A67E274E086E892E080
:102020000E94172A2AE030E0B701A60186E892E074
:102030000E94D92AD501ED91FC910480F581E02D13
:10204000C50109956FE274E086E892E00E94552A86
:102050000F90DF91CF911F910F91FF90EF90DF9044
:10206000CF90BF90AF909F908F907F906F905F9038
:102070004F903F9008951F93CF93DF93EC0161E45D
:1020800075E086E892E00E94552A65E475E086E8EE
:1020900092E00E94172AE881F9810480F581E02D01
:1020A000CE01099568E475E086E892E00E94552A21
:1020B00010E01DC08A819B8127E0129F800D911D39
:1020C0001124DC01ED91FC910480F581E02D09954E
:1020D000212F30E08E8190E001972817390734F4E2
:1020E0006EE475E086E892E00E94552A1F5F8E81BB
:1020F000181700F360E575E086E892E0DF91CF9174
:102100001F910C94552A2F923F924F925F926F929B
:102110007F928F929F92AF92BF92CF92DF92EF9277
:10212000FF920F931F93CF93DF9300D000D000D086
:10213000CDB7DEB78C017C836B831A01DB01CD90B8
:10214000DD90ED90FC90FC0187809084A184B284A6
:10215000C814D904EA04FB0418F4DA011C929AC0EA
:10216000FC014384548465847684F681FA834C149C
:102170005D046E047F0418F4DA01FC938BC0FA81CD
:10218000F23008F484C0C701B601681979098A09D8
:102190009B090E9452086B017C01C301B2016819BE
:1021A00079098A099B090E9452089B01AC01C70169
:1021B000B6010E94D5066B017C014A81642F70E054
:1021C00061507109882777FD8095982F0E94A70795
:1021D0009B01AC01C701B6010E94F0050E941504E5
:1021E000D1016C93F8018681681708F08C93D101B6
:1021F0008C918823D1F0D8011296ED91FC91139720
:10220000BEE18B9FE00DF11D112482809380A4809C
:10221000B580EB81FC81C080D180E280F380C8145E
:10222000D904EA04FB0408F45EC0D1012C91F80142
:102230003681AB81BC81CD90DD90ED90FC90BEE10C
:102240002B9FC0011124231798F0D8011296ED910D
:10225000FC911397E80FF91F81E04281538164815B
:1022600075814C155D056E057F0509F444C012C0EB
:102270000280F381E02DE80FF91F82809380A48013
:10228000B5808C149D04AE04BF0488F1DECFBA8102
:10229000B13011F080E02FC0FC0182819381009762
:1022A00089F482E0898382E293E09F938F93CE0149
:1022B00001969F938F930E947A0B0F900F900F902F
:1022C0000F9002C09E838D83ED81FE818281938178
:1022D000A481B581C816D906EA06FB06D9F6D10154
:1022E0001C9281E008C08150F101808380CF2F5F74
:1022F000D1012C939ACF26960FB6F894DEBF0FBE6D
:10230000CDBFDF91CF911F910F91FF90EF90DF90A4
:10231000CF90BF90AF909F908F907F906F905F9085
:102320004F903F902F900895CF93DF93EC01CB0116
:10233000FB0142815381648175814A835B836C8395
:102340007D8326812E8347815085618572854F83E9
:10235000588769877A872EE03B96DE011B960190AD
:102360000D922A95E1F7FC01218D298F428D538D25
:10237000648D758D4A8F5B8F6C8F7D8FCE01DF9161
:10238000CF9108959F92AF92BF92CF92DF92EF923A
:10239000FF920F931F93CF93DF93EC017B01102FDC
:1023A0001150C42ED12C8EE1982EA22EB12C1AC021
:1023B000E12FF0E09F012C0D3D1D929EC001939EE8
:1023C000900D112468817981680F791FEA0DFB1D3A
:1023D0009E9EC0019F9E900D11248E0D9F1D0E94F8
:1023E00094111150101720F3DF91CF911F910F918D
:1023F000FF90EF90DF90CF90BF90AF909F900895A7
:102400003F924F925F926F927F928F929F92AF9284
:10241000BF92CF92DF92EF92FF920F931F93CF93D1
:10242000DF931F92CDB7DEB75C0165EC73E086E801
:1024300092E00E94172AD501ED91FC910480F5816C
:10244000E02DC50109956AED73E086E892E00E94EF
:10245000552A0E94C6276B017C016F3FBFEF7B07A7
:102460008B079B0709F473C0362E4C2C512CEEE1E0
:102470006E9FC001112402960E945D264C01DC0172
:102480004D925D928D01612C712C02C00E94030C53
:10249000C801BFEF6B1A7B0A025E1F4F920126191B
:1024A00037092F3F3F4F91F7F2E08F0E911C8114B7
:1024B000910499F0D50114963C92149716960C91BC
:1024C00020E040E0B401C50102960E94C211F5016E
:1024D00082819381009791F434C082E0898383EFF5
:1024E00093E09F938F93CE0101969F938F930E94C9
:1024F0007A0B0F900F900F900F9029C0FC0132972C
:10250000208131814EE1429F8001439F100D1124B3
:10251000080F191FC801D50112962D913C911397F0
:102520000E5111098217930749F0D801ED91FC91E2
:102530000190F081E02DC8010995ECCF02970E942F
:102540005F26F5019382828267EE73E002C06BEE34
:1025500073E086E892E00E94172A6DED73E086E84A
:1025600092E00E94172A2AE030E0B701A60186E82F
:1025700092E00E94D92AD501ED91FC910480F58169
:10258000E02DC501099565EE73E086E892E00E94B2
:10259000552A0F90DF91CF911F910F91FF90EF90EF
:1025A000DF90CF90BF90AF909F908F907F906F9073
:1025B0005F904F903F9008958F929F92AF92BF92FD
:1025C000CF92DF92EF92FF920F931F93CF93DF93FF
:1025D00000D000D000D0CDB7DEB78C016FE774E03B
:1025E00086E892E00E94172AD801ED91FC910480C0
:1025F000F581E02DC80109956AE874E086E892E06B
:102600000E94552A0E94C62769837A838B839C8304
:102610006F3F7F4F8F4F9F4F19F469EA74E097C067
:102620001E82AE014A5F5F4FBE016F5F7F4FC801E0
:102630000E948310882309F471C0AE80F80196804F
:10264000A91438F062EC74E086E892E00E94552A02
:10265000E4CF9A949A18A394FEE1AF9E50011124FE
:10266000C12CD12CE12CF12C9EE1892E1BC012969D
:102670008D919C911397B6016A0D7B1D680F791F90
:10268000A701420F511D849E9001859E300D11249B
:10269000820F931F0E949411BFEFEB1AFB0AEEE129
:1026A000CE0ED11C2E81D801E91408F321110EC0E1
:1026B0001296ED91FC91139742815381648175814B
:1026C000F80147835087618772871EC016964C9128
:1026D000169730E0842F90E0019728173907A1F46E
:1026E00012968D919C911397BEE14B9F800D911D89
:1026F0001124FC01FC974281538164817581F801AA
:102700004387548765877687D80116968C911697EC
:10271000815016968C9365EA74E019C089819A817C
:102720002B813C811D823F932F939F938F9381EB4D
:1027300094E09F938F93CE0105969F938F930E9471
:102740007A0B0FB6F894DEBF0FBECDBF66CF86E81A
:1027500092E00E94172A69E974E086E892E00E94FC
:10276000172AD801ED91FC910480F581E02DC80174
:10277000099563EA74E086E892E00E94172A49818D
:102780005A816B817C812AE030E086E892E00E94E9
:10279000E62A26960FB6F894DEBF0FBECDBFDF91B6
:1027A000CF911F910F91FF90EF90DF90CF90BF904E
:1027B000AF909F908F9008956F927F928F929F928B
:1027C000AF92BF92CF92DF92EF92FF920F931F933F
:1027D000CF93DF93CDB7DEB7A0970FB6F894DEBFE7
:1027E0000FBECDBF7C016B0118A2AE01405E5F4FF2
:1027F0000E9483108823F9F0D6018C9111969C9148
:10280000119712962C91129713963C911F8E3F931D
:102810002F939F938F938AE093E09F938F93CE01A2
:102820004F969F938F930E947A0B0FB6F894DEBF5A
:102830000FBECDBF6EC0D70116960C911697149699
:102840006C901497061558F548A1041B242F2F5F90
:1028500012966D917C911397C70102960E94C21146
:10286000B601CE0101960E94270C28A1F7018281B2
:102870009381BE016F5F7F4FFEE12F9F800D911D01
:1028800011240E949411CE0101960E945F0AD70183
:1028900016968C9116978F5F16968C9397C0712C15
:1028A0004301BFEF8B1A9B0A2EE1289DC001299D91
:1028B000900D112402960E945D265C01FC0181921C
:1028C00091928F01812C912C05C00E94030CFFEF87
:1028D0008F1A9F0AC801025E1F4F930128193909F8
:1028E0002F3F3F4F91F782E0A80EB11CA114B10415
:1028F00091F483E08F8F83E493E09F938F93CE01D5
:102900004F969F938F930E947A0B0F900F900F908A
:102910000F9080E096C0470192E0890E911C08A1BB
:1029200020E040E0B501C4010E94C211B601CE0111
:1029300001960E94270C88A1BE016F5F7F4FD501D1
:10294000EEE18E9FA00DB11D1124CD010E949411C6
:10295000CE0101960E945F0A48A1D70116960C91FC
:10296000041B242F2F5FB501C4010E94C211F7017F
:1029700082819381009719F1FC0132972081318186
:102980004EE1429F8001439F100D1124080F191F33
:10299000C801D70112962D913C9113970E51110940
:1029A0008217930749F0D801ED91FC910190F081D5
:1029B000E02DC8010995ECCF02970E945F26F70130
:1029C000B382A28284818F5F84838683D701149629
:1029D0008C911497F601408151816281738181301D
:1029E00061F41B964D935D936D937C931E97F70155
:1029F000478350876187728724C0D7011B960D914A
:102A00001D912D913C911E97041715072607370736
:102A100030F4F701438754876587768711C0D70163
:102A200017960D911D912D913C911A9740175107C2
:102A30006207730728F4F70147835087618772871D
:102A400081E0A0960FB6F894DEBF0FBECDBFDF9138
:102A5000CF911F910F91FF90EF90DF90CF90BF909B
:102A6000AF909F908F907F906F9008950F931F93DA
:102A7000CF93DF9300D000D0CDB7DEB78C016DEDE2
:102A800072E086E892E00E94172AD801ED91FC914D
:102A90000480F581E02DC801099568EE72E086E8B2
:102AA00092E00E94552A0E94C62769837A838B830D
:102AB0009C836F3F7F4F8F4F9F4F19F462E073E00D
:102AC0000AC0BE016F5F7F4FC8010E94DC138823DC
:102AD000A9F36EEF72E086E892E00E94172A64EF95
:102AE00072E086E892E00E94172AD801ED91FC91ED
:102AF0000480F581E02DC80109956CEF72E086E84D
:102B000092E00E94172A49815A816B817C812AE0D8
:102B100030E086E892E00E94E62A0F900F900F9036
:102B20000F90DF91CF911F910F9108952F923F92B7
:102B30004F925F926F927F928F929F92AF92BF92CD
:102B4000CF92DF92EF92FF920F931F93CF93DF9379
:102B500000D000D000D0CDB7DEB78C017C836B8372
:102B60001A01DB01CD90DD90ED90FC90FC01878097
:102B70009084A184B284C814D904EA04FB0418F434
:102B8000DA011C929AC0FC014384548465847684E3
:102B9000F681FA834C145D046E047F0418F4DA01A4
:102BA000FC938BC0FA81F23008F484C0C701B601EF
:102BB000681979098A099B090E9452086B017C01F6
:102BC000C301B201681979098A099B090E94520858
:102BD0009B01AC01C701B6010E94D5066B017C01C7
:102BE0004A81642F70E061507109882777FD8095D4
:102BF000982F0E94A7079B01AC01C701B6010E9454
:102C0000F0050E941504D1016C93F80186816817C4
:102C100008F08C93D1018C918823D1F0D8011296C1
:102C2000ED91FC911397B7E08B9FE00DF11D1124FE
:102C300082809380A480B580EB81FC81C080D180AC
:102C4000E280F380C814D904EA04FB0408F45EC0EF
:102C5000D1012C91F8013681AB81BC81CD90DD9002
:102C6000ED90FC90B7E02B9FC0011124231798F042
:102C7000D8011296ED91FC911397E80FF91F81E0AE
:102C800042815381648175814C155D056E057F0518
:102C900009F444C012C00280F381E02DE80FF91F4F
:102CA00082809380A480B5808C149D04AE04BF0400
:102CB00088F1DECFBA81B13011F080E02FC0FC0185
:102CC00082819381009789F482E0898386E993E089
:102CD0009F938F93CE0101969F938F930E947A0BBF
:102CE0000F900F900F900F9002C09E838D83ED8107
:102CF000FE8182819381A481B581C816D906EA0636
:102D0000FB06D9F6D1011C9281E008C08150F10187
:102D1000808380CF2F5FD1012C939ACF26960FB658
:102D2000F894DEBF0FBECDBFDF91CF911F910F9101
:102D3000FF90EF90DF90CF90BF90AF909F908F90DB
:102D40007F906F905F904F903F902F9008956F927B
:102D50007F928F929F92AF92BF92CF92DF92EF922B
:102D6000FF920F931F93CF93DF93CDB7DEB72997D1
:102D70000FB6F894DEBF0FBECDBF7C016B01198684
:102D8000AE01475F5F4F0E9496158823F9F0D60188
:102D90008C9111969C91119712962C9112971396E3
:102DA0003C9118863F932F939F938F938EE793E0E8
:102DB0009F938F93CE0108969F938F930E947A0BD7
:102DC0000FB6F894DEBF0FBECDBF70C0D701169608
:102DD0000C91169714966C901497061570F549850A
:102DE000041B242F2F5F12966D917C911397C701BE
:102DF00002960E94A00EB601CE0101960E94F20B2F
:102E00008985D7011296ED91FC911397B7E08B9FBE
:102E1000E00DF11D11244B815C816D817E81428327
:102E20005383648375838F818683CE0101960E94CC
:102E3000590AF70186818F5F99C0712C4301FFEF1A
:102E40008F1A9F0A27E0289DC001299D900D11240B
:102E500002960E945D265C01DC018D929D928D019F
:102E6000812C912C08C0C8010E94E30B095F1F4F01
:102E7000BFEF8B1A9B0AC30188199909019699F72C
:102E8000F2E0AF0EB11CA114B10491F483E0888785
:102E900087EB93E09F938F93CE0108969F938F9338
:102EA0000E947A0B0F900F900F900F9080E09AC0C5
:102EB000470122E0820E911C098520E040E0B50127
:102EC000C4010E94A00EB601CE0101960E94F20B31
:102ED0008985F50197E0899FE00DF11D11244B8153
:102EE0005C816D817E8142835383648375838F818E
:102EF0008683CE0101960E94590A4985D70116960C
:102F00000C91041B242F2F5FB501C4010E94A00E59
:102F1000F70182819381009719F1FC01329720819A
:102F2000318147E0429F8001439F100D1124080F1B
:102F3000191FC801D70112962D913C911397075084
:102F400011098217930749F0D801ED91FC91019086
:102F5000F081E02DC8010995ECCF02970E945F2611
:102F6000F701B382A28284818F5F84838683D70135
:102F700014968C911497F60140815181628173817E
:102F8000813061F41B964D935D936D937C931E97F6
:102F9000F701478350876187728724C0D7011B964A
:102FA0000D911D912D913C911E9704171507260731
:102FB000370730F4F701438754876587768711C058
:102FC000D70117960D911D912D913C911A9740179D
:102FD00051076207730728F4F70147835087618719
:102FE000728781E029960FB6F894DEBF0FBECDBF81
:102FF000DF91CF911F910F91FF90EF90DF90CF90D5
:10300000BF90AF909F908F907F906F900895EF92B8
:10301000FF920F931F93CF93DF93EC018B01CB01B2
:103020000E94A721FC018081882351F0813031F575
:10303000BE016E5F7F4FCE0107960E94DC130CC06D
:103040007E01F2E0EF0EF11CC7010E945725B70187
:10305000CE0146960E94A716882381F063E876E0A9
:1030600086E892E00E94172A61E0C8010E94CD2004
:103070006BE876E086E892E00E94552A4FEF5FEF1A
:10308000BA014A835B836C837D83DF91CF911F916B
:103090000F91FF90EF9008950F931F93CF93DF93BD
:1030A00000D000D0CDB7DEB78C0161E573E086E8D3
:1030B00092E00E94172AD801ED91FC910480F581DD
:1030C000E02DC80109956CE573E086E892E00E9466
:1030D000552A0E94C62769837A838B839C836F3F1E
:1030E0007F4F8F4F9F4F19F466E773E00AC0BE0110
:1030F0006F5F7F4FC8010E94A7168823A9F362E77C
:1031000073E086E892E00E94172A68E673E086E89A
:1031100092E00E94172AD801ED91FC910480F5817C
:10312000E02DC801099560E773E086E892E00E940F
:10313000172A49815A816B817C812AE030E086E838
:1031400092E00E94E62A0F900F900F900F90DF916F
:10315000CF911F910F910895CF92DF92EF92FF923E
:103160000F931F93CF93DF93CDB7DEB727970FB69B
:10317000F894DEBF0FBECDBF7C016B01CB010E9476
:10318000A721FC011081C6010E94CE22FC01808192
:1031900091812281338189839A832B833C831D8291
:1031A0003F932F939F938F9387E696E09F938F9300
:1031B000AE014B5F5F4F5F934F934E835F830E94DF
:1031C0007A0B0FB6F894DEBF0FBECDBF4E815F8184
:1031D000113091F51D82BE016F5F7F4FC7010796C9
:1031E0000E948310811142C038C01D82BE016F5FF2
:1031F0007F4FC70146960E949615811120C02DC0B1
:10320000F7010281138124813581041715072607F0
:10321000370709F41DC069E776E086E892E00E946E
:10322000172A61E0C6010E94CD2061E876E086E8B9
:1032300092E00E94552A1AC011110FC0D6CF4981C1
:103240005A816B817C81F701428353836483758348
:10325000B601C7010E94071809C0F70181814981A1
:103260005A816B817C81882359F2EDCF27960FB666
:10327000F894DEBF0FBECDBFDF91CF911F910F91AC
:10328000FF90EF90DF90CF9008959F92AF92BF9202
:10329000CF92DF92EF92FF920F931F93CF93DF9322
:1032A00000D000D000D0CDB7DEB78C0166ED74E061
:1032B00086E892E00E94172AD801ED91FC910480E3
:1032C000F581E02DC801099561EE74E086E892E091
:1032D0000E94552A0E94C62769837A838B839C8328
:1032E0006F3F7F4F8F4F9F4F19F460E075E09BC099
:1032F0001E82AE014A5F5F4FBE016F5F7F4FC80104
:103300000E949615882309F475C0BE80F801A68036
:10331000BA1438F069E175E086E892E00E94552A17
:10332000E4CFAA94AB18EB2CE394F7E0EF9E700186
:10333000112427E0B29E6001112480E090E0912CDE
:103340001DC012962D913C911397DC01AE0DBF1D4F
:10335000A20FB31FFC01EC0DFD1DE20FF31F12962F
:103360004D915D916D917C91159742835383648358
:10337000758316962C91268393940796D8019A10FC
:10338000E0CFB1100EC01296ED91FC9113974281DF
:10339000538164817581F801478350876187728703
:1033A0001FC016964C9116972B2D30E0842F90E07D
:1033B000019728173907A1F412968D919C911397C4
:1033C000B7E04B9F800D911D1124FC013E97428177
:1033D000538164817581F8014387548765877687B7
:1033E000D80116968C911697815016968C936CEF97
:1033F00074E019C089819A812B813C811D823F93A1
:103400002F939F938F9388E095E09F938F93CE01A6
:1034100005969F938F930E947A0B0FB6F894DEBFA8
:103420000FBECDBF62CF86E892E00E94172A60EF00
:1034300074E086E892E00E94172AD801ED91FC9191
:103440000480F581E02DC80109956AEF74E086E8F3
:1034500092E00E94172A49815A816B817C812AE07F
:1034600030E086E892E00E94E62A26960FB6F894AD
:10347000DEBF0FBECDBFDF91CF911F910F91FF90A7
:10348000EF90DF90CF90BF90AF909F900895EF9214
:10349000FF920F931F93CF93DF931F92CDB7DEB7A9
:1034A0008C0186E892E00E9438287C019C01332739
:1034B0002436310509F4F4C074F52C34310509F4CF
:1034C00088C19CF42033310509F488C12CF42D30D7
:1034D000310509F09BC1ABC12133310509F480C12D
:1034E0002434310509F092C104C12335310509F4B2
:1034F000D2C04CF42E34310509F4C3C02235310555
:1035000009F084C11DC12136310591F12236310502
:1035100009F07CC1ABC020373105B1F194F42C36F1
:10352000310509F412C12CF42B36310509F06EC1B6
:1035300091C02D36310519F12E36310509F066C1DD
:103540009BC02437310509F450C14CF422373105B2
:1035500009F4F1C02337310509F058C197C0253768
:10356000310509F47CC02637310509F04FC138C058
:1035700081E0D80111968C9360EC71E054C1F801A0
:10358000118261ED71E04FC1D80111968C918823B1
:1035900019F063EE71E047C16DE072E086E892E0F9
:1035A0000E94552A0E94C6276F3FBFEF7B078B07FB
:1035B0009B0719F46BE172E036C1F80162837383F3
:1035C000848395836FE172E086E892E00E94172A77
:1035D000D80112964D915D916D917C9115970FC117
:1035E00065E372E086E892E00E94172A10E01983F2
:1035F000CE0101960E944A0B69ED72E086E892E0E6
:103600000E94172A1F5F143091F71983CE0101968B
:103610000E944A0B6CED72E086E892E00E94552A07
:103620000E94C6276F3FBFEF7B078B079B0719F4EC
:103630006BE472E0F8C0609306016FE472E086E824
:1036400092E00E94172A86E091E00E944A0B65E60C
:1036500072E0E9C0F801168266E672E0E4C081E03B
:10366000D80116968C9362E972E0DDC082E0F80121
:1036700086836EEA72E0D7C0C80107960E943615AD
:10368000D6C0C80146960E944C18D1C0C801079602
:103690000E940012CCC0C80146960E94600FC7C0AD
:1036A0007801F7E0EF0EF11CD8011C961C921C97D4
:1036B0001D961C921D97F801128A138A148A158A86
:1036C0001E961D921D921D921C92519769E574E001
:1036D00086E892E00E94172AD8011796ED91FC9196
:1036E00018970480F581E02DC70109956AE674E01A
:1036F0009AC07801B6E1EB0EF11CF801138E148E1E
:1037000011A212A213A214A2158E168E178E10A249
:103710006CE674E086E892E00E94172AD80156967B
:10372000ED91FC9157970480F581E02DC701099533
:103730006DE774E078C0C80107960E94DC1277C07C
:10374000C80146960E94451972C07801B7E0EB0E99
:10375000F11C6DE275E086E892E00E94552A61E373
:1037600075E086E892E00E94172AD8011796ED913D
:10377000FC9118970480F581E02DC701099564E359
:1037800075E086E892E00E94552A10E01BC0F70120
:1037900082819381FEE11F9F800D911D11240E9463
:1037A0004D0C212F30E0D70116968C9190E00197B7
:1037B0002817390734F46AE375E086E892E00E943E
:1037C000552A1F5FF7018681181708F36CE375E02F
:1037D0002AC0C80146960E943B1029C060E001C083
:1037E00061E0C8010E94210F22C06AE070E080E021
:1037F00090E00E945B2C0E941F2CAB01BC012AE0D0
:1038000030E086E892E00E94E62A11C06CEB72E09C
:1038100086E892E00E94172A6E2D86E892E00E94C8
:10382000382A67ED72E086E892E00E94552A0F90F0
:10383000DF91CF911F910F91FF90EF9008952F92FC
:103840003F924F925F926F927F928F929F92AF9230
:10385000BF92CF92DF92EF92FF920F931F93CF937D
:10386000DF93CDB7DEB72E970FB6F894DEBF0FBE4D
:10387000CDBF3C017A876987412C512C312C4E01F8
:1038800025E0820E911C46969E878D87D301179660
:10389000B887AF83B5E2B49D5001B59DB00C11243B
:1038A000EDE8F1E0AE0EBF1E8501C5010E94F51FD7
:1038B000882309F4D8C0C5010E94A721DC012C90FF
:1038C000C5010E94BD22882309F4A4C0C5010E943D
:1038D000CE22FC01008111812281338109831A8368
:1038E0002B833C8381E0A985BA85CD90DD90ED9056
:1038F000FC900C151D052E053F0509F080E0382AC7
:10390000C5010E941922882369F0D501ED91FC912F
:103910000480F581E02DC5010995B501C3010E9420
:10392000AC18A9C0222009F44AC0B1E02B1293C000
:10393000AE014A5F5F4FBE016F5F7F4F8F819885F9
:103940000E948310882369F1C5010E944A21F30176
:10395000218532852115310561F08E819585891784
:1039600040F4FEE18F9F200D311D11242B873C87F1
:103970000EC022E02D8326E436E03F932F939F92E2
:103980008F920E947A0B0F900F900F900F90B501BD
:103990008B859C850E94B60C8F8198850E94110EA4
:1039A0005AC089819A812B813C812D823F932F932C
:1039B0009F938F9383EE95E09F938F9319C01D8201
:1039C000A401BE016F5F7F4F8D859E850E94961575
:1039D00081111CC089819A812B813C81B1E0BD831A
:1039E0003F932F939F938F93E9E0F6E0FF93EF933C
:1039F0009F928F920E947A0B0FB6F894DEBF0FBE93
:103A0000CDBFD30116968C91882329F1C5010E9460
:103A10004A2121C0B1E02B1203C026E531E002C0EB
:103A200029E531E0E1E0ED833F932F9380E396E0D9
:103A30009F938F939F928F920E947A0B0F900F907B
:103A40000F900F900F900F90F3018681823019F440
:103A5000C8010E94CC1FD501ED91FC910480F58135
:103A6000E02DC5010995BFEF4B1A5B0AE5E04E1644
:103A7000510409F00FCF832D2E960FB6F894DEBFB8
:103A80000FBECDBFDF91CF911F910F91FF90EF90AF
:103A9000DF90CF90BF90AF909F908F907F906F906E
:103AA0005F904F903F902F9008958F929F92AF928A
:103AB000BF92CF92DF92EF92FF92CF93DF9300D02D
:103AC00000D01F92CDB7DEB76C017B015A010E9476
:103AD0001F2CF50180809180A280B380680D791D34
:103AE0008A1D9B1D69837A838B839C83F701808168
:103AF0009181228133811D823F932F939F938F93D6
:103B0000BF92AF929F928F9229EC35E03F932F9313
:103B10009E012B5F3F4F3F932F930E947A0B0FB66E
:103B2000F894DEBF0FBECDBF06C0B701C6010E942C
:103B30001F1C811107C0CE0101960E94112781111F
:103B4000F4CF01C081E00F900F900F900F900F9075
:103B5000DF91CF91FF90EF90DF90CF90BF90AF902B
:103B60009F908F900895EF92FF920F931F93CF93A2
:103B7000DF9300D000D000D0CDB7DEB78C01DC01E0
:103B80001C962C911C9719968D919C911A97BEE1C9
:103B90002B9F800D911D11240E949B0DFC014081E3
:103BA000518162817381F80184850184F285E02D61
:103BB0002EE1829FE00DF11D1124828193812481E9
:103BC00035811D827F936F935F934F933F932F9324
:103BD0009F938F938DE895E09F938F937E0135E0BF
:103BE000E30EF11CFF92EF920E947A0B44EF51E03A
:103BF00060E070E049835A836B837C83D8011C9614
:103C00008C911C9719966D917C911A97BEE18B9FB0
:103C1000600D711D11246E5F7F4FAE014F5F5F4FCE
:103C2000C8010E94551D1D821F928F932FEA35E017
:103C30003F932F93FF92EF928E830E947A0B0FB6E1
:103C4000F894DEBF0FBECDBF8E81811113C0D801A5
:103C50001C962C911C9719968D919C911A97BEE1F8
:103C60002B9F800D911D11240E94540DC8010796B1
:103C70000E94110E26960FB6F894DEBF0FBECDBF80
:103C8000DF91CF911F910F91FF90EF9008950F93C7
:103C90001F93CF93DF9300D000D01F92CDB7DEB734
:103CA0008C01DC015C968C915C97882309F4BEC082
:103CB0005B968C915B97811111C095968C918823AE
:103CC00009F45BC00BC00E941F2C6059784E8F4FC7
:103CD0009F4FF80166A377A380A791A7D8015B96B1
:103CE0002C915B9758968D919C915997B7E02B9F9B
:103CF000800D911D112402960E94A5254AE550E0F1
:103D000060E070E049835A836B837C83F801838D84
:103D1000608D718DF7E08F9F600D711D11246E5FB6
:103D20007F4FAE014F5F5F4FC8010E94551DD80104
:103D30005B969C915B975896ED91FC9159978823DF
:103D400071F0B7E09B9FE00DF11D112481E08683A7
:103D5000C80146960E94970EF80115A267C0D801C7
:103D600095968C91853050F5B7E09B9FE00DF11D45
:103D700011249681911108C021C0C80186960E9425
:103D80001127811153C09FCF9281238134814581B6
:103D90001D821F928F934F933F932F939F9385E59F
:103DA00095E09F938F93CE0105969F938F930E94EA
:103DB0007A0BF80185A18F5F85A333C0D8015B968C
:103DC0008C915B975896ED91FC915997B7E08B9F3A
:103DD000E00DF11D11241682C80146960E94970E2F
:103DE000F801838D008CF18DE02D27E0829FE00D9E
:103DF000F11D1124828193812481358141E04D831D
:103E00003F932F939F938F9381E795E09F938F9399
:103E1000CE0105969F938F930E947A0BD8019596B9
:103E20001C920FB6F894DEBF0FBECDBF0F900F905F
:103E30000F900F900F90DF91CF911F910F910895E8
:103E40000F931F93CF93DF9300D000D0CDB7DEB791
:103E50008C01FC018585811104C0C8010E94471EA8
:103E600021C0F801248581859285FEE12F9F800D78
:103E7000911D11240E949B0DFC01408151816281A2
:103E800073814A5F51096109710949835A836B83C0
:103E90007C83CE0101960E9411278111DECFC801DB
:103EA0000E94B31D19821A821B821C82BE016F5FA1
:103EB0007F4FC8010E941F1C86E892E00E940928DB
:103EC000892B19F0C8010E94471A0F900F900F908C
:103ED0000F90DF91CF911F910F91089521E631E06E
:103EE000FC01318320830895FC0113820895FC01B5
:103EF0001382128E089521E631E0FC013183208384
:103F0000089521E631E0FC01318320830C945B2687
:103F100021E631E0FC01318320830C945B26FC0117
:103F200081E691E09183808381E182831382089509
:103F3000FC0193818281981750F48381DB019C916D
:103F4000DF01A80FB11D14969C938F5F83830895A2
:103F5000CF92DF92EF92FF920F931F93CF93DF9355
:103F60007C016B018A01C0E0D0E007C0B6016C0F94
:103F70007D1FC7010E94981F2196F801808190E063
:103F8000C817D9079CF3DF91CF911F910F91FF9034
:103F9000EF90DF90CF9008950F931F93CF93DF930F
:103FA0008C01C0E0D0E011C0F801EC0FFD1F64816E
:103FB00040E150E086E892E00E94002B65EB76E05D
:103FC00086E892E00E94172A2196F801828190E00B
:103FD000C817D9074CF367EB76E086E892E0DF91EB
:103FE000CF911F910F910C94552AFC01238192814E
:103FF00081E0291708F480E00895282FFB01308123
:10400000E82FF92F80E002C09191890F9E2F921B1B
:104010009317D0F30895FC0193818281981748F497
:104020009381DF01A90FB11D14968C919F5F93833B
:10403000089580E008959F92AF92BF92CF92DF9251
:10404000EF92FF920F931F93CF93DF93CDB7DEB71D
:1040500028970FB6F894DEBF0FBECDBF8C016B0161
:104060007A01B22E85E589838DE28A8384ED8B8384
:1040700080E48C831D8283E0888782E08F83902E8A
:10408000A12ED801ED91FC910480F581E02DC801AD
:104090000995AE01485F5F4FBE016F5F7F4FC8015A
:1040A0000E94A81FA701B601C8010E94A81FBB203B
:1040B00059F0B701C6010E94FD1F8E83BE016A5FE1
:1040C0007F4FC8010E94981FAE01495F5F4FBE013C
:1040D0006C5F7F4F892D9A2D0E94A81FF701808168
:1040E0008B5F8B0DD80112968C93129713961C92AE
:1040F00028960FB6F894DEBF0FBECDBFDF91CF91EB
:104100001F910F91FF90EF90DF90CF90BF90AF90F5
:104110009F900895FC0181E1828313828BE691E0F8
:104120009183808381E0858B168A178A108E118E89
:10413000128E4FEF5FEFBA0141A352A363A374A3A2
:1041400008950F931F93CF93DF93EC018B019B8115
:104150008A819817E8F48B81811111C00E941F2C6D
:104160006E8B7F8B888F998FF8018081823519F44F
:104170001D8A8CE003C081E08D8B80E18A838B8176
:10418000F8019081FE01E80FF11D94838F5F8B830E
:10419000DF91CF911F910F9108951F93CF93DF93DC
:1041A000EC01162F62ED76E086E892E00E94172A75
:1041B0008D89813019F467EE76E002C06AEE76E010
:1041C00086E892E00E94172A6DED76E086E892E09C
:1041D0000E94172A49A15AA16BA17CA12AE030E0D4
:1041E00086E892E00E94D92A112349F06EEE76E02B
:1041F00086E892E0DF91CF911F910C94172ADF910E
:10420000CF911F9108950F931F93CF93DF938C014C
:1042100060EF76E086E892E00E94172AE80101E06C
:1042200010E021E08B8D9C8D019621F1211106C0BB
:104230006FEF76E086E892E00E94172A62E077E06E
:1042400086E892E00E94172A4AE050E0B80186E82A
:1042500092E00E94532B64E077E086E892E00E94AF
:10426000172A6B8D7C8D4AE050E086E892E00E9430
:10427000FA2A20E022960F5F1F4F0430110591F6B5
:1042800068E077E086E892E0DF91CF911F910F918F
:104290000C94172ACF93DF93EC0160E00E94CD20AD
:1042A00068EB76E086E892E00E94172A4E895F89E3
:1042B000688D798D2AE030E086E892E00E94D92A64
:1042C000CE010E9403218D89811112C060EC76E03D
:1042D00086E892E00E94172A8E85833519F46CECEB
:1042E00076E002C06EEC76E086E892E00E94172A43
:1042F00060ED76E086E892E0DF91CF910C94552A4C
:104300000F931F93CF93DF931F92CDB7DEB78C012E
:10431000DC0112968C9181508983BE016F5F7F4FC3
:10432000C80104960E94FD1FD8011296EC91F0E09E
:104330003197E00FF11F9481891302C081E001C021
:1043400082E00F90DF91CF911F910F9108959C0112
:104350002B5E3F4FC9010895CF93DF93FC018FEF90
:104360009FEF948F838F968F858F90A3878F8589FA
:10437000882319F1813041F582E090E0DF01A80F38
:10438000B91F14964C91149747FF12C014965C9174
:104390001497EC012196CE0FDF1F4C81352F3F770C
:1043A00020E0B901642BAB015A965C934E93599768
:1043B00002968830910511F707C035852485932F23
:1043C00080E0822B948F838FDF91CF9108950F939C
:1043D0001F93FC0111A212A213A214A285898823A3
:1043E00069F0813019F594818581592F5F7040E023
:1043F000662757FD6095762F482B14C0258146818E
:104400008781908550E060E070E0BA01552744272D
:10441000722B492B182F00E020E030E0402B512B6D
:10442000622B732B41A352A363A374A31F910F911B
:104430000895FC018589813029F48481881F8827AB
:10444000881F08958285833421F4938581E09F3409
:1044500009F080E008958F929F92AF92BF92CF9221
:10446000DF92EF92FF920F931F93CF93DF93FC01A4
:1044700099249394B12C60EC70E0C0E8D0E000E4A3
:1044800010E044C080E090E0A12CEB2CF12CDC018A
:10449000AE0DBF1DAE0FBF1F14968C9020E030E014
:1044A000AB01022E02C0559547950A94E2F74821C8
:1044B00050E06E01022E02C0D594C7940A94E2F730
:1044C0004C155D0559F06801022E02C0D594C794C1
:1044D0000A94E2F74C155D0519F403C041E002C0EF
:1044E000912C40E0AA0CA42A2E5F3F4F28303105C2
:1044F000B9F601968230910551F68B2D8695DF0134
:10450000A80FB11D1496AC92B394B3948281B816DF
:1045100008F4B8CF828186958283992011F081E0DA
:1045200001C082E0DF91CF911F910F91FF90EF903A
:10453000DF90CF90BF90AF909F908F900895CF93D2
:10454000DF93EC018D89882331F0813041F4CE0175
:104550000E942B2203C0CE010E9480218A8F8A8D67
:10456000813041F4CE010E94AC21CE01DF91CF9188
:104570000C94E721DF91CF910895CF93DF93EC0165
:104580008A8D811103C0CE010E949F2281E09A8D05
:10459000913009F080E0DF91CF9108959C012F5D6B
:1045A0003F4FC90108959C012A5E3F4FC9010895FC
:1045B0000F931F93CF93DF93EC0119928C01065454
:1045C0001F4FCE010E948A20A596C017D107C9F7B8
:1045D000DF91CF911F910F910895FF920F931F9339
:1045E000CF93DF931F92CDB7DEB78C01FC018081A2
:1045F00045E2F42E9801F89E200D311D1124C901C9
:1046000001960E94A120F8018081F89EE00DF11D25
:1046100011243196938182819817B8F080E090E060
:1046200025E2289FF001299FF00D11243196E00F1B
:10463000F11F43813281431718F4F801808317C0BA
:1046400001968530910569F702C080E011C083E0D2
:1046500089838AE097E09F938F93CE0101969F9381
:104660008F930E947A0B0F900F900F900F9081E024
:104670000F90DF91CF911F910F91FF90089525E743
:1046800031E0FC01318320830C946E1FCF93DF93C4
:10469000EC010E943F23CE01DF91CF910C945B2669
:1046A0001F93CF93DF9300D01F92CDB7DEB711E0F9
:1046B0001B8389E392E89A838983BE016D5F7F4FF4
:1046C000CE0101960E94DD2610935B020F900F90A1
:1046D0000F90DF91CF911F9108951F93CF93DF9398
:1046E00000D01F92CDB7DEB711E01B8381E89AECB2
:1046F0009A838983BE016D5F7F4FCE0101960E9430
:10470000DD261B8383E89AEC9A838983BE016D5F63
:104710007F4FCE0101960E94DD260F900F900F90E3
:10472000DF91CF911F910895CF93DF9300D01F9217
:10473000CDB7DEB781E08B8389ED92E89A838983D8
:10474000BE016D5F7F4FCE0101960E94DD26109263
:104750005B020E946D230F900F900F90DF91CF911D
:104760000895CF93DF9300D01F92CDB7DEB786E4D4
:1047700092E00E940B2091E09B8390E0986B9A83DB
:104780008983BE016D5F7F4FCE0101960E94DD26B9
:1047900086E492E00E94F51F81110E9494230F90FD
:1047A0000F900F90DF91CF9108951F93CF93DF93D8
:1047B00000D0CDB7DEB781E00E949D261982CE01E0
:1047C00001960E94D526182F1982CE0101960E94CB
:1047D000D52680915B02811139C015FF1DC01A8258
:1047E000CE0102960E94D5268983BE016F5F7F4F5E
:1047F0008CE891E00E94ED22182F1A82CE010296D9
:104800000E94D5268983BE016F5F7F4F8CE891E0BF
:104810000E94ED22182B12C017FF0FC01A82CE0182
:1048200002960E94D5268983BE016F5F7F4F8CE878
:1048300091E00E94ED22182F01C010E080E00E945C
:104840009D26112349F00E946D2306C017FD0E948A
:10485000B12380E00E949D260F900F90DF91CF91B1
:104860001F9108951F93CF93DF9300D000D0CDB751
:10487000DEB70E94A32611E01C831A821982BE01B2
:104880006C5F7F4FCE0101960E94DD2660ED77E0E0
:1048900080E090E00E945B2C1C8388ED90E89A8376
:1048A0008983BE016C5F7F4FCE0101960E94DD2699
:1048B0001C8381E092E89A838983BE016C5F7F4FFD
:1048C000CE0101960E94DD261C838CE296EA9A8333
:1048D0008983BE016C5F7F4FCE0101960E94DD2669
:1048E0001C8387E596EC9A838983BE016C5F7F4FBA
:1048F000CE0101960E94DD261C8380EC94E99A8308
:104900008983BE016C5F7F4FCE0101960E94DD2638
:104910001C838AE292EC9A838983BE016C5F7F4F8D
:10492000CE0101960E94DD261C8381E89AEC9A83D1
:104930008983BE016C5F7F4FCE0101960E94DD2608
:104940001C8384ED9EEC9A838983BE016C5F7F4F4C
:10495000CE0101960E94DD261C8387EB94EC9A839E
:104960008983BE016C5F7F4FCE0101960E94DD26D8
:104970001C8380E298E99A838983BE016C5F7F4F34
:10498000CE0101960E94DD261C8386E69CEC9A836C
:104990008983BE016C5F7F4FCE0101960E94DD26A8
:1049A0001C8380E090EE9A838983BE016C5F7F4F09
:1049B000CE0101960E94DD261C8380E098EC9A834C
:1049C0008983BE016C5F7F4FCE0101960E94DD2678
:1049D0001C8380E090EC9A838983BE016C5F7F4FDB
:1049E000CE0101960E94DD261B838BE197E09F9309
:1049F0008F93CE0103969F938F930E947A0B64EF5F
:104A000071E080E090E00E945B2C40E050E065EDBA
:104A100073E280E00E945B2B0F900F900F900F903D
:104A20000F900F900F900F90DF91CF911F910895ED
:104A3000CF93DF93CDB7DEB72C970FB6F894DEBFD8
:104A40000FBECDBF2BE0E7E0F1E0DE011196019053
:104A50000D922A95E1F7DA012C9111963C9111976C
:104A60001296EC91129713964C914A83EB833C83F8
:104A70002D83FC0180818F83DB018C9188878BE003
:104A80008C8721E0AE01445F5F4FBE016F5F7F4FB7
:104A900086E492E00E941B200E9450232C960FB6C1
:104AA000F894DEBF0FBECDBFDF91CF910895CF92B6
:104AB000DF92EF92FF920F931F93CF93DF9300D07B
:104AC000CDB7DEB78C01FC018081918122813381D9
:104AD00041E049833F932F939F938F9382E497E024
:104AE0009F938F93EE24E394F12CEC0EFD1EFF9226
:104AF000EF920E947A0B9BE4C92EC98221E4D22E48
:104B0000DA82A801B701CE0102960E94182562E35D
:104B100070E080E090E00E945B2CC982DA82A801FC
:104B2000B701CE0102960E9418250FB6F894DEBF99
:104B30000FBECDBF0F900F90DF91CF911F910F91BE
:104B4000FF90EF90DF90CF900895EF92FF920F9338
:104B50001F93CF93DF9300D0CDB7DEB78C01FC015C
:104B6000808191812281338141E049833F932F935A
:104B70009F938F938FE297E09F938F93EE24E3941C
:104B8000F12CEC0EFD1EFF92EF920E947A0B83E552
:104B9000898380E58A83A801B701CE0102960E942D
:104BA00018250FB6F894DEBF0FBECDBF0F900F9043
:104BB000DF91CF911F910F91FF90EF9008950F9388
:104BC0001F93CF93DF938C010F5F1F4F79F0EC01A0
:104BD000C654DF4FC017D10749F0A597E881F98186
:104BE0000190F081E02DCE010995F4CFDF91CF91B6
:104BF0001F910F91089586E492E00E948F1F85E730
:104C000091E090934702809346028CE891E00C94E7
:104C1000D8228CE891E00E94DF2586E492E00C9493
:104C20003F23FC01128680E797E19487838721E088
:104C3000258791838083938382839583848397835D
:104C40008683918780870895FC012285DB018D9101
:104C50009C91DF0132E0239FA00DB11D11248D93A3
:104C60009C93822F8F5F853011F0828701C012865E
:104C700015860895FC01858581111AC08081918176
:104C800022813381820F931F24813581820F931FEC
:104C900026813781820F931F20853185820F931FD4
:104CA00065E070E00E94552D7487638781E08587F9
:104CB0003B96CF0108950C947E2E0C94E32D0C941A
:104CC0007E2E089540E052EC61E070E086E892E0CC
:104CD0000E940F2961E577E086E892E00E94552A5C
:104CE0008CE592E00E94110F62E677E086E892E0A0
:104CF0000C94552A8CE592E00C94201F0E94812C84
:104D00000E9462260E947A26FDCF8CE592E00C94E8
:104D1000DE0E8CE391E0909373028093720282E73F
:104D200092E00E94C40A82E391E09093640280932F
:104D3000630283E692E00C94730A882311F02A98A8
:104D400008952A9A089580E00E949D26229A61E0A3
:104D50008AE00E941E2D61E08DE00E94E62C61E059
:104D60008BE00E94E62C61E08AE00E94E62C60E085
:104D70008CE00E94E62C80E58CBD60E082E00E9421
:104D8000E62C61E082E00E941E2D8DB581608DBD14
:104D90008CB58D7F8CBD8CB581608CBD8CB5877FCB
:104DA0008CBD8CB58B7F8CBD0895FC0180818EBD40
:104DB0000DB407FEFDCF8EB50895CF92DF92EF922E
:104DC000FF920F931F93CF93DF931F92CDB7DEB760
:104DD0007C016B01FB01808181112A98F70181819F
:104DE0008983CE0101960E94D526182F00E0F70195
:104DF00080818983CE0101960E94D526082BF60179
:104E00008081882319F080E00E949D26C8010F90C0
:104E1000DF91CF911F910F91FF90EF90DF90CF9096
:104E20000895CF92DF92EF92FF920F931F93CF934B
:104E3000DF93EC010E941F2C088119812A813B819C
:104E40006017710782079307C8F00E941F2C6056F5
:104E500079478E4F9F4FC880D980EA80FB8020EA37
:104E6000C20E26E8D21E21E0E21EF11C21E06C15E4
:104E70007D058E059F0518F020E001C021E0822FFE
:104E8000DF91CF911F910F91FF90EF90DF90CF9026
:104E90000895BF92CF92DF92EF92FF920F931F93EC
:104EA000CF93DF9300D000D01F92CDB7DEB78C0137
:104EB0006B01FC0110820E941F2C68577C4E8F4FA3
:104EC0009F4F69837A838B839C83B12C86E892E021
:104ED0000E940928892BB9F186E892E00E943828BF
:104EE000482F8F37A1F4BB2071F1BA9468E086E8AF
:104EF00092E00E946C2860E777E086E892E00E94EA
:104F0000172A68E086E892E00E946C281CC0F8012D
:104F1000EB0DF11D8083B394EB2CF12CF801EE0D19
:104F2000FF1D3197608186E892E04D830E94382A08
:104F3000F601208130E0215031094D81E216F3065F
:104F400041F04D3031F0CE0101960E9411278111C0
:104F5000BDCF62E777E086E892E00E94552A86E8B6
:104F600092E00E945A28F801EB0DF11D10820F907B
:104F70000F900F900F900F90DF91CF911F910F9195
:104F8000FF90EF90DF90CF90BF9008950F931F9305
:104F9000CF93DF93CDB7DEB761970FB6F894DEBF3E
:104FA0000FBECDBF8FE0898BBE016F5E7F4FCE01FC
:104FB00001960E9449278981811114C081E0888B64
:104FC00083E797E09F938F93CE0140969F938F93B3
:104FD0000E947A0B0F900F900F900F900FEF1FEF22
:104FE00098010AC040E050E060E070E0CE01019618
:104FF0000E941A2F8B019C01B801C90161960FB65E
:10500000F894DEBF0FBECDBFDF91CF911F910F91FE
:105010000895FC0184859585FC01E05CFF4F2081AB
:105020003181FC01EE5BFF4F80819181281B390BA0
:105030002F733327C9010895FC0184859585FC01F0
:10504000E05CFF4F40815181FC01EE5BFF4F20810E
:1050500031814217530741F00190F081E02DE80FB4
:10506000F91F208130E002C02FEF3FEFC901089502
:10507000FC0184859585FC01E05CFF4F40815181F6
:10508000FC01EE5BFF4F208131814217530771F025
:10509000A081B181A80FB91F2C91808191810196C7
:1050A0008F7399279183808330E002C02FEF3FEF09
:1050B000C9010895FC0186859785FC01E05CFF4FDE
:1050C000DC01AE5BBF4F408151812D913C91119726
:1050D00042175307C1F70895CF93DF93FC0126854C
:1050E0003785D901A05CBF4F8D919C911197019696
:1050F0008F739927E901CE5BDF4F4881598184176F
:105100009507D9F30D90BC91A02DA20FB31F6C93FE
:10511000A685B785A05CBF4F11969C938E93A689F8
:10512000B7892C9181E090E0058C02C0880F991F0F
:105130000A94E2F7282B2C9381E090E0DF91CF9145
:1051400008951F920F920FB60F9211242F933F9341
:105150004F938F939F93EF93FF934091C60080915D
:10516000290390912A0301968F73992720912B038D
:1051700030912C038217930759F0E0912903F091A5
:105180002A03E751FD4F408390932A03809329031C
:10519000FF91EF919F918F914F913F912F910F90A0
:1051A0000FBE0F901F9018951F920F920FB60F927F
:1051B00011242F933F938F939F93EF93FF9320910D
:1051C000E5023091E6028091E7029091E80228170B
:1051D000390731F48091C1008F7D8093C10014C0E4
:1051E000E091E702F091E802EB55FD4F20818091BC
:1051F000E7029091E80201968F7399279093E80255
:105200008093E7022093C600FF91EF919F918F91C9
:105210003F912F910F900FBE0F901F901895CF9236
:10522000DF92EF92FF92CF93DF93EC016A017B0153
:10523000411581EE580761057105F9F0EC89FD898A
:1052400081E090E00E8C02C0880F991F0A94E2F76B
:10525000808360E079E08DE390E0A70196010E94F1
:10526000692D2150310941095109569547953795C6
:105270002795211580E1380798F0EC89FD89108287
:1052800060E874E88EE190E0A70196010E94692D24
:105290002150310941095109569547953795279570
:1052A000E889F9893083EA89FB892083EE89FF89BF
:1052B000408181E090E09C010A8C02C0220F331FE4
:1052C0000A94E2F7422B4083EE89FF8940819C01DA
:1052D0000B8C02C0220F331F0A94E2F7422B40834B
:1052E000EE89FF8940819C010C8C02C0220F331F84
:1052F0000A94E2F7422B4083EE89FF8920810D8CCE
:1053000002C0880F991F0A94E2F780958223808358
:10531000DF91CF91FF90EF90DF90CF9008951092A2
:1053200089021092880288EE93E0A0E0B0E08093BA
:105330008A0290938B02A0938C02B0938D028FE728
:1053400091E0909387028093860289EE92E0909399
:1053500093028093920285EA92E090939502809363
:10536000940285EC90E0909397028093960284ECEF
:1053700090E0909399028093980280EC90E0909353
:105380009B0280939A0281EC90E090939D0280931F
:105390009C0286EC90E090939F0280939E0284E0B2
:1053A0008093A00283E08093A10287E08093A20211
:1053B00085E08093A30281E08093A4020895CF92B8
:1053C000DF92EF92FF920F931F93CF93DF936C01C5
:1053D000EB017A01E60EF71E00E010E00BC06991C8
:1053E000D601ED91FC910190F081E02DC601099567
:1053F000080F191FCE15DF0591F7C801DF91CF9176
:105400001F910F91FF90EF90DF90CF900895DB01F7
:105410000D900020E9F7AD0141505109461B570B93
:10542000DC01ED91FC910280F381E02D0994EF9273
:10543000FF920F931F93CF93DF937C01EB0100E06A
:1054400010E0FE0121966491662351F0F701A081DE
:10545000B181ED91FC91C7010995080F191FF1CF9A
:10546000C801DF91CF911F910F91FF90EF900895A8
:10547000DC01ED91FC910190F081E02D09940F93F6
:105480001F93CF93DF93EC016DE00E94382A8C01CB
:105490006AE0CE010E94382A9C01200F311FC90109
:1054A000DF91CF911F910F9108950F931F93CF9389
:1054B000DF93EC010E94172A8C01CE010E943F2A43
:1054C0009C01200F311FC901DF91CF911F910F91D6
:1054D00008950F931F93CF93DF93EC010E94072A47
:1054E0008C01CE010E943F2A9801280F391FC90163
:1054F000DF91CF911F910F9108955F926F927F92EC
:105500008F929F92AF92BF92CF92DF92EF92FF92D3
:105510000F931F93CF93DF93CDB7DEB7A1970FB64D
:10552000F894DEBF0FBECDBF3C016A017B01522E55
:1055300019A281E0821710F08AE0582E8E010F5DCB
:105540001F4F852C912CA12CB12CC701B601A501B0
:1055500094010E94692D8C2D529E801911240150B6
:1055600011098A3010F4805D01C0895CF8018083E4
:1055700069017A01C114D104E104F10431F7B801E1
:10558000C3010E94072AA1960FB6F894DEBF0FBE92
:10559000CDBFDF91CF911F910F91FF90EF90DF90E2
:1055A000CF90BF90AF909F908F907F906F905F90C3
:1055B00008952115310541F4DC01ED91FC91019034
:1055C000F081E02D642F09940C947D2A0F931F9392
:1055D000CF93DF93EC010E94D92A8C01CE010E9467
:1055E0003F2A9C01200F311FC901DF91CF911F91EC
:1055F0000F9108959A01AB0160E070E00C94D92AF4
:105600009A01462F50E060E070E00C94D92ACF92C6
:10561000DF92EF92FF920F931F93CF93DF93EC01F2
:105620006A017B012115310579F4E881F981019046
:10563000F081E02D642FDF91CF911F910F91FF90AA
:10564000EF90DF90CF9009942A30310519F477FD5F
:105650000EC02AE0B701A601CE01DF91CF911F91C4
:105660000F91FF90EF90DF90CF900C947D2A6DE228
:105670000E94382A8C0144275527BA014C195D092C
:105680006E097F092AE0CE010E947D2A9C01200F2D
:10569000311FC901DF91CF911F910F91FF90EF90C2
:1056A000DF90CF9008959A01AB01662757FD609572
:1056B000762F0C94072B8230E8F4E82FF0E0EE0F01
:1056C000FF1FE35DFC4F71836083813041F0809167
:1056D00069008C7F842B80936900E89A08958091FB
:1056E0006900440F551F440F551F837F842B8093FF
:1056F0006900E99A08951F920F920FB60F92112434
:105700002F933F934F935F936F937F938F939F93C9
:10571000AF93BF93EF93FF9380912D0390912E034E
:10572000892B29F0E0912D03F0912E030995FF912B
:10573000EF91BF91AF919F918F917F916F915F9109
:105740004F913F912F910F900FBE0F901F90189582
:105750001F920F920FB60F9211242F933F934F93E6
:105760005F936F937F938F939F93AF93BF93EF93C9
:10577000FF9380912F0390913003892B29F0E091C2
:105780002F03F09130030995FF91EF91BF91AF91F5
:105790009F918F917F916F915F914F913F912F9149
:1057A0000F900FBE0F901F9018951F920F920FB67B
:1057B0000F9211242F933F938F939F93AF93BF9397
:1057C0008091310390913203A0913303B09134035F
:1057D00030913903232F2D5F2D3720F40196A11D21
:1057E000B11D05C0232F2A570296A11DB11D20937C
:1057F00039038093310390933203A0933303B09322
:1058000034038091350390913603A0913703B09112
:1058100038030196A11DB11D809335039093360383
:10582000A0933703B0933803BF91AF919F918F91AD
:105830003F912F910F900FBE0F901F9018950F93CF
:105840001F938FB7F8940091310310913203209188
:105850003303309134038FBFB801C9011F910F91F9
:1058600008950F931F939FB7F894009135031091FB
:105870003603209137033091380386B5A89B06C0C4
:105880008F3F21F00F5F1F4F2F4F3F4F9FBF322F92
:10589000212F102F0027080F111D211D311D42E05F
:1058A000000F111F221F331F4A95D1F7B801C901FC
:1058B0001F910F910895CF92DF92EF92FF92CF93B5
:1058C000DF936B017C010E94312CEB010EC00E9422
:1058D000312C6C1B7D0B683E734038F081E0C81A98
:1058E000D108E108F108C851DC4FC114D104E1042A
:1058F000F10469F7DF91CF91FF90EF90DF90CF90A7
:105900000895789484B5826084BD84B5816084BD37
:1059100085B5826085BD85B5816085BDEEE6F0E028
:10592000808181608083E1E8F0E010828081826084
:105930008083808181608083E0E8F0E08081816005
:105940008083E1EBF0E0808184608083E0EBF0E035
:10595000808181608083EAE7F0E0808184608083D9
:105960008081826080838081816080838081806883
:1059700080831092C1000895833069F028F481304B
:10598000A1F0823011F514C08630B1F08730C1F03B
:105990008430D9F404C0809180008F7703C0809157
:1059A00080008F7D80938000089584B58F7702C03A
:1059B00084B58F7D84BD08958091B0008F7703C03A
:1059C0008091B0008F7D8093B0000895CF93DF93D6
:1059D00090E0FC01E157F84F4491FC01ED55F84F80
:1059E0008491882341F190E0880F991FFC01EF53C7
:1059F000F84F25913491D9018954984FFC01859134
:105A00009491C82FD92F9FB7F8948C91611106C03B
:105A1000409584238C938881842308C0623041F4AC
:105A2000242F209582238C938881842B888302C025
:105A3000842B8C939FBFDF91CF9108950F931F9379
:105A4000CF93DF931F92CDB7DEB7282F30E0F90157
:105A5000E558F84F8491F901E157F84F1491F90195
:105A6000ED55F84F04910023D1F0882321F069838C
:105A70000E94BC2C6981E02FF0E0EE0FFF1FE9547B
:105A8000F84F85919491DC019FB7F8948C91611146
:105A900003C01095812301C0812B8C939FBF0F9071
:105AA000DF91CF911F910F910895AA1BBB1B51E16C
:105AB00007C0AA1FBB1FA617B70710F0A61BB70B7E
:105AC000881F991F5A95A9F780959095BC01CD0123
:105AD0000895A1E21A2EAA1BBB1BFD010DC0AA1F2F
