:100000000C9460000C94BE1C0C94EB1C0C948800A7
:100010000C9488000C9488000C9488000C94880040
:100020000C9488000C9488000C9488000C94880030
:100030000C9488000C9488000C9488000C94880020
:100040000C94181D0C9488000C946B1A0C949E1A36
:100050000C9488000C9488000C9488000C94880000
:100060000C9488000C948800000000070002010036
:100070000003040600000000000000000102040864
:100080001020408001020408102001020408102002
:10009000040404040404040402020202020203032E
:1000A0000303030300000000250028002B000000CC
:1000B0000000240027002A00A818DA18591BDE18AF
:1000C00011241FBECFEFD8E0DEBFCDBF13E0A0E00C
:1000D000B1E0E6E0F3E402C005900D92AC33B10765
:1000E000D9F714E0ACE3B3E001C01D92A23EB10722
:1000F000E1F710E0CEEBD0E004C02297FE010E94B1
:10010000F31EC83BD107C9F70E94D3180C9476217F
:100110000C940000CF92DF92EF92FF920F931F9307
:100120006B017C0120E030E040E05FE40E94ED03E1
:1001300087FD0EC020E030E040E05FE4C701B6017B
:100140000E9435020E9478048B019C01305806C041
:10015000C701B6010E9478048B019C01B801C90156
:100160001F910F91FF90EF90DF90CF900895A0E046
:10017000B0E0EDEBF0E00C94BE1E3C01CB01EA01D7
:10018000D3012C91223008F43EC1FB013081323082
:1001900008F436C1243071F4343009F034C11196BA
:1001A0002C918181281709F42EC1B1E16B2EB1E0A9
:1001B0007B2E29C1343009F423C1323091F422302E
:1001C00009F021C128E0F301DA0101900D922A958E
:1001D000E1F7DB0111968C91F301918189238983E9
:1001E00011C1223009F40CC1D3011296ED91FC919A
:1001F0001397DB0112966D917C911397D30114969E
:100200000D911D912D913C911797DC011496CD9085
:10021000DD90ED90FC901797AF01461B570BDA016C
:1002200057FF04C0AA27BB27A41BB50BA032B105FA
:100230000CF065C0141615067CF5B701A6010A2E50
:1002400004C076956795579547950A94D2F7812C07
:10025000912C5401839404C0880C991CAA1CBB1CCB
:10026000AA95D2F7B1E08B1A9108A108B1088C20A9
:100270009D20AE20BF20C12CD12C7601C3948114C7
:100280009104A104B10419F4C12CD12C7601C42A23
:10029000D52AE62AF72A3EC0452BE1F1EA0FFB1FDB
:1002A000B901A8010A2E04C0769567955795479520
:1002B0000A94D2F7812C912C5401839404C0880CA9
:1002C000991CAA1CBB1CAA95D2F7A1E08A1A910816
:1002D000A108B10880229122A222B32201E010E0FD
:1002E00020E030E081149104A104B10419F400E08D
:1002F00010E09801042B152B262B372B0BC06E1703
:100300007F0724F4C12CD12C760104C0FB0100E04E
:1003100010E09801D30111964C91DC0111968C915B
:10032000481709F442C0442349F0D701C601801B95
:10033000910BA20BB30B8C019D0104C00C191D097C
:100340002E093F0937FD04C01982FB83EA830BC0E5
:1003500081E08983FB83EA83309520951095019590
:100360001F4F2F4F3F4F0C831D832E833F830DC0A4
:10037000880F991FAA1FBB1F8C839D83AE83BF83E9
:100380008A819B8101979B838A838C819D81AE8129
:10039000BF818C019D0101501109210931090F3FD5
:1003A0001F4F2F4F3F4320F30BC04983FB83EA834A
:1003B0000C0D1D1D2E1D3F1D0C831D832E833F83A1
:1003C00083E088830C811D812E813F8137FF1AC015
:1003D000D901C80181709927AA27BB27369527958F
:1003E00017950795802B912BA22BB32B8C839D8384
:1003F000AE83BF838A819B8101969B838A8302C0DF
:100400003C0101C03E01C301CDB7DEB7EEE00C9464
:10041000DA1EA0E2B0E0EFE0F2E00C94CA1E6D8FAD
:100420007E8F8F8F98A3298F3A8F4B8F5C8FBE0161
:100430006F5E7F4FCE014D960E94FE05BE01675F45
:100440007F4FCE0149960E94FE05AE014F5F5F4F80
:10045000BE01675F7F4FCE0141960E94B7000E94A8
:100460003D05A096E2E00C94E61EA0E2B0E0EBE3CE
:10047000F2E00C94CA1E6D8F7E8F8F8F98A3298F08
:100480003A8F4B8F5C8FBE016F5E7F4FCE014D96D2
:100490000E94FE05BE01675F7F4FCE0149960E9414
:1004A000FE058A8591E089278A87AE014F5F5F4FFD
:1004B000BE01675F7F4FCE0141960E94B7000E9448
:1004C0003D05A096E2E00C94E61EA0E2B0E0EBE66B
:1004D000F2E00C94BC1E6D8F7E8F8F8F98A3298FB6
:1004E0003A8F4B8F5C8FBE016F5E7F4FCE014D9672
:1004F0000E94FE05BE01675F7F4FCE0149960E94B4
:10050000FE059989923008F412C08985823008F47A
:100510001AC0943021F4823009F4B4C008C0843089
:1005200021F4923009F4AEC00EC0923051F481E053
:100530002A899A85291301C080E08A8BCE014196D1
:10054000A3C0823051F481E02A899A85291301C021
:1005500080E08A87CE01099697C08D889E88AF88F3
:10056000B88C0D851E852F853889E0E2F0E080E0AB
:1005700090E0DC01C12CD12C760140E050E0BA01C2
:1005800080FE18C0400F511F621F731F8C0D9D1DF0
:10059000AE1DBF1D412C512C320143944017510711
:1005A0006207730718F0412C512C3201840D951D00
:1005B000A61DB71DCC0CDD1CEE1CFF1C37FF02C0B6
:1005C0006894C0F8000F111F221F331FB694A79420
:1005D000979487943197A1F62B893C89EB85FC850C
:1005E0002E0F3F1F2E5F3F4F3C832B8321E0EA8974
:1005F0003A85E31301C020E02A83EB81FC810CC023
:1006000080FF05C076956795579547957068B695B4
:10061000A795979587953196B7FDF2CF9F010CC0AE
:10062000880F991FAA1FBB1F77FD8160440F551FBC
:10063000661F771F215031090097A105E0E4BE072E
:1006400078F32B833C838C019D010F7711272227A0
:100650003327003411052105310559F487FD09C000
:10066000452B462B472B29F0805C9F4FAF4FBF4F48
:1006700080788D839E83AF83B88783E08983CE01A2
:10068000019602C081E191E00E943D05A096E0E163
:100690000C94D81EA8E1B0E0E0E5F3E00C94C41E91
:1006A0006D8B7E8B8F8B988F298B3A8B4B8B5C8BD2
:1006B000BE01675F7F4FCE0145960E94FE05BE01D9
:1006C0006F5F7F4FCE0141960E94FE059985923063
:1006D00008F475C08981823008F474C02A853A8193
:1006E00023272A87943011F0923019F4981367C0A9
:1006F0006CC0843039F41D861E861F86188A1C86BD
:100700001B8604C0823029F484E08987CE010996D3
:100710005EC08B859C852B813C81821B930B9C87C3
:100720008B874D855E856F857889CD80DE80EF80F3
:10073000F8844C155D056E057F0538F4440F551F90
:10074000661F771F01979C878B87EFE1F0E000E041
:1007500010E020E030E480E090E0DC014C155D0525
:100760006E057F0540F0802B912BA22BB32B4C19EB
:100770005D096E097F093695279517950795440FF2
:10078000551F661F771F319749F78C019D010F7721
:10079000112722273327003411052105310559F48B
:1007A00087FD09C0452B462B472B29F0805C9F4FC6
:1007B000AF4FBF4F80788D879E87AF87B88BCE01B4
:1007C000099605C0CE01019602C081E191E00E9428
:1007D0003D056896E8E00C94E01EA8E1B0E0E3EF88
:1007E000F3E00C94CA1E6D8B7E8B8F8B988F298BB8
:1007F0003A8B4B8B5C8BBE01675F7F4FCE0145967A
:100800000E94FE05BE016F5F7F4FCE0141960E94A0
:10081000FE058985823058F08981823040F0BE0122
:100820006F5F7F4FCE0109960E946D0601C08FEF6A
:100830006896E2E00C94E61EA8E0B0E0E2E2F4E0A4
:100840000C94C81E23E029838B019C01002737FDEF
:100850000395112722273327402F0A83611571053D
:100860008105910519F482E0898335C02EE130E0DD
:100870003C832B83442371F061157105810520E8C9
:10088000920771F1002711279801061B170B280BFF
:10089000390B02C08B019C01C901B8010E94F71EEF
:1008A0000197181619062CF00D831E832F833887A5
:1008B00012C0082E04C0000F111F221F331F0A94FC
:1008C000D2F70D831E832F8338872EE130E0281B5B
:1008D000390B3C832B83CE0101960E943D0504C059
:1008E00060E070E080E09FEC2896E4E00C94E41E69
:1008F000ACE0B0E0EEE7F4E00C94C81E69877A87BC
:100900008B879C87BE016F5F7F4FCE0109960E9447
:10091000FE058981823091F1823080F1843041F48A
:100920008A81882331F100E010E020E030E829C01E
:100930002B813C8137FD22C02F3131058CF78EE1B0
:1009400090E0821B930B0D811E812F81388504C09E
:1009500036952795179507958A95D2F78A8188232A
:1009600081F030952095109501951F4F2F4F3F4FE7
:1009700008C00FEF1FEF2FEF3FE703C000E010E0CC
:100980009801B801C9012C96E4E00C94E41EA8E09B
:10099000B0E0EDECF4E00C94C41E8B019C011A82D3
:1009A000611571058105910519F482E089835DC0A7
:1009B00083E089834EE150E05C834B83C901B80139
:1009C0000E94F71E019797FF39C0EE27FF27E81B0B
:1009D000F90B41E050E060E070E00E2E04C0440FDF
:1009E000551F661F771F0A94D2F7415051096109BC
:1009F00071094023512362237323C12CD12C76012A
:100A0000C394452B462B472B19F4C12CD12C7601CE
:100A100004C03695279517950795EA95D2F70C29C6
:100A20001D292E293F290D831E832F8338872EE110
:100A300030E0281B390B3C832B8317C0009729F427
:100A40000D831E832F83388710C0082E04C0000F2B
:100A5000111F221F331F0A94D2F70D831E832F8389
:100A60003887481B590B5C834B83CE0101960E944B
:100A70003D052896E8E00C94E01E0F931F93CF935A
:100A8000FC014481558166817781C18180818230FA
:100A900020F460618FEF90E0A3C0843009F49BC024
:100AA000823009F492C0411551056105710509F4C0
:100AB0008FC02281338122388FEF38070CF057C066
:100AC000E2E8FFEFE21BF30BEA31F10564F58A017E
:100AD0009B010E2E04C036952795179507950A940D
:100AE000D2F781E090E0A0E0B0E004C0880F991F49
:100AF000AA1FBB1FEA95D2F70197A109B109842368
:100B00009523A623B72341E050E060E070E0892BF5
:100B10008A2B8B2B19F440E050E0BA01402B512B6B
:100B2000622B732B03C040E050E0BA01DB01CA0125
:100B30008F779927AA27BB2780349105A105B10596
:100B400039F447FF09C0405C5F4F6F4F7F4F04C0CF
:100B5000415C5F4F6F4F7F4F81E090E04115510541
:100B6000610520E4720748F580E090E026C0203857
:100B700031058CF5DB01CA018F779927AA27BB279E
:100B800080349105A105B10539F447FF09C0405CE7
:100B90005F4F6F4F7F4F04C0415C5F4F6F4F7F4F80
:100BA00077FD04C0C90181589F4F07C076956795AE
:100BB00057954795C90180589F4F97E0769567955F
:100BC000579547959A95D1F70BC080E090E005C006
:100BD00080E090E005C08FEF90E040E050E0BA0187
:100BE000982F9695C0FB97F9362F80FB37F9642F25
:100BF000752F832FCF911F910F910895CF92DF9280
:100C0000EF92DC01FB01CC901196DC9011971296CB
:100C10008C9112973FE7E32EE8226E2DA60170E03B
:100C2000982F991F9927991F13962C91822F880F1F
:100C3000892B90E027FB222720F92183009729F5B3
:100C4000411551056105710511F482E027C082E864
:100C50009FEF9383828327E0440F551F661F771F02
:100C60002A95D1F783E0808309C0440F551F661F82
:100C7000771F828193810197938382834115510568
:100C8000610580E4780788F320C08F3F910579F4EF
:100C9000411551056105710519F484E0808319C07F
:100CA000E4FE03C081E0808310C010820EC08F5725
:100CB00091099383828383E0808387E0440F551FEB
:100CC000661F771F8A95D1F77064448355836683C6
:100CD0007783EF90DF90CF900895CF93FC01DB01F5
:100CE0009081923008F452C08C91823008F44EC04A
:100CF000943071F4843039F411962C9130E0818174
:100D0000281B310948C08181882309F43FC03BC0BA
:100D1000843029F411968C91811138C034C09230FE
:100D200019F48230B9F735C0823069F3C181119668
:100D30008C911197C8131DC02281338112968D9119
:100D40009C911397821793070CF413C02817390747
:100D50000CF417C0448155816681778114968D917A
:100D60009D910D90BC91A02D84179507A607B707FC
:100D700018F4C11108C00AC0481759076A077B0751
:100D800040F4C11103C02FEF3FEF05C021E030E078
:100D900002C020E030E0C901CF91089526E731E09C
:100DA000FC0131832083089526E731E0FC01318383
:100DB0002083089526E731E0FC01318320830C94E1
:100DC000B01826E731E0FC01318320830C94B01881
:100DD0000F931F93CF93DF938C018EE991E0F8017D
:100DE0009183808382819381009719F1FC0132976E
:100DF0002081318141E1429FE001439FD00D1124C8
:100E0000C80FD91FCE01F801228133816197821763
:100E1000930741F0E881F9810190F081E02DCE0146
:100E20000995F0CF0297DF91CF911F910F910C940C
:100E3000B418DF91CF911F910F910895CF93DF9355
:100E4000EC010E94E806CE01DF91CF910C94B0181E
:100E50002AE831E0FC01318320830C94E806CF932B
:100E6000DF93EC010E942807CE01DF91CF910C9413
:100E7000B0180F931F93CF93DF938C0188EA91E012
:100E8000F8019183808382819381009719F1FC019D
:100E900032972081318146E0429FE001439FD00D8F
:100EA0001124C80FD91FCE01F80122813381269762
:100EB0008217930741F0E881F9810190F081E02DDC
:100EC000CE010995F0CF0297DF91CF911F910F913D
:100ED0000C94B418DF91CF911F910F910895CF9387
:100EE000DF93EC010E943907CE01DF91CF910C9482
:100EF000B01824E931E0FC01318320830C943907D8
:100F0000CF93DF93EC010E947907CE01DF91CF915F
:100F10000C94B01869E171E088E294E00C94E11B54
:100F200061E271E088E294E00C94E11BCF93DF93DF
:100F3000EC0168E271E088E294E00E94E11B4A81E2
:100F40005B816C817D812AE030E088E294E00E9440
:100F5000701C6EE271E088E294E00E94E11B4D8516
:100F60005E856F8578892AE030E088E294E00E940F
:100F7000701C61E471E088E294E00E94E11B4AE0A9
:100F800050E06C8588E294E00E94971C68E571E06F
:100F900088E294E00E94E11B4E815F81688579853B
:100FA0002AE030E088E294E00E94701C60E671E084
:100FB00088E294E00E94E11B6A857B854AE050E06C
:100FC00088E294E00E94911C66EF72E088E294E06F
:100FD000DF91CF910C94001CCF93DF93EC0168E27A
:100FE00071E088E294E00E94E11B4A815B816C81A0
:100FF0007D812AE030E088E294E00E94701C66EF78
:1010000072E088E294E0DF91CF910C94001C26E717
:1010100031E0FC01318320834FEF5FEFBA0142835F
:10102000538364837583089526E731E0FC0131839F
:101030002083FB014081518162817381FC014283E5
:101040005383648375830895FC014FEF5FEFBA010A
:10105000428353836483758380E891E09183808326
:10106000468357836087718780E797E193878287FC
:101070001486158616861786108A0895FC01DB01F2
:101080004D915D916D917C9142835383648375830F
:1010900080E891E0918380834FEF5FEFBA01468350
:1010A00057836087718780E797E1938782871486EB
:1010B000158616861786108A0895EF92FF920F9371
:1010C0001F93CF93DF93EC017B014D855E856F8588
:1010D0007889452B462B472B09F1C7010E941A1628
:1010E000FC0160817181828193810D851E852F8530
:1010F0003889601B710B820B930B2C8530E040E02C
:1011000050E00E94981E3B872A8724543641293597
:10111000324020F080E797E19B878A87C7010E94D1
:101120001A16FC0140815181628173818A859B85F9
:10113000480F591F611D711D4E835F836887798732
:1011400081E08C87C7010E941A16FC014081518101
:10115000628173814D875E876F87788BDF91CF9136
:101160001F910F91FF90EF900895CF92DF92EF9231
:10117000FF92CF93DF93EC01CE80DF80E884F98487
:101180000E94621DC616D706E806F90638F44FEF2E
:101190005FEFBA014E835F83688779872696CE0119
:1011A000DF91CF91FF90EF90DF90CF900895FC01F9
:1011B000828593854681578160857185480F591FC7
:1011C000611D711D468357836087718784858F5F9A
:1011D00084870895CF92DF92EF92FF921F93CF936F
:1011E000DF93EC0110E024C08A819B8121E1129FF2
:1011F000800D911D11240E94B508FC01C080D18092
:10120000E280F3802D818A819B81F1E12F9F800D07
:10121000911D11240E94B508FC0140815181628119
:101220007381C416D506E606F70608F41D831F5F12
:101230008C811817C8F22D818A819B81F1E12F9F43
:10124000800D911D1124DF91CF911F91FF90EF90A0
:10125000DF90CF900C94B508FC0185818F5F85836A
:101260009481891301C015820895FC0181E0818376
:101270004FEF5FEFBA0142835383648375838683A4
:101280001286118613861486158616861786108A8E
:10129000118A128A138A148A8AE891E090878783D8
:1012A000108E178A118E128E138E148E158E168E36
:1012B000178E10A211A212A284E991E0968B858B61
:1012C00013A214A215A216A217A208950E944C17E9
:1012D0000C94AE161F93CF93DF93EC016EEA71E08E
:1012E00088E294E00E94001C62EB71E088E294E0E6
:1012F0000E94E11BE881F9810480F581E02DCE0197
:10130000099564EB71E088E294E00E94001C10E013
:1013100017C0112331F067EB71E088E294E00E947E
:10132000E11B8A819B8121E1129F800D911D112477
:10133000DC01ED91FC910480F581E02D09951F5FA2
:101340008C81181730F366EF72E088E294E0DF9149
:10135000CF911F910C94001C1F93CF93DF93EC014E
:101360006EEA71E088E294E00E94001C62EB71E09A
:1013700088E294E00E94E11BE881F9810480F58114
:10138000E02DCE01099564EB71E088E294E00E94C3
:10139000001C10E017C0112331F067EB71E088E208
:1013A00094E00E94E11B8A819B8126E0129F800DC0
:1013B000911D1124DC01ED91FC910480F581E02D5B
:1013C00009951F5F8C81181730F366EF72E088E291
:1013D00094E0DF91CF911F910C94001C2F923F92CB
:1013E0004F925F926F927F928F929F92AF92BF9235
:1013F000CF92DF92EF92FF920F931F93CF93DF93E1
:1014000000D01F92CDB7DEB71C018B015B834A83EE
:10141000FB0180819181A281B381F101C680D780D7
:10142000E084F1848C159D05AE05BF0518F4DA0142
:101430001C92B1C0F10182849384A484B584F481A8
:10144000F98388169906AA06BB0620F4AA81BB81F7
:10145000FC93A1C0F981F23008F484C0BC01CD0135
:101460006C197D098E099F090E94C7042B013C015C
:10147000C501B4016C197D098E099F090E94C7043A
:101480009B01AC01C301B2010E944A036B017C01C4
:101490002981622F70E061507109882777FD80955E
:1014A000982F0E941C049B01AC01C701B6010E9449
:1014B00065020E948A00AA81BB816C93F10184813C
:1014C000681708F08C93AA81BB818C918823C9F09E
:1014D000D1011296ED91FC911397B1E18B9FE00D34
:1014E000F11D112482809380A480B580F801C08012
:1014F000D180E280F380C814D904EA04FB0408F424
:101500004CC0AA81BB812C91F1013481D801CD90CE
:10151000DD90ED90FC90B1E12B9FC00111242317C9
:1015200090F0D1011296ED91FC911397E80FF91FFD
:1015300081E042815381648175814C155D056E05A2
:101540007F05A9F128C00280F381E02DE80FF91F83
:1015500082809380A480B5808C149D04AE04BF0467
:1015600008F1DFCFE981E130B1F4F101228133816B
:101570002115310509F03901F301C280D380E480DF
:10158000F5808C159D05AE05BF0529F4AA81BB81A8
:101590001C9281E00CC080E00AC08150EA81FB818E
:1015A000808391CF2F5FAA81BB812C93AACF0F900C
:1015B0000F900F90DF91CF911F910F91FF90EF90BF
:1015C000DF90CF90BF90AF909F908F907F906F9063
:1015D0005F904F903F902F9008954F925F926F923F
:1015E0007F928F929F92AF92BF92CF92DF92EF92B3
:1015F000FF920F931F93CF93DF93CDB7DEB7629720
:101600000FB6F894DEBF0FBECDBF7C015B011A8A16
:10161000AE014E5E5F4F0E94EE09882311F080E01C
:1016200040C1D70114966C90712C4301BFEF8B1A07
:101630009B0A21E1289DC001299D900D112402964D
:101640000E94B2188C01FC01819291926F01812C51
:10165000912CC6010E942408FFEF8F1A9F0A21E1F6
:10166000C20ED11CC30188199909019691F748014E
:1016700082E0880E911C8114910489F23A896701F5
:1016800092E0C90ED11CF80120E033C0CF01801BCD
:10169000910BD6016D907C90680E791ED301129645
:1016A0004D915D916D917C9115974483558366832F
:1016B000778316964D915D916D917C911997408736
:1016C0005187628773871A968D919C911B97958796
:1016D00084871C968C911C9786871D964D915D91F1
:1016E0006D917C9150974787508B618B728B2F5FE8
:1016F00071962313CBCFB501CE0101960E943E080F
:101700008A89F401B1E18B9FE00DF11D11244B8119
:101710005C816D817E8142835383648375834F81B5
:10172000588569857A8546835783608771878B855D
:101730009C85938782878D8584874E855F856889A0
:101740007989458756876787708BCE0101960E94FD
:10175000D4068A89F7017480781A282F2F5FF1E167
:101760002F9F90011124F801E20FF31F41E1849FA4
:10177000C0011124801B910B821B930B10E033C01E
:101780009F01280F391FD6014D905C90420E531EC9
:10179000D20112964D915D916D917C911597448384
:1017A00055836683778316964D915D916D917C91FB
:1017B000199740875187628773871A962D913C91BC
:1017C0001B97358724871C962C911C9726871D967E
:1017D0004D915D916D917C9150974787508B618BB6
:1017E000728B1F5F71961711CBCFF70182819381A6
:1017F000009719F1FC0132972081318141E1429F2C
:101800008001439F100D1124080F191FC801D70133
:1018100012962D913C91139701511109821793074C
:1018200049F0D801ED91FC910190F081E02DC801C3
:101830000995ECCF02970E94B418F7019382828237
:1018400084818F5F8483D5014D915D916D917C91F1
:10185000813049F44287538764877587468357836D
:10186000608771871EC0F701028513852485358541
:10187000041715072607370728F44287538764871C
:1018800075870EC0F70106811781208531854017C5
:1018900051076207730720F4468357836087718777
:1018A00081E062960FB6F894DEBF0FBECDBFDF9128
:1018B000CF911F910F91FF90EF90DF90CF90BF904D
:1018C000AF909F908F907F906F905F904F90089512
:1018D0000F931F93CF93DF9300D000D0CDB7DEB727
:1018E0008C0169EB71E088E294E00E94E11BD80171
:1018F000ED91FC910480F581E02DC801099564EC1F
:1019000071E088E294E00E94001C0E94AF19698394
:101910007A838B839C83BE016F5F7F4FC8010E94D7
:10192000ED0A882319F06EEA71E002C060ED71E003
:1019300088E294E00E94E11B68ED71E088E294E0A7
:101940000E94E11BD801ED91FC910480F581E02D0E
:10195000C801099549815A816B817C812AE030E078
:1019600088E294E00E947D1C0F900F900F900F90E2
:10197000DF91CF911F910F9108952F923F924F9237
:101980005F926F927F928F929F92AF92BF92CF920F
:10199000DF92EF92FF920F931F93CF93DF9300D0CC
:1019A0001F92CDB7DEB71C018B015B834A83FB011D
:1019B00080819181A281B381F101C680D780E084CA
:1019C000F1848C159D05AE05BF0518F4DA011C9253
:1019D000B1C0F10182849384A484B584F481F98335
:1019E00088169906AA06BB0620F4AA81BB81FC933F
:1019F000A1C0F981F23008F484C0BC01CD016C199A
:101A00007D098E099F090E94C7042B013C01C50175
:101A1000B4016C197D098E099F090E94C7049B01BE
:101A2000AC01C301B2010E944A036B017C01298110
:101A3000622F70E061507109882777FD8095982F9B
:101A40000E941C049B01AC01C701B6010E94650203
:101A50000E948A00AA81BB816C93F101848168177E
:101A600008F08C93AA81BB818C918823C9F0D101A5
:101A70001296ED91FC911397B6E08B9FE00DF11D4E
:101A8000112482809380A480B580F801C080D18029
:101A9000E280F380C814D904EA04FB0408F44CC0C3
:101AA000AA81BB812C91F1013481D801CD90DD90C8
:101AB000ED90FC90B6E02B9FC0011124231790F00D
:101AC000D1011296ED91FC911397E80FF91F81E077
:101AD00042815381648175814C155D056E057F05DA
:101AE000A9F128C00280F381E02DE80FF91F828060
:101AF0009380A480B5808C149D04AE04BF0408F1CB
:101B0000DFCFE981E130B1F4F10122813381211588
:101B1000310509F03901F301C280D380E480F580FA
:101B20008C159D05AE05BF0529F4AA81BB811C92C9
:101B300081E00CC080E00AC08150EA81FB81808393
:101B400091CF2F5FAA81BB812C93AACF0F900F90CA
:101B50000F90DF91CF911F910F91FF90EF90DF9049
:101B6000CF90BF90AF909F908F907F906F905F903D
:101B70004F903F902F9008956F927F928F929F92F7
:101B8000AF92BF92CF92DF92EF92FF920F931F938B
:101B9000CF93DF93CDB7DEB727970FB6F894DEBFAC
:101BA0000FBECDBF7C015B011F82AE01495F5F4F5D
:101BB0000E94BD0C882311F080E0E9C0D701149683
:101BC0006C90712C4301BFEF8B1A9B0A26E0289D75
:101BD000C001299D900D112402960E94B2188C011B
:101BE000FC01819291926F01812C912CC6010E947F
:101BF0000708FFEF8F1A9F0A26E0C20ED11CC3010F
:101C000088199909019691F76801B2E0CB0ED11CB1
:101C1000C114D10489F23F814701E2E08E0E911C8C
:101C2000F80120E015C0CF01801B910BD4014D912C
:101C30005C91480F591FDA0112964D915D916D919B
:101C40007C91159744835583668377832F5F3696FF
:101C50002313E9CFB501CE0101960E9414088F81AC
:101C60004B815C816D817E81F601B6E08B9FE00D3A
:101C7000F11D11244283538364837583CE01019641
:101C80000E94CE062F81F7017480721A822F8F5F17
:101C9000F6E02F9F9001112496E0899F000D111D01
:101CA000112480E090E0612C14C0D401ED91FC91EE
:101CB000E80FF91FE20FF31F4281538164817581A0
:101CC000F801E80FF91F4483558366837783639493
:101CD00006966710EACFF70182819381009719F188
:101CE000FC0132972081318146E0429F8001439F71
:101CF000100D1124080F191FC801D70112962D913C
:101D00003C911397065011098217930749F0D801A7
:101D1000ED91FC910190F081E02DC8010995ECCF87
:101D200002970E94B418F701D382C28284818F5F28
:101D30008483D5014D915D916D917C91813049F401
:101D40004287538764877587468357836087718787
:101D50001EC0F701028513852485358504171507F4
:101D60002607370728F442875387648775870EC094
:101D7000F7010681178120853185401751076207D9
:101D8000730720F4468357836087718781E0279625
:101D90000FB6F894DEBF0FBECDBFDF91CF911F917C
:101DA0000F91FF90EF90DF90CF90BF90AF909F90FA
:101DB0008F907F906F9008950F931F93CF93DF9331
:101DC00000D000D0CDB7DEB78C0169EB71E088E2BE
:101DD00094E00E94E11BD801ED91FC910480F58113
:101DE000E02DC801099564EC71E088E294E00E945E
:101DF000001C0E94AF1969837A838B839C83BE0188
:101E00006F5F7F4FC8010E94BC0D882319F06EEAF6
:101E100071E002C060ED71E088E294E00E94E11B95
:101E200068ED71E088E294E00E94E11BD801ED9139
:101E3000FC910480F581E02DC801099549815A8102
:101E40006B817C812AE030E088E294E00E947D1C76
:101E50000F900F900F900F90DF91CF911F910F91E6
:101E60000895EF92FF920F931F93CF93DF93EC01AE
:101E700088E294E00E94021A8C019C0133272436E8
:101E8000310509F48CC0D4F42C34310509F418C19F
:101E90004CF42D30310509F434C12434310509F0F6
:101EA00019C1BEC02136310521F12236310509F4B0
:101EB0005DC02E34310509F00DC167C02E363105E5
:101EC00009F459C054F42C36310509F4EFC0B4F4C8
:101ED0002B36310509F0FEC040C02537310509F425
:101EE00040C026373105B1F12037310509F0F2C085
:101EF00009C081E089836FED71E0F9C0198260EF5C
:101F000071E0F5C08981882319F062E072E0EFC0CA
:101F10006CE272E088E294E00E94001C0E94AF191B
:101F20006A837B838C839D836AE372E088E294E01A
:101F30000E94E11B4A815B816C817D812AE030E057
:101F400088E294E0DF91CF911F910F91FF90EF9085
:101F50000C947D1C60E572E0CAC01E8268E672E0E7
:101F6000C6C081E08E8364E972E0C1C082E08E83E6
:101F700060EB72E0BCC0CE010796DF91CF911F915C
:101F80000F91FF90EF900C94680CCE014596DF9175
:101F9000CF911F910F91FF90EF900C94DC0E7E017A
:101FA00087E0E80EF11C1C861B86198A1A8A1B8A98
:101FB0001C8A1D861E861F86188A29853A8521154A
:101FC000310519F1F90132978081918141E1489FF2
:101FD0008001499F100D1124020F131FC801D70162
:101FE00012962D913C911397015111098217930775
:101FF00049F0D801ED91FC910190F081E02DC801EC
:102000000995ECCF02970E94B4181A8619866EEBD8
:1020100072E088E294E00E94E11BEF81F8853EC007
:102020007E01B5E1EB0EF11C1A8E198E1F8E18A2DF
:1020300019A21AA21B8E1C8E1D8E1E8E2F89388D02
:102040002115310509F1F90132978081918146E02E
:10205000489F8001499F100D1124020F131FC801D2
:10206000F70122813381065011098217930749F045
:10207000D801ED91FC910190F081E02DC801099506
:10208000EECF02970E94B418188E1F8A6EEB72E092
:1020900088E294E00E94E11BED89FE890480F581CD
:1020A000E02DC701099560E073E021C0CE010796DD
:1020B000DF91CF911F910F91FF90EF900C946A09DF
:1020C000CE014596DF91CF911F910F91FF90EF9038
:1020D0000C94AC096EEC72E088E294E00E94E11B83
:1020E000602F88E294E00E94E31B67EE72E088E2D2
:1020F00094E0DF91CF911F910F91FF90EF900C949E
:10210000001CDF91CF911F910F91FF90EF900895E8
:102110002F923F924F925F926F927F928F929F92F7
:10212000AF92BF92CF92DF92EF92FF920F931F93E5
:10213000CF93DF93CDB7DEB728970FB6F894DEBF05
:102140000FBECDBF3C017F836E83412C512CD12C1F
:102150004C0135E1830E911C1C0187E0280E311CD7
:1021600093E2949D7001959DF00C1124EDE3F3E052
:10217000EE0EFF1ECE2CBF2CC7010E94B113882388
:1021800009F4C9C0C7010E94F615C7010E941216C2
:10219000882309F4B5C0C7010E941516FC014081CF
:1021A00051816281738149835A836B837C83DD24EF
:1021B000D394EE81FF8180819181A281B381481700
:1021C00059076A077B0709F0D12CC7010E947C15CB
:1021D000882309F455C0C7010E941015882309F40B
:1021E000A3C01D82AE014B5F5F4FBE016F5F7F4F8B
:1021F000C1010E94EE0981118AC096C01D82AE0104
:102200004B5F5F4FBE016F5F7F4FC4010E94BD0CEB
:1022100081117DC0F301818149815A816B817C816B
:10222000882329F042835383648375830AC0F301B2
:10223000028113812481358104171507260737078A
:1022400041F4C7010E941015682FC3010E94EA11D2
:102250005EC069EE72E088E294E00E94E11B498171
:102260005A816B817C812AE030E088E294E00E9410
:10227000701C66EF72E088E294E00E94001C47C088
:10228000C7010E941015882339F1AE014B5F5F4FE3
:10229000BE016F5F7F4FC1010E94EE09F3018823E9
:1022A00041F181859285009759F02D81338523175F
:1022B00038F4F1E12F9F800D911D1124A82E9887ED
:1022C000B7018A2D98850E945D08C7010E947D1480
:1022D000C1010E94EA081BC01D82AE014B5F5F4F27
:1022E000BE016F5F7F4FC4010E94BD0C811104C00D
:1022F000F3018681882359F0C7010E947D1407C02D
:10230000F3018681823019F4C7010E9488138C2D55
:102310009B2D0E94B913FFEF4F1A5F0A35E0431659
:10232000510409F01DCF06C0C7010E94101581118C
:1023300071CF64CF8D2D28960FB6F894DEBF0FBEF7
:10234000CDBFDF91CF911F910F91FF90EF90DF9064
:10235000CF90BF90AF909F908F907F906F905F9045
:102360004F903F902F900895AF92BF92CF92DF92FF
:10237000EF92FF920F931F93CF93DF93EC018B01AA
:102380005A010E94621D6B017C01F501408151815F
:1023900062817381C40ED51EE61EF71E06C0B80109
:1023A000CE010E948810811109C00E94621D6C1527
:1023B0007D058E059F0598F380E001C081E0DF91E7
:1023C000CF911F910F91FF90EF90DF90CF90BF9032
:1023D000AF900895EF92FF920F931F93CF93DF93E7
:1023E00000D000D0CDB7DEB78C0182E0E82EF12C12
:1023F000E00EF11E662331F0B701C80107960E9476
:10240000ED0A19C0C7010E94611844E650E060E07F
:1024100070E049835A836B837C83AE014F5F5F4FCB
:10242000B701C8010E94B411882331F1B701C80176
:1024300045960E94BC0D8823F9F06FEE72E088E2A9
:1024400094E00E94E11BF80142815381648175810F
:102450002AE030E088E294E00E94701C65EF72E0B0
:1024600088E294E00E94001C4FEF5FEFBA01F80190
:1024700042835383648375830F900F900F900F9066
:10248000DF91CF911F910F91FF90EF9008950F93DF
:102490001F93CF93DF9300D000D0CDB7DEB78C0170
:1024A000FC01248581859285F1E12F9F800D911D8E
:1024B00011240E94B50848EE53E060E070E04983C3
:1024C0005A836B837C83F801848561857285F1E191
:1024D0008F9F600D711D11246E5F7F4FAE014F5FA6
:1024E0005F4FC8010E94B41181110BC0F80124850F
:1024F00081859285F1E12F9F800D911D11240E940D
:10250000D7080F900F900F900F90DF91CF911F91F0
:102510000F910895EF92FF920F931F93CF93DF9344
:1025200000D000D0CDB7DEB77C01FC01818D8823BF
:1025300009F455C0828D811115C00E94621DF701FA
:1025400004A115A126A137A10059184E2F4F3F4FC6
:102550006017710782079307D0F583A1882309F4D8
:102560003EC035C0F701228D8789908DF6E02F9F00
:10257000800D911D112402960E94921844E650E0AD
:1025800060E070E049835A836B837C83F701828D1E
:102590006789708DF6E08F9F600D711D11246E5F4D
:1025A0007F4FAE014F5F5F4FC7010E94B411811191
:1025B00007C0F70183A1853018F48F5F83A30FC094
:1025C000C70145960E942C09F70113A208C00E947A
:1025D000621DF70164A375A386A397A3C3CF0F90D1
:1025E0000F900F900F90DF91CF911F910F91FF905F
:1025F000EF900895CF92DF92EF92FF920F931F9387
:10260000CF93DF9300D000D0CDB7DEB78C01FC01B3
:102610008385811104C0C8010E948A1220C00E94D3
:10262000621D6B017C01F801248581859285F1E1B1
:102630002F9F800D911D11240E94B508FC0140813F
:10264000518162817381445F514061097109C416EF
:10265000D506E606F706F8F2C8010E94471219826D
:102660001A821B821C82BE016F5F7F4FC8010E94CD
:10267000881088E294E00E94D319892B19F0C801D0
:102680000E94310F0F900F900F900F90DF91CF911C
:102690001F910F91FF90EF90DF90CF90089521E16F
:1026A000FC01208311820895FC019181808198179B
:1026B00050F48181DB019C91DF01A80FB11D1296BE
:1026C0009C938F5F81830895CF92DF92EF92FF9268
:1026D0000F931F93CF93DF937C016B018A01C0E0BE
:1026E000D0E007C0B6016C0F7D1FC7010E945413D4
:1026F0002196F801808190E0C817D9079CF3DF91FB
:10270000CF911F910F91FF90EF90DF90CF900895A0
:102710000F931F93CF93DF938C01C0E0D0E011C0E3
:10272000F801EC0FFD1F628140E150E088E294E087
:102730000E94971C6DEE72E088E294E00E94E11B1B
:102740002196F801808190E0C817D9074CF36EEE0E
:1027500072E088E294E0DF91CF911F910F910C9489
:10276000001CFC012181908181E0291708F480E0A0
:102770000895FC0111820895282FFB013081E82F74
:10278000F92F80E002C09191890F9E2F921B931721
:10279000D0F30895FC0191818081981748F49181CC
:1027A000DF01A90FB11D12968C919F5F918308954F
:1027B00080E008959F92AF92BF92CF92DF92EF9206
:1027C000FF920F931F93CF93DF93CDB7DEB7289778
:1027D0000FB6F894DEBF0FBECDBF8C016B017A013E
:1027E000B22E85E589838DE28A8384ED8B8380E434
:1027F0008C831D8283E0888782E08F83F8011182B9
:10280000902EA12EAE01485F5F4FBE016F5F7F4FDC
:10281000C8010E946413A701B601C8010E94641395
:10282000BB2059F0B701C6010E94BC138E83BE01C4
:102830006A5F7F4FC8010E945413AE01495F5F4F2A
:10284000BE016C5F7F4F892D9A2D0E946413F701A2
:1028500080818B5F8B0DF8018083118228960FB6E3
:10286000F894DEBF0FBECDBFDF91CF911F910F91C6
:10287000FF90EF90DF90CF90BF90AF909F90089522
:10288000FC0181E180831182148A158A168A178AD5
:10289000108E4FEF5FEFBA01478F50A361A372A371
:1028A00008950F931F93CF93DF93EC018B019981D0
:1028B00088819817E8F48981811111C00E94621DF6
:1028C0006C8B7D8B8E8B9F8BF8018081823519F408
:1028D0001B8A8CE003C081E08B8B80E18883898137
:1028E000F8019081FE01E80FF11D92838F5F8983CB
:1028F000DF91CF911F910F910895FF920F931F9336
:10290000CF93DF93EC0168E271E088E294E00E94EB
:10291000E11B4F8D58A169A17AA12AE030E088E23D
:1029200094E00E94701C68EF72E088E294E00E94DC
:10293000E11B4C895D896E897F892AE030E088E25D
:1029400094E00E94701C8E01F12CF801818D928D13
:102950000196E1F06EEF72E088E294E00E94E11BE4
:102960004AE050E06F2D88E294E00E94971C6CEEE4
:1029700072E088E294E00E94E11BF801618D728DA3
:102980004AE050E088E294E00E94911CF3940E5FCC
:102990001F4FF3E0FF12D9CF8B89811112C062E083
:1029A00073E088E294E00E94E11B8C85833519F482
:1029B0006DEE71E002C06EEF71E088E294E00E947B
:1029C000E11B66EF72E088E294E0DF91CF911F9106
:1029D0000F91FF900C94001C0F931F93CF93DF93E4
:1029E0001F92CDB7DEB78C01DC018C9181508983B9
:1029F000BE016F5F7F4FC80102960E94BC13D801D1
:102A0000EC91F0E03197E00FF11F228191E0821309
:102A100090E0892F0F90DF91CF911F910F91089532
:102A2000FC0183890895CF93DF93FC018FEF9FEF23
:102A3000928F818F948F838F968F858F8389882340
:102A400009F182E090E0DF01A80FB91F12964C91C6
:102A5000129747FF12C012965C911297EC012196D3
:102A6000CE0FDF1F4A81352F3F7720E0B901642B5D
:102A7000AB0158965C934E93579702968830910518
:102A800011F707C033852285932F80E0822B928F28
:102A9000818FDF91CF9108950F931F93FC01178EC3
:102AA00010A211A212A28389882359F092818381F6
:102AB000592F5F7040E0662757FD6095762F482BB1
:102AC00014C0238144818581968150E060E070E0EC
:102AD000BA0155274427722B492B182F00E020E01C
:102AE00030E0402B512B622B732B478F50A361A3F7
:102AF00072A31F910F910895FC018389882329F007
:102B00008281881F8827881F08958085833421F457
:102B1000918581E09F3409F080E008959F92AF9203
:102B2000BF92CF92DF92EF92FF920F931F93CF93BA
:102B3000DF93FC0190E081E0A12C00E810E040E48C
:102B4000E42EF12C41C0E801042E02C0D595C795B2
:102B50000A94E2F77C917C237C1771F0E701042E44
:102B600002C0D595C7950A94E2F7BE017C91762301
:102B7000761305C0A12C04C0AA24A39401C080E050
:102B8000BB0CBA284E5F5F4F48305105E1F62F5F0E
:102B90003F4F2230310531F40FC020E030E0B12C3E
:102BA000C92ED12C40E050E0B9016C0D7D1D6E0F97
:102BB0007F1FDB011296C7CF292F2695DF01A20FB9
:102BC000B11D1296BC929E5F2081921730F39081C6
:102BD00096959083DF91CF911F910F91FF90EF9089
:102BE000DF90CF90BF90AF909F900895CF93DF93E9
:102BF000EC018B89882321F0CE010E948E1503C041
:102C0000CE010E94EC14888F888D882341F0CE017C
:102C10000E941315CE01DF91CF910C944C15DF91DA
:102C2000CF910895FC01808D08959C01215E3F4F56
:102C3000C90108959C012C5E3F4FC90108950F936F
:102C40001F93CF93DF93EC0119928C0100551F4F16
:102C5000CE010E944014A396C017D107C9F7DF9197
:102C6000CF911F910F9108951F93CF93DF93EC01A4
:102C7000888113E29E01189F200D311D1124C90186
:102C800001960E9451148881FE01189FE00DF11DEC
:102C900011243196918180819817B8F080E090E0FE
:102CA00023E2289FF001299FF00D11243196EC0FAB
:102CB000FD1F41813081431710F4888304C00196C1
:102CC0008530910571F781E001C080E0DF91CF91FF
:102CD0001F9108951F93CF93DF9300D01F92CDB71C
:102CE000DEB711E01B8389E392E89A838983BE01F2
:102CF0006D5F7F4FCE0101960E9432191093FF0342
:102D00000F900F900F90DF91CF911F9108951F9317
:102D1000CF93DF9300D01F92CDB7DEB711E01B83B6
:102D200081E89AEC9A838983BE016D5F7F4FCE0163
:102D300001960E9432191B8383E89AEC9A83898357
:102D4000BE016D5F7F4FCE0101960E9432190F9038
:102D50000F900F90DF91CF911F910895CF93DF9344
:102D600000D01F92CDB7DEB781E08B8389ED92E86A
:102D70009A838983BE016D5F7F4FCE0101960E94C9
:102D800032191092FF030E9487160F900F900F9038
:102D9000DF91CF910895CF93DF9300D01F92CDB7ED
:102DA000DEB78CEE93E00E94CA1391E09B8390E023
:102DB000986B9A838983BE016D5F7F4FCE01019628
:102DC0000E9432198CEE93E00E94B11381110E948F
:102DD000AE160F900F900F90DF91CF9108951F9333
:102DE000CF93DF9300D0CDB7DEB781E00E94F21819
:102DF0001982CE0101960E942A19182F1982CE013C
:102E000001960E942A198091FF03811139C015FF94
:102E10001DC01A82CE0102960E942A198983BE0122
:102E20006F5F7F4F8CE393E00E943416182F1A8255
:102E3000CE0102960E942A198983BE016F5F7F4FDF
:102E40008CE393E00E943416182B12C017FF0FC0BA
:102E50001A82CE0102960E942A198983BE016F5FF1
:102E60007F4F8CE393E00E943416182F01C010E0CE
:102E700080E00E94F218112349F00E94871606C0D4
:102E800017FD0E94CB1680E00E94F2180F900F9061
:102E9000DF91CF911F9108951F93CF93DF9300D0BF
:102EA0001F92CDB7DEB70E94F81811E01B831A827B
:102EB0001982BE016D5F7F4FCE0101960E943219CB
:102EC00060ED77E080E090E00E949E1D1B8388ED1E
:102ED00090E89A838983BE016D5F7F4FCE01019692
:102EE0000E9432191B8381E092E89A838983BE0194
:102EF0006D5F7F4FCE0101960E9432191B8384E3E0
:102F000096EA9A838983BE016D5F7F4FCE01019659
:102F10000E9432191B8387E596EC9A838983BE0150
:102F20006D5F7F4FCE0101960E9432191B8380ECAA
:102F300094E99A838983BE016D5F7F4FCE0101962C
:102F40000E9432191B838CE292EC9A838983BE0122
:102F50006D5F7F4FCE0101960E9432191B8381E87D
:102F60009AEC9A838983BE016D5F7F4FCE010196F3
:102F70000E9432191B8384ED9EEC9A838983BE01E3
:102F80006D5F7F4FCE0101960E9432191B8387EF40
:102F900094EC9A838983BE016D5F7F4FCE010196C9
:102FA0000E9432191B8380E298E99A838983BE01CB
:102FB0006D5F7F4FCE0101960E9432191B8386E61A
:102FC0009CEC9A838983BE016D5F7F4FCE01019691
:102FD0000E9432191B8380E090EE9A838983BE01A0
:102FE0006D5F7F4FCE0101960E9432191B8380E0F6
:102FF00098EC9A838983BE016D5F7F4FCE01019665
:103000000E9432191B8380E090EC9A838983BE0171
:103010006D5F7F4FCE0101960E94321964EF71E01F
:1030200080E090E00E949E1D40E050E06FEE76E16F
:1030300080E00E949E1C0F900F900F90DF91CF9127
:103040001F910895CF93DF93CDB7DEB72C970FB6BE
:10305000F894DEBF0FBECDBF2BE0E6E0F1E0DE016D
:10306000119601900D922A95E1F7DA012C911196B3
:103070003C9111971296EC91129713964C914A83BA
:10308000EB833C832D83FC0180818F83DB018C915A
:1030900088878BE08C8721E0AE01445F5F4FBE01E3
:1030A0006F5F7F4F8CEE93E00E94DA130E946A16E6
:1030B0002C960FB6F894DEBF0FBECDBFDF91CF9137
:1030C0000895EF92FF920F931F93CF93DF9300D059
:1030D000CDB7DEB78C018BE4E82EE98291E4F92EBE
:1030E000FA82A801BE016F5F7F4FCE0102960E9457
:1030F000221862E370E080E090E00E949E1DE98269
:10310000FA82A801BE016F5F7F4FCE0102960E9436
:1031100022180F900F90DF91CF911F910F91FF9088
:10312000EF900895CF93DF9300D0CDB7DEB723E5BE
:10313000298320E52A83AC01BE016F5F7F4FCE015A
:1031400002960E9422180F900F90DF91CF91089560
:103150008CEE93E00E944F138CE393E00C941F16C7
:103160000C94AD1F0C94121F0C94AD1F089540E0F9
:1031700052EC61E070E088E294E00E94D91A6CE0C1
:1031800073E088E294E00E94001C80E094E00E94DA
:1031900066096DE173E088E294E00C94001C80E025
:1031A00094E00C94FA120E94C41D0E94B7180E9469
:1031B000CF18FDCF80E094E00C94350984E991E0CC
:1031C000909316048093150485E194E00E943907DA
:1031D0008AE891E0909308048093070487E094E0E4
:1031E0000C94E806882311F02A9808952A9A0895E5
:1031F00080E00E94F218229A61E08AE00E94611E3B
:1032000061E08DE00E94291E61E08BE00E94291E92
:1032100061E08AE00E94291E60E08CE00E94291E85
:1032200080E58CBD60E082E00E94291E61E082E0C2
:103230000E94611E8DB581608DBD8CB58D7F8CBD6A
:103240008CB581608CBD8CB5877F8CBD8CB58B7F38
:103250008CBD0895FC0180818EBD0DB407FEFDCFAD
:103260008EB50895CF92DF92EF92FF920F931F9346
:10327000CF93DF931F92CDB7DEB77C016B01FB01CB
:10328000808181112A98F70181818983CE0101967D
:103290000E942A19182F00E0F70180818983CE014E
:1032A00001960E942A19082BF6018081882319F0C3
:1032B00080E00E94F218C8010F90DF91CF911F911A
:1032C0000F91FF90EF90DF90CF900895DF92EF92F3
:1032D000FF920F931F93CF93DF93EC017B01188232
:1032E000D12C88E294E00E94D319892BE1F08E0161
:1032F0000D0D111D88E294E00E94021AF8018083EE
:10330000D3940D2D10E0FE01E00FF11F3197608185
:1033100088E294E00E94E31BF701808190E001972E
:103320000817190739F0FE01ED0DF11D3197808165
:103330008D30B9F66EEE72E088E294E00E94001CD7
:1033400088E294E00E94241ACD0DD11D1882DF91ED
:10335000CF911F910F91FF90EF90DF900895CF9341
:10336000DF93CDB7DEB760970FB6F894DEBF0FBE20
:10337000CDBF8FE0888BBE01605F7F4FCE0101968D
:103380000E94661940E050E060E070E0CE010196D6
:103390000E94492060960FB6F894DEBF0FBECDBFE5
:1033A000DF91CF910895FC0184859585FC01E05C57
:1033B000FF4F20813181FC01EE5BFF4F80819181C5
:1033C000281B390B2F733327C9010895FC0184850D
:1033D0009585FC01E05CFF4F40815181FC01EE5B73
:1033E000FF4F208131814217530741F00190F08156
:1033F000E02DE80FF91F208130E002C02FEF3FEFF2
:10340000C9010895FC0184859585FC01E05CFF4FAE
:1034100040815181FC01EE5BFF4F208131814217D9
:10342000530771F0A081B181A80FB91F2C91808141
:10343000918101968F7399279183808330E002C038
:103440002FEF3FEFC9010895FC0186859785FC01A8
:10345000E05CFF4FDC01AE5BBF4F408151812D919D
:103460003C91119742175307C1F70895CF93DF930B
:10347000FC0126853785D901A05CBF4F8D919C91B9
:10348000119701968F739927E901CE5BDF4F488131
:10349000598184179507D9F30D90BC91A02DA20FE7
:1034A000B31F6C93A685B785A05CBF4F11969C9304
:1034B0008E93A689B7892C9181E090E0058C02C09B
:1034C000880F991F0A94E2F7282B2C9381E090E053
:1034D000DF91CF9108951F920F920FB60F92112492
:1034E0002F933F934F938F939F93EF93FF9340912D
:1034F000C6008091CB049091CC0401968F739927DC
:103500002091CD043091CE048217930759F0E091B9
:10351000CB04F091CC04E557FB4F40839093CC044F
:103520008093CB04FF91EF919F918F914F913F91A9
:103530002F910F900FBE0F901F9018951F920F9212
:103540000FB60F9211242F933F938F939F93EF9376
:10355000FF93209187043091880480918904909191
:103560008A042817390731F48091C1008F7D809338
:10357000C10014C0E0918904F0918A04E95BFB4F1B
:1035800020818091890490918A0401968F739927F4
:1035900090938A04809389042093C600FF91EF9151
:1035A0009F918F913F912F910F900FBE0F901F9081
:1035B0001895CF92DF92EF92FF92CF93DF93EC01B9
:1035C0006A017B01411581EE580761057105F9F02B
:1035D000EC89FD8981E090E00E8C02C0880F991F74
:1035E0000A94E2F7808360E079E08DE390E0A70140
:1035F00096010E94981E21503109410951095695A2
:10360000479537952795211580E1380798F0EC8983
:10361000FD89108260E874E88EE190E0A7019601D0
:103620000E94981E2150310941095109569547952C
:1036300037952795E889F9893083EA89FB892083C2
:10364000EE89FF89408181E090E09C010A8C02C0F4
:10365000220F331F0A94E2F7422B4083EE89FF8941
:1036600040819C010B8C02C0220F331F0A94E2F7A9
:10367000422B4083EE89FF8940819C010C8C02C063
:10368000220F331F0A94E2F7422B4083EE89FF8911
:1036900020810D8C02C0880F991F0A94E2F7809553
:1036A00082238083DF91CF91FF90EF90DF90CF90C6
:1036B000089510922B0410922A0488EE93E0A0E063
:1036C000B0E080932C0490932D04A0932E04B0932B
:1036D0002F048FE293E090932904809328048BE8D1
:1036E00094E0909335048093340487E494E09093BD
:1036F00037048093360485EC90E0909339048093EE
:10370000380484EC90E090933B0480933A0480EC7E
:1037100090E090933D0480933C0481EC90E0909382
:103720003F0480933E0486EC90E0909341048093A4
:10373000400484E08093420483E08093430487E064
:103740008093440485E08093450481E0809346049F
:103750000895CF92DF92EF92FF920F931F93CF9332
:10376000DF936C01EB017A01E60EF71E00E010E03A
:103770000BC06991D601ED91FC910190F081E02D93
:10378000C6010995080F191FCE15DF0591F7C8016D
:10379000DF91CF911F910F91FF90EF90DF90CF902D
:1037A0000895DB010D900020E9F7AD01415051096A
:1037B000461B570BDC01ED91FC910280F381E02D5B
:1037C00009940C94D11BDC01ED91FC910190F081E6
:1037D000E02D09940F931F93CF93DF93EC016DE0DD
:1037E0000E94E31B8C016AE0CE010E94E31B9C0156
:1037F000200F311FC901DF91CF911F910F910895C3
:103800000F931F93CF93DF93EC010E94D11B8C0188
:10381000CE010E94EA1B9801280F391FC901DF91D0
:10382000CF911F910F9108955F926F927F928F9227
:103830009F92AF92BF92CF92DF92EF92FF920F933F
:103840001F93CF93DF93CDB7DEB7A1970FB6F89450
:10385000DEBF0FBECDBF3C016A017B01522E19A213
:1038600081E0821710F08AE0582E8E010F5D1F4F05
:10387000852C912CA12CB12CC701B601A501940176
:103880000E94981E8C2D529E8019112401501109FE
:103890008A3010F4805D01C0895CF8018083690181
:1038A0007A01C114D104E104F10431F7B801C30174
:1038B0000E94D11BA1960FB6F894DEBF0FBECDBFFC
:1038C000DF91CF911F910F91FF90EF90DF90CF90FC
:1038D000BF90AF909F908F907F906F905F90089572
:1038E0002115310541F4DC01ED91FC910190F0814D
:1038F000E02D642F09940C94141C0F931F93CF9305
:10390000DF93EC010E94701C8C01CE010E94EA1B27
:103910009C01200F311FC901DF91CF911F910F91A1
:1039200008959A01AB0160E070E00C94701C9A015C
:10393000462F50E060E070E00C94701C8230E8F498
:10394000E82FF0E0EE0FFF1FE153FB4F7183608320
:10395000813041F0809169008C7F842B80936900D5
:10396000E89A089580916900440F551F440F551F30
:10397000837F842B80936900E99A08951F920F92A8
:103980000FB60F9211242F933F934F935F936F9332
:103990007F938F939F93AF93BF93EF93FF93809108
:1039A000CF049091D004892B29F0E091CF04F091BD
:1039B000D0040995FF91EF91BF91AF919F918F91A5
:1039C0007F916F915F914F913F912F910F900FBE1B
:1039D0000F901F9018951F920F920FB60F921124FF
:1039E0002F933F934F935F936F937F938F939F9307
:1039F000AF93BF93EF93FF938091D1049091D20442
:103A0000892B29F0E091D104F091D2040995FF911E
:103A1000EF91BF91AF919F918F917F916F915F9146
:103A20004F913F912F910F900FBE0F901F901895BF
:103A30001F920F920FB60F9211242F933F938F93E3
:103A40009F93AF93BF938091D3049091D404A0919E
:103A5000D504B091D6043091DB04232F2D5F2D3790
:103A600020F40196A11DB11D05C0232F2A570296EF
:103A7000A11DB11D2093DB048093D3049093D40443
:103A8000A093D504B093D6048091D7049091D80424
:103A9000A091D904B091DA040196A11DB11D8093C3
:103AA000D7049093D804A093D904B093DA04BF91BB
:103AB000AF919F918F913F912F910F900FBE0F90DB
:103AC0001F9018950F931F938FB7F8940091D3040C
:103AD0001091D4042091D5043091D6048FBFB80141
:103AE000C9011F910F9108950F931F939FB7F894E9
:103AF0000091D7041091D8042091D9043091DA04B0
:103B000086B5A89B06C08F3F21F00F5F1F4F2F4F38
:103B10003F4F9FBF322F212F102F0027080F111D5D
:103B2000211D311D42E0000F111F221F331F4A9536
:103B3000D1F7B801C9011F910F910895CF92DF927B
:103B4000EF92FF92CF93DF936B017C010E94741D73
:103B5000EB010EC00E94741D6C1B7D0B683E734010
:103B600038F081E0C81AD108E108F108C851DC4FEB
:103B7000C114D104E104F10469F7DF91CF91FF9002
:103B8000EF90DF90CF900895789484B5826084BDE3
:103B900084B5816084BD85B5826085BD85B5816051
:103BA00085BDEEE6F0E0808181608083E1E8F0E0B1
:103BB0001082808182608083808181608083E0E8E0
:103BC000F0E0808181608083E1EBF0E080818460BF
:103BD0008083E0EBF0E0808181608083EAE7F0E0C1
:103BE0008081846080838081826080838081816025
:103BF00080838081806880831092C1000895833023
:103C000069F028F48130A1F0823011F514C08630BB
:103C1000B1F08730C1F08430D9F404C080918000C5
:103C20008F7703C0809180008F7D809380000895FE
:103C300084B58F7702C084B58F7D84BD089580914F
:103C4000B0008F7703C08091B0008F7D8093B0006B
:103C50000895CF93DF9390E0FC01E458FF4F449127
:103C6000FC01E057FF4F8491882341F190E0880FD9
:103C7000991FFC01E255FF4F25913491D9018C55D4
:103C80009F4FFC0185919491C82FD92F9FB7F8942D
:103C90008C91611106C0409584238C938881842384
:103CA00008C0623041F4242F209582238C938881B0
:103CB000842B888302C0842B8C939FBFDF91CF918C
:103CC00008950F931F93CF93DF931F92CDB7DEB765
:103CD000282F30E0F901E859FF4F8491F901E458A9
:103CE000FF4F1491F901E057FF4F04910023D1F0E9
:103CF000882321F069830E94FF1D6981E02FF0E095
:103D0000EE0FFF1FEC55FF4F85919491DC019FB79B
:103D1000F8948C91611103C01095812301C0812B0F
:103D20008C939FBF0F90DF91CF911F910F910895BA
:103D3000A1E21A2EAA1BBB1BFD010DC0AA1FBB1FAF
:103D4000EE1FFF1FA217B307E407F50720F0A21B21
:103D5000B30BE40BF50B661F771F881F991F1A948E
:103D600069F760957095809590959B01AC01BD01B8
:103D7000CF0108952F923F924F925F926F927F9260
:103D80008F929F92AF92BF92CF92DF92EF92FF926B
:103D90000F931F93CF93DF93CDB7DEB7CA1BDB0B17
:103DA0000FB6F894DEBF0FBECDBF09942A883988BC
:103DB00048885F846E847D848C849B84AA84B984C3
:103DC000C884DF80EE80FD800C811B81AA81B981CF
:103DD000CE0FD11D0FB6F894DEBF0FBECDBFED01E3
:103DE0000895EE0FFF1F0590F491E02D09940E94B5
:103DF000001F84FF0895CB010E94001F805F08957B
:103E0000AA27992329F4A85F982B11F480E108953B
:103E1000903118F4AD5F9295A395990FE8F78A2F2A
:103E2000992708950F931F93CF93DF9382309105C5
:103E300010F482E090E0E091DE04F091DF0420E0F5
:103E400030E0C0E0D0E023C04081518148175907DD
:103E5000A8F04817590761F482819381209719F0DF
:103E60009B838A832EC09093DF048093DE0429C055
:103E70002115310529F04217530710F0A90102C09E
:103E8000BE01DF0102811381EF019A01F801309731
:103E9000D9F62115310509F1281B390B24303105DC
:103EA00090F412968D919C9113976115710521F0F4
:103EB000FB019383828304C09093DF048093DE042C
:103EC000FD01329644C0FD01E20FF31F81939193EF
:103ED000225031092D933C933AC02091DC0430915B
:103EE000DD04232B41F42091020130910301309332
:103EF000DD042093DC0420910001309101012115A3
:103F0000310541F42DB73EB74091040150910501B0
:103F1000241B350BE091DC04F091DD04E217F3077C
:103F2000A0F42E1B3F0B2817390778F0AC014E5F29
:103F30005F4F2417350748F04E0F5F1F5093DD0485
:103F40004093DC048193919302C0E0E0F0E0CF0164
:103F5000DF91CF911F910F910895EF92FF920F93F0
:103F60001F93CF93DF93009709F48EC0DC01129763
:103F700013961C921E921297E090DE04F090DF04DC
:103F8000E114F10489F42D913C911197280F391F08
:103F90008091DC049091DD048217930789F5B0933A
:103FA000DD04A093DC0470C0E70120E030E001C034
:103FB000EA01CA17DB0738F44A815B819E0141158B
:103FC0005105B1F722C0AC0142505109FA01D38327
:103FD000C28300811181BC01600F711F6C177D07C6
:103FE00061F468817981600F711F6E5F7F4F71830B
:103FF00060836A817B81738362832115310529F493
:10400000B093DF04A093DE043FC0F901B383A28321
:10401000E90149915991C40FD51FAC17BD0771F43F
:10402000DC019E918E91840F951F0296918380836F
:1040300012968D919C91139793838283A0E0B0E0B8
:1040400002C0D7017C01F701828193810097C9F7F3
:10405000C701029620813181820F931F2091DC04D9
:104060003091DD042817390779F4109729F410925C
:10407000DF041092DE0404C013961C921E92129765
:10408000F092DD04E092DC04CDB7DEB7E6E00C94FC
:10409000E21EA0E0B0E0EFE4F0E20C94BA1E1B01D7
:1040A0003A016115710519F0FB0180839183611458
:1040B000710439F09301225031092332310508F09F
:1040C000C7C08C01F801D1918F012F018D2F90E095
:1040D0000E944421892BB1F7DD3229F4F801D191F6
:1040E0002F01C1E006C0DB3219F4F801D1912F0194
:1040F000C0E06114710409F4B5C0F0E16F167104F9
:1041000089F4B7C0F2018081883719F0883509F049
:10411000A3C0F201D181F2E04F0E511CC26050E108
:10412000652E712C8AE06816710439F1E0E16E1693
:10413000710429F0F8E06F16710491F407C0CC24E3
:10414000CA94DC2CEC2C4FE0F42E1DC028E0622E2B
:10415000712CCC24CA94DC2CEC2C3FE1F32E13C040
:104160009301442737FD4095542F6FEF7FEFCB012C
:104170000E94981E69017A0106C099E9C92EDC2CBB
:10418000EC2C99E1F92E90E020E030E0A901430108
:10419000AA2497FCA094BA2CED2FE053EA3060F0EB
:1041A0008D2F81548A3110F4E75006C08D2F81562F
:1041B0008A3140F5ED2FE7556E2F70E066157705D3
:1041C0000CF59F3FD9F0C216D306E406F50698F029
:1041D000C501B4010E944F219B01AC018E2F90E0DC
:1041E000A0E0B0E0280F391F4A1F5B1F28173907CE
:1041F0004A075B0710F49FEF01C091E0F201D191F3
:104200002F01CACF2114310471F0992321F0F1E07C
:104210004F1A510805C0C1FF06C0F2E04F1A5108FD
:10422000F10151824082C0FF07C050954095309502
:1042300021953F4F4F4F5F4F97FF1FC082E290E0A5
:104240009093E1048093E0042FEF3FEFA90115C0A4
:1042500020E030E0A90111C0D0E36114710409F439
:1042600075CF60CFD03309F44DCF8AE0682E712C22
:1042700084CFD03309F056CF45CFB901CA01CDB7AD
:10428000DEB7E2E10C94D61E911106C0803219F01F
:1042900089508550D0F70895992788270895DB0124
:1042A0008F939F930E945F21BF91AF91A29F800D3A
:1042B000911DA39F900DB29F900D112408950E940F
:1042C0006A21A59F900DB49F900DA49F800D911D14
:1042D00011240895A29FB001B39FC001A39F01D0F4
:1042E000B29F700D811D1124911D089510E0CEEB39
:1042F000D0E004C0FE010E94F31E2296C03CD1070C
:06430000C9F7F894FFCF9D
:104306000000E2042000460000000000414B0000CF
:104316004F00000000000000002043435F54525845
:10432600002043435F5458007B69643A20002C20E8
:1043360074696D655F6C6173745F7365656E3A2051
:10434600002C206E756D5F706572696F64735F6DAA
:1043560069737365643A20002C206574613A200005
:104366002C2073616D706C655F706572696F643A5D
:10437600200000000000CE06DA06EC070000000070
:10438600D406E10696070000000028072F079007CD
:1043960000000000790780078A0700000000E80691
:1043A6001E07B6180000000039076F07B61841430C
:1043B6004B007B00733A002C0041434B20656E7422
:1043C6006572200020494420746F206164643A00BD
:1043D6004E414B206E6F7400206164646564004139
:1043E600434B206175746F5F70616972206F6E0058
:1043F60041434B206175646F5F70616972206F661F
:1044060066004E414B20456E61626C65206D616EA3
:1044160075616C2070616972696E67206265666F8E
:1044260072652027702720636D642E0041434B2060
:10443600456E7465722049443A0041434B207061D1
:1044460069725F776974682073657420746F2000E1
:104456004E414B20646562756767696E67206469C3
:104466007361626C6564210041434B206F6E6C7909
:10447600207072696E7420646174612066726F6D5B
:10448600206B6E6F776E207472616E736D697474D3
:104496006572730041434B207072696E7420616CC3
:1044A6006C2076616C6964207061636B657473005F
:1044B60041434B207072696E7420616C6C004143FD
:1044C6004B2064656C6574656420616C6C004E41BC
:1044D6004B20756E7265636F676E697365642063E2
:1044E6006F6D6D616E642027007B50523A20007B11
:1044F60070773A2000207D002C20743A20002C2072
:1045060073002C2073746174653A2000454446207C
:1045160049414D2052656365697665720046696E4C
:10452600697368656420696E69740000000000366E
:0C4536001AA91BD319021AE619241A0056
:00000001FF
