:100000000C9464000C94D8140C9405150C948C007A
:100010000C948C000C948C000C948C000C948C0030
:100020000C948C000C948C000C948C000C948C0020
:100030000C948C000C948C000C948C000C948C0010
:100040000C942F1D0C948C000C9402100C943E10F8
:100050000C948C000C948C000C948C000C948C00F0
:100060000C948C000C948C0000000007000201002E
:100070000003040600000000000000000102040864
:100080001020408001020408102001020408102002
:10009000040404040404040402020202020203032E
:1000A00003030303000000002300260029000000D2
:1000B0000000250028002B0000000000240027007D
:1000C0002A0055256425682511241FBECFEFD8E0EE
:1000D000DEBFCDBF15E0A0E0B1E0E2E0FBE502C08D
:1000E00005900D92A839B107D9F717E0A8E9B5E056
:1000F00001C01D92A53AB107E1F710E0C8ECD0E0CD
:1001000004C02297FE010E942326C23CD107C9F7F2
:100110000E945D250C947F2D0C940000CF93DF93FB
:10012000EC0168814AE050E070E08AEE96E00E94BF
:10013000C2138881823089F028F4882341F081300D
:10014000D1F408C0833061F08430A9F40CC06AE1B6
:1001500071E00BC062E271E008C069E271E005C0C5
:1001600060E371E002C068E371E08AEE96E0DF913F
:10017000CF910C941A12DF91CF9108950F931F9392
:10018000CF93DF93CDB7DEB7C254D1090FB6F89441
:10019000DEBF0FBECDBF2B960EAD1FAD2B9790913E
:1001A0000001F8018081891778F10E94791DAB0167
:1001B000BC012AE030E08AEE96E00E94031361E47D
:1001C00071E08AEE96E00E941A12C8010E948E0029
:1001D00061E471E08AEE96E00E941A12AE01435B80
:1001E0005F4F23965FAF4EAF23972D966EAD7FADD9
:1001F0002D97CE0101960E94982ABE016F5F7F4F16
:100200008AEE96E00E946B12CE5BDF4F0FB6F89439
:10021000DEBF0FBECDBFDF91CF911F910F9108952B
:100220001F93CF93DF931F92CDB7DEB710E01983F2
:10023000CE0101960E948E0060E471E08AEE96E0A5
:100240000E941A121F5F143091F71983CE01019694
:100250000E948E0062E471E08AEE96E00E946B12CA
:100260000F90DF91CF911F910895CF92DF92EF927F
:10027000FF920F931F93CF93DF93EC0181E089836B
:100280004FEF5FEFBA014A835B836C837D838E837C
:100290007E0187E0E80EF11C87016E01E2E5CE0EDB
:1002A000D11CC8010E942A0D015F1F4F0C151D05AE
:1002B000C1F7F801F182E082FE01EC5AFF4F108293
:1002C000FE01E759FF4F1082FE01E659FF4F1082F1
:1002D000FE01E559FF4F1082C459DF4F1882198281
:1002E0001A821B82DF91CF911F910F91FF90EF90A7
:1002F000DF90CF900895FC01E759FF4F20812F5FD9
:100300002083DC01A659BF4F3C91231708F01082CF
:10031000FC01E559FF4F108208958F929F92AF9292
:10032000BF92CF92DF92EF92FF920F931F93CF93E2
:10033000DF937C015B01912C6C0184E5C80ED11C1C
:100340008FE0882E19C0E701899CC00DD11D1124B2
:100350002796CE010E94480EFC0100811181228166
:100360003381F50140815181628173810417150742
:100370002607370739F09394F6018081981618F311
:10038000C0E0D0E0CE01DF91CF911F910F91FF909F
:10039000EF90DF90CF90BF90AF909F908F90089597
:1003A000BF92CF92DF92EF92FF920F931F93CF9362
:1003B000DF931F92CDB7DEB77C018B010E948D01C8
:1003C000892B69F0F8018081918122813381198222
:1003D0003F932F939F938F9383E491E04EC06701E7
:1003E00034E5C30ED11CF60180818530C8F5982F05
:1003F0009F5F90839FE0B92E9701B89E200D311D1D
:100400001124C901B80107960E943D0EF601208112
:1004100030E021503109B29EC001B39E900D1124ED
:1004200007968E0D9F1D0E94480EFC0180819181D0
:100430002281338119823F932F939F938F9380E67C
:1004400091E09F938F93CE0101969F938F930E948B
:10045000BE000FB6F894DEBF0FBECDBF81E01BC05B
:10046000F801808191812281338143E049833F9368
:100470002F939F938F9385E791E09F938F93CE0166
:1004800001969F938F930E94BE000FB6F894DEBF33
:100490000FBECDBF80E00F90DF91CF911F910F91E4
:1004A000FF90EF90DF90CF90BF9008950F931F9330
:1004B000CF93DF93FB01DC01A659BF4FDC91C0E075
:1004C00012C0DC01AB5ABF4F0D911D912D913C9193
:1004D00004964081518162817381041715072607B4
:1004E000370729F0CF5FCD13ECCF80E001C081E06A
:1004F000DF91CF911F910F910895EF92FF920F938B
:100500001F93CF93DF931F92CDB7DEB77C018B0192
:100510000E945602882391F0D8018C9111969C91EB
:10052000119712962C91129713963C9119823F9332
:100530002F939F938F9381E991E04DC0F701E65986
:10054000FF4F8081D8018530A8F54D915D916D9167
:100550007C91D70194E0899FA00DB11D1124AB5A65
:10056000BF4F4D935D936D937C9313978F5F808303
:10057000A4E08A9FE00CF11C1124F701EF5AFF4F11
:10058000808191812281338119823F932F939F93A0
:100590008F938FEA91E09F938F93CE0101969F9363
:1005A0008F930E94BE000FB6F894DEBF0FBECDBF82
:1005B00081E01FC08C9111969C91119712962C91FD
:1005C000129713963C9143E049833F932F939F9357
:1005D0008F9385EC91E09F938F93CE0101969F932B
:1005E0008F930E94BE000FB6F894DEBF0FBECDBF42
:1005F00080E00F90DF91CF911F910F91FF90EF90CE
:1006000008950F931F93CF93DF93EC018C010E5F3E
:100610001F4F662321F0B8010E94D00107C0C80116
:100620000E94A20CB801CE010E947D028823B1F085
:1006300062EE71E08AEE96E00E941A124A815B81B6
:100640006C817D812AE030E08AEE96E00E940313FF
:1006500068EE71E08AEE96E00E946B124FEF5FEF5A
:10066000BA014A835B836C837D83DF91CF911F91B5
:100670000F9108954F925F926F927F928F929F9207
:10068000AF92BF92CF92DF92EF92FF920F931F93A0
:10069000CF93DF931F92CDB7DEB78C01512C3C0175
:1006A00084E5680E711C2FE0422E480192E5890E08
:1006B000911C23C05801459CA00CB11C1124E7E0FB
:1006C000AE0EB11CC5010E94E20DFC01C080D180BC
:1006D000E280F380F401808191810E94E20DFC01AF
:1006E0004081518162817381C416D506E606F70602
:1006F00018F4F401B182A0825394F301808158165A
:10070000C8F20E5A1F4FF801808191810E94E20DBC
:10071000FC01F080E180D280C380F801808191816A
:100720000E94480EFC0180819181228133811982CF
:10073000CF92DF92EF92FF923F932F939F938F93ED
:100740008BEE91E09F938F93CE0101969F938F93B1
:100750000E94BE000FB6F894DEBF0FBECDBF0F9053
:10076000DF91CF911F910F91FF90EF90DF90CF908D
:10077000BF90AF909F908F907F906F905F904F90C1
:1007800008952F923F924F925F926F927F928F9235
:100790009F92AF92BF92CF92DF92EF92FF920F9310
:1007A0001F93CF93DF9300D000D01F92CDB7DEB759
:1007B0003C015B01212C312CF12CEE24E3942E0121
:1007C00025E0420E511C88E2829D4001839D900CE1
:1007D0001124E9E9F5E08E0E9F1ED82CC92CC40126
:1007E0000E94BE07882309F4CEC0C4010E94060AF5
:1007F000C4010E94220A882309F4ADC0C4010E94EA
:10080000250AFC01408151816281738149835A83A9
:100810006B837C83FF24F394F50100811181228195
:100820003381401751076207730709F0F12CC401A7
:100830000E948C09882309F448C0C4010E94200941
:10084000882309F4A9C0BE016F5F7F4FC3010E94D6
:100850008D01892B09F093C09FC0BE016F5F7F4F50
:10086000C3010E94560281118AC09CC0F3014283D9
:100870005383648375830AC0F30102811381248149
:100880003581041715072607370741F4C4010E9474
:100890002009682FC3010E94010371C060E172E06A
:1008A0008AEE96E00E941A1249815A816B817C81FE
:1008B0002AE030E08AEE96E00E94031369EE71E0D0
:1008C0008AEE96E00E946B125AC0C4010E94200971
:1008D000BE016F5F7F4F8823D9F0C3010E948D0155
:1008E000009751F0B4010E94400DC4010E948D0890
:1008F000C3010E943A0343C089819A812B813C81C4
:10090000ED823F932F939F938F9386E192E010C0E7
:10091000C3010E94560281111AC089819A812B81DC
:100920003C81ED823F932F939F938F9380E492E0DD
:100930009F938F935F924F920E94BE000FB6F894E0
:10094000DEBF0FBECDBFF30186818823C1F0C40195
:100950000E948D0814C0ED828BE692E09F938F93E6
:100960005F924F920E94BE000F900F900F900F90D9
:10097000F3018681823019F4C4010E9495078D2D00
:100980009C2D0E94C607FFEF2F1A3F0A25E0221672
:10099000310409F018CF10C0C4010E942009882337
:1009A00009F45BCFF301818149815A816B817C819C
:1009B000882309F461CF5ACF8F2D0F900F900F909D
:1009C0000F900F90DF91CF911F910F91FF90EF90BB
:1009D000DF90CF90BF90AF909F908F907F906F905F
:1009E0005F904F903F902F9008956F927F928F92DB
:1009F0009F92AF92BF92CF92DF92EF92FF920F93AE
:100A00001F93CF93DF931F92CDB7DEB78C010E9467
:100A1000791D6B017C01580182E5A80EB11CF5011E
:100A2000808191810E94E20DFC0190808180728022
:100A30006380F501808191810E94480EFC018081D4
:100A400091812281338119826F927F928F929F923E
:100A50003F932F939F938F9389E792E09F938F9378
:100A6000CE0101969F938F930E94BE000FB6F8941B
:100A7000DEBF0FBECDBF912C98EEC90E93E0D91EFC
:100A8000E11CF11C0E94791D6C157D058E059F05EA
:100A9000B8F019821F929F922BE932E03F932F9377
:100AA0009E012F5F3F4F3F932F930E94BE000F90F8
:100AB0000F900F900F900F900F90911017C003C0E0
:100AC0009110E7CF08C0F801EE5AFF4F8081918165
:100AD0000E94030E0BC0F501808191810E94480E97
:100AE000BC01C8010E94C103982ECCCF0F90DF91AA
:100AF000CF911F910F91FF90EF90DF90CF90BF901B
:100B0000AF909F908F907F906F900895AF92BF921B
:100B1000CF92DF92EF92FF920F931F93CF93DF93C9
:100B20001F92CDB7DEB78C01FC01E659FF4F8081E3
:100B3000882309F4B6C0F801E759FF4F808181117D
:100B40001FC00E94791D58012CE6A20EB11CF501B0
:100B5000C080D180E280F380F0E7CF0EF7E1DF1EA6
:100B6000E11CF11C6C157D058E059F0508F085C004
:100B7000F801E559FF4F8081882309F492C07DC0B8
:100B8000580129E6A20EB11CF5018081980144E0CC
:100B9000849F200D311D1124C9018B5A9F4F0E9443
:100BA000F00C0E94791D6B017C0184E6C80ED11CFB
:100BB000E11CF11C0FC0F5018081B801F4E08F9FAA
:100BC000600D711D11246B5A7F4FC8010E94C10333
:100BD000811164C00E94791D6C157D058E059F05ED
:100BE00050F353C0F5019081F4E09F9F000D111D5B
:100BF0001124F801EB5AFF4F90812181328143810A
:100C000019821F928F934F933F932F939F9385EB5E
:100C100092E09F938F93CE0101969F938F930E94B2
:100C2000BE00F70180818F5F808321C0C8010E94D0
:100C30007B01F5018081F4E08F9F000D111D1124CF
:100C4000F801EB5AFF4F808191812281338141E08D
:100C500049833F932F939F938F9387EE92E09F93C7
:100C60008F93CE0101969F938F930E94BE000FB683
:100C7000F894DEBF0FBECDBF14C00E94791DF501F0
:100C800060837183828393837BCF7801FBE6EF0ED1
:100C9000F11CF7018081853048F6A4CFC8010E947D
:100CA0007B010F90DF91CF911F910F91FF90EF90FB
:100CB000DF90CF90BF90AF900895CF92DF92EF92E8
:100CC000FF920F931F93CF93DF9300D000D0CDB747
:100CD000DEB78C01FC01EC5AFF4F8081811104C00A
:100CE000C8010E9486051CC00E94791D6B017C0111
:100CF000F801EE5AFF4F808191810E94E20DFC01C4
:100D00004081518162817381445F51406109710961
:100D1000C416D506E606F70618F3C8010E94F504C6
:100D200019821A821B821C82BE016F5F7F4FC8012D
:100D30000E94C1038AEE96E00E94690F892B09F494
:100D400096C08AEE96E00E94980F7C019C013327A2
:100D50002B36310509F469C064F421363105D9F028
:100D60002236310509F46CC02D30310509F06EC012
:100D70007EC020373105D1F02CF42D36310509F035
:100D800065C00FC02537310509F454C02637310539
:100D900009F05CC031C081E0F80181836BE173E050
:100DA00062C0F801118261E373E05DC0F8018181E6
:100DB000882319F068E473E056C060E973E08AEEB6
:100DC00096E00E946B120E94450FF80162837383C4
:100DD0008483958361EC73E08AEE96E00E941A1298
:100DE000F80142815381648175812AE030E08AEE06
:100DF00096E00E9410133BC067ED73E08AEE96E028
:100E00000E946B120E9410010E94450F6093000126
:100E10006CEE73E08AEE96E00E941A1280E091E098
:100E20000E948E0062E471E01EC0F801168262E04A
:100E300074E019C081E0F80186836EE274E013C0AB
:100E400082E0F80186836AE474E00DC068E574E02E
:100E50008AEE96E00E941A126E2D8AEE96E00E94AB
:100E60001C1261E774E08AEE96E00E946B120F900C
:100E70000F900F900F90DF91CF911F910F91FF90E6
:100E8000EF90DF90CF900895CF93DF9300D0CDB750
:100E9000DEB789839A830E947D0B0E94DF0A8981D5
:100EA0009A810F900F90DF91CF910C943A0326E135
:100EB000FC01208311820895FB012081FC01208325
:100EC0000895FC0191818081981750F48181DB01A4
:100ED0009C91DF01A80FB11D12969C938F5F8183B7
:100EE0000895CF92DF92EF92FF920F931F93CF93CB
:100EF000DF937C016B018A01C0E0D0E007C0B6013E
:100F00006C0F7D1FC7010E9461072196F801808147
:100F100090E0C817D9079CF3DF91CF911F910F91F3
:100F2000FF90EF90DF90CF9008950F931F93CF9392
:100F3000DF938C01C0E0D0E011C0F801EC0FFD1F81
:100F4000628140E150E08AEE96E00E94421361E443
:100F500071E08AEE96E00E941A122196F8018081D3
:100F600090E0C817D9074CF362E471E08AEE96E08E
:100F7000DF91CF911F910F910C946B12FC01218195
:100F8000908181E0291708F480E00895FC01118226
:100F90000895282FFB013081E82FF92F80E002C04F
:100FA0009191890F9E2F921B9317D0F30895FC0106
:100FB00081810895FC0191818081981748F4918185
:100FC000DF01A90FB11D12968C919F5F9183089547
:100FD00080E008959F92AF92BF92CF92DF92EF92FE
:100FE000FF920F931F93CF93DF93CDB7DEB7289770
:100FF0000FB6F894DEBF0FBECDBF8C016B017A0136
:10100000B22E85E589838DE28A8384ED8B8380E42B
:101010008C831D8283E0888782E08F83F8011182B0
:10102000902EA12EAE01485F5F4FBE016F5F7F4FD4
:10103000C8010E947107A701B601C8010E9471078B
:10104000BB2059F0B701C6010E94C9078E83BE01BB
:101050006A5F7F4FC8010E946107AE01495F5F4F21
:10106000BE016C5F7F4F892D9A2D0E947107F70199
:1010700080818B5F8B0DF8018083118228960FB6DB
:10108000F894DEBF0FBECDBFDF91CF911F910F91BE
:10109000FF90EF90DF90CF90BF90AF909F9008951A
:1010A000FC0186E180831182118E128E138E148EC4
:1010B000158E4FEF5FEFBA0144A355A366A377A344
:1010C00008950F931F93CF93DF93EC018B019981C8
:1010D00088819817E8F48981811111C00E94791DD7
:1010E000698F7A8F8B8F9C8FF8018081823519F4FC
:1010F000188E8CE003C081E0888F80E1888389812D
:10110000F8019081FE01E80FF11D92838F5F8983C2
:10111000DF91CF911F910F910895FF920F931F932D
:10112000CF93DF93EC0163E774E08AEE96E00E94D0
:101130001A124CA15DA16EA17FA12AE030E08AEED7
:1011400096E00E94031369E774E08AEE96E00E943D
:101150001A12498D5A8D6B8D7C8D2AE030E08AEE13
:1011600096E00E9403138E01F12CF801868D978D75
:101170000196E1F06FE774E08AEE96E00E941A12A1
:101180004AE050E06F2D8AEE96E00E94421363E140
:1011900072E08AEE96E00E941A12F801668D778D51
:1011A0004AE050E08AEE96E00E942413F3940E5F2A
:1011B0001F4FF3E0FF12D9CF888D811112C063E871
:1011C00074E08AEE96E00E941A128C85833519F439
:1011D0006EE273E002C064E473E08AEE96E00E947F
:1011E0001A1269EE71E08AEE96E0DF91CF911F91BD
:1011F0000F91FF900C946B120F931F93CF93DF937B
:101200001F92CDB7DEB78C01DC018C9181508983B0
:10121000BE016F5F7F4FC80102960E94C907D801C7
:10122000EC91F0E03197E00FF11F228191E0821301
:1012300090E0892F0F90DF91CF911F910F9108952A
:10124000FC01808D0895CF93DF93FC018FEF9FEF1A
:10125000978F868F91A380A393A382A3808D8823E9
:1012600009F182E090E0DF01A80FB91F12964C91BE
:10127000129747FF12C012965C911297EC012196CB
:10128000CE0FDF1F4A81352F3F7720E0B901642B55
:10129000AB015D965C934E935C9702968830910506
:1012A00011F707C033852285932F80E0822B978F1B
:1012B000868FDF91CF9108950F931F93FC0114A2A5
:1012C00015A216A217A2808D882359F092818381DE
:1012D000592F5F7040E0662757FD6095762F482BA9
:1012E00014C0238144818581968150E060E070E0E4
:1012F000BA0155274427722B492B182F00E020E014
:1013000030E0402B512B622B732B44A355A366A3D3
:1013100077A31F910F910895FC01808D882329F0F8
:101320008281881F8827881F08958085833421F44F
:10133000918581E09F3409F080E008959F92AF92FB
:10134000BF92CF92DF92EF92FF920F931F93CF93B2
:10135000DF93FC0190E081E0A12C00E810E040E484
:10136000E42EF12C41C0E801042E02C0D595C795AA
:101370000A94E2F77C917C237C1771F0E701042E3C
:1013800002C0D595C7950A94E2F7BE017C917623F9
:10139000761305C0A12C04C0AA24A39401C080E048
:1013A000BB0CBA284E5F5F4F48305105E1F62F5F06
:1013B0003F4F2230310531F40FC020E030E0B12C36
:1013C000C92ED12C40E050E0B9016C0D7D1D6E0F8F
:1013D0007F1FDB011296C7CF292F2695DF01A20FB1
:1013E000B11D1296BC929E5F2081921730F39081BE
:1013F00096959083DF91CF911F910F91FF90EF9081
:10140000DF90CF90BF90AF909F900895CF93DF93E0
:10141000EC01888D882321F0CE010E949E0903C033
:10142000CE010E94FC088D8F8D8D882341F0CE0166
:101430000E942309CE01DF91CF910C945C09DF91CA
:10144000CF910895FC01858D08959C012C5D3F4F3F
:10145000C90108959C01225E3F4FC90108959C0176
:10146000275E3F4FC90108950F931F93CF93DF93DA
:10147000EC0119928C0107531F4FCE010E945008B6
:10148000A896C017D107C9F7DF91CF911F910F918F
:101490000895FF920F931F93CF93DF931F92CDB7C1
:1014A000DEB78C01FC01808158E2F52E9801F89E90
:1014B000200D311D1124C90101960E946108F80117
:1014C0008081F89EE00DF11D11243196918180817B
:1014D0009817B8F080E090E028E2289FF001299F5B
:1014E000F00D11243196E00FF11F41813081431737
:1014F00018F4F801808317C001968530910569F7CB
:1015000002C080E011C083E089838DE894E09F935E
:101510008F93CE0101969F938F930E94BE000F90F0
:101520000F900F900F9081E00F90DF91CF911F915E
:101530000F91FF9008951F93CF93DF9300D01F92D8
:10154000CDB7DEB711E01B8389E392E89A838983E4
:10155000BE016D5F7F4FCE0101960E94C80E1093B1
:1015600079060F900F900F90DF91CF911F91089502
:101570001F93CF93DF9300D01F92CDB7DEB711E05A
:101580001B8381E89AEC9A838983BE016D5F7F4F4C
:10159000CE0101960E94C80E1B8383E89AEC9A83C1
:1015A0008983BE016D5F7F4FCE0101960E94C80EF8
:1015B0000F900F900F90DF91CF911F910895CF93CF
:1015C000DF9300D01F92CDB7DEB781E08B8389ED2A
:1015D00092E89A838983BE016D5F7F4FCE010196A9
:1015E0000E94C80E109279060E94B80A0F900F90C0
:1015F0000F90DF91CF910895CF93DF9300D01F928A
:10160000CDB7DEB781E696E00E94DA0791E09B83D2
:1016100090E0986B9A838983BE016D5F7F4FCE0106
:1016200001960E94C80E81E696E00E94BE078111D5
:101630000E94DF0A0F900F900F90DF91CF910895D5
:101640001F93CF93DF9300D0CDB7DEB781E00E9428
:10165000880E1982CE0101960E94C00E182F1982A1
:10166000CE0101960E94C00E80917906811139C089
:1016700015FF1DC01A82CE0102960E94C00E8983FA
:10168000BE016F5F7F4F88E995E00E94490A182FDD
:101690001A82CE0102960E94C00E8983BE016F5F3E
:1016A0007F4F88E995E00E94490A182B12C017FF66
:1016B0000FC01A82CE0102960E94C00E8983BE011D
:1016C0006F5F7F4F88E995E00E94490A182F01C09B
:1016D00010E080E00E94880E112349F00E94B80AB1
:1016E00006C017FD0E94FC0A80E00E94880E0F9041
:1016F0000F90DF91CF911F9108951F93CF93DF93A8
:1017000000D000D0CDB7DEB70E948E0E11E01C8352
:101710001A821982BE016C5F7F4FCE0101960E9432
:10172000C80E60ED77E080E090E00E94B51D1C835C
:1017300088ED90E89A838983BE016C5F7F4FCE016C
:1017400001960E94C80E1C8381E092E89A838983E7
:10175000BE016C5F7F4FCE0101960E94C80E1C83B4
:1017600084E396EA9A838983BE016C5F7F4FCE0142
:1017700001960E94C80E1C8387E596EC9A838983A4
:10178000BE016C5F7F4FCE0101960E94C80E1C8384
:1017900080EC94E99A838983BE016C5F7F4FCE0110
:1017A00001960E94C80E1C838CE292EC9A83898376
:1017B000BE016C5F7F4FCE0101960E94C80E1C8354
:1017C00081E89AEC9A838983BE016C5F7F4FCE01DA
:1017D00001960E94C80E1C8384ED9EEC9A83898337
:1017E000BE016C5F7F4FCE0101960E94C80E1C8324
:1017F00087EF94EC9A838983BE016C5F7F4FCE01A3
:1018000001960E94C80E1C8380E298E99A8389831E
:10181000BE016C5F7F4FCE0101960E94C80E1C83F3
:1018200086E69CEC9A838983BE016C5F7F4FCE0174
:1018300001960E94C80E1C8380E090EE9A838983F3
:10184000BE016C5F7F4FCE0101960E94C80E1C83C3
:1018500080E098EC9A838983BE016C5F7F4FCE0154
:1018600001960E94C80E1C8380E090EC9A838983C5
:10187000BE016C5F7F4FCE0101960E94C80E1B8394
:101880008EE994E09F938F93CE0103969F938F935D
:101890000E94BE0064EF71E080E090E00E94B51D00
:1018A00040E050E060E27BE080E00E94A8140F90EE
:1018B0000F900F900F900F900F900F900F90DF915F
:1018C000CF911F910895CF93DF93CDB7DEB72C97BB
:1018D0000FB6F894DEBF0FBECDBF2BE0E7E0F1E01E
:1018E000DE01119601900D922A95E1F7DA012C9113
:1018F00011963C9111971296EC91129713964C9178
:101900004A83EB833C832D83FC0180818F83DB0141
:101910008C9188878BE08C8721E0AE01445F5F4F1C
:10192000BE016F5F7F4F81E696E00E94EA070E944A
:101930009B0A2C960FB6F894DEBF0FBECDBFDF9189
:10194000CF910895CF92DF92EF92FF920F931F9362
:10195000CF93DF9300D0CDB7DEB78C01FC0180813F
:1019600091812281338141E049833F932F939F935B
:101970008F9382EB94E09F938F93EE24E394F12C6A
:10198000EC0EFD1EFF92EF920E94BE009BE4C92E5A
:10199000C98221E4D22EDA82A801B701CE010296D3
:1019A0000E94630C62E370E080E090E00E94B51D4D
:1019B000C982DA82A801B701CE0102960E94630CA7
:1019C0000FB6F894DEBF0FBECDBF0F900F90DF9122
:1019D000CF911F910F91FF90EF90DF90CF900895DE
:1019E000EF92FF920F931F93CF93DF9300D0CDB769
:1019F000DEB78C01FC01808191812281338141E03D
:101A000049833F932F939F938F9381EC94E09F930F
:101A10008F93EE24E394F12CEC0EFD1EFF92EF92D7
:101A20000E94BE0083E5898380E58A83A801B7010F
:101A3000CE0102960E94630C0FB6F894DEBF0FBE73
:101A4000CDBF0F900F90DF91CF911F910F91FF901D
:101A5000EF900895FC014FEF5FEFBA01408351838F
:101A600062837383448355836683778380E797E13A
:101A700091878087128613861486158616860895A8
:101A8000CF92DF92EF92FF920F931F93CF93DF934A
:101A90001F92CDB7DEB77C016B01FC0143855485F5
:101AA00065857685452B462B472B09F45FC040851D
:101AB0005185848195812681378119825F934F9367
:101AC0003F932F939F938F9384ED94E09F938F93F5
:101AD000CE0101969F938F930E94BE00C6010E9483
:101AE0002F0AFC016081718182819381F701038556
:101AF000148525853685601B710B820B930B22851F
:101B000030E040E050E00E94C825C901845496416D
:101B10000FB6F894DEBF0FBECDBF8935924020F4DA
:101B2000F7013187208705C080E797E1F7019187AA
:101B30008087F70140855185848195812681378191
:101B400019825F934F933F932F939F938F9387EFC8
:101B500094E09F938F93CE0101969F938F930E9461
:101B6000BE000FB6F894DEBF0FBECDBFC6010E9407
:101B70002F0AFC014081518162817381F7018085C8
:101B80009185480F591F611D711D408351836283E8
:101B9000738381E08287C6010E942F0AFC01408185
:101BA000518162817381F701438754876587768706
:101BB0000F90DF91CF911F910F91FF90EF90DF90E9
:101BC000CF900895CF92DF92EF92FF92CF93DF9361
:101BD000EC01C880D980EA80FB800E94791DC6167E
:101BE000D706E806F90638F44FEF5FEFBA014883ED
:101BF00059836A837B83CE01DF91CF91FF90EF9071
:101C0000DF90CF900895CF93DF931F92CDB7DEB7CB
:101C1000FC01808591854081518162817381480FEB
:101C2000591F611D711D40835183628373838285B7
:101C30008F5F8287948125813681E781F1E0F98386
:101C40001F928F937F936F935F934F93EF933F9385
:101C50002F939F938AE195E09F938F93CE010196F6
:101C60009F938F930E94BE000FB6F894DEBF0FBE05
:101C7000CDBF0F90DF91CF910895FB01408151813D
:101C800062817381FC014483558366837783089561
:101C90009C012C5F3F4FC9010895FF920F931F9342
:101CA000CF93DF931F92CDB7DEB740E052EC61E0F7
:101CB00070E08AEE96E00E94C210FF24F394F9824D
:101CC00080E595E09F938F938E010F5F1F4F1F93C9
:101CD0000F930E94BE008AE796E00E944407F982B3
:101CE00081E695E09F938F931F930F930E94BE0010
:101CF0000FB6F894DEBF0FBECDBF0F90DF91CF912E
:101D00001F910F91FF9008958AE796E00C945D066D
:101D1000882311F02A9808952A9A089580E00E9455
:101D2000880E229A61E08AE00E94821E61E08DE0C6
:101D30000E944A1E61E08BE00E944A1E61E08AE038
:101D40000E944A1E60E08CE00E944A1E80E58CBD25
:101D500060E082E00E944A1E61E082E00E94821EF2
:101D60008DB581608DBD8CB58D7F8CBD8CB581604E
:101D70008CBD8CB5877F8CBD8CB58B7F8CBD089559
:101D8000FC0180818EBD0DB407FEFDCF8EB5089598
:101D9000CF92DF92EF92FF920F931F93CF93DF9337
:101DA0001F92CDB7DEB77C016B01FB0180818111F1
:101DB0002A98F70181818983CE0101960E94C00E85
:101DC000182F00E0F70180818983CE0101960E94DF
:101DD000C00E082BF6018081882319F080E00E9454
:101DE000880EC8010F90DF91CF911F910F91FF9046
:101DF000EF90DF90CF900895DF92EF92FF920F93D4
:101E00001F93CF93DF93EC017B011882D12C8AEED4
:101E100096E00E94690F892BE1F08E010D0D111DD6
:101E20008AEE96E00E94980FF8018083D3940D2DDE
:101E300010E0FE01E00FF11F319760818AEE96E01D
:101E40000E941C12F701808190E001970817190782
:101E500039F0FE01ED0DF11D319780818D30B9F61D
:101E600062E471E08AEE96E00E946B128AEE96E0E0
:101E70000E94BA0FCD0DD11D1882DF91CF911F9115
:101E80000F91FF90EF90DF900895CF93DF93CDB740
:101E9000DEB760970FB6F894DEBF0FBECDBF8FE000
:101EA000888BBE01605F7F4FCE0101960E94FC0EC1
:101EB00040E050E060E070E0CE0101960E944128D1
:101EC00060960FB6F894DEBF0FBECDBFDF91CF9105
:101ED0000895FC0184859585FC01E05CFF4F20811D
:101EE0003181FC01EE5BFF4F80819181281B390B12
:101EF0002F733327C9010895FC0184859585FC0162
:101F0000E05CFF4F40815181FC01EE5BFF4F20817F
:101F100031814217530741F00190F081E02DE80F25
:101F2000F91F208130E002C02FEF3FEFC901089573
:101F3000FC0184859585FC01E05CFF4F4081518167
:101F4000FC01EE5BFF4F208131814217530771F096
:101F5000A081B181A80FB91F2C9180819181019638
:101F60008F7399279183808330E002C02FEF3FEF7A
:101F7000C9010895FC0186859785FC01E05CFF4F4F
:101F8000DC01AE5BBF4F408151812D913C91119797
:101F900042175307C1F70895CF93DF93FC012685BD
:101FA0003785D901A05CBF4F8D919C911197019607
:101FB0008F739927E901CE5BDF4F488159818417E0
:101FC0009507D9F30D90BC91A02DA20FB31F6C9370
:101FD000A685B785A05CBF4F11969C938E93A6896A
:101FE000B7892C9181E090E0058C02C0880F991F81
:101FF0000A94E2F7282B2C9381E090E0DF91CF91B7
:10200000089508951F920F920FB60F9211242F93E7
:102010003F934F938F939F93EF93FF934091C6000D
:1020200080918D0790918E0701968F73992720914B
:102030008F07309190078217930759F0E0918D0731
:10204000F0918E07E35BF84F408390938E07809367
:102050008D07FF91EF919F918F914F913F912F911C
:102060000F900FBE0F901F9018958AEE96E00E9479
:10207000690F892B11F00C94011008951F920F9293
:102080000FB60F9211242F933F938F939F93EF934B
:10209000FF932091490730914A0780914B07909117
:1020A0004C072817390731F48091C1008F7D809348
:1020B000C10014C0E0914B07F0914C07E75FF84F67
:1020C000208180914B0790914C0701968F7399273F
:1020D00090934C0780934B072093C600FF91EF919C
:1020E0009F918F913F912F910F900FBE0F901F9056
:1020F00018954F925F926F927F928F92AF92BF929C
:10210000CF92DF92EF92FF920F931F93CF93DF93C3
:10211000CDB7DEB7FC011382128288EE482E83E031
:10212000582E612C712C448255826682778283E717
:1021300095E0918380837587648757874687318BC5
:10214000208B138B028BF58AE48AD78AC68AB18EDC
:10215000A08E828E8A89838F8B89848F8C89858FCC
:102160008D89868FDF91CF911F910F91FF90EF9016
:10217000DF90CF90BF90AF908F907F906F905F90E7
:102180004F900895CF92DF92EF92FF92CF93DF931B
:10219000EC016A017B01411581EE5807610571056B
:1021A000F9F0EC89FD8981E090E00E8C02C0880F87
:1021B000991F0A94E2F7808360E079E08DE390E074
:1021C000A70196010E94C8252150310941095109F2
:1021D0005695479537952795211580E1380798F052
:1021E000EC89FD89108260E874E88EE190E0A70137
:1021F00096010E94C825215031094109510956957F
:10220000479537952795E889F9893083EA89FB89CD
:102210002083EE89FF89408181E090E09C010A8C57
:1022200002C0220F331F0A94E2F7422B4083EE894B
:10223000FF8940819C010B8C02C0220F331F0A943E
:10224000E2F7422B4083EE89FF8940819C010C8C90
:1022500002C0220F331F0A94E2F7422B4083EE891B
:10226000FF8920810D8C02C0880F991F0A94E2F724
:10227000809582238083DF91CF91FF90EF90DF9054
:10228000CF900895CF93DF93FC0186859785DC017D
:10229000A05CBF4FEC01CE5BDF4F4D915C9111977D
:1022A0002881398142175307C1F7A689B7894C9114
:1022B00081E090E09C01028C02C0220F331F0A943F
:1022C000E2F7209524232C93A689B7894C919C0191
:1022D000038C02C0220F331F0A94E2F720952423B7
:1022E0002C93A689B7894C919C01048C02C0220FC3
:1022F000331F0A94E2F7209524232C93A689B789EB
:102300002C91058C02C0880F991F0A94E2F78095E2
:1023100082238C9384859585FC01EE5BFF4F2081A1
:102320003181FC01E05CFF4F31832083DF91CF914D
:10233000089581E00895CF92DF92EF92FF920F937C
:102340001F93CF93DF936C01EB017A01E60EF71E2A
:1023500000E010E00BC06991D601ED91FC91019075
:10236000F081E02DC6010995080F191FCE15DF0574
:1023700091F7C801DF91CF911F910F91FF90EF90DE
:10238000DF90CF900895EF92FF920F931F93CF931A
:10239000DF937C01EB0100E010E0FE0121966491E7
:1023A000662351F0F701A081B181ED91FC91C70145
:1023B0000995080F191FF1CFC801DF91CF911F9127
:1023C0000F91FF90EF900895AF92BF92CF92DF925E
:1023D000EF92FF920F931F93CF93DF937C016B01DA
:1023E00000E010E0C0E0D0E011C0D701ED91FC9119
:1023F000A080B180B801C6010E94091A682FC701E8
:10240000F5010995C80FD91F0F5F1F4FD60114960C
:102410008D919C9115970817190738F3CE01DF911C
:10242000CF911F910F91FF90EF90DF90CF90BF90D1
:10243000AF9008950C94B825DC01ED91FC910190CA
:10244000F081E02D0994DB01ED91FC911197019051
:10245000F081E02DBC01CD0109940F931F93CF9320
:10246000DF93EC016DE00E941C128C016AE0CE014A
:102470000E941C129C01200F311FC901DF91CF91D6
:102480001F910F9108950F931F93CF93DF93EC014A
:102490000E94C3118C01CE010E942D129C01200FBD
:1024A000311FC901DF91CF911F910F9108950F93B3
:1024B0001F93CF93DF93EC010E94E4118C01CE01B6
:1024C0000E942D129C01200F311FC901DF91CF9175
:1024D0001F910F9108950F931F93CF93DF93EC01FA
:1024E0000E94B8258C01CE010E942D129801280F60
:1024F000391FC901DF91CF911F910F9108950F935B
:102500001F93CF93DF93EC010E941C128C01CE012C
:102510000E942D129C01200F311FC901DF91CF9124
:102520001F910F9108950F931F93CF93DF93EC01A9
:102530000E9423128C01CE010E942D129C01200FBB
:10254000311FC901DF91CF911F910F9108955F92C3
:102550006F927F928F929F92AF92BF92CF92DF92B3
:10256000EF92FF920F931F93CF93DF93CDB7DEB718
:10257000A1970FB6F894DEBF0FBECDBF3C016A0134
:102580007B01522E19A281E0821710F08AE0582EAA
:102590008E010F5D1F4F852C912CA12CB12CC701F2
:1025A000B601A50194010E94C8258C2D529E801968
:1025B0001124015011098A3010F4805D01C0895C3A
:1025C000F801808369017A01C114D104E104F104A6
:1025D00031F7B801C3010E94B825A1960FB6F8944F
:1025E000DEBF0FBECDBFDF91CF911F910F91FF9046
:1025F000EF90DF90CF90BF90AF909F908F907F90A3
:102600006F905F9008952115310541F4DC01ED9143
:10261000FC910190F081E02D642F09940C94A71295
:102620000F931F93CF93DF93EC010E9403138C0150
:10263000CE010E942D129C01200F311FC901DF9194
:10264000CF911F910F9108959A01AB0160E070E066
:102650000C9403130F931F93CF93DF93EC019A0114
:10266000AB0160E070E00E9403138C01CE010E9478
:102670002D129801280F391FC901DF91CF911F91A9
:102680000F9108959A01462F50E060E070E00C949D
:1026900003130F931F93CF93DF93EC019A01462FFF
:1026A00050E060E070E00E9403138C01CE010E94B4
:1026B0002D129801280F391FC901DF91CF911F9169
:1026C0000F910895CF92DF92EF92FF920F931F9395
:1026D000CF93DF93EC016A017B012115310579F479
:1026E000E881F9810190F081E02D642FDF91CF9195
:1026F0001F910F91FF90EF90DF90CF9009942A30B7
:10270000310519F477FD0EC02AE0B701A601CE010C
:10271000DF91CF911F910F91FF90EF90DF90CF90BD
:102720000C94A7126DE20E941C128C0144275527BD
:10273000BA014C195D096E097F092AE0CE010E9499
:10274000A7129C01200F311FC901DF91CF911F916A
:102750000F91FF90EF90DF90CF9008950F931F930C
:10276000CF93DF93EC010E9462138C01CE010E9493
:102770002D129C01200F311FC901DF91CF911F91B4
:102780000F9108959A01AB01662757FD6095762F4A
:102790000C9462130F931F93CF93DF93EC019A0174
:1027A000AB01662757FD6095762F0E9462138C015E
:1027B000CE010E942D129801280F391FC901DF9107
:1027C000CF911F910F9108954F925F926F927F92D8
:1027D0008F929F92AF92BF92CF92DF92EF92FF9231
:1027E0000F931F93CF933C014A015B01C22F20E05E
:1027F00030E0A901C501B4010E94742287FF0AC01C
:102800006DE2C3010E941C122C01B7FAB094B7F814
:10281000B09402C0412C512C10E060E070E080E0E8
:102820009FE307C020E030E040E251E40E94A22193
:102830001F5F1C13F7CF262F372F482F592FC501A5
:10284000B4010E946120962EA72EB82EC92E0E9498
:10285000E21ED62EE72EF82E192F0E944E239B0142
:10286000AC01692D7A2D8B2D9C2D0E948D20C62EBA
:10287000B72EA82E992E2AE04D2D5E2D6F2D712F8B
:10288000C3010E94A7128C01040D151DCC23B9F1C0
:1028900065EE72E0C3010E94B825080F191F2FC012
:1028A00020E030E040E251E46C2D7B2D8A2D992D03
:1028B0000E94BD204B015C01792D9B2D0E94FF22BF
:1028C0006B01EE24D7FCE094FE2C2AE030E0B70147
:1028D000A601C3010E946213080F191FC701B601A8
:1028E0000E94A3229B01AC01682D792D8A2D9B2D7E
:1028F0000E948D20C62EB72EA82E992EC150C11130
:10290000CFCFC801CF911F910F91FF90EF90DF9033
:10291000CF90BF90AF909F908F907F906F905F907F
:102920004F9008950C94E4130F931F93CF93DF936C
:10293000EC010E94E4138C01CE010E942D1298013B
:10294000280F391FC901DF91CF911F910F91089571
:102950008230E8F4E82FF0E0EE0FFF1FEF56F84F5B
:1029600071836083813041F0809169008C7F842B7A
:1029700080936900E89A089580916900440F551F7B
:10298000440F551F837F842B80936900E99A089533
:10299000823068F4813011F0E89801C0E998E82F9E
:1029A000F0E0EE0FFF1FEF56F84F118210820895EE
:1029B0001F920F920FB60F9211242F933F934F93B4
:1029C0005F936F937F938F939F93AF93BF93EF9397
:1029D000FF938091910790919207892B29F0E091C4
:1029E0009107F09192070995FF91EF91BF91AF91F7
:1029F0009F918F917F916F915F914F913F912F9117
:102A00000F900FBE0F901F9018951F920F920FB648
:102A10000F9211242F933F934F935F936F937F9364
:102A20008F939F93AF93BF93EF93FF9380919307FF
:102A300090919407892B29F0E0919307F0919407E6
:102A40000995FF91EF91BF91AF919F918F917F91E8
:102A50006F915F914F913F912F910F900FBE0F900B
:102A60001F901895FC01808191810C94DD26CF93F5
:102A7000DF93EC0188819981009711F00E94DD2697
:102A8000198218821D821C821B821A82DF91CF91CB
:102A900008950F931F93CF93DF93EC018B016F5F2A
:102AA0007F4F888199810E947927009731F099831F
:102AB00088831B830A8381E001C080E0DF91CF918E
:102AC0001F910F910895CF93DF93EC018881998135
:102AD000892B31F08A819B818617970708F00CC0FB
:102AE000CE010E944915882349F08C819D81892B54
:102AF00019F4E881F981108281E001C080E0DF9162
:102B0000CF910895EF92FF920F931F93CF93DF938E
:102B1000EC017B018A01BA010E946315811104C096
:102B2000CE010E94371507C01D830C83B701888131
:102B300099810E94AA29CE01DF91CF911F910F9117
:102B4000FF90EF900895DC0111961C921E9213964F
:102B50001C921E92129715961C921E92149716960E
:102B60001C926115710559F0DB010D900020E9F709
:102B7000AD0141505109461B570B0C948215089525
:102B8000CF93DF93EC01FB018617970761F060811B
:102B900071816115710529F0448155810E9482156A
:102BA00002C00E943715CE01DF91CF910895FC013C
:102BB00011821082138212821582148216820C9462
:102BC000C015CF93DF93D82FC92F6115710561F020
:102BD000DB010D900020E9F7AD0141505109461B82
:102BE000570B0E94821502C00E9437158D2F9C2F13
:102BF000DF91CF9108950F931F93CF93DF93CDB7BC
:102C0000DEB7A1970FB6F894DEBF0FBECDBF8C0123
:102C1000CB01BA01F801118210821382128215824F
:102C20001482168230E0AE014F5F5F4F0E945D2A32
:102C3000BE016F5F7F4FC8010E94E115A1960FB6DC
:102C4000F894DEBF0FBECDBFDF91CF911F910F91E2
:102C500008950F931F93CF93DF93CDB7DEB7A2975D
:102C60000FB6F894DEBF0FBECDBF8C01CB01BA0109
:102C7000F801118210821382128215821482168248
:102C800030E0AE014F5F5F4F0E94142ABE016F5FBC
:102C90007F4FC8010E94E115A2960FB6F894DEBFDF
:102CA0000FBECDBFDF91CF911F910F9108950F936C
:102CB0001F93CF93DF93CDB7DEB761970FB6F8942C
:102CC000DEBF0FBECDBF8C01CB01F8011182108297
:102CD0001382128215821482168250E0BE016F5F49
:102CE0007F4F0E94822ABE016F5F7F4FC8010E9402
:102CF000E11561960FB6F894DEBF0FBECDBFDF9130
:102D0000CF911F910F9108950F931F93CF93DF934E
:102D1000CDB7DEB762970FB6F894DEBF0FBECDBF5A
:102D20008C01CB01F801118210821382128215826C
:102D30001482168250E0BE016F5F7F4F0E94F3291C
:102D4000BE016F5F7F4FC8010E94E11562960FB60A
:102D5000F894DEBF0FBECDBFDF91CF911F910F91D1
:102D600008950F931F93CF93DF93CDB7DEB72997C5
:102D70000FB6F894DEBF0FBECDBF8C01862FF801D1
:102D8000118210821382128215821482168250E000
:102D9000BE016F5F7F4F90E00E94822ABE016F5F8D
:102DA0007F4FC8010E94E11529960FB6F894DEBF47
:102DB0000FBECDBFDF91CF911F910F910895CF939B
:102DC000DF9300D0CDB7DEB7FC01118210821382F1
:102DD000128215821482168269831A82BE016F5F85
:102DE0007F4F0E94E1150F900F90DF91CF910895D2
:102DF000EF92FF920F931F93CF93DF93EC017B0130
:102E00000C811D816115710511F480E016C041151A
:102E1000510591F0040F151FB8010E946315882316
:102E2000A1F3288139818C819D81B701820F931F85
:102E30000E94AA291D830C8381E0DF91CF911F910D
:102E40000F91FF90EF900895FB01448155816081BF
:102E500071810C94F8166115710559F0DB010D9024
:102E60000020E9F7AD0141505109461B570B0C9466
:102E7000F81680E00895CF93DF9300D0CDB7DEB78A
:102E800069831A8241E050E0BE016F5F7F4F0E946C
:102E9000F8160F900F90DF91CF910895EF92FF9267
:102EA0000F931F93CF93DF9300D000D0CDB7DEB741
:102EB0007C01862F4AE050E08E010F5F1F4FB80162
:102EC00090E00E94F329F80101900020E9F7AF019A
:102ED00041505109401B510BB801C7010E94F8161F
:102EE0000F900F900F900F90DF91CF911F910F9146
:102EF000FF90EF900895EF92FF920F931F93CF935F
:102F0000DF93CDB7DEB727970FB6F894DEBF0FBEBD
:102F1000CDBF7C01CB014AE050E08E010F5F1F4F17
:102F2000B8010E94F329F80101900020E9F7AF01F0
:102F300041505109401B510BB801C7010E94F816BE
:102F400027960FB6F894DEBF0FBECDBFDF91CF91AD
:102F50001F910F91FF90EF900895EF92FF920F93C2
:102F60001F93CF93DF9300D000D000D0CDB7DEB752
:102F70007C01CB014AE050E08E010F5F1F4FB8018A
:102F80000E94822AF80101900020E9F7AF01415028
:102F90005109401B510BB801C7010E94F816269633
:102FA0000FB6F894DEBF0FBECDBFDF91CF911F915A
:102FB0000F91FF90EF900895EF92FF920F931F9360
:102FC000CF93DF93CDB7DEB72C970FB6F894DEBF63
:102FD0000FBECDBF7C01CB01BA012AE030E08E01EB
:102FE0000F5F1F4FA8010E94142AF80101900020D2
:102FF000E9F7AF0141505109401B510BB801C7011E
:103000000E94F8162C960FB6F894DEBF0FBECDBF07
:10301000DF91CF911F910F91FF90EF900895EF9264
:10302000FF920F931F93CF93DF93CDB7DEB72B970C
:103030000FB6F894DEBF0FBECDBF7C01CB01BA0145
:103040002AE030E08E010F5F1F4FA8010E945D2A29
:10305000F80101900020E9F7AF0141505109401BF0
:10306000510BB801C7010E94F8162B960FB6F894C1
:10307000DEBF0FBECDBFDF91CF911F910F91FF90AB
:10308000EF900895CF93DF93D82FC92FFB01448190
:103090005581608171810E94F816811104C08D2FC5
:1030A0009C2F0E9437158D2F9C2FDF91CF91089573
:1030B000CF93DF93D82FC92F6115710569F0DB011C
:1030C0000D900020E9F7AD0141505109461B570B07
:1030D0000E94F816811104C08D2F9C2F0E94371575
:1030E0008D2F9C2FDF91CF910895CF93DF93D82F11
:1030F000C92F0E943B17811104C08D2F9C2F0E9465
:1031000037158D2F9C2FDF91CF910895CF93DF93AB
:10311000D82FC92F0E944E17811104C08D2F9C2FCC
:103120000E9437158D2F9C2FDF91CF910895CF935B
:10313000DF93D82FC92F0E947B17811104C08D2FD8
:103140009C2F0E9437158D2F9C2FDF91CF910895D2
:10315000CF93DF93D82FC92F0E94AD17811104C0E0
:103160008D2F9C2F0E9437158D2F9C2FDF91CF9193
:103170000895CF93DF93D82FC92F0E94DC178111B8
:1031800004C08D2F9C2F0E9437158D2F9C2FDF910F
:10319000CF910895CF93DF93D82FC92F0E940F1896
:1031A000811104C08D2F9C2F0E9437158D2F9C2FCD
:1031B000DF91CF910895CF93DF93DC01ED91FC91E6
:1031C000EB01A881B981309711F01097C9F41097DD
:1031D00059F0EB012C813D81232B31F02C9130E013
:1031E00031952195310914C0309781F0DC01149696
:1031F0008D919C911597892B49F0208130E008C072
:10320000BD01CF01DF91CF910C94A12920E030E0E6
:10321000C901DF91CF910895FC0144815581FB01E3
:10322000248135814217530729F40E94DB1821E0DD
:10323000892B09F020E0822F0895DC0114962D914E
:103240003C911597232B39F481E06115710511F03C
:10325000FB0108C00895DC01ED91FC916115710539
:1032600029F481E09081992349F007C0CF010E94A1
:10327000A1299C0181E0232B09F080E008950E94A0
:10328000DB18892F881F8827881F08950E94DB1864
:1032900021E0181619060CF020E0822F08950E94F4
:1032A000DB1821E0181619060CF420E0822F08958F
:1032B0000E94DB18892F8095881F8827881F089512
:1032C000EF92FF920F931F93CF93DF938617970789
:1032D00009F1FC0124813581FB01448155812417CA
:1032E0003507D1F4232BB1F0C081D181FC010081DD
:1032F00011810BC090E00E946B297C01899190E0C4
:103300000E946B29E816F90639F4F80181918F01C2
:103310008111F0CF81E001C080E0DF91CF911F915A
:103320000F91FF90EF900895FA01DB0114964D91F3
:103330005C911597DC0114962D913C911597241BF7
:10334000350B2E173F0790F08D919C91009771F0EF
:10335000DB016D917C916115710541F08E0F9F1F0E
:103360000E94B1299C0181E0232B09F080E008959F
:10337000FC0144815581FB012481358142175307AB
:1033800020F040E050E00C94941980E00895FC0196
:1033900084819581DB0114964D915C91159784177A
:1033A0009507A0F0208131812115310579F06D91CB
:1033B0007C916115710551F0841B950B820F931F51
:1033C0000E94A1299C0181E0232B09F080E008954F
:1033D000DC0114962D913C9115976217730728F420
:1033E000ED91FC91E60FF71F40830895FC012481C5
:1033F00035816217730720F480819181009729F449
:103400001092950765E977E002C0680F791FCB013C
:103410000895FC01248135816217730748F4808187
:103420009181009729F0FC01E60FF71F8081089534
:1034300080E008950C94091A0F931F93CF93DF93A4
:10344000EB0141155105E9F02097D9F0FC01048109
:1034500015812017310708F013C041505109021B94
:10346000130B4017510708F48A01FC016081718138
:10347000620F731FA801CE010E94BF29C00FD11F88
:103480001882DF91CF911F910F910895CF93DF9311
:10349000FC01848195814817590770F4C081D1815E
:1034A00070E0CE01840F951F0E949629009721F0AD
:1034B0009C012C1B3D0B02C02FEF3FEFC901DF9198
:1034C000CF91089540E050E00C94461ACF93DF93DB
:1034D000FC01848195814817590780F4C081D1810E
:1034E000FB0160817181CE01840F951F0E94D92953
:1034F000009721F09C012C1B3D0B02C02FEF3FEFEA
:10350000C901DF91CF91089540E050E00C94661A14
:10351000DF92EF92FF920F931F93CF93DF93EC0113
:103520008C819D814817590718F02FEF3FEF1BC082
:103530008A010F5F1F4FE881F981E00FF11FD080F2
:103540001082E880F98070E0C7010E94CE29F7015F
:10355000E00FF11FD082009741F328813981AC013F
:10356000421B530B9A01C901DF91CF911F910F911B
:10357000FF90EF90DF900895FC0144815581415008
:1035800051090C94881AAF92BF92CF92DF92EF92BA
:10359000FF920F931F93CF93DF936B018A01FB017F
:1035A000448155814115510569F1FC012481358122
:1035B0002115310539F12417350720F102171307BA
:1035C00018F0890101501109FC01E080F180C70168
:1035D000CFEFDFEF5701A00EB11E10C0F6016081E2
:1035E00071810E94D929009779F09C012E193F0919
:1035F0000217130708F49E010196E901A816B906FF
:1036000068F702C0CFEFDFEFCE01DF91CF911F91BE
:103610000F91FF90EF90DF90CF90BF90AF90089503
:10362000FC0144815581FB0124813581421B530BF0
:103630000C94C31ABF92CF92DF92EF92FF920F9336
:103640001F93CF93DF936C017B01EA01890124175B
:10365000350720F48D2FE901042F182F62E471E063
:10366000C6010E94A315D70114968D919C911597C0
:103670008C179D07C8F08017910708F48C01D701BB
:10368000ED91FC911197E00FF11FB08010826D91C8
:103690007C916C0F7D1FC6010E94E115D701ED9151
:1036A000FC91E00FF11FB082C601DF91CF911F9115
:1036B0000F91FF90EF90DF90CF90BF900895CF9340
:1036C000DF93EC01FB01248135810E941A1BCE019E
:1036D000DF91CF910895DC01ED91FC91309729F4B1
:1036E0000895861301C04083319680818111F9CFFE
:1036F00008952F923F924F925F926F927F928F9296
:103700009F92AF92BF92CF92DF92EF92FF920F9370
:103710001F93CF93DF938C015B017A01DC01149638
:103720006D907C9015976114710409F4E1C0FB0160
:10373000448055804114510409F4DAC0DA0114962A
:10374000CD90DC901597C418D508FC01C081D181BB
:10375000C114D104E1F411C0D7016C9111967C9190
:10376000119714964D915C911597C8010E947B2981
:10377000F701C481D581C00FD11FD5016D917C9116
:10378000CE010E94D9298C01009731F7B1C0D7FE34
:1037900002C04E012FC0FB012080318043014EC08A
:1037A00023014C1A5D0AA201BE01C4010E947B29BB
:1037B000E401C40DD51DD7016C9111967C91119730
:1037C00014964D915C911597CE010E947B29F701CB
:1037D000848095808C0E9D1ED5011496CD91DC9130
:1037E0001597C60DD71DF801848195818C0D9D1DFF
:1037F00095838483D5016D917C91CE010E94D92956
:103800003C01009769F6BE01C401DF91CF911F9181
:103810000F91FF90EF90DF90CF90BF90AF909F906F
:103820008F907F906F905F904F903F902F900C946F
:10383000AA29EC01C40DD51D8C0C9D1CB101CE0133
:103840000E94D9290097A9F78614970409F450C05B
:10385000F801828193818815990598F4B401C80113
:103860000E944915882309F443C00BC0D7FD40C00E
:10387000AE01B501C8010E94C31AEC0197FF07C051
:1038800037C0D8011496CD91DC9115972FC0F8015F
:1038900080819181D50114962D913C9115972C0F23
:1038A0003D1F820F931F44815581421B530BBC0166
:1038B0008C0D9D1D0E948429F801848195818C0DB9
:1038C0009D1D958384830190F081E02DE80FF91F01
:1038D0001082D8012D913C912C0F3D1FF701608182
:1038E000718144815581C9010E947B292197BECFF6
:1038F000DF91CF911F910F91FF90EF90DF90CF90CC
:10390000BF90AF909F908F907F906F905F904F90FF
:103910003F902F900895CF93DF93FC01C081D18118
:10392000209729F407C090E00E946B298993888131
:103930008111F9CFDF91CF910895CF93DF93FC01EF
:10394000C081D181209729F407C090E00E9473299B
:10395000899388818111F9CFDF91CF910895AF923A
:10396000BF92CF92DF92EF92FF920F931F93CF936C
:10397000DF936C01DC01ED90FC901197E114F104F0
:1039800009F442C014960D911C911597011511056B
:10399000D9F15701E501BFEFAB1ABB0A888190E06E
:1039A0000E946329892BB1F7015011090E0D1F1DCB
:1039B000F801808190E00E946329892B69F40F5FF0
:1039C0001F4F0C1B1D0BD60115961C930E931497BD
:1039D000EC16FD0650F404C00C171D0790F4EFCF51
:1039E000A801BE01C7010E947B29D601ED91FC917F
:1039F000119714968D919C911597E80FF91F1082DD
:103A000003C001501109D4CFDF91CF911F910F91C5
:103A1000FF90EF90DF90CF90BF90AF900895FC01A2
:103A200080819181009711F00C943C2960E070E056
:103A300080E090E008950C9442260C94DD2621E06D
:103A400030E0FC018081882311F020E030E0C901E2
:103A5000089521E0FC0120830895089508951F92A0
:103A60000F920FB60F9211242F933F938F939F9332
:103A7000AF93BF938091960790919707A091980775
:103A8000B091990730919E07232F2D5F2D3720F499
:103A90000196A11DB11D05C0232F2A570296A11D15
:103AA000B11D20939E078093960790939707A0934C
:103AB0009807B093990780919A0790919B07A091DE
:103AC0009C07B0919D070196A11DB11D80939A0797
:103AD00090939B07A0939C07B0939D07BF91AF91D4
:103AE0009F918F913F912F910F900FBE0F901F903C
:103AF00018950F931F938FB7F89400919607109124
:103B0000970720919807309199078FBFB801C90195
:103B10001F910F9108950F931F939FB7F8940091F1
:103B20009A0710919B0720919C0730919D0786B5BD
:103B3000A89B06C08F3F21F00F5F1F4F2F4F3F4FB5
:103B40009FBF322F212F102F0027080F111D211D7D
:103B5000311D42E0000F111F221F331F4A95D1F77C
:103B6000B801C9011F910F910895CF92DF92EF9292
:103B7000FF92CF93DF936B017C010E948B1DEB01C1
:103B80000EC00E948B1D6C1B7D0B683E734038F08D
:103B900081E0C81AD108E108F108C851DC4FC1140E
:103BA000D104E104F10469F7DF91CF91FF90EF9028
:103BB000DF90CF900895019739F0880F991F880FF3
:103BC000991F02970197F1F70895789484B5826060
:103BD00084BD84B5816084BD85B5826085BD85B5B1
:103BE000816085BDEEE6F0E0808181608083E1E860
:103BF000F0E0108280818260808380818160808398
:103C0000E0E8F0E0808181608083E1EBF0E080819A
:103C100084608083E0EBF0E0808181608083EAE76C
:103C2000F0E08081846080838081826080838081F5
:103C3000816080838081806880831092C1000895B4
:103C4000833069F028F48130A1F0823011F514C07E
:103C50008630B1F08730C1F08430D9F404C080914F
:103C600080008F7703C0809180008F7D80938000DB
:103C7000089584B58F7702C084B58F7D84BD089583
:103C80008091B0008F7703C08091B0008F7D8093CA
:103C9000B0000895CF93DF9390E0FC01E458FF4F0C
:103CA0004491FC01E057FF4F8491882341F190E05B
:103CB000880F991FFC01E854FF4F25913491D901D9
:103CC00082559F4FFC0185919491C82FD92F9FB7A2
:103CD000F8948C91611106C0409584238C9388815F
:103CE000842308C0623041F4242F209582238C93D2
:103CF0008881842B888302C0842B8C939FBFDF91A3
:103D0000CF9108950F931F93CF93DF931F92CDB759
:103D1000DEB7282F30E0F901E859FF4F8491F9010F
:103D2000E458FF4F1491F901E057FF4F049100232D
:103D3000D1F0882321F069830E94201E6981E02F41
:103D4000F0E0EE0FFF1FE255FF4F85919491DC01EB
:103D50009FB7F8948C91611103C01095812301C025
:103D6000812B8C939FBF0F90DF91CF911F910F916B
:103D70000895CF93DF93282F30E0F901E859FF4FE2
:103D80008491F901E458FF4FD491F901E057FF4FB6
:103D9000C491CC2389F081110E94201EEC2FF0E009
:103DA000EE0FFF1FEC55FF4F85919491DC018C9134
:103DB0008D2321E030E011F420E030E0C901DF91F3
:103DC000CF910895CF92DF92EF92FF920F931F93BE
:103DD0006B017C0120E030E040E05FE40E9445227E
:103DE00087FD0EC020E030E040E05FE4C701B6018F
:103DF0000E948D200E94FF228B019C01305806C03A
:103E0000C701B6010E94FF228B019C01B801C901C4
:103E10001F910F91FF90EF90DF90CF900895A0E059
:103E2000B0E0E5E1FFE10C94EE253C01CB01EA01B5
:103E3000D3012C91223008F43EC1FB013081323095
:103E400008F436C1243071F4343009F034C11196CD
:103E50002C918181281709F42EC1B2E16B2EB1E0BB
:103E60007B2E29C1343009F423C1323091F4223041
:103E700009F021C128E0F301DA0101900D922A95A1
:103E8000E1F7DB0111968C91F301918189238983FC
:103E900011C1223009F40CC1D3011296ED91FC91AD
:103EA0001397DB0112966D917C911397D3011496B1
:103EB0000D911D912D913C911797DC011496CD9099
:103EC000DD90ED90FC901797AF01461B570BDA0180
:103ED00057FF04C0AA27BB27A41BB50BA032B1050E
:103EE0000CF065C0141615067CF5B701A6010A2E64
:103EF00004C076956795579547950A94D2F7812C1B
:103F0000912C5401839404C0880C991CAA1CBB1CDE
:103F1000AA95D2F7B1E08B1A9108A108B1088C20BC
:103F20009D20AE20BF20C12CD12C7601C3948114DA
:103F30009104A104B10419F4C12CD12C7601C42A36
:103F4000D52AE62AF72A3EC0452BE1F1EA0FFB1FEE
:103F5000B901A8010A2E04C0769567955795479533
:103F60000A94D2F7812C912C5401839404C0880CBC
:103F7000991CAA1CBB1CAA95D2F7A1E08A1A910829
:103F8000A108B10880229122A222B32201E010E010
:103F900020E030E081149104A104B10419F400E0A0
:103FA00010E09801042B152B262B372B0BC06E1716
:103FB0007F0724F4C12CD12C760104C0FB0100E062
:103FC00010E09801D30111964C91DC0111968C916F
:103FD000481709F442C0442349F0D701C601801BA9
:103FE000910BA20BB30B8C019D0104C00C191D0990
:103FF0002E093F0937FD04C01982FB83EA830BC0F9
:1040000081E08983FB83EA833095209510950195A3
:104010001F4F2F4F3F4F0C831D832E833F830DC0B7
:10402000880F991FAA1FBB1F8C839D83AE83BF83FC
:104030008A819B8101979B838A838C819D81AE813C
:10404000BF818C019D0101501109210931090F3FE8
:104050001F4F2F4F3F4320F30BC04983FB83EA835D
:104060000C0D1D1D2E1D3F1D0C831D832E833F83B4
:1040700083E088830C811D812E813F8137FF1AC028
:10408000D901C80181709927AA27BB2736952795A2
:1040900017950795802B912BA22BB32B8C839D8397
:1040A000AE83BF838A819B8101969B838A8302C0F2
:1040B0003C0101C03E01C301CDB7DEB7EEE00C9478
:1040C0000A26A0E2B0E0E7E6F0E20C94FA256D8F54
:1040D0007E8F8F8F98A3298F3A8F4B8F5C8FBE0175
:1040E0006F5E7F4FCE014D960E948524BE01675FB3
:1040F0007F4FCE0149960E948524AE014F5F5F4FEE
:10410000BE01675F7F4FCE0141960E940F1F0E9444
:10411000C423A096E2E00C941626A0E2B0E0E3E906
:10412000F0E20C94FA256D8F7E8F8F8F98A3298FE4
:104130003A8F4B8F5C8FBE016F5E7F4FCE014D96E5
:104140000E948524BE01675F7F4FCE0149960E9481
:1041500085248A8591E089278A87AE014F5F5F4F6A
:10416000BE01675F7F4FCE0141960E940F1F0E94E4
:10417000C423A096E2E00C941626A0E2B0E0E3ECA3
:10418000F0E20C94EC256D8F7E8F8F8F98A3298F92
:104190003A8F4B8F5C8FBE016F5E7F4FCE014D9685
:1041A0000E948524BE01675F7F4FCE0149960E9421
:1041B00085249989923008F412C08985823008F4E8
:1041C0001AC0943021F4823009F4B4C008C084309D
:1041D00021F4923009F4AEC00EC0923051F481E067
:1041E0002A899A85291301C080E08A8BCE014196E5
:1041F000A3C0823051F481E02A899A85291301C035
:1042000080E08A87CE01099697C08D889E88AF8806
:10421000B88C0D851E852F853889E0E2F0E080E0BE
:1042200090E0DC01C12CD12C760140E050E0BA01D5
:1042300080FE18C0400F511F621F731F8C0D9D1D03
:10424000AE1DBF1D412C512C320143944017510724
:104250006207730718F0412C512C3201840D951D13
:10426000A61DB71DCC0CDD1CEE1CFF1C37FF02C0C9
:104270006894C0F8000F111F221F331FB694A79433
:10428000979487943197A1F62B893C89EB85FC851F
:104290002E0F3F1F2E5F3F4F3C832B8321E0EA8987
:1042A0003A85E31301C020E02A83EB81FC810CC036
:1042B00080FF05C076956795579547957068B695C8
:1042C000A795979587953196B7FDF2CF9F010CC0C2
:1042D000880F991FAA1FBB1F77FD8160440F551FD0
:1042E000661F771F215031090097A105E0E4BE0742
:1042F00078F32B833C838C019D010F7711272227B4
:104300003327003411052105310559F487FD09C013
:10431000452B462B472B29F0805C9F4FAF4FBF4F5B
:1043200080788D839E83AF83B88783E08983CE01B5
:10433000019602C082E191E00E94C423A096E0E1D0
:104340000C940826A8E1B0E0E8EAF1E20C94F42528
:104350006D8B7E8B8F8B988F298B3A8B4B8B5C8BE5
:10436000BE01675F7F4FCE0145960E948524BE0146
:104370006F5F7F4FCE0141960E94852499859230D0
:1043800008F475C08981823008F474C02A853A81A6
:1043900023272A87943011F0923019F4981367C0BC
:1043A0006CC0843039F41D861E861F86188A1C86D0
:1043B0001B8604C0823029F484E08987CE010996E7
:1043C0005EC08B859C852B813C81821B930B9C87D7
:1043D0008B874D855E856F857889CD80DE80EF8007
:1043E000F8844C155D056E057F0538F4440F551FA4
:1043F000661F771F01979C878B87EFE1F0E000E055
:1044000010E020E030E480E090E0DC014C155D0538
:104410006E057F0540F0802B912BA22BB32B4C19FE
:104420005D096E097F093695279517950795440F05
:10443000551F661F771F319749F78C019D010F7734
:10444000112722273327003411052105310559F49E
:1044500087FD09C0452B462B472B29F0805C9F4FD9
:10446000AF4FBF4F80788D879E87AF87B88BCE01C7
:10447000099605C0CE01019602C082E191E00E943A
:10448000C4236896E8E00C941026A8E1B0E0EBE4C1
:10449000F2E20C94FA256D8B7E8B8F8B988F298B93
:1044A0003A8B4B8B5C8BBE01675F7F4FCE0145968D
:1044B0000E948524BE016F5F7F4FCE0141960E940E
:1044C00085248985823058F08981823040F0BE0190
:1044D0006F5F7F4FCE0109960E94F42401C08FEFD9
:1044E0006896E2E00C941626A8E1B0E0EAE7F2E272
:1044F0000C94FA256D8B7E8B8F8B988F298B3A8B42
:104500004B8B5C8BBE01675F7F4FCE0145960E944F
:104510008524BE016F5F7F4FCE0141960E948524A6
:104520008985823058F08981823040F0BE016F5F0A
:104530007F4FCE0109960E94F42401C081E0689665
:10454000E2E00C941626A8E0B0E0E9EAF2E20C946E
:10455000F82523E029838B019C01002737FD039573
:10456000112722273327402F0A8361157105810502
:10457000910519F482E0898335C02EE130E03C8357
:104580002B83442371F061157105810520E89207A2
:1045900071F1002711279801061B170B280B390B07
:1045A00002C08B019C01C901B8010E942726019716
:1045B000181619062CF00D831E832F83388712C01E
:1045C000082E04C0000F111F221F331F0A94D2F7B8
:1045D0000D831E832F8338872EE130E0281B390B93
:1045E0003C832B83CE0101960E94C42304C060E06B
:1045F00070E080E09FEC2896E4E00C941426ACE098
:10460000B0E0E5E0F3E20C94F82569877A878B87C0
:104610009C87BE016F5F7F4FCE0109960E94852463
:104620008981823091F1823080F1843041F48A8135
:10463000882331F100E010E020E030E829C02B8130
:104640003C8137FD22C02F3131058CF78EE190E09F
:10465000821B930B0D811E812F81388504C03695F6
:104660002795179507958A95D2F78A81882381F037
:1046700030952095109501951F4F2F4F3F4F08C043
:104680000FEF1FEF2FEF3FE703C000E010E09801AE
:10469000B801C9012C96E4E00C941426A8E0B0E01F
:1046A000E4E5F3E20C94F4258B019C011A82611578
:1046B00071058105910519F482E089835DC083E06D
:1046C00089834EE150E05C834B83C901B8010E94AD
:1046D0002726019797FF39C0EE27FF27E81BF90B24
:1046E00041E050E060E070E00E2E04C0440F551F22
:1046F000661F771F0A94D2F7415051096109710969
:104700004023512362237323C12CD12C7601C394FF
:10471000452B462B472B19F4C12CD12C760104C014
:104720003695279517950795EA95D2F70C291D29F7
:104730002E293F290D831E832F8338872EE130E0F9
:10474000281B390B3C832B8317C0009729F40D835A
:104750001E832F83388710C0082E04C0000F111F3E
:10476000221F331F0A94D2F70D831E832F833887AD
:10477000481B590B5C834B83CE0101960E94C423D6
:104780002896E8E00C9410260F931F93CF93FC011A
:104790004481558166817781C1818081823020F496
:1047A00060618FEF90E0A3C0843009F49BC0823039
:1047B00009F492C0411551056105710509F48FC0D6
:1047C0002281338122388FEF38070CF057C0E2E89E
:1047D000FFEFE21BF30BEA31F10564F58A019B015F
:1047E0000E2E04C036952795179507950A94D2F793
:1047F00081E090E0A0E0B0E004C0880F991FAA1FFC
:10480000BB1FEA95D2F70197A109B109842395232B
:10481000A623B72341E050E060E070E0892B8A2BAB
:104820008B2B19F440E050E0BA01402B512B622B46
:10483000732B03C040E050E0BA01DB01CA018F775F
:104840009927AA27BB2780349105A105B10539F422
:1048500047FF09C0405C5F4F6F4F7F4F04C0415C12
:104860005F4F6F4F7F4F81E090E04115510561052B
:1048700020E4720748F580E090E026C0203831053A
:104880008CF5DB01CA018F779927AA27BB278034D3
:104890009105A105B10539F447FF09C0405C5F4FA0
:1048A0006F4F7F4F04C0415C5F4F6F4F7F4F77FD6D
:1048B00004C0C90181589F4F07C0769567955795E9
:1048C0004795C90180589F4F97E076956795579512
:1048D00047959A95D1F70BC080E090E005C080E045
:1048E00090E005C08FEF90E040E050E0BA01982FD3
:1048F0009695C0FB97F9362F80FB37F9642F752FFB
:10490000832FCF911F910F910895CF92DF92EF9255
:10491000DC01FB01CC901196DC90119712968C91E2
:1049200012973FE7E32EE8226E2DA60170E0982F44
:10493000991F9927991F13962C91822F880F892BE5
:1049400090E027FB222720F92183009729F54115C4
:1049500051056105710511F482E027C082E89FEFDF
:104960009383828327E0440F551F661F771F2A9584
:10497000D1F783E0808309C0440F551F661F771F5E
:10498000828193810197938382834115510561054B
:1049900080E4780788F320C08F3F910579F44115B2
:1049A00051056105710519F484E0808319C0E4FEA6
:1049B00003C081E0808310C010820EC08F57910920
:1049C0009383828383E0808387E0440F551F661FB3
:1049D000771F8A95D1F77064448355836683778304
:1049E000EF90DF90CF900895CF93FC01DB01908191
:1049F000923008F452C08C91823008F44EC094304A
:104A000071F4843039F411962C9130E08181281BA7
:104A1000310948C08181882309F43FC03BC08430FC
:104A200029F411968C91811138C034C0923019F458
:104A30008230B9F735C0823069F3C18111968C910B
:104A40001197C8131DC02281338112968D919C91BC
:104A50001397821793070CF413C0281739070CF427
:104A600017C0448155816681778114968D919D91FF
:104A70000D90BC91A02D84179507A607B70718F4D1
:104A8000C11108C00AC0481759076A077B0740F4DC
:104A9000C11103C02FEF3FEF05C021E030E002C09D
:104AA00020E030E0C901CF91089581E696E00E94B0
:104AB000570788E995E00C94340A0E94E51D0E948E
:104AC0004D0E0E94840EFDCF8AE796E00C943501CE
:104AD0001092ED061092EC0688EE93E0A0E0B0E0B4
:104AE0008093EE069093EF06A093F006B093F10644
:104AF00083E795E09093EB068093EA068DE497E0D8
:104B00009093F7068093F60689E097E09093F90674
:104B10008093F80685EC90E09093FB068093FA066C
:104B200084EC90E09093FD068093FC0680EC90E08E
:104B30009093FF068093FE0681EC90E0909301072E
:104B40008093000786EC90E0909303078093020720
:104B500084E08093040783E08093050787E08093D7
:104B6000060785E08093070781E080930807089592
:104B7000DB010D900020E9F7AD0141505109461BC2
:104B8000570BDC01ED91FC910280F381E02D09943B
:104B9000A1E21A2EAA1BBB1BFD010DC0AA1FBB1F41
:104BA000EE1FFF1FA217B307E407F50720F0A21BB3
:104BB000B30BE40BF50B661F771F881F991F1A9420
:104BC00069F760957095809590959B01AC01BD014A
:104BD000CF0108952F923F924F925F926F927F92F2
:104BE0008F929F92AF92BF92CF92DF92EF92FF92FD
:104BF0000F931F93CF93DF93CDB7DEB7CA1BDB0BA9
:104C00000FB6F894DEBF0FBECDBF09942A8839884D
:104C100048885F846E847D848C849B84AA84B98454
:104C2000C884DF80EE80FD800C811B81AA81B98160
:104C3000CE0FD11D0FB6F894DEBF0FBECDBFED0174
:104C40000895EE0FFF1F0590F491E02D09940E9446
:104C5000302684FF0895CB010E943026805F08959E
:104C6000AA27992329F4A85F982B11F480E10895CD
:104C7000903118F4AD5F9295A395990FE8F78A2FBC
:104C8000992708950F931F93CF93DF938230910557
:104C900010F482E090E0E091A107F091A20720E0FB
:104CA00030E0C0E0D0E023C040815181481759076F
:104CB000A8F04817590761F482819381209719F071
:104CC0009B838A832EC09093A2078093A10729C05B
:104CD0002115310529F04217530710F0A90102C030
:104CE000BE01DF0102811381EF019A01F8013097C3
:104CF000D9F62115310509F1281B390B243031056E
:104D000090F412968D919C9113976115710521F085
:104D1000FB019383828304C09093A2078093A10731
:104D2000FD01329644C0FD01E20FF31F8193919380
:104D3000225031092D933C933AC020919F07309126
:104D4000A007232B41F420910301309104013093FB
:104D5000A00720939F0720910101309102012115A6
:104D6000310541F42DB73EB7409105015091060140
:104D7000241B350BE0919F07F091A007E217F30782
:104D8000A0F42E1B3F0B2817390778F0AC014E5FBB
:104D90005F4F2417350748F04E0F5F1F5093A00751
:104DA00040939F078193919302C0E0E0F0E0CF0130
:104DB000DF91CF911F910F910895EF92FF920F9382
:104DC0001F93CF93DF93009709F48EC0DC011297F5
:104DD00013961C921E921297E090A107F090A207E2
:104DE000E114F10489F42D913C911197280F391F9A
:104DF00080919F079091A0078217930789F5B09340
:104E0000A007A0939F0770C0E70120E030E001C039
:104E1000EA01CA17DB0738F44A815B819E0141151C
:104E20005105B1F722C0AC0142505109FA01D383B8
:104E3000C28300811181BC01600F711F6C177D0757
:104E400061F468817981600F711F6E5F7F4F71839C
:104E500060836A817B81738362832115310529F424
:104E6000B093A207A093A1073FC0F901B383A28327
:104E7000E90149915991C40FD51FAC17BD0771F4D1
:104E8000DC019E918E91840F951F02969183808301
:104E900012968D919C91139793838283A0E0B0E04A
:104EA00002C0D7017C01F701828193810097C9F785
:104EB000C701029620813181820F931F20919F07A5
:104EC0003091A0072817390779F4109729F4109228
:104ED000A2071092A10704C013961C921E9212976B
:104EE000F092A007E0929F07CDB7DEB7E6E00C9402
:104EF0001226A0E0B0E0EFE7F7E20C94F025EC0119
:104F0000009729F4CB010E944226EC01B4C0DC01D9
:104F1000A60FB71FFC013297AE17BF0718F4C0E009
:104F2000D0E0A9C00081118106171707B0F0053045
:104F3000110508F4A0C0C80104978617970708F464
:104F40009AC002501109061B170B0D931D93718314
:104F50006083CD010E94DD268EC06B01C01AD10A8C
:104F60007C01E00EF11EE091A107F091A20720E084
:104F700030E080E090E048C0EE15FF05D1F580807C
:104F80009180540142E0A40EB11CAC14BD0488F120
:104F90007401EC18FD08670122E0C20ED11C9E01CD
:104FA0002250310945E0C416D10478F04281538182
:104FB00013965C934E9312971196FC92EE92F90120
:104FC000718360833A2F2B2F09C00E5F1F4F080D8E
:104FD000191DD9010D931C9332812381009721F073
:104FE000FC013283238347C03093A1072093A2079B
:104FF00042C0808191812817390708F49C015281B1
:105000004381CF01E52FF42F309709F0B5CF809180
:105010009F079091A0078E159F05F1F4261737077B
:10502000D8F48091010190910201009741F48DB76D
:105030009EB72091050130910601821B930BA817A2
:10504000B90708F06CCFB093A007A0939F07FE01AB
:105050003297718360830FC0CB010E9442267C018E
:10506000009709F45CCFA801BE010E947B29CE0104
:105070000E94DD26E701CE01CDB7DEB7ECE00C944F
:105080000C26A0E0B0E0E7E4F8E20C94EA251B016E
:105090003A016115710519F0FB0180839183611458
:1050A000710439F09301225031092332310508F09F
:1050B000C7C08C01F801D1918F012F018D2F90E095
:1050C0000E946329892BB1F7DD3229F4F801D191CF
:1050D0002F01C1E006C0DB3219F4F801D1912F0194
:1050E000C0E06114710409F4B5C0F0E16F167104F9
:1050F00089F4B7C0F2018081883719F0883509F04A
:10510000A3C0F201D181F2E04F0E511CC26050E108
:10511000652E712C8AE06816710439F1E0E16E1693
:10512000710429F0F8E06F16710491F407C0CC24E3
:10513000CA94DC2CEC2C4FE0F42E1DC028E0622E2B
:10514000712CCC24CA94DC2CEC2C3FE1F32E13C040
:105150009301442737FD4095542F6FEF7FEFCB012C
:105160000E94C82569017A0106C099E9C92EDC2C84
:10517000EC2C99E1F92E90E020E030E0A901430108
:10518000AA2497FCA094BA2CED2FE053EA3060F0EB
:105190008D2F81548A3110F4E75006C08D2F81562F
:1051A0008A3140F5ED2FE7556E2F70E066157705D3
:1051B0000CF59F3FD9F0C216D306E406F50698F029
:1051C000C501B4010E94442D9B01AC018E2F90E0DB
:1051D000A0E0B0E0280F391F4A1F5B1F28173907CE
:1051E0004A075B0710F49FEF01C091E0F201D191F3
:1051F0002F01CACF2114310471F0992321F0F1E07D
:105200004F1A510805C0C1FF06C0F2E04F1A5108FD
:10521000F10151824082C0FF07C050954095309502
:1052200021953F4F4F4F5F4F97FF1FC082E290E0A5
:105230009093A4078093A3072FEF3FEFA90115C018
:1052400020E030E0A90111C0D0E36114710409F439
:1052500075CF60CFD03309F44DCF8AE0682E712C22
:1052600084CFD03309F056CF45CFB901CA01CDB7AD
:10527000DEB7E2E10C9406261F93FC0199278827EC
:10528000BC01E89411911032E9F3193010F01E308E
:10529000C8F31B3251F01D3249F4689406C00E94D5
:1052A000482A610F711D811D911D119110531A30F3
:1052B000B0F33EF490958095709561957F4F8F4F38
:1052C0009F4F1F91089591112CC3803219F089507E
:1052D0008550D0F708959111089581548A5108F4AA
:1052E000805E855A08959111089581568A5108F477
:1052F000805285580895FB01DC0102C001900D9297
:1053000041505040D8F708956817790768F4FB01B9
:10531000DC01E40FF51FA40FB51F02C002900E922E
:1053200041505040D8F708950C947B29FC0181919D
:10533000861721F08823D9F7992708953197CF014F
:105340000895FB01DC018D91019080190110D9F3C2
:10535000990B0895FB01DC0101900D920020E1F70B
:105360000895FB01DC014150504030F08D910190D7
:10537000801919F40020B9F7881B990B0895FB01D7
:10538000DC014150504048F001900D920020C9F7D7
:1053900001C01D9241505040E0F70895FC0181E0AA
:1053A00090E00190061609F4CF010020D1F7019793
:1053B0000895FB0151915523A9F0BF01DC014D91E6
:1053C00045174111E1F759F4CD010190002049F052
:1053D0004D9140154111C9F3FB014111EFCF81E01F
:1053E00090E001970895FB019F01E8944230C4F0DA
:1053F0004532B4F44A3029F497FB1EF49095819518
:105400009F4F642F77270E94542D805D8A330CF0C4
:10541000895D8193CB010097A1F716F45DE251936A
:105420001082C9010C94AA2CFA01CF93FF93EF9339
:10543000223044F1253234F5C22FE894CA3049F4C1
:1054400097FB3EF490958095709561957F4F8F4FB7
:105450009F4F2C2F332744275527FF93EF930E940C
:10546000C825EF91FF91605D6A330CF0695D61932F
:10547000B901CA01605070408040904051F716F465
:10548000CDE2C19310828F919F91CF910C94AA2C61
:10549000592F482F372F262F660F771F881F991FE8
:1054A000660F771F881F991F620F731F841F951F38
:1054B000660F771F881F991F0895FA01CF93FF93F6
:1054C000EF932230CCF02532BCF4C22F2C2F33279F
:1054D00044275527FF93EF930E94C825EF91FF9132
:1054E000605D6A330CF0695D6193B901CA01605077
:1054F00070408040904051F710828F919F91CF91E2
:105500000C94AA2CFB019F01423074F0453264F4E4
:10551000642F77270E94542D805D8A330CF0895DBB
:105520008193CB010097A1F71082C9010C94AA2C9A
:10553000AEE0B0E0EEE9FAE20C94F8258C0186E0EA
:105540008C831A8309838FEF9FE79E838D83CE011F
:1055500001960E94B42AEF81F885E00FF11F1082B6
:105560002E96E4E00C941426ACE0B0E0EAEBFAE20C
:105570000C94EA257C016B018A01FC0117821682DA
:10558000838181FFC7C188248394912C8C0E9D1E3A
:10559000F7019381F60193FD859193FF81916F014E
:1055A000882309F4B3C1853239F493FD859193FFC3
:1055B00081916F01853229F4B70190E00E94BA2CE5
:1055C000E7CF712C312C20E02032A8F48B3261F02F
:1055D00028F4803251F0833271F40BC08D3239F0EF
:1055E000803349F4216028C02260246025C02860EF
:1055F00023C0206121C027FD27C0382F30533A3007
:1056000078F426FF06C0FAE07F9E300D1124732E39
:1056100013C08AE0389E300D1124332E20620CC056
:105620008E3221F426FD72C1206406C08C3611F43E
:10563000206802C0883641F4F60193FD859193FFFE
:1056400081916F018111C0CF982F9554933018F03C
:105650009052933028F40C5F1F4FFFE3F9830DC085
:10566000833631F0833771F0833509F05EC023C093
:10567000F801808189830E5F1F4F66246394712C2B
:10568000540115C02801F2E04F0E511CF801A08012
:10569000B18026FF03C0672D70E002C06FEF7FEF7F
:1056A000C5012C870E949F2C3C0182012C856FE74D
:1056B000262E222218C02801F2E04F0E511CF801BC
:1056C000A080B18026FF03C0672D70E002C06FEF9D
:1056D0007FEFC5012C870E94942C3C012C8550E85B
:1056E000252E222A820123FC1CC006C0B70180E2BD
:1056F00090E00E94BA2C3A94832D90E068167906C7
:10570000A8F30FC0F50127FC859127FE81915F0169
:10571000B70190E00E94BA2C31103A94F1E06F1A70
:1057200071086114710471F7EEC0843611F0893686
:1057300041F5F80127FF07C0608171818281938163
:105740000C5F1F4F08C060817181882777FD8095AD
:10575000982F0E5F1F4F4FE6642E622297FF09C0FD
:1057600090958095709561957F4F8F4F9F4FF0E892
:105770006F2A2AE030E0A4010E94E62CA82EA81887
:1057800044C0853731F43FEEB32EB2222AE030E038
:1057900024C099EFB92EB2228F36B9F020F48835A3
:1057A00009F0B4C00DC0803721F0883709F0AEC0D1
:1057B00002C020E1B22AB4FE0BC084E0B82A08C0BF
:1057C00024FF09C0E6E0BE2A06C028E030E005C09C
:1057D00020E130E002C020E132E0F801B7FE07C06E
:1057E00060817181828193810C5F1F4F06C060814F
:1057F000718180E090E00E5F1F4FA4010E94E62CB3
:10580000A82EA8188FE7682E6B2066FE0BC0362DD9
:105810003E7FA71450F464FE0AC062FC08C0362D17
:105820003E7E05C0BA2C362D03C0BA2C01C0B72C61
:1058300034FF0DC0FE01EA0DF11D8081803311F4AB
:10584000397E09C032FF06C0B394B39404C0832FDD
:10585000867809F0B39433FD14C030FF0FC07A2C62
:10586000B31460F4730C7B18B32C08C0B70180E24A
:1058700090E03C870E94BA2CB3943C85B314B0F3FB
:1058800004C0B31410F43B1801C0312C34FF12C013
:10589000B70180E390E03C870E94BA2C3C8532FF40
:1058A0001EC031FF03C088E590E002C088E790E0A9
:1058B000B7010CC0832F867891F031FD02C080E2E1
:1058C00001C08BE237FD8DE2B70190E00E94BA2C57
:1058D00006C0B70180E390E00E94BA2C7A94A71426
:1058E000C0F3AA94F401EA0DF11DB701808190E0A4
:1058F0000E94BA2CA110F5CF06C0B70180E290E05B
:105900000E94BA2C3A943110F8CF42CEF70126818A
:10591000378102C02FEF3FEFC9012C96E2E10C94D2
:105920000626992788270895FC010590615070404C
:105930000110D8F7809590958E0F9F1F0895FC0158
:105940006150704001900110D8F7809590958E0FAE
:105950009F1F0895DC01FC01672F71917723E1F708
:10596000329704C07C916D9370836291AE17BF072C
:10597000C8F308950F931F93CF93DF938C01EB012E
:105980008B8181FD03C00FEF1FEF1AC082FF0DC096
:105990002E813F818C819D812817390764F4E8812D
:1059A000F9810193F983E88306C0E885F985802FA2
:1059B0000995892B41F78E819F8101969F838E8364
:1059C000C801DF91CF911F910F910895FA01AA2785
:1059D000283051F1203181F1E8946F936E7F6E5F32
:1059E0007F4F8F4F9F4FAF4FB1E03ED0B4E03CD0E0
:1059F000670F781F891F9A1FA11D680F791F8A1FC3
:105A0000911DA11D6A0F711D811D911DA11D20D029
:105A100009F468943F912AE0269F11243019305DE3
:105A20003193DEF6CF010895462F4770405D4193D4
:105A3000B3E00FD0C9F7F6CF462F4F70405D4A3321
:105A400018F0495D31FD4052419302D0A9F7EACFE9
:105A5000B4E0A6959795879577956795BA95C9F718
:105A600000976105710508959B01AC010A2E06940B
:105A70005795479537952795BA95C9F7620F731FC4
:105A8000841F951FA01D0895DB018F939F930E9493
:105A9000682DBF91AF91A29F800D911DA39F900D86
:105AA000B29F900D11240895AA1BBB1B51E107C0A2
:105AB000AA1FBB1FA617B70710F0A61BB70B881F9E
:105AC000991F5A95A9F780959095BC01CD0108952D
:105AD0000E94732DA59F900DB49F900DA49F800DE3
