:100000000C945F000C9468120C9495120C94870069
:100010000C9487000C9487000C9487000C94870044
:100020000C9487000C9487000C9487000C94870034
:100030000C9487000C9487000C9487000C94870024
:100040000C94C2120C9487000C94C10F0C94F40F02
:100050000C9487000C9487000C9487000C94870004
:100060000C9487000C948700000000070002010038
:100070000003040600000000000000000102040864
:100080001020408001020408102001020408102002
:10009000040404040404040402020202020203032E
:1000A0000303030300000000250028002B000000CC
:1000B0000000240027002A00190E440EAF1011245E
:1000C0001FBECFEFD8E0DEBFCDBF15E0A0E0B1E0AE
:1000D000E2EDF0E302C005900D92A237B107D9F727
:1000E00017E0A2E7B5E001C01D92AA37B107E1F71A
:1000F00010E0CEEBD0E004C02297FE010E949D14D8
:10010000C83BD107C9F70E943D0E0C9467180C94A8
:100110000000FC014FEF5FEFBA014083518362831F
:100120007383448355836683778380E797E1918760
:100130008087128613861486158616860895CF92B8
:10014000DF92EF92FF920F931F93CF93DF931F9253
:10015000CDB7DEB77C016B01FC0143855485658515
:100160007685452B462B472B09F45FC0408551858A
:10017000808191812281338119825F934F933F93D4
:100180002F939F938F938CE091E09F938F93CE0159
:1001900001969F938F930E94CD01C6010E941E0B72
:1001A000FC016081718182819381F701038514854F
:1001B00025853685601B710B820B930B228530E001
:1001C00040E050E00E944214C901845496410FB6A9
:1001D000F894DEBF0FBECDBF8935924020F4F70101
:1001E0003187208705C080E797E1F70191878087F5
:1001F000F701408551858081918122813381198267
:100200005F934F933F932F939F938F938FE291E050
:100210009F938F93CE0101969F938F930E94CD0160
:100220000FB6F894DEBF0FBECDBFC6010E941E0BF5
:10023000FC014081518162817381F7018085918544
:10024000480F591F611D711D448355836683778351
:1002500081E08287C6010E941E0BFC014081518112
:1002600062817381F70143875487658776870F9092
:10027000DF91CF911F910F91FF90EF90DF90CF9082
:100280000895CF92DF92EF92FF92CF93DF93EC012C
:10029000CC80DD80EE80FF800E940C13C616D7064E
:1002A000E806F90638F44FEF5FEFBA014C835D833F
:1002B0006E837F832496CE01DF91CF91FF90EF90E4
:1002C000DF90CF900895CF93DF931F92CDB7DEB725
:1002D000FC01808591854481558166817781480F35
:1002E000591F611D711D4483558366837783828501
:1002F0008F5F8287908121813281E381F1E0F983F0
:100300001F928F937F936F935F934F93EF933F93DE
:100310002F939F9382E591E09F938F93CE01019657
:100320009F938F930E94CD010FB6F894DEBF0FBE4E
:10033000CDBF0F90DF91CF910895CF93DF93EC0164
:1003400068814AE050E070E084EC96E00E94401240
:100350008881823089F028F4882341F08130D1F4FB
:1003600008C0833061F08430A9F40CC068E871E003
:100370000BC060E971E008C067E971E005C06EE993
:1003800071E002C066EA71E084EC96E0DF91CF9103
:100390000C943711DF91CF9108950F931F93CF9352
:1003A000DF93CDB7DEB7C254D1090FB6F894DEBFE4
:1003B0000FBECDBF2B960EAD1FAD2B9790910001B8
:1003C000F8018081891778F10E940C13AB01BC0100
:1003D0002AE030E084EC96E00E94C6116FEA71E0FA
:1003E00084EC96E00E943711C8010E949D016FEADB
:1003F00071E084EC96E00E943711AE01435B5F4FE1
:1004000023965FAF4EAF23972D966EAD7FAD2D97A0
:10041000CE0101960E94A415BE016F5F7F4F84EC50
:1004200096E00E945611CE5BDF4F0FB6F894DEBF08
:100430000FBECDBFDF91CF911F910F9108951F93F4
:10044000CF93DF931F92CDB7DEB710E01983CE01B3
:1004500001960E949D016EEA71E084EC96E00E9494
:1004600037111F5F143091F71983CE0101960E9456
:100470009D0160EB71E084EC96E00E9456110F90B4
:10048000DF91CF911F910895CF92DF92EF92FF926B
:100490000F931F93CF93DF93EC0181E089834FEF9C
:1004A0005FEFBA014A835B836C837D838E837E0119
:1004B00087E0E80EF11C87016E01E2E5CE0ED11C4B
:1004C000C8010E948900015F1F4F0C151D05C1F76F
:1004D000F801F182E082FE01EC5AFF4F1082FE012A
:1004E000E759FF4F1082FE01E659FF4F1082FE01CF
:1004F000E559FF4F1082C459DF4F188219821A82C2
:100500001B82DF91CF911F910F91FF90EF90DF90B1
:10051000CF900895FC01E759FF4F20812F5F208382
:10052000DC01A659BF4F3C91231708F01082FC0153
:10053000E559FF4F10820895DF92EF92FF920F93DB
:100540001F93CF93DF93EB01FC01EC5AFF4FD08058
:10055000DC01E0E0F0E01DC07F0117960D911D91D8
:100560002D913C911A9731961F96488159816A8145
:100570007B81041715072607370759F44FE04E9D76
:1005800090014F9D300D1124295F3F4F280F391FD7
:1005900004C0ED1508F320E030E0C901DF91CF91F0
:1005A0001F910F91FF90EF90DF900895EF92FF92CF
:1005B0000F931F93CF93DF931F92CDB7DEB77C01CC
:1005C0008B010E949C02892B91F0D8018C9111968D
:1005D0009C91119712962C91129713963C91198227
:1005E0003F932F939F938F9381EB91E054C0F7013A
:1005F000EC5AFF4F8081D8018530E0F54D915D9137
:100600006D917C912FE0D701289FA00DB11D112481
:1006100017964D935D936D937C931A978F5F8083AC
:1006200090E00197289FF001299FF00D1124EE0D15
:10063000FF1DDF011796878111969C9111971296E5
:100640002C91129713963C9119823F932F939F936D
:100650008F938EEC91E09F938F93CE0101969F93A1
:100660008F930E94CD010FB6F894DEBF0FBECDBFB1
:1006700081E01FC08C9111969C91119712962C913C
:10068000129713963C9143E049833F932F939F9396
:100690008F9383EE91E09F938F93CE0101969F936A
:1006A0008F930E94CD010FB6F894DEBF0FBECDBF71
:1006B00080E00F90DF91CF911F910F91FF90EF900D
:1006C00008950F931F93CF93DF93FB01DC01A6598D
:1006D000BF4FDC91C0E012C0DC01AB5ABF4F0D919F
:1006E0001D912D913C9104964081518162817381CD
:1006F000041715072607370729F0CF5FCD13ECCF76
:1007000080E001C081E0DF91CF911F910F910895AA
:10071000EF92FF920F931F93CF93DF931F92CDB76A
:10072000DEB77C018B010E946103882391F0D80120
:100730008C9111969C91119712962C911297139669
:100740003C9119823F932F939F938F938FEF91E06A
:100750004DC0F701E659FF4F8081D8018530A8F5DB
:100760004D915D916D917C91D70194E0899FA00D91
:10077000B11D1124AB5ABF4F4D935D936D937C9384
:1007800013978F5F8083A4E08A9FE00CF11C1124F3
:10079000F701EF5AFF4F80819181228133811982C5
:1007A0003F932F939F938F938DE192E09F938F932D
:1007B000CE0101969F938F930E94CD010FB6F894BE
:1007C000DEBF0FBECDBF81E01FC08C9111969C9102
:1007D000119712962C91129713963C9143E04983FE
:1007E0003F932F939F938F9383E392E09F938F93F5
:1007F000CE0101969F938F930E94CD010FB6F8947E
:10080000DEBF0FBECDBF80E00F90DF91CF911F9173
:100810000F91FF90EF9008950F931F93CF93DF9365
:10082000EC018C010E5F1F4F662321F0B8010E947E
:10083000D60207C0C8010E94910DB801CE010E94E6
:1008400088038823B1F060E572E084EC96E00E94B2
:1008500037114A815B816C817D812AE030E084EC34
:1008600096E00E94C61166E572E084EC96E00E9474
:1008700056114FEF5FEFBA014A835B836C837D8330
:10088000DF91CF911F910F9108954F925F926F92D8
:100890007F928F929F92AF92BF92CF92DF92EF9210
:1008A000FF920F931F93CF93DF931F92CDB7DEB7C5
:1008B0008C01512C3C0184E5680E711C8FE0482EA0
:1008C000480192E5890E911C23C05801459CA00C5B
:1008D000B11C1124A7E0AA0EB11CC5010E94410160
:1008E000FC01C080D180E280F380D4018D919C9185
:1008F0000E944101FC014081518162817381C416D3
:10090000D506E606F70618F4D401AD92BC925394CE
:10091000F30180815816C8F20E5A1F4FD8018D91ED
:100920009C910E944101FC0140815181628173814F
:10093000D801ED91FC9180819181228133811982CE
:100940007F936F935F934F933F932F939F938F93D7
:1009500089E592E09F938F93CE0101969F938F93A9
:100960000E94CD010FB6F894DEBF0FBECDBF0F9031
:10097000DF91CF911F910F91FF90EF90DF90CF907B
:10098000BF90AF909F908F907F906F905F904F90AF
:1009900008952F923F924F925F926F927F928F9223
:1009A0009F92AF92BF92CF92DF92EF92FF920F93FE
:1009B0001F93CF93DF9300D000D01F92CDB7DEB747
:1009C0003C015B01212C312CF12CEE24E3942E010F
:1009D00025E0420E511C88E2829D4001839D900CCF
:1009E0001124E3E7F5E08E0E9F1ED82CC92CC4011C
:1009F0000E94B508882309F4CEC0C4010E94FA0AF7
:100A0000C4010E94160B882309F4ADC0C4010E94E2
:100A1000190BFC01408151816281738149835A83A2
:100A20006B837C83FF24F394F50100811181228183
:100A30003381401751076207730709F0F12CC40195
:100A40000E94800A882309F448C0C4010E94140A45
:100A5000882309F4A9C0BE016F5F7F4FC3010E94C4
:100A60009C02892B09F093C09FC0BE016F5F7F4F2E
:100A7000C3010E94610381118AC09CC0F3014283BB
:100A80005383648375830AC0F30102811381248137
:100A90003581041715072607370741F4C4010E9462
:100AA000140A682FC3010E940C0471C06EE772E043
:100AB00084EC96E00E94371149815A816B817C81D8
:100AC0002AE030E084EC96E00E94C61167E572E00F
:100AD00084EC96E00E9456115AC0C4010E94140A88
:100AE000BE016F5F7F4F8823D9F0C3010E949C0233
:100AF000009751F0B4010E949F00C4010E94810937
:100B0000C3010E94450443C089819A812B813C81A5
:100B1000ED823F932F939F938F9384E892E010C0D0
:100B2000C3010E94610381111AC089819A812B81BE
:100B30003C81ED823F932F939F938F938EEA92E0B7
:100B40009F938F935F924F920E94CD010FB6F894BE
:100B5000DEBF0FBECDBFF30186818823C1F0C40183
:100B60000E94810914C0ED8289ED92E09F938F93DA
:100B70005F924F920E94CD010F900F900F900F90B7
:100B8000F3018681823019F4C4010E948C088D2DF6
:100B90009C2D0E94BD08FFEF2F1A3F0A25E0221668
:100BA000310409F018CF10C0C4010E94140A882330
:100BB00009F45BCFF301818149815A816B817C818A
:100BC000882309F461CF5ACF8F2D0F900F900F908B
:100BD0000F900F90DF91CF911F910F91FF90EF90A9
:100BE000DF90CF90BF90AF909F908F907F906F904D
:100BF0005F904F903F902F9008959F92AF92BF9239
:100C0000CF92DF92EF92FF920F931F93CF93DF93D8
:100C10001F92CDB7DEB78C010E940C136B017C01D3
:100C2000580182E5A80EB11CD5018D919C910E94BE
:100C30004101FC014081518162817381D501ED91B7
:100C4000FC91808191812281338119827F936F93FE
:100C50005F934F933F932F939F938F9387EE92E0F1
:100C60009F938F93CE0101969F938F930E94CD0106
:100C70000FB6F894DEBF0FBECDBF912CF8EECF0EAD
:100C8000F3E0DF1EE11CF11C0E940C136C157D05C6
:100C90008E059F05B8F019821F929F9229E033E0DC
:100CA0003F932F939E012F5F3F4F3F932F930E94BF
:100CB000CD010F900F900F900F900F900F9091100B
:100CC00014C003C09110E7CF08C0F801EE5AFF4FDF
:100CD000808191810E94630108C0D5016D917C9152
:100CE000C8010E94C904982ECFCF0F90DF91CF91F9
:100CF0001F910F91FF90EF90DF90CF90BF90AF903A
:100D00009F900895AF92BF92CF92DF92EF92FF92A1
:100D10000F931F93CF93DF931F92CDB7DEB78C0154
:100D2000FC01E659FF4F8081882309F4B6C0F80121
:100D3000E759FF4F808181111FC00E940C13580199
:100D40002CE6A20EB11CF501C080D180E280F380B8
:100D5000F0E7CF0EF7E1DF1EE11CF11C6C157D05FD
:100D60008E059F0508F085C0F801E559FF4F808189
:100D7000882309F492C07DC0580129E6A20EB11C57
:100D8000F5018081980144E0849F200D311D1124DC
:100D9000C9018B5A9F4F0E94DF0D0E940C136B01FB
:100DA0007C0184E6C80ED11CE11CF11C0FC0F501CA
:100DB0008081B801F4E08F9F600D711D11246B5A82
:100DC0007F4FC8010E94C904811164C00E940C13A6
:100DD0006C157D058E059F0550F353C0F50190817C
:100DE000F4E09F9F000D111D1124F801EB5AFF4FF5
:100DF000908121813281438119821F928F934F9379
:100E00003F932F939F9383E293E09F938F93CE0121
:100E100001969F938F930E94CD01F70180818F5F90
:100E2000808321C0C8010E948A02F5018081F4E01C
:100E30008F9F000D111D1124F801EB5AFF4F808187
:100E400091812281338141E049833F932F939F9386
:100E50008F9385E593E09F938F93CE0101969F93A7
:100E60008F930E94CD010FB6F894DEBF0FBECDBFA9
:100E700014C00E940C13F5016083718382839383F5
:100E80007BCF7801FBE6EF0EF11CF7018081853006
:100E900048F6A4CFC8010E948A020F90DF91CF913B
:100EA0001F910F91FF90EF90DF90CF90BF90AF9088
:100EB0000895CF92DF92EF92FF920F931F93CF93FB
:100EC000DF9300D000D0CDB7DEB78C01FC01EC5A27
:100ED000FF4F8081811104C0C8010E9482061CC09E
:100EE0000E940C136B017C01F801EE5AFF4F8081C8
:100EF00091810E944101FC01408151816281738195
:100F0000445F514061097109C416D506E606F7062B
:100F100018F3C8010E94FD0519821A821B821C82E7
:100F2000BE016F5F7F4FC8010E94C90484EC96E048
:100F30000E94290F892B09F496C084EC96E00E9448
:100F4000580F7C019C0133272B36310509F469C009
:100F500064F421363105D9F02236310509F46CC02C
:100F60002D30310509F06EC07EC020373105D1F03B
:100F70002CF42D36310509F065C00FC02537310539
:100F800009F454C02637310509F05CC031C081E056
:100F9000F801818369E873E062C0F80111826FE9AA
:100FA00073E05DC0F8018181882319F066EB73E07E
:100FB00056C06EEF73E084EC96E00E9456110E94DA
:100FC000050FF80162837383848395836FE274E075
:100FD00084EC96E00E943711F801428153816481CC
:100FE00075812AE030E084EC96E00E94D3113BC08A
:100FF00065E474E084EC96E00E9456110E941F02A2
:101000000E94050F609300016AE574E084EC96E0AD
:101010000E94371180E091E00E949D0160EB71E039
:101020001EC0F801168260E774E019C081E0F80183
:1010300086836CE974E013C082E0F801868368EB74
:1010400074E00DC066EC74E084EC96E00E94371109
:101050006E2D84EC96E00E9439116FED74E084EC03
:1010600096E00E9456110F900F900F900F90DF9115
:10107000CF911F910F91FF90EF90DF90CF90089547
:10108000CF93DF9300D0CDB7DEB789839A830E94D8
:101090006C0C0E94CE0B89819A810F900F90DF918A
:1010A000CF910C94450426E1FC0120831182089520
:1010B000FC0191818081981750F48181DB019C9122
:1010C000DF01A80FB11D12969C938F5F8183089555
:1010D000CF92DF92EF92FF920F931F93CF93DF9304
:1010E0007C016B018A01C0E0D0E007C0B6016C0F43
:1010F0007D1FC7010E9458082196F801808190E069
:10110000C817D9079CF3DF91CF911F910F91FF90E2
:10111000EF90DF90CF9008950F931F93CF93DF93BD
:101120008C01C0E0D0E011C0F801EC0FFD1F62811E
:1011300040E150E084EC96E00E94ED116FEA71E02E
:1011400084EC96E00E9437112196F801808190E0AE
:10115000C817D9074CF360EB71E084EC96E0DF919F
:10116000CF911F910F910C945611FC012181908118
:1011700081E0291708F480E00895FC0111820895A8
:10118000282FFB013081E82FF92F80E002C09191D8
:10119000890F9E2F921B9317D0F30895FC01918124
:1011A0008081981748F49181DF01A90FB11D129633
:1011B0008C919F5F9183089580E008959F92AF92F4
:1011C000BF92CF92DF92EF92FF920F931F93CF9334
:1011D000DF93CDB7DEB728970FB6F894DEBF0FBE0A
:1011E000CDBF8C016B017A01B22E85E589838DE23A
:1011F0008A8384ED8B8380E48C831D8283E08887DF
:1012000082E08F83F8011182902EA12EAE01485FFB
:101210005F4FBE016F5F7F4FC8010E946808A70142
:10122000B601C8010E946808BB2059F0B701C60189
:101230000E94C0088E83BE016A5F7F4FC8010E9472
:101240005808AE01495F5F4FBE016C5F7F4F892D2B
:101250009A2D0E946808F70180818B5F8B0DF80141
:101260008083118228960FB6F894DEBF0FBECDBFE3
:10127000DF91CF911F910F91FF90EF90DF90CF9072
:10128000BF90AF909F900895FC0186E1808311820A
:10129000118E128E138E148E158E4FEF5FEFBA01E2
:1012A00044A355A366A377A308950F931F93CF93E9
:1012B000DF93EC018B01998188819817E8F489818B
:1012C000811111C00E940C13698F7A8F8B8F9C8FB4
:1012D000F8018081823519F4188E8CE003C081E01A
:1012E000888F80E188838981F8019081FE01E80F71
:1012F000F11D92838F5F8983DF91CF911F910F91B1
:101300000895FF920F931F93CF93DF93EC0161EE4B
:1013100074E084EC96E00E9437114CA15DA16EA1AF
:101320007FA12AE030E084EC96E00E94C61167EECF
:1013300074E084EC96E00E943711498D5A8D6B8DD4
:101340007C8D2AE030E084EC96E00E94C6118E018C
:10135000F12CF801868D978D0196E1F06DEE74E029
:1013600084EC96E00E9437114AE050E06F2D84EC47
:1013700096E00E94ED1161E872E084EC96E00E9434
:101380003711F801668D778D4AE050E084EC96E0E5
:101390000E94E711F3940E5F1F4FF3E0FF12D9CFC5
:1013A000888D811112C061EF74E084EC96E00E9498
:1013B00037118C85833519F46CE973E002C062EB58
:1013C00073E084EC96E00E94371167E572E084ECEC
:1013D00096E0DF91CF911F910F91FF900C945611E1
:1013E0000F931F93CF93DF931F92CDB7DEB78C017E
:1013F000DC018C9181508983BE016F5F7F4FC801F2
:1014000002960E94C008D801EC91F0E03197E00FFD
:10141000F11F228191E0821390E0892F0F90DF91DC
:10142000CF911F910F910895FC01808D0895CF9366
:10143000DF93FC018FEF9FEF978F868F91A380A39F
:1014400093A382A3808D882309F182E090E0DF01DD
:10145000A80FB91F12964C91129747FF12C012960F
:101460005C911297EC012196CE0FDF1F4A81352F38
:101470003F7720E0B901642BAB015D965C934E93FE
:101480005C9702968830910511F707C03385228555
:10149000932F80E0822B978F868FDF91CF910895D5
:1014A0000F931F93FC0114A215A216A217A2808D00
:1014B000882359F092818381592F5F7040E066271D
:1014C00057FD6095762F482B14C023814481858178
:1014D000968150E060E070E0BA0155274427722BF6
:1014E000492B182F00E020E030E0402B512B622BDD
:1014F000732B44A355A366A377A31F910F9108955F
:10150000FC01808D882329F08281881F8827881F0D
:1015100008958085833421F4918581E09F3409F01A
:1015200080E008959F92AF92BF92CF92DF92EF92A8
:10153000FF920F931F93CF93DF93FC0190E081E024
:10154000A12C00E810E040E4E42EF12C41C0E801B9
:10155000042E02C0D595C7950A94E2F77C917C23AE
:101560007C1771F0E701042E02C0D595C7950A9447
:10157000E2F7BE017C917623761305C0A12C04C04E
:10158000AA24A39401C080E0BB0CBA284E5F5F4F31
:1015900048305105E1F62F5F3F4F2230310531F4DD
:1015A0000FC020E030E0B12CC92ED12C40E050E03B
:1015B000B9016C0D7D1D6E0F7F1FDB011296C7CF29
:1015C000292F2695DF01A20FB11D1296BC929E5FB6
:1015D0002081921730F3908196959083DF91CF917F
:1015E0001F910F91FF90EF90DF90CF90BF90AF9041
:1015F0009F900895CF93DF93EC01888D882321F08D
:10160000CE010E94920A03C0CE010E94F0098D8F84
:101610008D8D882341F0CE010E94170ACE01DF9103
:10162000CF910C94500ADF91CF910895FC01858DE4
:1016300008959C012C5D3F4FC90108959C01275ED0
:101640003F4FC90108950F931F93CF93DF93EC0190
:1016500019928C0107531F4FCE010E944409A8968E
:10166000C017D107C9F7DF91CF911F910F9108954E
:10167000FF920F931F93CF93DF931F92CDB7DEB7E7
:101680008C01FC01808158E2F52E9801F89E200D16
:10169000311D1124C90101960E945509F80180816C
:1016A000F89EE00DF11D11243196918180819817EB
:1016B000B8F080E090E028E2289FF001299FF00D2B
:1016C00011243196E00FF11F41813081431718F446
:1016D000F801808317C001968530910569F702C033
:1016E00080E011C083E089838BEF94E09F938F9318
:1016F000CE0101969F938F930E94CD010F900F9082
:101700000F900F9081E00F90DF91CF911F910F917B
:10171000FF9008951F93CF93DF9300D01F92CDB712
:10172000DEB711E01B8389E392E89A838983BE01C7
:101730006D5F7F4FCE0101960E94880E1093530675
:101740000F900F900F90DF91CF911F9108951F93ED
:10175000CF93DF9300D01F92CDB7DEB711E01B838C
:1017600081E89AEC9A838983BE016D5F7F4FCE0139
:1017700001960E94880E1B8383E89AEC9A838983E2
:10178000BE016D5F7F4FCE0101960E94880E0F90C3
:101790000F900F90DF91CF911F910895CF93DF931A
:1017A00000D01F92CDB7DEB781E08B8389ED92E840
:1017B0009A838983BE016D5F7F4FCE0101960E949F
:1017C000880E109253060E94A70B0F900F900F9057
:1017D000DF91CF910895CF93DF9300D01F92CDB7C3
:1017E000DEB78BE396E00E94CE0891E09B8390E009
:1017F000986B9A838983BE016D5F7F4FCE010196FE
:101800000E94880E8BE396E00E94B50881110E9429
:10181000CE0B0F900F900F90DF91CF9108951F93F3
:10182000CF93DF9300D0CDB7DEB781E00E94480EA2
:101830001982CE0101960E94800E182F1982CE01C6
:1018400001960E94800E80915306811139C015FFC8
:101850001DC01A82CE0102960E94800E8983BE01AD
:101860006F5F7F4F82E795E00E94380B182F1A8236
:10187000CE0102960E94800E8983BE016F5F7F4F6A
:1018800082E795E00E94380B182B12C017FF0FC09B
:101890001A82CE0102960E94800E8983BE016F5F7C
:1018A0007F4F82E795E00E94380B182F01C010E0AF
:1018B00080E00E94480E112349F00E94A70B06C049
:1018C00017FD0E94EB0B80E00E94480E0F900F90D6
:1018D000DF91CF911F9108951F93CF93DF9300D095
:1018E00000D0CDB7DEB70E944E0E11E01C831A82E5
:1018F0001982BE016C5F7F4FCE0101960E94880E57
:1019000060ED77E080E090E00E9448131C8388ED52
:1019100090E89A838983BE016C5F7F4FCE01019668
:101920000E94880E1C8381E092E89A838983BE011D
:101930006C5F7F4FCE0101960E94880E1C8384E36A
:1019400096EA9A838983BE016C5F7F4FCE01019630
:101950000E94880E1C8387E596EC9A838983BE01DA
:101960006C5F7F4FCE0101960E94880E1C8380EC35
:1019700094E99A838983BE016C5F7F4FCE01019603
:101980000E94880E1C838CE292EC9A838983BE01AC
:101990006C5F7F4FCE0101960E94880E1C8381E808
:1019A0009AEC9A838983BE016C5F7F4FCE010196CA
:1019B0000E94880E1C8384ED9EEC9A838983BE016D
:1019C0006C5F7F4FCE0101960E94880E1C8387EFCB
:1019D00094EC9A838983BE016C5F7F4FCE010196A0
:1019E0000E94880E1C8380E298E99A838983BE0155
:1019F0006C5F7F4FCE0101960E94880E1C8386E6A5
:101A00009CEC9A838983BE016C5F7F4FCE01019667
:101A10000E94880E1C8380E090EE9A838983BE0129
:101A20006C5F7F4FCE0101960E94880E1C8380E080
:101A300098EC9A838983BE016C5F7F4FCE0101963B
:101A40000E94880E1C8380E090EC9A838983BE01FB
:101A50006C5F7F4FCE0101960E94880E1B838CE045
:101A600095E09F938F93CE0103969F938F930E944F
:101A7000CD0164EF71E080E090E00E94481340E007
:101A800050E06FE07CE080E00E9448120F900F90E1
:101A90000F900F900F900F900F900F90DF91CF91BC
:101AA0001F910895CF93DF93CDB7DEB72C970FB674
:101AB000F894DEBF0FBECDBF2BE0E1E0F1E0DE0128
:101AC000119601900D922A95E1F7DA012C91119669
:101AD0003C9111971296EC91129713964C914A8370
:101AE000EB833C832D83FC0180818F83DB018C9110
:101AF00088878BE08C8721E0AE01445F5F4FBE0199
:101B00006F5F7F4F8BE396E00E94DE080E948A0B96
:101B10002C960FB6F894DEBF0FBECDBFDF91CF91EC
:101B20000895CF92DF92EF92FF920F931F93CF937E
:101B3000DF9300D0CDB7DEB78C01FC0180819181AD
:101B40002281338141E049833F932F939F938F9369
:101B500080E295E09F938F93EE24E394F12CEC0EBA
:101B6000FD1EFF92EF920E94CD019BE4C92EC98217
:101B700021E4D22EDA82A801B701CE0102960E949A
:101B8000520D62E370E080E090E00E944813C98249
:101B9000DA82A801B701CE0102960E94520D0FB65B
:101BA000F894DEBF0FBECDBF0F900F90DF91CF91A5
:101BB0001F910F91FF90EF90DF90CF900895EF92DB
:101BC000FF920F931F93CF93DF9300D0CDB7DEB773
:101BD0008C01FC01808191812281338141E0498324
:101BE0003F932F939F938F938FE295E09F938F93D3
:101BF000EE24E394F12CEC0EFD1EFF92EF920E9476
:101C0000CD0183E5898380E58A83A801B701CE01F0
:101C100002960E94520D0FB6F894DEBF0FBECDBFE4
:101C20000F900F90DF91CF911F910F91FF90EF9048
:101C300008958BE396E00E94530882E795E00C94A8
:101C4000230B40E052EC61E070E084EC96E00E94EF
:101C50002F1062E475E084EC96E00E94561184E552
:101C600096E00E94400863E575E084EC96E00C94F1
:101C7000561184E596E00C9459070E946E130E9459
:101C8000210E0E94390EFDCF84E596E00C944402AB
:101C9000882311F02A9808952A9A089580E00E94D6
:101CA000480E229A61E08AE00E940B1461E08DE008
:101CB0000E94D31361E08BE00E94D31361E08AE0BD
:101CC0000E94D31360E08CE00E94D31380E58CBDAA
:101CD00060E082E00E94D31361E082E00E940B1476
:101CE0008DB581608DBD8CB58D7F8CBD8CB58160CF
:101CF0008CBD8CB5877F8CBD8CB58B7F8CBD0895DA
:101D0000FC0180818EBD0DB407FEFDCF8EB5089518
:101D1000CF92DF92EF92FF920F931F93CF93DF93B7
:101D20001F92CDB7DEB77C016B01FB018081811171
:101D30002A98F70181818983CE0101960E94800E45
:101D4000182F00E0F70180818983CE0101960E945F
:101D5000800E082BF6018081882319F080E00E9414
:101D6000480EC8010F90DF91CF911F910F91FF9006
:101D7000EF90DF90CF900895DF92EF92FF920F9354
:101D80001F93CF93DF93EC017B011882D12C84EC5D
:101D900096E00E94290F892BE1F08E010D0D111D97
:101DA00084EC96E00E94580FF8018083D3940D2DA7
:101DB00010E0FE01E00FF11F3197608184EC96E0A6
:101DC0000E943911F701808190E0019708171907E7
:101DD00039F0FE01ED0DF11D319780818D30B9F69E
:101DE00060EB71E084EC96E00E94561184EC96E082
:101DF0000E947A0FCD0DD11D1882DF91CF911F91D6
:101E00000F91FF90EF90DF900895CF93DF93CDB7C0
:101E1000DEB760970FB6F894DEBF0FBECDBF8FE080
:101E2000888BBE01605F7F4FCE0101960E94BC0E81
:101E300040E050E060E070E0CE0101960E94A11405
:101E400060960FB6F894DEBF0FBECDBFDF91CF9185
:101E50000895FC0184859585FC01E05CFF4F20819D
:101E60003181FC01EE5BFF4F80819181281B390B92
:101E70002F733327C9010895FC0184859585FC01E2
:101E8000E05CFF4F40815181FC01EE5BFF4F208100
:101E900031814217530741F00190F081E02DE80FA6
:101EA000F91F208130E002C02FEF3FEFC9010895F4
:101EB000FC0184859585FC01E05CFF4F40815181E8
:101EC000FC01EE5BFF4F208131814217530771F017
:101ED000A081B181A80FB91F2C91808191810196B9
:101EE0008F7399279183808330E002C02FEF3FEFFB
:101EF000C9010895FC0186859785FC01E05CFF4FD0
:101F0000DC01AE5BBF4F408151812D913C91119717
:101F100042175307C1F70895CF93DF93FC0126853D
:101F20003785D901A05CBF4F8D919C911197019687
:101F30008F739927E901CE5BDF4F48815981841760
:101F40009507D9F30D90BC91A02DA20FB31F6C93F0
:101F5000A685B785A05CBF4F11969C938E93A689EA
:101F6000B7892C9181E090E0058C02C0880F991F01
:101F70000A94E2F7282B2C9381E090E0DF91CF9137
:101F800008951F920F920FB60F9211242F933F9333
:101F90004F938F939F93EF93FF934091C60080914F
:101FA00067079091680701968F73992720916907B9
:101FB00030916A078217930759F0E0916707F09113
:101FC0006807E95DF84F408390936807809367073F
:101FD000FF91EF919F918F914F913F912F910F9092
:101FE0000FBE0F901F9018951F920F920FB60F9271
:101FF00011242F933F938F939F93EF93FF932091FF
:1020000023073091240780912507909126072817F0
:10201000390731F48091C1008F7D8093C10014C0D5
:10202000E0912507F0912607ED51F94F208180912D
:1020300025079091260701968F739927909326077D
:10204000809325072093C600FF91EF919F918F9178
:102050003F912F910F900FBE0F901F901895CF9228
:10206000DF92EF92FF92CF93DF93EC016A017B0145
:10207000411581EE580761057105F9F0EC89FD897C
:1020800081E090E00E8C02C0880F991F0A94E2F75D
:10209000808360E079E08DE390E0A70196010E94E3
:1020A00042142150310941095109569547953795F8
:1020B0002795211580E1380798F0EC89FD89108279
:1020C00060E874E88EE190E0A70196010E94421456
:1020D0002150310941095109569547953795279562
:1020E000E889F9893083EA89FB892083EE89FF89B1
:1020F000408181E090E09C010A8C02C0220F331FD6
:102100000A94E2F7422B4083EE89FF8940819C01CB
:102110000B8C02C0220F331F0A94E2F7422B40833C
:10212000EE89FF8940819C010C8C02C0220F331F75
:102130000A94E2F7422B4083EE89FF8920810D8CBF
:1021400002C0880F991F0A94E2F78095822380834A
:10215000DF91CF91FF90EF90DF90CF900895109294
:10216000C7061092C60688EE93E0A0E0B0E0809328
:10217000C8069093C906A093CA06B093CB0685E61D
:1021800095E09093C5068093C40687E297E090930C
:10219000D1068093D00683EE96E09093D306809389
:1021A000D20685EC90E09093D5068093D40684EC1B
:1021B00090E09093D7068093D60680EC90E09093C1
:1021C000D9068093D80681EC90E09093DB0680934B
:1021D000DA0686EC90E09093DD068093DC0684E0DE
:1021E0008093DE0683E08093DF0687E08093E0063D
:1021F00085E08093E10681E08093E2060895CF9226
:10220000DF92EF92FF920F931F93CF93DF936C01B6
:10221000EB017A01E60EF71E00E010E00BC06991B9
:10222000D601ED91FC910190F081E02DC601099558
:10223000080F191FCE15DF0591F7C801DF91CF9167
:102240001F910F91FF90EF90DF90CF900895DB01E9
:102250000D900020E9F7AD0141505109461B570B85
:10226000DC01ED91FC910280F381E02D09940C9446
:102270002711DC01ED91FC910190F081E02D099492
:102280000F931F93CF93DF93EC016DE00E94391100
:102290008C016AE0CE010E9439119C01200F311F90
:1022A000C901DF91CF911F910F9108950F931F9353
:1022B000CF93DF93EC010E9427118C01CE010E9485
:1022C00040119801280F391FC901DF91CF911F914B
:1022D0000F9108955F926F927F928F929F92AF922B
:1022E000BF92CF92DF92EF92FF920F931F93CF9303
:1022F000DF93CDB7DEB7A1970FB6F894DEBF0FBE60
:10230000CDBF3C016A017B01522E19A281E08217E8
:1023100010F08AE0582E8E010F5D1F4F852C912CF6
:10232000A12CB12CC701B601A50194010E94421451
:102330008C2D529E80191124015011098A3010F4FD
:10234000805D01C0895CF801808369017A01C11454
:10235000D104E104F10431F7B801C3010E9427114F
:10236000A1960FB6F894DEBF0FBECDBFDF91CF911F
:102370001F910F91FF90EF90DF90CF90BF90AF90A3
:102380009F908F907F906F905F90089521153105F9
:1023900041F4DC01ED91FC910190F081E02D642F7E
:1023A00009940C946A110F931F93CF93DF93EC0160
:1023B0000E94C6118C01CE010E9440119C01200F89
:1023C000311FC901DF91CF911F910F9108959A019B
:1023D000AB0160E070E00C94C6119A01462F50E00A
:1023E00060E070E00C94C611CF92DF92EF92FF9202
:1023F0000F931F93CF93DF93EC016A017B012115AB
:10240000310579F4E881F9810190F081E02D642FA4
:10241000DF91CF911F910F91FF90EF90DF90CF90C0
:1024200009942A30310519F477FD0EC02AE0B7016E
:10243000A601CE01DF91CF911F910F91FF90EF90F8
:10244000DF90CF900C946A116DE20E9439118C01DB
:1024500044275527BA014C195D096E097F092AE006
:10246000CE010E946A119C01200F311FC901DF912A
:10247000CF911F910F91FF90EF90DF90CF90089533
:102480009A01AB01662757FD6095762F0C94F411E5
:102490008230E8F4E82FF0E0EE0FFF1FE559F84F27
:1024A00071836083813041F0809169008C7F842B3F
:1024B00080936900E89A089580916900440F551F40
:1024C000440F551F837F842B80936900E99A0895F8
:1024D0001F920F920FB60F9211242F933F934F9399
:1024E0005F936F937F938F939F93AF93BF93EF937C
:1024F000FF9380916B0790916C07892B29F0E091F5
:102500006B07F0916C070995FF91EF91BF91AF9127
:102510009F918F917F916F915F914F913F912F91FB
:102520000F900FBE0F901F9018951F920F920FB62D
:102530000F9211242F933F934F935F936F937F9349
:102540008F939F93AF93BF93EF93FF9380916D070A
:1025500090916E07892B29F0E0916D07F0916E073D
:102560000995FF91EF91BF91AF919F918F917F91CD
:102570006F915F914F913F912F910F900FBE0F90F0
:102580001F9018951F920F920FB60F9211242F9340
:102590003F938F939F93AF93BF9380916F079091D9
:1025A0007007A0917107B091720730917707232FC0
:1025B0002D5F2D3720F40196A11DB11D05C0232FDD
:1025C0002A570296A11DB11D2093770780936F07AC
:1025D00090937007A0937107B0937207809173076F
:1025E00090917407A0917507B09176070196A11D8F
:1025F000B11D8093730790937407A0937507B093F0
:102600007607BF91AF919F918F913F912F910F903E
:102610000FBE0F901F9018950F931F938FB7F894CC
:1026200000916F0710917007209171073091720728
:102630008FBFB801C9011F910F9108950F931F9388
:102640009FB7F89400917307109174072091750754
:102650003091760786B5A89B06C08F3F21F00F5FAB
:102660001F4F2F4F3F4F9FBF322F212F102F00277B
:10267000080F111D211D311D42E0000F111F221FE7
:10268000331F4A95D1F7B801C9011F910F910895E1
:10269000CF92DF92EF92FF92CF93DF936B017C0199
:1026A0000E941E13EB010EC00E941E136C1B7D0BBB
:1026B000683E734038F081E0C81AD108E108F1089B
:1026C000C851DC4FC114D104E104F10469F7DF9172
:1026D000CF91FF90EF90DF90CF900895789484B5DC
:1026E000826084BD84B5816084BD85B5826085BD0E
:1026F00085B5816085BDEEE6F0E0808181608083F4
:10270000E1E8F0E0108280818260808380818160D6
:102710008083E0E8F0E0808181608083E1EBF0E09D
:10272000808184608083E0EBF0E080818160808341
:10273000EAE7F0E08081846080838081826080832A
:102740008081816080838081806880831092C10055
:102750000895833069F028F48130A1F0823011F5BA
:1027600014C08630B1F08730C1F08430D9F404C091
:10277000809180008F7703C0809180008F7D80934F
:102780008000089584B58F7702C084B58F7D84BDA5
:1027900008958091B0008F7703C08091B0008F7D45
:1027A0008093B0000895CF93DF9390E0FC01E4584C
:1027B000FF4F4491FC01E057FF4F8491882341F182
:1027C00090E0880F991FFC01E255FF4F259134914D
:1027D000D9018C559F4FFC0185919491C82FD92F19
:1027E0009FB7F8948C91611106C0409584238C9317
:1027F0008881842308C0623041F4242F20958223ED
:102800008C938881842B888302C0842B8C939FBFF8
:10281000DF91CF9108950F931F93CF93DF931F9272
:10282000CDB7DEB7282F30E0F901E859FF4F84918A
:10283000F901E458FF4F1491F901E057FF4F04915B
:102840000023D1F0882321F069830E94A9136981B4
:10285000E02FF0E0EE0FFF1FEC55FF4F85919491B4
:10286000DC019FB7F8948C91611103C0109581230E
:1028700001C0812B8C939FBF0F90DF91CF911F914F
:102880000F910895A1E21A2EAA1BBB1BFD010DC0DA
:10289000AA1FBB1FEE1FFF1FA217B307E407F50710
:1028A00020F0A21BB30BE40BF50B661F771F881FEC
:1028B000991F1A9469F760957095809590959B0182
:1028C000AC01BD01CF0108952F923F924F925F92CC
:1028D0006F927F928F929F92AF92BF92CF92DF9230
:1028E000EF92FF920F931F93CF93DF93CDB7DEB795
:1028F000CA1BDB0B0FB6F894DEBF0FBECDBF099429
:102900002A88398848885F846E847D848C849B847F
:10291000AA84B984C884DF80EE80FD800C811B818D
:10292000AA81B981CE0FD11D0FB6F894DEBF0FBEBC
:10293000CDBFED010895EE0FFF1F0590F491E02D3E
:102940000994A0E0B0E0E7EAF4E10C9464141B0100
:102950003A016115710519F0FB01808391836114BF
:10296000710439F09301225031092332310508F006
:10297000C7C08C01F801D1918F012F018D2F90E0FC
:102980000E949C15892BB1F7DD3229F4F801D19111
:102990002F01C1E006C0DB3219F4F801D1912F01FB
:1029A000C0E06114710409F4B5C0F0E16F16710460
:1029B00089F4B7C0F2018081883719F0883509F0B1
:1029C000A3C0F201D181F2E04F0E511CC26050E170
:1029D000652E712C8AE06816710439F1E0E16E16FB
:1029E000710429F0F8E06F16710491F407C0CC244B
:1029F000CA94DC2CEC2C4FE0F42E1DC028E0622E93
:102A0000712CCC24CA94DC2CEC2C3FE1F32E13C0A7
:102A10009301442737FD4095542F6FEF7FEFCB0193
:102A20000E94421469017A0106C099E9C92EDC2C82
:102A3000EC2C99E1F92E90E020E030E0A90143016F
:102A4000AA2497FCA094BA2CED2FE053EA3060F052
:102A50008D2F81548A3110F4E75006C08D2F815696
:102A60008A3140F5ED2FE7556E2F70E0661577053A
:102A70000CF59F3FD9F0C216D306E406F50698F090
:102A8000C501B4010E9440189B01AC018E2F90E05B
:102A9000A0E0B0E0280F391F4A1F5B1F2817390735
:102AA0004A075B0710F49FEF01C091E0F201D1915A
:102AB0002F01CACF2114310471F0992321F0F1E0E4
:102AC0004F1A510805C0C1FF06C0F2E04F1A510865
:102AD000F10151824082C0FF07C05095409530956A
:102AE00021953F4F4F4F5F4F97FF1FC082E290E00D
:102AF00090937907809378072FEF3FEFA90115C0D6
:102B000020E030E0A90111C0D0E36114710409F4A0
:102B100075CF60CFD03309F44DCF8AE0682E712C89
:102B200084CFD03309F056CF45CFB901CA01CDB714
:102B3000DEB7E2E10C9480149111FFC1803219F0EC
:102B400089508550D0F70895AEE0B0E0EAEAF5E1AB
:102B50000C9472148C0186E08C831A8309838FEFA6
:102B60009FE79E838D83CE0101960E94C015EF8161
:102B7000F885E00FF11F10822E96E4E00C948E147D
:102B8000ACE0B0E0E6ECF5E10C9464147C016B0180
:102B90008A01FC0117821682838181FFC7C18824C4
:102BA0008394912C8C0E9D1EF7019381F60193FD69
:102BB000859193FF81916F01882309F4B3C1853218
:102BC00039F493FD859193FF81916F01853229F44A
:102BD000B70190E00E94B617E7CF712C312C20E0AE
:102BE0002032A8F48B3261F028F4803251F0833225
:102BF00071F40BC08D3239F0803349F4216028C064
:102C00002260246025C0286023C0206121C027FDE8
:102C100027C0382F30533A3078F426FF06C0FAE048
:102C20007F9E300D1124732E13C08AE0389E300D24
:102C30001124332E20620CC08E3221F426FD72C185
:102C4000206406C08C3611F4206802C0883641F436
:102C5000F60193FD859193FF81916F018111C0CFA2
:102C6000982F9554933018F09052933028F40C5FBD
:102C70001F4FFFE3F9830DC0833631F0833771F0C6
:102C8000833509F05EC023C0F801808189830E5F1F
:102C90001F4F66246394712C540115C02801F2E083
:102CA0004F0E511CF801A080B18026FF03C0672D94
:102CB00070E002C06FEF7FEFC5012C870E94AB1759
:102CC0003C0182012C856FE7262E222218C02801A4
:102CD000F2E04F0E511CF801A080B18026FF03C026
:102CE000672D70E002C06FEF7FEFC5012C870E9457
:102CF000A0173C012C8550E8252E222A820123FCB6
:102D00001CC006C0B70180E290E00E94B6173A945A
:102D1000832D90E068167906A8F30FC0F50127FC13
:102D2000859127FE81915F01B70190E00E94B6175F
:102D300031103A94F1E06F1A71086114710471F75F
:102D4000EEC0843611F0893641F5F80127FF07C03F
:102D500060817181828193810C5F1F4F08C0608107
:102D60007181882777FD8095982F0E5F1F4F4FE662
:102D7000642E622297FF09C09095809570956195A9
:102D80007F4F8F4F9F4FF0E86F2A2AE030E0A40179
:102D90000E94E217A82EA81844C0853731F43FEEF0
:102DA000B32EB2222AE030E024C099EFB92EB2222D
:102DB0008F36B9F020F4883509F0B4C00DC08037E3
:102DC00021F0883709F0AEC002C020E1B22AB4FE7B
:102DD0000BC084E0B82A08C024FF09C0E6E0BE2A80
:102DE00006C028E030E005C020E130E002C020E16C
:102DF00032E0F801B7FE07C0608171818281938162
:102E00000C5F1F4F06C06081718180E090E00E5F13
:102E10001F4FA4010E94E217A82EA8188FE7682E62
:102E20006B2066FE0BC0362D3E7FA71450F464FE67
:102E30000AC062FC08C0362D3E7E05C0BA2C362D75
:102E400003C0BA2C01C0B72C34FF0DC0FE01EA0D3F
:102E5000F11D8081803311F4397E09C032FF06C034
:102E6000B394B39404C0832F867809F0B39433FDF0
:102E700014C030FF0FC07A2CB31460F4730C7B18AD
:102E8000B32C08C0B70180E290E03C870E94B617DF
:102E9000B3943C85B314B0F304C0B31410F43B18DE
:102EA00001C0312C34FF12C0B70180E390E03C87B1
:102EB0000E94B6173C8532FF1EC031FF03C088E573
:102EC00090E002C088E790E0B7010CC0832F8678BD
:102ED00091F031FD02C080E201C08BE237FD8DE24E
:102EE000B70190E00E94B61706C0B70180E390E0FA
:102EF0000E94B6177A94A714C0F3AA94F401EA0DBD
:102F0000F11DB701808190E00E94B617A110F5CFA6
:102F100006C0B70180E290E00E94B6173A943110E3
:102F2000F8CF42CEF7012681378102C02FEF3FEF65
:102F3000C9012C96E2E10C94801499278827089502
:102F4000FC010590615070400110D8F78095909574
:102F50008E0F9F1F0895FC01615070400190011079
:102F6000D8F7809590958E0F9F1F08950F931F930C
:102F7000CF93DF938C01EB018B8181FD03C00FEFB9
:102F80001FEF1AC082FF0DC02E813F818C819D8171
:102F90002817390764F4E881F9810193F983E883FC
:102FA00006C0E885F985802F0995892B41F78E8128
:102FB0009F8101969F838E83C801DF91CF911F91DE
:102FC0000F910895FA01AA27283051F1203181F19B
:102FD000E8946F936E7F6E5F7F4F8F4F9F4FAF4F21
:102FE000B1E03ED0B4E03CD0670F781F891F9A1F34
:102FF000A11D680F791F8A1F911DA11D6A0F711DE8
:10300000811D911DA11D20D009F468943F912AE0F3
:10301000269F11243019305D3193DEF6CF010895DB
:10302000462F4770405D4193B3E00FD0C9F7F6CF0C
:10303000462F4F70405D4A3318F0495D31FD4052D4
:10304000419302D0A9F7EACFB4E0A695979587956A
:1030500077956795BA95C9F7009761057105089549
:103060009B01AC010A2E06945795479537952795F5
:10307000BA95C9F7620F731F841F951FA01D08958D
:10308000DB018F939F930E945018BF91AF91A29F35
:10309000800D911DA39F900DB29F900D1124089556
:1030A0000E945B18A59F900DB49F900DA49F800D6A
:1030B000911D11240895A29FB001B39FC001A39F49
:1030C00001D0B29F700D811D1124911D0895F894B7
:0230D000FFCF30
:1030D20002460000000000414B00004F43435F5492
:1030E200582049443D256C752C206F6C6420736117
:1030F2006D706C655F706572696F643D2575004324
:10310200435F54582049443D256C752C206E6577E9
:103112002073616D706C655F706572696F643D25C7
:10312200750069643A256C75206973206D69737343
:10313200696E672E204E6577204554413D256C759A
:103142002C206E756D5F706572696F6473206D6996
:10315200737365643D25750028444542554729002F
:1031620028494E464F2900285741524E29002845EA
:1031720052524F52290028464154414C29002C20DA
:1031820000434320545820256C7520697320616CDC
:10319200726561647920696E206C697374004164A0
:1031A200646564204343205458206964203D2025EF
:1031B2006C75006E6F206D6F726520737061636550
:1031C20020666F7220434320545820256C750043BB
:1031D200432054525820256C7520697320616C720B
:1031E2006561647920696E206C697374004164645E
:1031F200656420434320545258206964203D2025B1
:103202006C75004E6F206D6F72652073706163651F
:1032120020666F722043432054525820256C75005B
:103222007B70773A2000207D004E657874206578A7
:103232007065637465642043435F54583A2049447F
:103242003D256C752C204554413D256C75007B5005
:10325200523A200052656365697665642043435F94
:103262005458207061636B657420776974682075A7
:103272006E6B6E6F776E20494420256C7500526527
:103282006365697665642043435F545258207061D8
:10329200636B6574207769746820756E6B6E6F77E7
:1032A2006E20494420256C750042726F6B656E205A
:1032B2007061636B65740057696E646F77206F701D
:1032C200656E2120457870656374696E6720256C90
:1032D2007520617420256C750057696E646F7720C4
:1032E200636C6F7365642E20737563636573733DDE
:1032F2002564004E6F20726573706F6E7365206671
:10330200726F6D2054525820256C752C2072657492
:10331200726965733D25642E205265747279696EF7
:10332200672E2E2E004E6F20726573706F6E73655E
:103332002066726F6D2054525820256C752061668C
:10334200746572207265747279696E672E2047699E
:1033520076696E672075702E0041434B206175744B
:103362006F5F70616972206D6F6465206F6E0041DE
:10337200434B206175646F5F70616972206D6F6489
:1033820065206F6666004E414B20506C6561736527
:1033920020656E61626C65206D616E75616C207076
:1033A200616972696E67206D6F64652028276D27D9
:1033B20029206265666F72652069737375696E672D
:1033C2002027702720636F6D6D616E642E0041436C
:1033D2004B20506C6561736520656E74657220497F
:1033E2004420666F6C6C6F7765642062792063613C
:1033F2007272696167652072657475726E3A004116
:10340200434B20706169725F7769746820736574D9
:1034120020746F200041434B20656E746572206CEE
:103422006F67206C6576656C3A0041434B204C6FA8
:1034320067206C6576656C2073657420746F20005C
:1034420041434B206F6E6C79207072696E742064F8
:103452006174612066726F6D206B6E6F776E20747F
:1034620072616E736D6974746572730041434B20AF
:103472007072696E7420616C6C2076616C69642074
:103482007061636B6574730041434B207072696EA7
:103492007420616C6C004E414B20756E7265636FD7
:1034A200676E6973656420636F6D6D616E6420275A
:1034B200007B69643A20002C20743A20002C20738F
:1034C200002C2073746174653A20004E4F204D4FDA
:1034D200524520425546464552532100617474615B
:1034E2006368696E6720696E7465727275707400C4
:1034F20041434B2043432054525820256C750050C1
:103502006F6C6C696E672043432054525820256CBF
:1035120075004544462049414D20526563656976F0
:1035220065720046696E697368656420696E6974C4
:1035320000000000008C0FFF10290F580F3C0F7A7B
:023542000F0078
:00000001FF
