:100000000C9461000C9440220C946D220C94890095
:100010000C9489000C9489000C9489000C9489003C
:100020000C9489000C9489000C9489000C9489002C
:100030000C9489000C9489000C9489000C9489001C
:100040000C949A220C9489000C94991F0C94CC1F48
:100050000C9489000C9489000C9489000C948900FC
:100060000C9489000C948900000000070002010034
:100070000003040600000000000000000102040864
:100080001020408001020408102001020408102002
:10009000040404040404040402020202020203032E
:1000A0000303030300000000250028002B000000CC
:1000B0000000240027002A007E1D081E87208C1DBA
:1000C0000C1E11241FBECFEFD8E0DEBFCDBF15E060
:1000D000A0E0B1E0E4E6F3E502C005900D92A23E97
:1000E000B107D9F717E0A2EEB5E001C01D92A6391D
:1000F000B107E1F710E0CEEBD0E004C02297FE019B
:100100000E948924C83BD107C9F70E94011E0C94A4
:10011000A5290C940000CF92DF92EF92FF920F93EB
:100120001F936B017C0120E030E040E05FE40E941F
:10013000EE0387FD0EC020E030E040E05FE4C70141
:10014000B6010E9436020E9479048B019C0130584E
:1001500006C0C701B6010E9479048B019C01B80159
:10016000C9011F910F91FF90EF90DF90CF900895FC
:10017000A0E0B0E0EEEBF0E00C9454243C01CB01A5
:10018000EA01D3012C91223008F43EC1FB013081F9
:10019000323008F436C1243071F4343009F034C1FF
:1001A00011962C918181281709F42EC1B2E16B2E92
:1001B000B1E07B2E29C1343009F423C1323091F4EF
:1001C000223009F021C128E0F301DA0101900D92FB
:1001D0002A95E1F7DB0111968C91F3019181892336
:1001E000898311C1223009F40CC1D3011296ED911B
:1001F000FC911397DB0112966D917C911397D301BB
:1002000014960D911D912D913C911797DC01149638
:10021000CD90DD90ED90FC901797AF01461B570BEA
:10022000DA0157FF04C0AA27BB27A41BB50BA032D5
:10023000B1050CF065C0141615067CF5B701A601D2
:100240000A2E04C076956795579547950A94D2F77C
:10025000812C912C5401839404C0880C991CAA1CF5
:10026000BB1CAA95D2F7B1E08B1A9108A108B1087E
:100270008C209D20AE20BF20C12CD12C7601C394B0
:1002800081149104A104B10419F4C12CD12C76017C
:10029000C42AD52AE62AF72A3EC0452BE1F1EA0F07
:1002A000FB1FB901A8010A2E04C0769567955795E2
:1002B00047950A94D2F7812C912C5401839404C061
:1002C000880C991CAA1CBB1CAA95D2F7A1E08A1A1B
:1002D0009108A108B10880229122A222B32201E054
:1002E00010E020E030E081149104A104B10419F47D
:1002F00000E010E09801042B152B262B372B0BC0A8
:100300006E177F0724F4C12CD12C760104C0FB01A9
:1003100000E010E09801D30111964C91DC01119698
:100320008C91481709F442C0442349F0D701C60113
:10033000801B910BA20BB30B8C019D0104C00C1907
:100340001D092E093F0937FD04C01982FB83EA838A
:100350000BC081E08983FB83EA833095209510955B
:1003600001951F4F2F4F3F4F0C831D832E833F83DB
:100370000DC0880F991FAA1FBB1F8C839D83AE835E
:10038000BF838A819B8101979B838A838C819D8116
:10039000AE81BF818C019D010150110921093109F4
:1003A0000F3F1F4F2F4F3F4320F30BC04983FB8369
:1003B000EA830C0D1D1D2E1D3F1D0C831D832E83F6
:1003C0003F8383E088830C811D812E813F8137FF2D
:1003D0001AC0D901C80181709927AA27BB27369571
:1003E000279517950795802B912BA22BB32B8C83E8
:1003F0009D83AE83BF838A819B8101969B838A8381
:1004000002C03C0101C03E01C301CDB7DEB7EEE042
:100410000C947024A0E2B0E0E0E1F2E00C946024DF
:100420006D8F7E8F8F8F98A3298F3A8F4B8F5C8F24
:10043000BE016F5E7F4FCE014D960E94FF05BE014B
:10044000675F7F4FCE0149960E94FF05AE014F5F67
:100450005F4FBE01675F7F4FCE0141960E94B8009B
:100460000E943E05A096E2E00C947C24A0E2B0E05D
:10047000ECE3F2E00C9460246D8F7E8F8F8F98A355
:10048000298F3A8F4B8F5C8FBE016F5E7F4FCE01FD
:100490004D960E94FF05BE01675F7F4FCE014996D2
:1004A0000E94FF058A8591E089278A87AE014F5F08
:1004B0005F4FBE01675F7F4FCE0141960E94B8003B
:1004C0000E943E05A096E2E00C947C24A0E2B0E0FD
:1004D000ECE6F2E00C9452246D8F7E8F8F8F98A300
:1004E000298F3A8F4B8F5C8FBE016F5E7F4FCE019D
:1004F0004D960E94FF05BE01675F7F4FCE01499672
:100500000E94FF059989923008F412C089858230D3
:1005100008F41AC0943021F4823009F4B4C008C041
:10052000843021F4923009F4AEC00EC0923051F400
:1005300081E02A899A85291301C080E08A8BCE0147
:100540004196A3C0823051F481E02A899A8529130B
:1005500001C080E08A87CE01099697C08D889E8869
:10056000AF88B88C0D851E852F853889E0E2F0E0D4
:1005700080E090E0DC01C12CD12C760140E050E01D
:10058000BA0180FE18C0400F511F621F731F8C0DEF
:100590009D1DAE1DBF1D412C512C320143944017AF
:1005A00051076207730718F0412C512C3201840D5A
:1005B000951DA61DB71DCC0CDD1CEE1CFF1C37FFC6
:1005C00002C06894C0F8000F111F221F331FB69499
:1005D000A794979487943197A1F62B893C89EB8552
:1005E000FC852E0F3F1F2E5F3F4F3C832B8321E066
:1005F000EA893A85E31301C020E02A83EB81FC817C
:100600000CC080FF05C07695679557954795706833
:10061000B695A795979587953196B7FDF2CF9F012F
:100620000CC0880F991FAA1FBB1F77FD8160440F64
:10063000551F661F771F215031090097A105E0E47F
:10064000BE0778F32B833C838C019D010F77112724
:1006500022273327003411052105310559F487FD80
:1006600009C0452B462B472B29F0805C9F4FAF4F8D
:10067000BF4F80788D839E83AF83B88783E0898363
:10068000CE01019602C082E191E00E943E05A09653
:10069000E0E10C946E24A8E1B0E0E1E5F3E00C9415
:1006A0005A246D8B7E8B8F8B988F298B3A8B4B8B3B
:1006B0005C8BBE01675F7F4FCE0145960E94FF05B0
:1006C000BE016F5F7F4FCE0141960E94FF05998565
:1006D000923008F475C08981823008F474C02A858C
:1006E0003A8123272A87943011F0923019F4981315
:1006F00067C06CC0843039F41D861E861F86188A38
:100700001C861B8604C0823029F484E08987CE01D0
:1007100009965EC08B859C852B813C81821B930B47
:100720009C878B874D855E856F857889CD80DE803F
:10073000EF80F8844C155D056E057F0538F4440F95
:10074000551F661F771F01979C878B87EFE1F0E0AD
:1007500000E010E020E030E480E090E0DC014C15A7
:100760005D056E057F0540F0802B912BA22BB32BEE
:100770004C195D096E097F093695279517950795E0
:10078000440F551F661F771F319749F78C019D0154
:100790000F77112722273327003411052105310552
:1007A00059F487FD09C0452B462B472B29F0805C67
:1007B0009F4FAF4FBF4F80788D879E87AF87B88B95
:1007C000CE01099605C0CE01019602C082E191E0FA
:1007D0000E943E056896E8E00C947624A8E1B0E01B
:1007E000E4EFF3E00C9460246D8B7E8B8F8B988FFD
:1007F000298B3A8B4B8B5C8BBE01675F7F4FCE01A1
:1008000045960E94FF05BE016F5F7F4FCE01419666
:100810000E94FF058985823058F08981823040F03E
:10082000BE016F5F7F4FCE0109960E946E0601C028
:100830008FEF6896E2E00C947C24A8E0B0E0E3E25D
:10084000F4E00C945E2423E029838B019C010027B3
:1008500037FD0395112722273327402F0A8361157F
:1008600071058105910519F482E0898335C02EE177
:1008700030E03C832B83442371F0611571058105C1
:1008800020E8920771F1002711279801061B170B2A
:10089000280B390B02C08B019C01C901B8010E94D1
:1008A0008D240197181619062CF00D831E832F83B3
:1008B000388712C0082E04C0000F111F221F331FDB
:1008C0000A94D2F70D831E832F8338872EE130E000
:1008D000281B390B3C832B83CE0101960E943E05D9
:1008E00004C060E070E080E09FEC2896E4E00C94A7
:1008F0007A24ACE0B0E0EFE7F4E00C945E24698782
:100900007A878B879C87BE016F5F7F4FCE010996E8
:100910000E94FF058981823091F1823080F184301C
:1009200041F48A81882331F100E010E020E030E8D2
:1009300029C02B813C8137FD22C02F3131058CF736
:100940008EE190E0821B930B0D811E812F813885F3
:1009500004C036952795179507958A95D2F78A8111
:10096000882381F030952095109501951F4F2F4FCA
:100970003F4F08C00FEF1FEF2FEF3FE703C000E02E
:1009800010E09801B801C9012C96E4E00C947A2497
:10099000A8E0B0E0EEECF4E00C945A248B019C014A
:1009A0001A82611571058105910519F482E0898328
:1009B0005DC083E089834EE150E05C834B83C901D5
:1009C000B8010E948D24019797FF39C0EE27FF27B9
:1009D000E81BF90B41E050E060E070E00E2E04C02F
:1009E000440F551F661F771F0A94D2F741505109D3
:1009F000610971094023512362237323C12CD12C37
:100A00007601C394452B462B472B19F4C12CD12CCE
:100A1000760104C03695279517950795EA95D2F784
:100A20000C291D292E293F290D831E832F833887EA
:100A30002EE130E0281B390B3C832B8317C0009735
:100A400029F40D831E832F83388710C0082E04C01D
:100A5000000F111F221F331F0A94D2F70D831E832C
:100A60002F833887481B590B5C834B83CE0101963B
:100A70000E943E052896E8E00C9476240F931F937D
:100A8000CF93FC014481558166817781C18180814A
:100A9000823020F460618FEF90E0A3C0843009F4CD
:100AA0009BC0823009F492C0411551056105710562
:100AB00009F48FC02281338122388FEF38070CF080
:100AC00057C0E2E8FFEFE21BF30BEA31F10564F5F2
:100AD0008A019B010E2E04C0369527951795079520
:100AE0000A94D2F781E090E0A0E0B0E004C0880F63
:100AF000991FAA1FBB1FEA95D2F70197A109B10957
:100B000084239523A623B72341E050E060E070E002
:100B1000892B8A2B8B2B19F440E050E0BA01402B33
:100B2000512B622B732B03C040E050E0BA01DB0174
:100B3000CA018F779927AA27BB2780349105A10581
:100B4000B10539F447FF09C0405C5F4F6F4F7F4FDD
:100B500004C0415C5F4F6F4F7F4F81E090E04115D3
:100B60005105610520E4720748F580E090E026C059
:100B7000203831058CF5DB01CA018F779927AA2728
:100B8000BB2780349105A105B10539F447FF09C0A1
:100B9000405C5F4F6F4F7F4F04C0415C5F4F6F4FB2
:100BA0007F4F77FD04C0C90181589F4F07C07695DC
:100BB000679557954795C90180589F4F97E076955F
:100BC0006795579547959A95D1F70BC080E090E0CF
:100BD00005C080E090E005C08FEF90E040E050E07D
:100BE000BA01982F9695C0FB97F9362F80FB37F9FD
:100BF000642F752F832FCF911F910F910895CF925E
:100C0000DF92EF92DC01FB01CC901196DC90119702
:100C100012968C9112973FE7E32EE8226E2DA601E3
:100C200070E0982F991F9927991F13962C91822F66
:100C3000880F892B90E027FB222720F9218300973A
:100C400029F5411551056105710511F482E027C0B0
:100C500082E89FEF9383828327E0440F551F661F2E
:100C6000771F2A95D1F783E0808309C0440F551F71
:100C7000661F771F82819381019793838283411539
:100C80005105610580E4780788F320C08F3F910506
:100C900079F4411551056105710519F484E08083EB
:100CA00019C0E4FE03C081E0808310C010820EC032
:100CB0008F5791099383828383E0808387E0440F79
:100CC000551F661F771F8A95D1F77064448355833B
:100CD00066837783EF90DF90CF900895CF93FC01E8
:100CE000DB019081923008F452C08C91823008F47C
:100CF0004EC0943071F4843039F411962C9130E068
:100D00008181281B310948C08181882309F43FC0B3
:100D10003BC0843029F411968C91811138C034C0C5
:100D2000923019F48230B9F735C0823069F3C1814D
:100D300011968C911197C8131DC022813381129690
:100D40008D919C911397821793070CF413C0281769
:100D500039070CF417C04481558166817781149658
:100D60008D919D910D90BC91A02D84179507A6079C
:100D7000B70718F4C11108C00AC0481759076A0715
:100D80007B0740F4C11103C02FEF3FEF05C021E006
:100D900030E002C020E030E0C901CF91089525E5A0
:100DA00032E0FC0131832083089525E532E0FC0127
:100DB00031832083089525E532E0FC0131832083CF
:100DC0000C94DE1D25E532E0FC01318320830C9478
:100DD000DE1D0F931F93CF93DF938C018DE792E07D
:100DE000F8019183808382819381009719F1FC013E
:100DF0003297208131814DE1429FE001439FD00D28
:100E00001124C80FD91FCE01F801228133816D97BB
:100E10008217930741F0E881F9810190F081E02D7C
:100E2000CE010995F0CF0297DF91CF911F910F91DD
:100E30000C94E21DDF91CF911F910F910895CF93F4
:100E4000DF93EC010E94E906CE01DF91CF910C9473
:100E5000DE1D29E632E0FC01318320830C94E90693
:100E6000CF93DF93EC010E942907CE01DF91CF9150
:100E70000C94DE1D0F931F93CF93DF938C0187E8B3
:100E800092E0F8019183808382819381009719F128
:100E9000FC0132972081318146E0429FE001439F6F
:100EA000D00D1124C80FD91FCE01F8012281338142
:100EB00026978217930741F0E881F9810190F0812C
:100EC000E02DCE010995F0CF0297DF91CF911F91D0
:100ED0000F910C94E21DDF91CF911F910F91089516
:100EE000CF93DF93EC010E943A07CE01DF91CF91BF
:100EF0000C94DE1D23E732E0FC01318320830C9447
:100F00003A07CF93DF93EC010E947A07CE01DF917D
:100F1000CF910C94DE1D6AE171E08CED96E00C94AB
:100F20000F2162E271E08CED96E00C940F21FC0140
:100F300042815381648175812AE030E08CED96E036
:100F40000C949E21CF93DF93EC0168814AE050E03E
:100F500070E08CED96E00E9418228881823089F042
:100F600028F4882341F08130D1F408C0833061F047
:100F70008430A9F40CC069E271E00BC061E371E058
:100F800008C068E371E005C06FE371E002C067E488
:100F900071E08CED96E0DF91CF910C940F21DF9101
:100FA000CF9108950F931F93CF93DF93CDB7DEB703
:100FB000C254D1090FB6F894DEBF0FBECDBF2B9639
:100FC0000EAD1FAD2B9790910601F8018081891716
:100FD00078F10E94E422AB01BC012AE030E08CED04
:100FE00096E00E949E216AE973E08CED96E00E94F3
:100FF0000F21C8010E94A2076AE973E08CED96E018
:101000000E940F21AE01435B5F4F23965FAF4EAF4F
:1010100023972D966EAD7FAD2D97CE0101960E9440
:10102000E226BE016F5F7F4F8CED96E00E942E217D
:10103000CE5BDF4F0FB6F894DEBF0FBECDBFDF91A2
:10104000CF911F910F91089525E532E0FC01318386
:1010500020834FEF5FEFBA0142835383648375832C
:10106000089525E532E0FC0131832083FB014081B6
:10107000518162817381FC01428353836483758350
:101080000895CF92DF92EF92FF92CF93DF93EC011E
:10109000CC24CA94DC2C7601CA82DB82EC82FD82ED
:1010A0008FE592E099838883CE010A960E94941D71
:1010B000CE82DF82E886F986188E198E1A8E1B8EF4
:1010C0001C8EDF91CF91FF90EF90DF90CF9008952D
:1010D000CF93DF93EC01FB014081518162817381E9
:1010E0004A835B836C837D838FE592E09983888359
:1010F000CE010A960E94941D4FEF5FEFBA014E8316
:101100005F8368877987188E198E1A8E1B8E1C8EC6
:10111000DF91CF910895CF93DF93EC016FE471E0FD
:101120008CED96E00E940F214A815B816C817D816C
:101130002AE030E08CED96E00E949E2165E571E0AA
:101140008CED96E00E940F21498D5A8D6B8D7C8D20
:101150002AE030E08CED96E00E949E2163E671E08B
:101160008CED96E00E940F214AE050E0688D8CEDF6
:1011700096E00E94C5216AE771E08CED96E00E943E
:101180000F214E815F81688579852AE030E08CED02
:1011900096E00E949E2162E871E08CED96E00E944C
:1011A0000F21CE010A960E94BD1D4AE050E0BC010D
:1011B0008CED96E00E94BF2161E173E08CED96E03A
:1011C000DF91CF910C940F216F927F928F929F921B
:1011D000AF92BF92CF92DF92EF92FF920F931F9345
:1011E000CF93DF9300D01F92CDB7DEB78C014B01B8
:1011F000FC01418D528D638D748D452B462B472B01
:1012000009F478C03C01FAE06F0E711CC3010E9422
:10121000BD1DF80122813381448155811B829F933A
:101220008F935F934F933F932F9384E991E09F9324
:101230008F935E01F3E0AF0EB11CBF92AF920E949C
:10124000D207C4010E94561AFC016081718182811B
:101250009381F801C18CD28CE38CF48C6C197D09DC
:101260008E099F09208D30E040E050E00E942E243E
:10127000C9013A832983255436410FB6F894DEBF5D
:101280000FBECDBF27353240B8F41B829F938F939A
:1012900087EB91E09F938F93BF92AF920E94D2070A
:1012A000BE016F5F7F4FC3010E94A71D0F900F907B
:1012B0000F900F900F900F90C3010E94BD1DF80179
:1012C00022813381448155811B829F938F935F9349
:1012D0004F933F932F9383ED91E09F938F93CE0194
:1012E00003969F938F930E94D2070FB6F894DEBFA8
:1012F0000FBECDBFC4010E94561AFC01C080D18030
:10130000E280F380C8010A960E94BD1DC80ED91E56
:10131000E11CF11CF801C682D782E086F18681E0EB
:10132000808FC4010E94561AFC0140815181628164
:101330007381F801418F528F638F748F0F900F90DC
:101340000F90DF91CF911F910F91FF90EF90DF9061
:10135000CF90BF90AF909F908F907F906F900895A7
:10136000CF92DF92EF92FF92CF93DF93EC01CE808A
:10137000DF80E884F9840E94E422C616D706E806D6
:10138000F90638F44FEF5FEFBA014E835F83688749
:1013900079872696CE01DF91CF91FF90EF90DF9075
:1013A000CF9008950F931F93CF93DF931F92CDB7E4
:1013B000DEB78C010A960E94BD1DD80116964D918C
:1013C0005D916D917C911997480F591F611D711D99
:1013D000F8014683578360877187808D8F5F808F88
:1013E000928123813481E581F1E0F9831F928F930B
:1013F0007F936F935F934F93EF933F932F939F93BD
:1014000086EF91E09F938F93CE0101969F938F93E8
:101410000E94D2070FB6F894DEBF0FBECDBF0F906B
:10142000DF91CF911F910F910895BF92CF92DF92DC
:10143000EF92FF920F931F93CF93DF931F92CDB73D
:10144000DEB78C01B12C2EC0D80112968D919C91E3
:101450001397BDE1BB9E800D911D11240E94B00920
:10146000FC01C080D180E280F380D80115962C91D8
:10147000159712968D919C911397BDE12B9F800D2E
:10148000911D11240E94B009FC01408151816281AB
:101490007381C416D506E606F70618F4D80115962A
:1014A000BC92B394F8018481B81670F225818281D0
:1014B0009381FDE12F9F800D911D11240E94B009A1
:1014C000FC014081518162817381D80115968C9114
:1014D00015971296ED91FC911397BDE18B9FE00D4E
:1014E000F11D1124828193812481358119827F939A
:1014F0006F935F934F933F932F939F938F938CE2C0
:1015000092E09F938F93CE0101969F938F930E94B9
:10151000D2070FB6F894DEBF0FBECDBF0F90DF919C
:10152000CF911F910F91FF90EF90DF90CF90BF90E0
:101530000895FC0185818F5F85839481891301C0A3
:1015400015820895AF92BF92CF92DF92EF92FF92F1
:101550000F93CF93DF93C02FC15050E0D6E030E01F
:1015600022C0AC2EB12CF501E40FF51FDE9F7001F7
:10157000DF9FF00C1124DC01ED91FC91EE0DFF1DBD
:10158000C280D380E480F580D501A20FB31FDA9F1B
:10159000F001DB9FF00D1124E60FF71FC282D3820A
:1015A000E482F582C150C017E0F2DF91CF910F9134
:1015B000FF90EF90DF90CF90BF90AF9008958F9203
:1015C0009F92AF92BF92CF92DF92EF92FF920F93D2
:1015D0001F93CF93DF93102F115050E03DE1932ED6
:1015E000A22EB12CEEE08E2E41C0E12FF0E09F0143
:1015F000240F351F929ED001939EB00D1124EC0153
:10160000288139812A0F3B1FEA0DFB1D9E9EE001B8
:101610009F9ED00D1124C60FD71FF901C280D38021
:10162000E480F580CA82DB82EC82FD82C680D780AE
:10163000E084F184CE82DF82E886F9863A96DE0184
:101640001A96F82C01900D92FA94E1F7D901589668
:10165000EC915897E88F5996CD90DD90ED90FC90E5
:101660005C97C98EDA8EEB8EFC8E1150101708F441
:10167000BCCFDF91CF911F910F91FF90EF90DF9042
:10168000CF90BF90AF909F908F900895FC0181E024
:1016900081834FEF5FEFBA01428353836483758385
:1016A00086831286118613861486158616861786FB
:1016B000108A118A128A138A148A158A89E692E09E
:1016C00090878783118E108E128E138E148E158E36
:1016D000168E178E10A211A212A213A214A283E7D3
:1016E00092E0978B868B15A216A217A210A611A6C0
:1016F00008950E94B51B0C94171B1F93CF93DF9383
:10170000EC016DE872E08CED96E00E942E2161E91B
:1017100072E08CED96E00E940F21E881F98104804F
:10172000F581E02DCE01099563E972E08CED96E03C
:101730000E942E2110E018C08A819B812DE1129F0A
:10174000800D911D11240E948B08212F30E08E8185
:1017500090E001972817390734F468E972E08CEDBE
:1017600096E00E942E211F5F8E81181728F36BE9E7
:1017700073E08CED96E00E942E216AE972E08CED18
:1017800096E0DF91CF911F910C942E211F93CF9360
:10179000DF93EC016DE872E08CED96E00E942E2163
:1017A00061E972E08CED96E00E940F21E881F981F9
:1017B0000480F581E02DCE01099563E972E08CED9E
:1017C00096E00E942E2110E01DC08A819B8126E0B8
:1017D000129F800D911D1124DC01ED91FC9104807C
:1017E000F581E02D0995212F30E08E8190E0019761
:1017F0002817390734F468E972E08CED96E00E940E
:101800002E211F5F8E81181700F36BE973E08CEDBA
:1018100096E00E942E216AE972E08CED96E0DF915D
:10182000CF911F910C942E212F923F924F925F9255
:101830006F927F928F929F92AF92BF92CF92DF92E0
:10184000EF92FF920F931F93CF93DF9300D000D0BE
:1018500000D0CDB7DEB78C017C836B831A01DB012E
:10186000CD90DD90ED90FC90FC0187809084A18468
:10187000B284C814D904EA04FB0418F4DA011C92F7
:101880009AC0FC014384548465847684F681FA838B
:101890004C145D046E047F0418F4DA01FC938BC0D1
:1018A000FA81F23008F484C0C701B60168197909D9
:1018B0008A099B090E94C8046B017C01C301B20123
:1018C000681979098A099B090E94C8049B01AC0127
:1018D000C701B6010E944B036B017C014A81642F52
:1018E00070E061507109882777FD8095982F0E94DC
:1018F0001D049B01AC01C701B6010E9466020E9453
:101900008B00D1016C93F8018681681708F08C93E5
:10191000D1018C918823D1F0D8011296ED91FC91E0
:101920001397BDE18B9FE00DF11D11248280938000
:10193000A480B580EB81FC81C080D180E280F380FF
:10194000C814D904EA04FB0408F45EC0D1012C9148
:10195000F8013681AB81BC81CD90DD90ED90FC909B
:10196000BDE12B9FC0011124231798F0D8011296D6
:10197000ED91FC911397E80FF91F81E042815381AB
:10198000648175814C155D056E057F0509F444C0C1
:1019900012C00280F381E02DE80FF91F828093804E
:1019A000A480B5808C149D04AE04BF0488F1DECF02
:1019B000BA81B13011F080E02FC0FC0182819381A7
:1019C000009789F482E089838DE992E09F938F9359
:1019D000CE0101969F938F930E94D2070F900F9094
:1019E0000F900F9002C09E838D83ED81FE818281D6
:1019F0009381A481B581C816D906EA06FB06D9F6FB
:101A0000D1011C9281E008C08150F101808380CF18
:101A10002F5FD1012C939ACF26960FB6F894DEBF94
:101A20000FBECDBFDF91CF911F910F91FF90EF902F
:101A3000DF90CF90BF90AF909F908F907F906F90EE
:101A40005F904F903F902F9008956F927F928F926A
:101A50009F92AF92BF92CF92DF92EF92FF920F933D
:101A60001F93CF93DF93CDB7DEB76F970FB6F89480
:101A7000DEBF0FBECDBF7C016B011F8EAE01415E8C
:101A80005F4F0E94140C8823F9F0D6018C911196B7
:101A90009C91119712962C91129713963C911E8E41
:101AA0003F932F939F938F938EEB92E09F938F930F
:101AB000CE014E969F938F930E94D2070FB6F89453
:101AC000DEBF0FBECDBF92C0D70116960C91169700
:101AD00014966C901497061508F04FC04F8D041B98
:101AE000242F2F5F12966D917C911397C701029658
:101AF0000E94DF0AB601CE0101960E9468082F8D70
:101B0000F70182819381FDE12F9F800D911D1124AA
:101B10004B815C816D817E81DC0112964D935D93DA
:101B20006D937C9315974F81588569857A85FC0163
:101B300046835783608771872EE0FE013B961A9695
:101B400001900D922A95E1F7298DDC0158962C938E
:101B50004A8D5B8D6C8D7D8DFC01418F528F638F23
:101B6000748FCE0101960E94D506D70116968C91EE
:101B700016978F5F16968C93B9C0712C4301BFEFF7
:101B80008B1A9B0A2DE1289DC001299D900D1124DF
:101B900002960E94E01D5C01FC01819291928F01EE
:101BA000812C912C08C0C8010E944108035E1F4F80
:101BB000FFEF8F1A9F0AC30188199909019699F7B7
:101BC00032E0A30EB11CA114B10491F483E08E8F16
:101BD00086ED92E09F938F93CE014E969F938F93C5
:101BE0000E94D2070F900F900F900F9080E0B9C025
:101BF000470182E0880E911C0F8D20E040E0B50186
:101C0000C4010E94DF0AB601CE0101960E94680855
:101C10008F8D95019DE1899F200D311D11244B81F0
:101C20005C816D817E81D90112964D935D936D9398
:101C30007C9315974F81588569857A85F90146838C
:101C40005783608771878EE0FE013B961A9601905C
:101C50000D928A95E1F7898DD90158968C934A8D1A
:101C60005B8D6C8D7D8DF901418F528F638F748FE9
:101C7000CE0101960E94D5064F8DD70116960C9184
:101C8000041B242F2F5FB501C4010E94DF0AF70156
:101C900082819381009719F1FC0132972081318173
:101CA0004DE1429F8001439F100D1124080F191F21
:101CB000C801D70112962D913C9113970D5111092E
:101CC0008217930749F0D801ED91FC910190F081C2
:101CD000E02DC8010995ECCF02970E94E21DF701A3
:101CE000B382A28284818F5F84838683D701149616
:101CF0008C911497F601408151816281738181300A
:101D000061F41B964D935D936D937C931E97F70141
:101D1000478350876187728724C0D7011B960D9136
:101D20001D912D913C911E97041715072607370723
:101D300030F4F701438754876587768711C0D70150
:101D400017960D911D912D913C911A9740175107AF
:101D50006207730728F4F70147835087618772870A
:101D600081E06F960FB6F894DEBF0FBECDBFDF9156
:101D7000CF911F910F91FF90EF90DF90CF90BF9088
:101D8000AF909F908F907F906F9008950F931F93C7
:101D9000CF93DF9300D000D0CDB7DEB78C0164EED7
:101DA00072E08CED96E00E940F21D801ED91FC913C
:101DB0000480F581E02DC80109956FEE72E08CED8D
:101DC00096E00E942E210E94DD1E69837A838B8318
:101DD0009C83BE016F5F7F4FC8010E94250D882341
:101DE00019F06DE872E002C06BEF72E08CED96E0E6
:101DF0000E940F2163E073E08CED96E00E940F21BA
:101E0000D801ED91FC910480F581E02DC801099580
:101E100049815A816B817C812AE030E08CED96E02B
:101E20000E94AB210F900F900F900F90DF91CF91F8
:101E30001F910F9108952F923F924F925F926F9250
:101E40007F928F929F92AF92BF92CF92DF92EF924A
:101E5000FF920F931F93CF93DF9300D000D000D059
:101E6000CDB7DEB78C017C836B831A01DB01CD908B
:101E7000DD90ED90FC90FC0187809084A184B28479
:101E8000C814D904EA04FB0418F4DA011C929AC0BD
:101E9000FC014384548465847684F681FA834C146F
:101EA0005D046E047F0418F4DA01FC938BC0FA81A0
:101EB000F23008F484C0C701B601681979098A09AB
:101EC0009B090E94C8046B017C01C301B20168191F
:101ED00079098A099B090E94C8049B01AC01C701CA
:101EE000B6010E944B036B017C014A81642F70E0B4
:101EF00061507109882777FD8095982F0E941D04F5
:101F00009B01AC01C701B6010E9466020E948B00D2
:101F1000D1016C93F8018681681708F08C93D10188
:101F20008C918823D1F0D8011296ED91FC911397F2
:101F3000B6E08B9FE00DF11D112482809380A48078
:101F4000B580EB81FC81C080D180E280F380C81431
:101F5000D904EA04FB0408F45EC0D1012C91F80115
:101F60003681AB81BC81CD90DD90ED90FC90B6E0E8
:101F70002B9FC0011124231798F0D8011296ED91E0
:101F8000FC911397E80FF91F81E04281538164812E
:101F900075814C155D056E057F0509F444C012C0BE
:101FA0000280F381E02DE80FF91F82809380A480E6
:101FB000B5808C149D04AE04BF0488F1DECFBA81D5
:101FC000B13011F080E02FC0FC0182819381009735
:101FD00089F482E089838DE992E09F938F93CE010B
:101FE00001969F938F930E94D2070F900F900F90AE
:101FF0000F9002C09E838D83ED81FE81828193814B
:10200000A481B581C816D906EA06FB06D9F6D10126
:102010001C9281E008C08150F101808380CF2F5F46
:10202000D1012C939ACF26960FB6F894DEBF0FBE3F
:10203000CDBFDF91CF911F910F91FF90EF90DF9077
:10204000CF90BF90AF909F908F907F906F905F9058
:102050004F903F902F9008956F927F928F929F9212
:10206000AF92BF92CF92DF92EF92FF920F931F93A6
:10207000CF93DF93CDB7DEB728970FB6F894DEBFC6
:102080000FBECDBF7C016B011886AE01485F5F4F6C
:102090000E941B0F8823F9F0D6018C9111969C9118
:1020A000119712962C91129713963C911F823F9391
:1020B0002F939F938F938EEB92E09F938F93CE01FC
:1020C00007969F938F930E94D2070FB6F894DEBFB6
:1020D0000FBECDBF6FC0D70116960C911697149600
:1020E0006C901497061560F54885041B242F2F5F0C
:1020F00012966D917C911397C70102960E94A20AD5
:10210000B601CE0101960E94310888854B815C8121
:102110006D817E81D7011296ED91FC911397B6E007
:102120008B9FE00DF11D11244283538364837583DB
:10213000CE0101960E94CF06F70186818F5F98C07D
:10214000712C4301FFEF8F1A9F0A26E0289DC001E2
:10215000299D900D112402960E94E01D5C01DC0176
:102160008D929D928D01812C912C05C00E94240896
:10217000BFEF8B1A9B0AC8010A5F1F4F93012819F2
:1021800039092F3F3F4F91F7F2E0AF0EB11CA11478
:10219000B10491F483E08F8386ED92E09F938F9357
:1021A000CE0107969F938F930E94D2070F900F90B6
:1021B0000F900F9080E098C0470142E0840E911C80
:1021C000088520E040E0B501C4010E94A20AB601E2
:1021D000CE0101960E94310888854B815C816D811A
:1021E0007E81F50196E0899FE00DF11D1124428367
:1021F000538364837583CE0101960E94CF06488580
:10220000D70116960C91041B242F2F5FB501C40132
:102210000E94A20AF70182819381009719F1FC01C3
:1022200032972081318146E0429F8001439F100D0B
:102230001124080F191FC801D70112962D913C9146
:102240001397065011098217930749F0D801ED91B1
:10225000FC910190F081E02DC8010995ECCF029727
:102260000E94E21DF701B382A28284818F5F848382
:102270008683D70114968C911497F6014081518181
:1022800062817381813061F41B964D935D936D93F0
:102290007C931E97F701478350876187728724C01C
:1022A000D7011B960D911D912D913C911E970417FE
:1022B00015072607370730F4F701438754876587EA
:1022C000768711C0D70117960D911D912D913C91E4
:1022D0001A97401751076207730728F4F7014783DD
:1022E00050876187728781E028960FB6F894DEBF29
:1022F0000FBECDBFDF91CF911F910F91FF90EF9057
:10230000DF90CF90BF90AF909F908F907F906F9015
:1023100008950F931F93CF93DF93EC01FB0180810E
:10232000882351F0813059F5BE016E5F7F4FCE0199
:1023300007960E94250D0BC08E010E5F1F4FC8012E
:102340000E94DA1CB801CE0146960E942C10882308
:10235000B1F06AE073E08CED96E00E940F214A81B3
:102360005B816C817D812AE030E08CED96E00E94FB
:102370009E2160E173E08CED96E00E942E214FEFEC
:102380005FEFBA014A835B836C837D83DF91CF91DA
:102390001F910F9108950F931F93CF93DF9300D058
:1023A00000D0CDB7DEB78C0164EE72E08CED96E024
:1023B0000E940F21D801ED91FC910480F581E02D60
:1023C000C80109956FEE72E08CED96E00E942E2117
:1023D0000E94DD1E69837A838B839C83BE016F5FBD
:1023E0007F4FC8010E942C10882319F06DE872E01D
:1023F00002C06BEF72E08CED96E00E940F2163E06B
:1024000073E08CED96E00E940F21D801ED91FC91D4
:102410000480F581E02DC801099549815A816B81BD
:102420007C812AE030E08CED96E00E94AB210F9099
:102430000F900F900F90DF91CF911F910F91089502
:10244000EF92FF920F931F93CF93DF931F92CDB71D
:10245000DEB78C018CED96E00E94301F7C019C0160
:1024600033272436310509F4B8C0D4F42C343105AF
:1024700009F4FCC04CF42D30310509F40DC12434AD
:10248000310509F0F8C0CBC02136310521F12236E3
:10249000310509F492C02E34310509F0ECC098C022
:1024A0002E36310509F48FC054F42C36310509F469
:1024B000D8C0C4F42B36310509F0DDC072C0253711
:1024C000310509F473C026373105D1F120373105C4
:1024D00009F0D1C00CC081E0D80111968C9363E162
:1024E00073E0D6C0F801118264E273E0D1C0D80174
:1024F00011968C91882319F066E373E0C9C060E6F9
:1025000073E08CED96E00E942E210E94DD1EF80102
:1025100062837383848395836EE673E08CED96E02B
:102520000E940F21D80112964D915D916D917C9181
:1025300015972AE030E08CED96E00E94AB21ACC00C
:1025400064E873E08CED96E00E942E2110E0198380
:10255000CE0101960E94A20769E973E08CED96E036
:102560000E940F211F5F143091F71983CE0101964D
:102570000E94A2076BE973E08CED96E00E942E2189
:102580000E94DD1E609306016CE973E08CED96E01D
:102590000E940F2186E091E00E94A2076BE973E0A0
:1025A00077C0F801168262EB73E072C081E0D80157
:1025B00016968C936EED73E06BC082E0F801868313
:1025C0006AEF73E065C0C80107960E94C60E64C03A
:1025D000C80146960E94CB115FC07801F7E0EF0E6C
:1025E000F11CD8011C961C921C971D961C921D97DD
:1025F000F801128A138A148A158A1E961D921D925A
:102600001D921C92519768E074E08CED96E00E9458
:102610000F21D8011796ED91FC9118971AC07801F7
:10262000B6E1EB0EF11CF801138E148E11A212A26A
:1026300013A214A2158E168E178E10A268E074E0F5
:102640008CED96E00E940F21D8015696ED91FC91F9
:1026500057970480F581E02DC701099561E475E085
:1026600017C0C80107960E947D0B16C0C801469688
:102670000E94C60B11C068E174E08CED96E00E94E8
:102680000F216E2D8CED96E00E94112161E374E024
:102690008CED96E00E942E210F90DF91CF911F913B
:1026A0000F91FF90EF9008956F927F928F929F927B
:1026B000AF92BF92CF92DF92EF92FF920F931F9350
:1026C000CF93DF931F92CDB7DEB74C013B015A0188
:1026D000FA01808191812281338119823F932F9366
:1026E0009F938F9383E394E09F938F938E010F5F6B
:1026F0001F4F1F930F930E94D2070FB6F894DEBFAF
:102700000FBECDBFF3018081813009F03FC0198237
:10271000A801B501C40107960E94140C811155C08F
:1027200035C01982AE014F5F5F4FB501C4014696B7
:102730000E941B0F81112FC03DC0F401028313833F
:102740002483358332C0F401C280D380E480F580D5
:10275000C016D106E206F30609F427C065E474E06A
:102760008CED96E00E940F21F5014081518162813C
:1027700073812AE030E08CED96E00E949E2161E1B9
:1027800073E08CED96E00E942E211FC0F301808142
:10279000811110C0C6CFF5014081518162817381E2
:1027A000F4014283538364837583B301C4010E949F
:1027B00089110BC0F4018181F50100811181228111
:1027C0003381882309F4BFCFB8CF0F90DF91CF9129
:1027D0001F910F91FF90EF90DF90CF90BF90AF903F
:1027E0009F908F907F906F9008952F923F924F927D
:1027F0005F926F927F928F929F92AF92BF92CF9291
:10280000DF92EF92FF920F931F93CF93DF93CDB799
:10281000DEB72E970FB6F894DEBF0FBECDBF3C01DA
:102820007B876A87412C512C312C4E0125E0820E8A
:10283000911C46969E878D87D3011796B987A887E6
:10284000B5E2B49D5001B59DB00C1124E3EEF5E066
:10285000AE0EBF1EC5010E94BC17882309F4D2C06A
:10286000C5010E94401A882309F4AEC0C5010E9428
:10287000511ADC010D911D912D913C9109831A8310
:102880002B833C8381E0EA85FB85C080D180E28098
:10289000F3800C151D052E053F0509F080E0382A50
:1028A000C5010E942A19DC018C918F83C5010E9409
:1028B0009C19882391F0D501ED91FC910480F5815C
:1028C000E02DC5010995AE014F5F5F4FBE01695F05
:1028D0007F4FC3010E9454139DC01F81112309F42F
:1028E00048C0113009F086C0AE014A5F5F4FBE019B
:1028F0006F5F7F4F888599850E94140C882369F14A
:10290000F301218532852115310561F08E81958590
:10291000891740F4FDE18F9F200D311D1124222ED7
:102920003C870EC022E02D838DE992E09F938F9328
:102930009F928F920E94D2070F900F900F900F904E
:10294000B501822D9C850E94E408C5010E9494185F
:10295000888599850E94150A4DC089819A812B81AD
:102960003C811D833F932F939F938F93EBE4F4E07F
:1029700017C01D82A401BE016F5F7F4F8D859E85AC
:102980000E941B0F81111CC089819A812B813C817F
:10299000B1E0BD833F932F939F938F93E1E7F4E0E2
:1029A000FF93EF939F928F920E94D2070FB6F894F5
:1029B000DEBF0FBECDBFD30116968C918823D1F018
:1029C000C5010E94941816C0B1E0BD83E8E9F4E0A7
:1029D000FF93EF939F928F920E94D2070F900F90D8
:1029E0000F900F90D30116968C91823019F4C50187
:1029F0000E949317D501ED91FC910480F581E02DA3
:102A0000C5010995BFEF4B1A5B0AE5E04E1651046C
:102A100009F016CF832D2E960FB6F894DEBF0FBEA9
:102A2000CDBFDF91CF911F910F91FF90EF90DF907D
:102A3000CF90BF90AF909F908F907F906F905F905E
:102A40004F903F902F9008958F929F92AF92BF9298
:102A5000CF92DF92EF92FF920F931F93CF93DF936A
:102A60001F92CDB7DEB75C018B014A010E94E422C0
:102A70006B017C01F4014081518162817381C40E3C
:102A8000D51EE61EF71EF8018081918122813381D7
:102A900019823F932F939F938F937F936F935F93AD
:102AA0004F932BEA34E03F932F939E012F5F3F4FCC
:102AB0003F932F930E94D2070FB6F894DEBF0FBE4C
:102AC000CDBF06C0B801C5010E94F513811109C030
:102AD0000E94E4226C157D058E059F0598F380E029
:102AE00001C081E00F90DF91CF911F910F91FF9076
:102AF000EF90DF90CF90BF90AF909F908F90089510
:102B0000EF92FF920F931F93CF93DF9300D000D0EB
:102B100000D0CDB7DEB78C01DC011C962C911C9740
:102B200019968D919C911A97BDE12B9F800D911D57
:102B300011240E94B009FC0140815181628173819E
:102B4000F80184850184F285E02D2DE1829FE00D5E
:102B5000F11D112482819381248135811D827F930F
:102B60006F935F934F933F932F939F938F9385EC36
:102B700094E09F938F937E0135E0E30EF11CFF926A
:102B8000EF920E94D20748EE53E060E070E0498384
:102B90005A836B837C83D8011C968C911C97199661
:102BA0006D917C911A97BDE18B9F600D711D112471
:102BB0006E5F7F4FAE014F5F5F4FC8010E942415CB
:102BC0001D821F928F9327EE34E03F932F93FF9245
:102BD000EF928E830E94D2070FB6F894DEBF0FBE2D
:102BE000CDBF8E8181110FC0D8011C962C911C97EE
:102BF00019968D919C911A97BDE12B9F800D911D87
:102C000011240E94D20926960FB6F894DEBF0FBE9B
:102C1000CDBFDF91CF911F910F91FF90EF9008955D
:102C2000EF92FF920F931F93CF93DF9300D000D0CA
:102C30001F92CDB7DEB77C01DC015C968C918823B6
:102C400009F4B2C0F701838D811119C00E94E422FA
:102C5000D70196960D911D912D913C919997005910
:102C6000184E2F4F3F4F601771078207930708F0E8
:102C700091C095968C91882309F496C08BC0F7017A
:102C8000238D808D918DF6E02F9F800D911D112455
:102C900002960E94281D44E650E060E070E04983FF
:102CA0005A836B837C83D7015B968C915B97589694
:102CB0006D917C915997B6E08B9F600D711D112429
:102CC0006E5F7F4FAE014F5F5F4FC7010E942415BB
:102CD000882339F0C70146960E94990AF70115A288
:102CE00063C0D70195968C919597853030F55B96AA
:102CF0009C915B975896ED91FC915997B6E09B9FFC
:102D0000E00DF11D112492812381348145811D82C2
:102D10001F928F934F933F932F939F9381E095E062
:102D20009F938F93CE0105969F938F930E94D20716
:102D3000F70185A18F5F85A327C0C70146960E9432
:102D4000990AD7015B968C915B975896ED91FC910F
:102D50005997B6E08B9FE00DF11D1124828193817C
:102D60002481358141E04D833F932F939F938F932F
:102D70008DE195E09F938F93CE0105969F938F935E
:102D80000E94D207F70115A20FB6F894DEBF0FBE5E
:102D9000CDBF0AC00E94E422D70196966D937D9321
:102DA0008D939C9399976BCF0F900F900F900F90EE
:102DB0000F90DF91CF911F910F91FF90EF900895A9
:102DC000CF92DF92EF92FF920F931F93CF93DF93F7
:102DD00000D000D0CDB7DEB78C01FC018585811114
:102DE00004C0C8010E94101620C00E94E4226B019A
:102DF0007C01F801248581859285FDE12F9F800D5E
:102E0000911D11240E94B009FC0140815181628111
:102E10007381445F514061097109C416D506E60605
:102E2000F706F8F2C8010E94801519821A821B82E7
:102E30001C82BE016F5F7F4FC8010E94F5138CEDAD
:102E400096E00E94011F892B19F0C8010E942012F0
:102E50000F900F900F900F90DF91CF911F910F91D6
:102E6000FF90EF90DF90CF90089522E635E0FC01CF
:102E7000318320830895FC0113820895FC0113829D
:102E8000128E089522E635E0FC01318320830895F7
:102E900022E635E0FC01318320830C94DE1D22E61E
:102EA00035E0FC01318320830C94DE1DFC0182E6B9
:102EB00095E09183808381E1828313820895FC01F0
:102EC00093818281981750F48381DB019C91DF010B
:102ED000A80FB11D14969C938F5F83830895CF92A2
:102EE000DF92EF92FF920F931F93CF93DF937C01BA
:102EF0006B018A01C0E0D0E007C0B6016C0F7D1FF6
:102F0000C7010E945F172196F801808190E0C817E1
:102F1000D9079CF3DF91CF911F910F91FF90EF9014
:102F2000DF90CF9008950F931F93CF93DF938C0181
:102F3000C0E0D0E011C0F801EC0FFD1F648140E15A
:102F400050E08CED96E00E94C5216AE973E08CEDBB
:102F500096E00E940F212196F801828190E0C81727
:102F6000D9074CF36BE973E08CED96E0DF91CF91DC
:102F70001F910F910C942E21FC012381928181E0FD
:102F8000291708F480E00895282FFB013081E82FED
:102F9000F92F80E002C09191890F9E2F921B931709
:102FA000D0F30895FC0193818281981748F49381AE
:102FB000DF01A90FB11D14968C919F5F9383089533
:102FC00080E008959F92AF92BF92CF92DF92EF92EE
:102FD000FF920F931F93CF93DF93CDB7DEB7289760
:102FE0000FB6F894DEBF0FBECDBF8C016B017A0126
:102FF000B22E85E589838DE28A8384ED8B8380E41C
:103000008C831D8283E0888782E08F83902EA12E9F
:10301000D801ED91FC910480F581E02DC80109955E
:10302000AE01485F5F4FBE016F5F7F4FC8010E94D6
:103030006F17A701B601C8010E946F17BB2059F096
:10304000B701C6010E94C4178E83BE016A5F7F4F1D
:10305000C8010E945F17AE01495F5F4FBE016C5F00
:103060007F4F892D9A2D0E946F17F70180818B5F0A
:103070008B0DD80112968C93129713961C9228965A
:103080000FB6F894DEBF0FBECDBFDF91CF911F9179
:103090000F91FF90EF90DF90CF90BF90AF909F90F7
:1030A0000895FC0181E1828313828CE695E091838F
:1030B000808381E0858B168A178A108E118E128E7E
:1030C0004FEF5FEFBA0141A352A363A374A3089526
:1030D0000F931F93CF93DF93EC018B019B818A8128
:1030E0009817E8F48B81811111C00E94E4226E8B45
:1030F0007F8B888F998FF8018081823519F41D8A22
:103100008CE003C081E08D8B80E18A838B81F801A4
:103110009081FE01E80FF11D94838F5F8B83DF9117
:10312000CF911F910F910895FF920F931F93CF930B
:10313000DF93EC016FE471E08CED96E00E940F21CB
:1031400049A15AA16BA17CA12AE030E08CED96E068
:103150000E949E2169E375E08CED96E00E940F21AC
:103160004E895F89688D798D2AE030E08CED96E09C
:103170000E949E218E01F12CF801838D948D019681
:10318000E1F06FE375E08CED96E00E940F214AE0DC
:1031900050E06F2D8CED96E00E94C52168E474E04C
:1031A0008CED96E00E940F21F801638D748D4AE04A
:1031B00050E08CED96E00E94BF21F3940E5F1F4F0C
:1031C000F3E0FF12D9CF8D89811112C063E475E05D
:1031D0008CED96E00E940F218E85833519F461E213
:1031E00073E002C062E373E08CED96E00E940F2171
:1031F00061E173E08CED96E0DF91CF911F910F912B
:10320000FF900C942E210F931F93CF93DF931F9267
:10321000CDB7DEB78C01DC0112968C918150898389
:10322000BE016F5F7F4FC80104960E94C417D8018A
:103230001296EC91F0E03197E00FF11F9481891321
:1032400002C081E001C082E00F90DF91CF911F9119
:103250000F9108959C012B5E3F4FC9010895CF93B4
:10326000DF93FC018FEF9FEF948F838F968F858F75
:1032700090A3878F8589882319F1813041F582E0F9
:1032800090E0DF01A80FB91F14964C91149747FFE7
:1032900012C014965C911497EC012196CE0FDF1F9B
:1032A0004C81352F3F7720E0B901642BAB015A9652
:1032B0005C934E93599702968830910511F707C099
:1032C00035852485932F80E0822B948F838FDF9127
:1032D000CF9108950F931F93FC0111A212A213A284
:1032E00014A28589882369F0813019F5948185813C
:1032F000592F5F7040E0662757FD6095762F482B69
:1033000014C0258146818781908550E060E070E09F
:10331000BA0155274427722B492B182F00E020E0D3
:1033200030E0402B512B622B732B41A352A363A39C
:1033300074A31F910F910895FC018589813029F4B0
:103340008481881F8827881F08958285833421F40B
:10335000938581E09F3409F080E008958F929F92D9
:10336000AF92BF92CF92DF92EF92FF920F931F9393
:10337000CF93DF93FC0199249394B12C60EC70E01F
:10338000C0E8D0E000E410E044C080E090E0A12C70
:10339000EB2CF12CDC01AE0DBF1DAE0FBF1F149640
:1033A0008C9020E030E0AB01022E02C0559547958D
:1033B0000A94E2F7482150E06E01022E02C0D59433
:1033C000C7940A94E2F74C155D0559F06801022E86
:1033D00002C0D594C7940A94E2F74C155D0519F420
:1033E00003C041E002C0912C40E0AA0CA42A2E5F49
:1033F0003F4F28303105B9F601968230910551F6DC
:103400008B2D8695DF01A80FB11D1496AC92B39455
:10341000B3948281B81608F4B8CF828186958283EE
:10342000992011F081E001C082E0DF91CF911F91DE
:103430000F91FF90EF90DF90CF90BF90AF909F9053
:103440008F900895CF93DF93EC018D89882331F01D
:10345000813041F4CE010E94AE1903C0CE010E941A
:1034600003198A8F8A8D813041F4CE010E942F1971
:10347000CE01DF91CF910C946A19DF91CF9108951D
:10348000CF93DF93EC018A8D811103C0CE010E949E
:10349000221A81E09A8D913009F080E0DF91CF917E
:1034A00008959C012F5D3F4FC90108959C012A5E3C
:1034B0003F4FC90108950F931F93CF93DF93EC0102
:1034C00019928C0106541F4FCE010E945118A596E7
:1034D000C017D107C9F7DF91CF911F910F910895C0
:1034E000FF920F931F93CF93DF931F92CDB7DEB759
:1034F0008C01FC01808145E2F42E9801F89E200D9C
:10350000311D1124C90101960E946818F8018081BB
:10351000F89EE00DF11D1124319693818281981758
:10352000B8F080E090E025E2289FF001299FF00D9F
:1035300011243196E00FF11F43813281431718F4B3
:10354000F801808317C001968530910569F702C0A4
:1035500080E011C083E089838DE495E09F938F9391
:10356000CE0101969F938F930E94D2070F900F90E8
:103570000F900F9081E00F90DF91CF911F910F91ED
:10358000FF9008952CEA35E0FC01318320830C94F0
:103590003517CF93DF93EC010E94C21ACE01DF9161
:1035A000CF910C94DE1D1F93CF93DF9300D01F9219
:1035B000CDB7DEB711E01B8389E392E89A83898354
:1035C000BE016D5F7F4FCE0101960E94601E109379
:1035D000B1060F900F900F90DF91CF911F9108953A
:1035E0001F93CF93DF9300D01F92CDB7DEB711E0CA
:1035F0001B8381E89AEC9A838983BE016D5F7F4FBC
:10360000CE0101960E94601E1B8383E89AEC9A8388
:103610008983BE016D5F7F4FCE0101960E94601EBF
:103620000F900F900F90DF91CF911F910895CF933E
:10363000DF9300D01F92CDB7DEB781E08B8389ED99
:1036400092E89A838983BE016D5F7F4FCE01019618
:103650000E94601E1092B1060E94F01A0F900F9007
:103660000F90DF91CF910895CF93DF9300D01F92F9
:10367000CDB7DEB78CE996E00E94D21791E09B832C
:1036800090E0986B9A838983BE016D5F7F4FCE0176
:1036900001960E94601E8CE996E00E94BC17811181
:1036A0000E94171B0F900F900F90DF91CF910895FC
:1036B0001F93CF93DF9300D0CDB7DEB781E00E9498
:1036C000201E1982CE0101960E94581E182F1982C1
:1036D000CE0101960E94581E8091B106811139C019
:1036E00015FF1DC01A82CE0102960E94581E8983C2
:1036F000BE016F5F7F4F82EE95E00E94701A182F17
:103700001A82CE0102960E94581E8983BE016F5F05
:103710007F4F82EE95E00E94701A182B12C017FF9F
:103720000FC01A82CE0102960E94581E8983BE01E4
:103730006F5F7F4F82EE95E00E94701A182F01C0D4
:1037400010E080E00E94201E112349F00E94F01A30
:1037500006C017FD0E94341B80E00E94201E0F90BF
:103760000F90DF91CF911F9108951F93CF93DF9317
:1037700000D000D0CDB7DEB70E94261E11E01C831A
:103780001A821982BE016C5F7F4FCE0101960E94A2
:10379000601E60ED77E080E090E00E9420231C83B3
:1037A00088ED90E89A838983BE016C5F7F4FCE01DC
:1037B00001960E94601E1C8381E092E89A838983AF
:1037C000BE016C5F7F4FCE0101960E94601E1C837C
:1037D00084E396EA9A838983BE016C5F7F4FCE01B2
:1037E00001960E94601E1C8387E596EC9A8389836C
:1037F000BE016C5F7F4FCE0101960E94601E1C834C
:1038000080EC94E99A838983BE016C5F7F4FCE017F
:1038100001960E94601E1C838CE292EC9A8389833D
:10382000BE016C5F7F4FCE0101960E94601E1C831B
:1038300081E89AEC9A838983BE016C5F7F4FCE0149
:1038400001960E94601E1C8384ED9EEC9A838983FE
:10385000BE016C5F7F4FCE0101960E94601E1C83EB
:1038600087EF94EC9A838983BE016C5F7F4FCE0112
:1038700001960E94601E1C8380E298E99A838983E6
:10388000BE016C5F7F4FCE0101960E94601E1C83BB
:1038900086E69CEC9A838983BE016C5F7F4FCE01E4
:1038A00001960E94601E1C8380E090EE9A838983BB
:1038B000BE016C5F7F4FCE0101960E94601E1C838B
:1038C00080E098EC9A838983BE016C5F7F4FCE01C4
:1038D00001960E94601E1C8380E090EC9A8389838D
:1038E000BE016C5F7F4FCE0101960E94601E1B835C
:1038F00082E795E09F938F93CE0103969F938F93DA
:103900000E94D20764EF71E080E090E00E942023E3
:1039100040E050E068E57BE180E00E9420220F90CB
:103920000F900F900F900F900F900F900F90DF91CE
:10393000CF911F910895CF93DF93CDB7DEB72C972A
:103940000FB6F894DEBF0FBECDBF2BE0E7E0F1E08D
:10395000DE01119601900D922A95E1F7DA012C9182
:1039600011963C9111971296EC91129713964C91E7
:103970004A83EB833C832D83FC0180818F83DB01B1
:103980008C9188878BE08C8721E0AE01445F5F4F8C
:10399000BE016F5F7F4F8CE996E00E94E2170E94A4
:1039A000D31A2C960FB6F894DEBF0FBECDBFDF91B1
:1039B000CF910895CF92DF92EF92FF920F931F93D2
:1039C000CF93DF9300D0CDB7DEB78C01FC018081AF
:1039D00091812281338141E049833F932F939F93CB
:1039E0008F9386E895E09F938F93EE24E394F12CD8
:1039F000EC0EFD1EFF92EF920E94D2079BE4C92EAF
:103A0000C98221E4D22EDA82A801B701CE01029642
:103A10000E949B1C62E370E080E090E00E94202303
:103A2000C982DA82A801B701CE0102960E949B1CCE
:103A30000FB6F894DEBF0FBECDBF0F900F90DF9191
:103A4000CF911F910F91FF90EF90DF90CF9008954D
:103A5000EF92FF920F931F93CF93DF9300D0CDB7D8
:103A6000DEB78C01FC01808191812281338141E0AC
:103A700049833F932F939F938F9385E995E09F937D
:103A80008F93EE24E394F12CEC0EFD1EFF92EF9247
:103A90000E94D20783E5898380E58A83A801B70164
:103AA000CE0102960E949B1C0FB6F894DEBF0FBE9B
:103AB000CDBF0F900F90DF91CF911F910F91FF908D
:103AC000EF9008950F931F93CF93DF938C010F5FB7
:103AD0001F4F79F0EC01C654DF4FC017D10749F0F2
:103AE000A597E881F9810190F081E02DCE0109953B
:103AF000F4CFDF91CF911F910F9108958CE996E05B
:103B00000E9456178CEA95E090939D0680939C0640
:103B100082EE95E00C945B1A82EE95E00E94621DA5
:103B20008CE996E00C94C21AFC01128680E797E1BA
:103B30009487838721E02587918380839383828381
:103B40009583848397838683918780870895FC017A
:103B50002285DB018D919C91DF0132E0239FA00D36
:103B6000B11D11248D939C93822F8F5F853011F0AE
:103B7000828701C0128615860895FC018585811112
:103B80001AC08081918122813381820F931F248109
:103B90003581820F931F26813781820F931F2085E5
:103BA0003185820F931F65E070E00E941A247487AC
:103BB000638781E085878385948508950C944325E8
:103BC0000C94A8240C944325089540E052EC61E045
:103BD00070E08CED96E00E94072062EB75E08CEDC2
:103BE00096E00E942E2182EB96E00E94790B63EC16
:103BF00075E08CED96E00C942E2182EB96E00C940F
:103C0000E0160E9446230E94E51D0E94FD1DFDCF87
:103C100082EB96E00C94460B83E792E09093C90602
:103C20008093C80688EC96E00E943A0789E692E005
:103C30009093BA068093B90689EB96E00C94E90656
:103C4000882311F02A9808952A9A089580E00E9406
:103C5000201E229A61E08AE00E94E32361E08DE069
:103C60000E94AB2361E08BE00E94AB2361E08AE01D
:103C70000E94AB2360E08CE00E94AB2380E58CBD0A
:103C800060E082E00E94AB2361E082E00E94E323D7
:103C90008DB581608DBD8CB58D7F8CBD8CB58160FF
:103CA0008CBD8CB5877F8CBD8CB58B7F8CBD08950A
:103CB000FC0180818EBD0DB407FEFDCF8EB5089549
:103CC000CF92DF92EF92FF920F931F93CF93DF93E8
:103CD0001F92CDB7DEB77C016B01FB0180818111A2
:103CE0002A98F70181818983CE0101960E94581E8E
:103CF000182F00E0F70180818983CE0101960E9490
:103D0000581E082BF6018081882319F080E00E945C
:103D1000201EC8010F90DF91CF911F910F91FF904E
:103D2000EF90DF90CF900895DF92EF92FF920F9384
:103D30001F93CF93DF93EC017B011882D12C8CED84
:103D400096E00E94011F892BE1F08E010D0D111DDF
:103D50008CED96E00E94301FF8018083D3940D2DE6
:103D600010E0FE01E00FF11F319760818CED96E0CD
:103D70000E941121F701808190E00197081719072F
:103D800039F0FE01ED0DF11D319780818D30B9F6CE
:103D90006BE973E08CED96E00E942E218CED96E0AD
:103DA0000E94521FCD0DD11D1882DF91CF911F911E
:103DB0000F91FF90EF90DF900895CF93DF93CDB7F1
:103DC000DEB760970FB6F894DEBF0FBECDBF8FE0B1
:103DD000888BBE01605F7F4FCE0101960E94941ECA
:103DE00040E050E060E070E0CE0101960E94DF25E7
:103DF00060960FB6F894DEBF0FBECDBFDF91CF91B6
:103E00000895FC0184859585FC01E05CFF4F2081CD
:103E10003181FC01EE5BFF4F80819181281B390BC2
:103E20002F733327C9010895FC0184859585FC0112
:103E3000E05CFF4F40815181FC01EE5BFF4F208130
:103E400031814217530741F00190F081E02DE80FD6
:103E5000F91F208130E002C02FEF3FEFC901089524
:103E6000FC0184859585FC01E05CFF4F4081518118
:103E7000FC01EE5BFF4F208131814217530771F047
:103E8000A081B181A80FB91F2C91808191810196E9
:103E90008F7399279183808330E002C02FEF3FEF2B
:103EA000C9010895FC0186859785FC01E05CFF4F00
:103EB000DC01AE5BBF4F408151812D913C91119748
:103EC00042175307C1F70895CF93DF93FC0126856E
:103ED0003785D901A05CBF4F8D919C9111970196B8
:103EE0008F739927E901CE5BDF4F48815981841791
:103EF0009507D9F30D90BC91A02DA20FB31F6C9321
:103F0000A685B785A05CBF4F11969C938E93A6891A
:103F1000B7892C9181E090E0058C02C0880F991F31
:103F20000A94E2F7282B2C9381E090E0DF91CF9167
:103F300008951F920F920FB60F9211242F933F9363
:103F40004F938F939F93EF93FF934091C60080917F
:103F50007F079091800701968F73992720918107A1
:103F6000309182078217930759F0E0917F07F09113
:103F70008007E15CF84F40839093800780937F0730
:103F8000FF91EF919F918F914F913F912F910F90C2
:103F90000FBE0F901F9018951F920F920FB60F92A1
:103FA00011242F933F938F939F93EF93FF9320912F
:103FB0003B0730913C0780913D0790913E072817C1
:103FC000390731F48091C1008F7D8093C10014C006
:103FD000E0913D07F0913E07E550F94F2081809137
:103FE0003D0790913E0701968F73992790933E0766
:103FF00080933D072093C600FF91EF919F918F9191
:104000003F912F910F900FBE0F901F901895CF9258
:10401000DF92EF92FF92CF93DF93EC016A017B0175
:10402000411581EE580761057105F9F0EC89FD89AC
:1040300081E090E00E8C02C0880F991F0A94E2F78D
:10404000808360E079E08DE390E0A70196010E9413
:104050002E2421503109410951095695479537952C
:104060002795211580E1380798F0EC89FD891082A9
:1040700060E874E88EE190E0A70196010E942E248A
:104080002150310941095109569547953795279592
:10409000E889F9893083EA89FB892083EE89FF89E1
:1040A000408181E090E09C010A8C02C0220F331F06
:1040B0000A94E2F7422B4083EE89FF8940819C01FC
:1040C0000B8C02C0220F331F0A94E2F7422B40836D
:1040D000EE89FF8940819C010C8C02C0220F331FA6
:1040E0000A94E2F7422B4083EE89FF8920810D8CF0
:1040F00002C0880F991F0A94E2F78095822380837B
:10410000DF91CF91FF90EF90DF90CF9008951092C4
:10411000DF061092DE0688EE93E0A0E0B0E0809328
:10412000E0069093E106A093E206B093E30685EDE6
:1041300095E09093DD068093DC068FE397E0909303
:10414000E9068093E8068BEF96E09093EB06809368
:10415000EA0685EC90E09093ED068093EC0684EC03
:1041600090E09093EF068093EE0680EC90E09093C1
:10417000F1068093F00681EC90E09093F306809333
:10418000F20686EC90E09093F5068093F40684E0C6
:104190008093F60683E08093F70687E08093F80625
:1041A00085E08093F90681E08093FA060895CF9226
:1041B000DF92EF92FF920F931F93CF93DF936C01E7
:1041C000EB017A01E60EF71E00E010E00BC06991EA
:1041D000D601ED91FC910190F081E02DC601099589
:1041E000080F191FCE15DF0591F7C801DF91CF9198
:1041F0001F910F91FF90EF90DF90CF900895DB011A
:104200000D900020E9F7AD0141505109461B570BB5
:10421000DC01ED91FC910280F381E02D09940C9476
:10422000FF20DC01ED91FC910190F081E02D0994DB
:104230000F931F93CF93DF93EC016DE00E94112148
:104240008C016AE0CE010E9411219C01200F311FD8
:10425000C901DF91CF911F910F9108950F931F9383
:10426000CF93DF93EC010E94FF208C01CE010E94CE
:1042700018219801280F391FC901DF91CF911F9193
:104280000F9108955F926F927F928F929F92AF925B
:10429000BF92CF92DF92EF92FF920F931F93CF9333
:1042A000DF93CDB7DEB7A1970FB6F894DEBF0FBE90
:1042B000CDBF3C016A017B01522E19A281E0821719
:1042C00010F08AE0582E8E010F5D1F4F852C912C27
:1042D000A12CB12CC701B601A50194010E942E2486
:1042E0008C2D529E80191124015011098A3010F42E
:1042F000805D01C0895CF801808369017A01C11485
:10430000D104E104F10431F7B801C3010E94FF2098
:10431000A1960FB6F894DEBF0FBECDBFDF91CF914F
:104320001F910F91FF90EF90DF90CF90BF90AF90D3
:104330009F908F907F906F905F9008952115310529
:1043400041F4DC01ED91FC910190F081E02D642FAE
:1043500009940C9442210F931F93CF93DF93EC01A8
:104360000E949E218C01CE010E9418219C01200FE9
:10437000311FC901DF91CF911F910F9108959A01CB
:10438000AB0160E070E00C949E219A01462F50E052
:1043900060E070E00C949E21CF92DF92EF92FF924A
:1043A0000F931F93CF93DF93EC016A017B012115DB
:1043B000310579F4E881F9810190F081E02D642FD5
:1043C000DF91CF911F910F91FF90EF90DF90CF90F1
:1043D00009942A30310519F477FD0EC02AE0B7019F
:1043E000A601CE01DF91CF911F910F91FF90EF9029
:1043F000DF90CF900C9442216DE20E9411218C013C
:1044000044275527BA014C195D096E097F092AE036
:10441000CE010E9442219C01200F311FC901DF9172
:10442000CF911F910F91FF90EF90DF90CF90089563
:104430009A01AB01662757FD6095762F0C94CC212D
:104440008230E8F4E82FF0E0EE0FFF1FED57F84F51
:1044500071836083813041F0809169008C7F842B6F
:1044600080936900E89A089580916900440F551F70
:10447000440F551F837F842B80936900E99A089528
:104480001F920F920FB60F9211242F933F934F93C9
:104490005F936F937F938F939F93AF93BF93EF93AC
:1044A000FF938091830790918407892B29F0E091F5
:1044B0008307F09184070995FF91EF91BF91AF9128
:1044C0009F918F917F916F915F914F913F912F912C
:1044D0000F900FBE0F901F9018951F920F920FB65E
:1044E0000F9211242F933F934F935F936F937F937A
:1044F0008F939F93AF93BF93EF93FF938091850723
:1045000090918607892B29F0E0918507F091860725
:104510000995FF91EF91BF91AF919F918F917F91FD
:104520006F915F914F913F912F910F900FBE0F9020
:104530001F9018951F920F920FB60F9211242F9370
:104540003F938F939F93AF93BF93809187079091F1
:104550008807A0918907B0918A0730918F07232F90
:104560002D5F2D3720F40196A11DB11D05C0232F0D
:104570002A570296A11DB11D20938F0780938707AC
:1045800090938807A0938907B0938A0780918B073F
:1045900090918C07A0918D07B0918E070196A11D77
:1045A000B11D80938B0790938C07A0938D07B093D8
:1045B0008E07BF91AF919F918F913F912F910F9057
:1045C0000FBE0F901F9018950F931F938FB7F894FD
:1045D00000918707109188072091890730918A07F9
:1045E0008FBFB801C9011F910F9108950F931F93B9
:1045F0009FB7F89400918B0710918C0720918D073D
:1046000030918E0786B5A89B06C08F3F21F00F5FC3
:104610001F4F2F4F3F4F9FBF322F212F102F0027AB
:10462000080F111D211D311D42E0000F111F221F17
:10463000331F4A95D1F7B801C9011F910F91089511
:10464000CF92DF92EF92FF92CF93DF936B017C01C9
:104650000E94F622EB010EC00E94F6226C1B7D0B1D
:10466000683E734038F081E0C81AD108E108F108CB
:10467000C851DC4FC114D104E104F10469F7DF91A2
:10468000CF91FF90EF90DF90CF900895789484B50C
:10469000826084BD84B5816084BD85B5826085BD3E
:1046A00085B5816085BDEEE6F0E080818160808324
:1046B000E1E8F0E010828081826080838081816007
:1046C0008083E0E8F0E0808181608083E1EBF0E0CE
:1046D000808184608083E0EBF0E080818160808372
:1046E000EAE7F0E08081846080838081826080835B
:1046F0008081816080838081806880831092C10086
:104700000895833069F028F48130A1F0823011F5EA
:1047100014C08630B1F08730C1F08430D9F404C0C1
:10472000809180008F7703C0809180008F7D80937F
:104730008000089584B58F7702C084B58F7D84BDD5
:1047400008958091B0008F7703C08091B0008F7D75
:104750008093B0000895CF93DF9390E0FC01E4587C
:10476000FF4F4491FC01E057FF4F8491882341F1B2
:1047700090E0880F991FFC01E255FF4F259134917D
:10478000D9018C559F4FFC0185919491C82FD92F49
:104790009FB7F8948C91611106C0409584238C9347
:1047A0008881842308C0623041F4242F209582231D
:1047B0008C938881842B888302C0842B8C939FBF29
:1047C000DF91CF9108950F931F93CF93DF931F92A3
:1047D000CDB7DEB7282F30E0F901E859FF4F8491BB
:1047E000F901E458FF4F1491F901E057FF4F04918C
:1047F0000023D1F0882321F069830E9481236981FD
:10480000E02FF0E0EE0FFF1FEC55FF4F85919491E4
:10481000DC019FB7F8948C91611103C0109581233E
:1048200001C0812B8C939FBF0F90DF91CF911F917F
:104830000F910895AA1BBB1B51E107C0AA1FBB1F04
:10484000A617B70710F0A61BB70B881F991F5A951C
:10485000A9F780959095BC01CD010895A1E21A2E8B
:10486000AA1BBB1BFD010DC0AA1FBB1FEE1FFF1F14
:10487000A217B307E407F50720F0A21BB30BE40B64
:10488000F50B661F771F881F991F1A9469F76095AB
:104890007095809590959B01AC01BD01CF01089565
:1048A0002F923F924F925F926F927F928F929F9240
:1048B000AF92BF92CF92DF92EF92FF920F931F932E
:1048C000CF93DF93CDB7DEB7CA1BDB0B0FB6F894DF
:1048D000DEBF0FBECDBF09942A88398848885F841F
:1048E0006E847D848C849B84AA84B984C884DF8090
:1048F000EE80FD800C811B81AA81B981CE0FD11D74
:104900000FB6F894DEBF0FBECDBFED010895EE0FD8
:10491000FF1F0590F491E02D09940E94962484FFD6
:104920000895CB010E949624805F0895AA279923B9
:1049300029F4A85F982B11F480E10895903118F4C0
:10494000AD5F9295A395990FE8F78A2F992708955F
:104950000F931F93CF93DF938230910510F482E081
:1049600090E0E0919207F091930720E030E0C0E002
:10497000D0E023C04081518148175907A8F048175B
:10498000590761F482819381209719F09B838A8370
:104990002EC0909393078093920729C0211531056B
:1049A00029F04217530710F0A90102C0BE01DF0130
:1049B00002811381EF019A01F8013097D9F6211590
:1049C000310509F1281B390B2430310590F412967A
:1049D0008D919C9113976115710521F0FB019383D3
:1049E000828304C09093930780939207FD013296CF
:1049F00044C0FD01E20FF31F8193919322503109CE
:104A00002D933C933AC02091900730919107232B2E
:104A100041F42091020130910301309391072093DA
:104A2000900720910001309101012115310541F4D9
:104A30002DB73EB74091040150910501241B350B61
:104A4000E0919007F0919107E217F307A0F42E1B75
:104A50003F0B2817390778F0AC014E5F5F4F2417E2
:104A6000350748F04E0F5F1F509391074093900712
:104A70008193919302C0E0E0F0E0CF01DF91CF910C
:104A80001F910F910895EF92FF920F931F93CF9371
:104A9000DF93009709F48EC0DC01129713961C92E5
:104AA0001E921297E0909207F0909307E114F104A0
:104AB00089F42D913C911197280F391F809190070F
:104AC000909191078217930789F5B0939107A0936E
:104AD000900770C0E70120E030E001C0EA01CA178A
:104AE000DB0738F44A815B819E0141155105B1F71E
:104AF00022C0AC0142505109FA01D383C283008124
:104B00001181BC01600F711F6C177D0761F4688112
:104B10007981600F711F6E5F7F4F718360836A813F
:104B20007B81738362832115310529F4B093930748
:104B3000A09392073FC0F901B383A283E901499191
:104B40005991C40FD51FAC17BD0771F4DC019E91BC
:104B50008E91840F951F02969183808312968D917A
:104B60009C91139793838283A0E0B0E002C0D701A9
:104B70007C01F701828193810097C9F7C7010296F2
:104B800020813181820F931F2091900730919107EE
:104B90002817390779F4109729F410929307109287
:104BA000920704C013961C921E921297F0929107DE
:104BB000E0929007CDB7DEB7E6E00C947824A0E051
:104BC000B0E0E5EEF5E20C9450241B013A016115CA
:104BD000710519F0FB01808391836114710439F030
:104BE0009301225031092332310508F0C7C08C01EE
:104BF000F801D1918F012F018D2F90E00E94DA26CC
:104C0000892BB1F7DD3229F4F801D1912F01C1E0F0
:104C100006C0DB3219F4F801D1912F01C0E0611414
:104C2000710409F4B5C0F0E16F16710489F4B7C0DE
:104C3000F2018081883719F0883509F0A3C0F201AC
:104C4000D181F2E04F0E511CC26050E1652E712CF3
:104C50008AE06816710439F1E0E16E16710429F0FA
:104C6000F8E06F16710491F407C0CC24CA94DC2CD0
:104C7000EC2C4FE0F42E1DC028E0622E712CCC24C9
:104C8000CA94DC2CEC2C3FE1F32E13C09301442793
:104C900037FD4095542F6FEF7FEFCB010E942E24FC
:104CA00069017A0106C099E9C92EDC2CEC2C99E146
:104CB000F92E90E020E030E0A9014301AA2497FCFE
:104CC000A094BA2CED2FE053EA3060F08D2F815480
:104CD0008A3110F4E75006C08D2F81568A3140F595
:104CE000ED2FE7556E2F70E0661577050CF59F3FA9
:104CF000D9F0C216D306E406F50698F0C501B40152
:104D00000E947E299B01AC018E2F90E0A0E0B0E0D4
:104D1000280F391F4A1F5B1F281739074A075B07EF
:104D200010F49FEF01C091E0F201D1912F01CACFA1
:104D30002114310471F0992321F0F1E04F1A510848
:104D400005C0C1FF06C0F2E04F1A5108F1015182BF
:104D50004082C0FF07C050954095309521953F4F48
:104D60004F4F5F4F97FF1FC082E290E090939507EF
:104D7000809394072FEF3FEFA90115C020E030E0AA
:104D8000A90111C0D0E36114710409F475CF60CF9B
:104D9000D03309F44DCF8AE0682E712C84CFD03304
:104DA00009F056CF45CFB901CA01CDB7DEB7E2E170
:104DB0000C946C249111FFC1803219F089508550F8
:104DC000D0F70895AEE0B0E0E8EEF6E20C945E2491
:104DD0008C0186E08C831A8309838FEF9FE79E8383
:104DE0008D83CE0101960E94FE26EF81F885E00FAB
:104DF000F11F10822E96E4E00C947A24ACE0B0E02F
:104E0000E4E0F7E20C9450247C016B018A01FC0180
:104E100017821682838181FFC7C188248394912CD5
:104E20008C0E9D1EF7019381F60193FD859193FFF2
:104E300081916F01882309F4B3C1853239F493FD60
:104E4000859193FF81916F01853229F4B70190E03C
:104E50000E94F428E7CF712C312C20E02032A8F4F6
:104E60008B3261F028F4803251F0833271F40BC040
:104E70008D3239F0803349F4216028C022602460EB
:104E800025C0286023C0206121C027FD27C0382FFE
:104E900030533A3078F426FF06C0FAE07F9E300D9A
:104EA0001124732E13C08AE0389E300D1124332E46
:104EB00020620CC08E3221F426FD72C1206406C02F
:104EC0008C3611F4206802C0883641F4F60193FD57
:104ED000859193FF81916F018111C0CF982F9554D7
:104EE000933018F09052933028F40C5F1F4FFFE37B
:104EF000F9830DC0833631F0833771F0833509F0C3
:104F00005EC023C0F801808189830E5F1F4F662435
:104F10006394712C540115C02801F2E04F0E511C0E
:104F2000F801A080B18026FF03C0672D70E002C0A9
:104F30006FEF7FEFC5012C870E94E9283C018201B9
:104F40002C856FE7262E222218C02801F2E04F0E92
:104F5000511CF801A080B18026FF03C0672D70E0CE
:104F600002C06FEF7FEFC5012C870E94DE283C0155
:104F70002C8550E8252E222A820123FC1CC006C065
:104F8000B70180E290E00E94F4283A94832D90E0EB
:104F900068167906A8F30FC0F50127FC859127FE56
:104FA00081915F01B70190E00E94F42831103A949A
:104FB000F1E06F1A71086114710471F7EEC0843664
:104FC00011F0893641F5F80127FF07C06081718132
:104FD000828193810C5F1F4F08C060817181882797
:104FE00077FD8095982F0E5F1F4F4FE6642E62224B
:104FF00097FF09C090958095709561957F4F8F4F71
:105000009F4FF0E86F2A2AE030E0A4010E94202997
:10501000A82EA81844C0853731F43FEEB32EB22233
:105020002AE030E024C099EFB92EB2228F36B9F0D1
:1050300020F4883509F0B4C00DC0803721F08837DE
:1050400009F0AEC002C020E1B22AB4FE0BC084E079
:10505000B82A08C024FF09C0E6E0BE2A06C028E03E
:1050600030E005C020E130E002C020E132E0F8018C
:10507000B7FE07C060817181828193810C5F1F4FF1
:1050800006C06081718180E090E00E5F1F4FA40137
:105090000E942029A82EA8188FE7682E6B2066FE94
:1050A0000BC0362D3E7FA71450F464FE0AC062FC8C
:1050B00008C0362D3E7E05C0BA2C362D03C0BA2C52
:1050C00001C0B72C34FF0DC0FE01EA0DF11D808137
:1050D000803311F4397E09C032FF06C0B394B39413
:1050E00004C0832F867809F0B39433FD14C030FFD9
:1050F0000FC07A2CB31460F4730C7B18B32C08C067
:10510000B70180E290E03C870E94F428B3943C858C
:10511000B314B0F304C0B31410F43B1801C0312C25
:1051200034FF12C0B70180E390E03C870E94F4286E
:105130003C8532FF1EC031FF03C088E590E002C00D
:1051400088E790E0B7010CC0832F867891F031FD9D
:1051500002C080E201C08BE237FD8DE2B70190E032
:105160000E94F42806C0B70180E390E00E94F42872
:105170007A94A714C0F3AA94F401EA0DF11DB701C3
:10518000808190E00E94F428A110F5CF06C0B701FD
:1051900080E290E00E94F4283A943110F8CF42CE99
:1051A000F7012681378102C02FEF3FEFC9012C960E
:1051B000E2E10C946C24992788270895FC0105905E
:1051C000615070400110D8F7809590958E0F9F1F09
:1051D0000895FC016150704001900110D8F780954E
:1051E00090958E0F9F1F08950F931F93CF93DF937A
:1051F0008C01EB018B8181FD03C00FEF1FEF1AC003
:1052000082FF0DC02E813F818C819D812817390737
:1052100064F4E881F9810193F983E88306C0E885A5
:10522000F985802F0995892B41F78E819F81019601
:105230009F838E83C801DF91CF911F910F910895B5
:10524000FA01AA27283051F1203181F1E8946F93B7
:105250006E7F6E5F7F4F8F4F9F4FAF4FB1E03ED05D
:10526000B4E03CD0670F781F891F9A1FA11D680FFB
:10527000791F8A1F911DA11D6A0F711D811D911D2E
:10528000A11D20D009F468943F912AE0269F1124A3
:105290003019305D3193DEF6CF010895462F477007
:1052A000405D4193B3E00FD0C9F7F6CF462F4F7062
:1052B000405D4A3318F0495D31FD4052419302D0C0
:1052C000A9F7EACFB4E0A695979587957795679566
:1052D000BA95C9F700976105710508959B01AC0166
:1052E0000A2E06945795479537952795BA95C9F78D
:1052F000620F731F841F951FA01D0895DB018F93FC
:105300009F930E948E29BF91AF91A29F800D911D06
:10531000A39F900DB29F900D112408950E9499298A
:10532000A59F900DB49F900DA49F800D911D1124F9
:105330000895A29FB001B39FC001A39F01D0B29F67
:10534000700D811D1124911D089510E0CEEBD0E069
:1053500004C0FE010E9489242296C23CD107C9F7ED
:04536000F894FFCFEF
:1053640000009607200002460000000000414B00A8
:10537400004F00000000000000002043435F54522F
:1053840058002043435F5458002844454255472958
:105394000028494E464F2900285741524E290028DB
:1053A4004552524F52290028464154414C29007B12
:1053B40069643A20002C206C6173745F7365656EB8
:1053C4003A20002C206E756D5F706572696F64738E
:1053D4005F6D69737365643A20002C206574613ACB
:1053E40020002C2073616D706C655F706572696F4D
:1053F400643A200043435F54582049443D256C756A
:105404002C206F6C642073616D706C655F706572C5
:10541400696F643D257500416464696E67206E653B
:10542400775F73616D706C655F706572696F64201E
:1054340025750043435F54582049443D256C752C21
:10544400206E65772073616D706C655F706572693D
:105454006F643D25750069643A256C752069732075
:105464006D697373696E672E204E657720455441CC
:105474003D256C752C206E756D5F706572696F6467
:1054840073206D69737365643D2575004E6578748A
:105494002065787065637465642043435F54583AAB
:1054A4002049443D256C752C204554413D256C759F
:1054B4000000000000CF06DB06970700000000D5BF
:1054C40006E206970700000000290730079107004D
:1054D4000000007A0781078B0700000000E9061F1F
:1054E40007E41D000000003A077007E41D41434B28
:1054F400007B00733A205B002C005D7D0044594E14
:10550400414D4943204152524159204F5554204F57
:10551400462052414E4745204552524F5200256C79
:105524007520697320616C726561647920696E20ED
:10553400646174612E004F5554204F46204D454DF3
:105544004F52590041434B20656E74657220002010
:10555400494420746F206164643A004E414B206ECC
:105564006F7400206164646564007B70773A200086
:10557400207D0041434B206175746F5F70616972D7
:10558400206F6E0041434B206175646F5F706169E9
:1055940072206F6666004E414B20456E61626C65F9
:1055A400206D616E75616C2070616972696E67202F
:1055B4006265666F72652027702720636D642E0014
:1055C40041434B20456E7465722049443A0041437F
:1055D4004B20706169725F77697468207365742009
:1055E400746F200041434B20656E746572206C6FAC
:1055F40067206C6576656C3A002C200041434B2093
:105604004C6F67206C6576656C2073657420746FCD
:10561400200041434B206F6E6C79207072696E7468
:1056240020646174612066726F6D206B6E6F776E9B
:10563400207472616E736D69747465727300414392
:105644004B207072696E7420616C6C2076616C6999
:1056540064207061636B6574730041434B20707206
:10566400696E7420616C6C0041434B2064656C6509
:1056740074656420616C6C004E414B20756E7265DC
:10568400636F676E6973656420636F6D6D616E64CB
:1056940020270050616972207265712066726F6DF7
:1056A40020256C75007B50523A20005278276420E4
:1056B40043435F5458207061636B65742077697449
:1056C4006820756E6B6E6F776E20494420256C756B
:1056D40000527827642043435F545258207061631A
:1056E4006B6574207769746820756E6B6E6F776E66
:1056F40020494420256C7500527827642062726F1B
:105704006B656E207061636B6574005761697469C1
:105714006E6720256C75206D7320666F7220494476
:1057240020256C750057696E646F77206F70656E05
:105734002120457870656374696E6720256C752037
:10574400617420256C750057696E646F7720636CF3
:105754006F7365642E20737563636573733D25648D
:10576400004D697373696E672054525820256C7517
:105774002C20726574726965733D2564004D6973EC
:1057840073696E672054525820256C752E20476922
:1057940076696E672075702E002C20743A20002CD8
:1057A4002073002C2073746174653A20004E4F20DE
:1057B4004D4F524520425546464552532100000064
:1057C4000000351748173B170000000042174F1719
:1057D4003E17617474616368696E6720696E7465ED
:1057E40072727570740041434B20434320545258E5
:1057F40020256C7500506F6C6C696E6720434320E4
:1058040054525820256C750000000000C21AC91AB1
:105814003B174544462049414D20526563656976EE
:1058240065720046696E697368656420696E69749F
:105834000000000000641FD720011F301F141F52F6
:025844001F0043
:00000001FF
