:100000000C9463000C94430C0C94700C0C948B00B7
:100010000C948B000C948B000C948B000C948B0034
:100020000C948B000C948B000C948B000C948B0024
:100030000C948B000C948B000C948B000C948B0014
:100040000C94B5140C948B000C9436070C94670731
:100050000C948B000C948B000C948B000C948B00F4
:100060000C948B000C948B000000000024002700EF
:100070002A0000000000250028002B0000000000DE
:1000800023002600290004040404040404040202DA
:100090000202020203030303030301020408102007
:1000A0004080010204081020010204081020000012
:1000B0000007000201000003040600000000000029
:1000C0000000BD05C20811241FBECFEFD8E0DEBF7F
:1000D000CDBF13E0A0E0B1E0EAE6F2E402C0059093
:1000E0000D92A037B107D9F714E0A0E7B3E001C043
:1000F0001D92AC3BB107E1F710E0C6ECD0E004C0C4
:100100002297FE010E94C21DC23CD107C9F70E947E
:10011000FB050C9433210C940000FC0160831182D8
:100120008081873130F08BE894E060E071E00E94DC
:10013000E1090895FC0160830895FC0191818081AB
:10014000981748F48181DF01A80FB11D12966C93B6
:1001500012978F5F81830895CF93DF93FC01862FE1
:10016000972FDC0180E090E050E00DC03D9161816F
:100170002081621738F42181EF01C20FD11D3A832B
:100180002F5F218301968417950784F3DF91CF9128
:100190000895FC0191818081981750F49181DF01CD
:1001A000A90FB11D12968C9112979F5F91830895AC
:1001B00080E00895FC012181908181E0291708F4F5
:1001C00080E00895FC0111820895282F392FF9014C
:1001D00090E080E003C02191820F9F5F9617D8F3D3
:1001E0000895DF92EF92FF920F931F93DF93CF93C7
:1001F00000D000D000D0CDB7DEB78C017B01D42E6B
:10020000DE011396E7E5F1E083E001900D92815065
:10021000E1F780E489831A82F80111828D2D8B5FCA
:10022000820F8083C801BE016D5F7F4F43E02E8344
:100230000E94AC00C801B7014D2D0E94AC002E8178
:10024000222381F0C7016D2D0E94E500F801218174
:100250009081291738F49181E90FF11D82839F5F06
:10026000F8019183C801BE016F5F7F4F42E00E9499
:10027000AC00F801118226960FB6F894DEBF0FBECF
:10028000CDBFCF91DF911F910F91FF90EF90DF9045
:1002900008950F931F93DF93CF930F92CDB7DEB7DF
:1002A0008C01DC016C91615002960E94E50089830B
:1002B0002981D801EC91F0E03197E00FF11F928194
:1002C00081E0291380E00F90CF91DF911F910F9172
:1002D00008950F931F93CF93DF93EC0100E010E09C
:1002E00012C0FE01E00FF11F62818BE894E040E153
:1002F00050E00E94B40A8BE894E06AE271E00E9448
:1003000090090F5F1F4F888190E0081719074CF381
:10031000CE010E944901882329F08BE894E06CE229
:1003200071E004C08BE894E060E371E00E94900902
:100330008BE894E066E371E00E9490098B85382F8A
:1003400020E08A85280F311D8BE894E0B9014AE04E
:1003500050E00E94960A8BE894E06FE371E00E94FF
:100360009009DF91CF911F910F910895FC01838532
:10037000382F20E08285280F311DC9010895DF92B2
:10038000EF92FF920F931F93CF93DF93EC01D62E42
:10039000FC0111928F01EE24FF24C8018E0D9F1DD8
:1003A00066E10E948D0088E190E0E80EF91E98E772
:1003B000E916F10491F7D982D98ED9AAFE01E75B3B
:1003C000FF4FD082CF59DF4FD882DF91CF911F915D
:1003D0000F91FF90EF90DF900895CF93DF93FC0192
:1003E0002081822F90E0DC01AA0FBB1FA80FB91F4C
:1003F00043E0AA0FBB1F4A95E1F7AE0FBF1F12964D
:100400004C91129711963C911197431750F4129604
:100410003C911297ED01C30FD11D6B833F5F129684
:100420003C93DC01AA0FBB1FA80FB91F83E0AA0FE2
:10043000BB1F8A95E1F7AE0FBF1F12969C911297D2
:1004400011968C911197981768F0253038F08BE849
:1004500094E062E471E00E94E10902C02F5F208312
:1004600081E001C080E0DF91CF910895EF92FF928B
:100470000F931F93CF93DF93EC018BE894E063E538
:1004800071E00E94E109EE24FF2417C08701000FEC
:10049000111F0E0D1F1DA3E0000F111FAA95E1F7FC
:1004A000C80101968C0F9D1F0E946901FE01E00F9B
:1004B000F11F12820894E11CF11C288130E0E21641
:1004C000F30624F3C901880F991F820F931FE3E0FD
:1004D000880F991FEA95E1F7FE01E80FF91F3281B5
:1004E00021813217A0F001968C0F9D1F0E94690197
:1004F000888190E0FC01EE0FFF1FE80FF91F63E019
:10050000EE0FFF1F6A95E1F7EC0FFD1F12821882B4
:10051000DF91CF911F910F91FF90EF900895FC0113
:1005200081E09081992309F480E008951F93DF937F
:10053000CF9300D00F92CDB7DEB789E392E89B83CB
:100540008A8311E01983CE010296BE016F5F7F4F4F
:100550000E944206109370038BE894E06AE571E014
:100560000E94E1090F900F900F90CF91DF911F91A2
:1005700008951F93DF93CF9300D000D000D0CDB764
:10058000DEB781E89AEC9C838B8311E01983CE015E
:100590000396BE016F5F7F4F0E94420683E89AEC8C
:1005A0009E838D831A83CE010596BE016E5F7F4FB9
:1005B0000E94420626960FB6F894DEBF0FBECDBF4E
:1005C000CF91DF911F910895DF93CF9300D00F92C9
:1005D000CDB7DEB789ED92E89B838A8381E089837A
:1005E000CE010296BE016F5F7F4F0E9442061092BD
:1005F00070030E94B9020F900F900F90CF91DF917E
:1006000008951F93DF93CF9300D00F92CDB7DEB73D
:1006100081E793E00E94C900182F282F30E0205076
:1006200038443B832A8381E08983CE010296BE0150
:100630006F5F7F4F0E9442068BE894E0612F40E19C
:1006400050E00E94B40A8BE894E06EE571E00E94ED
:10065000900981E793E00E94DA00882341F08BE85B
:1006600094E060E671E00E9490090E94E4020F901D
:100670000F900F90CF91DF911F9108951F93DF93FB
:10068000CF9300D000D0CDB7DEB781E00E94020644
:100690001982CE0101960E943A06182F1A82CE01C5
:1006A00002960E943A0680917003882351F51B82BE
:1006B000CE0103960E943A06682F15FF11C089E803
:1006C00093E00E94ED01182F1C82CE0104960E9437
:1006D0003A06682F89E893E00E94ED01182B09C0C3
:1006E00017FF06C089E893E00E94ED01182F01C0B2
:1006F00010E080E00E940206112339F00E94B90246
:1007000004C017FF02C00E9401030F900F900F90CA
:100710000F90CF91DF911F910895FF920F931F9338
:10072000DF93CF93CDB7DEB7AA970FB6F894DEBFAD
:100730000FBECDBF0BE814E0C80163E671E00E9474
:10074000E1090E940806188A1F86FF24F394F982A3
:10075000CE010F96BE016F5F7F4F0E94420660ED93
:1007600077E080E090E00E943115C80162E871E016
:100770000E94E1091A8A198AFA82CE014196BE01C5
:100780006E5F7F4F0E94420687E590E89C8B8B8BC3
:10079000FB82CE014396BE016D5F7F4F0E944206F1
:1007A00089ED92E89E8B8D8BFC82CE014596BE0131
:1007B0006C5F7F4F0E94420688E196EA988F8F8B8C
:1007C000FD82CE014796BE016B5F7F4F0E944206BD
:1007D0008AE896EC9A8F898FFE82CE014996BE01F7
:1007E0006A5F7F4F0E94420680EC94E99C8F8B8F5A
:1007F000FF82CE014B96BE01695F7F4F0E94420689
:100800008CE692EC9E8F8D8FF886CE014D96BE01C0
:10081000685F7F4F0E94420681E89AEC98A38F8F11
:10082000F986CE014F96BE01675F7F4F0E94420658
:1008300083E89AEC9AA389A3FA86CE018196BE0139
:10084000665F7F4F0E9442068FE994EC9CA38BA3C6
:10085000FB86CE018396BE01655F7F4F0E944206F4
:1008600080E090EE9EA38DA3FC86CE018596BE010E
:10087000645F7F4F0E9442068EE098EC98A78FA39A
:10088000FD86CE018796BE01635F7F4F0E944206C0
:1008900080E090EC9AA789A7FE86CE018996BE01DA
:1008A000625F7F4F0E944206C80164EB71E00E94C4
:1008B000E10980E06EE373E040E050E00E94130C39
:1008C000C80168EC71E00E94E109AA960FB6F8949D
:1008D000DEBF0FBECDBFCF91DF911F910F91FF9073
:1008E0000895FF920F931F93DF93CF93CDB7DEB799
:1008F000AD970FB6F894DEBF0FBECDBF0BE814E086
:10090000C80163ED71E00E94E1090E940806198A9E
:10091000188AFF24F394F982CE014096BE016F5FDE
:100920007F4F0E94420660ED77E080E090E00E94F9
:100930003115C80162E871E00E94E10988ED90E894
:100940009B8B8A8BFA82CE014296BE016E5F7F4FEF
:100950000E94420681E092E89D8B8C8BFB82CE0147
:100960004496BE016D5F7F4F0E94420684E396EA83
:100970009F8B8E8BFC82CE014696BE016C5F7F4FB3
:100980000E94420687E596EC998F888FFD82CE0102
:100990004896BE016B5F7F4F0E94420680EC94E94F
:1009A0009B8F8A8FFE82CE014A96BE016A5F7F4F7F
:1009B0000E9442068CE292EC9D8F8C8FFF82CE01CA
:1009C0004C96BE01695F7F4F0E94420681E89AEC17
:1009D0009F8F8E8FF886CE014E96BE01685F7F4F47
:1009E0000E94420684ED9EEC99A388A3F986CE016D
:1009F0008096BE01675F7F4F0E94420687EF94ECAE
:100A00009BA38AA3FA86CE018296BE01665F7F4FC2
:100A10000E94420680E298E99DA38CA3FB86CE014A
:100A20008496BE01655F7F4F0E94420686E69CEC7D
:100A30009FA38EA3FC86CE018696BE01645F7F4F86
:100A40000E94420680E090EE99A788A7FD86CE011D
:100A50008896BE01635F7F4F0E94420680E098EC5B
:100A60009BA78AA7FE86CE018A96BE01625F7F4F52
:100A70000E94420680E090EC9DA78CA7FF86CE01E5
:100A80008C96BE01615F7F4F0E944206C80164EBF5
:100A900071E00E94E10964EF71E080E090E00E9463
:100AA000311580E06EE373E040E050E00E94130CEB
:100AB000AD960FB6F894DEBF0FBECDBFCF91DF91DC
:100AC0001F910F91FF90089589E893E00E948F0293
:100AD000882321F089E893E00E9436020895DF938D
:100AE000CF93CDB7DEB72B970FB6F894DEBF0FBE0E
:100AF000CDBFDE011196E3E0F2E08BE001900D92B4
:100B00008150E1F781E793E0BE016F5F7F4F4BE0DB
:100B100021E00E94F1000E9496022B960FB6F894F5
:100B2000DEBF0FBECDBFCF91DF910895DF93CF938E
:100B3000CDB7DEB760970FB6F894DEBF0FBECDBF5E
:100B4000DE011196E3EFF1E080E101900D9281501A
:100B5000E1F781E793E0BE016F5F7F4F40E120E066
:100B60000E94F1000E94960260960FB6F894DEBFD4
:100B70000FBECDBFCF91DF91089581E793E066E18D
:100B80000E948D0089E893E06CE00E94BF01089507
:100B9000CF93DF93CBE8D4E0CE0140E052EC61E0AC
:100BA00070E00E94ED07CE016EE072E00E94E10964
:100BB0000E9471040E94E402CE0166E272E00E948B
:100BC000E109DF91CF91089564E273E180E090E064
:100BD0000E9431158BE894E064E372E00E94E10921
:100BE0000E946F0564E670E080E090E00E9431159D
:100BF0000E94640508950E9462150E94C8050E9423
:100C0000E405FDCF882311F02A9808952A9A0895C3
:100C100080E00E940206229A8AE061E00E94EE15BE
:100C20008AE061E00E94CA158BE061E00E94CA156B
:100C30008CE060E00E94CA158DE061E00E94CA1558
:100C400080E58CBD82E060E00E94CA1582E061E030
:100C50000E94EE158DB581608DBD8CB58D7F8CBDEC
:100C60008CB581608CBD8CB5877F8CBD8CB58B7F3E
:100C70008CBD0895FC0180818EBD0DB407FEFDCFB3
:100C80008EB50895CF92DF92EF92FF920F931F934C
:100C9000DF93CF9300D0CDB7DEB76C017B01FB01B2
:100CA0008081882319F081E00E940206F60181818B
:100CB0008983CE0101960E943A06182F00E0F601C2
:100CC00080818A83CE0102960E943A06C82EDD24D6
:100CD000C02AD12AF7018081882319F080E00E9480
:100CE0000206C6010F900F90CF91DF911F910F91D7
:100CF000FF90EF90DF90CF900895FC01848595855B
:100D0000FC01E05CFF4F208131818E5B9F4FFC0135
:100D100080819181281B390B2F733070C901089590
:100D2000FC0184859585FC01E05CFF4F4081518189
:100D3000FC01EE5BFF4F208131814217530741F0E8
:100D40000190F081E02DE80FF91F208130E002C012
:100D50002FEF3FEFC9010895FC0184859585FC01C3
:100D6000E05CFF4F40815181FC01EE5BFF4F208131
:100D700031814217530771F0A081B181A80FB91FCB
:100D80002C918081918101968F73907091838083E3
:100D900030E002C02FEF3FEFC9010895DC011E963D
:100DA0008D919C911F97FC01E05CFF4F8E5B9F4FE4
:100DB00040815181DC012D913C91119742175307DD
:100DC000B9F708951F93FC01162F26853785D901A1
:100DD000A05CBF4F8D919C91019660E470E00E94F1
:100DE000401DD901AE5BBF4F4D915C9111978417A7
:100DF0009507D1F3D901A05CBF4F0D90BC91A02DF8
:100E0000A20FB31F1C93A685B785A05CBF4F119698
:100E10009C938E93A689B7892C9181E090E0058CF4
:100E200002C0880F991F0A94E2F7282B2C9381E0C7
:100E300090E01F910895FB01E05CFF4F208131811C
:100E40002F5F3F4F2F733070DB01AE5BBF4F4D9173
:100E50005C9111972417350739F0A081B181A60F55
:100E6000B71F8C9331832083089508951F920F92AA
:100E70000FB60F9211242F933F934F935F936F936D
:100E80007F938F939F93AF93BF93EF93FF93809143
:100E9000C60063E074E00E941B07FF91EF91BF91D1
:100EA000AF919F918F917F916F915F914F913F9102
:100EB0002F910F900FBE0F901F9018958BE894E024
:100EC0000E947D06009711F00E94350708951F9239
:100ED0000F920FB60F9211242F933F935F936F934E
:100EE0007F938F939F93AF93BF93EF93FF93209143
:100EF0008704309188048091890490918A0428178E
:100F0000390731F48091C1008F7D8093C10016C0F4
:100F1000E0918904F0918A04E95BFB4F2081809184
:100F2000890490918A04019660E470E00E94401D5B
:100F300090938A04809389042093C600FF91EF91D7
:100F4000BF91AF919F918F917F916F915F913F91F1
:100F50002F910F900FBE0F901F9018958F92AF9208
:100F6000BF92CF92DF92EF92FF920F931F93DF9386
:100F7000CF93CDB7DEB7FC011382128288EE93E0E7
:100F8000A0E0B0E084839583A683B7838AE392E0F0
:100F9000918380837587648757874687318B208B41
:100FA000138B028BF58AE48AD78AC68AB18EA08E0B
:100FB000828E8E85838F8F85848F8889858F89899E
:100FC000868FCF91DF911F910F91FF90EF90DF906F
:100FD000CF90BF90AF908F900895DF92EF92FF92E5
:100FE0000F931F93CF93DF93EC017A018B01DD24E4
:100FF000D394403081EE580780E0680780E078079E
:1010000049F4DD24EC89FD89108260E874E88EE102
:1010100090E00FC0EC89FD8981E090E00E8C02C069
:10102000880F991F0A94E2F7808360E079E08DE3EE
:1010300090E0A80197010E94531D2150304040408C
:101040005040569547953795279580E120303807D1
:1010500010F0DD20B1F6E889F9893083EA89FB894F
:101060002083EE89FF89408181E090E09C010A8C19
:1010700002C0220F331F0A94E2F7422B4083EE890D
:10108000FF8940819C010B8C02C0220F331F0A9400
:10109000E2F7422B4083EE89FF8940819C010C8C52
:1010A00002C0220F331F0A94E2F7422B4083EE89DD
:1010B000FF8920810D8C02C0880F991F0A94E2F7E6
:1010C000809582238083DF91CF911F910F91FF90B4
:1010D000EF90DF900895CF93DF93FC01868597858D
:1010E000DC01A05CBF4F8E5B9F4F4D915C911197CF
:1010F000EC012881398142175307B9F7A689B789CE
:101100004C9181E090E09C01028C02C0220F331FC1
:101110000A94E2F7209524232C93A689B7894C9151
:101120009C01038C02C0220F331F0A94E2F7209522
:1011300024232C93A689B7894C919C01048C02C06E
:10114000220F331F0A94E2F7209524232C93A689BB
:10115000B7892C91058C02C0880F991F0A94E2F779
:10116000809582238C9384859585FC01EE5BFF4FEF
:1011700020813181805C9F4FFC0131832083DF918E
:10118000CF91089510928E0410928D0488EE93E012
:10119000A0E0B0E080938F0490939004A09391041A
:1011A000B0939204EDE8F4E08AE392E092938293A4
:1011B00083E094E09587848787E494E09787868727
:1011C00085EC90E0918B808B84EC90E0938B828B0C
:1011D00080EC90E0958B848B81EC90E0978B868BF4
:1011E00086EC90E0918F808F84E0828F83E0838F04
:1011F00087E0848F85E0858F81E0868F0895CF9288
:10120000DF92EF92FF920F931F93CF93DF936C01C6
:101210007B018A01C0E0D0E00FC0D7016D917D0154
:10122000D601ED91FC910190F081E02DC601099568
:10123000C80FD91F015010400115110571F7CE01DB
:10124000DF91CF911F910F91FF90EF90DF90CF90A2
:101250000895DB010D900020E9F7AD0141505040A9
:10126000461B570BDC01ED91FC910280F381E02DD0
:1012700009950895EF92FF920F931F93CF93DF93F9
:101280007C01062F172FC0E0D0E0F8010F5F1F4F41
:101290006491662351F0F701A081B181ED91FC9139
:1012A000C7010995C80FD91FF0CFCE01DF91CF91AB
:1012B0001F910F91FF90EF900895AF92BF92CF9240
:1012C000DF92EF92FF920F931F93CF93DF937C01F6
:1012D0006B01C0E0D0E000E010E010C0D701ED915C
:1012E000FC91A080B180C601BE010E947D11682FD3
:1012F000C701F5010995080F191F2196F601848190
:101300009581C817D90750F3C801DF91CF911F917C
:101310000F91FF90EF90DF90CF90BF90AF90089526
:101320000E9429090895DC01ED91FC910190F08162
:10133000E02D099508959C01CB01DB01ED91FC9115
:101340000190F081E02DB901099508950F931F9345
:10135000CF93DF93EC016DE00E9493098C01CE01E5
:101360006AE00E949309080F191FC801DF91CF910D
:101370001F910F9108950F931F93CF93DF93EC016B
:101380000E943A098C01CE010E94A609080F191F7C
:10139000C801DF91CF911F910F9108950F931F9373
:1013A000CF93DF93EC010E945D098C01CE010E9476
:1013B000A609080F191FC801DF91CF911F910F9146
:1013C00008950F931F93CF93DF93EC010E94290997
:1013D0008C01CE010E94A609080F191FC801DF91D8
:1013E000CF911F910F9108950F931F93CF93DF9388
:1013F000EC010E9493098C01CE010E94A609080FFE
:10140000191FC801DF91CF911F910F9108950F937C
:101410001F93CF93DF93EC010E949B098C01CE01B7
:101420000E94A609080F191FC801DF91CF911F91D3
:101430000F9108958F929F92AF92BF92CF92DF92B9
:10144000EF92FF920F931F93DF93CF93CDB7DEB749
:10145000A1970FB6F894DEBF0FBECDBF6C01042F6D
:10146000E52FCB01122F19A2223008F41AE021E255
:10147000E22EF12CEC0EFD1E812E9924AA24BB2411
:1014800003C0022FE32FCA01602F7E2FA501940114
:101490000E94531D129F802D1124081B0894E108FF
:1014A000F1080A3010F4005D01C0095CF701008307
:1014B000211531054105510521F7C601B7010E94EB
:1014C0002909A1960FB6F894DEBF0FBECDBFCF910C
:1014D000DF911F910F91FF90EF90DF90CF90BF9021
:1014E000AF909F908F9008952115310549F4DC014C
:1014F000ED91FC910190F081E02D642F0995089504
:101500000E941A0A08950F931F93CF93DF93EC0163
:101510000E94740A8C01CE010E94A609080F191FAF
:10152000C801DF91CF911F910F9108959A01AB01EE
:1015300060E070E00E94740A08950F931F93CF93A8
:10154000DF93EC019A01AB0160E070E00E94740A45
:101550008C01CE010E94A609080F191FC801DF9156
:10156000CF911F910F9108959A01462F50E060E0AE
:1015700070E00E94740A08950F931F93CF93DF9336
:10158000EC019A01462F50E060E070E00E94740A7E
:101590008C01CE010E94A609080F191FC801DF9116
:1015A000CF911F910F910895CF92DF92EF92FF920A
:1015B0000F931F93CF93DF93EC017A018B012115D9
:1015C000310541F4E881F9810190F081E02D642F2B
:1015D00009951AC02A303105A9F477FF12C06DE2CF
:1015E0000E9493096C0144275527BA014E195F09DF
:1015F000600B710BCE012AE00E941A0AC80ED91E98
:1016000004C02AE00E941A0A6C01C601DF91CF9142
:101610001F910F91FF90EF90DF90CF9008950F935F
:101620001F93CF93DF93EC010E94D40A8C01CE016B
:101630000E94A609080F191FC801DF91CF911F91C1
:101640000F9108959A01FB01AF01662757FD609540
:10165000762F0E94D40A08950F931F93CF93DF93A0
:10166000EC019A01CB01AC01662757FD6095762FFE
:10167000CE010E94D40A8C01CE010E94A609080F57
:10168000191FC801DF91CF911F910F9108956F929B
:101690007F929F92AF92BF92CF92DF92EF92FF9292
:1016A0000F931F93CF93DF933C017A018B01C22EDE
:1016B000CB01BA0120E030E0A9010E94FC1987FFAC
:1016C0000AC0C3016DE20E949309EC0117FB10955B
:1016D00017F9109502C0C0E0D0E0DD2450E040E0F2
:1016E00030E02FE311C0DA01F9016B2F742F8F2F37
:1016F000922F20E030E040E251E40E941E19562F64
:10170000472F382F292FD394DC1468F3C801B70171
:10171000DA01F9012B2F342F4F2F5E2F0E94C617AD
:101720005B01F82E992E7B2D0E945016162FD72E76
:10173000E82E092F0E94DE1A9B01AC016A2D7B2D39
:101740008F2D992D0E94F317962EA72EB82EF92EC5
:10175000C301412F5D2D6E2D702F2AE030E00E94D5
:10176000740AC80FD91FCC20B9F1C30166E572E035
:101770000E942909C80FD91F2FC0692D7A2D8B2DE2
:101780009F2D20E030E040E251E40E942418D62E44
:10179000B72EA82E992E0E948C1A7B010027F7FCE9
:1017A0000095102FC301B801A7012AE030E00E9484
:1017B000D40AC80FD91FC801B7010E942C1A9B0177
:1017C000AC016D2D7B2D8A2D992D0E94F317962E3D
:1017D000A72EB82EF92ECA94CC2079F6CE01DF912F
:1017E000CF911F910F91FF90EF90DF90CF90BF901E
:1017F000AF909F907F906F9008950E94470B08953F
:101800000F931F93CF93DF93EC010E94470B8C0142
:10181000CE010E94A609080F191FC801DF91CF91C0
:101820001F910F9108958230E8F4E82FF0E0EE0F59
:10183000FF1FE655FB4F71836083813041F080913B
:1018400069008C7F842B80936900E89A08958091C9
:101850006900440F551F440F551F837F842B8093CD
:101860006900E99A0895823068F4813011F0E898AF
:1018700001C0E998E82FF0E0EE0FFF1FE655FB4F9F
:101880001182108208951F920F920FB60F921124A9
:101890002F933F934F935F936F937F938F939F9378
:1018A000AF93BF93EF93FF938091AA049091AB0401
:1018B000009729F0E091AA04F091AB040995FF91FB
:1018C000EF91BF91AF919F918F917F916F915F91B8
:1018D0004F913F912F910F900FBE0F901F90189531
:1018E0001F920F920FB60F9211242F933F934F9395
:1018F0005F936F937F938F939F93AF93BF93EF9378
:10190000FF938091AC049091AD04009729F0E09191
:10191000AC04F091AD040995FF91EF91BF91AF91A7
:101920009F918F917F916F915F914F913F912F91F7
:101930000F900FBE0F901F901895FC018081918130
:101940000E94601E0895CF93DF93EC0188819981F6
:10195000009711F00E94601E198218821D821C825D
:101960001B821A82DF91CF9108950F931F93CF931B
:10197000DF93EC018B016F5F7F4F888199810E941B
:10198000F91E009731F0998388831B830A8381E0D5
:1019900001C080E0DF91CF911F910F910895CF9307
:1019A000DF93EC0188819981009729F08A819B81DE
:1019B0008617970778F4CE010E94B50C882341F072
:1019C0008C819D81009731F4E881F981108202C0F9
:1019D00080E001C081E0DF91CF910895EF92FF9206
:1019E0000F931F93CF93DF93EC017B018A01BA0120
:1019F0000E94CF0C882321F4CE010E94A30C07C0C3
:101A00001D830C8388819981B7010E943220CE0109
:101A1000DF91CF911F910F91FF90EF900895CF9399
:101A2000DF93FC01118210821382128215821482CC
:101A300016826115710559F0EB0109900020E9F754
:101A4000AE0141505040461B570B0E94EE0CDF91F7
:101A5000CF910895EF92FF92CF93DF93EC01FB01BA
:101A60008617970761F0608171816115710529F012
:101A7000448155810E94EE0C02C00E94A30CCE014D
:101A8000DF91CF91FF90EF900895FC0111821082B9
:101A9000138212821582148216820E942A0D0895E2
:101AA0000F931F938C016115710561F0DB010D909F
:101AB0000020E9F7AD0141505040461B570B0E94F2
:101AC000EE0C02C00E94A30CC8011F910F91089553
:101AD000EF92FF920F931F93DF93CF93CDB7DEB7B3
:101AE000A1970FB6F894DEBF0FBECDBF7C01CB012E
:101AF000BA01F701118210821382128215821482B8
:101B000016828E010F5F1F4FA80130E00E94E52072
:101B1000C701B8010E94500DA1960FB6F894DEBF20
:101B20000FBECDBFCF91DF911F910F91FF90EF902E
:101B30000895EF92FF920F931F93DF93CF93CDB74A
:101B4000DEB7A2970FB6F894DEBF0FBECDBF7C0103
:101B5000CB01BA01F7011182108213821282158221
:101B6000148216828E010F5F1F4FA80130E00E9481
:101B70009C20C701B8010E94500DA2960FB6F894A0
:101B8000DEBF0FBECDBFCF91DF911F910F91FF90B0
:101B9000EF900895EF92FF920F931F93DF93CF93EF
:101BA000CDB7DEB761970FB6F894DEBF0FBECDBFDD
:101BB0007C01CB01F70111821082138212821582FF
:101BC000148216828E010F5F1F4FB80150E00E94F1
:101BD0000A21C701B8010E94500D61960FB6F89412
:101BE000DEBF0FBECDBFCF91DF911F910F91FF9050
:101BF000EF900895EF92FF920F931F93DF93CF938F
:101C0000CDB7DEB762970FB6F894DEBF0FBECDBF7B
:101C10007C01CB01F701118210821382128215829E
:101C2000148216828E010F5F1F4FB80150E00E9490
:101C30007B20C701B8010E94500D62960FB6F89440
:101C4000DEBF0FBECDBFCF91DF911F910F91FF90EF
:101C5000EF900895EF92FF920F931F93DF93CF932E
:101C6000CDB7DEB729970FB6F894DEBF0FBECDBF54
:101C70007C01862FF7011182108213821282158255
:101C80001482168290E08E010F5F1F4FB80150E062
:101C90000E940A21C701B8010E94500D29960FB673
:101CA000F894DEBF0FBECDBFCF91DF911F910F9192
:101CB000FF90EF900895DF93CF9300D0CDB7DEB7BC
:101CC000FC01118210821382128215821482168204
:101CD00069831A82BE016F5F7F4F0E94500D0F9083
:101CE0000F90CF91DF910895EF92FF920F931F9382
:101CF000CF93DF93EC017B010C811D816115710590
:101D0000B9F04115510591F0040F151FB8010E945B
:101D1000CF0C882369F0288139818C819D81820FC5
:101D2000931FB7010E9432201D830C8381E001C004
:101D300080E0DF91CF911F910F91FF90EF90089578
:101D4000FB0160817181448155810E94740E089568
:101D50006115710561F0DB010D900020E9F7AD011F
:101D600041505040461B570B0E94740E089580E06E
:101D70000895DF93CF9300D0CDB7DEB769831A8281
:101D8000BE016F5F7F4F41E050E00E94740E0F90E4
:101D90000F90CF91DF910895EF92FF920F931F93D1
:101DA000DF93CF9300D000D0CDB7DEB77C01862F74
:101DB00090E08E010F5F1F4FB8014AE050E00E9493
:101DC0007B20F80101900020E9F7AF01415050401D
:101DD000401B510BC701B8010E94740E0F900F9069
:101DE0000F900F90CF91DF911F910F91FF90EF9087
:101DF0000895EF92FF920F931F93DF93CF93CDB788
:101E0000DEB727970FB6F894DEBF0FBECDBF7C01BB
:101E1000CB018E010F5F1F4FB8014AE050E00E94D6
:101E20007B20F80101900020E9F7AF0141505040BC
:101E3000401B510BC701B8010E94740E27960FB6C4
:101E4000F894DEBF0FBECDBFCF91DF911F910F91F0
:101E5000FF90EF900895EF92FF920F931F93DF93FF
:101E6000CF9300D000D000D0CDB7DEB77C01CB013E
:101E70008E010F5F1F4FB8014AE050E00E940A2117
:101E8000F80101900020E9F7AF0141505040401B9C
:101E9000510BC701B8010E94740E26960FB6F89434
:101EA000DEBF0FBECDBFCF91DF911F910F91FF908D
:101EB000EF900895EF92FF920F931F93DF93CF93CC
:101EC000CDB7DEB72C970FB6F894DEBF0FBECDBFEF
:101ED0007C01CB01BA018E010F5F1F4FA8012AE0E0
:101EE00030E00E949C20F80101900020E9F7AF014A
:101EF00041505040401B510BC701B8010E94740E65
:101F00002C960FB6F894DEBF0FBECDBFCF91DF91F8
:101F10001F910F91FF90EF900895EF92FF920F9312
:101F20001F93DF93CF93CDB7DEB72B970FB6F894FF
:101F3000DEBF0FBECDBF7C01CB01BA018E010F5FAA
:101F40001F4FA8012AE030E00E94E520F80101902F
:101F50000020E9F7AF0141505040401B510BC70131
:101F6000B8010E94740E2B960FB6F894DEBF0FBE18
:101F7000CDBFCF91DF911F910F91FF90EF9008950A
:101F80000F931F938C01FB01608171814481558106
:101F90000E94740E882319F4C8010E94A30CC80182
:101FA0001F910F9108950F931F938C016115710577
:101FB00069F0DB010D900020E9F7AD014150504080
:101FC000461B570B0E94740E882319F4C8010E9407
:101FD000A30CC8011F910F9108950F931F938C01BB
:101FE0000E94B90E882319F4C8010E94A30CC801ED
:101FF0001F910F9108950F931F938C010E94CC0E97
:10200000882319F4C8010E94A30CC8011F910F91E5
:1020100008950F931F938C010E94F90E882319F4E1
:10202000C8010E94A30CC8011F910F9108950F933E
:102030001F938C010E942B0F882319F4C8010E9462
:10204000A30CC8011F910F9108950F931F938C014A
:102050000E945A0F882319F4C8010E94A30CC801DA
:102060001F910F9108950F931F938C010E948D0F64
:10207000882319F4C8010E94A30CC8011F910F9175
:102080000895CF93DF93FC01DB018081918100975C
:1020900031F06D917C91119761157105E9F4CD9145
:1020A000DC911197209769F014962D913C9115972A
:1020B0002115310531F0288130E0309521953F4FD1
:1020C00012C0009771F0248135812115310549F046
:1020D000FC01208130E007C00E942920282F392FE1
:1020E00002C020E030E0C901DF91CF910895FC01EA
:1020F00044815581FB01248135814217530729F41E
:102100000E94411021E0009709F020E0822F0895FD
:10211000FC0184819581009741F46115710519F0E6
:1021200081E0FB0109C081E008950190F081E02D7C
:102130006115710531F481E09081992359F080E0B7
:102140000895CF010E9429209C0181E021153105CD
:1021500009F080E008950E944110892F881F882788
:10216000881F08950E94411021E0181619060CF0EE
:1021700020E0822F08950E94411021E018161906D0
:102180000CF420E0822F08950E944110892F809541
:10219000881F8827881F0895EF92FF920F931F933F
:1021A000CF93DF93FC01DB018617970709F1848148
:1021B000958114962D913C91159782179307D1F430
:1021C0000097B1F000811181CD91DC9111970BC086
:1021D00090E00E94F31F7C01899190E00E94F31F20
:1021E000E816F90639F4F80181918F01882381F707
:1021F00081E001C080E0DF91CF911F910F91FF90AE
:10220000EF900895FC01DB01CA0114964D915C9199
:10221000159724813581241B350B28173907A0F029
:10222000208131812115310579F06D917C911197D3
:102230006115710559F0820F931F0E9439209C018E
:1022400081E02115310519F080E0089580E00895BE
:10225000FC0144815581FB012481358142175307DC
:1022600028F040E050E00E940211089580E00895B7
:10227000FC01DB018481958114964D915C91159749
:1022800084179507B0F0208131812115310589F03F
:102290006D917C9111976115710569F0841B950B07
:1022A000820F931F0E9429209C0181E02115310596
:1022B00019F080E0089580E00895FC018481958103
:1022C0006817790730F40190F081E02DE60FF71FD1
:1022D00040830895FC01848195816817790720F473
:1022E00080819181009729F41092AE046EEA74E027
:1022F00002C0680F791FCB010895FC01848195818C
:102300006817790748F480819181009739F0680F48
:10231000791FFB018081089580E0089580E0089591
:102320000E947D1108950F931F93CF93DF93FC01BB
:102330008B0141155105F1F061157105D9F0C4818A
:10234000D5812C173D0718F0FB01108213C04150B6
:102350005040C21BD30B4C175D0708F4EA016081A3
:102360007181620F731FC801AE010E944720C00F28
:10237000D11F1882DF91CF911F910F910895CF93B4
:10238000DF93FC01CA01248135814217530768F4A9
:10239000C081D1818C0F9D1F70E00E941E2000978C
:1023A00021F09C012C1B3D0B02C02FEF3FEFC90118
:1023B000DF91CF91089540E050E00E94BF11089551
:1023C000CF93DF93FC01CA01248135814217530763
:1023D00078F4C081D181FB01608171818C0F9D1FD8
:1023E0000E946120009721F09C012C1B3D0B02C034
:1023F0002FEF3FEFC901DF91CF91089540E050E00A
:102400000E94E0110895DF92EF92FF920F931F93C5
:10241000CF93DF93EC018C819D8148175907E8F435
:102420007A010894E11CF11CE881F981EE0DFF1D91
:10243000D080108208811981C80170E00E94562066
:102440000E0D1F1DF801D082009739F028813981C7
:10245000AC01421B530B9A0102C02FEF3FEFC901A1
:10246000DF91CF911F910F91FF90EF90DF90089532
:10247000FC0144815581415050400E94031208954F
:10248000AF92BF92CF92DF92EF92FF920F931F9382
:10249000CF93DF93FC016B018A01DB0114962D9130
:1024A0003C9115972115310551F184819581009753
:1024B00031F18217930718F14817590718F08C016A
:1024C00001501040E080F180C701CFEFDFEF5701EE
:1024D000A00EB11E10C0F601608171810E946120C2
:1024E000009779F09C012E193F090217130708F491
:1024F0009E010196E901A816B90668F702C0CFEF60
:10250000DFEFCE01DF91CF911F910F91FF90EF9000
:10251000DF90CF90BF90AF900895FC01448155812A
:10252000FB0124813581421B530B0E944012089508
:10253000AF92BF92CF92DF92EF92FF920F931F93D1
:10254000CF93DF93F82EE92E6B018A01E90124175E
:10255000350748F4342F212F8E01C901A92EE5013A
:102560005E01B22EE5018F2D9E2D60E672E00E9485
:102570000F0DD60114968D919C9115978017910798
:10258000D8F08C179D0708F4EC01D601ED91FC9171
:102590001197EC0FFD1FB08010826D917C91600F40
:1025A000711F8F2D9E2D0E94500DD601ED91FC9133
:1025B0001197EC0FFD1FB0828F2D9E2DDF91CF91D3
:1025C0001F910F91FF90EF90DF90CF90BF90AF9051
:1025D0000895CF93DF93EC01FB01248135810E94A4
:1025E0009812CE01DF91CF910895DC01ED91FC911D
:1025F0001197309729F40895861709F4408331968E
:1026000080818823C9F708952F923F924F925F925D
:102610006F927F928F929F92AF92BF92CF92DF92F2
:10262000EF92FF920F931F93CF93DF937C012B01C7
:102630006A01DC0114966D907C9015976114710409
:1026400009F4D9C0FB01848095808114910409F4B8
:10265000D2C0DA011496AD90BC901597A818B908AD
:10266000FC0100811181A114B104F1F413C0D60161
:102670006C9111967C91119714964D915C911597E0
:10268000CE010E940320D60114960D911C9115973E
:102690000C0F1D1FF20160817181C8010E94612031
:1026A000EC01009721F7A7C0B7FC02C0E30142C0CC
:1026B00048012DC0E301C01BD10BC401B801AE011C
:1026C0000E940320C80DD91DD6016C9111967C91F2
:1026D000119714964D915C911597CE010E9403209D
:1026E000D60114968D909C9015978C0E9D1EF2012C
:1026F00004811581060D171DD70114968D919C91AB
:1027000015978A0D9B1D15969C938E931497F20135
:1027100060817181C8010E9461203C01009751F6DF
:10272000C401B8010E94322066C08C01080D191D39
:10273000CA0DDB1DD2016D917C91C8010E94612000
:10274000009799F7C615D70509F455C0F70182819E
:1027500093818C179D0708F045C0C701BE010E94F8
:10276000B50C882309F447C03DC0C701B201A901D7
:102770000E944012EC0197FD3EC0D7016D917C9103
:102780001197F201848195818C0F9D1F680F791F2D
:1027900014964D915C911597481B590BCB018A0DEE
:1027A0009B1D0E940C20D70114968D919C9115972A
:1027B0008A0D9B1D15969C938E931497ED91FC9119
:1027C0001197E80FF91F10822D913C912C0F3D1F9E
:1027D000F6016081718144815581C9010E94032005
:1027E0009E0105C0D70114962D913C91159721505B
:1027F000304037FFBACFDF91CF911F910F91FF90FB
:10280000EF90DF90CF90BF90AF909F908F907F9090
:102810006F905F904F903F902F900895CF93DF93EC
:10282000FC01C081D181209729F407C090E00E946B
:10283000F31F899388818823C9F7DF91CF91089589
:10284000CF93DF93FC01C081D181209729F407C089
:1028500090E00E94FB1F899388818823C9F7DF914C
:10286000CF910895AF92BF92CF92DF92EF92FF92F5
:102870000F931F93CF93DF936C01DC01ED90FC90DD
:102880001197E114F10409F43FC01496AD90BC9087
:102890001597A114B104C1F18701E80188810F5F88
:1028A0001F4F90E00E94EB1F0097B9F78501015080
:1028B00010400E0D1F1DF801808190E00E94EB1F5B
:1028C000009731F00C171D0718F001501040F3CF9E
:1028D0000F5F1F4F0C1B1D0BD60115961C930E93FB
:1028E0001497EC16FD0628F4C701BE01A8010E944A
:1028F0000320D601ED91FC91119714968D919C9136
:102900001597E80FF91F1082DF91CF911F910F915A
:10291000FF90EF90DF90CF90BF90AF900895FC01B3
:1029200080819181009729F00E94C41F9B01AC0116
:1029300003C020E030E0A901B901CA0108950E9456
:10294000C61D08950E94601E089521E030E0FC013C
:102950008081882311F020E030E0C901089521E052
:10296000FC0120830895089508951F920F920FB6D9
:102970000F9211242F933F938F939F93AF93BF9305
:102980008091B3049091B404A091B504B091B604C1
:102990003091B7040196A11DB11D232F2D5F2D3756
:1029A00020F02D570196A11DB11D2093B7048093EF
:1029B000B3049093B404A093B504B093B60480918B
:1029C000AF049091B004A091B104B091B20401960B
:1029D000A11DB11D8093AF049093B004A093B104E6
:1029E000B093B204BF91AF919F918F913F912F917E
:1029F0000F900FBE0F901F9018958FB7F8942091ED
:102A0000B3043091B4044091B5045091B6048FBF23
:102A1000B901CA0108959FB7F8942091AF0430918D
:102A2000B0044091B1045091B20486B5A89B06C091
:102A30008F3F21F02F5F3F4F4F4F5F4F9FBF542F6E
:102A4000432F322F2227280F311D411D511D82E0B7
:102A5000220F331F441F551F8A95D1F7B901CA01B0
:102A60000895EF92FF920F931F93CF93DF937B0113
:102A70008C010E940B15EB010FC00E940B156C1B03
:102A80007D0B83E0683E780738F00894E108F10890
:102A900001091109C851DC4FE114F10401051105C8
:102AA00061F7DF91CF911F910F91FF90EF90089503
:102AB000019739F0880F991F880F991F0297019786
:102AC000F1F70895789484B5826084BD84B58160FF
:102AD00084BD85B5826085BD85B5816085BDEEE626
:102AE000F0E0808181608083E1E8F0E01082808105
:102AF00082608083808181608083E0E8F0E0808173
:102B000081608083E1EBF0E0808184608083E0EB92
:102B1000F0E0808181608083EAE7F0E0808184607A
:102B200080838081826080838081816080838081D6
:102B3000806880831092C1000895833071F08430E2
:102B400028F48130A1F0823021F514C08630B1F034
:102B50008730D1F08430E9F404C0809180008F7711
:102B600003C0809180008F7D80938000089584B59C
:102B70008F7702C084B58F7D84BD08958091B000A9
:102B80008F778093B00008958091B0008F7D8093FF
:102B9000B000089590E0FC01E656FF4F2491FC013F
:102BA000EA57FF4FE491EE23C1F0F0E0EE0FFF1F74
:102BB000E859FF4F85919491DC01662341F49FB75A
:102BC000F8948C91209582238C939FBF08959FB792
:102BD000F8948C91822B8C939FBF08950F931F9331
:102BE000DF93CF930F92CDB7DEB7282F30E0F901F6
:102BF000E255FF4F8491F901E656FF4F14912A5791
:102C00003F4FF90104910023D9F0882321F0698313
:102C10000E949D156981E02FF0E0EE0FFF1FEE5836
:102C2000FF4F85919491DC019FB7F894662321F4BE
:102C30008C911095812302C08C91812B8C939FBF26
:102C40000F90CF91DF911F910F9108950F931F93D4
:102C5000282F30E0F901E255FF4F8491F901E65643
:102C6000FF4F04912A573F4FF9011491112391F01E
:102C7000882311F00E949D15E12FF0E0EE0FFF1F59
:102C8000E458FF4F85919491DC018C91802321E0E1
:102C900030E011F420E030E0C9011F910F91089558
:102CA000EF92FF920F931F937B018C0120E030E0A5
:102CB00040E05FE40E94CC1987FD11C0C801B70154
:102CC00020E030E040E05FE40E94F3170E948C1A9D
:102CD0009B01AC01205030404040504806C0C80124
:102CE000B7010E948C1A9B01AC01B901CA011F9166
:102CF0000F91FF90EF900895A0E0B0E0E2E8F6E1D8
:102D00000C948D1DFC01EA018081823008F438C1E9
:102D1000DB019C91923008F430C1843059F4943036
:102D200009F02EC1918111968C911197981709F095
:102D300021C126C1943009F420C19230B1F482300F
:102D400009F01EC1CA01AF0128E0DA010D90AD0102
:102D5000DC010D92CD012150C1F7DB0111968C9160
:102D600011979181892389830AC1823009F405C1B1
:102D7000C280D380DB0112966D907C9013972481E2
:102D80003581468157811496ED90FD900D911C91EF
:102D90001797C601861997095C0197FF04C0AA24FA
:102DA000BB24A81AB90AB0E2AB16B1040CF061C09A
:102DB000181619066CF5370148010A2C04C09694C0
:102DC0008794779467940A94D2F781E090E0A0E02A
:102DD000B0E00A2C04C0880F991FAA1FBB1F0A94D9
:102DE000D2F70197A109B1098E219F21A023B12318
:102DF000EE24FF248701E3940097A105B10519F49F
:102E0000EE24FF248701E628F728082919293CC069
:102E10000097D1F1CA0CDB1C39014A010A2C04C00D
:102E200096948794779467940A94D2F781E090E01F
:102E3000A0E0B0E00A2C04C0880F991FAA1FBB1F96
:102E40000A94D2F70197A109B10982239323A423FD
:102E5000B52321E030E040E050E00097A105B10546
:102E600019F420E030E0A9012629372948295929F9
:102E70000BC06C147D0424F4EE24FF24870104C0ED
:102E8000630120E030E0A9018181FB019181891774
:102E900009F445C0882349F0D801C701821B930B70
:102EA000A40BB50B9C01AD0104C02E193F09400BCA
:102EB000510B57FD04C01982DB82CA820BC081E02E
:102EC0008983DB82CA8250954095309521953F4F8A
:102ED0004F4F5F4F2C833D834E835F830DC0880F20
:102EE000991FAA1FBB1F8C839D83AE83BF838A81DA
:102EF0009B8101979B838A838C819D81AE81BF8159
:102F00009C01AD0121503040404050402F3FEFEF39
:102F10003E07EFEF4E07EFE35E0708F30BC0898330
:102F2000DB82CA822E0D3F1D401F511F2C833D8323
:102F30004E835F8383E088832C813D814E815F8156
:102F400057FF1DC0DA01C90181709070A070B07088
:102F50005695479537952795822B932BA42BB52B08
:102F60008C839D83AE83BF838A819B8101969B83E3
:102F70008A8305C0E1E6F2E003C0FB0101C0FE0167
:102F8000CF01CDB7DEB7EEE00C94A91DA0E2B0E012
:102F9000ECECF7E10C94951D69837A838B839C8319
:102FA0002D833E834F83588789E0E82EF12CEC0E69
:102FB000FD1ECE010196B7010E947E1C8E010F5EA0
:102FC0001F4FCE010596B8010E947E1CC701B801B3
:102FD000AE01475E5F4F0E947C160E94B01BA09618
:102FE000E6E00C94B11DA0E2B0E0E9EFF7E10C944B
:102FF000951D69837A838B839C832D833E834F83C6
:1030000058878E01075F1F4FCE010196B8010E94BD
:103010007E1C91E1E92EF12CEC0EFD1ECE010596F1
:10302000B7010E947E1C8A8991E089278A8BC8019A
:10303000B701AE01475E5F4F0E947C160E94B01B35
:10304000A096E6E00C94B11DA0E2B0E0EAE2F8E15F
:103050000C94891D69837A838B839C832D833E83A3
:103060004F835887CE010196BE01675F7F4F0E9454
:103070007E1CCE010596BE016F5E7F4F0E947E1CB6
:103080009985923078F089898230C0F0943019F4B3
:10309000823041F4CBC0843019F4923079F4C6C048
:1030A000923051F481E02A859A89291709F480E049
:1030B0008A87CE010996BCC0823051F481E02A850E
:1030C0009A89291709F480E08A8BCE014196B0C015
:1030D0006D847E848F849888ED88FE880F89188D92
:1030E000E0E2F0E080E090E0DC01AA24BB2465018E
:1030F00020E030E0A901B3016170707061157105C5
:10310000D1F02E0D3F1D401F511F15012601280E25
:10311000391E4A1E5B1E81E090E0A0E0B0E02E1553
:103120003F054007510718F080E090E0DC01820D78
:10313000931DA41DB51DAA0CBB1CCC1CDD1C17FFC8
:1031400009C061E0262E312C412C512CA228B32835
:10315000C428D528319749F0EE0CFF1C001F111F21
:103160009694879477946794C6CF6B897C89EB8516
:10317000FC856E0F7F1F6E5F7F4F7C8F6B8F61E0D2
:10318000EA857A89E71709F460E06A8F6B8D7C8D98
:1031900010C0FC01E170F070309729F0569547950A
:1031A000379527955068B695A795979587956F5F42
:1031B0007F4FB7FDEECF0CC0880F991FAA1FBB1F12
:1031C00057FD8160220F331F441F551F615070400F
:1031D0008030E0E09E07E0E0AE07E0E4BE0760F389
:1031E0006B8F7C8F6FE7E62EF12C012D112DE822DD
:1031F000F9220A231B2360E4E616F10401051105F8
:1032000061F487FD0AC0211531054105510529F0FA
:10321000805C9F4FAF4FBF4F80788D8F9E8FAF8F59
:10322000B8A383E0898FCE01499602C081E692E07F
:103230000E94B01BA096E2E10C94A51DA8E1B0E0AD
:10324000E4E2F9E10C94911D69837A838B839C837A
:103250002D833E834F8358878E01075F1F4FCE011A
:103260000196B8010E947E1C81E1E82EF12CEC0E43
:10327000FD1ECE010596B7010E947E1C99859230F5
:1032800008F483C08989823008F47BC02A853A8992
:1032900023272A87943011F0923021F4981709F0EF
:1032A0006CC071C0843039F41D861E861F86188A52
:1032B0001C861B866AC0823019F484E0898765C049
:1032C0008B859C852B893C89821B930B9C878B87E4
:1032D0002D853E854F855889ED88FE880F89188D8C
:1032E0002E153F054007510738F4220F331F441FA6
:1032F000551F01979C878B876FE170E0A12CB12C43
:10330000C12CA0E4DA2E80E090E0DC012E153F0510
:103310004007510740F08A299B29AC29BD292E1965
:103320003F09400B510BD694C794B794A794220F32
:10333000331F441F551F6150704041F76FE7E62E61
:10334000F12C012D112DE822F9220A231B2360E420
:10335000E616F1040105110561F487FD0AC0211587
:1033600031054105510529F0805C9F4FAF4FBF4F9C
:1033700080788D879E87AF87B88B8E01075F1F4F40
:1033800004C0870102C001E612E0C8010E94B01B20
:103390006896EAE00C94AD1DA8E1B0E0E2EDF9E139
:1033A0000C94951D69837A838B839C832D833E8344
:1033B0004F8358878E01075F1F4FCE010196B801DA
:1033C0000E947E1C81E1E82EF12CEC0EFD1ECE0148
:1033D0000596B7010E947E1C8985823040F089895C
:1033E000823028F0C801B7010E94E71C01C08FEFAE
:1033F0006896E6E00C94B11DA8E1B0E0E2E0FAE1E5
:103400000C94951D69837A838B839C832D833E83E3
:103410004F8358878E01075F1F4FCE010196B80179
:103420000E947E1C81E1E82EF12CEC0EFD1ECE01E7
:103430000596B7010E947E1C8985823040F08989FB
:10344000823028F0C801B7010E94E71C01C081E06A
:103450006896E6E00C94B11DA8E0B0E0E2E3FAE182
:103460000C94951D7B018C0183E08983D801C701F1
:103470008827B7FD83959927AA27BB27282F8A83FA
:10348000E114F1040105110519F482E0898337C0C4
:103490008EE190E09C838B83222389F080E0E81604
:1034A00080E0F80680E0080780E8180769F11095C9
:1034B0000095F094E094E11CF11C011D111DED82BA
:1034C000FE820F831887C801B7010E94561B9C011A
:1034D000215030401216130694F4022E04C0EE0C54
:1034E000FF1C001F111F0A94D2F7ED82FE820F838A
:1034F00018878EE190E0821B930B9C838B83CE0117
:1035000001960E94B01B04C060E070E080E09FEC78
:103510002896E6E00C94B11DACE0B0E0E2E9FAE1F7
:103520000C94991D69837A838B839C83CE010196C9
:10353000BE016B5F7F4F0E947E1C8D81823081F1C6
:10354000823070F1843021F48E81882369F10AC0C1
:103550002F81388537FD24C06E812F3131053CF035
:10356000662311F120E030E040E050E821C08EE118
:1035700090E0821B930B29853A854B855C8504C0BE
:1035800056954795379527958A95D2F7662381F00A
:1035900050954095309521953F4F4F4F5F4F08C054
:1035A00020E030E0A90104C02FEF3FEF4FEF5FE7CD
:1035B000B901CA012C96E2E00C94B51DA8E0B0E078
:1035C000E4EEFAE10C94931D7B018C011A826115E3
:1035D00071058105910519F482E089835FC083E05C
:1035E00089838EE1C82ED12CDC82CB82ED82FE82D3
:1035F0000F831887C801B7010E94561BFC01319741
:10360000F7FF3AC0AA27BB27AE1BBF0B21E030E073
:1036100040E050E00A2E04C0220F331F441F551F04
:103620000A94D2F721503040404050402E213F2193
:103630004023512361E070E080E090E021153105E6
:103640004105510519F460E070E0CB0104C0169506
:103650000795F794E794AA95D2F7E62AF72A082B5C
:10366000192BED82FE820F8318878EE190E08E1B6E
:103670009F0B9C838B8312C0309781F00E2E04C069
:10368000EE0CFF1C001F111F0A94D2F7ED82FE8280
:103690000F831887CE1ADF0ADC82CB82CE01019617
:1036A0000E94B01B2896E8E00C94AF1DAF92BF9229
:1036B000CF92DF92EF92FF920F931F937B018C01C9
:1036C00080E0E81680E0F80681E0080780E018074F
:1036D00058F4EFEFEE16F1040105110509F090F42E
:1036E00080E090E0DC0117C0F0E0EF16F0E0FF06AC
:1036F000F0E00F07F1E01F0750F480E190E0A0E058
:10370000B0E009C088E090E0A0E0B0E004C088E14B
:1037100090E0A0E0B0E020E230E040E050E0281B84
:10372000390B4A0B5B0B5701680104C0D694C79450
:10373000B794A7948A95D2F7D601C50187599D4FB2
:10374000FC018081281B310941095109C9011F91E0
:103750000F91FF90EF90DF90CF90BF90AF900895C2
:10376000EF92FF920F931F93CF93DF93FC0124817D
:1037700035814681578161818081823020F44061AA
:10378000EFEFF0E0A3C0843009F49BC0823009F46D
:1037900092C0211531054105510509F48FC0028001
:1037A000F381E02D8FEFE238F8070CF05AC0C2E841
:1037B000DFEFCE1BDF0BCA31D1056CF579018A0131
:1037C0000C2E04C016950795F794E7940A94D2F747
:1037D00081E090E0A0E0B0E00C2E04C0880F991FBB
:1037E000AA1FBB1F0A94D2F70197A109B10982232E
:1037F0009323A423B52321E030E040E050E000977C
:10380000A105B10519F420E030E0A9012E293F29D6
:10381000402B512B03C020E030E0A901DA01C9019F
:103820008F779070A070B07080349105A105B105BC
:1038300039F427FF09C0205C3F4F4F4F5F4F04C052
:10384000215C3F4F4F4F5F4FE1E0F0E0203080E0E0
:10385000380780E0480780E4580728F5E0E0F0E00A
:1038600022C0E038F1056CF5E158FF4FDA01C901DB
:103870008F779070A070B07080349105A105B1056C
:1038800039F427FF09C0205C3F4F4F4F5F4F04C002
:10389000215C3F4F4F4F5F4F57FF05C056954795EF
:1038A00037952795319687E0569547953795279513
:1038B0008A95D1F70BC0E0E0F0E005C0E0E0F0E071
:1038C00005C0EFEFF0E020E030E0A9018E2F8795F2
:1038D00088278795942F9F77679566276795E69544
:1038E000E22EA92FA82BFE2FF62B622F732F8A2FE3
:1038F0009F2FCDB7DEB7E6E00C94B11DDC01FB01D4
:103900002C9111963C91119712968C911297482FF9
:103910004F7750E0982F991F9927991F13966C9114
:103920001397862F880F892B90E0661F6627661FE6
:103930006183009739F5211531054105510511F4D1
:1039400082E029C082E89FEF9383828367E0220FA1
:10395000331F441F551F6A95D1F783E0808309C048
:10396000220F331F441F551F828193810197938338
:103970008283203080E0380780E0480780E45807E1
:1039800078F320C08F3F910579F421153105410569
:10399000510519F484E08083089544FF03C081E059
:1039A000808310C010820EC08F5790409383828313
:1039B00083E0808387E0220F331F441F551F8A95C1
:1039C000D1F7506424833583468357830895FC01DF
:1039D000DB019081923008F449C08C91823008F468
:1039E00045C0943051F461818430B1F511962C9129
:1039F000119730E0261B310941C0843021F092300C
:103A000041F48230B1F111968C9111978823A1F184
:103A10002DC06181823001F111968C911197681748
:103A2000D9F42281338112968D919C91139782173C
:103A3000930794F028173907BCF02481358146811B
:103A4000578114968D919D910D90BC91A02D821758
:103A50009307A407B50718F4662341F00DC0281793
:103A600039074A075B0728F4662331F021E030E08C
:103A700005C020E030E002C02FEF3FEFC9010895FC
:103A800097FB092E07260AD077FD04D02ED006D04A
:103A900000201AF4709561957F4F0895F6F7909580
:103AA00081959F4F0895A1E21A2EAA1BBB1BFD0111
:103AB0000DC0AA1FBB1FEE1FFF1FA217B307E4070D
:103AC000F50720F0A21BB30BE40BF50B661F771F65
:103AD000881F991F1A9469F7609570958095909545
:103AE0009B01AC01BD01CF010895AA1BBB1B51E195
:103AF00007C0AA1FBB1FA617B70710F0A61BB70B5E
:103B0000881F991F5A95A9F780959095BC01CD0102
:103B100008952F923F924F925F926F927F928F9271
:103B20009F92AF92BF92CF92DF92EF92FF920F934C
:103B30001F93CF93DF93CDB7DEB7CA1BDB0B0FB656
:103B4000F894DEBF0FBECDBF09942A883988488813
:103B50005F846E847D848C849B84AA84B984C884A9
:103B6000DF80EE80FD800C811B81AA81B981CE0FA0
:103B7000D11D0FB6F894DEBF0FBECDBFED01089585
:103B8000EE0FFF1F0590F491E02D0994CF93DF9382
:103B90008230910510F482E090E0E091BA04F09157
:103BA000BB0440E050E020E030E026C0608171813D
:103BB00068177907E0F06817790781F482819381AB
:103BC0002115310531F0D90113969C938E931297EC
:103BD0002BC09093BB048093BA0426C041155105B5
:103BE00019F06417750718F4AB01E901DF019F01B3
:103BF00072816381E72FF62F3097C1F64115510589
:103C000001F1481B590B4430510580F412968D91F7
:103C10009C911397209719F09B838A8304C09093FB
:103C2000BB048093BA04FD01329646C0FD01E40F47
:103C3000F51F819391934250504011965C934E939F
:103C40003BC02091B8043091B9042115310541F4ED
:103C500020916B0330916C033093B9042093B80426
:103C600020916D0330916E032115310541F42DB77C
:103C70003EB74091690350916A03241B350BE091D4
:103C8000B804F091B904E217F307A0F42E1B3F0B20
:103C90002817390778F0AC014E5F5F4F24173507BE
:103CA00048F04E0F5F1F5093B9044093B8048193BE
:103CB000919302C0E0E0F0E0CF01DF91CF91089551
:103CC000CF93DF93009709F491C0FC0132971382E0
:103CD00012826091BA047091BB046115710581F480
:103CE00020813181280F391F8091B8049091B90447
:103CF0008217930799F5F093B904E093B80476C05E
:103D0000DB0180E090E002C0CD01D901AE17BF0712
:103D100048F412962D913C91139721153105A1F786
:103D2000CD0121C0B383A283EF01499159919E0136
:103D3000240F351FA217B30779F42D913C911197E9
:103D4000240F351F2E5F3F4F3183208312962D9114
:103D50003C91139733832283009729F4F093BB049B
:103D6000E093BA0443C0DC011396FC93EE931297E0
:103D70004D915D91A40FB51FEA17FB0769F42081EF
:103D80003181240F351F2E5F3F4FEC01398328838B
:103D9000228133813B832A83E0E0F0E002C0FB0113
:103DA000BC01DB0112968D919C9113970097B9F796
:103DB0009B012E5F3F4F8D919C911197820F931F16
:103DC0004091B8045091B9044817590779F43097D5
:103DD00029F41092BB041092BA0402C0138212821A
:103DE000225030403093B9042093B804DF91CF9132
:103DF0000895A0E0B0E0EFEFFEE10C948F1D8C0180
:103E0000CB010115110529F40E94C61D082F192F99
:103E1000B5C0D80112979801260F371F2A173B0704
:103E200008F4AAC0ED90FC901197E616F706D0F0C2
:103E300045E0E416F10408F4A1C0A7014450504045
:103E40004617570708F49AC0A70142505040461B36
:103E5000570BF901419351936D937C93CF010E94CD
:103E6000601E8CC05B01AE18BF0848018E0C9F1C01
:103E7000E091BA04F091BB04CC24DD24C0E0D0E092
:103E800041C0E815F90599F560817181AB014E5F7C
:103E90005F4F4A155B0558F1AB014A195B09CC2409
:103EA000DD246894C1F8C40ED51E8280A380E5E0AD
:103EB000CE16D10448F0F9018282A3825183408357
:103EC00011969C938E9309C0C7010296860F971F87
:103ED00011969C938E93E82DFA2D209719F0FB8371
:103EE000EA834CC0F093BB04E093BA0447C040811E
:103EF0005181C416D50608F46A01EF01528143814D
:103F0000E52FF42F309709F0BCCF4091B8045091C1
:103F1000B90448155905E9F4C816D906D0F44091FA
:103F20006D0350916E034115510541F44DB75EB7D5
:103F30006091690370916A03461B570B241735077C
:103F4000D8F43093B9042093B80411969C938E93BF
:103F500015C00E94C61DC82EE6016E01D92EE601CD
:103F6000209751F08C2DB801A7010E940320C801B1
:103F70000E94601E860102C000E010E0C801CDB7BB
:103F8000DEB7ECE00C94AB1D1F93FC01992788274A
:103F9000BC01E89411911032E9F3193010F01E3091
:103FA000C8F31B3251F01D3249F4689406C00E94D8
:103FB000D020610F711D811D911D119110531A3078
:103FC000B0F33EF490958095709561957F4F8F4F3B
:103FD0009F4F1F910895911133C1803219F089507C
:103FE0008550D0F708959111089581548A5108F4AD
:103FF000805E855A08959111089581568A5108F47A
:10400000805285580895FB01DC0102C001900D9299
:1040100041505040D8F708956817790768F4FB01BC
:10402000DC01E40FF51FA40FB51F02C002900E9231
:1040300041505040D8F708950C940320FC01819121
:10404000861721F08823D9F7992708953197CF0152
:104050000895FB01DC018D91019080190110D9F3C5
:10406000990B0895FB01DC0101900D920020E1F70E
:104070000895FB01DC014150504030F08D910190DA
:10408000801919F40020B9F7881B990B0895FB01DA
:10409000DC014150504048F001900D920020C9F7DA
:1040A00001C01D9241505040E0F70895FC0181E0AD
:1040B00090E00190061609F4CF010020D1F7019796
:1040C0000895FB0151915523A9F0BF01DC014D91E9
:1040D00045174111E1F759F4CD010190002049F055
:1040E0004D9140154111C9F3FB014111EFCF81E022
:1040F00090E001970895FB019F01E8944230C4F0DD
:104100004532B4F44A3029F497FB1EF4909581951A
:104110009F4F642F77270E94751D805D8A330CF0B6
:10412000895D8193CB010097A1F716F45DE251936D
:104130001082C9010C942321FA01CF93FF93EF93CE
:10414000223044F1253234F5C22FE894CA3049F4C4
:1041500097FB3EF490958095709561957F4F8F4FBA
:104160009F4F2C2F332744275527FF93EF930E940F
:10417000531DEF91FF91605D6A330CF0695D6193AF
:10418000B901CA01605070408040904051F716F468
:10419000CDE2C19310828F919F91CF910C942321F6
:1041A000592F482F372F262F660F771F881F991FEB
:1041B000660F771F881F991F620F731F841F951F3B
:1041C000660F771F881F991F0895FA01CF93FF93F9
:1041D000EF932230CCF02532BCF4C22F2C2F3327A2
:1041E00044275527FF93EF930E94531DEF91FF91B2
:1041F000605D6A330CF0695D6193B901CA0160507A
:1042000070408040904051F710828F919F91CF91E4
:104210000C942321FB019F01423074F0453264F479
:10422000642F77270E94751D805D8A330CF0895DAD
:104230008193CB010097A1F71082C9010C9423212F
:10424000992788270895DC01FC01672F7191772356
:10425000E1F7329704C07C916D9370836291AE1741
:0A426000BF07C8F30895F894FFCFDC
:10426A004552524F523A207061636B65745F6C65B8
:10427A006E677468203E204D41585F5041434B455C
:10428A00545F4C454E475448210020004F4B2000B4
:10429A004641494C2000776174746167653D000DA1
:1042AA000A004E4F204D4F52452042554646455230
:1042BA0053210052583A00552DD454583A00200040
:1042CA000D0A005374617274696E67207266313226
:1042DA005F696E697469616C697A655F63632829CD
:1042EA00200052464D3132622066696E69736865F4
:1042FA006420706F7765722D7570207265736574AE
:10430A002E20205374617274696E6720696E697415
:10431A002E2E2E00617474616368696E6720696E5F
:10432A007465727275707400446F6E6520696E6987
:10433A00742E005374617274696E6720726631322A
:10434A005F696E697469616C697A655F656466281C
:10435A00292000555565A695555555555555555518
:10436A00555555465510000300505300004F45441B
:10437A00462045636F4D616E6167657220526563C1
:10438A0065697665720046696E6973686564206955
:10439A006E6974002E0000000000E206FF087D0628
:1043AA00AC069006CE0600000000B414FF08B41450
:1043BA00B414B414B4142E0000000000B414FF089E
:1043CA0000000000000000000000010202030303D5
:1043DA00030404040404040404050505050505058D
:1043EA00050505050505050505060606060606066C
:1043FA000606060606060606060606060606060653
:10440A00060606060606060606070707070707073B
:10441A000707070707070707070707070707070722
:10442A000707070707070707070707070707070712
:10443A000707070707070707070707070707070702
:10444A0007070707070707070708080808080808EB
:10445A0008080808080808080808080808080808D2
:10446A0008080808080808080808080808080808C2
:10447A0008080808080808080808080808080808B2
:10448A0008080808080808080808080808080808A2
:10449A000808080808080808080808080808080892
:1044AA000808080808080808080808080808080882
:1044BA000808080808080808080808080808080872
:1044CA000808080808080808082000BC04000000BA
:00000001FF
